:100000000C9470050C9498050C9498050C94980524
:100010000C9498050C9498050C9498050C949805EC
:100020000C9498050C9498050C9466070C94D807CA
:100030000C9498050C9498050C9498050C949805CC
:100040000C9498050C9498050C9498050C949805BC
:100050000C9498050C9498050C9498050C94CD0C70
:100060000C9498050C9498050C9498050C9498059C
:100070000C9498050C9498050C9498050C9498058C
:100080000C9498050C9498050C9498050C9498057C
:100090000C9498050C9498050C9498050C9498056C
:1000A0000C9498050C9498050C949805F0F89C8E87
:1000B0008783878E9CF8F00000FEFF030303030391
:1000C000070EFCF80000FEFF0303030303070EFC0A
:1000D000F80000FFFF00000000000000FFFF00002C
:1000E000FEFF8383838383C7EE7C380000F8FC0E19
:1000F00007030303070EFCF800003F7FE0C0808089
:10010000C0E07F3FFFFF01010101010101FFFF008E
:1001100000FFFF0C0C0C0C1C3E77E3C100007FFFBE
:10012000C0C0C0C0C0E0703F1F00001F3F70E0C0F3
:10013000C0C0E0703F1F00007FFFC1C1C1C1C1E36B
:10014000773E1C00001F3F70E0C0C0C0E0703F1F42
:10015000000000000001FFFF01000000D5F08D1439
:10016000A1C881CFD9F1AF2000F00000000000004D
:1001700000000000000000000F8007E00000000009
:10018000000000000000000001800FF000000000EF
:10019000000000000000000001800E380000003068
:1001A000000078000018000001000C180000003862
:1001B0000000FC00000C000000000C18000000EC27
:1001C0000001CE00000C000000000C18000000CC64
:1001D00000018600000C000000000C3B3847E0796D
:1001E0009F83B0000F8C100000000C737FCFF031A4
:1001F000DFCFF1983FCC300000000FE1EF9C3800DA
:10020000F0EDC19830EC300000000FE0C01818008D
:10021000E0618198606C600000000E30C000183012
:1002200060618FFF606CE00000000C38C000383067
:1002300060618FFF600DC00000000C1CC007F8302B
:10024000606181986007800000000C0CC00FD830FE
:1002500060618198600F000000000C0CC01C183019
:1002600060618FFF600EC00000000C0CC0181830D9
:1002700060618FFF606CE00000000C0CC0181C3047
:1002800060618198606C700000000E0CC01C3C78AE
:100290006061819830EC300000000FF8C00FF6FC70
:1002A000606181983FCC3000000007F0C007E6CCC9
:1002B000606180001F8C30000000000000003FFFE4
:1002C000FFFFFFF800000000000000000000A02178
:1002D000CC3A480A00000000000000000002AFBA5B
:1002E000B74E3BEA80000000000000000002A8A416
:1002F0002B82AA2A80000000000000000002A8A6AD
:10030000DBC30A2A80000000000000000002A8AD44
:1003100063C84A2A80000000000000000002AFB657
:100320000B631BEA80000000000000000002A02A0E
:10033000AAAAA80A80000000000000000002BFF086
:1003400085BB6FFA80000000000000000002A1A43D
:100350000FD8162A80000000000000000002ACEA5E
:100360007076845A80000000000000000002B93856
:100370006BDF703A80000000000000000002B957F7
:10038000F4A6C3CA80000000000000000002A5A17E
:10039000AFE257BA80000000000000000002B7C9B9
:1003A000BE3A49CA80000000000000000002BC8A7A
:1003B0003562970A80000000000000000002B7D2FA
:1003C0009A6BEA5A80000000000000000002A70CAF
:1003D000F251A70A80000000000000000002AF7880
:1003E0004A2D61FA80000000000000000002B0BF4A
:1003F000DB38B77A80000000000000000002A0C8CF
:10040000F3A82D8A80000000000000000002BE1B3F
:100410006E1A022A80000000000000000002B66B85
:100420008C7D2E4A80000000000000000002BA0B04
:100430005ADB275A80000000000000000002AF587D
:100440005BB795FA80000000000000000002B98848
:10045000B7E45C9A80000000000000000002A56A7A
:100460005DB2C78A80000000000000000002BE3FAD
:10047000B0BA094A80000000000000000002BAF291
:10048000426BA2FA80000000000000000002BAB433
:10049000E31484FA80000000000000000002BC6F3A
:1004A0006619892A80000000000000000002AC8F5D
:1004B0008A39E6FA80000000000000000002BAFD60
:1004C000B58D132A80000000000000000002B7BBB9
:1004D000E30E002A80000000000000000002BFECD4
:1004E000E87D8E0A80000000000000000002A030BD
:1004F000B7C7CA1A80000000000000000002AFB6B3
:100500003BE38E7A80000000000000000002A8B8E3
:10051000DBA4609A80000000000000000002A8A098
:10052000E9F8EDCA80000000008000000002A8A1E8
:100530004DB71DCA80000000018000000002AFA17D
:10054000ED6CB25A80000000018000000000A02283
:100550000B0E855A0000000001F0000000003FFF74
:10056000FFFFFFF8000000000F00000000003E5BEE
:100570004F5B3E3E6B4F6B3E1C3E7C3E1C183C7EF0
:100580003C181C577D571C1C5E7F5E1C00183C18D5
:1005900000FFE7C3E7FF0018241800FFE7DBE7FFD1
:1005A00030483A060E2629792926407F050507405E
:1005B0007F05253F5A3CE73C5A7F3E1C1C08081C1F
:1005C0001C3E7F14227F22145F5F005F5F06097F5D
:1005D000017F006689956A606060606094A2FFA2F6
:1005E0009408047E040810207E201008082A1C08A5
:1005F000081C2A08081E101010100C1E0C1E0C30AF
:10060000383E3830060E3E0E0600000000000000A6
:100610005F00000007000700147F147F14242A7F66
:100620002A12231308646236495620500008070333
:1006300000001C2241000041221C002A1C7F1C2AB1
:1006400008083E0808008070300008080808080004
:100650000060600020100804023E5149453E0042FF
:100660007F400072494949462141494D33181412CF
:100670007F1027454545393C4A49493141211109F7
:10068000073649494936464949291E0000140000E9
:100690000040340000000814224114141414140003
:1006A0004122140802015909063E415D594E7C124F
:1006B00011127C7F494949363E414141227F4141E7
:1006C000413E7F494949417F090909013E41415164
:1006D000737F0808087F00417F41002040413F01AF
:1006E0007F081422417F404040407F021C027F7FF0
:1006F0000408107F3E4141413E7F090909063E4101
:1007000051215E7F09192946264949493203017F53
:1007100001033F4040403F1F2040201F3F403840E2
:100720003F631408146303047804036159494D437B
:10073000007F4141410204081020004141417F04F3
:1007400002010204404040404000030708002054DA
:100750005478407F2844443838444444283844443A
:10076000287F385454541800087E090218A4A49C09
:10077000787F0804047800447D40002040403D001C
:100780007F1028440000417F40007C047804787C7E
:10079000080404783844444438FC182424181824E5
:1007A0002418FC7C08040408485454542404043FCE
:1007B00044243C4040207C1C2040201C3C403040D5
:1007C0003C44281028444C9090907C4464544C4401
:1007D00000083641000000770000004136080002A2
:1007E000010204023C2623263C1EA1A161123A40CC
:1007F00040207A3854545559215555794121545443
:100800007841215554784020545579400C1E52723D
:100810001239555555593954545459395554545819
:100820000000457C410002457D420001457C40F0CE
:10083000292429F0F0282528F07C5455450020541F
:10084000547C547C0A097F4932494949323248482C
:100850004832324A4848303A4141217A3A424020AF
:1008600078009DA0A07D39444444393D4040403D3E
:100870003C24FF2424487E4943662B2FFC2F2BFF6A
:100880000929F620C0887E090320545479410000CC
:10089000447D413048484A32384040227A007A0A42
:1008A0000A727D0D19317D2629292F28262929290B
:1008B0002630484D4020380808080808080808383D
:1008C0002F10C8ACBA2F102834FA00007B000008A3
:1008D000142A142222142A14089500220095AA0032
:1008E0005500AAAA55AA55AA000000FF0010101032
:1008F000FF00141414FF001010FF00FF1010F01080
:10090000F0141414FC001414F700FF0000FF00FFA3
:100910001414F404FC141417101F10101F101F14CB
:1009200014141F00101010F0000000001F10101011
:10093000101F10101010F010000000FF1010101009
:100940001010101010FF10000000FF140000FF0036
:10095000FF00001F10170000FC04F41414171017F8
:100960001414F404F40000FF00F714141414141405
:1009700014F700F7141414171410101F101F141478
:1009800014F4141010F010F000001F101F000000ED
:100990001F14000000FC140000F010F01010FF10F5
:1009A000FF141414FF141010101F00000000F010AA
:1009B000FFFFFFFFFFF0F0F0F0F0FFFFFF0000008F
:1009C0000000FFFF0F0F0F0F0F38444438447C2AFC
:1009D0002A3E147E02020606027E027E026355490A
:1009E00041633844443C04407E201E2006027E02BF
:1009F0000299A5E7A5991C2A492A1C4C7201724C40
:100A0000304A4D4D303048784830BC625A463D3E01
:100A1000494949007E0101017E2A2A2A2A2A4444A2
:100A20005F444440514A444040444A51400000FF22
:100A30000103E080FF000008086B6B0836123624C3
:100A400036060F090F0600001818000000101000ED
:100A50003040FF0101001F01011E00191D17120087
:100A60003C3C3C3C0000000000080B00020202017C
:100A70000009040000010202000005240010010525
:100A80002401010104240206052406000107058152
:100A90000310004009040100020A000000070502DB
:100AA000024000000705830240000004030904120D
:100AB000010002EF020140412336800001010203E0
:100AC0000141726475696E6F204C4C430041726441
:100AD00075696E6F204C656F6E6172646F004F15A3
:100AE00011241FBECFEFDAE0DEBFCDBF13E0A0E0E0
:100AF000B1E0E6E9FBE202C005900D92AE34B10729
:100B0000D9F729E0AEE4B3E001C01D92AF32B207DD
:100B1000E1F715E0C0E7D5E004C02197FE010E948F
:100B2000BE15CF36D107C9F70E94170D0C94C91511
:100B30000C9400004091AD045091AE042091AB04A0
:100B40003091AC0442175307B4F49091E8009570CB
:100B5000E1F39091E80092FD19C08093F10080913B
:100B6000AD049091AE0401968F739927892B19F4E7
:100B70008EEF8093E8008091AD049091AE040196D1
:100B80009093AE048093AD0481E0089580E00895D1
:100B9000DF92EF92FF920F931F93CF93DF93D82EA4
:100BA0008A017B01E40EF51EEB01CE15DF0571F025
:100BB000D7FE03C0FE01849101C088810E949A057E
:100BC00021968111F2CF8FEF9FEF01C0C801DF9115
:100BD000CF911F910F91FF90EF90DF90089561509A
:100BE00030F02091F100FC0120830196F8CF289885
:100BF00084E68093B5040895CF92DF92EF92FF923E
:100C00000F931F93CF93DF936C017A018B01C0E0A8
:100C1000D0E0CE15DF0581F0D8016D918D01D601B0
:100C2000ED91FC910190F081E02DC6010995892B91
:100C300011F02196EECF7E01C701DF91CF911F9178
:100C40000F91FF90EF90DF90CF900895CF93DF93B7
:100C50001F92CDB7DEB76983DC01ED91FC91028074
:100C6000F381E02D41E050E0BE016F5F7F4F0995B9
:100C70000F90DF91CF91089583E08093E9008091F8
:100C8000F200882319F08AE38093E8000895FC01BC
:100C90008485958597FD0BC09FB7F89482E080937B
:100CA000E9008091F2009FBF90E0019608959FB700
:100CB000F89482E08093E9008091F2009FBF90E079
:100CC00008950895089580E090E008950E94C41565
:100CD0000F931F93CF93DF931F92CDB7DEB782E0C0
:100CE000898342E450E069E67AE080E80E94C80522
:100CF0000E947F0CDC0112960D911C911397011537
:100D0000110589F0D801ED91FC910280F381E02D6D
:100D1000BE016F5F7F4FC801099597FD04C0F801C0
:100D200000851185ECCF89810F90DF91CF911F91C4
:100D30000F9108958F929F92AF92BF92CF92DF92C0
:100D4000EF92FF920F931F93CF93DF936C017B0180
:100D50008A0180910B03882309F45CC08091B6045A
:100D6000882309F457C080914E0380FF05C080910D
:100D7000E00082608093E000E801B12C8AEFA82EA9
:100D800093E0892E2AE3922E209711F4BB20D9F10B
:100D90000E946E0C81110AC0AA94AA20D9F161E0C8
:100DA00070E080E090E00E94930CEECF282F30E0BE
:100DB000C217D3070CF48C2F9FB7F8948092E900E8
:100DC0002091E80025FF1DC0282F30E0C21BD30B67
:100DD000F701815020F041914093F100FACFE20EEB
:100DE000F31EBB2019F09092E8000AC08091E80041
:100DF00085FD07C09092E800BB24B394209709F0CA
:100E0000B12C9FBFC1CF5D9884E68093B0041016CB
:100E1000110644F081E090E0F6019383828380E044
:100E200090E001C0C801DF91CF911F910F91FF9019
:100E3000EF90DF90CF90BF90AF909F908F900895EC
:100E40000E946E0C90E008950F931F93CF93DF9351
:100E50001F92CDB7DEB78C01FC018485958597FF85
:100E60000EC0CE0101960E94400C019719F48981B1
:100E700090E002C08FEF9FEFF80195878487F8011B
:100E8000848595850F90DF91CF911F910F910895E3
:100E9000CF93DF931F92CDB7DEB7FC018485958594
:100EA00097FD05C02FEF3FEF358724870BC0CE019C
:100EB00001960E94400C019719F4898190E002C0CC
:100EC0008FEF9FEF0F90DF91CF9108951F920F92B8
:100ED0000FB60F9211248F939F938091E100909110
:100EE000E100937F9093E10083FF0FC01092E9002F
:100EF00091E09093EB001092EC0092E39093ED0060
:100F00001092B60498E09093F00082FF20C093E026
:100F10009093E9009091F200992319F09AE390934D
:100F2000E8009091B004992339F09091B004915069
:100F30009093B004992389F19091B504992339F0E5
:100F40009091B50491509093B504992341F184FF99
:100F500010C08091E2008E7E81608093E2008091DB
:100F6000E1008F7E8093E10080914E038E7E806150
:100F700011C080FF16C08091E2008E7E8061809358
:100F8000E2008091E1008E7E8093E10080914E032B
:100F90008E7E816080934E0304C05D9ACDCF289AE7
:100FA000D6CF9F918F910F900FBE0F901F901895E5
:100FB0001F920F920FB60F921124CF92DF92EF92F1
:100FC000FF920F931F932F933F934F935F936F93D2
:100FD0007F938F939F93AF93BF93EF93FF93CF93A1
:100FE000DF93CDB7DEB76C97DEBFCDBF1092E900BF
:100FF0008091E80083FFFBC168E0CE0145960E9426
:10100000EF0582EF8093E8008D8987FF05C09091FE
:10101000E80090FFFCCF03C09EEF9093E800982F6C
:10102000907609F0C6C09E894F89588D2F89F88C1B
:1010300091110CC0803829F480914F038093F10006
:1010400002C01092F1001092F10045C1913051F4AC
:10105000811141C14130510509F03DC180914F03DB
:101060008D7F0BC0933061F4811135C14130510542
:1010700009F031C180914F03826080934F032BC1EF
:10108000953049F48091E80080FFFCCF822F806882
:101090008093E30020C1963009F05EC00B8D1C8D5B
:1010A00022E01092E9001092AE041092AD04F21208
:1010B00032C01092AC041092AB040E94680699E012
:1010C000BE016F5F7F4FDB01E92F1D92EA95E9F7C3
:1010D0009983FA8291E09E8390EA98879AEF9987A4
:1010E0002091AD043091AE04275F3F4F3C832B83AA
:1010F0008D831092E9001092AE041092AD0410930B
:10110000AC040093AB0449E050E080E00E94C805C5
:101110000E946806E0C01093AC040093AB040E94E8
:101120007F0CDC0112960D911C911397011511058E
:1011300009F4BBC0D801ED91FC910480F581E02D4C
:10114000BE016B5E7F4FC8010995009709F0C7C0CB
:10115000F80100851185EACF973009F445C1983030
:1011600021F481E08093F100B6C0993009F0B3C05A
:10117000837009F039C1EDE0F3E081E031E096E3FE
:101180002081211109C08EE78093EA001092EA00C5
:101190008F898093B6049FC08093E9003093EB0061
:1011A00021912093EC009093ED008F5F873041F701
:1011B000EACF8B8D9C8D1092E9001092AE041092B4
:1011C000AD049093AC048093AB04898D811153C01E
:1011D0008E899D89913A49F4813209F005C147E031
:1011E00050E064E073E080E0BBC0913209F0FCC0E5
:1011F000833269F48F89988DA0E0B0E0809300037A
:1012000090930103A0930203B093030364C0803260
:1012100069F48091E80082FFFCCF67E084E093E00E
:101220000E94EF058BEF8093E80055C0823209F0F1
:1012300052C08F8980930B03EEEFFFE78591949165
:101240008B3F9C4D19F0E0E0F8E002C0EEEFFAE0D1
:101250008091040390910503A0910603B0910703C8
:10126000803B9440A105B10509F09EC080910B031D
:1012700080FF79C099C00E947F0CFC01028113811C
:101280000115110509F4B0C0D801ED91FC91019050
:10129000F081E02DBE016B5E7F4FC8010995811181
:1012A0001AC0F80100851185EBCFF1E0FF1609F4B3
:1012B0004EC0F3E0FF1298C08F89882309F44AC01A
:1012C000823089F440E860E18DEC9AE00E94D51408
:1012D000882309F489C08EEF8093E80088C018162F
:1012E0001906CCF381C0813029F440E86BE081EC31
:1012F0009AE0ECCF833009F077C00E947F0CDC01CC
:101300001296ED90FC9013978E010F5F1F4F6801AE
:10131000E114F10479F0D701ED91FC910680F78199
:10132000E02DB801C7010995080F111DF701E084F0
:10133000F184EECFD8011C92F60101900020E9F76C
:101340003197BF016C197D0940E0C601BFCF6FEA3C
:101350007AE002C06BEA7AE0FB01449150E080E859
:101360000E94C805B8CFEE3F2AE0F20751F0808115
:1013700091818737A7E79A0721F09093FF0A80931E
:10138000FE0A87E797E791838083809160008093CE
:10139000AF049BE088E10FB6F894A89580936000B5
:1013A0000FBE9093600097CF8081918187379747D8
:1013B00009F091CFA89580916000886180936000CA
:1013C0008091AF0480936000EE3FBAE0FB0739F0F4
:1013D0008091FE0A9091FF0A918380837CCF1092C6
:1013E000FF0A1092FE0A77CF81E28093EB006C96A1
:1013F0000FB6F894DEBF0FBECDBFDF91CF91FF9146
:10140000EF91BF91AF919F918F917F916F915F917C
:101410004F913F912F911F910F91FF90EF90DF908F
:10142000CF900F900FBE0F901F901895DC01ED919B
:10143000FC910190F081E02D09942D9A0895BC0152
:1014400080E090E00C94930C8FB18095807F669B38
:1014500088601C9B846008950C94801580389105E9
:10146000B8F460347105A0F490E121E061FD24E05E
:1014700060FD220F62FD2295687F969FD0011124A6
:10148000A80FA954BB4F8C91822B40FF82278C93CD
:1014900008952F923F924F925F926F927F928F9218
:1014A0009F92AF92BF92CF92DF92EF92FF920F93F3
:1014B0001F93CF93DF93CDB7DEB727970FB6F8947E
:1014C000DEBF0FBECDBF9F838E836A30A1F4DC01E7
:1014D00055962C91559751968D919C915297B8E0C5
:1014E0002B9F800D911D1124EE81FF81928B818BAA
:1014F000108A1786ADC06D3009F4AAC0AE81BF81D5
:101500001F960D911C91509700381105BCF0EE818B
:10151000FF812589422F50E087859089F6E02F9F33
:10152000800D911D1124AE81BF8150969C938E93A6
:101530001F9756962C91211175C08AC0EE81FF81AC
:1015400081889288F0E48F1691040CF7AE81BF81F8
:1015500055963C90C801B5E03B9E800D911D11242D
:1015600018161906A4F6432C512CC401E8E03E9E3F
:10157000800D911D1124181619064CF6AE81BF81FD
:101580005496BC91BC83EE81FF81F389FD8325E0F5
:10159000629FB0011124CB0187599A4F3C011982F7
:1015A000F3012490F981F53009F4212C640128E03D
:1015B0002B8320FE03C03D813A8302C08C818A8345
:1015C0009A81911104C0AC81BD81AB17B9F078014B
:1015D0008E2D801B831590F456018A2D8C1983154E
:1015E00048F44A81B501C7010E942E0AEFEFAE1AF6
:1015F000BE0AF3CFFFEFEF1AFF0AEACF26942B8142
:1016000021502B83C40CD51C2111D3CF39813F5FCE
:101610003983040D151DC30101963C01363009F0D4
:10162000BFCF75CF6AEF64039001659F300D112421
:1016300020583F4F281739075CF4AE81BF81ED91E8
:10164000FC9111970190F081E02D6AE0CD010995A0
:1016500081E090E027960FB6F894DEBF0FBECDBFB5
:10166000DF91CF911F910F91FF90EF90DF90CF907E
:10167000BF90AF909F908F907F906F905F904F90B2
:101680003F902F900895FF920F931F93CF93DF9376
:10169000EC01F62E08811981C8010E948015F81608
:1016A00021F06F2DC8010E948815CE01DF91CF91E6
:1016B0001F910F91FF9008953FB7F89480911F09F3
:1016C00090912009A0912109B091220926B5A89BEB
:1016D00005C02F3F19F00196A11DB11D3FBFBA2FC4
:1016E000A92F982F8827820F911DA11DB11DBC0124
:1016F000CD0142E0660F771F881F991F4A95D1F7E9
:101700000895E7EBF4E0A0E0B8E000800EBC8111A2
:10171000012C1197A0FDFDCF0192B9F70DB40895EA
:1017200080E0E7EBF4E081118FEF00248193819357
:10173000819381930394D1F708952091110928236F
:1017400029F490911009982381E009F480E008952C
:10175000009769F0FC0101900020E9F73197AF0193
:10176000481B590BBC0187E099E00C94FC0580E014
:1017700090E008952F923F924F925F926F927F92E6
:101780008F929F92AF92BF92CF92DF92EF92FF9291
:101790000F931F93CF93DF93EC018B017A016901C3
:1017A000C61AD70AD7FE03C0D194C194D108470105
:1017B0008C1A9D0A97FE03C09194819491088C1411
:1017C0009D0454F49E2D8F2D7901292F382F9C2FA5
:1017D0008D2FE801092F182FEC16FD0654F4902FD9
:1017E000812F8901292F382F9C2F8D2FE701E92E7A
:1017F000F82E17012C1A3D0A2901401A510A57FEEA
:1018000003C0519441945108310137FE03C08FEF5A
:10181000681A780A759467940217130714F08FEF0B
:1018200001C081E0A82E880FBB08EC16FD06ACF0C5
:1018300041E08C149D041CF4BE01C80102C0B80133
:10184000CE010E942E0A6418750877FE04C00A0DA6
:101850001B1D620C731C2196E8CFDF91CF911F9165
:101860000F91FF90EF90DF90CF90BF90AF909F903F
:101870008F907F906F905F904F903F902F90089542
:101880002091B604211103C08FEF9FEF08955FB739
:10189000F89422E02093E9002091F20030E0121643
:1018A000130614F421E030E0422FFC0184E641509D
:1018B00038F028988093B5049091F1009193F7CF78
:1018C0002115310521F08091F200882319F05FBFC6
:1018D000C90108958BE68093E800F9CF2FB7F894FB
:1018E00083E08093E9009091E800892F807295FF52
:1018F00004C09091F20080E4891B2FBF089580916D
:10190000270981110DC082E08093230984E0809330
:101910002409109226091092250981E08093270955
:1019200083E299E008958F929F92AF92BF92CF92F7
:10193000DF92EF92FF926B017C010E945C0B4B01E6
:101940005C01C114D104E104F104F1F00E945C0BCC
:10195000DC01CB0188199909AA09BB09883E93408B
:10196000A105B10570F321E0C21AD108E108F10820
:1019700088EE880E83E0981EA11CB11CC114D1040E
:10198000E104F10419F7DDCFFF90EF90DF90CF90E5
:10199000BF90AF909F908F9008951F920F920FB6B7
:1019A0000F9211242F933F938F939F93AF93BF93E5
:1019B0008091B1049091B204A091B304B091B404A9
:1019C00030911E0923E0230F2D3720F40196A11D2D
:1019D000B11D05C026E8230F0296A11DB11D20935D
:1019E0001E098093B1049093B204A093B304B09302
:1019F000B40480911F0990912009A0912109B09110
:101A000022090196A11DB11D80931F099093200901
:101A1000A0932109B0932209BF91AF919F918F911B
:101A20003F912F910F900FBE0F901F901895CF935D
:101A3000DF93CDB7DEB728970FB6F894DEBF0FBEA1
:101A4000CDBF789484B5826084BD84B5816084BD47
:101A500085B5826085BD85B5816085BD80916E004C
:101A6000816080936E00109281008091810082607D
:101A700080938100809181008160809381008091BA
:101A800080008160809380008091910082608093CB
:101A900091008091910081608093910080919000ED
:101AA0008160809390008091C10084608093C10028
:101AB0008091C10082608093C1008091C1008160EB
:101AC0008093C1008091C30081608093C3008091A6
:101AD000C00082608093C0008091C20081608093CA
:101AE000C20080917A00846080937A0080917A00AD
:101AF000826080937A0080917A00816080937A007E
:101B000080917A00806880937A001092B6041092D7
:101B10004F0310924E038091D70081608093D700CD
:101B200080EA8093D80089B5806189BD89B58260DB
:101B300089BD09B400FEFDCF61E070E080E090E077
:101B40000E94930C8091D8008F7C80618093D80094
:101B50008091E000807F8093E0008091E1008E7EA4
:101B60008093E1008DE08093E200559A209A8FEFF8
:101B70009FEF9093C4088093C30881EC80937C000E
:101B800085B1806F85B984B1877E84B984B1876E51
:101B900084B95E9A5F988AB1806D8AB9769A6E9898
:101BA00081B3806F81BB899880B38D7080BB80E5E5
:101BB0008CBD81E08DBD85E090E00E941F0A5F9A98
:101BC00085E090E00E941F0A5E985C98ECE5F1E0E9
:101BD00084918EBD00000DB407FEFDCF319621E04B
:101BE000E936F207A9F75C9A81E880936400809156
:101BF000650081608093650080E00E94810B0E94F7
:101C0000240A87FF15C05C9885EA8EBD00000DB4DC
:101C100007FEFDCF5C9A2E982F982D988091640036
:101C200080628093640081E083BF889513BEFCCFFF
:101C300002E010E00E94240A82FF42C02D980E9418
:101C4000240A8478843831F00E94240A8471843113
:101C500091F519C00E941D0A88EC90E00E941F0AAD
:101C60002F981A8309836FEFCE0101960E94430BD0
:101C700084EF91E00E941F0A2F9A0E94240A847820
:101C80008438D9F3E1CF0E941D0A88EC90E00E94CD
:101C90001F0A2E981A83098360E0CE0101960E94E4
:101CA000430B84EF91E00E941F0A2E9A0E94240A9F
:101CB00084718431D9F388EC90E00E941F0ABACF76
:101CC0000E941D0A82E090E00E942C0A882319F0ED
:101CD0003E9A3F9A02C03E983F9881E090E00E9471
:101CE0002C0A382F3470932E81FF85C031112E9825
:101CF00000EF1FEFE8E0EE2EF12C0E94240A86FF91
:101D000005C02E9A2F9A0E941D0A75C0992029F0AD
:101D10000430110511F42E9A2F9881E00E94810B56
:101D2000980117FF04C022273327201B310B27708F
:101D30003327C80117FD079673E0959587957A9527
:101D4000E1F717FF05C00197A701421B530B9A014A
:101D5000AC015695542F44275795479549545B4FEE
:101D600060E070E03701621A730A8F3FAFEF9A07A5
:101D70004CF40196685A7F4F40585F4F603B7105A5
:101D8000A1F71EC05A01B4E9AB0EB11C6A01A0E074
:101D9000B0E08F3FEFEF9E0709F4A5C1FD01E60F0C
:101DA000F71FE455FF4FE491F0E02F01022E01C030
:101DB000440C0A94EAF7F60184884828448A93C1BF
:101DC00080E00E94810B8FE090E00E941F0A0F5F6D
:101DD0001F4F0931110509F090CF992011F02F9A6A
:101DE0002D9880E991E00E941F0A0E941D0A87E059
:101DF00099E00E940A1582E390E00E941F0A0E9467
:101E0000240A8111F8CF82E3809312090E94900B7B
:101E100010921909109218091092170910921609B8
:101E2000C12CD12CE12CF12C10E8A12EB12C00E01A
:101E300010E0F801B3E0F595E795BA95E1F7EC0D00
:101E4000FD1DE759FE4F8491980127703327A501A6
:101E500002C0559547952A95E2F7E82FF0E0E42374
:101E6000F523EF2B29F041E0B701C8010E942E0AAB
:101E70000F5F1F4F00381105E1F65FEFE51AF50A15
:101E800080E1C80ED11C90E4E916F10481F680E0EF
:101E90000E94810B0E94240A83FFFCCF82E390E022
:101EA0000E941F0A0E94240A8111F8CF1092AA04EE
:101EB0001092A904109252031092510380E190E015
:101EC0000E9480158B8381E190E00E9480158C83B5
:101ED0008B819C818E31984191F4A0E0EA2EA1E0A3
:101EE000FA2E02E110E0C8010E948015F7018193EB
:101EF0007F010F5F1F4F0231F2E01F07A1F774E16E
:101F0000E72EF12C04E010E0E0E28E2E912CAA24C2
:101F1000A394B12C62E0462E512C8FB7F8944091D7
:101F2000B1045091B2046091B3047091B4048FBFB6
:101F300080911309242F281B822F90911409992333
:101F400029F02093150910921409C5C02091120997
:101F5000821748F48F5F821708F0BDC081E083BF0D
:101F6000889513BEB8C081E080931409409313098B
:101F700080910E0990910F09019690930F0980931B
:101F80000E0980911509281710F45D98CDC05D9A4F
:101F9000CBC0641708F4D5C4712CC12CD12C662495
:101FA000639480915003D601E4E18E9FA00DB11D92
:101FB0001124FD01E050FF4F3080209157043091F3
:101FC0005804A217B30721F410921A0960921B0952
:101FD000632D87E099E00E94160A809150039601D4
:101FE000F4E18F9F200D311D1124809157049091B1
:101FF00058042817390721F460921A0910921B0916
:10200000C601B7010E949615439769F47394109323
:1020100017090093160928E0729EC00111249093BD
:102020001909809318093FEFC31AD30A31108CC4E1
:1020300020E030E043E050E060E070E080E090E0DD
:102040000E94BA0B23E030E040E050E060E070E036
:1020500080E090E00E94BA0B2FE330E043E050E0D4
:102060006FE370E080E090E00E94BA0B2CE330E078
:1020700040E050E06FE370E080E090E00E94BA0B37
:1020800020E030E04CE750E060E070E08FE790E067
:102090000E94BA0B23E030E04FE750E060E070E0D0
:1020A0008FE790E00E94BA0B2FE330E04CE750E05E
:1020B0006FE370E08FE790E00E94BA0B2CE330E012
:1020C0004FE750E06FE370E08FE790E00E94BA0BBB
:1020D00080E00E94810B80E090E0892B09F41DCF05
:1020E0000E94000017CF2115310591F0FD01E60F88
:1020F000F71FE455FF4FE491F0E02F01062C02C0DA
:10210000559447940A94E2F7F5018080482840826C
:102110001196FFEFAF1ABF0AEFEFCE1ADE0AA8350D
:10212000B10509F036CE25CE0E94900B1092190908
:10213000109218091092170910921609809110092F
:10214000809311090E94240A8093100910931709A3
:1021500000931609909219098092180981E894E079
:102160009E838D833C01312CC12CD12CD3012D9029
:102170003D01622D87E099E00E94160AC601B70171
:102180000E949615439789F433941093170900938E
:102190001609832D90E0049653E0880F991F5A95F5
:1021A000E1F79093190980931809BFEFCB1ADB0A66
:1021B000222021F0E8E2CE16D104C1F610931709CF
:1021C0000093160920E330E0309319092093180991
:1021D00049E5642E44E0742E78866F82312CC12C40
:1021E000D12CAF81B8852D90B887AF83622D87E061
:1021F00099E00E94160AC601B7010E9496154397FE
:1022000089F433941093170900931609832D90E0F5
:10221000069633E0880F991F3A95E1F790931909D4
:1022200080931809BFEFCB1ADB0A222021F0E8E2E5
:10223000CE16D104B1F68091A9049091AA04813000
:10224000910531F008F424C1029709F4C6C05EC3B9
:1022500083E884BD8FEE87BD81EF8093800010926C
:10226000880080E180938A000E94240A8C708C3060
:1022700021F41092AA041092A904209157043091DD
:102280005804F901E050FF4F80818E32B9F184F497
:102290008C3209F445C044F58B3209F08AC0E091D4
:1022A0005504F0915604EB5AFC4F80818F5F24C097
:1022B0008E3381F04CF48C3309F07BC0809155044F
:1022C0009091560401970BC08B3579F18D3509F447
:1022D0004DC06FC080915504909156040196909323
:1022E00056048093550465C0E0915504F09156045E
:1022F000EB5AFC4F8081815080835BC080915403F6
:10230000E82FF0E0EF57FB4FA0915504B091560431
:10231000AB5ABC4F9C9190838F5F8093540349C00C
:102320005092AA044092A90444C0E0915504F0914F
:102330005604EB5AFC4F808181113BC0F901EF5FDD
:10234000FE4F81E090E0AF014050514021912B358C
:1023500011F4019618C32D3511F4019714C3181602
:1023600019060CF014C32111EECF11C3E0915504EE
:10237000F0915604EB5AFC4F80818823D1F041E064
:1023800050E0B901615071099B01FB01E050FF4F22
:1023900080818B3519F441505109FEC28D3519F4F5
:1023A0004F5F5F4FF9C2181664F37093580460933F
:1023B00057048091570490915804019690935804C3
:1023C00080935704FC01E050FF4F808181119EC231
:1023D0001092AA041092A90499C283E884BD8FEFD9
:1023E00087BD81EF809380001092880080E1809308
:1023F0008A0070905303872D90E09C01275A3B4F31
:102400006901D9018C91811102C080E28C9388E02E
:102410000E949D0B882381F0E0915504F0915604B1
:10242000EB5AFC4FD6018C918083739470925303C6
:10243000B092AA04A092A90480E80E949D0B882370
:1024400081F0E0915303F0E0E75AFB4F8081082EC2
:10245000000C990BCD966EE570E00E949615805E9B
:10246000808380E10E949D0B882309F44FC2E09194
:102470005303F0E0E75AFB4F8081082E000C990BC4
:10248000CF966EE570E00E949615805E80833EC216
:1024900080915103909152038130910509F479C0E4
:1024A00020F0029709F42DC131C283E884BD8FEF7B
:1024B00087BD81EF8093800080E180938800109237
:1024C0008A0088E00E949D0B882321F0B09252037D
:1024D000A092510384E00E949D0B882321F050922A
:1024E00052034092510380E80E949D0B882361F0C3
:1024F0008091570490915804843191052CF04497B1
:10250000909358048093570480E10E949D0B882388
:10251000C1F080915704909158048B3E91058CF442
:102520004496FC01E050FF4F2081211103C0181692
:1025300019062CF0909358048093570402C0019719
:10254000F0CF80E20E949D0B882361F080915704B8
:1025500090915804181619062CF40197909358047A
:102560008093570480E40E949D0B882309F4CEC118
:102570008091570490915804FC01E050FF4F218155
:10258000222309F4C3C10196909358048093570401
:10259000BDC183E884BD8FEE87BD81EF809380004D
:1025A00080E18093880080938A0088E00E949D0BE0
:1025B000882321F0109252031092510384E00E946C
:1025C0009D0B882321F0509252034092510380E8E2
:1025D0000E949D0BC0905704D0905804882329F185
:1025E000F601E050FF4F80818E32C9F03CF48C320E
:1025F000C1F09CF48B32C9F48DE216C08E3359F0D1
:1026000024F48C3391F48BE20FC08B3561F08D355F
:1026100061F48EE309C08CE307C08EE205C08CE252
:1026200003C08BE501C08DE5808380E10E949D0B96
:10263000882329F1F601E050FF4F80818E32C9F0E6
:102640003CF48C32C1F09CF48B32C9F48CE316C09C
:102650008E3359F024F48C3391F48EE30FC08B3514
:1026600061F08D3561F48BE509C08DE507C08BE223
:1026700005C08DE203C08EE201C08CE2808380E25F
:102680000E949D0B8823D1F09601F601E050FF4F88
:10269000D901A050BF4F11968C918193C901019629
:1026A0009C014081411105C0FC01E050FF4F1082A8
:1026B00005C08F3FB1E09B075CF3F6CF80E40E943A
:1026C0009D0B882309F422C19601F601E050FF4FCB
:1026D0008081CD2861F481110AC08EE280930001CF
:1026E00015C1892F2F3FE1E03E070CF00FC12F5F8E
:1026F0003F4FF901E050FF4F908180838111F1CF6E
:1027000005C183E884BD8FEF87BD81EF8093800092
:102710001092880010928A0010921A09DD24D39436
:10272000D0921B0925E330E0309317092093160956
:10273000909219098092180989E393E00E94A80BEE
:10274000909217098092160948E250E050931909B7
:10275000409318098DE393E00E94A80B82E490E077
:102760009093170980931609A8E2B0E0B093190975
:10277000A093180982E493E00E94A80BE2E3F0E042
:10278000F0931709E093160920E330E0309319091C
:102790002093180988E493E00E94A80BD0921A09AC
:1027A00010921B0980E80E949D0B882351F189EA51
:1027B00094E0AD81BE811D92BE83AD838A179B07D5
:1027C000C1F781E894E0F30111923F018E179F0752
:1027D000D1F7E5E5F3E085E594E011928E179F07C8
:1027E000E1F7109254031092530310925804109280
:1027F0005704B092AA04A092A90410925203109216
:10280000510380E10E949D0B882371F180E190E0EB
:102810009A8389836EE1CE0101960E94430B81E188
:1028200090E09A83898368E1CE0101960E94430B70
:1028300090E0692E91E0792E22E1C22ED12CD301B5
:102840006D913D01DA82C982CE0101960E94430B4F
:10285000BFEFCB1ADB0AE2E1CE16E2E0DE0679F743
:10286000109252031092510380E40E949D0B882322
:10287000C1F080E0C82E81E0D82ED6016D916D01A7
:1028800087EB98E00E94160AF6018081882329F0E0
:102890002FEF32E02C153D0581F710925203109274
:1028A000510380E20E949D0B8823F1F0C12CD12CB2
:1028B00087EB98E00E9447061816190634F4C114F5
:1028C00032E0D3060CF446C00BC0F601E050FF4FD7
:1028D000CF01805091408115924014F41192F8CFAD
:1028E000109252031092510388E00E949D0B88239E
:1028F00021F0109252031092510384E00E949D0B2C
:10290000882321F01092520310925103109317095B
:102910000093160910921909109218098091570412
:1029200090915804B7010E949615409150039B0165
:102930003327842F90E00396821793070CF029CB5E
:1029400062506093500328CB40E5C416D10409F0CF
:1029500028CB6ECB87EB98E00E944807982F9D7F8D
:102960009C3349F095ED980F943028F08B3519F091
:102970008D3509F09DCFF601E050FF4F80834FEF7A
:10298000C41AD40A95CF181619060CF4DCCC50934F
:102990005804409357040DCD141615060CF4F1CCD1
:1029A000709358046093570404CDDF92EF92FF9226
:1029B0000F931F93CF93DF93D82EF92EE42E062F7B
:1029C00010E0C8010196880F0E949A0583E00E94DA
:1029D0009A05CD2DDF2D0C0F1D1FC017D10789F0D3
:1029E000E7FE03C0FE01849101C088810E949A0520
:1029F000F82E80E00E949A058F2121968111EDCF5B
:102A000001C081E0DF91CF911F910F91FF90EF9076
:102A1000DF9008950F931F93CF93DF938C0181E094
:102A200090E00E942C0A80FF32C08AE090E00E9471
:102A30002C0A9FEF980F9E3F50F522E330E0D8011B
:102A400050963C932E931F9728E330E052963C9388
:102A50002E935197CBE0D0E0D801ED91FC910190FD
:102A6000F081E02D682FC8010995CE010E942C0A43
:102A70002196C131D10581F780E00E94810B88EE5B
:102A800093E0DF91CF911F910F910C941F0ADF917A
:102A9000CF911F910F91089504970C940A15E7EBBD
:102AA000F8E01382128288EE93E0A0E0B0E0848325
:102AB0009583A683B78387E193E0918380838FEF2B
:102AC0009FEF95878487E7E0F9E0138212821186F1
:102AD000128680E1838710861782158689E293E04B
:102AE0009183808387E393E095838483108A17869C
:102AF000128A118A81E0838B148A858B168A089545
:102B0000F999FECF92BD81BDF89A992780B50895B5
:102B1000262FF999FECF1FBA92BD81BD20BD0FB6F9
:102B2000F894FA9AF99A0FBE0196089597FB072E2A
:102B300016F4009407D077FD09D00E94AA1507FC6F
:102B400005D03EF4909581959F4F089570956195BD
:102B50007F4F0895AA1BBB1B51E107C0AA1FBB1FD3
:102B6000A617B70710F0A61BB70B881F991F5A9519
:102B7000A9F780959095BC01CD010895EE0FFF1F38
:102B80000590F491E02D099481E090E0F8940C9484
:062B9000C915F894FFCF07
:102B96002B2B2B2B2B2B2B2B5B3E2B2B2B2B5B3EF9
:102BA6002B2B3E2B2B2B3E2B2B2B3E2B3C3C3C3CF2
:102BB6002D5D3E2B3E2B3E2D3E3E2B5B3C5D3C2D44
:102BC6005D3E3E2E3E2D2D2D2E2B2B2B2B2B2B2BD8
:102BD6002E2E2B2B2B2E3E3E2E3C2D2E3C2E2B2BE3
:102BE6002B2E2D2D2D2D2D2D2E2D2D2D2D2D2D2D0F
:102BF6002D2E3E3E2B2E3E2B2B2E000000000000DD
:102C060000000000000000000000000000000000BE
:102C160000000000000000000000000000000000AE
:102C2600000000000000000000000000000000009E
:102C3600000000000000000000000000000000008E
:102C4600000000000000000000000000000000007E
:102C5600000000000000000000000000000000006E
:102C6600000000000000000000000000000000005E
:102C7600000000000000000000000000000000004E
:102C8600000000000000000000000000000000003E
:102C9600000000000000000000000000000000002E
:102CA600000000000000000000000000000000001E
:102CB600000000000000000000000000000000000E
:102CC60000000000000000000000000000000000FE
:102CD60000000000000000000000000000000000EE
:102CE60000000000000000000000000000000000DE
:102CF60000000000000000000000000000000000CE
:102D060000000000000000000000000000000000BD
:102D160000000000000000000000000000000000AD
:102D2600000000000000000000000000000000009D
:102D3600000000000000000000000000000000008D
:102D4600000000000000000000000000000000007D
:102D5600000000000000000000000000000000006D
:102D6600000000000000000000000000000000005D
:102D7600000000000000000000000000000000004D
:102D8600000000000000000000000000000000003D
:102D9600FFFFFFFF00E100000000000000C180818E
:102DA6000000000000000026069A0620073C0647A1
:102DB600064807240700000000490AFC056306626E
:102DC600060A15FCFF00004C1552554E00524541AF
:0E2DD6004400575249544500534156450000F1
:00000001FF
