:100000000C94C40F0C94EC0F0C94EC0F0C94EC0FAC
:100010000C94EC0F0C94EC0F0C94EC0F0C94EC0F74
:100020000C94EC0F0C94EC0F0C94EB1C0C945D1DD9
:100030000C94EC0F0C94EC0F0C94EC0F0C94EC0F54
:100040000C94EC0F0C94EC0F0C94EC0F0C94EC0F44
:100050000C94EC0F0C94EC0F0C94EC0F0C944A11D4
:100060000C94EC0F0C94EC0F0C94EC0F0C94EC0F24
:100070000C94EC0F0C94EC0F0C94EC0F0C94EC0F14
:100080000C9494110C94EC0F0C94EC0F0C94EC0F5A
:100090000C94EC0F0C94EC0F0C94EC0F0C94EC0FF4
:1000A0000C94EC0F0C94EC0F0C94EC0FA121E621B6
:1000B00095220723902688279C28A62815241124FA
:1000C0001A241C24282424242C242E24752471244E
:1000D0007A247C24882484248C248E244D2C4F2C38
:1000E000512C562C5B2C5B2C5B2C5B2C632C632CD7
:1000F000632C632C2426242624262426692C387C71
:10010000FEFEFE7CFEFFBA000000000000000100C1
:100110001C3E7FFFFEFF7F3E1C0000000001000030
:100120000000FCFEFFFEFCFCFEFCF80101010103E7
:10013000030303030909003844444428549200008F
:1001400000000000000000000909001C3E7EFC7E4B
:100150003E1C00000000000000000000090A00FC36
:10016000F2FC00F8E4F800000000000001010100CA
:10017000060002F0D0000000010002F0D0100000E4
:1001800001010000F0240000020100000224000030
:10019000020002F0204A0001010002F0205A000192
:1001A00001050002F0D0000000010002F0D028009C
:1001B0000001010000F944000002000200200001DB
:1001C00001010002002028010101050002F0D00019
:1001D0000000010002F0D028000001010000F944F5
:1001E000000002000200200001010100020020289E
:1001F000010101050300000E0400000A030000E0F5
:100200003E00000A0002F0D0000000010002F0D021
:10021000230000010002F0D04600000106000000AB
:10022000F012000001000000F900000001000000D1
:100230000212000001020000E4400000020200007F
:10024000F52C000002020000064000000206000338
:10025000D6D0000000010003E6E00000000101002C
:1002600000EB14000002010000F92400000201006C
:10027000000734000002010000F940000002050000
:1002800002F0D0000000010002F0D02800000101BF
:100290000000F9440000020002F0201400010100F7
:1002A00002F0203C00010104000000F012000001F7
:1002B000000000F90000000100000002120000012F
:1002C0000300000E3000000A0500010005000000D8
:1002D000010001000514000001000100EC00000114
:1002E00001000100EC14000101000000F9280001E8
:1002F0000104000000E700000001000000F9000018
:1003000000010000000B00000001020000F51600D3
:10031000000104000000F0000000010000000200E5
:10032000000001010000F0120000020100000212B2
:10033000000002050001000500000101000100ECC1
:1003400014000001010000E932000002010000F980
:100350003200000201000009320000020501000025
:10036000E724000002000000F0120000010000007D
:10037000F90000000100000002120000010100006D
:100380000B24000002020000000500000001000034
:10039000000018000001000000FB500000010000F8
:1003A00000F6680000010E0201070A040C000809AB
:1003B0000D030B05060E0201070A040C0008090DC7
:1003C000030B05060E00020406080A0C01030507CC
:1003D000090B0D0E0708090D000102030A0B0C049E
:1003E00005060E000102030405060708090A0B0CA6
:1003F0000D050B88042424D80001010100050B0819
:10040000844424180101010101050B0008FC0000CF
:100410000001010100D5F08D14A1C881CFD9F1AF41
:10042000200050686172617020285465737429003F
:10043000090B7C823939013939827C00000F080FA1
:10044000080F000046696C6D6F746520284465765E
:1004500029000B09F038FD767C7C7C76FD38F000B5
:10046000000001010001010000004372656469742D
:100470007300486967680053636F72650053636F68
:1004800072004F7665720047616D65005440FBFB5A
:1004900073670F1F1F3F3F7FFFFFFFFFFFFFFFFF40
:1004A000FFFFFFFFFFFFFFFFFFFFFFFFFFFFFFFF5C
:1004B000FFFFFFFFFFFFFFFFFFFFF3E3870F0F1FAC
:1004C0003FBFFF7F3F9FEFFFFFFFFFFFFFFFFFFFEC
:1004D000FFFFFFFFFFFFFFFFFFFFFFFFFFFFFFFF2C
:1004E000FFFFF8F2E0CC840480C0C0E0E0E1C1C3CB
:1004F00087070F0F1F3F3F7FFFFFFFFFFFFFFF7FBC
:100500007F3F3FBFBF9FDFDFCFEF6F677777371B3F
:100510000B81C0E2E1E1C080000103070F1F3F7FB4
:100520007FFFFFFFFFFFFFFFFFFFFFFFFFFFFFFF5B
:10053000FFFFFFFFFFFFFFFFD77BFFF7DE7973476A
:100540000F1F7FFFFFFFEEF4F0707878702001013D
:1005500000000000010107031373313139188CC00A
:10056000F8FCFEFEFFFFFFFFFFFFFFFFFFFEFEFCAC
:10057000F8F0F0E0C080010103070F1F3F3F7FFF4D
:10058000FFFFFFFFFF7FBFFFFFFFFFFFFFFFC381F5
:10059000880A0A040E080000010101103078F8F8FA
:1005A000F2F2E0C08088C0C020001000000000020D
:1005B000030387470F1F3FFFFFFFFFFFFFFFFFFF03
:1005C000FFFFFFFFFFFFFFFFFFFFFFFEFCFC787058
:1005D00000002030198F03010C1F3F7FFFFFFFFF3A
:1005E000FFFFFFFFFFFFFFFFFBFFF77EBABE9CC8C8
:1005F000CB6674310B03010109040301010A0418DD
:100600000404060703010080800000000103070FB7
:100610001F3F7FFFFF7F7F3FBFDFCFEFF7733B9D24
:100620000C0647E1F0F8FCFEFFFFFFFFFEFEFCFCBE
:10063000F8F9FFFFFFFFFFFFFFFF1F673B1D0E0FD6
:1006400007030101000000088084C0C2E2E1F1F16B
:10065000F0F0E4C280000000F4F2FFFDF9F0702039
:1006600080C0E0F0F0E0C080000000000103030162
:10067000849E8FC7E1F0F8FFFFFFFFFFFFFFFFFF42
:10068000FFFFFFFFFFFFFFFFFFFFFFFFFFFFFEFC7E
:10069000FCF8F8F8F8F8FCFCFEFEFFFFFFFFFFFF98
:1006A000FFFFFFFFFFEBFFBDFFFBFF3E0C65E1E13E
:1006B000650F1F1F3F1F0F07078381E0E0E0E08009
:1006C00000008001030F3F7FFFFFFFFFFFFFFFFFE1
:1006D000FFFFFFFFFFFFFFFFFFFFFFFFFFFFFFFF2A
:1006E000FFFFFFFFFFFFFFFFFFFFFFFFFFFFFFFF1A
:1006F000FFFFFFFFFFFFFFFFFFFFFFFFFEFBECF031
:10070000E0C1E1E1E0B0F070F8ACFCFCF9F3E7C760
:100710008F9F3E3DFBF6E4C992264C983163C79FFC
:100720003F7FFFFFFFFFFFFFFFFFFFFFFFFF4120B6
:10073000436F6E74696E756500546F74616C2053FD
:10074000636F7265004D697373696F6E2053636FD9
:100750007265004D697373696F6E205375636365CD
:10076000737366756C00E4020200750506007D0671
:100770000800750504000080DC000600000003008E
:10078000930007000000050083000600000002003F
:10079000AF0008000080AF00020000000300260147
:1007A000020000000300B801040000000200A500E0
:1007B00001000080AF00160000000300AF0016002B
:1007C00000000300AF00160000805504690200001D
:1007D0000D005504690000000D005504690000007B
:1007E00001001704AB01000001001704D500000050
:1007F00001001704D50000000100DC0381020000A5
:100800000100DC03D50000000100A4031C0100006E
:100810000100A403460000006C00A40322000000B5
:100820006C00A403220000006C00A403220000005E
:10083000480070031C0100000100E4021C010000DC
:10084000010070031C01000001003F031C010000B7
:10085000010093021C01000001003F031C01000085
:100860000100E4028102000001006E024600000067
:1008700001000B024600000001006E02460000006D
:1008800001002A027B030080E402F20100009000D4
:10089000E402220000004800E402220000004800B8
:1008A000E402B10000006C00E402690000002400D2
:1008B000E4024600000048003F03690000002400F5
:1008C000A403690000002400DC030A040000FB000C
:1008D000DC036900000024005504460000004800C5
:1008E000DD0446000000480075055D02000024009C
:1008F0007505220000004800750522000000480030
:10090000750522000000B3005504B100000024006A
:100910007505460000004800C80575000000180075
:100920007D06690000002400C805690600805700A4
:1009300016000000030057001600000003005700D7
:10094000160000804D697373696F6E200000002CE3
:10095000015D015200000003005D01520000000330
:10096000005D015200000003005D01520000000321
:1009700000720152000000030072015200000003E7
:1009800000720152000000030072015200000003D7
:10099000008801520000000300880152000000039B
:1009A000008801520000000300880152000000038B
:1009B000009F015200000003009F0152000000034D
:1009C000009F015200000003009F0152000000033D
:1009D00000B801520000000300B8015200000003FB
:1009E00000B801520000000300B8015200000003EB
:1009F00000D201520000000300D2015200000003A7
:100A000000D201520000000300D201520000000396
:100A100000EE01520000000300EE0152000000034E
:100A200000EE01520000000300EE0152000000033E
:100A3000000B025200000003000B025200000003F2
:100A4000000B025200000003000B025200000003E2
:100A50000000801D0B51D8DDD851000000FC00E0E3
:100A6000505050200030C000C03000E050505020A6
:100A700000FC040005000400000001000001010169
:100A80000100000001000000000101010100010B54
:100A900010F02010E0000000000000000100000144
:100AA000000000000000007610F1484548F1000009
:100AB000002050509000F8101000E01010E00000EE
:100AC000F020102000F81010000000E0101010E0DE
:100AD00000E01010E00000F010E010E000E05050E6
:100AE00050200000000000000000FD242524D90053
:100AF00000002050509000E0101010E000F00000C6
:100B0000F00000F02010E000E0101010FC000000E9
:100B1000E0101010E00020F824040020F824040560
:100B200000040005000000010101000000010100B7
:100B300000010101010001000000000001010000AE
:100B40000004090909070000010101010001000179
:100B50000001000001010101000000000000000090
:100B60000501050104000000010101000000010170
:100B7000010000000101000100010000010000016E
:100B8000010100000000000101010000000100005F
:100B900000000100007B300000800060900804022B
:100BA0000181010101010101FF00000000000000BE
:100BB000008000E0100804020101010181818181AF
:100BC000818181810101010102040810E00000001F
:100BD000000000000000008020C0300C0301010173
:100BE00001C14141C101010101010101FF000000FA
:100BF0000000000000008000E01008040201010174
:100C000001818181818181818101010101020408C9
:100C100010E002050A152A14A952AA01FF000000DB
:100C2000000000FF0000000000000055AA00FF00C7
:100C300000000000000000FF8094AA94AA80FF003A
:100C400000000000000000FF000000000000802005
:100C500088621C0701000000C0300CA350A800FFF0
:100C600000000000000000FF000000000000000085
:100C700055AA50A754A454A45404040487808A9409
:100C8000AA9480FF0000000000000000FF000000A8
:100C9000000000AA55AA00FF000000000000FF00AD
:100CA000000000000000152A54A952A4489020A07A
:100CB00020A020A020A020A020E000000000000034
:100CC0000000FF00000000A054AA00FF0000000088
:100CD00000000704040504050404070000000000E8
:100CE0000000070404FC00000000000000000000F9
:100CF00000000050A050803FA020A020A020E000D5
:100D000000000000000C12E10000000000000AE5F5
:100D10002A203F0000000000003F2020E0000000EB
:100D200000408000FC05040504050405043D202165
:100D300020252A203F0000000000000000FF0000E6
:100D400000002A152A1429152915291529152915F0
:100D500009E52925213F000000000000003F212176
:100D6000E10000000000008000FC0404040405040D
:100D700005043D202522252A203F00000000000018
:100D80000000FF00000000A854805F905090509039
:100D9000509050905010101F0000000055AA409F26
:100DA0005090509050905090509050905090509043
:100DB00050905010080402010000000000000000E4
:100DC00000000000000000000054A8409F50905018
:100DD00090509050905090501010101F0000000044
:100DE00000152A54A953A64C9850905090509050FA
:100DF0009050905090509050100804020100000054
:100E000000000201020102010201020102010201CD
:100E100000000000000000010201020102010201C5
:100E200002010201020102010201020100000000B0
:100E300000000000000000000000000000000000B2
:100E40000000000001020102010201020102010290
:100E5000010201000000000000000000000000008E
:100E6000010201020102010201020102010201026A
:100E70000100000000000000005504A8000000B0C0
:100E8000005504A80000005C013F03A80000000317
:100E9000005504A80000000300DC030C060000035A
:100EA000007003A8000000B0007003A80000005C00
:100EB000017003A80000000300E402A80000000382
:100EC000007003A80000000300A403E20000000378
:100ED00000E402E20000000300A403E200000003BB
:100EE000001704E200000003003F03E200000003DB
:100EF000001704E200000003005504A8000000B041
:100F0000005504A80000005C013F03A80000000396
:100F1000005504A80000000300DC030C06000003D9
:100F2000007003A8000000B0007003A80000005C7F
:100F3000017003A80000000300E402A80000000301
:100F4000007003A80000000300A403E200000003F7
:100F500000E402E20000000300A403E2000000033A
:100F6000001704E200000003003F03E2000000035A
:100F700000DD04E200000003007505CF0800000357
:100F800000BA02060400000300E402A80000000307
:100F9000001003A800000003003F035F05000003EA
:100FA00000A4035603000007001704A80000000374
:100FB000005504A80000000300DD04A800000003A1
:100FC0000075055F0500000300C805560300000713
:100FD0000049075501000003007D06A8000000033A
:100FE00000C8055F0500000300DD0456030000078C
:100FF00000C8055501000003007505A800000003A6
:101000000055045603000007001704A80000000361
:1010100000A403A800000003003F03A80000000391
:1010200000BA02060400000300E402A80000000366
:10103000001003A800000003003F035F0500000349
:1010400000A4035603000007001704A800000003D3
:10105000005504A80000000300DD04A80000000300
:101060000075055F0500000300C805560300000772
:101070000049075501000003007D06A80000000399
:1010800000C8055F0500000300DD04AE0200000398
:10109000003F03550100000300C805A8000000033D
:1010A000007505A8000000030055045F050080409E
:1010B0000004000150000081400005FF01500000C5
:1010C00081400006FF00251A0105FF0118031804DE
:1010D000000119000081400006FF0040FF0028FFCA
:1010E000005000008180C0E0F0F8F8FCFCFCFEFE3F
:1010F000FEFFFFFFFFFFFFFFFFFFFFFFFFFFFFFF01
:10110000FFFFFFFFFEFEFEFCFCF8F0C0000103073E
:101110000F0F1F1F1F3F3F3F7F7F7F7F7F7F7F7F9F
:101120007F7F7F7F7F7F7F7F7F7F7F3F3F3F1F1F4F
:101130000F0701FFFFFFFFFFFFFFFFFF010101019D
:1011400001010101010910FEFDC3BBBBBBC7FFFFCD
:10115000010101010101010101271080C060B058A7
:10116000A85CAC54AEFA8EF7959FF5979DF7959FC6
:10117000FDFFFD7F7D3FDDDFDD3FFEFEFE0CFC1849
:10118000F0C0000103060D0A1D1A153A2F387754D6
:101190007C57745C77547C5F7F5F7F5F7E5D7D5D95
:1011A0007E3F3F3F181F0C07010910FF7F87BBBB25
:1011B000BBC7FFFF0001010101010101010910FF8F
:1011C000FFC7BB3BBBC7FFFF0101010100010101DC
:1011D000010910FFFFC7BBBBBB877FFF01010101F6
:1011E00001010101000910FFFFC7BBBBBBC7EFEF47
:1011F0000101010101010101010910FFFFC7BBBB92
:10120000BBC3FDFE0101010101010101010910FF44
:10121000FFC7BBB8BBC7FFFF01010101010101010D
:10122000010000000000F8FFFFFEF0800000000059
:10123000000000000000800000081C3E3E3EFFFF52
:10124000FFFFFFFF3E3E3E3E1C1C1C1C1C7FFF7F21
:101250000800000000000F7F7F3F07000000000033
:10126000000000000000000000181700000000004F
:10127000F8CFCFFEF080000000000000000000006A
:10128000800000081C3E2A3EFFDDDDDDDDFF3E3E26
:101290003E3E1C1C1C1C146BEB7F08000000000071
:1012A0000F79793F070000000000000000000000F7
:1012B0000000000F0F000E9EFEECD8B8FCF69F0752
:1012C000030000000E0F0702030101030327361875
:1012D0000C06000F0F80C0C07E4146F8C0C0C08021
:1012E00080E0F0800001013F61310F010101000049
:1012F0000307000F0F3878F0A0E0C0C0E0E0F2363E
:101300000C18300000383C3F1B1D1E1F377C7060DE
:101310000000000F0F000000000206E6FFE60602D4
:1013200000000000040A0A0909093F713F09090980
:101330000A0A040F0F0030180C36F2E0E0C0C0E0DB
:10134000A0F0783800000060707C371F1E1D1B3F26
:101350003C38000F0F80F0E08080C0C0C0F84641EC
:101360007EC0C0800000070300000101010F33614F
:101370003F010100000F0F00000003079FF6FCB8BB
:10138000D8ECFEFE0E0000060C1836270303010100
:101390000302070F0E0F0F102828484848FEC7FE0B
:1013A000484848283810000000002030337F333090
:1013B0002000000000050403040A090605040609CC
:1013C0000609060504020204080F050406090701C0
:1013D000060504070807010F050404040F050605A8
:1013E00004060904090605040F0204090605040E93
:1013F00004040604050406090909060D12F911E59D
:1014000011D111BD11A911591145113311331133E6
:1014100011331133113311E51033113D1D0E1DDF52
:101420001CB01C831C561C291CFC1B691269126908
:1014300012691269126912691269122112211221AC
:1014400012211221122112211221123D1D0E1DDF27
:101450001CB01C831C561C291CFC1B9513751353B4
:101460001333131313F312D312B312881A6A1A4CDC
:101470001A2E1A101AF219D419B6193D1D0E1DDFB5
:101480001CB01C831C561C291CFC1B0503050507EE
:10149000050205056E1171116E05030101030107B7
:1014A0000505040E1F1F0A05050E041F0404010292
:1014B00004081020408000000000003E5B4F5B3EAF
:1014C0003E6B4F6B3E1C3E7C3E1C183C7E3C181C09
:1014D000577D571C1C5E7F5E1C00183C1800FFE700
:1014E000C3E7FF0018241800FFE7DBE7FF30483AA6
:1014F000060E2629792926407F050507407F052508
:101500003F5A3CE73C5A7F3E1C1C08081C1C3E7F8F
:1015100014227F22145F5F005F5F06097F017F0056
:101520006689956A606060606094A2FFA294080476
:101530007E040810207E201008082A1C08081C2A97
:1015400008081E101010100C1E0C1E0C30383E38EF
:1015500030060E3E0E06000000000000005F000096
:101560000007000700147F147F14242A7F2A122307
:101570001308646236495620500008070300001C17
:101580002241000041221C002A1C7F1C2A08083E20
:101590000808008070300008080808080000606033
:1015A0000020100804023E5149453E00427F4000A1
:1015B00072494949462141494D331814127F102779
:1015C000454545393C4A49493141211109073649C8
:1015D000494936464949291E00001400000040349C
:1015E00000000008142241141414141400412214A1
:1015F0000802015909063E415D594E7C1211127CC8
:101600007F494949363E414141227F4141413E7F28
:10161000494949417F090909013E414151737F0808
:1016200008087F00417F41002040413F017F0814AE
:1016300022417F404040407F021C027F7F0408100F
:101640007F3E4141413E7F090909063E4151215EED
:101650007F09192946264949493203017F01033F81
:101660004040403F1F2040201F3F4038403F631410
:1016700008146303047804036159494D43007F4112
:1016800041410204081020004141417F040201024F
:101690000440404040400003070800205454784074
:1016A0007F284444383844444428384444287F3808
:1016B0005454541800087E090218A4A49C787F088A
:1016C00004047800447D40002040403D007F102805
:1016D000440000417F40007C047804787C080404C6
:1016E000783844444438FC1824241818242418FC5E
:1016F0007C08040408485454542404043F44243C03
:101700004040207C1C2040201C3C4030403C442871
:101710001028444C9090907C4464544C440008360B
:101720004100000077000000413608000201020479
:10173000023C2623263C1EA1A161123A4040207A99
:1017400038545455592155557941215454784121E3
:101750005554784020545579400C1E527212395518
:101760005555593954545459395554545800004515
:101770007C410002457D420001457C40F02924293E
:10178000F0F0282528F07C545545002054547C5412
:101790007C0A097F49324949493232484848323245
:1017A0004A4848303A4141217A3A42402078009DE7
:1017B000A0A07D39444444393D4040403D3C24FF95
:1017C0002424487E4943662B2FFC2F2BFF0929F642
:1017D00020C0887E090320545479410000447D4193
:1017E0003048484A32384040227A007A0A0A727DEC
:1017F0000D19317D2629292F282629292926304807
:101800004D4020380808080808080808382F10C874
:10181000ACBA2F102834FA00007B000008142A14F8
:101820002222142A14089500220095AA005500AA25
:10183000AA55AA55AA000000FF00101010FF0014BE
:101840001414FF001010FF00FF1010F010F014141B
:1018500014FC001414F700FF0000FF00FF1414F440
:1018600004FC141417101F10101F101F1414141F41
:1018700000101010F0000000001F101010101F10BA
:10188000101010F010000000FF10101010101010B9
:101890001010FF10000000FF140000FF00FF000008
:1018A0001F10170000FC04F414141710171414F47C
:1018B00004F40000FF00F714141414141414F700B7
:1018C000F7141414171410101F101F141414F41408
:1018D0001010F010F000001F101F0000001F140077
:1018E0000000FC140000F010F01010FF10FF1414A2
:1018F00014FF141010101F00000000F010FFFFFF75
:10190000FFFFF0F0F0F0F0FFFFFF0000000000FF2D
:10191000FF0F0F0F0F0F38444438447C2A2A3E141F
:101920007E02020606027E027E026355494163384A
:1019300044443C04407E201E2006027E020299A5FB
:10194000E7A5991C2A492A1C4C7201724C304A4D59
:101950004D303048784830BC625A463D3E4949498E
:10196000007E0101017E2A2A2A2A2A44445F444437
:1019700040514A444040444A51400000FF0103E0C6
:1019800080FF000008086B6B083612362436060FFD
:10199000090F06000018180000001010003040FF6A
:1019A0000101001F01011E00191D1712003C3C3CE3
:1019B0003C0000000000000E9EFEFCF8F8FCFE9FBC
:1019C00007030000000E0F0703030101030327367E
:1019D000180C060080C0C0FEFFFEF8C0C0C08080AA
:1019E000E0F0800001013F7F3F0F01010100000393
:1019F00007003878F0E0E0C0C0E0E0F2360C1830C4
:101A00000000383C3F1F1F1F1F3F7C70600000001C
:101A1000000000000206E6FFE606020000000004E7
:101A20000E0E0F0F0F3F7F3F0F0F0F0E0E040030F3
:101A3000180C36F2E0E0C0C0E0E0F07838000000BA
:101A400060707C3F1F1F1F1F3F3C380080F0E0800C
:101A500080C0C0C0F8FEFFFEC0C0800007030000C9
:101A60000101010F3F7F3F01010000000003079FBC
:101A7000FEFCF8F8FCFEFE0E0000060C18362703EC
:101A80000301010303070F0E103838787878FEFF42
:101A9000FE787878383810000000002030337F332B
:101AA0003020000000000F0F000E9EFEECD8B8FCA6
:101AB000F69F07030000000E0F0702030101030356
:101AC0002736180C06000F0F80C0C07E777EF8C046
:101AD000C0C08080E0F0800001013F773F0F01012E
:101AE0000100000307000F0F3878F0A0E0C0C0E04D
:101AF000E0F2360C18300000383C3F1B1D1E1F372B
:101B00007C70600000000F0F000000000206E6FF7E
:101B1000E6060200000000040E0E0B0F0F3F713F9F
:101B20000F0F0B0E0E040F0F0030180C36F2E0E012
:101B3000C0C0E0A0F0783800000060707C371F1E45
:101B40001D1B3F3C38000F0F80F0E08080C0C0C0FC
:101B5000F87E777EC0C08000070300000101010FFE
:101B60003F773F0101000F0F00000003079FF6FCC5
:101B7000B8D8ECFEFE0E0000060C18362703030151
:101B8000010302070F0E0F0F103838687878FEC770
:101B9000FE787868383810000000002030337F333A
:101BA00030200000000040F000051F010000002070
:101BB000F800093F01000000A0FE200BFF09000013
:101BC00000B0FF90101BFF13110001000003114033
:101BD000F000051F01000000031120F800093F017B
:101BE0000000000311A0FE200BFF090000000411FB
:101BF000B0FF90101BFF1311000100000004004013
:101C00000000008088420001200000804000110098
:101C100002400200000000800800000001000000F7
:101C2000000000000000000000060F0460C0C88C27
:101C30009EC7C0601002004080C0C80607036367EB
:101C40008F0D100000C062000000010000000000C5
:101C500000000001000000001C1C7CFCFCF8F8FCEB
:101C60003C1C000000000038383E1F0F0F070F1FFC
:101C70001E1C00000000000000000000000000002A
:101C800000000070F0F0FEFEFEF8F0F8F8FC7E3E7A
:101C90000E0000F0FDFF7F7F3F1F0F1F3F3F7C7056
:101CA00070000101010000000000000000000000C1
:101CB0000F11000400400000008088420001200055
:101CC0000080400011000240020000000080080077
:101CD0000000010000000000000000000000000FF4
:101CE00011060F0460C0C88C9EC7C060100200407F
:101CF00080C0C806070363678F0D100000C0620034
:101D000000000100000000000000000100000F11B1
:101D1000000000001070E0E0F0300800000000005B
:101D2000000010080E070703070608000000000067
:101D3000000000000000000000000000000F112063
:101D400060E0E0FCF8F0E0F0F078380C0000000013
:101D5000E07D3F3F1F0F070F1F1C302000000000D9
:101D600000000000000000000000000010F810104B
:101D7000B0FEFF908000103F10111BFFFF13030106
:101D80000000000000000100000010F8F810101022
:101D900030B0B0FEFFFEB0808000103F3F1010104A
:101DA000191B1BFFFFFF1B030301000000000000C5
:101DB000000000000100000000000411B0FF9010BE
:101DC0001BFF1311000100001011008080B0FEFF06
:101DD000FEB0B030101010F8F8100103031BFFFF25
:101DE000FF1B1B191010103F3F10000000000001E6
:101DF000000000000000000000000A11008090FFB9
:101E0000FE901010F810010323FFFF2321207F20F4
:101E10000000000100000000000004111090FFB05D
:101E20001113FF1B000001000A1110F81010B0FE82
:101E3000FF908000103F10111BFEFF1203010000F5
:101E40000000000001000000101110F8F810101040
:101E500030B0B0FEFFFEB0808000103F3F10101089
:101E6000191B1AFEFFFE1A03030100000000000008
:101E700000000000010000000000F4FEFFFFFFFF73
:101E8000FFFEFC03070F0F0F0F0F0703090C00F4F1
:101E90000EA442A202FC0000030404040404030094
:101EA000861B661B461B261B061BE61AC61AA61AAD
:101EB000881A6A1A4C1A2E1A101AF219D419B6195D
:101EC0003D1D0E1DDF1CB01C831C561C291CFC1B59
:101ED000481E281E1A1EFA1DC81DFA1DBA1D281EEE
:101EE0008A1D6C1D1A1EFA1DC81DFA1DBA1D6C1D17
:101EF0003D1D0E1DDF1CB01C831C561C291CFC1B29
:101F0000EE1BE31BD81BCD1BC11BB81BAF1BA61BB5
:101F1000080B000202020100090400000102020095
:101F20000005240010010524010101042402060516
:101F30002406000107058103100040090401000286
:101F40000A00000007050202400000070583024066
:101F500000000403090412010002EF0201404123C2
:101F6000368000010102030141726475696E6F20C1
:101F70004C4C430041726475696E6F204C656F6E06
:101F80006172646F0000F33211241FBECFEFDAE0FC
:101F9000DEBFCDBF11E0A0E0B1E0ECE9FEE602C09B
:101FA00005900D92A83CB107D9F727E0A8ECB1E065
:101FB00001C01D92A93CB207E1F71FE0C4ECDFE0CD
:101FC00004C02197FE010E945136C33CD107C9F7D6
:101FD0000E948D1F0C944C370C940000CF92DF921E
:101FE000EF92FF920F931F93CF93DF936C017A01CF
:101FF0008B01C0E0D0E0CE15DF0589F0D8016D91EE
:102000008D01D601ED91FC910190F081E02DC6018A
:102010000995892B11F47E0102C02196ECCFC701EE
:10202000DF91CF911F910F91FF90EF90DF90CF90B4
:1020300008958091E101E091DF01F091E0018823B2
:1020400049F0CF0102969093E0018093DF018591E2
:1020500094910895CF0102969093E0018093DF015F
:10206000808191810895CF92DF92EF92FF920F933A
:102070001F93CF93DF930E941910811520E89207D8
:1020800061F4809171008D7F8093710010929100B6
:10209000469847981092CC018BC021E02093CC0148
:1020A000813020E8920751F48091DD019091DE01AA
:1020B0009093E0018093DF010E94191097FD05C005
:1020C0002091DC01222309F43FC02091DB01211182
:1020D0003BC021E02093E201EC01DF77209769F417
:1020E00081E08093E30146983FE9C32E3FE0D32E81
:1020F000E12CF12CCAEFD0E014C08E0120E030E0DA
:1021000060E472E48FE090E0A90198010E941C3421
:1021100069017A0181E0C81AD108E108F10810923A
:10212000E301E091F405F091F5050995811103C0F3
:1021300081E08093E3018091E2018823B9F18091ED
:10214000E301811133C003C01092E201C5CF46996B
:102150002DC0479A0E941910009771F09C01DE0172
:102160000E947034DC01CB0129E0B595A7959795C5
:1021700087952A95D1F703C08FEF9FEFDC0110926E
:1021800090002AE020939100D0929900C09298008C
:102190008093E4019093E501A093E601B093E701F9
:1021A0008091710082608093710002C04798D2CF05
:1021B000DF91CF911F910F91FF90EF90DF90CF9023
:1021C00008958091CD0108950895089580E090E0EC
:1021D00008950E9447373FB7F8948091E9019091A4
:1021E000EA01A091EB01B091EC0126B5A89B05C0D6
:1021F0002F3F19F00196A11DB11D3FBFBA2FA92F86
:10220000982F8827820F911DA11DB11DBC01CD0102
:1022100042E0660F771F881F991F4A95D1F70895EE
:102220008F929F92AF92BF92CF92DF92EF92FF92E6
:102230006B017C010E94EB104B015C01C114D104C5
:10224000E104F104F1F00E94EB10DC01CB018819EC
:102250009909AA09BB09883E9340A105B10570F30D
:1022600021E0C21AD108E108F10888EE880E83E067
:10227000981EA11CB11CC114D104E104F10419F78A
:10228000DDCFFF90EF90DF90CF90BF90AF909F9009
:102290008F9008951F920F920FB60F9211242F93D3
:1022A0003F938F939F93AF93BF938091C801909179
:1022B000C901A091CA01B091CB013091E80123E09E
:1022C000230F2D3720F40196A11DB11D05C026E86E
:1022D000230F0296A11DB11D2093E8018093C80130
:1022E0009093C901A093CA01B093CB018091E901F9
:1022F0009091EA01A091EB01B091EC010196A11D32
:10230000B11D8093E9019093EA01A093EB01B09392
:10231000EC01BF91AF919F918F913F912F910F90C1
:102320000FBE0F901F9018951F920F920FB60F922D
:1023300011242F933F934F935F936F937F938F93CA
:102340009F93AF93BF93EF93FF938091E40190919C
:10235000E501A091E601B091E701892B8A2B8B2B37
:1023600081F18091E30181110BC098B180E489274C
:1023700088B98091E201882319F088B1805888B922
:102380008091E4019091E501A091E601B091E7010F
:10239000181619061A061B06B4F48091E4019091F0
:1023A000E501A091E601B091E7010197A109B1090A
:1023B0008093E4019093E501A093E601B093E701D7
:1023C00002C00E943310FF91EF91BF91AF919F9196
:1023D0008F917F916F915F914F913F912F910F90CE
:1023E0000FBE0F901F9018959C01E1E7F0E09081DF
:1023F0009D7F908381E08093E1013093E001209301
:10240000DF013093DE012093DD010C943310BC0119
:1024100080E090E00C9410118FB12CB193B130E0BA
:102420002095309520743327A90123E055954795D1
:102430002A95E1F7292F30E0209530952071332738
:102440003595279535952795242B8095807F822B70
:10245000089583B7817F83BF83B7816083BF8895E9
:1024600083B78E7F83BF08958EBD00000DB407FE35
:10247000FDCF08951092CD013E983F9808953E9A61
:102480003F9A81E08093CD0108958091F4018EBD43
:10249000E5EFF1E081910DB407FEFDCF8EBD85E043
:1024A000E43FF807B9F70DB407FEFDCF0895603893
:1024B0007105D0F440345105B8F4EEEAF4E180E15E
:1024C000849FD001A0781124A60F4770E40FF11D5E
:1024D0008491AC50BE4F222319F06C91862B03C01F
:1024E00080956C9186238C9308952F923F924F9202
:1024F0005F926F927F928F929F92AF92BF92CF9294
:10250000DF92EF92FF920F931F93CF93DF93CDB79C
:10251000DEB729970FB6F894DEBF0FBECDBFFC0122
:102520006A3069F4248D808D918D38E0239F800D71
:10253000911D1124918F808F178A168AAAC06D3041
:1025400009F4A7C099878887F48C338C228C608C1F
:10255000718C0689178900381105C4F0A885B985E2
:102560005C962C915C97422F50E056968D919C91F1
:102570005797B6E02B9F800D911D1124E885F985B2
:10258000978B868B258D21116EC083C0F0E46F166A
:10259000710424F7C80125E0F29E800D911D1124DD
:1025A00018161906DCF68F2D90E09C838B83C301EF
:1025B000A8E0FA9E800D911D11241816190674F6D4
:1025C000B5E06B9FB0011124FB01EA54FB4EFA8386
:1025D000E98330E08885998504969E838D83E9811F
:1025E000FA81E490353009F4E12C430188E0482E6B
:1025F000E0FC02C0532C01C0522C51100BC0321011
:1026000009C0E6944A948B819C81880E991E4110E2
:10261000EFCF1BC068018C2D801B8F1590F75401E4
:102620008A2D88198F1568F4252DA501B6018D8195
:102630009E813F830E9457129FEFA91AB90A3F81DA
:10264000EFCFAFEFCA1ADA0AE6CF3F5FEB81FC812A
:102650000E0F1F1F89819A8101969A8389833630D4
:1026600009F0BDCF7BCF6AEF64039001659F300D09
:10267000112420583F4F281739075CF4A885B985E5
:10268000ED91FC9111970190F081E02D6AE0CD0170
:10269000099581E090E029960FB6F894DEBF0FBE51
:1026A000CDBFDF91CF911F910F91FF90EF90DF9001
:1026B000CF90BF90AF909F908F907F906F905F90E2
:1026C0004F903F902F900895DF92EF92FF920F93DB
:1026D0001F93CF93DF93D22EC82FD0E0062F10E0A8
:1026E000E42EF12C0C171D074CF02D2DA701BE0177
:1026F0008FE397E00E9457122296F4CFDF91CF919B
:102700001F910F91FF90EF90DF9008950F93CF935B
:10271000DF938091F2019091F30101968F31910541
:1027200028F49093F3018093F20104C01092F30116
:102730001092F2018091D9019091DA0101968139CC
:1027400021E0920728F49093DA018093D90104C024
:102750001092DA011092D901C0913207D09133075B
:1027600000E020E448E060E070E088E790E00E944C
:10277000D01920E430E049E750E060E070E089E7FC
:1027800090E00E94221A47EA54E160E070E08BE793
:1027900090E00E948219CE0164E670E00E94293622
:1027A000EC01660F771FFB01EC57FE4F4081518112
:1027B00066E070E08BE790E00E948219CE016AE04B
:1027C00070E00E942936EC01660F771FFB01EC5781
:1027D000FE4F408151816BE070E08BE790E00E94FA
:1027E0008219CC0FDD1FCC57DE4F4881598160E143
:1027F00070E08BE790E00E9482198091D90190915E
:10280000DA0168EC70E00E9429366115710521F04B
:1028100061307105F1F040C080912E0790912F0733
:1028200097FD02C0292F01C020E04EE160EA74E16B
:1028300087E10E94A71A809137079091380797FD8A
:1028400002C0292F01C020E043E369E974E18EE270
:1028500015C080913A07882331F08091F201909160
:10286000F3010F9780F4809136072BEA829F212D88
:102870001124269547E26BE874E182E2DF91CF9163
:102880000F910C94A71A42E954E168E170E08BE7DC
:1028900090E00E948219E7CFDF91CF910F910895C8
:1028A0009091D80124E0929FF0011124E25EF94F4B
:1028B000805F8083685F6183428381E0838380914E
:1028C00036078150809336079F5F9F3019F09093B1
:1028D000D80108951092D8010895EF92FF920F93B6
:1028E0001F93CF93DF931F92CDB7DEB77C01FC011E
:1028F00000811181C80169830E94063469816817CB
:1029000019F0C8010E940E34C7010F90DF91CF91DA
:102910001F910F91FF90EF900895CF92DF92EF9269
:10292000FF920F931F93CF93DF93EC018885882349
:1029300009F4EAC08F89882311F081508F8B8F8929
:102940008111E2C02C8D2111A6C04A8D5B8DE88CCF
:10295000F98CF7013296E40FF51F0491FA01EE0DA0
:10296000FF1D849197012F5F3F4FFA01E20FF31F84
:102970001491CD88E82FC110E195DE88D110119512
:10298000013809F486C0083008F051C06889062E65
:10299000000C770B6E0F711DE7FD7A95072E000C6A
:1029A000880B990B0E94243520E030E040E852E487
:1029B0000E94803420E030E040E857E40E94B035C7
:1029C0000E94EC34688379838A839B836989062E0D
:1029D000000C770B610F711D17FD7A95072E000C07
:1029E000880B990B0E94243520E030E040E052E44F
:1029F0000E94803420E030E040E857E40E94B03587
:102A00000E94EC346C837D838E839F838D8583301D
:102A100019F486E08E8701C00E87CC2009F468C0C7
:102A2000EE85F0E0D1106BC0EC58FE4F6AC0ED8F20
:102A30001E8F8E2FEE0F990BAA0BBB0BDC01992773
:102A40008827488159816A817B81840F951FA61F41
:102A5000B71F88839983AA83BB83812F110F990B9A
:102A6000AA0BBB0BDC01992788274C815D816E8105
:102A70007F81840F951FA61FB71F8C839D83AE8314
:102A8000BF8301500C8F83E0E80EF11CF98EE88EB5
:102A90003BC0188639C08D8D082E000C990BAA0BEF
:102AA000BB0BDC0199278827488159816A817B818A
:102AB000840F951FA61FB71F88839983AA83BB83A2
:102AC0008E8D082E000C990BAA0BBB0BDC019927ED
:102AD00088274C815D816E817F81840F951FA61FA1
:102AE000B71F8C839D83AE83BF8321502C8F0CC076
:102AF000DD2049F2EE85F0E0E459FE4F02C0EC59CA
:102B0000FE4F80818E87BFCFDF91CF911F910F91B4
:102B1000FF90EF90DF90CF900895DC011B96ED9130
:102B2000FC911C973E9685919491FC0184910895A7
:102B3000DC011B96ED91FC911C973C96859194913C
:102B4000FC01849108950F931F93CF93DF9300D0DE
:102B500000D000D0CDB7DEB7FC0140815181628149
:102B60007381AB01772757FD7095672FA42F5A8388
:102B7000498304811581268137818901332717FD17
:102B80003095232F402F1C830B8383859485FC0174
:102B90003C9665917491FB016491FC013E96859190
:102BA0009491FC0174912A2F3A815C8180E090E03D
:102BB00026960FB6F894DEBF0FBECDBFDF91CF9142
:102BC0001F910F910895FC011082118212821382CD
:102BD00014821582168217821286118654874387C3
:102BE000138A128A6587108683E0848B148E86E0B0
:102BF000878708958F929F92AF92BF92CF92DF9274
:102C0000EF92FF920F931F93CF93DF93CDB7DEB771
:102C10006F970FB6F894DEBF0FBECDBF20E030E057
:102C200040E050E060EE7FEFF901E559F94F408355
:102C30005183628373831086215E3F4F2A3B3105A7
:102C400099F7FC0194902BE6E22E26E0F22E8C01FF
:102C50000E5F1F4F32E8C32E36E0D32EA12C4FE17A
:102C6000B42E55E0852EA91409F48AC0F8013197D5
:102C7000E491E130E1F0B8F0E23049F1E33059F5A8
:102C80004BEF53E163E0CE0101960E94E315FE0194
:102C90003196D7018B2D01900D928A95E1F7F601BF
:102CA0003897808218C040EA5EE160E003C04BE5DF
:102CB00054E161E0CE0101960E94E315FE013196D8
:102CC000D7018B2D01900D928A95E1F704C04BE25C
:102CD00054E162E0EFCFF8018491E82FF0E0EE0FCD
:102CE000FF1FE458FE4F80819181D7015B969C9332
:102CF0008E935A9759961C921E925897F8013196C6
:102D0000E491D6011797EC93F8013296E49111966D
:102D1000EC93F8013396E491D601EC93F8013496E4
:102D2000E491129781E0E13009F080E08C93F801A2
:102D30003596E491D601119781E0E13009F080E009
:102D40008C93F8013696E491D70119961C92199745
:102D50001A96EC931A9753961C921E925297F6016C
:102D60003F9781E08083C7010E948D14A394BFE147
:102D7000EB0EF11C085F1F4FEFE1CE0ED11C73CF9D
:102D80006F960FB6F894DEBF0FBECDBFDF91CF9127
:102D90001F910F91FF90EF90DF90CF90BF90AF9079
:102DA0009F908F9008952FB7F89483E08093E90067
:102DB0009091E800892F807295FF04C09091F200F5
:102DC00080E4891B2FBF0895CF93DF931F92CDB767
:102DD000DEB76983DC01ED91FC910280F381E02D87
:102DE00041E050E0BE016F5F7F4F09950F90DF918A
:102DF000CF91089583E08093E9008091F2008823C9
:102E000019F08AE38093E80008950E94D31690E0B9
:102E100008958F929F92AF92BF92CF92DF92EF92DE
:102E2000FF920F931F93CF93DF935C016B017A01A5
:102E300080910F01882309F45BC08091F001882301
:102E400009F456C08091EE0180FF05C08091E0003A
:102E500082608093E000E70110E00AEF83E0882EB3
:102E60009AE3992E2097D9F10E94D31681110AC0B6
:102E7000015009F43DC061E070E080E090E00E9404
:102E80001011F0CF282F30E0C217D3070CF48C2F8D
:102E90004FB7F8948092E9009091E80095FF1DC02B
:102EA000282F30E0C21BD30BF601982F915020F051
:102EB00081918093F100FACFC20ED31E112319F035
:102EC0009092E80009C08091E80085FD06C09092CC
:102ED000E80011E0209709F010E04FBFC3CF1111B7
:102EE000C3CF5D9884E68093ED011E141F0444F067
:102EF00081E090E0F5019383828380E090E001C05F
:102F0000C701DF91CF911F910F91FF90EF90DF905C
:102F1000CF90BF90AF909F908F9008956F927F92C7
:102F20008F929F92AF92BF92CF92DF92EF92FF92D9
:102F30000F931F93CF93DF9300D000D0CDB7DEB7B0
:102F400069014115510509F4CAC1FA01149131967C
:102F5000E4910F3F29F4232B11F001E001C002E0BE
:102F6000E12EF12C9C012E0D3F1D121613060CF0C4
:102F7000B6C1803891050CF0B2C1DB01AE0FB11DB6
:102F80001A161B060CF0ABC1603471050CF0A7C11A
:102F9000DB0177FF04C0AA27BB27A61BB70BFA2FBC
:102FA000F7708F2EDB0177FD1796F3E0B595A795A7
:102FB000FA95E1F7FA2F77FF07C0882029F0FFEF95
:102FC000FA0F68E06819862E97FF05C0AA27BB276D
:102FD000A81BB90B02C0A0E0B0E02038310524F0F6
:102FE00020E8922E981A01C0912E9A1A2F2F0F2E98
:102FF000000C330BFF3F1CF4622F609501C060E0B2
:10300000BB24B3947E2F777009F4B12CE695E69536
:10301000E695BE0E2B0D311D293031051CF028E040
:10302000B22EBF1AB61A362F3F0F20E83203800D9A
:10303000911D11248A0F9B1F619FA00DB11D1124AA
:103040004E5F5F4F4A0F5B1F61E070E0082C02C0CB
:10305000660F771F0A94E2F7033009F4FDC0A0F46D
:10306000013009F4AFC0023009F039C12FEF269FBB
:103070008001279F100D1124009510951C830B8350
:103080007C806B2C630E27C00A3F29F00B3F09F0B0
:1030900026C1B30E83C0B30E4EC0FA01EC0DFD1D68
:1030A000E491E69F5001E79FB00C1124BA82A982F7
:1030B00037FD04C02C912023A22AAC92811014C0A9
:1030C000EFEFCE1ADE0A1196C91438F33F5F4E0DAA
:1030D0005F1D80589F4F361509F401C1DC01AC50CB
:1030E000BE4FC12CD12CF0CF373054F7FD01E05842
:1030F000FF4F20812721AA802A292083E1CFFA01CE
:10310000E00FF11FE491E69F6001E79FD00C1124CE
:10311000DA82C98237FD03C02C91C22ACC92811079
:1031200013C00F5F1F4F1196091548F33F5F4E0DF7
:103130005F1D80589F4F3B1509F4D1C0DC01AC5096
:10314000BE4F00E010E0F0CF37305CF7FD01E058F3
:10315000FF4FD0802A812D292083E3CFFA01EC0D87
:10316000FD1DE491E69FD001E79FB00D1124BA83C5
:10317000A98337FD05C0A095F8012081A223A08373
:10318000811015C0FFEFCF1ADF0A0F5F1F4FC91460
:1031900028F33F5F4E0D5F1D80589F4F3B1509F48C
:1031A0009EC08C010C501E4FC12CD12CF0CF37305B
:1031B0004CF7D801A058BF4F2A812095EC912E23BF
:1031C0002C93E0CFAC0DBD1D2B2D230F321709F42E
:1031D00086C0FC01EC50FE4F5F01C12CD12CC914FC
:1031E00098F5FD01EC0DFD1DE491E69F8001E79F40
:1031F000100D1124009510951C830B83FA01EC0D22
:10320000FD1DE491E69F3001E79F700C11247A8246
:10321000698237FD05C0F50110810123602A6082B3
:10322000882059F037304CF4F501E058FF4F008109
:103230001C8110230A81102B1083FFEFCF1ADF0AA5
:10324000EFEFAE1ABE0ACBCF3F5F4E0D5F1DAE0D46
:10325000BF1D80589F4FBACFC92CD12CFA01EA0F5D
:10326000FB1FDC01AC50BE4FAC014C585D4F00E879
:1032700010E00C191D09EC18FD08EE0CFF1C9B2D2D
:10328000692C7B2CCF93DF93EA01A590C590882011
:1032900059F0A69E5001C69E600137302CF428815B
:1032A000D0942D212B29299333233AF02C91C094CB
:1032B0002C212A292D930C945E1911969A9429F7A2
:1032C0009A9551F0962C33951124EE0DF11DA00F17
:1032D000B11DC00FD11DD9CFDF91CF9111240F9017
:1032E0000F900F900F90DF91CF911F910F91FF9052
:1032F000EF90DF90CF90BF90AF909F908F907F9096
:103300006F9008950F9302E020E030E00E948E1746
:103310000F910895CF93DF9300D000D000D0CDB7A8
:10332000DEB7E5E2F7E080819181A281B381CD0132
:10333000BB2797FDB095AB2F282F9A838983848173
:103340009581A681B781CD01BB2797FDB095AB2FA5
:10335000482F9C838B8383859485FC0165917491B0
:10336000FB016491FC0185919491FC01319674916B
:103370003A815C8180E090E026960FB6F894DEBF3B
:103380000FBECDBFDF91CF9108952091450728232F
:1033900029F490914407982381E009F480E008958E
:1033A0008F929F92AF92BF92CF92DF92EF92FF9255
:1033B0000F93CF93DF936B01EC014C01840E911CB2
:1033C0005B01A20EB11CC815D905ECF47601D7FE3D
:1033D00010C0E12CF12C0DC0E816F90694F4202F52
:1033E000A701BE018FE397E00E9457122FEFE21A68
:1033F000F20AC50121E4A216B10474F380E490E05E
:10340000EBCF2196E0CFDF91CF910F91FF90EF901E
:10341000DF90CF90BF90AF909F908F90089580E005
:10342000E4EFF1E081118FEF002481938193819388
:1034300081930394D1F7EBE3F7E0118E108E178A96
:10344000168A08955F926F927F928F929F92AF92A9
:10345000BF92CF92DF92EF92FF920F931F93CF9381
:10346000DF93EC018B017A01A901461B570B57FF33
:1034700003C0519541955109C7018C1B9D0B97FFC6
:1034800003C091958195910955245394841795070C
:1034900014F0512C0AC09E2D8F2D7901292F382F21
:1034A0009C2F8D2FE801092F182FEC16FD0654F4E0
:1034B000902F812F8901292F382F9C2F8D2FE701E5
:1034C000E92EF82E37016C1A7D0A5901A01AB10AAB
:1034D000B7FE03C0B194A194B108630177FE03C0A5
:1034E0008FEFC81AD80AD594C7940217130714F09F
:1034F0008FEF01C081E0882E880F9908EC16FD0639
:10350000B4F021E0552019F0AE01B80102C0A801C5
:10351000BE018FE397E00E945712CA18DB08D7FE5E
:1035200004C0080D191DC60CD71C2196E7CFDF91EA
:10353000CF911F910F91FF90EF90DF90CF90BF90B0
:10354000AF909F908F907F906F905F9008950F93B2
:103550001F93CF93DF93042FD22F90E0AB01BC01D8
:103560008BE790E00E948219D53030F48091F2010F
:103570009091F3010F9780F0C0E010E0CD1760F458
:10358000B8016C0F711D9B0140E850E08BE790E0A3
:103590000E94221ACE5FF2CFDF91CF911F910F913F
:1035A00008950F931F93CF93DF938C01C0E0D0E079
:1035B000F801EC0FFD1F6491662371F0E0913B0769
:1035C000F0913C070190F081E02D8BE397E00995A5
:1035D000892B11F02196ECCFCE01DF91CF911F9175
:1035E0000F910895CF93C92F2091F10130E0220F60
:1035F000331F682FC90186539F4F0E940E3480915C
:10360000F10190E0880F991F6C2F85539F4FCF9148
:103610000C940E341F93CF93DF93C091F101D0E04F
:10362000CC0FDD1FCE0186539F4F0E940634182F0A
:10363000CE0185539F4F0E940634282F30E0922FF1
:103640008827810F911DDF91CF911F9108958F924F
:103650009F92AF92BF920F931F93CF93DF93CDB7FB
:10366000DEB7A1970FB6F894DEBF0FBECDBF19A28B
:10367000423008F44AE08E010F5D1F4F842E912CDA
:10368000A12CB12CA50194010E944E34E62FB90162
:10369000CA0101501109EA3014F4E05D01C0E95C8F
:1036A000D801EC93232B242B252B61F70115110551
:1036B00071F0F80101900020E9F73197AF01401B4C
:1036C000510BB8018BE397E00E94EE0F02C080E03F
:1036D00090E0A1960FB6F894DEBF0FBECDBFDF918C
:1036E000CF911F910F91BF90AF909F908F900895B1
:1036F00041E050E065EC71E08BE397E00C94EE0F55
:10370000FC018091F001811103C08FEF9FEF0895BC
:103710009FB7F89482E08093E9002091F20030E0B6
:103720001216130614F421E030E02115310559F08A
:10373000289884E68093EF018091F1008083809146
:10374000F200882319F09FBFC90108958BE680938A
:10375000E800F9CF80915D0781110DC082E0809370
:10376000590784E080935A0710925C0710925B0718
:1037700081E080935D0789E597E00895FC018485E9
:10378000958597FD0BC09FB7F89482E08093E90080
:103790008091F2009FBF90E0019608959FB7F89442
:1037A00082E08093E9008091F2009FBF90E008954D
:1037B0004091C7075091C8072091C5073091C607AF
:1037C00042175307B4F49091E8009570E1F390919B
:1037D000E80092FD19C08093F1008091C707909195
:1037E000C80701968F739927892B19F48EEF809360
:1037F000E8008091C7079091C80701969093C80789
:103800008093C70781E0089580E00895CF92DF920A
:10381000EF92FF920F931F93CF93DF931F92CDB739
:10382000DEB7182F062FE42E862F880F8E5F998320
:103830000E94D81B83E00E94D81BF12EC12E9981D3
:10384000D92E8C2D8F19801798F4F601E7FE02C04F
:10385000849101C080810E94D81B182F80E00E94B3
:10386000D81B8123FFEFCF1ADF0A8111EACF01C0F5
:1038700081E00F90DF91CF911F910F91FF90EF901A
:10388000DF90CF900895DF92EF92FF920F931F93F6
:10389000CF93DF93D82E8A017B01E40EF51EEB0156
:1038A000CE15DF0571F0D7FE03C0FE01849101C083
:1038B00088810E94D81B21968111F2CF8FEF9FEF54
:1038C00001C0C801DF91CF911F910F91FF90EF9040
:1038D000DF900895615030F02091F100FC012083C9
:1038E0000196F8CF289884E68093EF0108950F930E
:1038F0001F93CF93DF931F92CDB7DEB78C01FC01EE
:103900008485958597FF0EC0CE0101960E94801B8D
:10391000019719F4298130E002C02FEF3FEFF80141
:1039200035872487F801848595850F90DF91CF91A5
:103930001F910F910895CF93DF931F92CDB7DEB7FC
:10394000FC018485958597FD05C02FEF3FEF3587F6
:1039500024870BC0CE0101960E94801B019719F4A9
:10396000898190E002C08FEF9FEF0F90DF91CF91A0
:1039700008950F931F93CF93DF931F92CDB7DEB7B8
:1039800082E0898342E450E060E17FE180E80E94C8
:10399000431C0E94AA1BDC0112960D911C911397E7
:1039A0000115110569F0D801ED91FC910280F381B8
:1039B000E02DBE016F5F7F4FC801099597FF07C0DB
:1039C00089810F90DF91CF911F910F910895F80198
:1039D00000851185E5CF1F920F920FB60F9211242B
:1039E0008F939F938091E1009091E100937F90935A
:1039F000E10083FF0FC01092E90091E09093EB008B
:103A00001092EC0092E39093ED001092F00198E098
:103A10009093F00082FF20C093E09093E900909192
:103A2000F200992319F09AE39093E8009091ED0148
:103A3000992339F09091ED0191509093ED019923E4
:103A400089F19091EF01992339F09091EF01915014
:103A50009093EF01992341F184FF10C08091E2001F
:103A60008E7E81608093E2008091E1008F7E809362
:103A7000E1008091EE018E7E806111C080FF16C052
:103A80008091E2008E7E80618093E2008091E1006F
:103A90008E7E8093E1008091EE018E7E8160809326
:103AA000EE0104C05D9ACDCF289AD6CF9F918F9119
:103AB0000F900FBE0F901F9018951F920F920FB688
:103AC0000F921124CF92DF92EF92FF920F931F93E8
:103AD0002F933F934F935F936F937F938F939F9316
:103AE000AF93BF93EF93FF93CF93DF93CDB7DEB741
:103AF0006C97DEBFCDBF1092E9008091E80083FF94
:103B0000EDC168E0CE0145960E946A1C82EF809369
:103B1000E8008D8987FF05C09091E80090FFFCCFF9
:103B200003C09EEF9093E800982F907609F0C6C0EE
:103B30009E892F89188D91110CC0803829F48091AD
:103B4000C4078093F10002C01092F1001092F100BE
:103B500048C1422F50E0512B913051F4811141C1A5
:103B60004130510509F03DC18091C4078D7F0BC0E4
:103B7000933061F4811135C14130510509F031C1F3
:103B80008091C40782608093C4072BC1953041F4B3
:103B90008091E80080FFFCCF20682093E30021C1E2
:103BA000963009F05FC0EB8CFC8C1092E90010920B
:103BB000C8071092C707123091F51092C6071092ED
:103BC000C5070E94B91C99E0BE016F5F7F4FDB0102
:103BD000E92F1D92EA95E9F799831A8391E09E8374
:103BE00090EA98879AEF99872091C7073091C80784
:103BF000275F3F4F3C832B838D831092E900109207
:103C0000C8071092C707F092C607E092C50749E0BF
:103C100050E080E00E94431C0E94B91CE2C0F09278
:103C2000C607E092C5070E94AA1BDC011296ED9020
:103C3000FC901397E114F10409F4C0C0D701ED9191
:103C4000FC910480F581E02DBE016B5E7F4FC701C2
:103C50000995009719F00CF0C4C0C7C0F701E084C3
:103C6000F184E8CF973009F4C0C0983021F481E0A6
:103C70008093F100B6C0993009F0B3C0837009F0A9
:103C8000B4C0EFEBF1E081E021E036E390819923CD
:103C900061F08093E9002093EB0091919093EC0008
:103CA0003093ED008F5F873089F78EE78093EA00CD
:103CB0001092EA008F898093F00193C08B8D9C8DC8
:103CC0001092E9001092C8071092C7079093C60798
:103CD0008093C507898D811156C08E899D89913A3F
:103CE00059F4813209F081C047E050E068E071E0AA
:103CF00080E00E94431C75C0913209F076C0833287
:103D000089F4888D90E0982F88272F89822BA0E056
:103D1000B0E08093100190931101A0931201B09331
:103D200013015FC0803269F48091E80082FFFCCF0C
:103D300067E088E091E00E946A1C8BEF8093E800C6
:103D400006C0823209F04DC08F8980930F018091A7
:103D5000C307882319F0EEEFFAE002C0E0E0F8E0D4
:103D60008091080190910901A0910A01B0910B0185
:103D7000803B9440A105B10509F07BC080910F0103
:103D800080FF93C076C00E94AA1BDC0112960D91A1
:103D90001C9113970115110541F1D801ED91FC918A
:103DA0000190F081E02DBE016B5E7F4FC801099547
:103DB000811117C0F80100851185ECCF113009F48D
:103DC0004EC0133091F48F89882309F445C08230A6
:103DD00081F440E860E184E79FE10E94061C8823AB
:103DE00021F08EEF8093E80079C081E28093EB00B0
:103DF00075C0813029F440E86BE088E69FE1EDCFA3
:103E0000833099F70E94AA1BDC011296ED90FC907A
:103E100013978E010F5F1F4F6801E114F10479F0D1
:103E2000D701ED91FC910680F781E02DB801C70123
:103E30000995080F111DF701E084F184EECFD80138
:103E40001C92F60101900020E9F73197BF016C192F
:103E50007D0940E0C601C1CF62E57FE102C066E5B1
:103E60007FE16115710509F2FB01449150E080E8A2
:103E700040CF0FB6F894A895809160008861809338
:103E80006000109260000FBEA895EE3F2AE0F20796
:103E900039F08091FE0A9091FF0A91838083A1CF2F
:103EA0001092FF0A1092FE0A9CCFEE3F8AE0F807BC
:103EB00031F0808191819093FF0A8093FE0A87E719
:103EC00097E7918380839BE088E10FB6F894A895EB
:103ED000809360000FBE9093600083CF6C960FB606
:103EE000F894DEBF0FBECDBFDF91CF91FF91EF9170
:103EF000BF91AF919F918F917F916F915F914F9102
:103F00003F912F911F910F91FF90EF90DF90CF90F5
:103F10000F900FBE0F901F901895CF93DF93CDB7E2
:103F2000DEB7C854D1090FB6F894DEBF0FBECDBFBF
:103F3000789484B5826084BD84B5816084BD85B584
:103F4000826085BD85B5816085BD80916E00816090
:103F500080936E0010928100809181008260809336
:103F60008100809181008160809381008091800038
:103F700081608093800080919100826080939100A5
:103F80008091910081608093910080919000816088
:103F9000809390008091C10084608093C1008091E3
:103FA000C10082608093C1008091C10081608093D4
:103FB000C1008091C30081608093C3008091C000E4
:103FC00082608093C0008091C20081608093C200B3
:103FD00080917A00846080937A0080917A00826078
:103FE00080937A0080917A00816080937A0080913A
:103FF0007A00806880937A001092F0011092C407D2
:104000001092EE018091D70081608093D70080EA02
:104010008093D80089B5806189BD89B5826089BDEA
:1040200009B400FEFDCF61E070E080E090E00E9406
:1040300010118091D8008F7C80618093D80080918E
:10404000E000807F8093E0008091E1008E7E80938D
:10405000E1008DE08093E200559A209AEEEFFFE7B1
:10406000859194918B3F9C4D19F481E08093C30717
:1040700088EC90E00E940634182F89EC90E00E94B2
:104080000634143311F48333B1F088EC90E09A8352
:10409000898364E3CE0101960E946D1489EC90E05F
:1040A0009A83898363E3CE0101960E946D1480E0B8
:1040B00090E00E94F21A81EC80937C0085B1806FC1
:1040C00085B9249884B1866E84B95E9A5F988AB166
:1040D000806D8AB9769A6E9881B3806F81BB89981A
:1040E00080B38D7080BB80E58CBD81E08DBD85E0A7
:1040F00090E00E9407125F9A85E090E00E9407120C
:104100005E985C9805E114E05DE0F52EF00EF80194
:1041100084910E9434120F5F1F4FF012F8CF5C9A07
:1041200081E88093640081E08093650000E014E002
:1041300080E00E94341201501109D1F70E940C1244
:1041400087FF10C05C9885EA0E9434125C9A2E9812
:104150002F982D98809164008062809364000E9463
:104160002912FDCF02E010E00E940C1282FF40C035
:104170002D980E940C1284788438C1F00E940C1291
:104180008471843181F52D9A88EC90E00E940712A9
:104190002E981A83098360E0CE0101960E946D1467
:1041A00084EF91E00E9407122E9A18C02D9A88EC95
:1041B00090E00E9407122F981A8309836FEFCE01B7
:1041C00001960E946D1484EF91E00E9407122F9ACD
:1041D0000E940C1284788438D9F3D0CF0E940C123C
:1041E00084718431D9F388EC90E00E940712BCCF2F
:1041F0002D9A82E090E00E940634882319F00E94F4
:104200003F1202C00E943A128DE790E0909307019E
:10421000809306018CE291E0909305018093040164
:1042200082E38093030184E18093460780916400D8
:104230008E7F8093640080917A00806480937A00FE
:1042400080917A0086FDFCCF009178001091790072
:104250000E94EB1020E030E0980111270027600F4A
:10426000711F821F931F611571058105910511F062
:104270000E94FD33809164008160809364002FB7B9
:10428000F8948091C8019091C901A091CA01B091A0
:10429000CB012FBF40914B0750914C0760914D07C8
:1042A00070914E0720914F07222341F0209147073C
:1042B000821B8093500710924F07DBC78417950726
:1042C000A607B70738F4481B423008F4D2C70E944B
:1042D0002912CFC721E020934F078093470790937F
:1042E0004807A0934907B0934A0720914607820FD9
:1042F000911DA11DB11D80934B0790934C07A09376
:104300004D07B0934E078091420790914307019665
:104310009093430780934207809144078093450719
:104320000E940C1280934407E091D7018E2F90E0F9
:104330008830910508F09DC7FC01EA5AFF4F0C94A4
:1043400051361092D6011092D50180EE9FEF9093D6
:10435000D4018093D30111E01093D70189E79EE047
:104360000E94F411109235071092340710923A0708
:1043700080E09EE0909338078093370790932F0753
:1043800080932E078BE480933607109233071092A8
:1043900032071092390710932D0780E090E0A1E0DA
:1043A000B0E08093250790932607A0932707B0934A
:1043B000280780E090E0A8E1B0E08093290790937F
:1043C0002A07A0932B07B0932C070EC10E940F1A47
:1043D00045E95BE060E070E082E090E00E948219D5
:1043E00047EA5AE062E370E086E090E00E948219BA
:1043F0001091CD01112341F04FE85AE062E370E0E3
:1044000083E790E00E9482198091D201882301F114
:1044100000E02EE040E462E370E087E490E00E9478
:10442000D01943E55AE062E370E087E490E00E942F
:104430008219E091F101F0E0EE0FFF1FE25AFE4F0A
:104440004081518162E370E087E690E00E9482192A
:10445000E090D301F090D401F8E8EF16F104BCF439
:1044600000E021E148EC6FE270E0C70102970E9492
:10447000D01948E45EE16FE270E0C7010E94821942
:104480002FEFE21AF20AF092D401E092D3018FE307
:1044900097E00E94451280E80E94C519882351F0D8
:1044A0008091F101823018F48F5F8093F10181E0F7
:1044B0008093D20180E10E94C519882351F0809138
:1044C000F101882319F081508093F10181E08093FC
:1044D000D20180E60E94C519882319F086E08093F6
:1044E000D70188E00E94C519882329F082E08093D3
:1044F000D7011092D60184E00E94C519882309F4DF
:10450000B8C61092D201112319F00E943A1202C0CB
:104510000E943F126091CD0182E090E09A838983EE
:10452000CE0101960E946D14A4C6109273061092DB
:1045300092061092B1061092D0061092EF061092D9
:104540000E0780E090E0FC01E25EF94F13820496D2
:104550008C339105C1F780E090E0FC01EA50FA4FFE
:104560001382049688329105C1F710923A0780E0D1
:104570009EE0909338078093370790932F0780939E
:104580002E078BE480933607109233071092320780
:104590001092390781E080932D0780E090E0A1E040
:1045A000B0E08093250790932607A0932707B09348
:1045B000280780E090E0A8E1B0E08093290790937D
:1045C0002A07A0932B07B0932C07109262068DE464
:1045D00099E00E94F41180E590E09093D4018093DB
:1045E000D30183E08093D7018DE790E0909307019A
:1045F000809306018CE291E0909305018093040181
:1046000082E38093030184E18093460732C60E94CF
:104610000F1A8091D601893018F000E013E602C02D
:1046200002E01DE52091D3013091D4012130310504
:1046300009F440C00CF492C0213531050CF08EC055
:10464000802F90E0859690935207809351078DE1DB
:1046500090E090935407809353071092560781E09F
:104660008093550784E499E00E94D11A2091D601E5
:1046700030E0B9016F5F7F4F072E000C880B990B5C
:104680004AE00E94271B0D5D21E04AE1612F802F47
:104690000E94641321E046E2612F802F0E94641380
:1046A0008091D3019091D40101979093D40180938C
:1046B000D30154C065E00E941D36E92FF0E0EE0FF3
:1046C000FF1FEC5AFE4F0190F081E02D14911093E2
:1046D000CE0182E08093D5013196E491E093D00140
:1046E000F0E0EE0FFF1FEA5CFE4F808191810E9497
:1046F000FA1511501093D1012091F10130E0F90128
:10470000E55EFE4F608180910301680F60930301B5
:10471000F901E85EFE4F8081082E000C990B209174
:10472000060130910701280F391F309307012093AC
:1047300006012091040130910501820F931F90938F
:1047400005018093040170E088EE93E00E943D36FD
:10475000609346071092D4011092D30180913707DD
:1047600090913807181619060CF044C020912E07B6
:1047700030912F0712161306ECF5209139072111FD
:1047800039C002979093380780933707019621F438
:1047900010923807109237070E940C1287FF02C050
:1047A0000C94E42C0E940C1284FF02C00C94022D85
:1047B0000E940C1285FF02C00C941F2D0E940C1247
:1047C00086FF02C00C943D2D88E00E94C51981111E
:1047D0000C94672D84E00E94C519882319F088E0A5
:1047E000809339078091D3019091D401892B11F4E2
:1047F0000C94AF2D0EE116E0E1E2CE2EE6E0DE2EC7
:10480000FFE1EF2EF6E0FF2EF6013197E0818E2FCB
:1048100090E08830910550F5FC01E25AFF4F0C946E
:104820005136F80180818F5F8083D7018C91815050
:104830008C931CC0F80105C0D8018C918F5F8C93BC
:10484000F70180818F5F11C0F801808181508083E2
:10485000D7018C918F5FECCFF80105C0D8018C9106
:1048600081508C93F701808181508083D8016C91B5
:10487000693710F0F6011082D7014C91413410F0E5
:10488000F6011082D6018C91882339F050E070E057
:1048900021E08FE397E00E9457120C5F1F4FB4E0B6
:1048A000CB0ED11CE4E0EE0EF11CF6E00A351F073A
:1048B00009F0AACF06EF15E069EFC62E65E0D62E07
:1048C00077EFE72E75E0F72EF6013197E0818E2F16
:1048D00090E08830910550F5FC01EA59FF4F0C94A7
:1048E0005136F80180818E5F8083D7018C91825090
:1048F0008C931CC0F80105C0D8018C918E5F8C93FD
:10490000F70180818E5F11C0F80180818250808321
:10491000D7018C918E5FECCFF80105C0D8018C9146
:1049200082508C93F701808182508083D8018C91D2
:10493000893710F0F6011082D7018C91813410F084
:10494000F6011082D6018C91882359F0F70140813D
:1049500050E0D8016C9170E021E08FE397E00E9475
:1049600057120C5F1F4FB4E0CB0ED11CE4E0EE0EEB
:10497000F11CF6E00E311F0709F0A6CF3BE6832EAF
:1049800036E0932E43E7642E46E0742E22E836E0AC
:104990003AAF29AF5AE7452E56E0552EC4010E9482
:1049A0008D14C4010E94A31529833A834B835C8331
:1049B0006D837E8329813A818B819C81D3014C91C7
:1049C000442309F4C6C0E9ADFAAD40814111C1C02C
:1049D000A901460F511D141615060CF0BAC0203857
:1049E00031050CF0B6C09C01270F311D37FDB1C059
:1049F000803491050CF0ADC092012250310923960C
:104A00003FAF2EAF2397D901BC91BFABB33009F0B4
:104A10009CC08091250790912607A0912707B0910F
:104A200028071D01F8E02F0E311C80912907909175
:104A30002A07A0912B07B0912C078D01085F1F4F0B
:104A4000F40180819181A281B3817D01FDE1EF0EAE
:104A5000F11CF40184819581A681B7815D01DD247B
:104A6000B7FCD094CD2CC4010E948D152E183F08A0
:104A7000869590E08A0D9B1D5801A81AB90A2596C3
:104A8000BFAEAEAE25972114310409F4FCC3C501B5
:104A9000BB0CAA0BBB0BDC01992788276C017D019D
:104AA000FF0CCC08DC2C76019C01AD016C2D7C2D1B
:104AB0008C2D9C2D00E10E942E376101330CEE08F5
:104AC000FF088601FF24EE2457016801DD0CAA08C7
:104AD000BA2C65012196ACAEBDAECEAEDFAE21974D
:104AE00057016801EDACFE2C0E2D1E2D0E9459368B
:104AF000F22FE32F8F2F9E2FA42FB52FB7FF07C0C4
:104B0000B095A095909581959F4FAF4FBF4F24963C
:104B1000BFAC24971B140CF4D9C312140CF4B8C303
:104B20002110C5C38B5F9946A240B10985309649D3
:104B3000A44EB34008F003C41FAAD2018C91BFA9B0
:104B4000B93009F002C4F2018083D3018C91811144
:104B500000C4BFE18B0E911CEFE16E0E711C29ADFC
:104B60003AAD215E3F4F3AAF29AF3FE1430E511CB2
:104B700045E2841647E0940609F010CF8091620662
:104B8000882389F14091630650916406052E000C3C
:104B9000660B770B762F652F542F442780915A068A
:104BA00090915B06A0915C06B0915D06841B950B0D
:104BB000A60BB70B80935A0690935B06A0935C06F6
:104BC000B0935D06CD01BB2797FDB095AB2FAC012F
:104BD000485F5F4F4838510508F450C5883F9F4FE4
:104BE00014F4109262060091250710912607209177
:104BF0002707309128078901332717FD3095232F88
:104C0000C801409680399105F8F48091370790915A
:104C100038071816190644F480912E0790912F0733
:104C200081159B4F0CF0BEC580912E0790912F07E8
:104C3000181619060CF03CC520913707309138073B
:104C4000121613060CF0A5C50E9486138FE397E099
:104C50000E9445128091D3019091D401892BB1F526
:104C600080E090E0FC01E559F94F208521112EC02C
:104C70004F968A3B9105B1F71091D1018091D601F1
:104C8000112309F451C665E00E941D36E92FF0E0BA
:104C9000EE0FFF1FEC5AFE4F0190F081E02D809146
:104CA000D50191E0980F9093D501E80FF11DE491A3
:104CB000E093D001F0E0EE0FFF1FEA5CFE4F808131
:104CC00091810E94FA1511501093D10180912E0705
:104CD00090912F07181619063CF480913707909190
:104CE00038071816190644F08091CC01811104C0D0
:104CF0008AEC97E00E94F41180912D078111B9C2CE
:104D00002091320730913307809134079091350715
:104D1000820F931F909335078093340785E013C269
:104D2000A0903207B0903307E0903407F090350739
:104D30000E940A1B8E159F0518F4C7010E94F21AE3
:104D400034ECC32EDD24DA944BE0842E912C12E057
:104D50000E940F1A90925207809251078AE090E0C9
:104D6000909354078093530783E597E00E94D11AEC
:104D700021E047E066E789E00E94641321E043E117
:104D800066E789E00E9464131093D70100E024E1F4
:104D90004FEF65E070E0C60102970E94D01946E42B
:104DA0005BE160E070E0C601C0960E94821946E4B3
:104DB0005BE162E170E0C6014E960E94821948E410
:104DC0005EE165E070E0C6010E9482198FE397E022
:104DD0000E94451265E070E080E090E00E941011B2
:104DE00092E0C90ED11CA2E8CA16D10409F0B0CFD6
:104DF0008EE090E090935207809351070CE110E011
:104E0000109354070093530785E497E00E94D11A4A
:104E100081E690E0909352078093510710935407D6
:104E200000935307B4E6AB16B10440F40E94781B1C
:104E3000EAE0AE16B10410F40E94781BB50180E0E0
:104E400090E04AE00E94271B8EE090E0909352078A
:104E50008093510708E210E0109354070093530722
:104E600089E397E00E94D11A81E690E0909352077F
:104E7000809351071093540700935307F4E6EF16FD
:104E8000F10440F40E94781B2AE0E216F10410F4C9
:104E90000E94781BB70180E090E04AE00E94271B47
:104EA0008FE397E00E94451218E76AE070E080E027
:104EB00090E00E9410111150C1F782E290E09093AF
:104EC00052078093510787E390E0909354078093B3
:104ED00053078EE297E00E94D11A21E045E366E293
:104EE00082E20E94641321E04FE366E282E20E94C4
:104EF00064138FE397E00E9445120E940C1283FD19
:104F0000B8C164E670E080E090E00E941011F5CF37
:104F10008091D3019091D401181619062CF40197B1
:104F20009093D4018093D301E0903407F09035073B
:104F30000E940F1A01E020E440E860E070E080E0A9
:104F400090E00E94D01938EEE31633E0F30618F42F
:104F500080E090E002C08DEF9FEF4CE854E060E00D
:104F600070E00E9482198091D3019091D4014497FE
:104F70007CF581E080935607109255078AE490E013
:104F8000909352078093510704E010E01093540768
:104F90000093530787E894E00E94D11A85E690E0D9
:104FA000909352078093510710935407009353072F
:104FB00082E894E00E94D11A20E042E06CE788E4A5
:104FC0000E94641320E04CE06CE788E40E946413C4
:104FD0008091D3019091D401892B09F09AC00E944D
:104FE0000A1B8C018E159F0520F4C7010E94F21A3E
:104FF000870148EEE41643E0F40620F4083E53E04F
:105000001507A0F08AE490E090935207809351072F
:1050100028E2C22ED12CD0925407C09253078DE7BC
:1050200094E00E94D11A86E690E013C08CE490E0F0
:10503000909352078093510798E2C92ED12CD092B9
:105040005407C092530787E794E00E94D11A8DE677
:1050500090E09093520780935107D0925407C092EA
:10506000530784E6E816F10440F40E94781B9AE0A6
:10507000E916F10410F40E94781BC701A0E0B0E02B
:105080004AE0BC01CD010E94271BA8EEEA16A3E06E
:10509000FA0638F4083EB3E01B0718F48CE490E0FD
:1050A00002C088E490E0909352078093510784E314
:1050B00090E0909354078093530782E794E00E9416
:1050C000D11AE8EEEE16E3E0FE0638F4083EF3E00F
:1050D0001F0718F48DE690E002C086E690E09093FA
:1050E00052078093510784E390E090935407809394
:1050F00053070436110538F40E94781B0A30110555
:1051000010F40E94781BB80180E090E04AE00E9411
:10511000271B8FE397E00E94451262E370E080E076
:1051200090E00E94101188E00E94C519882309F4BC
:10513000A0C01092D7019DC080EE9FEF9093D40144
:105140008093D30187E08093D70193C084ECE82E4D
:10515000FF24FA940E940F1A1CE2A12EB12CB092E7
:105160005207A09251070AE0C02ED12CD0925407CA
:10517000C09253078AE694E00E94D11A21E047E0EA
:105180006BE684E10E94641321E043E16BE684E175
:105190000E9464131092D70100E024E14FEF65E014
:1051A00070E0C70102970E94D01946E45BE160E01D
:1051B00070E0C701C0960E94821946E45BE162E19B
:1051C00070E0C7014E960E94821948E45EE165E0F6
:1051D00070E0C7010E9482198FE397E00E94451298
:1051E00065E070E080E090E00E94101122E0E20EA5
:1051F000F11C32E8E316F10409F0ACCF42E554E0CB
:105200006CE170E08EE090E00E94821906E210E00E
:1052100010935207009351078EE190E0909354074A
:105220008093530784E494E00E94D11A40E354E051
:1052300069E270E08FE090E00E94821910935207BB
:1052400000935107B0925407A092530782E294E072
:105250000E94D11A8FE397E00E9445120E940C121F
:1052600083FD67CF64E670E080E090E00E9410115B
:10527000F5CF80E090E0892B11F40C943F210E943F
:1052800000000C943F2180E090E0A7EEB3E03FCC1B
:10529000AC01BD01415051096109710947305A46BD
:1052A0006105710508F07BC042E04FAB46CCAC0114
:1052B000BD01415051096109710947305A466105E4
:1052C000710508F07BC056E05FAB37CC121474F464
:1052D000AC01BD01415051096109710947305A467D
:1052E00061057105A0F492E09FAB27CC2220D9F094
:1052F000AC01BD01415051096109710947305A465D
:105300006105710508F069C0A6E0AFAB16CCAC0131
:10531000BD0149505A4661097109413F5F4F6140E3
:10532000710508F40ACC8B5F9946A240B10986301A
:105330009649A44EB34030F434E03FABFECB89E055
:105340008FABFBCBB9E0BFABF8CBB81355C08B2FFD
:10535000FACBE9ADFAAD80818111FBCBD401CD90C0
:10536000DD90ED90FC906701FF24D7FCF094EF2CCA
:10537000C4010E94981590E0C80ED91ED7FCE9CB55
:10538000F40180819181A281B381CD01BB2797FD7A
:10539000B095AB2F803891050CF468C0DACBAC0126
:1053A000BD0149505A4661097109413F5F4F614053
:1053B000710508F0B7CBE1E0EFABBFCBAC01BD01AD
:1053C00049505A4661097109413F5F4F614071057B
:1053D00008F0A8CBF7E0FFABB0CBAC01BD01495062
:1053E0005A4661097109413F5F4F6140710508F0FC
:1053F0009ACF25E02FABA1CB4FA9642F70E0482FA7
:1054000050E09B01241B350BF9013396379720F4AC
:1054100012161306BCF408C09B01285F3F4F241BE3
:10542000350B1216130684F4873011F08F5F01C01C
:1054300080E0482F50E09B01241B350BF901339687
:10544000379710F4932F07C028EF3FEF241B350B3D
:10545000620F731F972F991F9927991F09F473CB18
:10546000882311F081506FCB87E06DCBF401438529
:105470005485F2013197E081F0E03896BF01660F64
:10548000771FFA01E60FF71F25913491FB01709702
:10549000E40FF51F45915491F401C480D580E68056
:1054A000F7806701FF24D7FCF094EF2C01E0B601F0
:1054B0000E948E172396AEADBFAD23978C9183309B
:1054C00029F4D2018C91863009F0B4C0F4018185B1
:1054D0009285181619060CF46FC0805491099287B2
:1054E00081872285822F022E000C990B97FF03C023
:1054F0009195819591092F3FFCF42D3F0CF042C00E
:105500002C3F09F059C0D4011B96ED91FC911C97DA
:10551000B69645915491F40184819581A681B78115
:10552000BD01992777FD9095892F828193810E94F3
:105530008219D3011C9240C012160CF43DC0D40154
:105540001B964D915C911C974496880F991FFA0108
:10555000E80FF91F259134910897FA01E80FF91F18
:1055600045915491F40184819581A681B781BD0153
:10557000992777FD9095892F01E0828193810E9480
:105580008E171AC04096880F991FD4011B96ED9173
:10559000FC911C97E80FF91F45915491F401848107
:1055A0009581A681B781BD01992777FD9095892FB7
:1055B000828193810E948219F4018289938918164D
:1055C00019060CF0C6CA923081F0933011F0913078
:1055D00029F5D4011B968D919C911C97FC01B896DE
:1055E00025913491FC01B09608C083859485FC0117
:1055F000BA9625913491FC01B29645915491F401EB
:1056000084819581A681B781BD01992777FD909509
:10561000892F01E0828193810E948E17D4015296D6
:105620008D919C9153978054914053969C938E9367
:1056300052978FCAF4014385548590E00896880FED
:10564000991FFA01E80FF91F259134914097FA014B
:10565000E80FF91F45915491F40184819581A68149
:10566000B781BD016D5F7F4F80819181A281B38140
:1056700001E0CD0148960E948E1728CF209169063F
:1056800030916A064091670650916806C0905E06A8
:10569000D0905F06E0906006F09061066701FF24FD
:1056A000D7FCF094EF2C01E0B6010E948E179BCA44
:1056B0000C9790932F0780932E07292F892F990FEE
:1056C000990B121614F4019702C0809590952E3F05
:1056D0007CF42C3F0CF038C0263F09F457C02B3F18
:1056E00009F0AACAE0913007F0913107B69638C0A8
:1056F0002F3F11F00CF0A0CA4091300750913107B4
:1057000099274496880F991FFA01E80FF91F2591F0
:1057100034910897FA01E80FF91F4591549180914F
:10572000290790912A07A0912B07B0912C07BD0162
:10573000992777FD9095892F01E080912707909117
:1057400028070E948E1778CA9927FC017096CF010E
:10575000880F991FE0913007F0913107E80FF91F8A
:10576000459154918091290790912A07A0912B0788
:10577000B0912C07BD01992777FD9095892F8091D5
:105780002707909128070E94821956CA10922D0768
:1057900053CA80912E0790912F07181619060CF402
:1057A0005AC052CAC80160913907462F469546959E
:1057B0004695433019F4C801079609C0443008F0F3
:1057C0003CC04130C1F3423011F4C8010E9650E0A4
:1057D0009A01215031092730310518F46F5F609329
:1057E000390720913907203411F41092390760915C
:1057F000300770913107485F5F4F440F551FFB0121
:10580000E40FF51F2591349140515109FB01E40F3C
:10581000F51F45915491C0902907D0902A07E09038
:105820002B07F0902C076701FF24D7FCF094EF2C96
:1058300001E0B6010E948E17F7C9463019F4C8017D
:105840000297C5CF473019F4C8010197C0CF453042
:1058500009F0BDCFF9CF2C50310930933807209390
:1058600037074091250750912607609127077091CF
:105870002807AB01772757FD7095672F932F97FD6A
:105880009195C92ED12C81E1C816D10408F0DCC94C
:10589000F601E259FF4F0C94513616E003C01BE0AD
:1058A00001C01EE0140F99E031E016C014E1140F9E
:1058B0009EE036E011C05527431B12E1140F34E17E
:1058C000390F985E09C014E1140F38E0390F945F66
:1058D00003C010922D07B8C94091300720913107BD
:1058E000E42FF22FE90FF11DE90FF11DA591B491FD
:1058F000E42FF22FE30FF11DE30FF11D45915491B9
:10590000C0902907D0902A07E0902B07F0902C0731
:10591000B701992777FD9095892F01E09D01812F8F
:1059200090E00E948E1790C9409132075091330742
:105930002091340730913507240F351F30933507F8
:10594000209334078F5F8093D60188E290E0909394
:10595000D4018093D30188E898E00E94F41100E01C
:1059600010E00E940F1A8091290790912A07A091B8
:105970002B07B0912C07BD01992777FD9095892FB2
:10598000C0902507D0902607E0902707F0902807C1
:1059900048E45EE1C8018E0D9F1D0E9482190E949D
:1059A00086138FE397E00E9445126AE070E080E082
:1059B00090E00E9410110F5F1F4F0038110589F60B
:1059C00085E08093D70182C98091290790912A07A9
:1059D000A0912B07B0912C078D3C3CEC9307A105BF
:1059E000B10514F40C94D2238C5C9C4CA109B10930
:1059F0008093290790932A07A0932B07B0932C0735
:105A00000C94D2238091290790912A07A0912B070B
:105A1000B0912C0700974FE2A407B10514F00C9445
:105A2000D82384539343AF4FBF4F8093290790935C
:105A30002A07A0932B07B0932C070C94D8238091AE
:105A4000250790912607A0912707B0912807873650
:105A500056EE9507A105B10514F40C94DE23865685
:105A6000964EA109B1098093250790932607A0932C
:105A70002707B09328070C94DE2380912507909187
:105A80002607A0912707B09128070097E8E6AE0700
:105A9000B10514F00C94E4232091370730913807B6
:105AA0001216130634F4215031093093380720932D
:105AB000370784539343AF4FBF4F8093250790938D
:105AC0002607A0932707B09328070C94E42380911E
:105AD0003607882311F40C94EA238091CC018111BC
