:100000000C94780A0C94A00A0C94A00A0C94A00AF0
:100010000C94A00A0C94A00A0C94A00A0C94A00AB8
:100020000C94A00A0C94A00A0C94F01C0C94621D71
:100030000C94A00A0C94A00A0C94A00A0C94A00A98
:100040000C94A00A0C94810E0C94A00A0C94A00AA3
:100050000C94A00A0C94A00A0C94A00A0C94940D81
:100060000C94A00A0C94A00A0C94A00A0C94A00A68
:100070000C94A00A0C94A00A0C94A00A0C94A00A58
:100080000C941F0F0C94A00A0C94A00A0C94A00AC4
:100090000C94A00A0C94A00A0C94A00A0C94A00A38
:1000A0000C94A00A0C94A00A0C94A00A4E0C510CBB
:1000B000400C440C480C720C720C720C550C590C10
:1000C0005D0C630C670C720C6D0CE90CEE0CF30C00
:1000D000FD0C070D510D510D510D110D1B0D250D71
:1000E0002F0D3C0D510D440DF0F89C8E8783878EAB
:1000F0009CF8F00000FEFF0303030303070EFCF867
:100100000000FEFF0303030303070EFCF80000FFDB
:10011000FF00000000000000FFFF0000FEFF8383DF
:10012000838383C7EE7C380000F8FC0E07030303CB
:10013000070EFCF800003F7FE0C08080C0E07F3FFA
:10014000FFFF01010101010101FFFF0000FFFF0CA2
:100150000C0C0C1C3E77E3C100007FFFC0C0C0C088
:10016000C0E0703F1F00001F3F70E0C0C0C0E070E3
:100170003F1F00007FFFC1C1C1C1C1E3773E1C002A
:10018000001F3F70E0C0C0C0E0703F1F00000000D3
:100190000001FFFF01000000000000002400270014
:1001A0002A002D003000D5F08D14A1C881CFD9F1DF
:1001B000AF20001402130212021502070208020403
:1001C000010C0106010000FE02FAFAFAFAFAFA7AC4
:1001D0001ADA1A7ABA5ABAFAFAFA3A1A9A1A3AFA9F
:1001E0001A1A7A7AFAFA1ADADADA9A5ADADA5A5AEF
:1001F0001A5ADADADABABA9ADADABA7AFAFAFAFA1F
:10020000FA02FE0000FF00FFFFE3EB49BE6F59DF7B
:100210005F79BEC9EBE3FFFF10D03CF070BF70F018
:1002200072F078FF70B777F21BFB76B571F535B7D2
:1002300076F573B777F53379B7F7F6F5F3F7FF008F
:10024000FF0000FF00FFFFFFFEFDFEFFFCFDFCFFC7
:10025000FFFFFFFFFFFF04D5EEFF1EDCFD9F2E5DBD
:10026000FE9F7E9CFD17FC9F2E5DFE9F78BD7E9FAE
:10027000FEFCFD77047FFFFFFFFFFFFFFF00FF0095
:1002800000FF00FFFBFBFB3BDB2BABABDB3BFBFBDC
:10029000FBDBEB1BFB1BEB1BFBDB0BFBFB1B6BDB2E
:1002A000FBFBFBFB1B6BDBFB1BFB1BFB3BDB3BFB8E
:1002B0001BDB3BFB1BFB1BFBFBFBFF00FF0000FFF3
:1002C00000FF5F5F1FFE1DDA1AFABDFEBF1FFFF9B8
:1002D0001A7B1FFCFBFCFF5B581BFF1CDB1CFFBFDA
:1002E0001FFFF81F5F5FFCFB1CDF1CFB1C5F58FE41
:1002F000FF5F5D1AFC5F5F1FFF00FF00001F10170C
:100300001415151714151417161715141517171794
:100310001417171717141515171415141715141586
:100320001714151417171415141714151417171478
:1003300015151715151417101F00F8FEFEFFFFFF07
:10034000FFFFFFFFFFFFFFFFFFFFFFFFFFFFFFFFBD
:10035000FFFFFFFEFEF80003030707070707070775
:100360000707070707070707070707070707070321
:100370000300FF01FDFDFD1DDDDDDDDD1D1D1D9DFE
:100380009D1D1D1D1D1DFDFDFDFDFDFDFDFDFD7DDD
:10039000BDBDBDFDFD7D7D7DFD7DFDFD7DFDFD7D4D
:1003A0007DFDFDFDFDFD7D7DFDFDFDFDFD3DFDFDBD
:1003B000BDFDFD3DFDFDFD7D7D7DFDFDFD7D7D7D6D
:1003C000FD7DFD7DFDFDFDFDFD3DFDFDFDFDFDFD1D
:1003D00001FFFF00FFFFFF00FFFCDF1F205E412247
:1003E00020110E000000FFFFFFFFFFFFFFFFFFF7E0
:1003F000F6F6F9FFF8F7FBF0FFF8F7FBFCFFF8F56E
:10040000F5F6FFFFFFF8F5F5F6FFF9F6F6F8F7FF5A
:10041000F0FFFEF0FEFFF6F5F5FBFFFFF8F7FBF04F
:10042000FFF0FEFFF0FFF9767678F7FFFFFFFFFFA2
:1004300000FFFF00FFFFFFF0F7F7F5F0F0F0F0F03E
:10044000F0F0F0F0F0F0FFFFFFFFFFFFFFFFFFE035
:10045000FDFEFEFFF0EFEFF0EFFFE0FDFEE1FFFF3E
:10046000FF80EEEEF1FFE0FDFEFEFFF1EEEEF1FFAC
:10047000B1AEAEC1FFE0FDFEFFF1EEF6E0FFE0FD44
:10048000FEE1FDFEE1FFFEFFE9FDFCFFFFFFFFFFD8
:1004900000FFFF00FFFFFFFFFF7F7FBFBFBFBFBFAA
:1004A000BFBFBFBFBFBFBFBFBFBFBFBFBFBFBFBF5C
:1004B000BF7F7FFFFFFFFFFFFFFFFFFFFFFFFFFF8C
:1004C000FFFFFFFFFFFFFFFFFFFFFFFFFFFF7F3F7C
:1004D0009F9F4F4F4F4F4F4F4F4F4F4F4F4F4F4F8C
:1004E0004F4F4F4F4F4F4F4F9F9F3F7FFFFFFFFF9C
:1004F00000FFFF00FFFFFFFFC13E7FE3DDDDFFE701
:10050000D7C7FFC7F7CFFFEFD7D7FFE7CBD7FFC1DD
:10051000FF7F3EC1FFFFFFFFFFFFFFFFFFFFFFFF6A
:10052000FFFFFFFFFFFFFFFFFFFFFFFFFFC1003ED9
:10053000C1BE7F7F7F7F7F7F635D637F4177497F20
:100540007F7F7F7F7F7F7F7FBEC13E00C1FFFFFF38
:1005500000FFFF80BFBFBFBFBFBFBFBEBEBEBEBE2E
:10056000BEBEBEBEBEBEBEBEBEBEBEBEBEBEBEBEAB
:10057000BEBFBFBFBFBFBFBFBFBFBFBFBFBFBFBF8C
:10058000BFBFBFBFBFBFBFBFBFBFBFBFBFBFBFBE7C
:10059000BCBCB9B9B9B9B9B9B9B9B9B9B9B9B9B9C5
:1005A000B9B9B9B9B9B9B9B9BCBCBEBFBFBFBFBF92
:1005B00080FF0040004000400000004E1F5F1F4EC3
:1005C0000000004E1151114E00000044085F084425
:1005D000000000440E5504440000004404550E443D
:1005E00000000044025F0244000055AA55AA55AA23
:1005F00055AAFCFEFFFFFFD7E3C9E3F5FFFFFFFFAE
:10060000FFFFFFC1D5DDFFCFD7C1FFC5FFFBC1FB9A
:10061000FFFFFFFFC1F5C9FFE3DFC3FFC3FBC7FF58
:10062000FFFFFFFFFFFFFFFFFFFFFFFFFFFFFFFFDA
:10063000FFFFFFFFFFFFFFFFFFFFFFFFFFFFFFFFCA
:10064000FFFFFFFFFFFFFFFFFFFFFFFFFFFFFFFFBA
:10065000FFFFFFFFFFFFFFFFFFFFFFFFFFFFFFFFAA
:10066000FFFFFFFFFFFFFFFFFFFFFFFFFFFFFFFF9A
:10067000FEFC1F011E000C120C000E110E001E0AC3
:100680000C0000000000000000000000000000005E
:1006900000000000000000001F05011A001F001FDD
:1006A0000016150D001C14001C0804000C1A140080
:1006B0000C1A14001C0418000000000000001F1198
:1006C0000E001C0804000C141C001C181C001F0544
:1006D00006001A00140814000C1A14001F00000071
:1006E000000000000E111D000C1A1400021F020071
:1006F0001F0506001A00140814000C1A14001F002D
:10070000000000000000000000001F0506001F00A0
:100710000C141C0012140E00011F010C120C001E00
:10072000021C000C1A140000000000000000000071
:100730001F181F000C141C001D021F02001F0519AA
:1007400014081E0402001F051D08040C141C001CC4
:100750000C1C000C1A1416150D001F041A001A00A8
:100760001E0A0C00111F11041E05001F110E000CA3
:10077000120C000E100C100E001E021C16150D009F
:100780001F041A001A001E0A0C00111F11041E0576
:10079000001F100F001E0A0C0000000000000000E7
:1007A0000000110F01000E101E001E0C1C001E0A7E
:1007B0000C00011F010C120C0000000000000000E2
:1007C0000000000000000000110F01000E101E00CC
:1007D0001E0C1C001E0A0C0000071807001A000C53
:1007E000141C0000000000000000000000001F01B9
:1007F0001E000C120C000E110E001E0A0C00000050
:1008000000000000000000000000000000000000E8
:10081000000000001F011E000C120C000E110E0043
:100820001E0A0C0000000000000000000000000094
:10083000000000000000000000001F0506001E046C
:1008400002001D001E021C00021F0200000000002A
:100850000000000000000000000000000000000098
:100860000F100F1E0A0C18141F0C141C041F040C6C
:100870001A14001F110E1D00161A001E0A0C1F0C60
:10088000141C0012140E1F011E000C120C000E117D
:100890000E001E0A0C000000000000000000000016
:1008A0000000000000000000000000001F15110003
:1008B000140814001D00021F0200000000000000C8
:1008C0000000000000000000000000000000000028
:1008D0000000161509000C1A1600021F0200000085
:1008E0000000000000000000000000000003000005
:1008F0000000000000000003161509000C1A160085
:10090000021F0200000000000000000000000000C4
:1009100000000003000000000000000000031E05AE
:100920001E0018141F0018141F000000011F010CE6
:10093000120C000000000000000300000000000096
:10094000000000031E051E0018141F0018141F00CD
:100950000000011F010C120C000000000000000349
:100960000000000000000000000316150D0E101E10
:10097000001F1418021F021E04021000011F010CA8
:10098000120C000000030000000000000000000343
:1009900016150D0E101E001F1418021F021E040251
:1009A0001000011F010C120C0000000300000000E9
:1009B0000000000000031F031F000E101E001F0098
:1009C000021F021D001E0A0C1F12141E011F0D1211
:1009D0000C03000000000000000000031F031F00C4
:1009E0000E101E001F00021F021D001E0A0C1F1207
:1009F000141E011F0D120C03000000000000000077
:100A000000031F110E001D000C100C001D00181417
:100A10001F000C1A14011F010C120C00000300002F
:100A200000000000000000031F031F081408181432
:100A30001F0C101C001F000C101C081408011F01C3
:100A40000C120C030000000000000000000316154B
:100A50000D001F041A001D001E0A0C0000000000FB
:100A60000A1A0E0B0A00000000030000000000003C
:100A70000000000316150D001F041A001D001E0AB9
:100A80000C00000000000A1A0E0B0A000000000310
:100A90000000000000000000000316150D001F04F8
:100AA0001A001D001E0A0C00000000000A0A0A0AB3
:100AB0000A00000000030000000000000000000326
:100AC00016150D001F041A001D001E0A0C00000060
:100AD000000000040A1100000000000300000000F4
:100AE00000000000000316150D001F041A001D0071
:100AF0001E0A0C000000000000110A0400000000A3
:100B000000030000000000000000000316150D00A7
:100B10001F041A001D001E0A0C00000000000A0A33
:100B20000A0A0A00000000030000000000000000A4
:100B300000031C0804001E110F001C080400121FF3
:100B400010001C080400121916001C0804001115DE
:100B50001F001C08040007041F001C0804001713D2
:100B60000D001C0804000E1509001C0804001905DE
:100B700003001E110F121F1012191711151B060466
:100B80001F17130D0E151D1905031A150B12150E3F
:100B9000000A0000100000170018040309041201E5
:100BA00015070004001E051E1F150A0E11111F1146
:100BB0000E1F15111F05010E111D1F041F111F11FE
:100BC000110F011F041B1F10101F071F1F011E0EF6
:100BD000110E1F05060F09171F051B16150D011F06
:100BE000011F100F0718071F181F1B041B031C03EE
:100BF00019151300000000003E5B4F5B3E3E6B4F3B
:100C00006B3E1C3E7C3E1C183C7E3C181C577D579E
:100C10001C1C5E7F5E1C00183C1800FFE7C3E7FF4A
:100C20000018241800FFE7DBE7FF30483A060E26DD
:100C300029792926407F050507407F05253F5A3C35
:100C4000E73C5A7F3E1C1C08081C1C3E7F14227F78
:100C500022145F5F005F5F06097F017F0066899550
:100C60006A606060606094A2FFA29408047E040839
:100C700010207E201008082A1C08081C2A08081EBC
:100C8000101010100C1E0C1E0C30383E3830060EA2
:100C90003E0E06000000000000005F00000007009C
:100CA0000700147F147F14242A7F2A122313086458
:100CB0006236495620500008070300001C224100FC
:100CC0000041221C002A1C7F1C2A08083E0808003C
:100CD00080703000080808080800006060002010DC
:100CE0000804023E5149453E00427F400072494996
:100CF00049462141494D331814127F102745454577
:100D0000393C4A4949314121110907364949493697
:100D1000464949291E00001400000040340000002C
:100D2000081422411414141414004122140802015E
:100D30005909063E415D594E7C1211127C7F49498A
:100D400049363E414141227F4141413E7F49494927
:100D5000417F090909013E414151737F0808087F1D
:100D600000417F41002040413F017F081422417F24
:100D7000404040407F021C027F7F0408107F3E41BC
:100D800041413E7F090909063E4151215E7F091913
:100D90002946264949493203017F01033F4040402B
:100DA0003F1F2040201F3F4038403F63140814631A
:100DB00003047804036159494D43007F41414102D6
:100DC00004081020004141417F0402010204404018
:100DD000404040000307080020545478407F2844D6
:100DE00044383844444428384444287F38545454C0
:100DF0001800087E090218A4A49C787F08040478CF
:100E000000447D40002040403D007F102844000009
:100E1000417F40007C047804787C080404783844DE
:100E2000444438FC1824241818242418FC7C080492
:100E30000408485454542404043F44243C404020B3
:100E40007C1C2040201C3C4030403C44281028445E
:100E50004C9090907C4464544C440008364100000F
:100E600000770000004136080002010204023C261F
:100E700023263C1EA1A161123A4040207A385454E6
:100E8000555921555579412154547841215554786B
:100E90004020545579400C1E5272123955555559FF
:100EA000395454545939555454580000457C410024
:100EB00002457D420001457C40F0292429F0F028BC
:100EC0002528F07C545545002054547C547C0A0954
:100ED0007F4932494949323248484832324A4848C3
:100EE000303A4141217A3A42402078009DA0A07DCD
:100EF00039444444393D4040403D3C24FF2424488B
:100F00007E4943662B2FFC2F2BFF0929F620C08832
:100F10007E090320545479410000447D4130484803
:100F20004A32384040227A007A0A0A727D0D19311D
:100F30007D2629292F28262929292630484D402079
:100F4000380808080808080808382F10C8ACBA2F55
:100F5000102834FA00007B000008142A14222214FE
:100F60002A14089500220095AA005500AAAA55AA9D
:100F700055AA000000FF00101010FF00141414FF09
:100F8000001010FF00FF1010F010F0141414FC00FB
:100F90001414F700FF0000FF00FF1414F404FC1405
:100FA0001417101F10101F101F1414141F001010FE
:100FB00010F0000000001F101010101F1010101073
:100FC000F010000000FF101010101010101010FF93
:100FD00010000000FF140000FF00FF00001F1017AA
:100FE0000000FC04F414141710171414F404F40093
:100FF00000FF00F714141414141414F700F7141459
:1010000014171410101F101F141414F4141010F0DF
:1010100010F000001F101F0000001F14000000FC53
:10102000140000F010F01010FF10FF141414FF143F
:101030001010101F00000000F010FFFFFFFFFFF076
:10104000F0F0F0F0FFFFFF0000000000FFFF0F0FC7
:101050000F0F0F38444438447C2A2A3E147E020283
:101060000606027E027E0263554941633844443CD1
:1010700004407E201E2006027E020299A5E7A59963
:101080001C2A492A1C4C7201724C304A4D4D30309A
:1010900048784830BC625A463D3E494949007E0185
:1010A00001017E2A2A2A2A2A44445F444440514AA4
:1010B000444040444A51400000FF0103E080FF00EB
:1010C0000008086B6B083612362436060F090F0627
:1010D000000018180000001010003040FF0101004F
:1010E0001F01011E00191D1712003C3C3C3C000072
:1010F00000000006011501260137014A015D017259
:101100000188019F01B801D201EE010B022A024BB6
:10111000026E029302BA02E40210033F037003A4BA
:1011200003DC03170455049704DD0427057505C87F
:101130000520067D06E0064907B8072D08A9082DF9
:1011400009B9094D0AEA0A900B400CFA0CC00D913E
:101150000E6F0F5A1053115B1272139A14D415208C
:10116000178018F519801B231DDE1EB420A622B59A
:1011700024E4263429A72B402E0031EA33003745DA
:101180003ABC3D68414C456B49C84D68524F578049
:101190005C006210111213151617181A1C1D1F215E
:1011A000232527292C2E3134373A3E4145494E52CA
:1011B000575C62686E757B838B939CA5AFB9C4D076
:1011C000DCE9F70000000200090F00000304010041
:1011D0000C00000000000000000000000000000003
:1011E0000000FFFFFFFFFFDBD5EDFFE7DBC3FFE301
:1011F000DFE3FFE7CBD7FFFFFFF9FFC3FBC7FFF933
:10120000FFFFFFC1F5CBFFE3DFE3FFC3FBC7FFFF3A
:10121000FFFFFFFFFFFFFFFFFFFFFFFFFFFFFFFFDE
:10122000FFFFFFFFFFFFFFFF607AE5FFF1EFF1FF38
:10123000E1FDE3FFFFFFFFFFFFFFFFFFFF7F7FFFFA
:10124000FFFFFFFFFFFFFFFFFFFFFF7FFFFFFFFF2E
:10125000FFFFFFFFFFFF7FFFFFFFFF3FFFFFFFFFDE
:10126000FFFFFFFFFFFFFFFFFF30BD72F8F778F0D1
:10127000FE717F7FF073F07BFD7E7976F9FF70F56C
:10128000FAF1FBFDF9F2F5FFF9F6F0FFF0FDF2FFE0
:10129000F0FAF9F9F6F9FFF1F0FEF1FEF0FEF4F4E0
:1012A000F2FFFFFFFF07070707070006010704011A
:1012B00002070202010700030407000600070401F9
:1012C00002070707070707070707070707070707B3
:1012D000070707070707070707070707070707079E
:1012E000070707070707FFFFFFFFFFDDC1DDC3FBA0
:1012F000C7FFD3D3CBFFE7CBD7FFC3F7FBFBC1FBC4
:10130000FFFFFFFFFFFFFFFFFFFFFFFFFFFFFFFFED
:10131000FFFFFFFFFFFFFFFFFFFFFFFFFFFFFFFFDD
:10132000FFFFFFFFFFFFFFFFFFFFFFFFFFFFFF6E5E
:1013300060EEE1FDE3FFE969E5FFF3E5EBFF61FB4B
:10134000FDFDE0FDFFFBF1FBFFE0FDFBFDE0F3ED4C
:10135000F3F1EFF1F3E5EBFFEFF2FFF1EFF1FFE176
:10136000FDE3FDE1FFE1F5F9FFE9E9E5FFFFFFFF3F
:10137000FFFFFF30B778FFF972F5FF30FFF972F524
:10138000FF7E307EFFF972F5FFFF7FFFFF3F7FFF9B
:101390007F3FFF7FFF7FFF7FFF7FFFFFFFBFFF7F5D
:1013A000FF7FFF7F7FFF7F7FFF7F7F7F7F7F7FFFCD
:1013B000FFFF0707070707000304070401020700F0
:1013C00007040102070700070704010207060406D5
:1013D00007000706070004030404030404010207CE
:1013E00003040704030407000700070007000506BD
:1013F0000202010707073F3F3F3F3F0335033F011D
:10140000170F271B27231F233B013B3F3F033503B8
:101410003F01172F3F0335033F13130B3F073B07D4
:101420003B073F1F3F1F3F1F3F3F3F040802011084
:10143000408040102040804080080204018040200D
:101440001002011080102040402000000000250004
:1014500028002B002E0031000404040404030405BA
:101460000202020204030202020206060606060641
:10147000040402020204040301080B000202020138
:10148000000904000001020200000524001001050B
:101490002401010104240206052406000107058138
:1014A0000310004009040100020A000000070502C1
:1014B00002400000070583024000000403090412F3
:1014C000010002EF020140412336800001010203C6
:1014D0000141726475696E6F204C4C430041726427
:1014E00075696E6F204C656F6E6172646F00ED26DA
:1014F00011241FBECFEFDAE0DEBFCDBF12E0A0E0C7
:10150000B1E0E4E5FFE402C005900D92AA38B1070E
:10151000D9F727E0AAE8B2E001C01D92AE3CB207BD
:10152000E1F71AE0C8E7DAE004C02197FE010E9463
:101530009D27C737D107C9F70E94921F0C94A8278F
:101540000C940000CF92DF92EF92FF920F931F93C3
:10155000CF93DF936C017A018B01C0E0D0E0CE1510
:10156000DF0589F0D8016D918D01D601ED91FC91D7
:101570000190F081E02DC6010995892B11F47E01BF
:1015800002C02196ECCFC701DF91CF911F910F913F
:10159000FF90EF90DF90CF9008953FB7F89480913F
:1015A000AA029091AB02A091AC02B091AD0226B517
:1015B000A89B05C02F3F19F00196A11DB11D3FBF8B
:1015C000BA2FA92F982F8827820F911DA11DB11D19
:1015D000BC01CD0142E0660F771F881F991F4A9515
:1015E000D1F708956038710518F54034510500F5BC
:1015F000A42FA695A695A695B0E047705527B69559
:10160000BA2FAA27B795A7956A0F7B1FFC01E60F93
:10161000F71F81E090E001C0880F4A95EAF7222386
:1016200019F09489892B03C0809594898923848B30
:1016300008952F923F924F925F926F927F928F9276
:101640009F92AF92BF92CF92DF92EF92FF920F9351
:101650001F93CF93DF93CDB7DEB72A970FB6F894D9
:10166000DEBF0FBECDBF6A3091F4FC01E85EFB4FD8
:10167000408132972081318158E0459F200D311DF6
:10168000112431832083329711821082C1C06D30C2
:1016900009F4BEC09A878987885E9B4F9C838B83A1
:1016A000DC012C90E985FA85EA5EFB4F6080718051
:1016B000E985FA85EC5EFB4FFA83E98300811181AD
:1016C00000381105D4F0AB81BC812C91422F50E041
:1016D000E981FA8180819181F6E02F9F800D911D33
:1016E0001124A981BA818D939C93E985FA85E75EDF
:1016F000FB4F208121115EC08BC0B0E46B167104DA
:1017000014F7C801E5E02E9E800D911D11241816D6
:101710001906CCF6422C512CC301F8E02F9E800D07
:10172000911D11241816190674F655E0659F900155
:1017300011243F832E83E12CF12C85E0E816F1047F
:1017400041F0EE81FF81EE0DFF1DED50F44F34901E
:1017500001C0312C630138E0932D91709D834801C5
:10176000882D801B8215B0F456018A2D8C198215A4
:1017700068F42D81A501B40189859A8538870E9476
:10178000F20AAFEFAA1ABA0A3885EFCFBFEF8B1A69
:101790009B0AE6CF36943150C40CD51C3111DCCFF6
:1017A000EFEFEE1AFE0A040D151DF6E0EF16F10438
:1017B00021F689CF6AEF64039001659F300D1124F3
:1017C00020583F4F281739071CF5A985BA85ED9198
:1017D000FC9111970190F081E02D6AE0CD012A96ED
:1017E0000FB6F894DEBF0FBECDBFDF91CF911F9132
:1017F0000F91FF90EF90DF90CF90BF90AF909F90B0
:101800008F907F906F905F904F903F902F900994B2
:101810002A960FB6F894DEBF0FBECDBFDF91CF91F1
:101820001F910F91FF90EF90DF90CF90BF90AF90FE
:101830009F908F907F906F905F904F903F902F90F0
:1018400008950E94A327362F90E0FC01ED53FE4E31
:101850004491FC01E55DFB4E2491FC01E85AFB4EEE
:101860008491882309F451C04423E1F150E0FA0146
:101870003197EF30F105B0F5EA5AFF4F0C949D27F0
:10188000909180009F7707C0909180009F7D03C05A
:1018900090918000977F9093800024C094B59F77AB
:1018A00002C094B59F7D94BD1DC0909190009F771C
:1018B00007C0909190009F7D03C090919000977F0A
:1018C000909390000FC09091C0009F7703C09091BB
:1018D000C0009F7D9093C00005C09091C200977F8B
:1018E0009093C200E82FF0E0EE0FFF1FE65BFB4E87
:1018F000A591B4918FB7F894EC91311103C0209564
:101900002E2301C02E2B2C938FBF0895CF93DF93EE
:1019100090E0FC01E55DFB4E2491FC01E85AFB4E92
:101920008491882361F190E0880F991FFC01E856AB
:10193000FE4FC591D491FC01E65BFB4EA591B4919D
:10194000611109C09FB7F89488812095822388830C
:10195000EC912E230BC0623061F49FB7F89438816C
:10196000822F809583238883EC912E2B2C939FBF0D
:1019700006C08FB7F894E8812E2B28838FBFDF91A4
:10198000CF9108951F93CF93DF93182FEB0161E060
:101990000E94860C209711F460E004C0CF3FD1056F
:1019A00039F461E0812FDF91CF911F910C94230CCA
:1019B000E12FF0E0ED53FE4EE4914E2F50E0FA019E
:1019C0003197EF30F10508F06CC0EB59FF4F0C94E4
:1019D0009D2784B5806884BDC7BD68C084B580621A
:1019E00084BDC8BD63C08091800080688093800002
:1019F000D0938900C093880059C080918000806294
:101A000080938000D0938B00C0938A004FC0809158
:101A10008000886080938000D0938D00C0938C00FC
:101A200045C080919000806880939000D093990089
:101A3000C09398003BC0809190008062809390009A
:101A4000D0939B00C0939A0031C080919000886031
:101A500080939000D0939D00C0939C0027C08091FC
:101A6000C00080688093C0008091C0008F7B80930D
:101A7000C000C093CF001AC08091C00080628093E4
:101A8000C000C093D00012C08091C20088608093D3
:101A9000C2008091C2008B7F8093C200C093D200AD
:101AA00005C0C038D1050CF07CCF76CFDF91CF9147
:101AB0001F9108958F929F92AF92BF92CF92DF9223
:101AC000EF92FF926B017C010E94CD0A4B015C01F9
:101AD000C114D104E104F104F1F00E94CD0ADC014B
:101AE000CB0188199909AA09BB09883E9340A10531
:101AF000B10570F321E0C21AD108E108F10888EEBF
:101B0000880E83E0981EA11CB11CC114D104E1040D
:101B1000F10419F7DDCFFF90EF90DF90CF90BF90E9
:101B2000AF909F908F9008951F920F920FB60F92D3
:101B300011242F933F938F939F93AF93BF938091E3
:101B40004C0390914D03A0914E03B0914F033091FF
:101B5000A90223E0230F2D3720F40196A11DB11D0A
:101B600005C026E8230F0296A11DB11D2093A902EE
:101B700080934C0390934D03A0934E03B0934F0377
:101B80008091AA029091AB02A091AC02B091AD02FB
:101B90000196A11DB11D8093AA029093AB02A09360
:101BA000AC02B093AD02BF91AF919F918F913F91E5
:101BB0002F910F900FBE0F901F9018958FB12CB1E1
:101BC00093B130E02095309520743327A90123E0AC
:101BD000559547952A95E1F7292F30E020953095C6
:101BE000207133273595279535952795242B80959A
:101BF000807F822B0895FC0121912EBD9C5F219155
:101C00000DB407FEFDCF2EBDE817F907C1F70DB4DF
:101C100007FEFDCF0895CF92DF92EF92FF920F93D0
:101C20001F93CF93E82FF0E0E958FB4EC491E62FC5
:101C3000F0E0603330F4ED56FE4EE4910E2F10E0EC
:101C400006C0EE0FFF1FED56FF4E0591149168017F
:101C5000E12CF12C60E074E284EF90E0A7019601A2
:101C60000E943627BA01A901415051096109710941
:101C70004115510581E06807710580F060E970ED5C
:101C800083E090E0A70196010E943627BA01A901DE
:101C9000415051096109710983E001C081E0C130FF
:101CA000C9F0C33031F590919100987F892B8093D2
:101CB000910050939900409398001093A8020093CC
:101CC000A70281E08093A6028091710082608093D8
:101CD00071000FC090918100987F892B80938100C3
:101CE000509389004093880080916F0082608093B8
:101CF0006F00CF911F910F91FF90EF90DF90CF90E9
:101D000008951F920F920FB60F9211242F933F93B5
:101D10008F939F93AF93BF93EF93FF93809144036F
:101D2000882309F44DC08091400390914103A09114
:101D30004203B0914303892B8A2B8B2B51F1809165
:101D40004803E0914903F0914A03908189278083F9
:101D50008091400390914103A0914203B0914303CD
:101D6000181619061A061B06A4F5809140039091D7
:101D70004103A0914203B09143030197A109B10926
:101D80008093400390934103A0934203B093430395
:101D900020C01092440380916F008D7F80936F006C
:101DA00090914803E0914903F0914A038081282FE4
:101DB00030E0892F90E0809590958223932308C08E
:101DC00080914803E0914903F0914A03908189276B
:101DD0008083FF91EF91BF91AF919F918F913F9140
:101DE0002F910F900FBE0F901F901895E82FF0E0E5
:101DF000E958FB4EE491E13019F0E33069F00895C1
:101E000080916F008D7F80936F0090914803E091E7
:101E10004903F0914A0308C01092A602909145032D
:101E2000E0914603F09147038081282F30E0892F0D
:101E300090E08095909582239323808308951F924C
:101E40000F920FB60F9211242F933F934F935F93EE
:101E50006F937F938F939F93AF93BF93EF93FF9372
:101E60008091A602882349F080914503E0914603C2
:101E7000F091470390818927808380918A0288238B
:101E800009F493C08091A2029091A302A091A402B0
:101E9000B091A502892B8A2B8B2B09F486C08091E7
:101EA000A2029091A302A091A402B091A502019771
:101EB000A109B1098093A2029093A302A093A40266
:101EC000B093A502892B8A2B8B2B09F06EC0E09171
:101ED000A002F091A102BF016F5F7F4F7093A1023A
:101EE0006093A0024491942F907F842F8F7090383C
:101EF00019F40E94F60EEBCF903981F43296F093EC
:101F0000A102E093A002FB01649190914B03891719
:101F1000F0F667FDDCCF0E940B0ED9CF903E29F47E
:101F20001092A1021092A002D2CF903F19F4109209
:101F30008A023BC097FDCBCF3296F093A102E0938B
:101F4000A002FB01249130E0342BA091A702B091B4
:101F5000A8020E9482276C507E4F8F4F9F4F28EE21
:101F600033E040E050E00E9460272093A2023093CB
:101F7000A3024093A4025093A5028091A2029091E3
:101F8000A302A091A402B091A502892B8A2B8B2BCE
:101F900061F481E090E0A0E0B0E08093A202909331
:101FA000A302A093A402B093A502FF91EF91BF9169
:101FB000AF919F918F917F916F915F914F913F91E1
:101FC0002F910F900FBE0F901F9018952F923F9258
:101FD0004F925F926F927F928F929F92AF92BF9239
:101FE000CF92DF92EF92FF920F931F93CF93DF93E5
:101FF000CDB7DEB72A970FB6F894DEBF0FBECDBFC0
:102000009E838D83202E312CCB01820D931D97FD55
:1020100031C1603871050CF02DC1CA018E0D911DC2
:1020200097FD28C1403451050CF024C1DA0157FF57
:1020300004C0AA27BB27A41BB50BA770BB27CA01E6
:1020400057FD079613E0959587951A95E1F757FF89
:1020500007C0019748E050E05A01AA1ABB0AD5010F
:10206000EE2DE695E695E695AE2EB12C4E2D4770F9
:1020700019F00FEFA01AB00AAC015695542F44275F
:1020800057954795460F571F8501080F191F1C8349
:102090000B83412C512CF8E0EF2EF12C5701AA1A9A
:1020A000BB0ABA82A982AB80BC808A159B0509F461
:1020B000E1C08830910509F4DDC08F3F0FEF900734
:1020C0000CF4CEC03A0110E8610E711C8A010C5666
:1020D0001F4FAD80BE80A00EB11EB886AF824B01EF
:1020E00000E010E0021513050CF0BAC0E0E88E160F
:1020F000910409F4B5C097FCA8C08F3FFFEF9F077C
:1021000009F4B4C0F801E40DF51DEF80F884E61879
:10211000F708AA24A394E20FF31FCA1013C0E49196
:10212000E40EF51EF0E05F010A2E02C0AA0CBB1CF3
:102130000A94E2F7BA86A986F701B080E985FA85A4
:10214000EB292BC0C11017C0E491E40EF51EF0E09E
:102150000A2E02C0EE0FFF1F0A94E2F75F01A0945F
:10216000B094BA86A986F701A080B12CE985FA85DA
:10217000AE22BF2213C0E491E40EF51EF0E05F0131
:102180000A2E02C0AA0CBB1C0A94E2F7BA86A986E2
:10219000F701B080E985FA85EB255F01F701A082A0
:1021A000109709F452C08730910509F44EC0F80128
:1021B000E40DF51DAA24A394CA1011C0E20FF31F69
:1021C000E491EE2EF12C5701098002C0B594A7943A
:1021D0000A94E2F7EF81F885F080AF2835C0EF80F0
:1021E000F884E618F708E20FF31FC11018C0E49155
:1021F000E60CF71CAE2EB12C098002C0B594A79452
:102200000A94E2F7F501E095F095FA87E987F7017E
:10221000A080B12CE985FA85AE22BF2214C0E491DA
:10222000E60CF71CAE2EB12CF501098002C0F59525
:10223000E7950A94E2F7FA87E987F701B080E98524
:10224000FA85EB255F01F701A0820F5F1F4FEF8139
:10225000F8853196F887EF83FFEF8F1A9F0A42CFF8
:102260000196420C531C40585F4F1DCF109709F048
:102270009ECFEBCF2A960FB6F894DEBF0FBECDBF30
:10228000DF91CF911F910F91FF90EF90DF90CF9052
:10229000BF90AF909F908F907F906F905F904F9086
:1022A0003F902F900895CF92EF920F9350E04053BC
:1022B00051099A01220F331F240F351F2E58344F16
:1022C000462F50E0682F70E0CC24C394E8E0EE2E57
:1022D00003E080E593E00E94E60F0F91EF90CF902E
:1022E00008954A3010F4405D01C0495C0C945311CC
:1022F0001F93CF93DF93D82F162FC42F42954F7083
:102300000E9471114C2F4F70612F84E08D0FDF916F
:10231000CF911F910C947111CF92EF920F9398E08F
:10232000499F900111242E543A4F462F50E0682FB8
:1023300070E0CC24C39488E0E82E08E080E593E0C8
:102340000E94E60F0F91EF90CF900895CF92EF92F9
:102350000F9398E0499F900111242E5C344F462F33
:1023600050E0682F70E0CC24C39488E0E82E08E0A9
:1023700080E593E00E94E60F0F91EF90CF900895D3
:10238000AF92BF92CF92DF92EF92FF920F93CF93D3
:10239000DF936C015A017B01E20EF11CEB0177FF28
:1023A0000DC0C0E0D0E00AC0C617D7077CF4202FCC
:1023B000A501BE01C6010E94F20A2196B70181E87B
:1023C000E816F1048CF360E870E0EECFDF91CF9176
:1023D0000F91FF90EF90DF90CF90BF90AF90089556
:1023E0008091960280938C0280913D0380938F02AE
:1023F000809195028093940280919302809392023F
:1024000080913F038093910280913E0380939002DC
:102410000E94DE0D91E082FF90E0909396020E9470
:10242000DE0D91E083FF90E090933D030E94DE0D6E
:10243000982F991F9927991F909395020E94DE0D5E
:1024400091E084FF90E0909393020E94DE0D91E072
:1024500085FF90E090933F030E94DE0D91E086FFA0
:1024600090E090933E03089590918E02990F292F4A
:102470002E3F50F4E22FF0E0E55FFE4F32813083D3
:10248000338131832E5FF4CFE92FE095EE7FE90FA2
:10249000F0E0E55FFE4F20EF20831182882389F072
:1024A000ECE0F1E0DF0111978C91883F29F4808105
:1024B000981710F482508083329682E0EA30F80751
:1024C00089F7089590918E02990F6BE071E09B015E
:1024D00022503109422F461B941758F4F901E2505B
:1024E000FF4F40813296408331974081329640833E
:1024F000EFCFE92FF0E0E55FFE4F20EF2083118260
:10250000882389F0ECE0F1E0DF0111978C91883F9E
:1025100029F48081981710F48E5F8083329682E0D0
:10252000EA30F80789F70895E82F803F28F4EF7024
:10253000F0E0EE5EFD4F03C0F0E0EE5CFE4F808108
:1025400008952F923F924F925F926F927F928F9257
:102550009F92AF92BF92CF92DF92EF92FF920F9332
:102560001F93CF93DF9300D01F92CDB7DEB7D090EB
:1025700001012FEFD21203C0A12C81E002C0AD2CCB
:1025800080E0282E220C220C220C312CF12C28E089
:1025900030E04901881A9108B12C8F2D90E0881500
:1025A00099050CF020C18A0D9B1D182F110F37E0E3
:1025B000F31204C089E7D81609F415C1E12FF0E041
:1025C000E55FFE4FE08091819A8390918D029F5F3D
:1025D000832D820D980F9B83E12FE695F0E0E35465
:1025E000FD4F8081692E712C813051F401E023E090
:1025F00043E0B3016F5F7F4F80E090E00E94591A83
:10260000412F6B8185E00E9478114AE36B818DE058
:102610000E9453118E2D0E949412182F2E2D2F7070
:10262000822F90E03FEE3E1528F486E2289F20019D
:1026300011241CC0409626E2289F2001299F500C9F
:102640001124E294FFE0EF2288E0E89E900111243B
:102650002E5C344FCC24C394A8E0EA2E08E0A301FA
:102660006EE270E080E593E00E94E60F92012E5842
:10267000394FCC24C394E8E0EE2E06E2A30161E1D9
:1026800070E080E593E00E94E60F112309F4A7C0F3
:10269000113011F0123031F44A816B8189E30E94CC
:1026A000781144C01330D9F59A8197FF02C046E0F3
:1026B00001C040E06B8189E30E948C112A8126FFD2
:1026C00002C045E001C040E06B8183E40E948C11B0
:1026D0003A8135FF02C044E001C040E06B818DE4E7
:1026E0000E948C118A8184FF02C043E001C040E057
:1026F0006B8187E50E948C119A8193FF02C042E0B2
:1027000001C040E06B8181E60E948C112A8122FF8A
:1027100002C041E001C040E06B818BE65EC0143036
:1027200049F44A816B8189E30E94A61140E06B81E4
:1027300089E353C0153031F54A8147706B8189E3D5
:102740000E94A61140E06B8189E30E948C114A81AE
:10275000487350E073E0559547957A95E1F76B81A2
:1027600083E40E94A61140E06B8183E40E948C11F7
:102770004A8142954695469543706B818DE40E944F
:10278000781128C0163059F54A8147706B8189E36A
:102790000E94A61140E06B8189E30E948C114A815E
:1027A000487350E063E0559547956A95E1F76B8172
:1027B00083E40E94A61140E06B8183E40E948C11A7
:1027C0004A8142954695469543704C5F6B818DE4F6
:1027D0000E94A61140E06B818DE40E948C11F3945D
:1027E00038E0330EDACEA12CB12CF501E55FFE4FB7
:1027F000108180908E0280918D029501280F311DED
:10280000912CC401880F991F281B390B390180E2D4
:10281000680E711C812F0E949412F82E880C991C4E
:10282000A814B90431F441E0B30184E790E00E94B8
:10283000DB17103F80F4E12FEF70E05FF0E0E45C25
:10284000FD4F208141E0B30188E790E029830E9499
:10285000DB17298106C0105FE12FF0E0E45CFD4F3B
:10286000208101E0A30166E770E080E593E00E942B
:10287000C011FF2079F18FEF8F0D823018F094E0B6
:10288000F91205C041E0B3018AE790E014C08BEF74
:102890008F0D823098F441E0B3018AE790E00E9406
:1028A000DB1741E0B3018CE790E00E94DB1741E0C9
:1028B000B3018EE790E00E94DB170CC023E0F21218
:1028C00009C001E025E0A3016AE770E080E593E03C
:1028D0000E94C01132E0A30EB11CA11481E0B80621
:1028E00009F083CF80918E0290910101891BA09005
:1028F0008D0298E0899FA00C112480918B0288237F
:1029000041F0880F24E0829F800D11248D5D18E036
:1029100002C017E285E020919602B12C90E02223BC
:1029200009F44CC01D5F450131E0831A91082C0168
:102930002AE0420E511C01E0212FA401B20180E5E2
:1029400093E00E94C011A501485F5F4F212FB201A3
:1029500080E593E00E94C01139E0A30EB11C97FE00
:1029600002C0812C912C7401350191E4A916B104A7
:102970001CF080E4682E712CE614F7045CF421E06E
:10298000A701B20180E593E00E94F20A8FEFE81AF6
:10299000F80AEACF7201E10EF11C21E0E21AF10817
:1029A0008614970434F521E0A401B70180E593E093
:1029B0000E94F20A3FEF831A930AF2CF41E0410FDF
:1029C000B5010B960F900F900F90DF91CF911F9153
:1029D0000F91FF90EF90DF90CF90BF90AF909F90BE
:1029E0008F907F906F905F904F903F902F900C94BE
:1029F000A71A0F900F900F90DF91CF911F910F9119
:102A0000FF90EF90DF90CF90BF90AF909F908F900E
:102A10007F906F905F904F903F902F900895CF924E
:102A2000EF920F93CF930E94A112E0910001F0E08A
:102A3000E15FFD4FC08100E028E040E860E070E029
:102A400080E090E00E94591ACC24C39488E0E82EDC
:102A500000E822EF35E040E050E060E070E080E523
:102A600093E00E94E60FE0910001F0E0E75CFD4F8B
:102A7000408160E070E08C2F90E00E94A71A00E097
:102A800020E848E050E060E070E080E593E00E94DC
:102A9000C011CF910F91EF90CF900895CF93DF9316
:102AA000C62F87FF10C080918B02882361F181506F
:102AB00080938B024AE050E060E070E081111EC01C
:102AC00088EB91E01DC08823B9F1D0918B02E09191
:102AD0008E02EE0FF0E0E55FFE4F80810E949412BF
:102AE000E82FF0E0EE5CFD4F8081D81728F5DF5F1E
:102AF000D0938B024AE050E060E070E080E793E022
:102B00000E94611719C0E0918E02F0E0E354FD4F7E
:102B10008081811109C081E080834AE050E060E05B
:102B200070E084E992E0ECCF10824AE050E060E08F
:102B300070E086E292E0E4CFE0918E02C7FF27C00A
:102B4000EE2359F1E150E0938E02EE0FF0E0E55FE5
:102B5000FE4F80810E949412E82FF0E0EE5CFD4F62
:102B6000808190918B02891710F480938B02809161
:102B70008B024AE050E060E070E0811103C088EB16
:102B800091E002C080E793E00E94611706C0CC2369
:102B900021F0EF3710F4EF5FD6CF90918E02292FFE
:102BA00030E080910101482F50E0BA016A5F7F4F09
:102BB0006217730724F08F3F21F4963040F08F5F47
:102BC00004C0421753071CF0815080930101DF912C
:102BD000CF9108957F928F929F92AF92BF92CF92A2
:102BE000DF92EF92FF920F931F93CF93DF936C01CD
:102BF0005B017A0180910A01882309F46BC08091FE
:102C0000B102882309F466C08091AF0280FF05C03D
:102C10008091E00082608093E000E70110E00AEF1D
:102C200083E0982E90E4792E2AE3822E209709F4EF
:102C300048C08FB7F8949092E9009091E80095FF12
:102C400006C09091F200272D291B922F01C090E021
:102C50008FBF91110AC0015009F43CC061E070E0DF
:102C600080E090E00E945A0DE1CF292F30E0C2179A
:102C7000D3070CF49C2F8FB7F8949092E900209121
:102C8000E80025FF1CC0292F30E0C21BD30BF50143
:102C9000915020F041914093F100FACFA20EB31E63
:102CA000112319F08092E80009C09091E80095FD89
:102CB00006C08092E80011E0209709F010E08FBF75
:102CC000B5CF1111B6CF5D9884E68093AE021E1485
:102CD0001F0444F081E090E0F6019383828380E05A
:102CE00090E001C0C701DF91CF911F910F91FF903C
:102CF000EF90DF90CF90BF90AF909F908F907F909C
:102D000008952FB7F89480914C0390914D03A091B2
:102D10004E03B0914F032FBF20916203222391F005
:102D200020915A03382F321B3093630320915703AD
:102D3000309158032F5F3F4F309358032093570330
:102D40001092620340915E0350915F0360916003B3
:102D50007091610384179507A607B70774F4481BA1
:102D6000423038F183B7817F83BF83B7816083BFEF
:102D7000889583B78E7F83BF1CC020915903AC0117
:102D8000BD01420F511D611D711D40935E035093A3
:102D90005F03609360037093610380935A03909381
:102DA0005B03A0935C03B0935D0381E080936203B7
:102DB000089580E00895CF93DF9390914B03923074
:102DC00009F46EC0C82F292F30E0F901E958FB4EF5
:102DD000D491F901EA58F84F80839F5F90934B0399
:102DE00061E00E94860CD13019F0D33039F158C01F
:102DF0001092800010928100809181008860809301
:102E00008100809181008160809381008C2F90E00F
:102E1000FC01E85AFB4EE491F0E0EE0FFF1FE65B89
:102E2000FB4E2591349130934A0320934903FC01D2
:102E3000E55DFB4E84918093480332C01092900070
:102E40001092910080919100886080939100809110
:102E500091008160809391008C2F90E0FC01E85AF2
:102E6000FB4EE491F0E0EE0FFF1FE65BFB4E259179
:102E700034913093470320934603FC01E55DFB4EFC
:102E800084918093450380914B03882321F06CE368
:102E900080E00E940B0E80E0DF91CF910C94F60E43
:102EA000DF91CF91089524E633E0B82FB111BFEF41
:102EB000F9010024B193B193B193B1930394D1F785
:102EC00008954F925F926F927F928F929F92AF92EE
:102ED000BF92CF92DF92EF92FF92CF93DF93EC01FC
:102EE0004A015B0181E0809344032E01612C712C27
:102EF00060E072E18AE790E0A30192010E94362728
:102F000069017A0181E0C81AD108E108F108C11409
:102F1000D10481E0E806F10488F068E478EE81E00D
:102F200090E0A30192010E94362769017A0181E0B5
:102F3000C81AD108E108F10883E001C081E090914E
:102F40008100987F982B9093810081149104A104B3
:102F5000B10471F0DE01AA0FBB1FA50194010E940C
:102F6000552728EE33E040E050E00E94602703C080
:102F70002FEF3FEFA901D0928900C09288002093E3
:102F800040033093410340934203509343038091A5
:102F90006F00826080936F00DF91CF91FF90EF9080
:102FA000DF90CF90BF90AF909F908F907F906F9069
:102FB0005F904F9008958038910540F56034710519
:102FC00028F5E62FE695E695E695F0E06770772719
:102FD000F695FE2FEE27F795E7958E0F9F1FFC01C4
:102FE000E05BFC4F81E090E001C0880F6A95EAF752
:102FF000413019F49489892B08C0411104C080958F
:103000009489892302C094898927848B0895FF922B
:103010000F931F93CF93DF930E9481168823E1F3D0
:1030200001E0C1E0D0E011E00E94F01180913F0387
:10303000882341F080913E03882321F080913D0355
:10304000811130C29091BA02011109C0E92FE695B1
:10305000F0E0E354FD4F8081813009F424C2E1E0C7
:10306000E90FE093BA02A92FB0E0A55FBE4F8C91A3
:103070002091BB02222339F09E5F9093BA021092F6
:10308000BB0200E0D1CF803F08F0E4C0A82FA077BA
:10309000B0E044E0B595A7954A95E1F7382F3F7029
:1030A00022E0290FAE54BD4F8E2F90E0311106C0A3
:1030B0002093BA02FC01E55FFE4F0BC0313059F49A
:1030C0002093BA02FC01E55FFE4FE081F0E0EE5490
:1030D000FD4F80810CC0323061F42093BA022C91F4
:1030E000FC01E55FFE4F808190E0820F911D8C9383
:1030F000C8CF333059F42093BA022C91FC01E55F1C
:10310000FE4FE081F0E0EE54FD4FEDCF343041F45E
:103110002093BA022C9130E0FC01E55FFE4F0DC018
:10312000353089F42093BA022C9130E0FC01E55F40
:10313000FE4FE081F0E0EE54FD4F8081A901481B75
:103140005109CA01D4CF363011F0373079F42093C9
:10315000BA02FC01E55FFE4FE081F0E0EE54FD4F66
:103160008C919081899F802D1124C1CF383071F4CA
:103170002093BA02FC01E55FFE4FE081F0E0EE54DF
:10318000FD4F8C9160810E949127B1CF393079F445
:103190002093BA02FC01E55FFE4FE081F0E0EE54BF
:1031A000FD4F8C9160810E9491279C936ACF3A30A9
:1031B00069F43C912093BA02FC01E55FFE4F8081E7
:1031C000381709F45ECF1093BB025BCF3B3059F444
:1031D0003C912093BA02FC01E55FFE4FE081F0E0F4
:1031E000EE54FD4FECCF3C3059F43C912093BA02A1
:1031F000FC01E55FFE4FE081F0E0EE54FD4F26C09C
:103200003D3071F43C912093BA02FC01E55FFE4F22
:10321000E081F0E0EE54FD4F80813817A0F231CF0D
:103220003E3071F43C912093BA02FC01E55FFE4F01
:10323000E081F0E0EE54FD4F8081831720F221CF32
:103240003C912093BA02FC01E55FFE4F8081381368
:1032500018CFB9CF803F09F41CC1813F51F49E5F64
:103260009093BA02F0E0E55FFE4F80810E94531711
:1032700008CF823F09F59E5F9093BA02F0E0E55FC8
:10328000FE4FE0814E2F4295469546954370AE2FF6
:10329000A873B0E033E0B595A7953A95E1F7AE5441
:1032A000BD4F6C9170E0E770F0E0EE54FD4F80810F
:1032B00090E00E94DB17E5CE833F09F047C09E5F98
:1032C0009093BA02F0E0E55FFE4FE081AE2FA77069
:1032D000B0E0AE54BD4F9C91AE2FA873B0E023E098
:1032E000B595A7952A95E1F7AE54BD4F8C9197FD02
:1032F000C8CE803408F0C5CEA82FA695A695A69571
:103300008770E295E695E695E370EC5FF0E0EE54A9
:10331000FD4F50E8A59FD0011124A05BBC4FA90F21
:10332000B11D54962C91422F50E09E01082E02C0F0
:10333000220F331F0A94E2F724233523A90102C088
:10334000559547958A95E2F740839BCE843F69F572
:103350009E5F9093BA02F0E0E55FFE4FE081AE2FF2
:10336000A873B0E083E0B595A7958A95E1F7AE54D0
:10337000BD4F2C91AE2FA295A695A695A370AC5FDC
:10338000B0E0AE54BD4F4C9150E060E070E0E770AB
:10339000F0E0EE54FD4F808190E030E1239F800DFE
:1033A000911D11240E9461176CCE853F29F40E9463
:1033B00081168823E1F365C0863F71F49E5F909388
:1033C000BA02F0E0E55FFE4F00810E94DE0D80232F
:1033D000801709F4F8CE55CE873F69F49E5F90932D
:1033E000BA02F0E0E55FFE4F00810E94DE0D80230F
:1033F00009F4E9CE46CE883F21F4F0E0E55FFE4FC8
:1034000009C0893F49F4F0E0E55FFE4FE081F0E05C
:10341000EE54FD4F808138C08A3FD9F18B3FC9F10E
:103420008C3F49F59E5F9093BA02F0E0E55FFE4F56
:10343000F08010926507109264071092670710924F
:10344000660700E00F1509F41CCEA091BA0281E0D6
:103450008A0F8093BA02E0915003F0915103B0E0DB
:10346000A55FBE4F0190F081E02D6C9180E593E067
:1034700009950F5FE7CF8D3F51F484E693E00E94FA
:10348000FB0D8091BA028F5F8093BA02FACD8E3F16
:1034900021F49E5F9093BA02F4CDEF5FE093BA02FD
:1034A00080E001C082E0DF91CF911F910F91FF90EA
:1034B00008958F929F92AF92BF92CF92DF92EF9238
:1034C000FF920F931F93CF93DF93B82EE92E6B01DA
:1034D000F42EA22E102F242FAB01682F792F80E518
:1034E00093E00E94C011CB2DDE2D4E018F0C911C5C
:1034F000C6018A0D911D5C01C815D905DCF4760161
:10350000D7FE0EC0E12CF12C0BC0E816F90684F4AE
:10351000412FB701CE010E94DB179FEFE91AF90A8C
:10352000C50121E4A216B10484F380E490E0EDCF5C
:103530002196E2CFDF91CF911F910F91FF90EF90F5
:10354000DF90CF90BF90AF909F908F900895FF92A3
:103550000F931F93CF93DF9328E077FF03C0260FCD
:1035600060E070E097FF03C0480F80E090E0EB015F
:10357000C770DD2730E0FE013897E20FF31FF7FD3B
:10358000379653E0F595E7955A95E1F7FE2EAFEFA4
:10359000B0E0FA2F01C0FF0FCA95EAF7260F371FD8
:1035A0002770332701C0AA0F2A95EAF75A2F5095A2
:1035B000E3E075956795EA95E1F799279B01332735
:1035C0003695322F222737952795280F391FD90195
:1035D000CA2FC21BC41768F4A130C4E0BC073CF476
:1035E0008D01005B1C4FE801EC89EF27EC8B1196F5
:1035F000EFCF21E0322F360FF21638F420E8329F59
:10360000800D911D11249C0128C02830B9F3EC01D4
:10361000E0E83E9FC00DD11D1124DE013A2F3C1B76
:10362000341768F4A130F4E0BF073CF48D01005B6F
:103630001C4FF80134893095348B1196EFCF2F5FF2
:10364000D9CF213064E0360734F4F901E05BFC4F58
:1036500064896527648B2F5F3F4F622F681B641757
:1036600080F3DF91CF911F910F91FF9008950F93F9
:1036700095E0699FF0011124E45AFD4F50E041505C
:10368000510997E0949FB001959F700D1124675FD9
:103690007F4F90E002E027E0418101960E94591A95
:1036A0000F910895FC019081690F711D77FF02C091
:1036B00060E070E0461757070CF4BA01608381E0C0
:1036C000961301C080E00895FC018091B102811140
:1036D00003C08FEF9FEF08959FB7F89482E0809327
:1036E000E9002091F20030E01216130614F421E0F4
:1036F00030E02115310559F0289884E68093B00216
:103700008091F10080838091F200882319F09FBF9F
:10371000C90108958BE68093E800F9CF80916E0788
:1037200081110DC082E080936A0784E080936B076B
:1037300010926D0710926C0781E080936E078AE605
:1037400097E00895CF93DF931F92CDB7DEB76983DB
:10375000DC01ED91FC910280F381E02D41E050E02D
:10376000BE016F5F7F4F09950F90DF91CF91089554
:1037700083E08093E9008091F200882319F08AE3C6
:103780008093E8000895FC018485958597FD0BC022
:103790009FB7F89482E08093E9008091F2009FBF88
:1037A00090E0019608959FB7F89482E08093E90035
:1037B0008091F2009FBF90E008954091CC07509116
:1037C000CD072091CA073091CB0742175307B4F4B5
:1037D0009091E8009570E1F39091E80092FD19C096
:1037E0008093F1008091CC079091CD0701968F7363
:1037F0009927892B19F48EEF8093E8008091CC07EC
:103800009091CD0701969093CD078093CC0781E0EE
:10381000089580E00895CF92DF92EF92FF920F9388
:103820001F93CF93DF931F92CDB7DEB7182F062FCC
:10383000E42E862F880F8E5F99830E94DD1B83E024
:103840000E94DD1BF12EC12E9981D92E8C2D8F194E
:10385000801798F4F601E7FE02C0849101C08081D0
:103860000E94DD1B182F80E00E94DD1B8123FFEFEB
:10387000CF1ADF0A8111EACF01C081E00F90DF91FA
:10388000CF911F910F91FF90EF90DF90CF9008950F
:10389000DF92EF92FF920F931F93CF93DF93D82E77
:1038A0008A017B01E40EF51EEB01CE15DF0571F0F8
:1038B000D7FE03C0FE01849101C088810E94DD1BF8
:1038C00021968111F2CF8FEF9FEF01C0C801DF91E8
:1038D000CF911F910F91FF90EF90DF90089561506D
:1038E00030F02091F100FC0120830196F8CF289858
:1038F00084E68093B0020895CF93DF931F92CDB7F3
:10390000DEB7FC018485958597FD05C02FEF3FEF5D
:10391000358724870BC0CE0101960E94641B019756
:1039200019F4898190E002C08FEF9FEF0F90DF9133
:10393000CF9108950F931F93CF93DF931F92CDB72D
:10394000DEB78C01FC018485958597FF0EC0CE0102
:1039500001960E94641B019719F4298130E002C08E
:103960002FEF3FEFF80135872487F801848595858F
:103970000F90DF91CF911F910F9108950F931F9397
:10398000CF93DF931F92CDB7DEB782E0898342E405
:1039900050E069E774E180E80E94481C0E948E1B99
:1039A000DC0112960D911C9113970115110569F018
:1039B000D801ED91FC910280F381E02DBE016F5F93
:1039C0007F4FC801099597FF07C089810F90DF914C
:1039D000CF911F910F910895F80100851185E5CFD2
:1039E0001F920F920FB60F9211248F939F93809185
:1039F000E1009091E100937F9093E10083FF0FC07D
:103A00001092E90091E09093EB001092EC0092E3A9
:103A10009093ED001092B10298E09093F00082FF35
:103A200020C093E09093E9009091F200992319F05F
:103A30009AE39093E8009091AE02992339F0909127
:103A4000AE0291509093AE02992389F19091B00209
:103A5000992339F09091B00291509093B00299233C
:103A600041F184FF10C08091E2008E7E81608093DE
:103A7000E2008091E1008F7E8093E1008091AF02AF
:103A80008E7E806111C080FF16C08091E2008E7E24
:103A900080618093E2008091E1008E7E8093E1005E
:103AA0008091AF028E7E81608093AF0204C05D9AE8
:103AB000CDCF289AD6CF9F918F910F900FBE0F90A8
:103AC0001F9018951F920F920FB60F921124CF924C
:103AD000DF92EF92FF920F931F932F933F934F9399
:103AE0005F936F937F938F939F93AF93BF93EF9366
:103AF000FF93CF93DF93CDB7DEB76C97DEBFCDBF1B
:103B00001092E9008091E80083FFEDC168E0CE01EA
:103B100045960E946F1C82EF8093E8008D8987FF95
:103B200005C09091E80090FFFCCF03C09EEF9093FA
:103B3000E800982F907609F0C6C09E892F89188DCD
:103B400091110CC0803829F48091C9078093F1004D
:103B500002C01092F1001092F10048C1422F50E0D3
:103B6000512B913051F4811141C14130510509F07F
:103B70003DC18091C9078D7F0BC0933061F48111E5
:103B800035C14130510509F031C18091C9078260CA
:103B90008093C9072BC1953041F48091E80080FFE4
:103BA000FCCF20682093E30021C1963009F05FC06C
:103BB000EB8CFC8C1092E9001092CD071092CC0790
:103BC000123091F51092CB071092CA070E94BE1CCA
:103BD00099E0BE016F5F7F4FDB01E92F1D92EA95EF
:103BE000E9F799831A8391E09E8390EA98879AEF88
:103BF00099872091CC073091CD07275F3F4F3C83B9
:103C00002B838D831092E9001092CD071092CC0780
:103C1000F092CB07E092CA0749E050E080E00E94B2
:103C2000481C0E94BE1CE2C0F092CB07E092CA077B
:103C30000E948E1BDC011296ED90FC901397E1140C
:103C4000F10409F4C0C0D701ED91FC910480F58125
:103C5000E02DBE016B5E7F4FC7010995009719F0FB
:103C60000CF0C4C0C7C0F701E084F184E8CF9730FE
:103C700009F4C0C0983021F481E08093F100B6C00F
:103C8000993009F0B3C0837009F0B4C0E4E8F2E001
:103C900081E021E036E39081992361F08093E9008F
:103CA0002093EB0091919093EC003093ED008F5FA7
:103CB000873089F78EE78093EA001092EA008F89B7
:103CC0008093B10293C08B8D9C8D1092E90010926D
:103CD000CD071092CC079093CB078093CA07898DAC
:103CE000811156C08E899D89913A59F4813209F02B
:103CF00081C047E050E063E071E080E00E94481C32
:103D000075C0913209F076C0833289F4888D90E0D5
:103D1000982F88272F89822BA0E0B0E080930B0298
:103D200090930C02A0930D02B0930E025FC08032FC
:103D300069F48091E80082FFFCCF67E083E091E0C6
:103D40000E946F1C8BEF8093E80006C0823209F05E
:103D50004DC08F8980930A018091C807882319F08C
:103D6000EEEFFAE002C0E0E0F8E08091030190910C
:103D70000401A0910501B0910601803B9440A1058A
:103D8000B10509F07BC080910A0180FF93C076C025
:103D90000E948E1BDC0112960D911C911397011548
:103DA000110541F1D801ED91FC910190F081E02DD8
:103DB000BE016B5E7F4FC8010995811117C0F801E4
:103DC00000851185ECCF113009F44EC0133091F409
:103DD0008F89882309F445C0823081F440E860E18E
:103DE0008DED94E10E940B1C882321F08EEF8093CF
:103DF000E80079C081E28093EB0075C0813029F43E
:103E000040E86BE081ED94E1EDCF833099F70E94BB
:103E10008E1BDC011296ED90FC9013978E010F5FC4
:103E20001F4F6801E114F10479F0D701ED91FC9185
:103E30000680F781E02DB801C7010995080F111D13
:103E4000F701E084F184EECFD8011C92F6010190D5
:103E50000020E9F73197BF016C197D0940E0C601E8
:103E6000C1CF6BEB74E102C06FEB74E161157105BA
:103E700009F2FB01449150E080E840CF0FB6F8947E
:103E8000A895809160008861809360001092600026
:103E90000FBEA895EE3F2AE0F20739F08091FE0AA6
:103EA0009091FF0A91838083A1CF1092FF0A109214
:103EB000FE0A9CCFEE3F8AE0F80731F080819181C5
:103EC0009093FF0A8093FE0A87E797E791838083A8
:103ED0009BE088E10FB6F894A895809360000FBE30
:103EE0009093600083CF6C960FB6F894DEBF0FBE40
:103EF000CDBFDF91CF91FF91EF91BF91AF919F9196
:103F00008F917F916F915F914F913F912F911F9171
:103F10000F91FF90EF90DF90CF900F900FBE0F901A
:103F20001F901895CF93DF9300D000D0CDB7DEB7A8
:103F3000789484B5826084BD84B5816084BD85B584
:103F4000826085BD85B5816085BD80916E00816090
:103F500080936E0010928100809181008260809336
:103F60008100809181008160809381008091800038
:103F700081608093800080919100826080939100A5
:103F80008091910081608093910080919000816088
:103F9000809390008091C10084608093C1008091E3
:103FA000C10082608093C1008091C10081608093D4
:103FB000C1008091C30081608093C3008091C000E4
:103FC00082608093C0008091C20081608093C200B3
:103FD00080917A00846080937A0080917A00826078
:103FE00080937A0080917A00816080937A0080913A
:103FF0007A00806880937A001092B1021092C9070B
:104000001092AF028091D70081608093D70080EA40
:104010008093D80089B5806189BD89B5826089BDEA
:1040200009B400FEFDCF61E070E080E090E00E9406
:104030005A0D8091D8008F7C80618093D800809148
:10404000E000807F8093E0008091E1008E7E80938D
:10405000E1008DE08093E200559A209AEEEFFFE7B1
:10406000859194918B3F9C4D19F481E08093C80712
:104070001FB7F89480919802811127C0E9E6F4E116
:104080008491ECE3F4E19491E82FF0E0EE0FFF1F50
:10409000E856FE4FA591B491EC91E92321F461E03B
:1040A00081E10E94230C61E081E10E94860C8CB5C5
:1040B00080618CBD8CB580648CBD61E08FE00E9416
:1040C000860C61E080E10E94860C809198028F5FEF
:1040D000809398021FBF03EB11E0F80184910E5FFB
:1040E0001F4F31966491882319F00E94860CF5CFFA
:1040F00061E086E00E94230C61E070E080E090E0E7
:104100000E945A0D60E086E00E94230C6AE070E095
:1041100080E090E00E945A0D61E086E00E94230C4E
:10412000E4E6F4E1E491F0E0EE0FFF1FE65BFB4E06
:104130008591949190939E0280939D02E7E3F4E130
:10414000E491E0939C02ECE5F4E1E491F0E0EE0F01
:10415000FF1FE65BFB4E8591949190939B028093A9
:104160009A02EFE2F4E1E491E09399028CB58C7F3E
:104170008CBD8DB581608DBDE0919D02F0919E0258
:10418000908180919C02982B9083A0919A02B0918B
:104190009B022C9190919902909592239C939081EF
:1041A000809589238083E6EAF1E021E0E33BF20792
:1041B00049F084918EBD00000DB407FEFDCF8EB591
:1041C0003196F3CFE0919A02F0919B029081809119
:1041D0009902892B8083E0919D02F0919E0290814B
:1041E00080919C0280958923808380916400816006
:1041F0008093640080916400826080936400809169
:10420000640080688093640080916400806480937F
:104210006400809165008160809365000E94DE0DDE
:1042200087FF1AC080E094E01EBC00000DB407FEBA
:10423000FDCF2EB50197C1F760E070E08AE00E94E3
:10424000C20C60E070E08BE00E94C20C60E070E0A5
:1042500089E00E94C20CFFCF8EEEA82EBB24BA9438
:1042600018E188248A94912C812F8A19B401681B43
:1042700071098AE00E94C20C6FEF70E08BE00E942F
:10428000C20C6FEF70E089E00E94C20C80E00E94D7
:104290005317CC24C39400E1E02E08E528EE30E06B
:1042A000A50164E170E080E593E00E94E60F84E6FA
:1042B00093E00E94FB0D6BE170E080E090E00E94D3
:1042C0005A0D30EFA31206C06AEF70E080E090E074
:1042D0000E945A0D4FEFA41AB40A89E1A816B1043E
:1042E00019F66EEE72E080E090E00E945A0D6FEFDA
:1042F00070E08AE00E94C20C6FEF70E08BE00E94D9
:10430000C20C6FEF70E089E00E94C20C85E00E9451
:10431000DB168DE00E94DB1610928A0282E090E0AC
:104320000E942027882369F080916400877F809312
:10433000640080916500877F8093650081E08093B1
:1043400097020E9481168823E1F30E94F011809168
:104350003F03882331F082EB92E0B8E04B2E480E09
:1043600032C080919302882371F080E090E020EFCA
:10437000FC01E55FFE4F2083118202968115E1E08A
:104380009E07B1F7E8CFABE0EA2EA1E0FA2E00E0FD
:1043900013E0C8010E942027F70181937F010F5F7E
:1043A0001F4F0115F4E01F07A1F7D5CF11E0E5E09D
:1043B000FE2E0E94811681110AC080E090E0892BB8
:1043C000A9F30E940000F8E02F2E312CEFCF0E94BD
:1043D000F011E0909502E1100CC0809193028111E0
:1043E00008C080913F03811104C080913E0388235F
:1043F000D1F080910201882321F081508093020145
:1044000015C0E1100CC080919302811108C0809109
:104410003F03811104C080913E03882339F022E0DC
:104420002093020103C034E130930201809196028F
:10443000882309F4D3C000918E02000F802F90E0F2
:10444000FC01E55FFE4F6F011081812F0E949412E5
:10445000982F20918B02222309F46CC00F5F8FEFFD
:10446000890F823070F4EE2009F4C6C08091940266
:10447000882309F4AEC380910201882309F4A9C3FB
:10448000BBC09330F9F480918C028111DFC04AE007
:1044900050E060E070E080EB94E02C830E946117B4
:1044A000E02FF0E0E55FFE4F2C81C101821B9109F6
:1044B00021E030E001C0220F8A95EAF780812827A9
:1044C0002083C4C0943071F4EE2009F4AEC380910F
:1044D0009402882309F495C380910201882309F48A
:1044E00090C3A3C39550923008F0B0C010E0055FB0
:1044F0001E4FF8018081982F97709B83482F487337
:1045000050E073E0559547957A95E1F74A83829597
:104510008695869583708983EE2009F4C1C38091C6
:104520009402882309F497C380910201882309F437
:1045300092C3B6C380913F038823A9F08091910272
:10454000811111C04FE750E060EF7FEFC6010E947C
:10455000521B882309F47AC04AE050E060E070E022
:1045600080E293E038C080913E038823A9F08091D7
:104570009002811111C04FE750E060E170E0C60188
:104580000E94521B882309F461C04AE050E060E0B9
:1045900070E088EE93E01FC0EE2009F4C4C3809160
:1045A0009402882321F0809102018111BCC3103F45
:1045B00008F4C7C31F3F09F0CAC3F6019081191759
:1045C00009F444C0903F08F029C34AE050E060E09D
:1045D00070E084E893E00E94611738C0EE2009F48F
:1045E000C8C380919402882309F4D0C3809102014A
:1045F000882309F4CBC3BDC390919302992351F052
:1046000080919202882309F4E9C2809102018823F3
:1046100009F4E4C290913F03992351F080919102F3
:10462000882309F4E0C280910201882309F4DBC2E7
:1046300090913E03992351F080919002882309F4D0
:10464000D9C280910201882309F4D4C280E00E947B
:1046500053170E94A11284E693E00E94FB0D809103
:104660003D03811102C010E0A4CE80918F02811120
:10467000FACF90918E0280910101981303C088E0D7
:1046800080938D024AE050E060E070E086E994E0BB
:104690000E9461170E9481168823E1F380E00E9446
:1046A00053170E940F1510919F02112309F44AC05D
:1046B00050900001852D90E0FC01E15FFD4F80806E
:1046C000F89E9001F99E300D1124C901845A9D4F26
:1046D0006C01FC01E2809180A82CB12C24E02E0D0D
:1046E00042E0490D00E068E070E0C5010E94591AFF
:1046F0006E2C712CFFEFAF1ABF0AA301475F5F4F0B
:1047000001E0292DB50180E593E00E94C011A301CD
:10471000465F5F4F292DB50180E593E00E94C011EF
:10472000F60123813481CC24C394092D49E050E063
:10473000B50180E593E00E94E60F412F652D882D9D
:104740000E94371B84E693E00E94FB0D0E94F0114B
:1047500080913F038823A9F080919102811111C0BB
:104760004AE050E060E070E080E793E00E9461176B
:104770008091000181508330C8F0F2E0F093000195
:104780001AC080913E03882349F1809190028111E3
:1047900025C04AE050E060E070E080E793E00E94CE
:1047A0006117809100018F5F833018F480930001BE
:1047B00002C010920001E0910001FE9EF001112460
:1047C000E45AFD4F8081482F50E0212F30E04217FE
:1047D00053070CF06BC080939F0268C080919502D4
:1047E000882371F18091940281112AC00091000107
:1047F000C02ED12CF601E15FFD4FE0804AE050E091
:1048000060E070E080E793E00E946117412F602F25
:104810008E2D0E94371B115010939F02FC9CF001BB
:10482000FD9CF00D1124E45AFD4F8081482F50E08B
:10483000212F30E0421753079CF580939F0230C030
:1048400080919302882391F18091920281112EC070
:1048500000910001C02ED12CF601E15FFD4FE080F8
:104860004AE050E060E070E080E793E00E9461176A
:10487000412F602F8E2D0E94371B1F5F10939F02C8
:10488000FC9CF001FD9CF00D1124E45AFD4F408189
:1048900050E0212F30E04217530714F410929F028A
:1048A00040919F02602F8E2D0E94371B80913D0307
:1048B000811182C180918F02882309F47DC11091FA
:1048C0009F0211110EC080E00E9453170E940F1525
:1048D00084E693E00E94FB0D80910001882331F172
:1048E00066C0E090000121E0E21669F308E0EE2DD9
:1048F000F0E0E15FFD4FD080412F6E2D8D2D0E94A5
:10490000371B84E693E00E94FB0D4AE050E060E034
:1049100070E08EED93E00E94611763E270E080E04A
:1049200090E00E945A0D015039F7CDCF113009F0B7
:104930004CC14AE050E060E070E086E994E00E94FB
:10494000611700E02EE24EE36CE070E08FE190E052
:104950000E94591ACC24C3946EE2E62E0EE326EC94
:1049600031E04CE050E06FE170E080E593E00E94C0
:10497000E60F84E693E00E94FB0D0E94F0110E9476
:1049800081168823E1F30E94F01180913D03882372
:1049900029F080918F02882309F417C18091960233
:1049A000882369F380918C028111E9CF0EC1813097
:1049B000A9F5113051F44AE050E060E070E086E97A
:1049C00094E00E94611780E00BC0123061F44AE06D
:1049D00050E060E070E086E994E00E94611781E0B9
:1049E0000E946212F2C0133051F44AE050E060E0DD
:1049F00070E086E994E00E94611780E00CC01430FA
:104A000009F0E3C04AE050E060E070E086E994E03D
:104A10000E94611781E00E943412D7C0823009F0F1
:104A2000D4C0113009F0A6C000E022E342E667E0FE
:104A300070E081E190E00E94591ACC24C39450E3C5
:104A4000E52E00E622E733E048E050E062E170E066
:104A500080E593E00E94E60F84E693E00E94FB0D60
:104A60004AE050E060E070E086E994E00E9461175F
:104A70000E94F0110E9481168823E1F380913D038A
:104A8000882331F180918F02811122C032E0C32E40
:104A90004BE0E42E0CE12AE333E046E250E068E12B
:104AA00070E080E593E00E94E60F84E693E00E94C8
:104AB000FB0D0E9481168823E1F380913D03811153
:104AC00004C080918F02811180C00E94F011F1CF4B
:104AD00080919602882361F280918C028111C8CF67
:104AE00092E0C92E2BE0E22E0CE12AE333E046E20D
:104AF00050E06FE470E080E593E00E94E60F84E60A
:104B000093E00E94FB0D0E9481168823E1F38091BF
:104B1000960281112CC080918C02882341F18091F2
:104B20009502811154C180919302811150C18091ED
:104B30003F0381114CC180913E03811148C18BE03C
:104B4000C82E81E0D82E00E013E0C8010E94202783
:104B5000F60161916F01861719F0C8010E9428279C
:104B60000F5F1F4F0115F4E01F0779F730C10E9456
:104B7000F011C9CF123069F4E2EBF2E011924E125B
:104B8000FDCF1092BA021092BB0281E08093BC026A
:104B900010C0133061F4E2EBF2E011924E12FDCF3F
:104BA0001092BA021092BB021092BC0202C01430E2
:104BB00061F40E94071809C080919602882309F4C5
:104BC00069CD80918C02811165CD10928D0211E02A
:104BD000F0CB802F90E04FEF50E017C0802F90E097
:104BE0004FEF50E033C0802F90E04FEF50E060EF88
:104BF0007FEF2EC0802F90E04FEF50E060E170E03B
:104C000006C0802F90E047E050E061E070E0855FF3
:104C10009E4F0E94521B882309F418CD4AE050E0B1
:104C200060E070E080EB94E0D6CC90919302992301
:104C300009F40CCD80919202882321F08091020129
:104C4000811104CD802F90E047E050E06FEF7FEFBF
:104C5000855F9E4F95CC213089F447E050E061E0BC
:104C600070E0CE0103960E94521B8823D1F14AE0E6
:104C700050E060E070E080EB94E02CC0223039F42A
:104C800047E050E061E070E0CE010296ECCF2330C7
:104C900041F543E050E061E070E0CE010196E3CFE2
:104CA000809193028823E9F080919202811115C0CE
:104CB000213039F547E050E06FEF7FEFCE010396EA
:104CC0000E94521B882369F04AE050E060E070E0E7
:104CD00088EE93E00E94611704C08091020188234E
:104CE00039F38A81F8E08F9F90011124998140E483
:104CF000949FC0011124822B9B81892BF801808312
:104D0000A5CC223039F447E050E06FEF7FEFCE01C1
:104D10000296D6CF233029F743E050E06FEF7FEFC4
:104D2000CE010196CDCF90919302992309F48ECCB8
:104D300080919202882381F080910201882361F0A2
:104D400085CC812F8F708F3011F480EF02C081E00D
:104D5000810FF601808331CC103F28F4812F8F70B2
:104D600009F42BCC04C0103F11F48FE0F2CF8FEF89
:104D7000EFCF80919302882381F080919202882363
:104D800039F080910201882319F007C06FEF01C04C
:104D90006BE080E00E944E1559CC80913F03882340
:104DA00039F080919102811103C060E08FEFF2CF62
:104DB00080913E03882339F080919002811103C0D5
:104DC00060E081E0E7CF112309F449CC3FCCE2EB6E
:104DD000F2E011924E12FDCFD4CEE8E7F7E0138255
:104DE000128288EE93E0A0E0B0E084839583A683EE
:104DF000B7838FE692E0918380838FEF9FEF958753
:104E00008487E0E5F3E0138212828CE3868380E1FD
:104E100081871086178216861786108A118A128A51
:104E20001092650710926407109267071092660748
:104E300081E0809368078FE792E0918380830895F3
:104E4000F999FECF92BD81BDF89A992780B5089552
:104E5000262FF999FECF1FBA92BD81BD20BD0FB696
:104E6000F894FA9AF99A0FBE01960895052E97FBC9
:104E70001EF400940E944D2757FD07D00E94602722
:104E800007FC03D04EF40C944D2750954095309577
:104E900021953F4F4F4F5F4F0895909580957095A6
:104EA00061957F4F8F4F9F4F08950E948227A59F46
:104EB000900DB49F900DA49F800D911D1124089515
:104EC000A1E21A2EAA1BBB1BFD010DC0AA1FBB1F0E
:104ED000EE1FFF1FA217B307E407F50720F0A21B80
:104EE000B30BE40BF50B661F771F881F991F1A94ED
:104EF00069F760957095809590959B01AC01BD0117
:104F0000CF010895A29FB001B39FC001A39F700D70
:104F1000811D1124911DB29F700D811D1124911DC1
:104F20000895991B79E004C0991F961708F0961B05
:104F3000881F7A95C9F780950895EE0FFF1F059099
:104F4000F491E02D099481E090E0F8940C94A82766
:044F5000F894FFCF03
:104F540001FF1400E1000000000000F000F000F088
:104F6400000040102020013000F000F000F100F7B4
:104F740080F844F710F84EF720F858F740F8620329
:104F84000213034001F3084F00F86CF000F000F046
:104F940000F000F000F000F248FD00F500F814F70E
:104FA40040F824200030FFF824F740F82420003093
:104FB40001F824F790F82420FF3000F824F790F843
:104FC4002420013000F824FC0444656164FD00F6EB
:104FD40008F874F800000000000000000000000061
:104FE40000000000000000000000000000000000BD
:104FF40000000000000000000000000000000000AD
:10500400000000000000000000000000000000009C
:10501400000000000000000000000000000000008C
:10502400000000000000000000000000000000007C
:10503400000000000000000000000000000000006C
:10504400000000000000000000000000000000005C
:105054000000000000000000000000FFFFFFFF034D
:105064000F200104010401040104040401040404E4
:105074000401000105060600030302040202010004
:1050840000000001010601030309110F01030302DB
:1050940002030302020201010103010101010202F0
:1050A400020202020202020202020202013506F6B2
:1050B4001304441BE61204411BE21100000000A289
:1050C4001BEA15C31B7C1C9A1CB81B0000000019AA
:0A50D4000BA20A00C1808100000059
:00000001FF
