:100000000C94580B0C94800B0C94800B0C94800B6C
:100010000C94800B0C94800B0C94800B0C94800B34
:100020000C94800B0C94800B0C94260E0C94980E60
:100030000C94800B0C94800B0C94800B0C94800B14
:100040000C94800B0C94800B0C94800B0C94800B04
:100050000C94800B0C94800B0C94800B0C94591115
:100060000C94800B0C94800B0C94800B0C94800BE4
:100070000C94800B0C94800B0C94800B0C94800BD4
:100080000C94800B0C94800B0C94800B0C94800BC4
:100090000C94800B0C94800B0C94800B0C94800BB4
:1000A0000C94800B0C94800B0C94800BF0F89C8EBD
:1000B0008783878E9CF8F00000FEFF030303030391
:1000C000070EFCF80000FEFF0303030303070EFC0A
:1000D000F80000FFFF00000000000000FFFF00002C
:1000E000FEFF8383838383C7EE7C380000F8FC0E19
:1000F00007030303070EFCF800003F7FE0C0808089
:10010000C0E07F3FFFFF01010101010101FFFF008E
:1001100000FFFF0C0C0C0C1C3E77E3C100007FFFBE
:10012000C0C0C0C0C0E0703F1F00001F3F70E0C0F3
:10013000C0C0E0703F1F00007FFFC1C1C1C1C1E36B
:10014000773E1C00001F3F70E0C0C0C0E0703F1F42
:10015000000000000001FFFF01000000D5F08D1439
:10016000A1C881CFD9F1AF200050726573732041CF
:100170000A20746F20626567696E2E002062792004
:1001800073657269736D616E0048414E474D414E13
:100190002100594F5520474F542049542100507297
:1001A000657373204120746F20636F6E74696E7580
:1001B000652E00594F5527524520444541442100A2
:1001C000080B000202020100090400000102020003
:1001D0000005240010010524010101042402060584
:1001E00024060001070581031000400904010002F4
:1001F0000A000000070502024000000705830240D4
:1002000000000403090412010002EF02014041232F
:10021000368000010102030141726475696E6F202E
:100220004C4C430041424C31333036004153415431
:1002300042454259444F474F48454946494E4E4F23
:100240004F464F4E4F52534F544F555041435441D8
:100250004952414C4C414E44414E54414E594152F9
:100260004D41525442414442414742454442454532
:10027000424954424F58424F5942555443415443C6
:100280004F57435259435550444159444F474452A4
:1002900059454152454747454E44455945464152C7
:1002A000464154464C59464F5247455447554E488F
:1002B0004154484F57494345494C4C494E4B4B4597
:1002C000594C41574C45474C45544C49504C4F575D
:1002D0004D414E4D41504D41594E45544E45574E5E
:1002E0004F544E4F574E55544F46464F494C4F4C26
:1002F000444F555450454E50494750494E504F5425
:10030000505554524154524159524544524F44520F
:10031000554252554E53414453415953454153451B
:1003200045534558534B59534F4E53554E544158CE
:1003300054484554494E544F45544F5055534557D2
:10034000415257415857415957455457484F5748BC
:1003500059594553594F5541424C454143494441F0
:1003600052434841524D59424142594241434B4206
:10037000414C4C42414E4442415345424154484213
:10038000454C4C42454E54424952444249544542E0
:100390004C4F57424C5545424F4154424F445942AD
:1003A0004F4E45424F4F4B424F4F5442554C4242A5
:1003B00055524E43414B45434152444341524543BC
:1003C0004152544348494E434F414C434F4154439B
:1003D0004F4C44434F4D42434F4D45434F4F4B438A
:1003E0004F5059434F5244434F524B4441524B4458
:1003F0004541444445415244454254444545504496
:100400004F4F52444F574E44524F5044555354450A
:10041000415354454447454556454E455645524639
:100420004143454641435446414C4C4641524D465A
:100430004541524649524546495348464C41474634
:100440004C4154464F4C44464F4F44464F4F544600
:100450004F524B464F524D464F574C4652454546DC
:10046000524F4D46554C4C4749524C4749564547CB
:100470004F4154474F4C44474F4F444752455947CB
:100480005249504841495248414E444841524448DB
:1004900041544548415645484541444845415248E4
:1004A00045415448454C5048494748484F4C4548B9
:1004B0004F4F4B484F5045484F524E484F55524969
:1004C00044454149524F4E4A4F494E4A554D504B73
:1004D0004545504B49434B4B494E444B4953534B75
:1004E0004E45454B4E4F544C414E444C4153544C59
:1004F0004154454C4541444C4541464C4546544C7D
:100500004946544C494B454C494E454C4953544C33
:100510004F434B4C4F4E474C4F4F4B4C4F53534C0C
:100520004F55444C4F56454D414B454D414C454D23
:1005300041524B4D4153534D45414C4D4541544D16
:10054000494C4B4D494E444D494E454D4953544DF0
:100550004F4F4E4D4F56454D5543484E41494C4ED9
:10056000414D454E4541524E45434B4E4545444E07
:100570004557534E4F53454E4F54454F4E4C594F90
:1005800050454E4F56454E4F5645525041474550A7
:1005900041494E5041525450415354504950455096
:1005A0004C4159504F4F5250554C4C50554D505056
:1005B0005553485241494C5241494E52415445527B
:1005C0004553545249434552494E47524F41445274
:1005D0004F4C4C524F4F46524F4F4D524F4F54522B
:1005E000554C45534146455341494C53414C545356
:1005F000414D4553414E4453454154534545445361
:1006000045454D53454C4653454E44534849505338
:10061000484F4553485554534944455349474E5311
:10062000494C4B53495A45534B494E534C495053EF
:100630004C4F57534E4F57534F4150534F434B53CB
:100640004F4654534F4D45534F4E47534F525453BB
:100650004F5550535441525354454D5354455053A4
:10066000544F50535543485357494D5441494C54A6
:10067000414B4554414C4B54414C4C5445535454BC
:1006800048414E544841545448454E5448494E54AC
:1006900048495354494C4C54494D45544F574E5476
:1006A00052415954524545545255455455524E5550
:1006B0004E4954564552595649455757414C4B5748
:1006C000414C4C5741524D5741534857415645575D
:1006D00045454B57454C4C574553545748454E5745
:1006E0004849505749444557494C4C57494E44573F
:1006F000494E4557494E4757495245574953455723
:10070000495448574F4F44574F4F4C574F524457F7
:100710004F524B574F524D5945415241424F5554FC
:100720004146544552414741494E414D4F4E474144
:100730004E474C45414E4752594150504C45415708
:10074000414B45424153494E42455252594249520A
:100750005448424C41434B424C414445424C4F4F1C
:1007600044424F415244425241494E4252414B450C
:1007700042524153534252454144425249434B42F3
:10078000524F574E4252555348425552535443418B
:10079000555345434841494E4348414C4B434845D6
:1007A000415043484553544348494546434C4541CD
:1007B0004E434C454152434C4F434B434C4F54489E
:1007C000434C4F5544434F554748434F564552437A
:1007D0005241434B4352494D45435255454C435278
:1007E000555348435552564544454154484449524F
:1007F0005459444F554254445241494E4452455332
:10080000534452494E4B4541524C5945415254482C
:10081000455155414C4552524F524556454E54450F
:100820005645525946414C53454649454C44464924
:1008300047485446495253544649584544464C410A
:100840004D45464C4F4F52464F5243454652414DFF
:100850004546524F4E544652554954474C415353C6
:10086000474C4F5645475241494E475241535347D3
:1008700052454154475245454E47524F55504755B2
:1008800049444548415050594845415254484F52B7
:100890005345484F5553454A454C4C594A45574591
:1008A0004C4A554447454B4E4946454C41554748AF
:1008B0004C4556454C4C494748544C494D49544C7D
:1008C000494E454E4C4F4F53454D415443484D457D
:1008D00054414C4D495845444D4F4E45594D4F4E4E
:1008E00054484D4F5554484D555349434E45525623
:1008F000454E494748544E4F4953454E4F52544830
:100900004F464645524F524445524F544845524F28
:10091000574E45525041494E545041504552504116
:100920005354455045414345504C414345504C413B
:100930004E45504C414E54504C415445504F494EF9
:1009400054504F57455250524943455052494E54C6
:1009500050524F5345515549434B515549455451B8
:100960005549544552414E474552454144595249D3
:100970004748545249564552524F554748524F5591
:100980004E445343414C45534352455753454E53B0
:100990004553484144455348414B455348414D45D3
:1009A000534841525053484545505348454C46538F
:1009B0004849525453484F434B53484F5254534B5A
:1009C000495254534C454550534C4F5045534D415B
:1009D0004C4C534D415348534D454C4C534D494C51
:1009E00045534D4F4B45534E414B45534F4C494456
:1009F000534F554E44534F5554485350414345531C
:100A00005041444553504F4F4E5354414745535422
:100A1000414D505354415254535445414D53544504
:100A2000454C535449434B53544946465354494CFF
:100A30004C53544F4E4553544F524553544F5259B3
:100A4000535547415253574545545441424C4554E0
:100A5000415354455448455245544849434B5448E2
:100A6000494E475448554D425449474854544952B9
:100A70004544544F4F5448544F55434854524144B1
:100A800045545241494E545249434B54574953548B
:100A9000554E44455256414C554556455253455680
:100AA0004F49434557415354455741544348574193
:100AB000544552574845454C574845524557484973
:100AC0004C455748495445574F4D414E574F554E49
:100AD0004457524F4E47594F554E474143524F533B
:100AE00053414C4D4F5354414D4F554E54414E4937
:100AF0004D414C414E5357455241545441434B4252
:100B000041534B45544245464F524542454C494559
:100B100046424954544552424F54544C4542524126
:100B20004E43484252454154484252494447454247
:100B3000524947485442524F4B454E4255434B450C
:100B400054425554544552425554544F4E43414DCE
:100B500045524143414E5641534348414E4345431C
:100B600048414E4745434845455345434855524300
:100B700048434952434C45434F4C4C4152434F4CE0
:100B80004F5552434F4D4D4F4E434F50504552439A
:100B90004F54544F4E43524544495444414D4147AC
:100BA0004544414E474552444547524545444553C7
:100BB00049474E44455349524544455441494C44A4
:100BC0005241574552454646454354454E47494E86
:100BD00045454E4F55474845585045525446414D5E
:100BE000494C59464154484552464545424C454674
:100BF000454D414C4546494E474552464C4947486C
:100C000054464C4F574552465249454E444655541A
:100C100055524547415244454E47524F5754484814
:100C2000414D4D4552484F4C4C4F5748554D4F55EF
:100C300052494E5345435449534C414E444B4554FD
:100C4000544C454C45545445524C49515549444CDB
:100C50004954544C454C4956494E474D41524B45D9
:100C6000544D454D4F52594D4944444C454D494EC4
:100C70005554454D4F4E4B45594D4F544845524D97
:100C80004F54494F4E4D5553434C454E4152524F90
:100C9000574E4154494F4E4E4545444C454E4F5298
:100CA0004D414C4E554D4245524F46464943454FA6
:100CB00052414E474550415243454C50454E4349A1
:100CC0004C504552534F4E504C45415345504C4F5C
:100CD000554748504F434B4554504F49534F4E5042
:100CE0004F4C495348504F52544552504F54415421
:100CF0004F504F57444552505249534F4E50524F08
:100D00004649545055424C4943524541534F4E5227
:100D100045434F524452454752455452455741521C
:100D20004452485954484D5343484F4F4C53454300
:100D30004F4E4453454352455453494C56455253E4
:100D4000494D504C45534953544552534D4F4F54C0
:100D500048534E45455A4553504F4E4745535052C0
:100D6000494E47535155415245535449434B5953AA
:100D700054495443485354524545545354524F4E8A
:100D80004753554444454E53554D4D455253595381
:100D900054454D5448454F52595448524541445486
:100DA00048524F41545449434B4554544F4E475574
:100DB0004556455353454C57454947485457494E66
:100DC000444F5757494E54455259454C4C4F574143
:100DD00043434F554E54414741494E535441545457
:100DE000454D505442414C414E4345424543415587
:100DF00053454245545745454E424F494C494E474D
:100E000042524F544845524345525441494E434F34
:100E10004D464F5254434F4D50414E59434F4D5004
:100E20004C4558434F4E54524F4C434F554E5452DD
:100E30005943555252454E544355525441494E43DD
:100E4000555348494F4E44495345415345444953EE
:100E50004755535444524956494E47454C415354C3
:100E600049434558414D504C4546454154484552EB
:100E70004645454C494E4746455254494C454649DE
:100E80004354494F4E464F4F4C495348464F525793
:100E900041524447454E4552414C48414E47494EC8
:100EA00047484152424F55524841524D4F4E594882
:100EB00045414C54485948454152494E4748495389
:100EC000544F5259494D50554C53454A4F55524E27
:100ED00045594C4541544845524C4942524152595A
:100EE0004D414348494E454D414E414745524D4184
:100EF00052524945444D4541535552454D4544494B
:100F000043414C4D454554494E474D4F524E494E35
:100F1000474E41545552414C4F50494E494F4E5007
:100F200041594D454E5450494354555245505245F0
:100F300053454E545052495641544550524F4345E3
:100F4000535350524F4455434550524F54455354B8
:100F5000505552504F53455155414C4954595245A3
:100F60004144494E475245434549505452454755DF
:100F70004C415252455155455354524553504543A7
:100F800054534349454E4345534552494F55535396
:100F9000455256414E54534F434945545953504579
:100FA0004349414C53544154494F4E53544F4D4182
:100FB0004348535452414E47455354524554434875
:100FC000535550504F525454484F55474854544825
:100FD000524F5547485448554E44455254524F5528
:100FE000424C4556494F4C454E5457414954494E41
:100FF000475745415448455257484953544C455723
:10100000524954494E47414E44524F494441444449
:101010004954494F4E415050524F56414C4152470E
:10102000554D454E544255494C44494E47425553FF
:10103000494E455353434152524941474543484520
:101040004D4943414C434F4D504C45544544415507
:1010500047485445524445434953494F4E44454CF3
:10106000494341544544495354414E4345444956EC
:101070004953494F4E454C454354524943455843C3
:1010800048414E47454652455155454E54484F53A9
:10109000504954414C494E435245415345494E44B1
:1010A0005553545259494E5445524553544C414E50
:1010B00047554147454C4541524E494E474D415495
:1010C000455249414C4D494C49544152594D4F5557
:1010D0004E5441494E4F50504F534954454F524E34
:1010E000414D454E54504152414C4C454C5048594D
:1010F000534943414C504C454153555245504F5331
:101100004954494F4E504F535349424C4550524F0A
:101110004241424C4550524F504552545951554509
:101120005354494F4E5245414354494F4E52454CFA
:101130004154494F4E52454C4947494F4E534349FC
:1011400053534F5253534550415241544553544FBA
:10115000434B494E475354524149474854535552C3
:1011600050524953455445414348494E4754454ED2
:1011700044454E4359544F474554484552544F4DAA
:101180004F52524F5754524F5553455253554D425B
:1011900052454C4C414245524E4841524400001089
:1011A00059F1C07E52320102040810204080000034
:1011B0000000003E5B4F5B3E3E6B4F6B3E1C3E7C37
:1011C0003E1C183C7E3C181C577D571C1C5E7F5EE5
:1011D0001C00183C1800FFE7C3E7FF0018241800A4
:1011E000FFE7DBE7FF30483A060E2629792926403B
:1011F0007F050507407F05253F5A3CE73C5A7F3E67
:101200001C1C08081C1C3E7F14227F22145F5F00F8
:101210005F5F06097F017F006689956A6060606094
:101220006094A2FFA29408047E040810207E20107F
:1012300008082A1C08081C2A08081E101010100C88
:101240001E0C1E0C30383E3830060E3E0E060000D6
:1012500000000000005F00000007000700147F147A
:101260007F14242A7F2A12231308646236495620E9
:10127000500008070300001C2241000041221C000E
:101280002A1C7F1C2A08083E0808008070300008CD
:1012900008080808000060600020100804023E51A1
:1012A00049453E00427F4000724949494621414933
:1012B0004D331814127F1027454545393C4A49499A
:1012C0003141211109073649494936464949291E04
:1012D00000001400000040340000000814224114F3
:1012E00014141414004122140802015909063E4145
:1012F0005D594E7C1211127C7F494949363E41416D
:1013000041227F4141413E7F494949417F090909C5
:10131000013E414151737F0808087F00417F410031
:101320002040413F017F081422417F404040407FE0
:10133000021C027F7F0408107F3E4141413E7F092D
:101340000909063E4151215E7F091929462649496E
:10135000493203017F01033F4040403F1F204020AE
:101360001F3F4038403F63140814630304780403AC
:101370006159494D43007F4141410204081020005A
:101380004141417F040201020440404040400003CB
:1013900007080020545478407F2844443838444497
:1013A0004428384444287F385454541800087E098F
:1013B0000218A4A49C787F0804047800447D4000AF
:1013C0002040403D007F1028440000417F40007CC9
:1013D000047804787C080404783844444438FC18C1
:1013E00024241818242418FC7C08040408485454A5
:1013F000542404043F44243C4040207C1C204020D2
:101400001C3C4030403C44281028444C9090907C38
:101410004464544C4400083641000000770000004A
:101420004136080002010204023C2623263C1EA18C
:10143000A161123A4040207A3854545559215555EB
:10144000794121545478412155547840205455799C
:10145000400C1E527212395555555939545454592D
:1014600039555454580000457C410002457D4200E6
:1014700001457C40F0292429F0F0282528F07C54EF
:101480005545002054547C547C0A097F493249490F
:1014900049323248484832324A4848303A4141217C
:1014A0007A3A42402078009DA0A07D3944444439D6
:1014B0003D4040403D3C24FF2424487E4943662B68
:1014C0002FFC2F2BFF0929F620C0887E090320540A
:1014D0005479410000447D413048484A3238404008
:1014E000227A007A0A0A727D0D19317D2629292F68
:1014F00028262929292630484D4020380808080880
:1015000008080808382F10C8ACBA2F102834FA0081
:10151000007B000008142A142222142A14089500C3
:10152000220095AA005500AAAA55AA55AA000000B3
:10153000FF00101010FF00141414FF001010FF0023
:10154000FF1010F010F0141414FC001414F700FF36
:101550000000FF00FF1414F404FC141417101F10F3
:10156000101F101F1414141F00101010F0000000A2
:10157000001F101010101F10101010F010000000AD
:10158000FF101010101010101010FF10000000FFBE
:10159000140000FF00FF00001F10170000FC04F4FF
:1015A00014141710171414F404F40000FF00F714B7
:1015B000141414141414F700F7141414171410103E
:1015C0001F101F141414F4141010F010F000001F5A
:1015D000101F0000001F14000000FC140000F01099
:1015E000F01010FF10FF141414FF141010101F003F
:1015F000000000F010FFFFFFFFFFF0F0F0F0F0FF41
:10160000FFFF0000000000FFFF0F0F0F0F0F384417
:101610004438447C2A2A3E147E02020606027E02D8
:101620007E0263554941633844443C04407E201E99
:101630002006027E020299A5E7A5991C2A492A1CC8
:101640004C7201724C304A4D4D303048784830BCB5
:10165000625A463D3E494949007E0101017E2A2ADF
:101660002A2A2A44445F444440514A444040444A60
:1016700051400000FF0103E080FF000008086B6B91
:10168000083612362436060F090F06000018180017
:1016900000001010003040FF0101001F01011E007A
:1016A000191D1712003C3C3C3C0000000000C4190E
:1016B00011241FBECFEFDAE0DEBFCDBF11E0A0E006
:1016C000B1E0E2EEF6E302C005900D92A034B1075E
:1016D000D9F725E0A0E4B1E001C01D92A03FB20718
:1016E000E1F71BE0C8E5DBE004C02197FE010E94A2
:1016F000641BC735D107C9F70E9484150C946F1B72
:101700000C940000FC0180917601811103C08FEFE1
:101710009FEF08959FB7F89482E08093E9002091AD
:10172000F20030E01216130614F421E030E0211527
:10173000310559F0289884E6809375018091F10075
:1017400080838091F200882319F09FBFC90108951A
:101750008BE68093E800F9CF2FB7F89483E080936D
:10176000E9009091E800892F807295FF04C0909164
:10177000F20080E4891B2FBF0895809193058111A9
:101780000DC082E080938F0584E0809390051092D5
:1017900092051092910581E0809393058FE895E082
:1017A0000895CF93DF931F92CDB7DEB76983DC0135
:1017B000ED91FC910280F381E02D41E050E0BE010B
:1017C0006F5F7F4F09950F90DF91CF91089583E070
:1017D0008093E9008091F200882319F08AE38093D6
:1017E000E80008950E94AC0B90E00895CF93DF933A
:1017F0001F92CDB7DEB7FC018485958597FD05C0A6
:101800002FEF3FEF358724870BC0CE0101960E9452
:10181000820B019719F4898190E002C08FEF9FEF4E
:101820000F90DF91CF9108950F931F93CF93DF9384
:101830001F92CDB7DEB78C01FC018485958597FF9B
:101840000EC0CE0101960E94820B019719F42981E6
:1018500030E002C02FEF3FEFF80135872487F80111
:10186000848595850F90DF91CF911F910F910895F9
:10187000FC018485958597FD0BC09FB7F89482E0A5
:101880008093E9008091F2009FBF90E00196089557
:101890009FB7F89482E08093E9008091F2009FBFA7
:1018A00090E008958F929F92AF92BF92CF92DF9275
:1018B000EF92FF920F931F93CF93DF935C016B0125
:1018C0007A0180910B01882309F45BC08091760135
:1018D000882309F456C08091740180FF05C080916F
:1018E000E00082608093E000E70110E00AEF83E00F
:1018F000882E9AE3992E2097D9F10E94AC0B811182
:101900000AC0015009F43DC061E070E080E090E061
:101910000E941F11F0CF282F30E0C217D3070CF41C
:101920008C2F4FB7F8948092E9009091E80095FFD2
:101930001DC0282F30E0C21BD30BF601982F915009
:1019400020F081918093F100FACFC20ED31E1123B3
:1019500019F09092E80009C08091E80085FD06C06A
:101960009092E80011E0209709F010E04FBFC3CF3C
:101970001111C3CF5D9884E680938E051E141F0459
:1019800044F081E090E0F5019383828380E090E071
:1019900001C0C701DF91CF911F910F91FF90EF9090
:1019A000DF90CF90BF90AF909F908F900895DF927F
:1019B000EF92FF920F931F93CF93DF93D82E8A015C
:1019C0007B01E40EF51EEB01CE15DF0571F0D7FEAD
:1019D00003C0FE01849101C088810E9449152196AF
:1019E0008111F2CF8FEF9FEF01C0C801DF91CF913E
:1019F0001F910F91FF90EF90DF9008950F931F9329
:101A0000CF93DF931F92CDB7DEB782E0898342E4A4
:101A100050E060EC71E080E80E94D70C0E94BD0BA2
:101A2000DC0112960D911C9113970115110569F0B7
:101A3000D801ED91FC910280F381E02DBE016F5F32
:101A40007F4FC801099597FF07C089810F90DF91EB
:101A5000CF911F910F910895F80100851185E5CF71
:101A6000E7E7F1E0A0E0B8E000800EBC8111012CB6
:101A70001197A0FDFDCF0192B9F70DB408950F9312
:101A80001F93CF93DF938C01C0E0D0E0F801EC0FFF
:101A9000FD1F6491662371F0E0917705F091780560
:101AA0000190F081E02D87E795E00995892B11F0F1
:101AB0002196ECCFCE01DF91CF911F910F91089528
:101AC0009C01240F311D1216130674F58038910500
:101AD0005CF5FC0197FF02C0E0E0F0E02138310541
:101AE00014F020E830E02E1BAB014770552781E051
:101AF00001C0880F4A95EAF777FF02C0695F7F4F00
:101B000093E0759567959A95E1F77695762F662718
:101B100077956795E60FF71FE958FE4F215020F0A3
:101B20009081982B9193FACF08955F926F927F9254
:101B30008F929F92AF92BF92CF92DF92EF92FF92DD
:101B40000F931F93CF93DF93EC018B019A01261B18
:101B5000370B37FF03C03195219531098EE590E0B1
:101B60008C1B9D0B97FF03C091958195910955247E
:101B70005394821793072CF0512C9EE5E92EF12CFB
:101B800008C07A019C2F8D2FE801092F182F4EE5F0
:101B900050E0EC16FD0654F4902F812F8A01492F56
:101BA000582F9C2F8D2FE701E92EF82E37016C1A44
:101BB0007D0A5A01A01AB10AB7FE03C0B194A194DC
:101BC000B108630177FE03C08FEFC81AD80AD59415
:101BD000C7940417150714F08FEF01C081E0882E19
:101BE000880F9908EC16FD06B4F021E0552019F095
:101BF000AE01B80102C0A801BE018BE795E00E94CA
:101C0000B911CA18DB08D7FE04C0080D191DC60C8F
:101C1000D71C2196E7CFDF91CF911F910F91FF90B5
:101C2000EF90DF90CF90BF90AF909F908F907F907C
:101C30006F905F90089520918105282329F4909159
:101C40008005982381E009F480E008951F920F92A7
:101C50000FB60F9211248F939F938091E100909182
:101C6000E100937F9093E10083FF0FC01092E900A1
:101C700091E09093EB001092EC0092E39093ED00D2
:101C80001092760198E09093F00082FF20C093E0DC
:101C90009093E9009091F200992319F09AE39093C0
:101CA000E80090918E05992339F090918E0591501E
:101CB00090938E05992389F190917501992339F0BC
:101CC00090917501915090937501992341F184FF92
:101CD00010C08091E2008E7E81608093E20080914E
:101CE000E1008F7E8093E100809174018E7E80619F
:101CF00011C080FF16C08091E2008E7E80618093CB
:101D0000E2008091E1008E7E8093E1008091740179
:101D10008E7E81608093740104C05D9ACDCF289A35
:101D2000D6CF9F918F910F900FBE0F901F90189557
:101D30001F920F920FB60F921124CF92DF92EF9263
:101D4000FF920F931F932F933F934F935F936F9344
:101D50007F938F939F93AF93BF93EF93FF93CF9313
:101D6000DF93CDB7DEB76C97DEBFCDBF1092E90031
:101D70008091E80083FFEDC168E0CE0145960E94A6
:101D8000771582EF8093E8008D8987FF05C09091D9
:101D9000E80090FFFCCF03C09EEF9093E800982FDF
:101DA000907609F0C6C09E892F89188D91110CC0BC
:101DB000803829F4809173018093F10002C0109261
:101DC000F1001092F10048C1422F50E0512B9130A8
:101DD00051F4811141C14130510509F03DC180915B
:101DE00073018D7F0BC0933061F4811135C1413097
:101DF000510509F031C180917301826080937301B4
:101E00002BC1953041F48091E80080FFFCCF206821
:101E10002093E30021C1963009F05FC0EB8CFC8C6D
:101E20001092E9001092710110927001123091F538
:101E300010926F0110926E010E94FE0C99E0BE019B
:101E40006F5F7F4FDB01E92F1D92EA95E9F79983D8
:101E50001A8391E09E8390EA98879AEF9987209160
:101E6000700130917101275F3F4F3C832B838D833D
:101E70001092E9001092710110927001F0926F01BE
:101E8000E0926E0149E050E080E00E94D70C0E9491
:101E9000FE0CE2C0F0926F01E0926E010E94BD0B59
:101EA000DC011296ED90FC901397E114F10409F413
:101EB000C0C0D701ED91FC910480F581E02DBE01F9
:101EC0006B5E7F4FC7010995009719F00CF0C4C0F5
:101ED000C7C0F701E084F184E8CF973009F4C0C0AF
:101EE000983021F481E08093F100B6C0993009F078
:101EF000B3C0837009F0B4C0E3E1F1E081E021E018
:101F000036E39081992361F08093E9002093EB0000
:101F100091919093EC003093ED008F5F873089F7BB
:101F20008EE78093EA001092EA008F898093760111
:101F300093C08B8D9C8D1092E900109271011092CC
:101F4000700190936F0180936E01898D811156C04D
:101F50008E899D89913A59F4813209F081C047E018
:101F600050E064E071E080E00E94D70C75C09132CF
:101F700009F076C0833289F4888D90E0982F882705
:101F80002F89822BA0E0B0E08093000190930101A3
:101F9000A0930201B09303015FC0803269F4809185
:101FA000E80082FFFCCF67E084E091E00E947715B3
:101FB0008BEF8093E80006C0823209F04DC08F8914
:101FC00080930B0180917201882319F0EEEFFAE003
:101FD00002C0E0E0F8E08091040190910501A09139
:101FE0000601B0910701803B9440A105B10509F0BD
:101FF0007BC080910B0180FF93C076C00E94BD0B17
:10200000DC0112960D911C9113970115110541F1F8
:10201000D801ED91FC910190F081E02DBE016B5E45
:102020007F4FC8010995811117C0F80100851185FE
:10203000ECCF113009F44EC0133091F48F8988230E
:1020400009F445C0823081F440E867E084E292E020
:102050000E948719882321F08EEF8093E80079C0D1
:1020600081E28093EB0075C0813029F440E86BE099
:1020700088E192E0EDCF833099F70E94BD0BDC013F
:102080001296ED90FC9013978E010F5F1F4F680121
:10209000E114F10479F0D701ED91FC910680F7810C
:1020A000E02DB801C7010995080F111DF701E08463
:1020B000F184EECFD8011C92F60101900020E9F7DF
:1020C0003197BF016C197D0940E0C601C1CF62E0C4
:1020D00072E002C066E072E06115710509F2FB0171
:1020E000449150E080E840CF0FB6F894A8958091D5
:1020F0006000886180936000109260000FBEA89518
:10210000EE3F2AE0F20739F08091FE0A9091FF0A33
:1021100091838083A1CF1092FF0A1092FE0A9CCF78
:10212000EE3F8AE0F80731F0808191819093FF0AB9
:102130008093FE0A87E797E7918380839BE088E19D
:102140000FB6F894A895809360000FBE909360003E
:1021500083CF6C960FB6F894DEBF0FBECDBFDF9174
:10216000CF91FF91EF91BF91AF919F918F917F910F
:102170006F915F914F913F912F911F910F91FF9020
:10218000EF90DF90CF900F900FBE0F901F9018959B
:10219000CF92DF92EF92FF920F931F93CF93DF9333
:1021A0006C017A018B01C0E0D0E0CE15DF0589F02B
:1021B000D8016D918D01D601ED91FC910190F081D6
:1021C000E02DC6010995892B11F47E0102C02196EC
:1021D000ECCFC701DF91CF911F910F91FF90EF904E
:1021E000DF90CF9008953FB7F8948091EC059091DF
:1021F000ED05A091EE05B091EF0526B5A89B05C0B1
:102200002F3F19F00196A11DB11D3FBFBA2FA92F75
:10221000982F8827820F911DA11DB11DBC01CD01F2
:1022200042E0660F771F881F991F4A95D1F70895DE
:102230000895089580E090E008950E946A1B8F92AF
:102240009F92AF92BF92CF92DF92EF92FF926B017B
:102250007C010E94F3104B015C01C114D104E10424
:10226000F104F1F00E94F310DC01CB018819990907
:10227000AA09BB09883E9340A105B10570F321E08E
:10228000C21AD108E108F10888EE880E83E0981E92
:10229000A11CB11CC114D104E104F10419F7DDCF74
:1022A000FF90EF90DF90CF90BF90AF909F908F9076
:1022B00008951F920F920FB60F9211242F933F9300
:1022C0008F939F93AF93BF93809140019091410171
:1022D000A0914201B09143013091EB0523E0230F1F
:1022E0002D3720F40196A11DB11D05C026E8230F4E
:1022F0000296A11DB11D2093EB05809340019093A0
:102300004101A0934201B09343018091EC0590916B
:10231000ED05A091EE05B091EF050196A11DB11D4F
:102320008093EC059093ED05A093EE05B093EF0537
:10233000BF91AF919F918F913F912F910F900FBEC1
:102340000F901F9018952D9A0895BC0180E090E0A1
:102350000C941F118FB18095807F669B88601C9BB9
:102360008460089581E083BF889513BE08950C941E
:10237000CB1A60387105D0F440345105B8F4E6EA60
:10238000F1E180E1849FD001A0781124A60F47706D
:10239000E40FF11D8491A958BE4F222319F06C91CE
:1023A000862B03C080956C9186238C9308952F9281
:1023B0003F924F925F926F927F928F929F92AF92D5
:1023C000BF92CF92DF92EF92FF920F931F93CF9322
:1023D000DF93CDB7DEB729970FB6F894DEBF0FBEF7
:1023E000CDBFFC016A3069F425898189928938E082
:1023F000239F800D911D1124928B818B108A17864B
:10240000AAC06D3009F4A7C099878887F5883488F9
:102410002388618872880785108900381105C4F007
:10242000A885B98555962C915597422F50E01F9657
:102430008D919C915097B6E02B9F800D911D11249A
:10244000E885F985908B8787268921116EC083C026
:10245000F0E46F16710424F7C80125E0F29E800DA8
:10246000911D112418161906DCF68F2D90E09C831F
:102470008B83C301A8E0FA9E800D911D11241816CC
:10248000190674F6B5E06B9FB0011124FB01E2550B
:10249000FE4EFA83E98330E08885998504969E8311
:1024A0008D83E981FA81E490353009F4E12C430110
:1024B00088E0482EE0FC02C0532C01C0522C511081
:1024C0000BC0321009C0E6944A948B819C81880E1F
:1024D000991E4110EFCF1BC068018C2D801B8F15FA
:1024E00090F754018A2D88198F1568F4252DA501C0
:1024F000B6018D819E813F830E94B9119FEFA91A79
:10250000B90A3F81EFCFAFEFCA1ADA0AE6CF3F5FD1
:10251000EB81FC810E0F1F1F89819A8101969A839E
:102520008983363009F0BDCF7BCF6AEF6403900119
:10253000659F300D112420583F4F281739075CF450
:10254000A885B985ED91FC9111970190F081E02D5E
:102550006AE0CD01099581E090E029960FB6F894E4
:10256000DEBF0FBECDBFDF91CF911F910F91FF90C6
:10257000EF90DF90CF90BF90AF909F908F907F9023
:102580006F905F904F903F902F900895EF92FF9241
:102590000F931F93CF93DF93C0E0D0E007E411E0E7
:1025A0008AE0E82EF12CF80101900020E9F731973C
:1025B000E754F1408C2F90E08E179F0758F5FC01EF
:1025C000E95BFE4F6081E62F062E000CFF0BE15FFA
:1025D000FE4F20818D2F90E0213099F49093870554
:1025E00080938605F0928905E0928805E091770551
:1025F000F09178050190F081E02D87E795E009954D
:1026000006C047E063E170E001970E94600DD75F6C
:10261000CF5FC9CFDF91CF911F910F91FF90EF90C6
:1026200008952F923F924F925F926F927F928F9276
:102630009F92AF92BF92CF92DF92EF92FF920F9351
:102640001F93CF93DF9308E510E0CDE3D0E021E0C6
:10265000AE01B8018BE795E00E94B9112196C03414
:10266000D105A9F70F5F1F4F0038110571F701E77A
:1026700010E0C0E0D0E021E0AE01B8018BE795E0CA
:102680000E94B9112196C034D105A9F70F5F1F4FE1
:102690000437110571F70DE510E0C0E0D0E021E04E
:1026A000AE01B8018BE795E00E94B9112196C330C5
:1026B000D105A9F70F5F1F4F0137110571F70DE520
:1026C00010E0C0E0D0E021E0AE01B8018BE795E07A
:1026D0000E94B9112196CA30D105A9F70F5F1F4F8B
:1026E0000036110571F780914401811106C0809177
:1026F0004401823008F0A3C0B0C021E044E150E0C2
:102700006EE570E08BE795E00E94B91121E04AE0A8
:1027100050E06EE570E08BE795E00E94B91121E092
:102720004FE050E063E670E08BE795E00E94B9115E
:1027300021E04FE050E069E570E08BE795E00E9412
:10274000B91144244394512C00E010E0C5E0D0E0DE
:1027500036EF632E77247A944CEFE42EFF24FA941C
:102760005EE5252E312C0F5F1F4F82E0480E511C75
:10277000E40CF51C48018EE5880E911C21E06E01E9
:102780008FE0C80ED11CA601B4018BE795E00E9432
:10279000B9115101A01AB10A21E0A601B5018BE7D8
:1027A00095E00E94B91121E08FE0C82ED12CCC1AFF
:1027B000DD0AA601B4018BE795E00E94B91121E082
:1027C000A601B5018BE795E00E94B91168018FE081
:1027D000C80ED11C21E0A6015E018EE5A80EB11C39
:1027E000B5018BE795E00E94B91121E0A6016101D6
:1027F000CC1ADD0AB6018BE795E00E94B9119FE083
:10280000892E912C801A910A21E0A401B5018BE751
:1028100095E00E94B91121E0A401B6018BE795E093
:102820000E94B9110C171D070CF061CFF7FC9BCF6C
:10283000219782E0680E711CE60CF71C94CFC4E16E
:10284000D0E021E0AE016EE570E08BE795E00E94FC
:10285000B9112196C832D105A1F780914401833086
:1028600040F049E150E066E170E083E590E00E94CD
:10287000950D80914401843040F049E150E066E1DB
:1028800070E089E690E00E94950D809144018530CA
:1028900040F048E250E064E370E083E590E00E949D
:1028A000950D809144018630D0F048E250E064E319
:1028B00070E089E690E0DF91CF911F910F91FF903A
:1028C000EF90DF90CF90BF90AF909F908F907F90D0
:1028D0006F905F904F903F902F900C94950DDF91EB
:1028E000CF911F910F91FF90EF90DF90CF90BF900D
:1028F000AF909F908F907F906F905F904F903F90A0
:102900002F9008950F931F93CF93DF93CDB7DEB72A
:102910002C970FB6F894DEBF0FBECDBF4AE08E01F4
:102920000F5F1F4FB80180914501909146010E94B1
:10293000961AF80101900020E9F73197E01BF10B9E
:10294000A7E7B5E086E08E9F90018F9F300D1124A0
:102950008EE490E0821B930B50969C938E931F976E
:1029600052961C921E925197F80101900020E9F7AF
:102970003197AF01401B510BB801CD010E94C81027
:102980002C960FB6F894DEBF0FBECDBFDF91CF916E
:102990001F910F910895CF92DF92EF92FF92CF9304
:1029A0002FB7F894609140017091410180914201EC
:1029B000909143012FBF611571058105910511F0BB
:1029C0000E948D1A8CE1C82E83E0D82EE12CF12CC8
:1029D0000E94881AA70196010E94E11AAB01E091BA
:1029E0000C01F0910D016E177F0791F370930D01AB
:1029F00060930C0182E090E060E070E0C82FFC0181
:102A0000E356FE4E249130E04217530788F529E043
:102A1000E7E4F1E0DF011D922A95E9F7849F900138
:102A2000859F300D949F300D1124F901E60FF71F9B
:102A3000E45DFD4F27E431E0D90184918D93319617
:102A40008A2F821B8C17C8F310926A0110924401DE
:102A50008AE1E0E5F1E0DF011D928A95E9F781E086
:102A600080936B01CF91FF90EF90DF90CF9008950E
:102A7000421B530B289FF001299FF00D389FF00D4A
:102A800011246E0F7F1F01968930910509F0B6CF92
:102A9000DBCF409170015091710120916E01309116
:102AA0006F0142175307B4F49091E8009570E1F379
:102AB0009091E80092FD19C08093F100809170011F
:102AC0009091710101968F739927892B19F48EEFDC
:102AD0008093E8008091700190917101019690932C
:102AE00071018093700181E0089580E00895615044
:102AF00030F02091F100FC0120830196F8CF289856
:102B000084E6809375010895CF93DF9300D0CDB70D
:102B1000DEB7789484B5826084BD84B5816084BD5D
:102B200085B5826085BD85B5816085BD80916E006B
:102B3000816080936E00109281008091810082609C
:102B400080938100809181008160809381008091D9
:102B500080008160809380008091910082608093EA
:102B6000910080919100816080939100809190000C
:102B70008160809390008091C10084608093C10047
:102B80008091C10082608093C1008091C10081600A
:102B90008093C1008091C30081608093C3008091C5
:102BA000C00082608093C0008091C20081608093E9
:102BB000C20080917A00846080937A0080917A00CC
:102BC000826080937A0080917A00816080937A009D
:102BD00080917A00806880937A001092760110923A
:102BE0007301109274018091D70081608093D700A7
:102BF00080EA8093D80089B5806189BD89B58260FB
:102C000089BD09B400FEFDCF61E070E080E090E096
:102C10000E941F118091D8008F7C80618093D80022
:102C20008091E000807F8093E0008091E1008E7EC3
:102C30008093E1008DE08093E200559A209AEEEFB8
:102C4000FFE7859194918B3F9C4D19F481E080932F
:102C5000720181EC80937C0081EF85B987EE84B9A5
:102C600084E38BB984EF8AB9769A6E9880EF81BB42
:102C700010BA80E58CBD81E08DBD85E090E00E94BA
:102C8000A5115F9902C05F9AF8CF5C98ECE5F1E07E
:102C90009DE085918EBD00000DB407FEFDCF8EB581
:102CA0009A95B9F75C9A81E88093640081E08093FB
:102CB00065000E94300D0E94AA1187FF23C05C9816
:102CC00085EA8EBD00000DB407FEFDCF8EB55C9A7F
:102CD0002E982F982D9880916400806280936400D4
:102CE0000E94B211FDCF2D980E94AA1184788438D9
:102CF00071F00E94AA118471843131F188EC90E066
:102D00000E94A5110E94AA1182FDEDCF3AC00E9437
:102D1000A31188EC90E00E94A5112F9882E090E02A
:102D20000E94CB1A8F3F29F06FEF82E090E00E9463
:102D3000D31A84EF91E00E94A5112F9A0E94AA1144
:102D400084788438D9F3D5CF0E94A31188EC90E021
:102D50000E94A5112E9882E090E00E94CB1A882351
:102D600029F060E082E090E00E94D31A84EF91E0C5
:102D70000E94A5112E9A0E94AA1184718431D9F360
:102D8000BDCF0E94A31182E090E00E94CB1A88235D
:102D900031F03E9A3F9A81E080936C0104C010921A
:102DA0006C013E983F9881E090E00E94B71182FB51
:102DB000992490F881FF92C091102E9860EF462ED2
:102DC00055245A9408E010E00E94AA1186FF04C01E
:102DD0002E9A2F9A2D9A82C0992031F044E0441601
:102DE000510411F42E9A2F9881E00E94300D920127
:102DF00057FE04C0222733272419350927703327AB
:102E0000C20157FC079653E0959587955A95E1F7CF
:102E100057FE05C00197F801E21BF30B9F017C01EF
:102E2000F694FE2CEE24F794E79460E070E038010D
:102E3000621A730AA70140585F4F5A018F3F5FEF34
:102E4000950744F40196685A7F4F7501603B710500
:102E500089F721C0D701A55FBD4F40E050E08F3F0B
:102E6000EFEF9E0709F435C2FA01E60FF71FE455AC
:102E7000FF4FE4916D01CA18DB08CE0CDF1CF0E0B7
:102E80001F01022E01C0220C0A94EAF7F60180808D
:102E9000282820821EC280E00E94300D8FE090E042
:102EA0000E94A511FFEF4F1A5F0A29E14216510453
:102EB00009F08ACF992011F02F9A2D9880E991E09E
:102EC0000E94A5110E94A311E0917B05F0917C0561
:102ED0000190F081E02D8BE795E0099582E390E089
:102EE0000E94A5110E94AA118111F8CF81E280935E
:102EF00082050AE010E020E3622E712C33E2E32E1B
:102F0000F12C4424439490E0292E90E0392E8FB781
:102F1000F8944091400150914101609142017091BB
:102F200043018FBF80918305942F981B892FD090E8
:102F30008405DD2029F09093850510928405E4C175
:102F400090918205891738F48F5F891708F0DCC1EA
:102F50000E94B211D9C140928405409383058091AB
:102F60007E0590917F05019690937F0580937E0565
:102F700080918005809381050E94AA11809380052D
:102F80009D2DE7E7F1E091119FEF8FEF91939193E2
:102F9000919391938150D0F71092890510928805F2
:102FA000109287051092860580916B01813009F49B
:102FB00051C038F0823009F43BC1833009F45AC162
:102FC0007EC188E00E941B0E882319F00E94CB145A
:102FD00076C180917E0590917F05B8010E94501BBB
:102FE000892B51F480914401863020F48F5F8093C7
:102FF000440102C010924401EAE0F0E0F093890538
:10300000E093880589E891E00E943F0D4DE263E17D
:1030100070E080E090E00E94600D109287051092B1
:10302000860546E150E050938905409388058CE77A
:1030300091E00E943F0D10928705109286057092D4
:1030400089056092880589E691E00E943F0D0E9403
:10305000111335C180E40E941B0E882351F080912A
:103060006A01893119F410926A0103C08F5F80935D
:103070006A0180E20E941B0E882349F080916A0158
:10308000811102C089E101C0815080936A0180E80A
:103090000E941B0E882339F080916A01893018F054
:1030A000895080936A0180E10E941B0E882339F0C9
:1030B00080916A01813118F4875F80936A0188E00A
:1030C0000E941B0E882309F453C080916A01E82FE7
:1030D000F0E0E05BFE4F908191114AC040828F5B2F
:1030E00040E051E0E7E4F1E001900020E9F731979A
:1030F000E754F140292F30E02E173F07E8F4F9019B
:10310000E95BFE4F2081E22F022E000CFF0BE15FF6
:10311000FE4F3081311101C050E028130BC02091C7
:103120004501309146012F5F3F4F30934601209378
:10313000450141E09F5FD6CF552319F082E080938F
:103140006B01411115C08091450190914601009796
:1031500029F00197909346018093450180914401A5
:103160008F5F80934401863019F483E080936B0174
:1031700080917E0590917F05B8010E94501B892B9C
:1031800031F480916D01542D581B50936D010E94B4
:1031900082140E9411130E94C61280E5C82E81E09D
:1031A000D82E512C23E1298320E0822F69E00E9450
:1031B000441B911105C05981545F5983512C02C0A1
:1031C00089E0580E80916A015981A52EB12C852C79
:1031D000912C821311C080916D01882369F0B50193
:1031E000685F7F4F603471053CF447E0C40101978C
:1031F0002A830E94600D2A8190928705809286051D
:10320000B0928905A0928805F60181916F01811124
:1032100002C061E401C061E6620F87E795E02A839E
:103220000E94D7112A812F5F2A3109F0BECF47C0F3
:1032300088E00E941B0E8111C9CE0E9482140E9458
:1032400011130E94C6121092870510928605F09203
:103250008905E092880582E991E00E943F0D109275
:1032600087051092860549E350E050938905409305
:10327000880521C088E00E941B0E8111A7CE0E9404
:1032800082140E9411130E94C61210928705109298
:103290008605F0928905E092880583EB91E00E9413
:1032A0003F0D109287051092860589E390E0909378
:1032B0008905809388058EE991E00E943F0D80E0AA
:1032C0000E94300D2114310409F421CE0E94000027
:1032D00018CE2115310581F0FA01E60FF71FE455EC
:1032E000FF4FE491F0E0062C02C0F595E7950A94B3
:1032F000E2F7DC90ED29EC934F5F5F4F1196483574
:10330000510509F0ACCD9ECD0E94B211DBCFCF921A
:10331000DF92EF92FF920F931F93CF93DF931F9251
:10332000CDB7DEB7182F062FE42E862F880F8E5FBD
:1033300099830E94491583E00E944915F12EC12E00
:103340009981D92E8C2D8F19801798F4F601E7FEFC
:1033500002C0849101C080810E944915182F80E02D
:103360000E9449158123FFEFCF1ADF0A8111EACFAE
:1033700001C081E00F90DF91CF911F910F91FF90DD
:10338000EF90DF90CF900895EBE9F5E01382128281
:1033900088EE93E0A0E0B0E084839583A683B783B2
:1033A0008DE191E0918380838FEF9FEF95878487F4
:1033B000E7E7F5E0138212821186128680E18387A7
:1033C0001086178215868FE291E0918380838DE3CA
:1033D00091E095838483108A1786128A118A81E08E
:1033E000838B148A858B168A08950F931F93CF932E
:1033F000DF938C0181E090E00E94B71180FF32C022
:103400008AE090E00E94B7119FEF980F9E3F50F521
:1034100022E330E0D80150963C932E931F9728E387
:1034200030E052963C932E935197CBE0D0E0D801F8
:10343000ED91FC910190F081E02D682FC801099574
:10344000CE010E94B7112196C131D10581F780E0EC
:103450000E94300D88EE93E0DF91CF911F910F9184
:103460000C94A511DF91CF911F910F9108950497AE
:103470000C94F5198F929F92AF92BF92CF92DF92E8
:10348000EF92FF92CF93DF93EC01688179818A817B
:103490009B81611571058105910521F464E279ED47
:1034A0008BE597E02DE133EF41E050E00E94E11A17
:1034B00049015A019B01AC01A7EAB1E40E94001B3B
:1034C0006B017C01ACEEB4EFA50194010E940E1BD0
:1034D000DC01CB018C0D9D1DAE1DBF1DB7FF03C0D0
:1034E0000197A109B04888839983AA83BB83BC0153
:1034F000CD019F77DF91CF91FF90EF90DF90CF903C
:10350000BF90AF909F908F9008950E943A1A0895AF
:103510008EE091E00E943A1A089560930E01709334
:103520000F0180931001909311010895BB274A3039
:1035300031F4992322F4BDE2909581959F4F0C942C
:10354000A21ABB27FB015527AA27880F991FAA1F7C
:10355000A41710F0A41B83955051B9F7A05DAA33AE
:1035600008F0A95DA193009779F7B111B193119279
:10357000CB010C94BB1ADC01FC01672F71917723FE
:10358000E1F7329704C07C916D9370836291AE171E
:10359000BF07C8F30895F999FECF92BD81BDF89A8F
:1035A000992780B50895262FF999FECF1FBA92BDAD
:1035B00081BD20BD0FB6F894FA9AF99A0FBE019614
:1035C0000895052E97FB1EF400940E94F81A57FDEB
:1035D00007D00E94131B07FC03D04EF40C94F81A7A
:1035E00050954095309521953F4F4F4F5F4F08952F
:1035F00090958095709561957F4F8F4F9F4F08955F
:103600000E94351BA59F900DB49F900DA49F800D27
:10361000911D11240895B7FF0C94001B0E94001BFC
:10362000821B930B0895A1E21A2EAA1BBB1BFD015E
:103630000DC0AA1FBB1FEE1FFF1FA217B307E40791
:10364000F50720F0A21BB30BE40BF50B661F771FE9
:10365000881F991F1A9469F76095709580959095C9
:103660009B01AC01BD01CF010895A29FB001B39FA2
:10367000C001A39F700D811D1124911DB29F700D7B
:10368000811D1124911D0895991B79E004C0991F93
:10369000961708F0961B881F7A95C9F780950895AC
:1036A000AA1BBB1B51E107C0AA1FBB1FA617B70768
:1036B00010F0A61BB70B881F991F5A95A9F7809584
:1036C0009095BC01CD010895EE0FFF1F0590F49178
:1036D000E02D099481E090E0F8940C946F1BF8942D
:0236E000FFCF1A
:1036E200FFFFFFFF00E1000000000000FFFF0100FC
:1036F200000000C1808100000000000000D10B52D8
:103702000CF20BE70B380CF60B140C00000000D780
:1037120011C8101A111911F519FCFF0000371A000F
:00000001FF
