:100000000C94D30D0C94FB0D0C94FB0D0C94FB0D78
:100010000C94FB0D0C94FB0D0C94FB0D0C94FB0D40
:100020000C94FB0D0C94FB0D0C9416200C94882062
:100030000C94FB0D0C94FB0D0C94FB0D0C94FB0D20
:100040000C94FB0D0C94FB0D0C94FB0D0C94FB0D10
:100050000C94FB0D0C94FB0D0C94FB0D0C940518EB
:100060000C94FB0D0C94FB0D0C94FB0D0C94FB0DF0
:100070000C94FB0D0C94FB0D0C94FB0D0C94FB0DE0
:100080000C94FD180C94FB0D0C94FB0D0C94FB0DC3
:100090000C94FB0D0C94FB0D0C94FB0D0C94FB0DC0
:1000A0000C94FB0D0C94FB0D0C94FB0DB224242539
:1000B00044254D265A266526AC26BA26BA26E929B5
:1000C0003B2A422ABC2A3E2B526F636B20416E644E
:1000D00020466C79005068617261707320526576B9
:1000E000656E676500467269656E646C7920496E5D
:1000F00076616465720054686520466F726573743A
:1001000000466C6F6174696E672049736C616E6440
:100110007300476F74205370696B65733F004174BF
:100120002054686520426561636800536869707790
:100130007265636B205261727200476F6C64656E0A
:100140002041726368657300556E64657267726FF3
:10015000756E6400466972737420437573746F6DB5
:1001600065727300D5F08D14A1C881CFD9F1AF208D
:1001700000E8031E000000C800B0041E000000C814
:10018000004C041E000000C80000800108FF480B5E
:10019000FFFFFF3030FFFFFF00FFFFFF00F8FEFF13
:1001A0000763E3E300FFFFFF3030FFFFFF000000C5
:1001B00000000E1F3FF3E3C000F8FEFF070303003B
:1001C000F8FEFF0303FFFEF800FFFFFF73FFDF0EE3
:1001D00000FFFFFF3333333307070700000707072C
:1001E00000070707000103070706030700070707C3
:1001F00000000707070000000000070606070301CC
:1002000000000307070606000003070606070300B1
:100210000007070700070707000707070606060687
:1002200053434F52453A004B0D00F0FCFE0EC6C63C
:10023000C6000080F8FE0EFEF8800000FEFEFE7C88
:10024000E07CFEFEFE00FEFEFE66666666000000C6
:100250000000F0FCFE0606FEFCF0023EFEF800F890
:10026000FE3E0200FEFEFE6666666600FEFEFEE6DE
:10027000FEBE1C000003070F0E0C070F000C0F0F33
:100280000303030F0F0C000F0F0F0003000F0F0FDE
:10029000000F0F0F0C0C0C0C000000000001070FEA
:1002A0000C0C0F07010000030F0F0F010000000FDF
:1002B0000F0F0C0C0C0C000F0F0F000F0F0E00187F
:1002C000180040000010381000028040B088F4741C
:1002D000F408F08287829000000000FC02AAFAFA7B
:1002E0000253FCFCFFFFAA0192B692B692B600FF41
:1002F0000000001F20222F2F202522252325222029
:10030000242524252425100F00616C6C206C657653
:10031000656C732100596F7520636F6D706C657427
:1003200065640010002D003E002300160019001027
:10033000002D0016000F0010002D0057000F003791
:1003400000050010002D003E000F0010002D0016CB
:10035000002D00370014007B000F0010002D003E20
:1003600000230010002D004100050010002D001694
:10037000000F0057000F0000808008FF0301B1A9A3
:10038000FDA96901A10101010101010101010101B1
:10039000010101010101010101010101010101014D
:1003A00001010183EF83013149FD85D5F90509017B
:1003B000A10101010101010101010101010101018D
:1003C0000101010183EF830101D161B179C9C9D173
:1003D00061A161C101A101010101010101010183CB
:1003E000EF83010111C93DC90501A101010101010D
:1003F00001010101010101010103FF0000000000F2
:1004000000000000000000000000000000000000EC
:1004100000000000000000000000000000000000DC
:10042000E8FCFFFFFF7E2E0000000000000000003F
:1004300000000000000000000000808080E0E0E09C
:1004400080808080000000000000000000000000AC
:10045000000000747EFFFFFF3F3F7F7FFFFFFF3FF5
:1004600017000000000000000000000080808000F5
:1004700000A0F0FCFCFCF8B80000808080000000C8
:100480000000000000747EFFFFFF3F170303070713
:10049000070100747EFFFFFF3F170000000000000F
:1004A00000808080000000D0F8FEFEFEFC5C0000B2
:1004B00000808080000000000000747EFFFFFF3F8E
:1004C00017000101030303000000747EFFFFFF3FDC
:1004D00017000000008080800000000000E8FCFFA2
:1004E000FFFF7E2E00000000008080800000747EF0
:1004F000FFFFFF3F170000000000010101000000A6
:100500000000747EFFFFFF3F171B1000000000007B
:1005100000000000000000000000000000000000DB
:1005200000000000000000000000000000000000CB
:10053000004854FE542400000000000000000000A9
:100540000000000000000000000000000080C080EB
:10055000800000000000000000000000000000001B
:10056000000000242A7F2A110A1F0A242A7F2A1247
:10057000000000000000000000000000000000007B
:1005800000002050F8509000000000000000000023
:10059000000000000000242A7F2A1200000101034D
:1005A00001000000242A7F2A120000000000000041
:1005B000000000000000000090A8FCA84800000017
:1005C0000000000000000000000000242A7F2A1222
:1005D0000000000000010000000000242A7F2A1211
:1005E000000000000000000000000000000048546F
:1005F000FE54240000000000000000000000002461
:100600002A7F2A1200000000000000000000000005
:10061000000000242A7F2A1200080818247E42467F
:100620007C020418247E62667C020418247E7276A2
:100630007C020418247E7E7E7C02040808000200EE
:100640000000000000000000400000020000000068
:1006500040000000000100000000000000540148BC
:10066000013A012B011E0112010101F600E500D53E
:1006700000C80003051F111F001F001D15171115CD
:100680001F07041F17151D1F151D01011F1F151F13
:1006900017151F080800400000000002000D9F2DE4
:1006A000970D9F2D97404040404040404028040413
:1006B000484804042840404F09ED094F4005020511
:1006C0000205020502A54299B5A59942A5BD18816A
:1006D0004A528118BD5A8739D6D639875A825A9AD2
:1006E00042985A9A58405040604050406018247ECA
:1006F000426A7C0204EEDD9D71EFDE9D7BFA3F00D5
:100700001FFA1F003F5FFC00F85FF800FC817E00CD
:100710006A64007E81000055AA55000000817E00B9
:100720005626007E81472A040A050A0508050805A1
:1007300000000000040A050AE5FAFDFE1E0F070787
:10074000070F00000002F0FFFF1FFFFFF082000014
:1007500000FFFFFFFF87C7FFFF7E3C00040800008B
:100760000102050A05080508050804080408000038
:100770000000000000000000000000000000000F6A
:100780003565DFB060404040E00080780F854F2B3A
:10079000282B4F850F788000FF05057F4343651F99
:1007A00086E63C00000000000000000000000000A1
:1007B0000000000000000000000000000000000039
:1007C0000000000000000000000001010101010123
:1007D0000001010101000000000001010101000110
:1007E0000101010101010100000000000000000002
:1007F0000000000000000000000000008018FAFA6D
:100800000202020202FAFAFAFAFA0202020202FAF8
:10081000FAFAFAFA0202020202FAFAFAFAFA000004
:1008200000E0F8F8FC9C1C1C1C38000000FCFCFCE0
:10083000FC1C1C1CFCFCF8F00000C0FCFC7CFCFC5C
:10084000C000000080E0F0F8783C1C1C1C3C00005C
:10085000FCFCFCFC1C1C1C1C1C1C000000FAFAFA12
:10086000FAFA0202020202FAFAFAFAFA02020202A0
:1008700002FAFAFAFAFA0202020202FAFAFAE0E0DC
:100880001F1F1F1F1FE0E0E0E0E01F1F1F1F1FE0F2
:10089000E0E0E0E01F1F1F1F1FE0E0E0E0E00000DD
:1008A00000808103070F9EFEFCF8F00000FFFFFFB1
:1008B000FF0E0E0F0F070701E0FCFFFFEFE0EFFF59
:1008C000FFFEE0003FFFFFFFC0800000008000004F
:1008D000FFFFFFFF0E0E0E0E0E0E000000E0E0E028
:1008E000E0E01F1F1F1F1FE0E0E0E0E01F1F1F1FD1
:1008F0001FE0E0E0E0E01F1F1F1F1FE0E0E00B0B28
:1009000008080808080B0B0B0B0B08080808080B55
:100910000B0B0B0B08080808080B0B0B0B0B00400C
:1009200020432747A747A747A341008040A747A7E1
:10093000070000000000002647A7470140004001D3
:1009400047A747260000412347274727472740005E
:10095000072747A747A7472747274000000B0B0B50
:100960000B0B08080808080B0B0B0B0B08080808F2
:10097000080B0B0B0B0B08080808080B0B0B441E8D
:100980000828A8A28E3EFEFEFEF8C00000FEFEFE75
:10099000FEFEAE16EE30FA6C7878786CFA30E00035
:1009A00000000000000C70C03C00C020C000F0201F
:1009B000C020C000E020C000D000E04000E800C03F
:1009C000200060A0000000020A2A28A38F1F7FFEDB
:1009D000F0FFFFFFFFFFFE05C0E0F0F9198C291DB5
:1009E00018FA3C8F2308020000006091E000F0211B
:1009F000E100E1A0F9000100030100000100010095
:100A000000010000010001010000000000000000E2
:100A1000020A28A1871F7FFFFF7F0100C7CFCF8F6A
:100A20008C8AC87880A00000000000000000F84810
:100A300008A800F800E0408040800080408010F866
:100A4000108040C000000000000000000000000016
:100A50000000000000000000020A08010300000678
:100A600007030B0105000200000000000000000069
:100A70000000030000030003000300030003000163
:100A8000020100030001020200000000000000005B
:100A90004907FA00E006FA007D06FA00E006FA00CF
:100AA0000000FA00AA08FA002D08FA000000FA0077
:100AB000E006FA004907FA000000FA00B909FA0056
:100AC0002D09FA000000F4017D06F4010000FA008F
:100AD000E006FA000080BA02A600E006A600700355
:100AE000A6000000A600BA02A6000000A600750538
:100AF000A6003F03A6009704A6000000A600270555
:100B0000A6003F03A6002006A600BA02A600C8055C
:100B1000A6007D06A6000000E8030180060D0B0577
:100B20001B0D1D070103020D070D1A0D1F0D0103FB
:100B3000020D19071B0D040A0609100A1E050107FC
:100B4000120410081C0301030A0409091A031A0CF1
:100B5000040B0C071005100B010C10081B081F0DCF
:100B6000040302090C0D1903180A1E0D00070D04D9
:100B7000210703060C06050D0C051A0D1C070003C2
:100B8000010D060D1B0D200D0203010D1A071C0D92
:100B9000030A0709110A1D05000711040F081D03A8
:100BA0000203090408091903190C030B0B070F05AD
:100BB0000F0B000C0F081A081E0D030301090B0D83
:100BC0001803170A1D0D01070E04200704060B0663
:100BD000050505050505050500070707077F7F7F54
:100BE0000000000000FFFFFF00F0F0F0F0FFFFFF4B
:100BF000F0F0F0F0F0F0F0F0FFFFFFF0F0F0F000B8
:100C0000FFFFFF00000000007F7F7F07070707004E
:100C100008080001010101010100000000010101BB
:100C2000011F000000000000007E00000040404066
:100C3000407C00404040404040007C4040404000FC
:100C400000007E000000000000001F010101010003
:100C5000000040EC7E7FFE6800000C7EFF7E0000FE
:100C6000070800402C1E68000000000C7E000000F9
:100C70000068FE7F7EEC4000007EFF7E0C000708CF
:100C80000000681E2C40000000007E0C0000087C64
:100C9000FE7FFE6702087CFE7FFE6E0407080008E8
:100CA000641E6402000008641E640400E0F0E0E0DA
:100CB000F0E0E007084020404060404074FEFCFE49
:100CC000FFFFFFFFFFFEFCFCFCFCF8F060000002F1
:100CD000070707020000000000020707070260F094
:100CE000F8FCFCFCFCFEFFFFFFFFFFFEFCFE7402B5
:100CF00007070702000000000002070707020000C4
:100D000074FEFCFEFFFFFFFFFFFEFCFCFCFCF8F0A6
:100D10006060F0F8FCFCFCFCFEFFFFFFFFFFFEFC48
:100D2000FE740000000ECEFEF8F8F8F8F8F8F8F0BF
:100D3000F0E7E7E7FCFC7C707000000000000E0E9E
:100D4000EEE1EF0F7F7F7F0F0F0F1F1F1F1FDFDFF2
:100D5000DF1F1E1C0000000000000000000000005B
:100D60000000000000000000000101010000000080
:100D70000000000000000070707CFCFCE7E7E7F07A
:100D8000F0F8F8F8F8F8F8F8FECE0E0000000000D1
:100D900000001C1E1FDFDFDF1F1F1F1F0F0F0F7F35
:100DA0007F7F0FEFE1EE0E0E00000000000000005C
:100DB0000101010000000000000000000000000030
:100DC00000000000000007E7F7FCFCFCFCF8F8F866
:100DD000E0E7F7FFFCFCA00E8EBEF8F8E000000094
:100DE000EEEEEF8F8F7F7FFFEFEF0F07071D1F1FC7
:100DF000FFF8FC1F3F3F3C0000000000000303031E
:100E000000000000000000000000000101010000DF
:100E100000000000000000E0F8F8BE8E0EA0FCFC10
:100E2000FFF7E7E0F8F8F8FCFCFCFCF7E707000048
:100E30000000003C3F3F1FFCF8FF1F1F1D07070F6E
:100E4000EFEFFF7F7F8F8FEFEEEE000000000000DE
:100E5000000001010100000000000000000000008F
:100E60000303030000000000E0F8F8BE8E8EE0FCF3
:100E7000FCFFC7F770F0D0F0F83CFEFEF7E3031C70
:100E80001C000000787F7F3FF1F1C70E0F0F7F76C7
:100E9000778F8FEFEEEE8E80EEEEEE00000000001A
:100EA0000000000101010000000000000303030036
:100EB000000303030000000000E0E7E70700000E66
:100EC0000E0E0707070000000E0E0E007070770769
:100ED0001F1C003838380ECECEC000000080808045
:100EE000000000808080000000EEEEEE00000000B8
:100EF00000000101010000000303030000000303E0
:100F00000303030300000000110B0074186C1EDEC5
:100F10001272767C186818D8106000000000020376
:100F2000020000000000000002030200006010D870
:100F30001868187C767212DE1E6C187400000203AA
:100F4000020000000000000002030200000011087F
:100F50000074186C1E5E1272767C18681858106047
:100F600000006010581868187C7672125E1E6C18AB
:100F700074001B12000000000480C070F0F09000AC
:100F80002060C080A2E0A008002000000000000057
:100F900000040040000400260004000707000E02C1
:100FA0000C820A020C00000000000000000000009B
:100FB0000000000000000000000000000000000031
:100FC00000000000000000000000200008A0E0A2D7
:100FD00080C060200090F0F070C08004000000002D
:100FE00000000000000C020A820C020E000707003D
:100FF000040026000400400004000000000000007F
:1010000000000000000000000000000000000000E0
:101010000000000000001B12000000024060387851
:1010200000F090002060C280A8E0A0000400104002
:1010300000000000004400000004200640040007F7
:1010400007000E02009804140518000000000000BC
:10105000000001000000000000000000000000008F
:10106000000000000000000000000000401000042C
:1010700000A0E0A880C260200090F00078386040B6
:101080000200000000000000180514049800020E81
:101090000007070004400620040000004400000090
:1010A0000000000000000000000000000000000040
:1010B000000000000001000000001B1208000001F9
:1010C00040600C1800B09000200082002860A00052
:1010D000040010400000000000440000000440062E
:1010E00000040022060006020080200009300000F3
:1010F00000000000000001000000000100000000EE
:10110000000000000000000000000000001B1208AA
:1011100000020020000000040000000000020000A7
:101120000400000000024000000000004400000035
:10113000000000000000000000000000000080042B
:10114000000010000000000000000200000100008C
:10115000000000010000000000000000000000008E
:10116000240F00F8FCFEFEFEFE1EEEEE1EFE1EFE2E
:10117000FE1EFE3EDEDEBEFE0EBEBE7EFEFE0EFE8F
:10118000FEFEFEFCF8000003070F0F3F1F0E0D0FC1
:101190000E0F0E0D0D0E0F0E0D0D0E0F0C0F0F0C72
:1011A0000F0F0D0F0F0F0F07030004083E09093E34
:1011B0003F25251A1E2121123F21211E3F252521D1
:1011C0003F0505011E21293A3F04043F213F21002C
:1011D0001021211F3F040A313F2020203F02023FFF
:1011E0003F02043F1E21211E3F0909061E21112E28
:1011F0003F09093622252519013F01011F20201F23
:101200000F10201F3F10103F3B04043B030438071E
:10121000312D2321102A2A3C3F2424181C22221479
:101220001824243F1C2A2A2C043E05014C52523E0D
:101230003F040438243D20004040443D3F08142230
:10124000213F20003E04043E3E04023C1C22221C9E
:101250007E22221C1C22227E3E040204242A2A1200
:10126000021F22201E20201E0E10201E3E10103EA7
:10127000360808364E50503E322A26221E29251E98
:10128000223F2000322929261221251A0C0A3F0864
:10129000172525191E252518013905031A25251A94
:1012A0000629291E002F0000002000000229050247
:1012B00000040400240F00F8FCFE1EEE6E5EFE3EED
:1012C000DEDE3EFEFEDE0EDEFE3EDEDE3EFEFEFE2E
:1012D000FEFEFEFEFE0EFEFCF8000003070F0E3DB4
:1012E0001D0C0F0E0D0D0E0F0F0F0E0D0F0E0D0D11
:1012F0000E0F0F0F0F0F0F0F0F0D0F070300F8FC4E
:10130000FEFFFFFFFFFFFFFFFFFFFFFFFFFFFFFFEE
:10131000FFFFFFFFFFFFFFFFFFFFFFFFFFFFFFFEDE
:10132000FCF803070F1F3F7F3F1F1F1F1F1F1F1FBB
:101330001F1F1F1F1F1F1F1F1F1F1F1F1F1F1F1FBD
:101340001F1F1F0F0703240F00F8FCDE0EDEFE3EFA
:10135000DEDE3EFEFEFE1EEE6E5EFEFE5E5E3EFECD
:10136000DE0EDEFEFE3E5E5E3EFCF8000003070F72
:101370000E3D1F0E0D0D0E0F0F0F0E0D0D0C0F0E4F
:101380000D0D0C0F0F0E0D0D0F0E0D0D0D070300A3
:101390000002070E070200000002070E070200000D
:1013A0000000000207020000000000020702000027
:1013B000000011040000020402000000000002040A
:1013C0000200000000000000020000000000000019
:1013D00002000000000000000002070E07020000EB
:1013E0000002070E070200000000000207020000D2
:1013F00000000002070200001104000000000204C7
:1014000002000000000002040200000000000000D2
:101410000200000000000000020000000808FFFFBA
:10142000FFFFFFFFFFFF00010000EC006100B500BF
:10143000B5006100EC00000000019FFFEC004BFFD5
:10144000B50014FF610000FF000014FF9FFF4BFF79
:101450004BFF9FFF14FF000000FF610014FFB50069
:101460004BFFEC009FFF04083E09093E3F25251A6B
:101470001E2121123F21211E3F2525213F05050167
:101480001E21293A3F04043F213F21001021211F42
:101490003F040A313F2020203F02023F3F02043F29
:1014A0001E21211E3F0909061E21112E3F09093662
:1014B00022252519013F01011F20201F0F10201F89
:1014C0003F10103F3B04043B03043807312D232118
:1014D000102A2A3C3F2424181C2222141824243FBA
:1014E0001C2A2A2C043E05014C52523E3F0404386B
:1014F000243D20004040443D3F081422213F20006D
:101500003E04043E3E04023C1C22221C7E22221C7D
:101510001C22227E3E040204242A2A12021F2220B8
:101520001E20201E0E10201E3E10103E36080836CB
:101530004E50503E322A26221E29251E223F2000D0
:10154000322929261221251A0C0A3F0817252519A8
:101550001E252518013905031A25251A0629291ED5
:10156000002F0000002000000229050200040400F2
:1015700001020408102040808F85738571547182A8
:10158000D4810981327101F1017133810681D10F5A
:1015900083038604820F0B8204820F0F028205A14F
:1015A0000441A30F02A18204A181A103140F0283AD
:1015B0005483038409A541A283A1038303D403A117
:1015C00005188404820A81558C0581A1098105D7FB
:1015D0008505820981A10C84058222B12204820C36
:1015E00084A44182617361A482A741A38F8F870085
:1015F0006E7155716D0F0F0F0F08A141A60785067B
:10160000A1F1A4B1A1178106810581058117870683
:101610008102C101C1028105880551068101C20113
:10162000C20181055104830551068101C201C20135
:1016300081055105820551068102C101C102810562
:101640005105820485048105810484048204810893
:101650008101810181018107810482048108810166
:101660008101810181078104820481088707810447
:1016700082A141A28121412F23412181A241A18F39
:101680008F85006E7153716F610F076C0F086B418E
:101690002505C105C10B657606C103C10E63D605DC
:1016A000C70E620AC201C301C20D6209CB04412305
:1016B000046221B12106C101C701C10474546273DF
:1016C00006C101C105C101C10471D30462D309C2BD
:1016D00001C2077107620F086171076206620D633C
:1016E000710762214124627125F1257163712141E5
:1016F000256276627D6378610069546F660F0F0121
:10170000A10F0F02A18107A109A10E1181A205114C
:101710000981A10E81120581A207811109A44181CD
:1017200005A2811205A281A3071581051281071266
:1017300081130C81078109810F81A2058141A302D8
:10174000A3810CA1B1A1811201A3418114021381D3
:1017500041A40713810314810981150A81078109B6
:10176000810F8102A581A981AF81A26F6F640061A1
:1017700054667A6E0461055108710DD104D105518A
:1017800008710F0951087103A441A30D512641218D
:101790007103180D7A04860F0E8404A141A40F0D65
:1017A000158105A541A40D8505811A810C83088A40
:1017B00004A2B1A1F1A1037101710A710471068142
:1017C0001481037131713A7134713784347101714C
:1017D0000A710471077102710471E171EA71E471B7
:1017E000E771E271E4006E7154716F0862D37104A5
:1017F00071DA65096103D104D10AD164412404611D
:10180000210F046475046221092306640963210819
:101810007322046408216437647221046303257110
:1018200064E766710463037562D96804630F056633
:101830000421630F0E2171630925B124092171640C
:10184000E97A2107217165796A71E7716F6F690023
:101850006F546F0F0F0F0F0F0E2541210F214123E2
:101860000782650FC507D2816409210F04D1716316
:101870000981210F047181620A81210F0371D182D4
:101880000B81234125097101D20C892207710F8137
:10189000068101822106710D22812681238124B1D6
:1018A00021712141230434CFCB34E4CFCBE4008138
:1018B0007181718171817181718171817181718198
:1018C0007181718171817181718171817153710F28
:1018D0000E7103710F0E7103710F0E7153710E8132
:1018E0000F0522B12109812141220F016409850FD1
:1018F0000923412181D40F09860F0DD5810F0F03D4
:10190000810F01F102812341298121412A81037143
:101910000231819C819B813471348F89357132E32E
:101920008F87E671E2006E7154716801C101C101D7
:10193000610F0DC101C101C10F0EC101C101C10380
:10194000C101C10A22B12108C105C101C101C10102
:10195000C109740721C125C101C101C101C10F0520
:1019600078C105C10F0CC125C1210F0B780721419A
:1019700022072141260F7407680F0B5106610F0BD8
:101980005106612141260821F12107510669A7214D
:101990007321A6512441216917751668006F536F92
:1019A000610F0F0F0F08A441A905A641A203A31EB2
:1019B000051933138E058F8104510D860882045159
:1019C0000F0C8204510422F1210DA20482A141A234
:1019D0008104740D820487A10BA103A241A2820499
:1019E000880B81038704880B8101B101870488A5D6
:1019F00041A5816387A141A28F85638C006F536FDE
:101A0000610F0F0F0F0F0F0F0A41260F0C770F0EEC
:101A10006171610F0141250A710B2541760A71013F
:101A2000B1097601617161096371630A61716101D4
:101A300032713D713E713202710D710E7104710D82
:101A4000710E7104710D710E7102E271ED71EE7122
:101A5000E2005F510F0F0F0F0F0841A84103338AB7
:101A60003300080B00020202010009040000010219
:101A700002000005240010010524010101042402D4
:101A80000605240600010705810310004009040132
:101A900000020A000000070502024000000705835B
:101AA000024000000403090412010002EF02014099
:101AB0004123368000010102030141726475696EA1
:101AC0006F204C4C430041726475696E6F204C6509
:101AD0006F6E6172646F001008000000001C2DC85A
:101AE0000000000206090000220FADFFFFFF381CB6
:101AF000C8000406030E120000220F9DFF000038EC
:101B000015C8000310060F11F401220F0000C8FFD2
:101B10001825C800040C040F125802220F95FFC8A4
:101B2000FF381DC800040A041E209001220FDCFFAC
:101B3000D7FF381CC800030C040F120000220F004E
:101B40000000001D15C8000010010F120000220F38
:101B5000D9FFDFFF381CC800040504010458022225
:101B60000F70FFC8FF3B2DC800041004090C0000D3
:101B7000220FC6FFFFFF381CC8000405040F1158D0
:101B800002220FB5FF0000380DC8000406050F1132
:101B90005802220F74FFE7FF381CC8000410041D10
:101BA00020580200E83311241FBECFEFDAE0DEBF79
:101BB000CDBF11E0A0E0B1E0ECE4FDE602C005908D
:101BC0000D92A439B107D9F728E0A4E9B1E001C02A
:101BD0001D92AE30B207E1F71DE0C3EDDDE004C0B9
:101BE0002197FE010E945636C23DD107C9F70E94D7
:101BF000F3220C94A4360C94000070E0209112069D
:101C00003091130626173707D8F0409114065091EB
:101C10001506282F30E0649FF001659FF00D749F3A
:101C2000F00D1124E20FF31FF695E795EB5FF94FE6
:101C300080FD03C08189829501C081898F700895DC
:101C400089E008950F931F93DC01E1E7F0E09081B4
:101C50009D7F90831092B405E5EBF5E0F093B3051A
:101C6000E093B205F093B105E093B005B183A08392
:101C7000738362835583448382E390E097838683F2
:101C800031872087138702871F910F910C944F187B
:101C900020919307282329F490919207982381E0BB
:101CA00009F480E00895EF920F931F9380918B07C2
:101CB0008111F9C08091AF05873091F084E00E94D6
:101CC000480E882369F08091810790918207892BC3
:101CD00039F09091890781E0892780938907E3C0D3
:101CE000809190079091910783709927892B09F033
:101CF000DAC080918A07811116C00E94001A85FF00
:101D000008C08DE797E00E94691A81E080937F0701
:101D10000AC00E94001A86FF06C08DE797E00E9465
:101D2000801A10927F070E94001A83FF49C0809199
:101D3000810790918207892B09F442C080917F0727
:101D4000811174C00091AE058091790790917A0756
:101D5000A0917B07B0917C07BD01685F7F4FE02EAB
:101D600026ED33E148EF53E18091770790917807B2
:101D70000E94EB19809190079091910765E070E0C7
:101D80000E942E36892B31F48091AE058F5F8170D1
:101D90008093AE0580917E07882309F443C0D4F177
:101DA0008130E1F510927E0702E310E021E230E09D
:101DB00041E450E062E370E081E290E00E94220E94
:101DC000809190079091910787709927892B81F4D2
:101DD0000E94001A83FF06C08091810790918207BC
:101DE000892B31F480917E078F3FB1F510927E07E9
:101DF00080919007909191078F709927892B09F016
:101E000052C00E94001A85FD4EC00E94001A86FF33
:101E100037C049C08C3F44F2880F05C0893024F692
:101E2000859501C08FEF80937E07BECF813009F08A
:101E3000A1CF0091AE058091790790917A07A0918A
:101E40007B07B0917C07BD01685F7F4FE02E20E9E2
:101E500033E142EB53E188CF8F3F09F034F4883F00
:101E60003CF287FD8F5F859503C0811104C081E03E
:101E700080937E07BDCF85300CF0BACF880FF8CFA6
:101E800080917D07181624F48DE797E00E94691A67
:101E900080917D0787FF07C08DE797E01F910F9125
:101EA000EF900C94801A1F910F91EF9008958F92EC
:101EB0009F92AF92BF92CF92DF92FF920F931F93A8
:101EC000CF93DF93009175071091760720917707E4
:101ED000309178074091790750917A0760917B079C
:101EE00070917C0780918907811103C0A8E0FA2EC8
:101EF00002C0FBE0FF2EE091A505809105069091C0
:101F00000606A0910706B0910806C8E0EC9FA00D58
:101F1000B11D11248091A6058090090690900A06B3
:101F2000A0900B06B0900C066D01D7E0CD0ED11C31
:101F3000E7E8CE16D104A0F5E501E8E08E9FC00DDC
:101F4000D11D1124CE01C83FFFEFDF074CF1C03493
:101F5000D10534F58901332717FD3095232FE8018A
:101F60000F5E1F4FA017B107DCF4CC15DD05C4F4DC
:101F7000AB01772757FD7095672FFA012F2D30E0C1
:101F8000420F531F841795075CF40896E817F9076A
:101F90003CF488E78093AD051092AA0510928B0758
:101FA000DF91CF911F910F91FF90DF90CF90BF9065
:101FB000AF909F908F900895CF92DF92EF920F9302
:101FC000CF93DF936B01C091AC05CF5F3091870752
:101FD000209116076D5071090C2E000CDD0B321785
:101FE00088F0E12C00E02EEF32E146E453E18C0F63
:101FF0009D1F0E94EB19DF91CF910F91EF90DF9021
:10200000CF900895C80FD91FE12C00E02EEF32E1E8
:1020100044EB52E1CE010E94EB192091A7052B5C05
:10202000B601695071094AEA51E1CE014996DF9142
:10203000CF910F91EF90DF90CF900C947019EF92A9
:102040000F932091AD05222389F06D5071092091E5
:10205000AC05820F911D27FD9A95E12C00E02EEF33
:1020600032E140E651E101960E94EB190F91EF90A9
:1020700008954091140650911506A2E5B7E0ED9140
:10208000FD9192819923F9F060819181262F30E0B2
:10209000949FF001959FF00D1124E20FF31FF69528
:1020A000E795EB5FF94F918960FD05C09F70813026
:1020B00039F420E506C0907F813011F425E001C09D
:1020C00020E0922B918B97E0A636B907C1F680935A
:1020D0002107811105C080911D0790911E0702C044
:1020E00080E090E09093200780931F070895CF939E
:1020F000DF93D82FC62F0E94FD0D8530A1F4CC238D
:1021000081F06FEF6C0F8D2F0E94FD0D853039F03F
:1021100061E06C0F8D2F0E94FD0D853011F480E180
:102120000BC085E009C08F3039F4809121078130E0
:1021300011F081E101C08FE0DF91CF910895E2EAD3
:10214000F1E0A0E0B8E000800EBC8111012C1197F5
:10215000A0FDFDCF0192B9F70DB408958F929F9223
:10216000AF92BF92CF92DF92EF92FF920F931F93A5
:10217000CF93DF93182FC62F009118070230B0F1CC
:102180008F3F51F4602F70E080E090E00E942717AD
:10219000D62FCF3F69F403C0D82F6F3F49F5602F8A
:1021A00070E080E090E00E942717C62F1F3F01F5E6
:1021B000802E912CA12CB12C8091A405D81306C09F
:1021C000C501B4010E942717D62FF6CF8091A7052D
:1021D000D817B1F3C02ED12CE12CF12CDC1308C0A0
:1021E000C701B6010E942717C62FF8CFCEEFD0E067
:1021F00020910D0630E0220F331FF901E85CFE4FFD
:10220000608171818D2F90E0880F991FFB01E80F8D
:10221000F91F44914093A5050196FB01E80FF91FB2
:10222000E491E093A605D093A405C093A705CE3F03
:10223000B9F0F901E05EFE4F208131816C2F70E032
:10224000660F771FF901E60FF71F84918093A805A9
:102250006F5F7F4FF901E60FF71FE491E093A90547
:102260001092A20581E08093AA0564E170E080E00D
:1022700090E00E942717DC01CB010A96A11DB11D39
:102280008093A305DF91CF911F910F91FF90EF9065
:10229000DF90CF90BF90AF909F908F900895FF9266
:1022A0000F931F93CF93DF93F42E9EE0941740F08B
:1022B0009DE0491708F047C09BE04917A1F046C0D0
:1022C0008FE0481343C080E00E94391000E510E021
:1022D00025E735E043E950E060E570E081E290E019
:1022E0000E94220E33C091E090938C0720910A0146
:1022F00030910B01232B31F428EC30E030930B01AB
:1023000020930A0120919007309191072370332781
:10231000232BE1F4ECE4F7E0C191D191988198137B
:102320001EC0998196131BC08A818823F9F02091E1
:1023300081073091820780911B0790911C07281715
:102340003907C8F013C083E380938607809189071B
:10235000811143C080917E071816BCF13EC097E002
:10236000E235F907C9F6C0E0D0E0DECF10920B01EC
:1023700010920A01EBCF2AE031E080910A0190919E
:102380000B010A9690930B0180930A0180917100D2
:102390008D7F809371001092B4053093B305209324
:1023A000B2053093B1052093B0050E944F1880917B
:1023B000810790918207019690938207809381070D
:1023C0008A81811181508A83C1CF8F2D0E94C01BC9
:1023D000882319F083E380938607DF91CF911F91C3
:1023E0000F91FF9008958F929F92AF92BF92CF92DC
:1023F000DF92EF92FF920F93CF93DF936B01EC018B
:102400004C01840E911C5B01A20EB11CC815D905AC
:10241000ECF47601D7FE10C0E12CF12C0DC0E816CB
:10242000F90694F4202FA701BE018DE897E00E94E1
:102430004B1A2FEFE21AF20AC50121E4A216B104E9
:1024400074F380E490E0EBCF2196E0CFDF91CF9161
:102450000F91FF90EF90DF90CF90BF90AF909F9043
:102460008F9008958F929F92AF92BF92EF920F93A9
:1024700000917F0780918607863270F48F31B8F41F
:10248000882311F1883108F44BC000E08BEF27EB73
:102490003EE04DE051E126C08D3280F0843308F0FB
:1024A0003FC08BEF22E23DE042E75FE01BC000E06F
:1024B0008BEF26E63EE04AEB50E114C08BEF24ECB4
:1024C0003DE046E150E10EC080918907811105C0D1
:1024D00020E03DE04EE45FE005C080E02CEB3CE016
:1024E00048E05FE041155105D9F0082E000C990B2A
:1024F0008090790790907A07A0907B07B0907C0736
:10250000BC016A0D7B1D8090750790907607A090A6
:102510007707B0907807E02E8A0D9B1D0E94EB197B
:102520000F91EF90BF90AF909F908F9008954F9232
:102530005F926F927F928F929F92AF92BF92CF9253
:10254000DF92EF92FF920F931F93CF93DF93CDB75C
:10255000DEB728970FB6F894DEBF0FBECDBF00914F
:10256000A20520918807211134C0AC01495F5F4F5B
:102570004738510570F5AB01485F5F4F483451054E
:1025800040F52091AA052130D1F4E02E2EE83CE060
:102590004CE95CE00E94EB198091900790919107C3
:1025A0006FE070E00E942E36892B09F09AC181E01D
:1025B0009091A205911180E08093A20592C12130F3
:1025C00008F094C0E12C00E02CEA3CE043EB5CE036
:1025D0008AC08091AF05883009F083C1211109C1FB
:1025E000C0907507D0907607E0907707F090780755
:1025F0004091790750917A0760917B0770917C0731
:102600008091A101843108F06CC12111F8C02091A2
:10261000A505B8E02B9F900111248091A605E8E064
:102620008E9F800111244090050650900606609010
:102630000706709008068090090690900A06A09000
:102640000B06B0900C06F3013796E20FF31FE73844
:10265000F10508F4E1C0C701BB2797FDB095AB2F8A
:102660008D839E83AF83B887CB01BB2797FDB09541
:10267000AB2F89839A83AB83BC83C418D508E60843
:10268000F7082E193F09481959096A097B09A80159
:10269000461B570BED81FE81FF27882799278E1B4C
:1026A0009F0B281739070CF4C4C080E890E08E1BFC
:1026B0009F0B281739070CF0D1C057FFFBC08D8145
:1026C000820F00E060E0A0E8B0E07D01EE1AFF0AB2
:1026D0002E153F050CF0C6C070E0E02E20ED3BE06B
:1026E00040E15CE090E00E94EB19FBC0223009F071
:1026F000F8C0C090AC052091AB050C2C000CDD0897
:10270000E02E263029F420E73CE04EE75CE004C0F0
:1027100022E53CE040E65CE08C0D9D1D0E94EB193B
:10272000809190079091910787709927892B09F0E4
:10273000D8C08091A50593E0C90ED11CA8E08A9F5E
:10274000C00CD11C11248091750790917607A0913F
:102750007707B0917807CD01089640910506509112
:1027600006066091070670910806861B970BC8162F
:10277000D90699F081E09091A205911180E08093B3
:10278000A2059091AB058091AC05963011F4815073
:1027900001C08F5F8093AC05A4C081E0809388075F
:1027A00010928B079091870780911607981768F40D
:1027B00002E310E022E530E045EA50E062E370E039
:1027C00087E295E00E94220E8CC08091190720912B
:1027D0001A07281768F3E82FE695F0E0EB5FF94F4A
:1027E000918980FD02C09F7001C0907F918B8F5FA7
:1027F000F0CF8091A7058E3F09F0F2CE72C02091F4
:10280000A805F8E02F9F900111248091A90598E078
:10281000899F8001112407CFF801EA0DFB1DE83FD5
:10282000AFEFFA070CF417CFE034F1050CF013CF3B
:1028300058C089819A81992766277727681B790B69
:10284000461757074CF507E060E0A8E3B0E07D01CC
:10285000E81AF90A4E155F05ACF502C000E060E029
:1028600080E031CF29813A813327EE27FF27E21B11
:10287000F30B4E175F074CF501E060E088E7E8E3F3
:10288000F0E0DF01A21BB30B4A175B070CF424CF67
:1028900003E060E388E720CF68E370E0681B790B12
:1028A000461757072CF469816450640F06E0CDCFBA
:1028B00000E0CACF4115510589F28D81820F04E0F5
:1028C00060E301CF05E060E3CBCFE8E3F0E0E21B9B
:1028D000F30B4E175F079CF669816450640F02E0AA
:1028E000CDCF28960FB6F894DEBF0FBECDBFDF91D7
:1028F000CF911F910F91FF90EF90DF90CF90BF90FD
:10290000AF909F908F907F906F905F904F900895C1
:10291000CF92DF92EF92FF920F931F93CF93DF93AB
:102920006C017A018B01C0E0D0E0CE15DF0589F0A3
:10293000D8016D918D01D601ED91FC910190F0814E
:10294000E02DC6010995892B11F47E0102C0219664
:10295000ECCFC701DF91CF911F910F91FF90EF90C6
:10296000DF90CF9008953FB7F8948091F40790914D
:10297000F507A091F607B091F70726B5A89B05C00B
:102980002F3F19F00196A11DB11D3FBFBA2FA92FEE
:10299000982F8827820F911DA11DB11DBC01CD016B
:1029A00042E0660F771F881F991F4A95D1F7089557
:1029B0008091B405E091B205F091B305882349F008
:1029C000CF0102969093B3058093B20585919491BF
:1029D0000895CF0102969093B3058093B20580814C
:1029E000918108956F927F928F929F92AF92BF9242
:1029F000CF92DF92EF92FF920F931F93CF93DF93CB
:102A000000D000D0CDB7DEB73A014115510509F429
:102A100001C2FA01F49031965491F2E06F0E711CEC
:102A2000AF2CB12C211102C0EE2069F1A52FA69583
:102A3000A695A695B0E0E1E0F0E0352F377011F4EF
:102A4000E0E0F0E0AE0FBF1FAA9EF001AB9EF00DDC
:102A5000BA9EF00D1124A3E08A2EC81003C0EE0F19
:102A6000FF1F0AC00115110539F0EE9ED001EF9E3F
:102A7000B00D11240A0F1B1F2E9FD0012F9FB00DE8
:102A800011246A0E7B1E2FEFC21208C0011511051A
:102A900019F0CC24C39402C032E0C32EDC01AA0D8D
:102AA000BB1D1A161B060CF0B5C1803891050CF041
:102AB000B1C19B01250F311D121613060CF0AAC1DE
:102AC000603471050CF0A6C16114710409F4A2C14F
:102AD000362F3770932EFB0177FD379623E0F5955F
:102AE000E7952A95E1F72E2F77FF04C0992011F082
:102AF0002FEF2E0F97FF05C0EE27FF27E81BF90BDE
:102B000002C0E0E0F0E0A038B1051CF030E8381B6E
:102B100001C03F2D3E1B622F022E000C770B2F3F72
:102B20001CF4462F409501C040E0B1E0A52FA770EE
:102B300009F4B0E0569556955695DB2ED50E6D0DE1
:102B4000711D693071051CF058E0D52ED21AD41AC7
:102B5000240FDC0150E82503A00DB11D1124AE0F98
:102B6000BF1F4F9DE00DF11D1124A3014E0F5F1FEC
:102B700081E090E07C01092C02C0EE0CFF1C0A945D
:102B8000E2F783E0C81609F404C18C15A8F091E0BF
:102B9000C91609F4B5C0E2E0CE123CC18FEF8E9D9C
:102BA000B0018F9D700D1124609570957C836B83AF
:102BB0007C806D2C620E2BC0FAEFCF1631F09BEFAC
:102BC000892EC81027C1D20E87C0D20E51C0FA017B
:102BD000E00FF11FE491EE9D6001EF9DD00C1124F8
:102BE000DA82C98227FD07C0FC01D080ED2DE623E3
:102BF000CE2AFC01C082911013C00F5F1F4F0196B7
:102C0000031728F32F5F4A0D5B1DA058BF4F2615F1
:102C100009F400C1CD018E559E4F00E010E0F0CFC9
:102C200027305CF7FC01E058FF4FC080C7208A8046
:102C3000C828C082E2CFFA01E60FF71FE491EE9DAB
:102C40008001EF9D100D11241A83098327FD04C014
:102C5000FC011081012B0083911013C06F5F7F4F27
:102C60000196631740F32F5F4A0D5B1DA058BF4FBD
:102C70002D1509F4CFC0CD018E559E4F60E070E058
:102C8000F0CF27305CF78C0100581F4FF801C0804F
:102C9000FA81CF2AF801C082E1CFFA01E00FF11FDB
:102CA000E491EE9DC001EF9D900D11249A838983DC
:102CB00027FD05C08095FB019081892380839110B9
:102CC00014C00F5F1F4F6F5F7F4F031730F32F5FED
:102CD0004A0D5B1DA058BF4F2D1509F49BC0BD01C7
:102CE0006E557E4F00E010E0F0CF273054F7FB0127
:102CF000E058FF4F8A818095908189238083E1CFBE
:102D00000E0F1F1F8D2C820E281509F483C0CD01D4
:102D10008E559E4F6C0160E070E0631790F5F801EE
:102D2000E60FF71FE491EE9DC001EF9D900D112479
:102D3000809590959C838B83FA01E60FF71FE491B1
:102D4000EE9D3001EF9D700C11247A82698227FD7F
:102D500005C0F60190818923682A6082992059F084
:102D600027304CF4F601E058FF4F90818C81892385
:102D70009A81892B80836F5F7F4FFFEFCF1ADF0A25
:102D8000CCCF2F5F4A0D5B1D0A0D1B1DA058BF4FF6
:102D9000BBCF832F90E0E40FF51FAE55BE4F60E828
:102DA00070E0681B790BA81AB90A8501000F111F82
:102DB0005D2D832ECF93DF93ED01EF96EF96229654
:102DC000A590C590992059F0AE9C5001CE9C600111
:102DD00027302CF4F880D094FD20FB28F992222390
:102DE0003AF0FC90C094FC20FA28FD920C94F9165D
:102DF00011963A9529F75A9551F0382D23951124BB
:102E0000E00FF11DA60FB11DC60FD11DD9CFDF9167
:102E1000CF9111240F900F900F900F90DF91CF91D1
:102E20001F910F91FF90EF90DF90CF90BF90AF90E8
:102E30009F908F907F906F90089580919401089556
:102E40000895089580E090E008950E949F36CF9302
:102E5000DF9300D000D0CDB7DEB7611571058105D5
:102E6000910579F09B01AC0169833A834B835C83C4
:102E70000E94923529813A814B815C810E94BF3545
:102E800003C060E070E0CB010F900F900F900F90A7
:102E9000DF91CF9108954F925F926F927F92EF9260
:102EA000FF920F931F93CF93DF93CDB7DEB7A19718
:102EB0000FB6F894DEBF0FBECDBF7C01FA01CB0187
:102EC00019A2223008F42AE08E010F5D1F4F422E16
:102ED000512C612C712CBF01A30192010E94F1358C
:102EE000F901CA01015011096A3014F4605D01C092
:102EF000695CD8016C93232B242B252B61F70115DA
:102F0000110591F0F80101900020E9F73197AF0128
:102F1000401B510BD701ED91FC910280F381E02D14
:102F2000B801C701099502C080E090E0A1960FB6F4
:102F3000F894DEBF0FBECDBFDF91CF911F910F91EF
:102F4000FF90EF907F906F905F904F900895EF9279
:102F5000FF920F931F93CF93DF938C017B01C0E00F
:102F6000D0E0F701EC0FFD1F6491662361F0D801FA
:102F7000ED91FC910190F081E02DC8010995892B1C
:102F800011F02196EECFCE01DF91CF911F910F91DD
:102F9000FF90EF9008958F929F92AF92BF92CF9241
:102FA000DF92EF92FF926B017C010E94B3144B0100
:102FB0005C01C114D104E104F104F1F00E94B314E6
:102FC000DC01CB0188199909AA09BB09883E934005
:102FD000A105B10570F321E0C21AD108E108F1089A
:102FE00088EE880E83E0981EA11CB11CC114D10488
:102FF000E104F10419F7DDCFFF90EF90DF90CF905F
:10300000BF90AF909F908F9008951F920F920FB630
:103010000F9211242F933F938F939F93AF93BF935E
:103020008091950190919601A0919701B09198019E
:103030003091F30723E0230F2D3720F40196A11DD3
:10304000B11D05C026E8230F0296A11DB11D2093D6
:10305000F3078093950190939601A0939701B09305
:1030600098018091F4079091F507A091F607B0912F
:10307000F7070196A11DB11D8093F4079093F50702
:10308000A093F607B093F707BF91AF919F918F91EF
:103090003F912F910F900FBE0F901F901895CF92D8
:1030A000DF92EF92FF920F931F93CF93DF930E94D3
:1030B000D814811520E8920761F4809171008D7F0A
:1030C0008093710010929100469847981092EC07F7
:1030D0008BC021E02093EC07813020E8920751F467
:1030E0008091B0059091B1059093B3058093B2059E
:1030F0000E94D81497FD05C02091EB07222309F404
:103100003FC02091EA0721113BC021E02093ED0749
:10311000EC01DF77209769F481E08093EE07469811
:103120003FE9C32E3FE0D32EE12CF12CCAEFD0E0D3
:1031300014C08E0120E030E060E472E48FE090E0A3
:10314000A90198010E94BF3569017A0181E0C81A7E
:10315000D108E108F1081092EE07E091C305F09163
:10316000C4050995811103C081E08093EE07809129
:10317000ED078823B9F18091EE07811133C003C0B8
:103180001092ED07C5CF46992DC0479A0E94D814DA
:10319000009771F09C01DE010E941336DC01CB0127
:1031A00029E0B595A795979587952A95D1F703C0FE
:1031B0008FEF9FEFDC01109290002AE020939100A6
:1031C000D0929900C09298008093EF079093F007F7
:1031D000A093F107B093F207809171008260809311
:1031E000710002C04798D2CFDF91CF911F910F910C
:1031F000FF90EF90DF90CF9008951F920F920FB63F
:103200000F9211242F933F934F935F936F937F936C
:103210008F939F93AF93BF93EF93FF938091EF07AB
:103220009091F007A091F107B091F207892B8A2BBA
:103230008B2B81F18091EE0781110BC098B180E456
:10324000892788B98091ED07882319F088B18058C3
:1032500088B98091EF079091F007A091F107B091A4
:10326000F207181619061A061B06B4F48091EF0728
:103270009091F007A091F107B091F2070197A10991
:10328000B1098093EF079093F007A093F107B093F3
:10329000F20702C00E944F18FF91EF91BF91AF91CA
:1032A0009F918F917F916F915F914F913F912F915E
:1032B0000F900FBE0F901F9018959C01E1E7F0E072
:1032C00090819D7F908381E08093B4053093B30516
:1032D0002093B2053093B1052093B0050C944F189C
:1032E000CF92EF920F931F933BEFC32EE12C00E0A0
:1032F00010E00E94F2141F910F91EF90CF9008956B
:10330000CF92EF920F931F93CF93DF93FC0196819F
:103310006A3031F4858184836185960F968342C03B
:10332000262FEF01848161E0690F2F33A1F164F44E
:103330002E32A1F01CF42132A9F027C090ED920F9B
:103340009A3018F52C5F0FC02134FCF02B3544F077
:103350009FE9920F9A31C8F4275405C02FE303C0A8
:10336000215401C02EE33F81062E000C770B082E5E
:10337000000C990B313089F43AEFC32EE12C00E0B8
:1033800010E046E654E10E94F21488858C5F9C812F
:10339000890F8C8307C020E4E6CF46E654E10E9403
:1033A0007019F3CF81E090E0DF91CF911F910F91E1
:1033B000EF90CF900895CF92EF920F931F9332E04A
:1033C000C32EE12C00E010E00E94F2141F910F9137
:1033D000EF90CF900895CF92EF920F931F93F90142
:1033E000202FCC24C3948F010E94F2141F910F91BF
:1033F000EF90CF900895BC0180E090E00C94CB1743
:103400008FB18095807F669B88601C9B8460089547
:10341000FC01840F911D18161906E4F5E038F1053A
:10342000CCF5F7FF02C0E0E0F0E08138910514F040
:1034300080E890E0382F3E1BAB0177FF02C0495F68
:103440005F4F83E0559547958A95E1F75695542F40
:10345000442757954795E40FF51FEE55FE4F6770CB
:10346000772781E090E001C0880F6A95EAF7482F3E
:10347000222349F0213071F4315020F08081842BD7
:103480008193FACF08958095315020F09081982350
:103490009193FACF089560387105D0F44034510506
:1034A000B8F4E0E7F5E180E1849FD001A078112431
:1034B000A60F4770E40FF11D8491AE55BE4F222335
:1034C00019F06C91862B03C080956C9186238C93A8
:1034D0000895FC019081992359F01CF49C3F34F429
:1034E0000895913041F0993044F00895990F06C045
:1034F0008FEF8083089510820895959590830895A5
:10350000FC0190819F3F69F01CF4983F34F40895CA
:10351000992349F0953054F0089597FD9F5F959554
:1035200006C01082089581E080830895990F9083EA
:103530000895CF93DF93C5ECD5E04B81042E000CAA
:10354000550B6981062E000C770B21E08DE897E082
:103550000E944B1A249686E0C530D80771F7DF9198
:10356000CF9108950F931F93CF93DF9386E294E159
:10357000A5ECB5E0C0E0D0E460E070E2FC0145916C
:1035800054912D913C911197420F531F11965C93CA
:103590004E93FC0132960591149112962D913C9117
:1035A0001397200F311F13963C932E93129757FDBC
:1035B0000DC037FD0BC00496149626E0A530B20767
:1035C000E9F6DF91CF911F910F9108951196DC9349
:1035D000CE9313967C936E931297EDCFE5ECF5E0C6
:1035E00020E030E480E090E2318320839383828383
:1035F000349646E0E530F407B9F781E0809399010D
:1036000008958F929F92BF92CF92DF92EF92FF9296
:103610000F931F93CF93DF931F92CDB7DEB7E82EA2
:1036200021E040E860E070E080E090E00E94081A4D
:103630008090E8079090E9078401F12C003811058B
:1036400014F584E0C82ED12C30E08F2D8170B82E77
:10365000932F9170B11002C019F00BC0992349F05B
:1036600020E04CE154E1B601C80139830E94DB1926
:1036700039813F5F88E0C80ED11C373049F7F39499
:10368000085F1F4FDBCF21E040E86FE370E080E090
:1036900090E00E94081A8091900780FD1FC0EE20E4
:1036A00069F081E0881A910881E888168FEF980602
:1036B00054F41092E9071092E80710C08FEF881AAF
:1036C000980A97FE05C09092E9078092E80706C025
:1036D00080E89FEF9093E9078093E8070F90DF91D0
:1036E000CF911F910F91FF90EF90DF90CF90BF90FF
:1036F0009F908F9008950F931F93CF93DF93CDB733
:10370000DEB72A970FB6F894DEBF0FBECDBF95E0A7
:10371000899F80011124C80188559F4F0E94A935B7
:10372000282FC80187559F4F2A870E94A935382F17
:10373000C80186559F4F39870E94A935482F1F829F
:103740001E82C80185559F4F48870E94A9358E83E8
:10375000C80184559F4F0E94A9355E81682F2A8534
:103760003985488570E080E090E02A960FB6F8949D
:10377000DEBF0FBECDBFDF91CF911F910F91089596
:103780008A3028F4853048F4813029F406C08C3022
:1037900021F0803111F080E0089581E00895EF92EA
:1037A000FF920F931F93CF93DF931F92CDB7DEB796
:1037B0007C01FC0100811181C80169830E94A93547
:1037C0006981681719F0C8010E94B135C7010F90CF
:1037D000DF91CF911F910F91FF90EF900895EF929D
:1037E000FF920F931F93CF93DF9300D0CDB7DEB737
:1037F0008C017B01FB0160819A838983CE01019654
:103800000E94CF1BF70161810F5F1F4F1A8309834D
:10381000CE0101960E94CF1BC7010F900F90DF9140
:10382000CF911F910F91FF90EF900895CF93DF9369
:1038300000D0CDB7DEB79A838983CE0101960E946E
:10384000CF1B0F900F90DF91CF9108950F931F938F
:10385000CF93DF9300D0CDB7DEB7082F86EA90E094
:103860000E94A935182F87EA90E00E94A93501111E
:1038700004C0133511F4833479F18AE090E09A831F
:10388000898363E586EA90E00E94161C63E487EA78
:1038900090E00E94161C08EA10E060E0C8010E9457
:1038A000161C60E0C80101960E94161C60E0C80169
:1038B00002960E94161CBE016F5F7F4FC8010396DF
:1038C0000E94EF1B89819A8102979A8389830B5FFB
:1038D0001F4F013C110509F70F900F90DF91CF9119
:1038E0001F910F910895FC0180910008811103C080
:1038F0008FEF9FEF08959FB7F89482E08093E900DF
:103900002091F20030E01216130614F421E030E0AA
:103910002115310559F0289884E68093FF0780919E
:10392000F10080838091F200882319F09FBFC901C4
:1039300008958BE68093E800F9CF2FB7F89483E0E1
:103940008093E9009091E800892F807295FF04C070
:103950009091F20080E4891B2FBF089580910608A2
:1039600081110DC082E08093020884E080930308F7
:10397000109205081092040881E08093060882E006
:1039800098E00895CF93DF931F92CDB7DEB7698398
:10399000DC01ED91FC910280F381E02D41E050E0EB
:1039A000BE016F5F7F4F09950F90DF91CF91089512
:1039B00083E08093E9008091F200882319F08AE384
:1039C0008093E80008950E949D1C90E00895CF9395
:1039D000DF931F92CDB7DEB7FC018485958597FDF7
:1039E00005C02FEF3FEF358724870BC0CE0101962E
:1039F0000E94731C019719F4898190E002C08FEF37
:103A00009FEF0F90DF91CF9108950F931F93CF9366
:103A1000DF931F92CDB7DEB78C01FC0184859585BD
:103A200097FF0EC0CE0101960E94731C019719F4F6
:103A3000298130E002C02FEF3FEFF801358724875E
:103A4000F801848595850F90DF91CF911F910F919B
:103A50000895FC018485958597FD0BC09FB7F89468
:103A600082E08093E9008091F2009FBF90E0019690
:103A700008959FB7F89482E08093E9008091F20066
:103A80009FBF90E008958F929F92AF92BF92CF9286
:103A9000DF92EF92FF920F931F93CF93DF935C011E
:103AA0006B017A0180911B01882309F45BC080912E
:103AB0000008882309F456C08091FE0780FF05C0E6
:103AC0008091E00082608093E000E70110E00AEF5F
:103AD00083E0882E9AE3992E2097D9F10E949D1CAD
:103AE00081110AC0015009F43DC061E070E080E03E
:103AF00090E00E94CB17F0CF282F30E0C217D307F9
:103B00000CF48C2F4FB7F8948092E9009091E80064
:103B100095FF1DC0282F30E0C21BD30BF601982F54
:103B2000915020F081918093F100FACFC20ED31E04
:103B3000112319F09092E80009C08091E80085FDFA
:103B400006C09092E80011E0209709F010E04FBF06
:103B5000C3CF1111C3CF5D9884E6809301081E1472
:103B60001F0444F081E090E0F5019383828380E0BC
:103B700090E001C0C701DF91CF911F910F91FF909D
:103B8000EF90DF90CF90BF90AF909F908F9008956F
:103B9000DF92EF92FF920F931F93CF93DF93D82E74
:103BA0008A017B01E40EF51EEB01CE15DF0571F0F5
:103BB000D7FE03C0FE01849101C088810E94B82213
:103BC00021968111F2CF8FEF9FEF01C0C801DF91E5
:103BD000CF911F910F91FF90EF90DF9008950F9379
:103BE0001F93CF93DF931F92CDB7DEB782E0898317
:103BF00042E450E062E67AE180E80E94C81D0E943B
:103C0000AE1CDC0112960D911C9113970115110544
:103C100069F0D801ED91FC910280F381E02DBE01A5
:103C20006F5F7F4FC801099597FF07C089810F908B
:103C3000DF91CF911F910F910895F80100851185B3
:103C4000E5CF4F925F926F927F928F929F92AF9249
:103C5000BF92CF92DF92EF92FF920F931F93CF9379
:103C6000DF93CDB7DEB761970FB6F894DEBF0FBE16
:103C7000CDBF80930D0691E09093210791E1899F3C
:103C8000B00111246952754E41E150E0CE01019618
:103C90000E94A035298130E0309315062093140648
:103CA0008A8190E0909313068093120673E0220FAE
:103CB000331F7A95E1F73093110620931006E3E065
:103CC000880F991FEA95E1F790930F0680930E06EF
:103CD0008B819C81092E000CAA0BBB0BDC01992760
:103CE00088278093050690930606A0930706B09355
:103CF00008068D819E81092E000CAA0BBB0BDC01EE
:103D0000992788278093090690930A06A0930B06AB
:103D1000B0930C068B85809316078C8580931707CC
:103D20008D85809318078E85809319078F858093E2
:103D30001A0789859A8590931C0780931B078889A9
:103D4000998990931E0780931D07ACE4B7E0ED912D
:103D5000FD911082118212821382E7E0A235BE0724
:103D6000B1F7E2E5F7E0A191B19112961C9287E0DC
:103D7000E636F807C1F7E0910D06F0E0EE0FFF1F01
:103D8000E558FE4FA080B180C12CD12C612C712C44
:103D900055245394F5011491012F02950F701F7053
:103DA00009F463C0402E429450EF452276019701FA
:103DB00036952795F901EB5FF94F8189E0FC03C047
:103DC0008F70842902C0807F802B818B053021F188
:103DD0000B30C9F56091140670911506E72DF0E0DF
:103DE000EE0FFF1FE45BF84F80809180C7010E94B7
:103DF0002E36F4018083618368E270E080E090E019
:103E00000E942717DC01CB018896A11DB11DF4018A
:103E100082838383739417C0609114067091150692
:103E20006217730780F4E62DF0E0EE0FFF1FEE5AE5
:103E3000F84F0190F081E02DC7010E942E3680835B
:103E4000618352826394FFEFEF1AFF0A8E2D8C1963
:103E5000811708F4ACCF1150812F90E00196C80E65
:103E6000D91E8FEFA81AB80A95CF61960FB6F894AD
:103E7000DEBF0FBECDBFDF91CF911F910F91FF909D
:103E8000EF90DF90CF90BF90AF909F908F907F90FA
:103E90006F905F904F900895CF93DF93CDB7DEB7CB
:103EA00061970FB6F894DEBF0FBECDBF0E94211EF2
:103EB00060910D0681E1689FB00111246952754E31
:103EC00041E150E0CE0101960E94A035E5E7F7E020
:103ED000108611861286138A81E0848B858B168A60
:103EE000178A118A89859A85958784878F8190E0C2
:103EF000A0E0B0E0DC019927882780839183A2832A
:103F0000B383888590E0A0E0B0E0DC0199278827A2
:103F100084839583A683B7838FEF8093A4056196EE
:103F20000FB6F894DEBF0FBECDBFDF91CF910895DD
:103F30004F925F926F927F928F929F92AF92BF92B9
:103F4000CF92DF92EF92FF920F931F93CF93DF9365
:103F5000EC018B01442ECB018C1B9D0B97FF03C002
:103F600091958195910955245394813891053CF49C
:103F7000512CC80100E810E0E12CF12C0FC00C1707
:103F80001D0734F07E0180E890E0C0E0D0E006C07C
:103F900078018E0180E090E0C0E8D0E038016E1832
:103FA0007F085C01AC1ABD0AB7FE03C0B194A194AE
:103FB000B108630177FE03C02FEFC21AD20AD5946D
:103FC000C794C817D90714F08FEF01C081E0882E7D
:103FD000880F99080E151F05C4F0242D552019F0DF
:103FE000A701BE0102C0AE01B7018DE897E00E94B3
:103FF0004B1ACA18DB08D7FE04C0C80DD91DC60C61
:10400000D71C8FEFE81AF80AE5CFDF91CF911F9107
:104010000F91FF90EF90DF90CF90BF90AF909F9067
:104020008F907F906F905F904F9008951F920F92A6
:104030000FB60F9211248F939F938091E10090917E
:10404000E100937F9093E10083FF0FC01092E9009D
:1040500091E09093EB001092EC0092E39093ED00CE
:104060001092000898E09093F00082FF20C093E047
:104070009093E9009091F200992319F09AE39093BC
:10408000E80090910108992339F09091010891502E
:1040900090930108992389F19091FF07992339F0B2
:1040A0009091FF0791509093FF07992341F184FF6E
:1040B00010C08091E2008E7E81608093E20080914A
:1040C000E1008F7E8093E1008091FE078E7E80610B
:1040D00011C080FF16C08091E2008E7E80618093C7
:1040E000E2008091E1008E7E8093E1008091FE07E6
:1040F0008E7E81608093FE0704C05D9ACDCF289AA2
:10410000D6CF9F918F910F900FBE0F901F90189553
:104110001F920F920FB60F921124CF92DF92EF925F
:10412000FF920F931F932F933F934F935F936F9340
:104130007F938F939F93AF93BF93EF93FF93CF930F
:10414000DF93CDB7DEB76C97DEBFCDBF1092E9002D
:104150008091E80083FFEDC168E0CE0145960E94A2
:10416000E62282EF8093E8008D8987FF05C0909159
:10417000E80090FFFCCF03C09EEF9093E800982FDB
:10418000907609F0C6C09E892F89188D91110CC0B8
:10419000803829F48091FD078093F10002C01092CD
:1041A000F1001092F10048C1422F50E0512B9130A4
:1041B00051F4811141C14130510509F03DC1809157
:1041C000FD078D7F0BC0933061F4811135C1413003
:1041D000510509F031C18091FD0782608093FD0790
:1041E0002BC1953041F48091E80080FFFCCF20681E
:1041F0002093E30021C1963009F05FC0EB8CFC8C6A
:104200001092E9001092FB071092FA07123091F514
:104210001092F9071092F8070E94EF1D99E0BE0175
:104220006F5F7F4FDB01E92F1D92EA95E9F79983D4
:104230001A8391E09E8390EA98879AEF998720915C
:10424000FA073091FB07275F3F4F3C832B838D8319
:104250001092E9001092FB071092FA07F092F9070A
:10426000E092F80749E050E080E00E94C81D0E94FB
:10427000EF1DE2C0F092F907E092F8070E94AE1C31
:10428000DC011296ED90FC901397E114F10409F40F
:10429000C0C0D701ED91FC910480F581E02DBE01F5
:1042A0006B5E7F4FC7010995009719F00CF0C4C0F1
:1042B000C7C0F701E084F184E8CF973009F4C0C0AB
:1042C000983021F481E08093F100B6C0993009F074
:1042D000B3C0837009F0B4C0E5E7F1E081E021E00C
:1042E00036E39081992361F08093E9002093EB00FD
:1042F00091919093EC003093ED008F5F873089F7B8
:104300008EE78093EA001092EA008F89809300087C
:1043100093C08B8D9C8D1092E9001092FB07109238
:10432000FA079093F9078093F807898D811156C099
:104330008E899D89913A59F4813209F081C047E014
:1043400050E064E171E080E00E94C81D75C09132C8
:1043500009F076C0833289F4888D90E0982F882701
:104360002F89822BA0E0B0E080931001909311017F
:10437000A0931201B09313015FC0803269F4809161
:10438000E80082FFFCCF67E084E191E00E94E62232
:104390008BEF8093E80006C0823209F04DC08F8910
:1043A00080931B018091FC07882319F0EEEFFAE05F
:1043B00002C0E0E0F8E08091140190911501A09115
:1043C0001601B0911701803B9440A105B10509F099
:1043D0007BC080911B0180FF93C076C00E94AE1C01
:1043E000DC0112960D911C9113970115110541F1F5
:1043F000D801ED91FC910190F081E02DBE016B5E42
:104400007F4FC8010995811117C0F80100851185FA
:10441000ECCF113009F44EC0133091F48F8988230A
:1044200009F445C0823081F440E860E186EC9AE10D
:104430000E940735882321F08EEF8093E80079C031
:1044400081E28093EB0075C0813029F440E86BE095
:104450008AEB9AE1EDCF833099F70E94AE1CDC0124
:104460001296ED90FC9013978E010F5F1F4F68011D
:10447000E114F10479F0D701ED91FC910680F78108
:10448000E02DB801C7010995080F111DF701E0845F
:10449000F184EECFD8011C92F60101900020E9F7DB
:1044A0003197BF016C197D0940E0C601C1CF64EAB4
:1044B0007AE102C068EA7AE16115710509F2FB014F
:1044C000449150E080E840CF0FB6F894A8958091D1
:1044D0006000886180936000109260000FBEA89514
:1044E000EE3F2AE0F20739F08091FE0A9091FF0A30
:1044F00091838083A1CF1092FF0A1092FE0A9CCF75
:10450000EE3F8AE0F80731F0808191819093FF0AB5
:104510008093FE0A87E797E7918380839BE088E199
:104520000FB6F894A895809360000FBE909360003A
:1045300083CF6C960FB6F894DEBF0FBECDBFDF9170
:10454000CF91FF91EF91BF91AF919F918F917F910B
:104550006F915F914F913F912F911F910F91FF901C
:10456000EF90DF90CF900F900FBE0F901F90189597
:104570004091FA075091FB072091F8073091F90715
:1045800042175307B4F49091E8009570E1F39091CD
:10459000E80092FD19C08093F1008091FA07909194
:1045A000FB0701968F739927892B19F48EEF80935F
:1045B000E8008091FA079091FB0701969093FB0722
:1045C0008093FA0781E0089580E00895615030F00B
:1045D0002091F100FC0120830196F8CF289884E611
:1045E0008093FF070895CF93DF93CDB7DEB7A797EA
:1045F0000FB6F894DEBF0FBECDBF789484B582604D
:1046000084BD84B5816084BD85B5826085BD85B576
:10461000816085BD80916E00816080936E001092F4
:10462000810080918100826080938100809181006F
:104630008160809381008091800081608093800000
:1046400080919100826080939100809191008160BF
:104650008093910080919000816080939000809180
:10466000C10084608093C1008091C100826080930A
:10467000C1008091C10081608093C1008091C3001E
:1046800081608093C3008091C00082608093C000ED
:104690008091C20081608093C20080917A00846022
:1046A00080937A0080917A00826080937A00809172
:1046B0007A00816080937A0080917A00806880938C
:1046C0007A00109200081092FD071092FE07809168
:1046D000D70081608093D70080EA8093D80089B5A5
:1046E000806189BD89B5826089BD09B400FEFDCFB6
:1046F00061E070E080E090E00E94CB178091D800EC
:104700008F7C80618093D8008091E000807F8093CF
:10471000E0008091E1008E7E8093E1008DE0809347
:10472000E200559A209AEEEFFFE7859194918B3F36
:104730009C4D19F481E08093FC0781EC80937C0010
:1047400085B1806F85B984B1877E84B984B1876E65
:1047500084B95E9A5F988AB1806D8AB9769A6E98AC
:1047600081B3806F81BB899880B38D7080BB80E5F9
:104770008CBD81E08DBD85E090E00E94FB195F9AC1
:1047800085E090E00E94FB195E985C98E4E6F1E019
:104790008DE08E0F94919EBD00000DB407FEFDCFFD
:1047A00031968E13F7CF5C9A81E8809364008091F4
:1047B000650081608093650080E00E949F100E94E8
:1047C000001A87FF15C05C9885EA8EBD00000DB405
:1047D00007FEFDCF5C9A2E982F982D98809164004B
:1047E00080628093640081E083BF889513BEFCCF14
:1047F00002E010E00E94001A82FF40C02D980E9443
:10480000001A84788438C1F00E94001A84718431BF
:1048100081F52D9A88EC90E00E94FB192E981A835E
:10482000098360E0CE0101960E94CF1B84EF91E0E6
:104830000E94FB192E9A18C02D9A88EC90E00E94D5
:10484000FB192F981A8309836FEFCE0101960E94FE
:10485000CF1B84EF91E00E94FB192F9A0E94001A4F
:1048600084788438D9F3D0CF0E94001A84718431BF
:10487000D9F388EC90E00E94FB19BCCF2D9A82E01E
:1048800090E00E94A935882331F03E9A3F9A81E05A
:104890008093940104C0109294013E983F9880E068
:1048A000E2EAF1E081118FEF0024819381938193FB
:1048B00081930394D1F780E18093940780E00E9474
:1048C000261CAE014F5F5F4F1A018FB7F8944091DD
:1048D00095015091960160919701709198018FBF59
:1048E00080919507942F981B892F90919607992373
:1048F00031F080939707109296070C94322F909185
:104900009407891758F48F5F891710F00C94322F91
:1049100081E083BF889513BE0C94322F81E0809391
:104920009607409395078091900790919107019683
:1049300090939107809390078091920780939307BB
:104940000E94001A80939207E091AF058E2F90E0AD
:104950008E30910510F00C94232DFC01EA5AFF4F84
:104960000C94563620E04EE759E061E170E08EE1AC
:1049700090E00E94DB1980910401882381F081304E
:1049800009F05DC0109200011092010190E4909333
:10499000020180930301109204010C94232D809155
:1049A000000187FD44C08091020190E02091010147
:1049B000821B910997FD019695958795B82EE12C5C
:1049C000F12C30E8C32ED12C40910001EB1440F5BE
:1049D0008701000F111F80910101B801680F711D3F
:1049E000603471052CF420E080E090E00E94081A09
:1049F00080910101B801680F711D6F5F7F4F809139
:104A000000016034710544F420E0482FD601A81B52
:104A1000B109CD010E94081ABFEFEB1AFB0AD4CFEF
:104A200047FD05C080910301480F4093000180912C
:104A3000000187FD02C00C94232D0C94FC2F8150A3
:104A4000809304010C94232D1092A0011092AD05C7
:104A500010929F0111E01093090180E00E944C1F09
:104A60006EEF809109010E94AE1010927F0782E0E4
:104A70008093AF0580E8809305011092060180E4E1
:104A800080930701109308012091A50580910506E8
:104A900090910606A0910706B09108064D01E8E046
:104AA0002E9F800C911C11242091A605809109064F
:104AB00090910A06A0910B06B0910C063D01F8E01A
:104AC0002F9F600C711C11248091A001882319F084
:104AD00081508093A0018091AD05882379F08150A9
:104AE0008093AD0581110AC081E090910901911177
:104AF00080E0809309016EEF0E94AE1020E04CEF41
:104B000057E067E070E080E090E00E94DB1920E071
:104B100045E257E06FE170E08DE190E00E94DB1923
:104B2000A0900901AA8E512C3A2D3F5F3EA3E52C9F
:104B3000F12C8091120690911306E816F90608F000
:104B40007BC0B3E0EE0CFF1CBA95E1F710E0A701C3
:104B5000425051095BA34AA3C70101979DA38CA3AF
:104B6000C12ED12C8091140690911506C816D90635
:104B700008F060C083E0CC0CDD1C8A95E1F7652D60
:104B8000812F0E947710882309F452C0843009F0E5
:104B900048C030911807E0910D06F0E0EE0FFF1FBE
:104BA000E05EFE4FA080B180412C90E0A6014E5FF8
:104BB0005F4F5D8F4C8FD6011396BF8FAE8F43161C
:104BC00061F1F50184913196E491181321C05E12D0
:104BD0001FC0FA8DF4111CC024E043E956E0B70170
:104BE000C6013FA30E94DB1901E027E045E06AA16E
:104BF0007BA18C8D9D8D0E94F3112EA143E756E081
:104C00006CA17DA18E8D9F8D0E94701991E03FA1B6
:104C1000439422E0A20EB11CD2CF911109C02AE028
:104C200001C0282F43E956E0B701C6010E94DB19F5
:104C30001F5F96CF53947BCF0E943212B301C40101
:104C40000E9497120E94530E80918807811105C01F
:104C50008091AA0581110C943C2F8091A00188239A
:104C600021F0B301C4010E94DC0FB301C4010E9412
:104C70001F108091790790917A07A0917B07B091DE
:104C80007C070097A942B1050CF4DDC680917E0730
:104C9000181614F40C94402FD6C681E080939F011F
:104CA00085E080938507109284071092830784E043
:104CB0008093AF0580919F010E94211E86ED9AE0AE
:104CC0000E945D1985E08093AF0580919901811163
:104CD00002C00E94EE1A0E94B21A0E94991A00E0C5
:104CE00021E14EE567E170E082E190E00E94F3117E
:104CF00021E04CE569E170E083E190E00E94081A50
:104D000021E04CE566E270E083E190E00E94081A41
:104D1000809117078A5E8093700780936F078CE1FC
:104D200080937107E0910D06E150F0E0EE0FFF1F58
:104D3000E35AF94F659174918BE697E00E94A717AB
:104D400088E00E94480E882319F086E08093AF0522
:104D500087E080939E0177C61092AE0580919F01F7
:104D60000E944C1F6FEF8FEF0E94AE1080919E014A
:104D70008093AF058091A1018F5F68E20E94223687
:104D80009093A1012091A5058091050690910606BA
:104D9000A0910706B09108064D0138E0239F800CD2
:104DA000911C11249B8E8A8E2091A6058091090664
:104DB00090910A06A0910B06B0910C062D0148E0D7
:104DC000249F400C511C11248091A001882319F0CC
:104DD00081508093A0018091AD05882349F08150D6
:104DE0008093AD05811104C06FEF8FEF0E94AE106C
:104DF00080911F0790912007009751F001979093A1
:104E0000200780931F07892B19F481E00E94391035
:104E1000912C692C712C80911206909113066816C2
:104E2000790608F0CFC0530163E0AA0CBB1C6A9559
:104E3000E1F7BD8EAC8E10E0A12EB12C809114064E
:104E400090911506A816B90608F0BAC0809105061B
:104E500090910606A0910706B09108067501E3E05F
:104E6000EE0CFF1CEA95E1F7EA0EFB1E80910906A5
:104E700090910A06A0910B06B0910C069701285F4D
:104E80003F4F2838310508F099C0CC8CDD8CCA0E14
:104E9000DB1EC60108968834910508F08FC0692D85
:104EA000812F0E947710843051F18B3009F465C056
:104EB00081117DC08091120690911306689EF001C9
:104EC000699EF00D789EF00D1124EA0DFB1DCF01B7
:104ED00003966BE170E00E942E369C012770332709
:104EE000232B09F06BC04091900750919107E42764
:104EF000F527E370FF27EF2B09F0C6C75FC024E05A
:104F000043E956E0B601C7010E94DB1901E027E042
:104F100045E0B60162507109C70102960E94F31183
:104F20008091A101843108F049C000911807E091F7
:104F30000D06F0E0EE0FFF1FE05EFE4FA080B18097
:104F4000812C51E0C51AD10883E0E80EF11C8016CF
:104F5000A9F1F50184913196E4918394181309C065
:104F60009E1207C0282D43E756E0B601C7010E94F4
:104F70007019F2E0AF0EB11CEACFACE4B7E0ED91EE
:104F8000FD918081811389C78181891186C78281C2
:104F900024E0829FC0011124638170E00E944236A8
:104FA000262F643008F023E049E156E003C0282FA3
:104FB00043E956E0B601C7010E94DB191F5F3CCFF1
:104FC000939427CF809186078111D6C00E94530EFB
:104FD00080918807811104C08091AA05811165C75D
:104FE0008091AF05883009F0C7C010928C07F1019D
:104FF00082E1820D11928E13FDCF809179079091FD
:105000007A07A0917B07B0917C07AD01772757FD08
:105010007095672F8091090690910A06A0910B0662
:10502000B0910C06CD01BB2797FDB095AB2F5A016F
:10503000A81AB90A00917507109176072091770791
:10504000309178078901332717FD3095232F809100
:10505000050690910606A0910706B0910806CD01BD
:10506000BB2797FDB095AB2F081B190B33E01695A6
:1050700007953A95E1F799249394900E42E0C42E57
:10508000C00E750153E0F694E7945A95E1F7DD24DC
:10509000D394DE0C6E2D802F0E9477103101680EA4
:1050A000711CD3019C91911108C0482F6E2D802F47
:1050B0000E944F1181E0F30180836E2D892D0E94A3
:1050C00077103101680E711CD3019C91911108C0B9
:1050D000482F6E2D892D0E944F1181E0F3018083AE
:1050E0006E2D8C2D0E9477103101680E711CD3013A
:1050F0009C91911108C0482F6E2D8C2D0E944F114C
:1051000081E0F3018083F8E0AF16B104A8F16D2DC2
:10511000802F0E9477107101E80EF11CD7019C913D
:10512000911108C0482F6D2D802F0E944F1181E0F2
:10513000F70180836D2D892D0E9477108101080F62
:10514000111DD8019C91911108C0482F6D2D892DFA
:105150000E944F1181E0F80180836D2D8C2D0E94FB
:105160007710F101E80FF11D9081911105C0482FD2
:105170006D2D8C2D0E944F118091AF05873021F449
:105180008091A101843110F40E94321210919D018E
:10519000112361F187E290E0811B910997FD079649
:1051A0009C01A3E035952795AA95E1F780917907B1
:1051B00090917A07A0917B07B0917C07BD016A505E
:1051C00071098091750790917607A0917707B0914A
:1051D0007807E22E022F2BEF33E049E055E0CD01B6
:1051E00005970E94EB19115010939D01B2018A8D11
:1051F0009B8D0E94971220E049E753E068E370E03E
:1052000080E090E00E94DB198DE08093700780932E
:105210006F0789E3809371078091830790918407DA
:10522000F10125E0220D6AE070E00E942E368193A4
:10523000CB012E13F8CF8E010A5F1F4FD8014E917C
:105240008D0150E060E070E02AE08BE697E00E947C
:105250004B170215130591F72091810730918207B2
:10526000C9010197439708F023C68091A1018431B9
:1052700008F01EC600E028E04EE169E370E08CE231
:1052800090E00E94F3118EE58093700780936F0782
:1052900019E310937107809185070AE0602F0E943F
:1052A0002236492F50E060E070E02AE08BE697E07C
:1052B0000E944B1783E78093700780936F071093CA
:1052C00071078091A305602F0E942236192F0E943A
:1052D0002236492F50E060E070E02AE08BE697E04C
:1052E0000E944B17412F50E060E070E02AE08BE60F
:1052F00097E00E944B178091A001882329F0B2010A
:105300008A8D9B8D0E94DC0FB2018A8D9B8D0E943D
:105310001F108091AF05873041F488E00E94480E4D
:10532000882309F490C388E0A3C090918C078091F2
:105330008607911103C0882309F4E5C5833328F457
:10534000833058F4823069F026C0833321F583E23C
:1053500093E00E945D1980918607815080938607B3
:105360001AC081E0809386078091850781508093E1
:105370008507882369F080910D060E94211E1092F6
:10538000860786E08093AF0587E080939E0103C087
:105390008AE08093AF0580919007909191076FE02C
:1053A00070E00E942E36892B09F04DC380919C013C
:1053B0008F5F8B3018F480939C0145C310929C0141
:1053C0008091A3058B3008F43EC381508093A305E0
:1053D0003AC380919901811102C00E94EE1A0E9485
:1053E000B21A0E94991A00E02EE142E662E170E0F2
:1053F0008FE090E00E94F31121E040E663E170E06D
:1054000080E190E00E94081A21E040E66EE270E040
:1054100080E190E00E94081A8BE2809370078093ED
:105420006F0788E18093710765E173E08BE697E091
:105430000E94A71781E38093700780936F0782E231
:105440008093710769E073E08BE697E00E94A717ED
:1054500020E04FEB52E065E170E082E190E00E94D5
:10546000DB1988E00E94480E882309F4ECC28AE028
:105470008093AF05E8C280E99AE00E945D198BE055
:105480008093AF0581E00E94011B00E02FE140E81E
:1054900060E170E080E090E00E94F31140E06DE098
:1054A00070E08DE090E00E94981F40E06FE070E0B7
:1054B0008FE090E00E94981F41E061E170E081E19F
:1054C00090E00E94981F41E06DE270E08DE290E074
:1054D0000E94981F40E06FE270E08FE290E00E942F
:1054E000981F40E061E370E081E390E00E94981F24
:1054F00020E047E252E064E170E089E190E00E9440
:10550000DB1984E28093700780936F0783E28093B6
:10551000710760E272E08BE697E00E94A717809126
:10552000830790918407F10125E0220D6AE070E085
:105530000E942E368193CB012E13F8CF8E010A5F85
:105540001F4FD8014E918D0150E060E070E02AE0DD
:105550008BE697E00E944B170215130591F788E040
:105560000E94480E811100C584E00E94480E8111FE
:10557000FBC410929F0167C28FEF80936607109261
:105580006707109268071092690710926A07809166
:10559000830790918407998F888FF12C8F2D0E941B
:1055A0007B1B29833A834B835C836D832C813D81F4
:1055B000888D998D2817390728F40FEB10E0F4E057
:1055C000EF2E07C0F394B5E0FB12E8CFFF24FA9466
:1055D00045C0FE1428F5EA948E2D0E947B1B29837A
:1055E0003A834B835C836D83622FC80103970E94CB
:1055F000161C6A81C80102970E94161C6B81C801A3
:1056000001970E94161C8C819D819C8B8B8BBE0107
:105610006D5E7F4FC8010E94EF1B05501109D9CF65
:10562000E5E0FE9E8001112460E0C80188559F4F8F
:105630000E94161C60E0C80187559F4F0E94161CEF
:1056400060E0C80186559F4F0E94161CBE01685E2F
:105650007F4FC80185559F4F0E94EF1BF092660750
:105660008DE08093AF0580E88093050110920601DC
:1056700080E48093070181E08093080180E00E942C
:10568000011B00E020E442E560E070E087E190E08B
:105690000E94F31100E010E021E0A80168E170E051
:1056A0008DE897E00E944B1A0F5F1F4F00341105E1
:1056B00099F700E010E021E0A80167E670E08DE8CE
:1056C00097E00E944B1A0F5F1F4F0034110599F7A6
:1056D00020E04EE851E066E070E08CE190E00E944E
:1056E000DB1905E110E0B12C76E0A72EE6E09E2E56
:1056F000920C8B2D0E947B1B2B8B3C8B4D8B5E8BDE
:105700006F8B4AEA51E1B80183E290E00E94DB1915
:105710002C894AEA51E1B80189E290E00E94DB1944
:105720002D894AEA51E1B8018FE290E00E94DB192D
:10573000D101EA2D1D92EA95E9F78E899F896101D1
:10574000F1016AE070E00E942E368193CB019E1237
:10575000F8CF69E5E62EF12CD6012D916D012C5C78
:105760004AEA51E1B801C7010E94DB19B5E0EB1A22
:10577000F108EBE3EE16F10479F7B394085F1F4FDD
:10578000F5E0BF12B6CF109166071F3F09F41BC1A9
:1057900080919B018F5F80939B018F30E8F428E01C
:1057A000129FB00111246C5E7F4F20E04BE851E066
:1057B0008EE190E00E94DB196091660738E0639FFC
:1057C000B00111246C5E7F4F20E04BE851E081E690
:1057D00090E00E94DB1904C08F3110F010929B0101
:1057E000809167076091660781111EC048E0649F41
:1057F000B00111246C5E7F4F01E028E046E082E2B8
:1058000090E00E94F3116091660758E0659FB00137
:1058100011246B5E7F4F209168074AEA51E183E2D1
:1058200090E00E9470190EC088E0689FB0011124BA
:105830006B5E7F4F209168074AEA51E183E290E076
:105840000E94DB1980916707609166078130F1F44F
:1058500098E0699FB00111246C5E7F4F01E028E061
:1058600046E088E290E00E94F31160916607A8E0AC
:105870006A9FB00111246B5E7F4F209169074AEA4D
:1058800051E189E290E00E9470190EC0B8E06B9F70
:10589000B00111246B5E7F4F209169074AEA51E104
:1058A00089E290E00E94DB198091670760916607AA
:1058B0008230F1F4E8E06E9FB00111246C5E7F4FFE
:1058C00001E028E046E08EE290E00E94F311609152
:1058D0006607F8E06F9FB00111246B5E7F4F209147
:1058E0006A074AEA51E18FE290E00E9470190EC007
:1058F00028E0629FB00111246B5E7F4F20916A0700
:105900004AEA51E18FE290E00E94DB1910916707AB
:1059100080E80E94480E882359F0E12FF0E0EA5910
:10592000F84F8281893118F48F5F828301C012821F
:1059300080E10E94480E882359F0E12FF0E0EA59F7
:10594000F84F8281882311F0815001C089E1828360
:1059500080E20E94480E882329F0112319F011508B
:105960001093670780E40E94480E882339F08091E5
:105970006707823018F48F5F8093670788E00E9482
:10598000480E882309F45FC00091660735E0039F45
:105990008001112460916807C80188559F4F0E94BB
:1059A000161C60916907C80187559F4F0E94161CFD
:1059B00060916A07C80186559F4F0E94161C8FEFA1
:1059C0008093660740C00E94001A87FFF8C20E94B9
:1059D000001A84FDCDC2F3C28D3309F0D0C21092FB
:1059E0009A0183E884BD17BD81EF809380001092F7
:1059F000880010928A0081E00E94261C809171002C
:105A00008D7F809371001092B40585EB95E09093A3
:105A1000B3058093B2059093B1058093B00587E1FB
:105A200094E09093B6058093B50584E690E090935A
:105A3000B8058093B70580E090E89093BA0580930D
:105A4000B9050E944F1881E00E949F108091AF0518
:105A5000823019F0883009F005C2F0917E078F2F4F
:105A60000F2E000C990BAA0BBB0BDC019927882782
:105A70006C017D01FF0CCC08DC2C76019C01AD0192
:105A80006C2D7C2D8C2D9C2D00E10E945C367901C3
:105A90008A01B62FE72F6C01A0E00E9493366CF4C8
:105AA00021503109484F5F4F6F4F7F4F8F4F9F4FAE
:105AB00079018A01B62FE72F6C019701A8016B2F9E
:105AC0007E2FC60103E10E94753669017A0180913B
:105AD0007D07082E000C990BAA0BBB0BDC01992744
