:100000000C946C050C9494050C9494050C94940534
:100010000C9494050C9494050C9494050C949405FC
:100020000C9494050C9494050C94690C0C94D80CC5
:100030000C9494050C9494050C9494050C949405DC
:100040000C9494050C9494050C9494050C949405CC
:100050000C9494050C9494050C9494050C940A0F3C
:100060000C9494050C9494050C9494050C949405AC
:100070000C9494050C9494050C9494050C9494059C
:100080000C9494050C9494050C9494050C9494058C
:100090000C9494050C9494050C9494050C9494057C
:1000A0000C9494050C9494050C94940500000000A5
:1000B000003E5B4F5B3E3E6B4F6B3E1C3E7C3E1CEE
:1000C000183C7E3C181C577D571C1C5E7F5E1C0034
:1000D000183C1800FFE7C3E7FF0018241800FFE7EB
:1000E000DBE7FF30483A060E2629792926407F05AE
:1000F0000507407F05253F5A3CE73C5A7F3E1C1CC4
:1001000008081C1C3E7F14227F22145F5F005F5F83
:1001100006097F017F006689956A6060606060946F
:10012000A2FFA29408047E040810207E2010080874
:100130002A1C08081C2A08081E101010100C1E0C7F
:100140001E0C30383E3830060E3E0E060000000011
:100150000000005F00000007000700147F147F14F8
:10016000242A7F2A1223130864623649562050003D
:1001700008070300001C2241000041221C002A1C29
:100180007F1C2A08083E0808008070300008080814
:100190000808000060600020100804023E51494534
:1001A0003E00427F400072494949462141494D3352
:1001B0001814127F1027454545393C4A49493141B9
:1001C000211109073649494936464949291E000087
:1001D00014000000403400000008142241141414DC
:1001E0001414004122140802015909063E415D59C8
:1001F0004E7C1211127C7F494949363E41414122D1
:100200007F4141413E7F494949417F090909013EFA
:10021000414151737F0808087F00417F4100204021
:10022000413F017F081422417F404040407F021C33
:10023000027F7F0408107F3E4141413E7F0909094A
:10024000063E4151215E7F09192946264949493216
:1002500003017F01033F4040403F1F2040201F3FDC
:100260004038403F63140814630304780403615961
:10027000494D43007F4141410204081020004141A3
:10028000417F04020102044040404040000307084F
:100290000020545478407F2844443838444444284B
:1002A000384444287F385454541800087E090218F2
:1002B000A4A49C787F0804047800447D400020407A
:1002C000403D007F1028440000417F40007C0478BE
:1002D00004787C080404783844444438FC18242406
:1002E0001818242418FC7C08040408485454542486
:1002F00004043F44243C4040207C1C2040201C3C03
:100300004030403C44281028444C9090907C4464F9
:10031000544C44000836410000007700000041368C
:10032000080002010204023C2623263C1EA1A16112
:10033000123A4040207A3854545559215555794144
:100340002154547841215554784020545579400C1B
:100350001E527212395555555939545454593955FC
:100360005454580000457C410002457D420001453F
:100370007C40F0292429F0F0282528F07C545545AC
:10038000002054547C547C0A097F4932494949323F
:100390003248484832324A4848303A4141217A3A54
:1003A00042402078009DA0A07D39444444393D401E
:1003B00040403D3C24FF2424487E4943662B2FFCCB
:1003C0002F2BFF0929F620C0887E09032054547979
:1003D000410000447D413048484A32384040227A4A
:1003E000007A0A0A727D0D19317D2629292F2826C7
:1003F0002929292630484D402038080808080808CF
:100400000808382F10C8ACBA2F102834FA00007B27
:10041000000008142A142222142A1408950022002D
:1004200095AA005500AAAA55AA55AA000000FF00E7
:10043000101010FF00141414FF001010FF00FF1024
:1004400010F010F0141414FC001414F700FF000056
:10045000FF00FF1414F404FC141417101F10101FD5
:10046000101F1414141F00101010F0000000001FC3
:10047000101010101F10101010F010000000FF10CE
:100480001010101010101010FF10000000FF1400CA
:1004900000FF00FF00001F10170000FC04F41414FC
:1004A0001710171414F404F40000FF00F7141414C8
:1004B00014141414F700F7141414171410101F1048
:1004C0001F141414F4141010F010F000001F101F6B
:1004D0000000001F14000000FC140000F010F010D9
:1004E00010FF10FF141414FF141010101F00000050
:1004F00000F010FFFFFFFFFFF0F0F0F0F0FFFFFF54
:100500000000000000FFFF0F0F0F0F0F38444438AA
:10051000447C2A2A3E147E02020606027E027E02E5
:1005200063554941633844443C04407E201E200604
:10053000027E020299A5E7A5991C2A492A1C4C7241
:1005400001724C304A4D4D303048784830BC625AC8
:10055000463D3E494949007E0101017E2A2A2A2A58
:100560002A44445F444440514A444040444A514034
:100570000000FF0103E080FF000008086B6B0836F5
:1005800012362436060F090F060000181800000066
:100590001010003040FF0101001F01011E00191D55
:1005A0001712003C3C3C3C0000000000080B00021D
:1005B00002020000090400000102020000052400FC
:1005C000100105240101010424020605240600018E
:1005D0000705810310004009040100020A00000021
:1005E00007050202400000070583024000000403E3
:1005F000090412010002EF0201404123368000018C
:100600000102030141726475696E6F204C4C430016
:100610004142413133303900F0F89C8E8783878E18
:100620009CF8F00000FEFF0303030303070EFCF831
:100630000000FEFF0303030303070EFCF80000FFA6
:10064000FF00000000000000FFFF0000FEFF8383AA
:10065000838383C7EE7C380000F8FC0E0703030396
:10066000070EFCF800003F7FE0C08080C0E07F3FC5
:10067000FFFF01010101010101FFFF0000FFFF0C6D
:100680000C0C0C1C3E77E3C100007FFFC0C0C0C053
:10069000C0E0703F1F00001F3F70E0C0C0C0E070AE
:1006A0003F1F00007FFFC1C1C1C1C1E3773E1C00F5
:1006B000001F3F70E0C0C0C0E0703F1F000000009E
:1006C0000001FFFF01000000D5F0E3E3A1C881CFE6
:1006D000D9F1AF2000000000000000000000000081
:1006E000000000000000000000000000000000000A
:1006F00000000000000000000000000000000000FA
:1007000000000000000000000000000000000000E9
:1007100000000000000000000000000000000000D9
:1007200000000000000000000000000000000000C9
:1007300000000000000000000000000000000000B9
:1007400000000000000000000000000000000000A9
:100750000000000000000000000000000000000099
:100760000000000000000000000000000000000089
:10077000000000000000000000808080808080C0B9
:10078000C0C0C0C0C0C0C0E0E0E0E0E0E0E0E0E049
:10079000E0E0E0E0E0E0E0E0E0E0E0E0E0E0C0C099
:1007A000C0C0C0C0C0C080808080808000000000C9
:1007B0000000000000000000000000000000000039
:1007C0000000000000000000000000000000000029
:1007D0000000000000000000000000000000000019
:1007E000000000000080C0C0E0E0F0F0F8F8F8FC85
:1007F000FCFEFEFEFEFFFFFFFF7F3F3F3F3F3F3F10
:100800007FFFFFFFFF7F3F3F3F3F3F3F3F3F3F7F38
:10081000FFFFFFFF7F3F3F3F3F3F3F3F3F3F7FFFA8
:10082000FFFFFFFFFFFF7F3F3F3F3F3F3F3F3F3F18
:100830007EFEFEFFFFFCF8F8F8F0F0E0E0C0C080BC
:1008400000000000000000000000000000000000A8
:100850000000000000000000000000000000000098
:1008600000F0FCFEFFFFFFFFFFFFFFFFFFFFFFFFAA
:10087000FFFFFFFFFFFF0301010000F8F8F8F80099
:1008800000010103FF000000000008080808000044
:10089000C1C1E3FF00000000000808080800004193
:1008A00041E3FFE3C1C10000080808080818787890
:1008B000FCFFFFFFFFFFFFFFFFFFFFFFFFFFFFFF4B
:1008C000FFFEFCF00000000000000000000000003F
:1008D0000000000000000000000000000000000018
:1008E0000001070F1F3F7F7FFFFFFFFFFFFFFFFF9D
:1008F000FFFFFFFFFFFFF8F0F0C08083838383805A
:10090000C0F0F0F8FFC0808080C0FEF8F0F0C0803A
:100910008383C7FFC0808080808282828280C0F013
:10092000F0F8FFC7838383828282828280C0F0F0E6
:10093000F8FFFFFFFFFFFFFFFFFFFFFFFF7F7F3F8E
:100940001F0F070100000000000000000000000071
:100950000000000000000000000000000000000097
:100960000000000000000000000001010303030775
:10097000070F0F0F0F1F1F1F1F3F3F3F3F3F3F7FBF
:100980007F7F7F7F7F7F7FFFFFFFFFFFFFFFFFFFF7
:10099000FFFFFFFFFFFFFFFFFFFFFFFFFFFF7F7F67
:1009A0007F7F7F7F7F7F3F3F3F3F3F3F1F1F1F1F57
:1009B0000F0F0F0F070703030301010000000000E2
:1009C0000000000000000000000000000000000027
:1009D0000000000000000000000000000000000017
:1009E0000000000000000000000000000000000007
:1009F00000000000000000000000000000000000F7
:100A000000000000000000000000000000000000E6
:100A100000000000000000000000000000000000D6
:100A200000000000000000000000000000000000C6
:100A300000000000000000000000000000000000B6
:100A400000000000000000000000000000000000A6
:100A50000000000000000000000000000000000096
:100A60000000000000000000000000000000000086
:100A70000000000000000000000000000000000076
:100A80000000000000000000000000000000000066
:100A90000000000000000000000000000000000056
:100AA0000000000000000000000000000000000046
:100AB0000000000000000000000000000000000036
:100AC0000000000000000000000000000000000026
:100AD000000000000000870F11241FBECFEFDAE0F6
:100AE000DEBFCDBF11E0A0E0B1E0E6E7F4E402C074
:100AF00005900D92A436B107D9F727E0A4E6B1E03E
:100B000001C01D92A830B207E1F715E0CCE6D5E0B0
:100B100004C02197FE010E94471FCB36D107C9F7B9
:100B20000E94A40F0C9439220C940000E4EBF2E034
:100B3000A0E0B8E000800EBC8111012C1197A0FD4F
:100B4000FDCF0192B9F70DB40895FC018091B30275
:100B5000882311F13FB7F89482E08093E900209157
:100B6000F200822F90E01816190614F481E090E04C
:100B7000882339F0289844E64093B2024091F1006E
:100B80004083222339F02091F200211103C02BE68B
:100B90002093E8003FBF08958FEF9FEF08952FB790
:100BA000F89483E08093E9009091E800892F8072A7
:100BB00095FF04C09091F20080E4891B2FBF089537
:100BC0008091AA0281110DC082E08093A60284E088
:100BD0008093A7021092A9021092A80281E080934C
:100BE000AA0286EA92E00895ACE6B1E02FB7F89445
:100BF0007D918D919C9166B52FBFA89B05C06F3FDD
:100C000018F47F5F8F4F9F4F22E0660F771F881F7A
:100C1000991F2A95D1F7089540917201509173015F
:100C2000209170013091710142175307B4F49091F3
:100C3000E8009570E1F39091E80092FD19C080936F
:100C4000F100809172019091730101968F73992741
:100C5000892B19F48EEF8093E800809172019091B6
:100C600073010196909373018093720181E008955E
:100C700080E00895DF92EF92FF920F931F93CF933E
:100C8000DF93D82E8A01EB017B01E40EF51ECE1511
:100C9000DF0559F0D7FE12C0FE0184910E940C06B8
:100CA00021968111F4CF0FEF1FEFC801DF91CF9193
:100CB0001F910F91FF90EF90DF9008958881EECF04
:100CC0000F931F93CF93DF931F92CDB7DEB782E0D0
:100CD000898342E450E06CEA75E080E80E943A06BD
:100CE0000E94E005DC0112960D911C910115110581
:100CF00089F0D801ED91FC910280F381E02DBE01D5
:100D00006F5F7F4FC801099597FD04C0F80100850A
:100D10001185ECCF89810F90DF91CF911F910F91B9
:100D20000895615030F02091F100FC01208301967C
:100D3000F8CF289884E68093B2020895AF92BF92CC
:100D4000CF92DF92EF92FF920F931F93CF93DF9397
:100D50006C017B018B01040F151FEB015E01AE18C6
:100D6000BF08C017D10759F06991D601ED91FC91E8
:100D70000190F081E02DC6010995892B79F7C50115
:100D8000DF91CF911F910F91FF90EF90DF90CF9067
:100D9000BF90AF900895CF93DF931F92CDB7DEB78A
:100DA0006983DC01ED91FC910280F381E02D41E04B
:100DB00050E0BE016F5F7F4F09950F90DF91CF919B
:100DC000089583E08093E9008091F200882319F070
:100DD0008AE38093E80008950E94CF0590E008958B
:100DE000CF93DF931F92CDB7DEB7FC018485958545
:100DF00097FD08C02FEF3FEF358724870F90DF91D5
:100E0000CF910895CE0101960E94A505019719F48E
:100E1000898190E0F3CF8FEF9FEFF0CF0F931F9377
:100E2000CF93DF931F92CDB7DEB78C01FC01848591
:100E3000958597FF0BC0CE0101960E94A5050197ED
:100E400071F4898190E0F80195878487F8018485A1
:100E500095850F90DF91CF911F910F9108958FEF9E
:100E60009FEFF1CFFC018485958597FD0BC09FB75F
:100E7000F89482E08093E9008091F2009FBF90E0B7
:100E8000019608959FB7F89482E08093E9008091DD
:100E9000F2009FBF90E00895FC010E94F405319795
:100EA00028F068517C4F8F4F9F4FF9CFAB01FC0169
:100EB0000E94F405641775078E079F07C8F308950D
:100EC0008F929F92AF92BF92CF92DF92EF92FF925A
:100ED0000F931F93CF93DF936C017B018A01809165
:100EE0000B01882309F45AC08091B302882309F4C6
:100EF00055C08091760180FF05C08091E00082603E
:100F00008093E000E801B12C8AEFA82E93E0892EAF
:100F10002AE3922E209711F4BB20C9F10E94CF053D
:100F2000811108C0AA94AA20C9F181E090E00E9432
:100F30004C07F0CF8C171D0611F00CF08C2F9FB7CB
:100F4000F8948092E9002091E80025FD02C09FBF3F
:100F5000E1CF282F30E0C21BD30BF701815020F0E6
:100F600041914093F100FACFE20EF31EBB2021F035
:100F70009092E800B12CEBCF8091E80085FDE7CF9F
:100F80009092E800BB24B394209709F3F3CF5D98C7
:100F900084E680937501101611063CF081E090E024
:100FA000F6019383828310E000E0C801DF91CF91C6
:100FB0001F910F91FF90EF90DF90CF90BF90AF9077
:100FC0009F908F90089590E00C944C078FB180957E
:100FD000807F669B88601C9B8460089590E0E4EBB2
:100FE000F2E091119FEF8FEF9193919391939193F1
:100FF0008150D0F7109281011092800110928301EC
:10100000109282010895CF93C82F0E94E607982F6F
:101010009C2381E09C1380E0CF91089580E00C94A4
:10102000960580389105B8F460347105A0F490E11C
:1010300021E061FD24E060FD220F62FD2295687FC2
:10104000969FD0011124A80FAC54BD4F0C90022ADA
:1010500040FF02260C9208952F923F924F925F928A
:101060006F927F928F929F92AF92BF92CF92DF92B8
:10107000EF92FF920F931F93CF93DF9300D000D096
:10108000CDB7DEB77C018B01242F30E03C832B836E
:1010900081E090E05C01A21AB30A19013194219415
:1010A0003108220C331CB901600F711F41E0C701E8
:1010B0000E941108B8018B819C81681B790B41E06B
:1010C000C7010E94110841E0B8018B819C818E0DFF
:1010D0009F1D0E94110841E0B801C7012B813C818E
:1010E000821B930B0E941108D12CC12C81E090E04F
:1010F0009A8389832B813C81C216D3060CF05DC094
:10110000B7FC09C0215031093C832B8332E0230E08
:10111000311CA20CB31C8FEFC81AD80A29813A815E
:101120002E5F3F4F3A832983A20EB31E37016C0C0A
:101130007D1C41E08B809C80800E911EB401C30118
:101140000E94110827014C185D0841E0B401C2015A
:101150000E94110841E048018B819C81881A990AFC
:10116000B401C3010E94110841E0B401C2010E9410
:1011700011084601800E911E41E0B4016B807C8015
:101180006E0C7F1CC3010E94110841E0B4012701CD
:101190002B813C81421A530AC2010E941108480166
:1011A0008C189D0841E0B401C3010E94110841E080
:1011B000B401C2010E9411089DCF0F900F900F90B3
:1011C0000F90DF91CF911F910F91FF90EF90DF90E3
:1011D000CF90BF90AF909F908F907F906F905F90D7
:1011E0004F903F902F900895EF92FF920F931F938F
:1011F000CF93DF937C018B01040F111DEB0177FF6F
:1012000002C0D0E0C0E0C8010134110514F080E450
:1012100090E0C817D9073CF441E0BE01C7010E9425
:1012200011082196F0CFDF91CF911F910F91FF9080
:10123000EF9008952F923F924F925F926F927F921C
:101240008F929F92AF92BF92CF92DF92EF92FF92D6
:101250000F931F93CF93DF9300D000D000D0CDB772
:10126000DEB76B837C83298325E0429FA001112494
:10127000FA01E455FF4F2F01F12C3C0110E0312C15
:10128000153029F0C2010196F20134902C01FB8146
:10129000FD832C812E8388E0282E30FE1DC03981ED
:1012A0003A8301C00A83D12CC12CEC14FD04B9F09F
:1012B0004601860C971CB12CA12CAE14BF04C1F1C1
:1012C0006D817E816A0D7B1D4A81C4010E941108D7
:1012D0009FEFA91AB90AF1CF89810813E3CF369499
:1012E0002A942D813E812E0D3F1D3E832D8321109A
:1012F000D4CF1F5F6E0C7F1C163009F0C0CF26962E
:101300000FB6F894DEBF0FBECDBFDF91CF911F9116
:101310000F91FF90EF90DF90CF90BF90AF909F9094
:101320008F907F906F905F904F903F902F90089597
:10133000EFEFCE1ADE0AB9CFEF920F93CF93DF9380
:10134000462F6D3081F060918001709181014A30AB
:1013500089F41092830110928201685F7F4F70932D
:1013600081016093800181E090E0DF91CF910F9146
:10137000EF900895C0918201D0918301EE24E3940F
:1013800000E021E0CE010E941A092696D093830145
:10139000C0938201E8CFCF93DF932BE0289FF00129
:1013A000299FF00D1124E954FE4F468157814A30A0
:1013B0005105A4F4269FD001279FB00D1124A954F4
:1013C000BE4F16962D913C9137FF02C02F5F3F4FC5
:1013D00035952795240F351F378326832BE0289FCB
:1013E000F001299FF00D1124E954FE4F2681378129
:1013F0002B30310524F02AE030E0378326832BE0C0
:10140000289FF001299FF00D1124E954FE4F2681F9
:10141000378142815381421B530B57FF05C0A901FD
:10142000440F551F538342834BE0489FF001499F6F
:10143000F00D1124E954FE4F44815581DA01A21BBD
:10144000B30BB7FF05C0D901AA0FBB1FB383A2839B
:10145000ABE0A89FF001A99FF00D1124E954FE4FC5
:10146000A281B381E901CA0FDB1FC038D1053CF06E
:10147000E901CC0FDD1FAC1BBD0BB383A283420F70
:10148000531F4034510574F04BE0489FF001499FD1
:10149000F00D1124E954FE4F42815381421B530B3E
:1014A000538342832BE0289FF001299FF00D1124E4
:1014B000E954FE4F82858F5F8B308CF482876431D4
:1014C000710591F4E091B201F091B30186819781A9
:1014D000019739F097838683DF91CF9108958AE051
:1014E000EDCF85E090E0F6CF8BE0869FF001879FFF
:1014F000F00D1124E954FE4F1082EECF089590E0D4
:1015000080E008950C94891DCF92DF92EF92FF92B4
:101510006B017C01C114D104E104F10441F00E948B
:10152000311DA70196010E949F1D6B017C01C7011F
:10153000B601FF90EF90DF90CF900895FB010190EE
:101540000020E9F73197AF01461B570BDC01ED9105
:10155000FC910280F381E02D09948F929F92AF92CB
:10156000BF920F931F93CF93DF93CDB7DEB7A197B1
:101570000FB6F894DEBF0FBECDBF19A2423008F4FB
:101580004AE08E010F5D1F4F842E912CB12CA12CAF
:10159000A50194010E94D11DE62FB901CA01EA30CC
:1015A00004F5E05DD801EE938D01232B242B252B30
:1015B00079F790E080E0109729F0BD0184EB96E088
:1015C0000E949E0AA1960FB6F894DEBF0FBECDBF53
:1015D000DF91CF911F910F91BF90AF909F908F900F
:1015E0000895E95CDFCFCF92DF92EF92FF92CF9325
:1015F000DF936B017C016DE284EB96E00E94CB06E9
:10160000EC0166277727CB016C197D098E099F09AC
:101610004AE00E94AD0A8C0F9D1FDF91CF91FF9091
:10162000EF90DF90CF900895BC01990F880B990B34
:1016300097FD0C94F30A4AE00C94AD0AAF92BF9266
:10164000CF92DF92EF92FF920F931F93CF93DF938E
:1016500065E471E084EB96E00E949E0A61E571E02A
:1016600084EB96E00E949E0AE7EBF1E022E0E3398A
:10167000F20719F010823B96F9CF10929F02109258
:101680009E025BE0B52EAA24A394CFE7D0E00FE33F
:1016900010E080919E0290919F02863091050CF09F
:1016A0009DC0B89EF001B99EF00D1124E954FE4F83
:1016B000A08263E070E080E090E00E94840A6B0109
:1016C0007C01E2E0CE0ED11CE11CF11CD0928B011A
:1016D000C0928A0180919E0290919F02B89EF00173
:1016E000B99EF00D1124E954FE4FD782C682CE0177
:1016F0008C199D09092E000CAA0BBB0B0D2C000C9C
:10170000EE08FF08C816D906EA06FB0664F4BC0119
:10171000CD016C197D098E099F090E94840AC60EAD
:10172000D71EE81EF91E80919E0290919F02B89EDE
:10173000F001B99EF00D1124E954FE4FD382C2820C
:1017400086819781B801681B790B072E000C880BE6
:10175000990BC0908A01D0908B010D2C000CEE08E3
:10176000FF08C616D706E806F90654F46C197D0979
:101770008E099F090E94840AC60ED71EE81EF91E14
:1017800080919E0290919F02B89EF001B99EF00D4B
:101790001124E954FE4FD582C482A08669E070E02E
:1017A00080E090E00E94840A20919E0230919F0286
:1017B000AB01BC014F5F5F4F6F4F7F4FB29EF00197
:1017C000B39EF00D1124E954FE4F41874287C901B1
:1017D000019690939F0280939E025BCF83E992E0F3
:1017E0009093B3018093B2018FE390E090939602BF
:1017F000809395028FE190E09093980280939702F6
:1018000010929B0285E090E090939A028093990257
:101810001092910181E090E090939801809397015C
:1018200082E0809399018DE091E0FC01019000201D
:10183000E9F7CF018E5091409C01220F331F280FF2
:10184000391F80E490E0821B930B90938901809371
:10185000880110929E0110929C0181E08093A10169
:101860001092B6011092B0018091A6019091A7014B
:10187000A091A801B091A9018093A2019093A30126
:10188000A093A401B093A5012FB7F89480917C0197
:1018900090917D01A0917E01B0917F012FBF809337
:1018A000AA019093AB01A093AC01B093AD018091DC
:1018B000A001882319F085E080939F01DF91CF91EB
:1018C0001F910F91FF90EF90DF90CF90BF90AF905E
:1018D00008951F920F920FB60F9211248F939F932A
:1018E0008091E1009091E100937F9093E10083FF6C
:1018F0000FC01092E90091E09093EB001092EC0081
:1019000092E39093ED001092B30298E09093F00070
:1019100082FF22C093E09093E9009091F200992316
:1019200019F09AE39093E80090917501992341F0A2
:1019300090917501915090937501911101C05D9A3C
:101940009091B202992341F09091B20291509093FC
:10195000B202911101C0289A84FF18C08091E20060
:101960008E7E81608093E2008091E1008F7E809383
:10197000E100809176018E7E8061809376019F9157
:101980008F910F900FBE0F901F90189580FFF7CF8B
:101990008091E2008E7E80618093E2008091E10080
:1019A0008E7E8093E100809176018E7E8160E5CF0E
:1019B0001F920F920FB60F921124CF92DF92EF92E7
:1019C000FF920F931F932F933F934F935F936F93C8
:1019D0007F938F939F93AF93BF93EF93FF93CF9397
:1019E000DF93CDB7DEB76C97DEBFCDBF1092E900B5
:1019F0008091E80083FF25C068E0CE0145960E94F3
:101A0000910682EF8093E8008D8987FF39C090911D
:101A1000E80090FFFCCF982F907609F034C19E89A2
:101A20004F89588D2F89F88C911131C0803861F51C
:101A3000809177018093F1001092F1008EEF8093F6
:101A4000E8006C960FB6F894DEBF0FBECDBFDF91F5
:101A5000CF91FF91EF91BF91AF919F918F917F9126
:101A60006F915F914F913F912F911F910F91FF9037
:101A7000EF90DF90CF900F900FBE0F901F901895B2
:101A80009EEF9093E800C7CF1092F100D5CF913030
:101A900059F48111D3CF4130510581F680917701FE
:101AA0008D7F80937701CACF933049F48111C6CFDF
:101AB0004130510519F6809177018260F2CF95305F
:101AC00041F48091E80080FFFCCF20682093E30080
:101AD000B5CF963009F0A9C00B8D1C8D22E0109275
:101AE000E9001092730110927201F2122EC010924E
:101AF0007101109270010E9460061F8299E0998323
:101B0000FA8291E09E8390EA98879AEF99872091D4
:101B1000720130917301275F3F4F3C832B838D838C
:101B20001092E900109273011092720110937101EA
:101B30000093700149E050E0BE016F5F7F4F80E08D
:101B40000E943A060E94600679CF109371010093BB
:101B500070010E94E005DC0112960D911C910115A7
:101B6000110509F451C1D801ED91FC910480F58172
:101B7000E02DBE016B5E7F4FC8010995009709F00B
:101B80003EC1F80100851185EACFF3E0FF120EC0D7
:101B90008F89882309F440C0823061F440E867E00F
:101BA00080E196E00E94540F811148CF81E280933A
:101BB000EB0047CF813029F440E86BE084E096E009
:101BC000F1CF833099F70E94E005DC011296ED9089
:101BD000FC908E010F5F1F4F6801E114F10479F052
:101BE000D701ED91FC910680F781E02DB801C70186
:101BF0000995080F111DF701E084F184EECFD8019B
:101C00001C92F60101900020E9F73197BF016C1991
:101C10007D0940E0C601C6CF6EEE75E0FB01449140
:101C200050E080E80E943A0609CF973009F4BECF11
:101C3000983021F481E08093F10000CF993009F0D1
:101C4000FDCE837009F0B2CFE1E2F1E081E031E056
:101C500096E32191222371F08093E9003093EB0009
:101C6000DF0111972C912093EC009093ED008F5F92
:101C7000873079F78EE78093EA001092EA008F8927
:101C80008093B302DBCE8B8D9C8D1092E900109275
:101C90007301109272019093710180937001898D8C
:101CA000811192C08E899D89913A49F4813209F05F
:101CB0007DCF47E050E064E071E080E0B3CF913247
:101CC00009F074CF833269F48F89988DB0E0A0E079
:101CD0008093000190930101A0930201B09303014E
:101CE000ADCE803269F48091E80082FFFCCF67E0DE
:101CF00084E091E00E9491068BEF8093E8009ECEF5
:101D0000823209F09BCE8F8980930B01EEEFFFE7C3
:101D1000859194918B3F9C4D51F1E0E0F8E08091EA
:101D2000040190910501A0910601B0910701803B4B
:101D30009440A105B105F1F480910B0180FD1AC01A
:101D4000EE3F8AE0F80789F587E797E7918380837C
:101D5000809160008093740188E19BE00FB6F89455
:101D6000A895809360000FBE9093600067CEEEEF61
:101D7000FAE0D5CF808191818737974709F05ECE11
:101D8000A8958091600088618093600080917401C3
:101D900080936000EE3F2AE0F20789F08091FE0A0E
:101DA0009091FF0A9183808349CE8081918187370A
:101DB000980751F29093FF0A8093FE0AC5CF1092C4
:101DC000FF0A1092FE0A3ACE0E94E005DC0112964C
:101DD0000D911C910115110509F4E8CED801ED9182
:101DE000FC910190F081E02DBE016B5E7F4FC80138
:101DF0000995811123CEF80100851185EBCF1816C6
:101E000019060CF41BCED2CEF1E0FF12BECE62EF6B
:101E100075E004CF0F920FB68F939F93EF93FF93CC
:101E200080916B018D5F8D3708F08D5780936B012A
:101E3000ECE7F1E080818E4F808391819F4F918309
:101E400082818F4F828383818F4F8383ECE6F1E021
:101E500080818F5F808381818F4F818382818F4FCB
:101E6000828383818F4F83838FB18F6066991C9BA0
:101E700088278F3681F480916A01981B963068F02C
:101E8000E0E0F8E087E78083818388E18093600069
:101E9000F0936000FFCF90936A01FF91EF919F91C3
:101EA0008F910FBE0F901895EF92FF920F931F9393
:101EB000CF93DF93F82E192FE62E042F81E0860FA3
:101EC000880F0E940C0683E00E940C06CF2DD12FB4
:101ED000EC0EFD2EF11CCE15DF05B9F007FF13C087
:101EE000FE0184910E940C06182F80E00E940C06CF
:101EF000812321968111EFCFDF91CF911F910F9117
:101F0000FF90EF9008958881EDCF81E0F5CFE4EB6D
:101F1000F6E01382128288EE93E0A0E0B0E08483C2
:101F20009583A683B7838BE291E0918380838FEFC3
:101F30009FEF95878487E4E0F7E0138212828DE3B8
:101F400091E0918380830895CDB7DEB76297DEBFBD
:101F5000CDBF789483E084BD83E085BD81E080932C
:101F60006E00E1E8F0E083E08083E0E881E08083D8
:101F7000E1E983E08083E0E981E08083E1EC87E0D0
:101F80008083E3EC81E08083E0EC82E08083E2EC1C
:101F900081E08083EAE787E0808380688083109215
:101FA000B30210927701109276018091D700816080
:101FB0008093D70080EA8093D80089B5806189BD7D
:101FC00089B5826089BD09B400FEFDCF81E090E053
:101FD0000E944C078091D8008F7C80618093D8004C
:101FE0008091E000807F8093E0008091E1008E7E10
:101FF0008093E1008DE08093E200559A209A81EC75
:1020000080937C0081E785B987E684B985E38BB945
:102010008FE38AB9769A6E9880EF81BB10BA80E51B
:102020008CBD81E08DBD85E00E94E307599A85E073
:102030000E94E3075C98E8ECF6E085918EBD000015
:102040000DB407FEFDCFE53DC1F75C9A81E88093B2
:10205000640081E0809365000E940E0880E80E9481
:1020600003088823A9F05C9885EA8EBD00000DB4B2
:1020700007FEFDCF5C9A2E9858982D9880916400A9
:1020800080628093640081E083BF889513BEFCCF9B
:1020900084E00E940308882309F443C02D9884E853
:1020A0000E9403088823D1F02D9A88EC0E94E30750
:1020B000589882E090E00E94891D8F3F29F06FEFD1
:1020C00082E090E00E94911D84EF91E00E944C0715
:1020D000589A84E80E9403088111FBCF84E10E9492
:1020E00003088823D1F02D9A88EC0E94E3072E98EC
:1020F00082E090E00E94891D882329F060E082E060
:1021000090E00E94911D84EF91E00E944C072E9A6E
:1021100084E10E9403088111FBCF88EC0E94E30751
:10212000B7CF2D9A82E090E00E94820A882309F4BA
:10213000C6C03E9A579A81E090E00E94820A082F1A
:102140000470F02E81FF0CC001112E9801EF1FEFDB
:1021500080E40E940308882309F4B4C02E9A589A98
:1021600082E30E94E3070E94E6078111F9CF8FEF17
:102170009FEF9093C1068093C00680E180930C018D
:10218000809164008E7F8093640080917A008064E7
:1021900080937A0080917A0086FDFCCF00917800D0
:1021A000109179000E94F405AB01BC01C801B0E0B8
:1021B000A0E0DC01992788278C019D01040F151FE1
:1021C000261F371FC901B8012091640021602093A8
:1021D0006400611571058105910511F00E94801D53
:1021E0000E94EE071092A6011092A7011092A8017A
:1021F0001092A90190E080E0DC01AC54BD4F30E0CA
:1022000020E0BC016B52794FFB01E20FF31F4491B8
:10221000EC91E427ED932F5F3F4F20383105A1F774
:1022200080589F4F811514E0910731F70E940E08E6
:1022300068EB7BE080E090E0AB01FC010E94F405DC
:1022400041505109E109F10928F068517C4F8F4F45
:102250009F4FF6CFAB01FC010E94F4056417750790
:102260008E079F07C8F381E08093A0010E941E0B98
:1022700038E0232E312C412C512C1BE080917A0127
:10228000882309F4BAC010927A018091A202909139
:10229000A302A091A402B091A5020196A11DB11DB7
:1022A0008093A2029093A302A093A402B093A502EC
:1022B00080E090E0892B11F30E940000DECF3E9871
:1022C000579839CFFF2029F00430110511F42E9AC8
:1022D000589881E00E949605202F2770E22EA801D1
:1022E000F3E055954795FA95E1F79A013695322F27
:1022F0002227379527952C543D4F70E060E04E3FE4
:102300008FEF580761F190E080E0DB01A85EB94FE4
:102310006901E0E8CE0ED11CFD01E80FF91FE49140
:10232000F0E03F010E2C02C0660C771C0A94E2F725
:102330004F3F540739F05901A80EB91EF501948892
:102340009628948AEE2039F05601A80EB91EF501A0
:1023500094889728948A019688359105E9F64F5F0D
:102360005F4F20583F4F685A7F4F603B710539F6E9
:102370000E940E088FE00E94E3070F5F1F4F093194
:10238000110509F0E5CEFF2011F0589A2D9880E94B
:1023900091E00E944C072D9A81E090E00E94820A11
:1023A00080FFDECE8AE090E00E94820A9FEF980FC5
:1023B0009E3F08F0D5CE22E330E030938301209396
:1023C000820128E330E030938101209380010BE00B
:1023D00010E0682F84E097E00E949C09C8010E94E9
:1023E000820A0F5F1F4F0131110599F70E940E08F5
:1023F00088EE93E00E944C07B3CE90917C018091CF
:102400007B01292F281B822F20910C01821748F471
:102410008F5F821708F039CF81E083BF889513BEA4
:1024200034CF81E080937A0190937B01E8E7F1E07B
:10243000808191810196808391830E94EE0747EB12
:1024400051E05E874D8723E932E05E834D8390E063
:1024500080E0AD81BE812A173B0749F04C914111C4
:102460000196ED81FE813B96FE83ED83F2CF24E160
:1024700030E030939F0220939E029093A1028093BC
:10248000A0029F938F9324E5E22E21E0F22EFF928B
:10249000EF9221E030E02C0F3D1F3F932F930E94DD
:1024A000611F8981809319018A8180931A0180912B
:1024B000B4019091B5010F900F900F900F900F9075
:1024C0000F90843691050CF0F1C09F938F93FF928B
:1024D000EF9241E050E04C0F5D1F5F934F930E94DD
:1024E000611F0F900F900F900F900F900F908981A8
:1024F00080930F018A81809310012091B401309163
:10250000B5012436310514F0809311018091AE019C
:102510009091AF01843691050CF0D5C09F938F93B5
:1025200084E591E09F938F93A1E0B0E0AC0FBD1FD5
:10253000BF93AF930E94611F0F900F900F900F9069
:102540000F900F908981809314018A8180931501E7
:102550008091AE019091AF01843691051CF08B8182
:102560008093160180918801909189019093830155
:102570008093820188E390E09093810180938001B1
:102580006DE071E084E097E00E949E0A10929F0245
:1025900010929E0220919E0230919F023C872B87D1
:1025A000E090B201F090B301D70116968D919C9105
:1025B000243131050CF0A0C0129FF001139FF00DE3
:1025C0001124E954FE4F2081222309F48DC0468155
:1025D00057816480758082809380841795070CF002
:1025E0007FC05A01BB24440F4F5FB3016A197B09B6
:1025F000C4010E94F408EE24E394F12CEA18FB08CD
:1026000090E080E08A199B09FC01EE0FFF1FF88B18
:10261000EF87D12CC12C21E030E038872F83CA14FA
:10262000DB040CF061C0F7FC0BC031E0A31AB10869
:102630004F8558894E5F5F4F588B4F87E40EF51ECC
:102640005FEFC51AD50A8F819885029698878F8388
:10265000E80EF91E0A2D000F0F5F402FD301AA19B3
:10266000BB09BA87A987BD01C601880D991D0E94C3
:10267000F408F301EC19FD09FA8BE98B4F81BF01D6
:10268000C4018A0D9B1D0E94F408402F69857A853C
:10269000C4018C199D090E94F4084F8169897A89C7
:1026A000C4018A199B090E94F408B9CF9F938F93A4
:1026B00089E591E09F938F9381E090E08C0F9D1FBF
:1026C0009F938F930CCF9F938F9389E591E09F9376
:1026D0008F93E1E0F0E0EC0FFD1FFF93EF932ACF23
:1026E000B301C4010E942C088B859C8501969093B0
:1026F0009F0280939E024ECF2091A101211104C020
:1027000020919E01222361F041E0480FD7011496E9
:102710006D917C91159712968D919C910E942C0839
:10272000F701648175814681828193810E942C0822
:1027300010929F0210929E02C090B201D090B301FD
:1027400080919E0290919F0205970CF091C0D60156
:1027500016966D917C9161507109072E000C880BC3
:10276000990B62307105810591050CF477C06150B9
:102770007109810991090E94840ADC01CB0101964B
:10278000A11DB11D9093870180938601E091B20154
:10279000F091B3016681778161507109072E000CB9
:1027A000880B990B62307105810591050CF45BC0B3
:1027B00061507109810991090E94840ADC01CB01F1
:1027C0000196A11DB11D909385018093840163E65C
:1027D00070E080E090E00E94840A60FF0BC080916E
:1027E0008601909187019195819591099093870138
:1027F0008093860163E670E080E090E00E94840AA6
:1028000060FF0BC080918401909185019195819525
:1028100091099093850180938401E091B201F09138
:10282000B301648175818091840190918501680F65
:10283000791F22813381809186019091870141E047
:10284000820F931F0E94110880919E0290919F0217
:10285000019690939F0280939E026ECF81E090E05C
:10286000A0E0B0E08FCF81E090E0A0E0B0E0ABCF9F
:1028700080919101882361F060919501709196019A
:102880004091970180919301909194010E942C08AE
:102890008091A001882369F040919F01405D02E092
:1028A000E02E00E021E070E060E090E080E00E9437
:1028B0001A090E940E08E7EBF1E090E080E02D811C
:1028C0003E812E173F0729F02081211101963B966A
:1028D000F6CF24E130E030939F0220939E02909344
:1028E000A1028093A002892B09F58091B601811184
:1028F0001DC08091B4019091B5010196883E33E0EE
:1029000093070CF096C19093B5018093B4018AE0CF
:102910008093B601D60116968C9116978093B101DB
:1029200084E190E017969C938E9316978091B60160
:102930008823F1F0F6012681378121503109378350
:1029400026834091B101042E000C550B2417350746
:102950007CF424E130E03783268381508093B601F4
:10296000E091B201F091B301811123C00E941E0BCE
:10297000E091B201F091B301868197810197C9F48A
:102980008091B001811115C08091AE019091AF018D
:102990000196883E03E090070CF04EC19093AF0182
:1029A0008093AE018AE08093B00184E190E0978348
:1029B00086838091B001882341F0268137812150A0
:1029C000310909F43CC1378326838FB7F8944091CD
:1029D0007C0150917D0160917E0170917F018FBFDC
:1029E0008091AA019091AB01A091AC01B091AD0191
:1029F00088519C4FAF4FBF4F481759076A077B0755
:102A000008F46FC02FB7F89480917C0190917D01FC
:102A1000A0917E01B0917F012FBF8093AA01909376
:102A2000AB01A093AC01B093AD011092A202109241
:102A3000A3021092A4021092A5028091A601909187
:102A4000A701A091A801B091A9010196A11DB11DF6
:102A50008093A6019093A701A093A801B093A90128
:102A60004091A2015091A3016091A4017091A50130
:102A7000841B950BA60BB70B0697A105B10514F0A7
:102A80001092A101589A8091A001882349F0809169
:102A90009F01815080939F01811102C01092A0017B
:102AA0006DE571E084EB96E00E949E0A80919F01A3
:102AB000082E000C990B0E94140B61E671E084EB68
:102AC00096E00E949E0A6091A00170E090E080E094
:102AD0004AE00E94AD0A61E571E084EB96E00E9455
:102AE0009E0A8091B6018111E3CB8091B0018111E2
:102AF000DFCB8091A0018111DBCB80919E018823E7
:102B000041F080919D01882309F4A5C081508093F4
:102B10009D0110929F0210929E0280919E029091C0
:102B20009F02843191050CF0B0C0189FF001199FED
:102B3000F00D1124E954FE4F2081222309F49BC09B
:102B400001969093A1028093A0028091A00290919F
:102B5000A102843191050CF08EC0189FF001199FDD
:102B6000F00D1124E954FE4F8081882309F45CC0E4
:102B700080919E0290919F02189FD001199FB00DE5
:102B80001124A954BE4F2281338112968D919C91BC
:102B90001397281B390B8481958114964D915C9174
:102BA0001597841B950B4681578116966D917C91E4
:102BB000460F571F229FB001239F700D700D1124E7
:102BC000889F9001899F300D300D1124620F731F73
:102BD000449F9001459F300D300D11242617370773
:102BE0001CF1589820919E0230919F028091A00282
:102BF0009091A102129FD001139FB00D1124A954EE
:102C0000BE4F189FF001199FF00D1124E954FE4F9B
:102C100016964D915C9166817781641775074CF526
:102C2000BC01C9010E94CB098091A0029091A10230
:102C300087CF87EE93E067CE87EE93E0AFCE24E1B7
:102C400030E03783268381508093B0018111BDCE5F
:102C50000E941E0BBACE80919C01882329F010920D
:102C60009C012D9A8EE153CF81E080939C012D9899
:102C7000F9CFB901D7CF80919E0290919F02019622
:102C800090939F0280939E0248CF8091A101811171
:102C90008CC080919E01811188C010929F02109279
:102CA0009E0201E080919E0290919F0284319105E5
:102CB0000CF07BC0189FF001199FF00D1124E9540E
:102CC000FE4F8081882309F460C0A091B201B091C9
:102CD000B30112962D913C91139782819381281B09
:102CE000390B14968D919C91159744815581841BC5
:102CF000950B16964D915C9166817781460F571F13
:102D0000229FB001239F700D700D1124889F9001A8
:102D1000899F300D300D1124620F731F449F900165
:102D2000459F300D300D11242617370774F1589840
:102D300080919E0290919F02189FF001199FF00DC3
:102D40001124E954FE4FA091B201B091B301468124
:102D5000578116962D913C912417350704F564E1AF
:102D600070E00E94CB090093A1018091A60190918F
:102D7000A701A091A801B091A9018093A20190930D
:102D8000A301A093A401B093A50180919E0290910C
:102D90009F02019690939F0280939E0283CFBC0175
:102DA00084E190E00E94CB09F0CF809191018823CB
:102DB00009F4FCC020919701309198013E832D8346
:102DC000609095017090960180909301909094018D
:102DD000E7EBF1E090E080E08431910509F456C220
:102DE0002081222309F44FC2668177814481558175
:102DF00022813381D401A21BB30B6301C41AD50A0B
:102E0000ED80FE80E60EF71EAA9F5001AB9FB00C2E
:102E1000B00C1124CC9CD001CD9CB00DB00D112470
:102E2000AA0DBB1DEE9C6001EF9CD00CD00C1124B0
:102E3000CA16DB060CF427C290939F0280939E0271
:102E400010929101633071055CF0189FF001199F99
:102E5000F00D1124E954FE4F7595679577836683CD
:102E6000189FF001199FF00D1124E954FE4F66815F
:102E700077816230710524F462E070E077836683C5
:102E8000189FF001199FF00D1124E954FE4F62853F
:102E9000623014F061506287189FF001199FF00DA5
:102EA0001124E954FE4F66817781A0919901A430E5
:102EB0000CF0BAC0A1300CF0C8C0AA2309F4CFC0EE
:102EC000189FF001199FF00D1124E954FE4F228143
:102ED0003381261B370B37FF02C073836283189F31
:102EE000F001199FF00D1124E954FE4F2481358122
:102EF000261B370B37FF02C075836483189FF001D0
:102F0000199FF00D1124E954FE4F22813381260FC1
:102F1000371F2038310534F02FE730E0261B370B00
:102F200033832283189FF001199FF00D1124E95477
:102F3000FE4F84819581860F971F8034910534F070
:102F40008FE390E0861B970B9583848363E070E0AA
:102F500080E090E00E94840AE0909E02F0909F0240
:102F60001E9D90011F9D300D1124A90149545E4FF3
:102F70006A01DA0118962C91822E220F9908AA086C
:102F8000BB08680D791D8A1D9B1DA20191010E943D
:102F90009F1DF601608750E040E09A0144315105E1
:102FA00009F073C05093A1024093A00288E00E94F0
:102FB0000308882329F010929E01109291012D9A06
:102FC00084E00E940308882359F080919E018111BA
:102FD00007C081E080939E0110929C0110929D0198
:102FE00040919E01E0919901442309F445C28091EA
:102FF0009101811141C281E080939101E83008F094
:10300000D1C20E2E000CFF0BE45FF74EE090B20130
:10301000F090B3010C94471F4B19B219B219C5199E
:10302000E819F619171A231AA43039F1A8300CF050
:1030300047CFDB01AA0FBB1FAA0FBB1F2A0F3B1FE5
:10304000338322834A1B5B0B15C0AB01440F551F12
:10305000440F551F240F351F3383228331CFDB01EB
:10306000AA0FBB1FAA0FBB1F2A1B3B0B3383228354
:103070004A0F5B1F5583448323CFDB01AA0FBB1F7D
:10308000AA0FBB1F2A1B3B0BDBCFAD85BE85EC9186
:103090004F5F5F4F1B96BE87AD87E1117ECF3093A8
:1030A000A1022093A002129FF001139FF00D1124A2
:1030B000E954FE4F41E04083CB01049668E070E0A4
:1030C0000E94331F80871E9DD0011F9DB00D1124CB
:1030D000A954BE4F16968D919C911797978386831E
:1030E00012968D919C9113979383828314968D9160
:1030F0009C911597958384838091990184300CF07D
:1031000060C081300CF081C0882309F49CC01E9DF2
:10311000F0011F9DF00D1124E954FE4F8681978127
:1031200042815381481B590B57FF02C0938382830E
:103130001E9DF0011F9DF00D1124E954FE4F4481A6
:103140005581481B590B57FF02C0958384831E9DF0
:10315000F0011F9DF00D1124E954FE4F428153816F
:10316000480F591F4038510534F04FE750E0481BD5
:10317000590B538342831E9DF0011F9DF00D1124B6
:10318000E954FE4F44815581480F591F4034510581
:1031900034F04FE350E0481B590B558344831E9D88
:1031A000F0011F9DF00D1124E954FE4F8285129FFE
:1031B000F001139FF00D1124E954FE4F818782879F
:1031C000F5CE843009F44FC088300CF0A0CF1696AD
:1031D0008D919C911797E3E0880F991FEA95E1F78D
:1031E00012964D915C911397481B590B13965C9363
:1031F0004E93129714964D915C911597840F951FDD
:1032000015969C938E93149782CF16968D919C91D0
:103210001797F3E0880F991FFA95E1F712964D91F1
:103220005C911397481B590B13965C934E9312971E
:1032300014964D915C911597481B590B15965C930C
:103240004E93149764CF16968D919C91179773E0C7
:10325000880F991F7A95E1F712964D915C9113971B
:10326000480F591FE1CF16968D919C91179763E0F7
:10327000880F991F6A95E1F712964D915C9113970B
:10328000480F591FB3CF01963B96A6CD90939F024E
:1032900080939E028BCEF70182819381909394015B
:1032A000809393018481958126813781821B930BC2
:1032B000909396018093950110929F0210929E0226
:1032C00080E80E940308882331F081E090E0909329
:1032D0009F0280939E0280E10E940308882349F0A8
:1032E00080919E0290919F02826090939F028093B2
:1032F0009E0280E20E940308882349F080919E028A
:1033000090919F02846090939F0280939E0280E43C
:103310000E940308882349F080919E0290919F02A9
:10332000886090939F0280939E0280919E0290916C
:103330009F02FC013197EF30F10508F010C2ED5506
:10334000F64E0C94471F981B9F1B9F1BA31BA51B8E
:10335000A71BA71BA91BAB1BAD1BAD1BA91BAB1B45
:10336000AD1BAD1BD70112968D919C9113971696AC
:103370002D913C911797820F931F90939401809306
:10338000930114968D919C9193CFF701668177817B
:10339000072E000C880B990B0E943A1E21E834E09E
:1033A00045E35FE30E949E1E0E94021ED701129613
:1033B0002D913C911397260F371F30939401209342
:1033C000930114962D913C91C901861B970B70CFE8
:1033D000F70182819381909394018093930184817A
:1033E000958126813781820F931F62CFD701169670
:1033F0006D917C91072E000C880B990B0E943A1E50
:1034000021E834E045E35FE30E949E1E0E94021E15
:10341000F70122813381261B370B309394012093CF
:10342000930124813581C901860F971F41CFD701B0
:1034300012968D919C91139716962D913C9117970A
:10344000821B930B9ACFF70166817781072E000CC0
:10345000880B990B0E943A1E21E834E045E35FE3B4
:103460000E949E1E0E94021ED70112962D913C9131
:103470001397261B370BA1CFE83008F093C00E2E10
:10348000000CFF0BE65BF54E80919701909198013F
:103490000C94471FC11A521A651A761A971A881A7D
:1034A000A61AB11A20919301309194012F5F3F4FDA
:1034B0003093940120939301280F391F2F37310542
:1034C0000CF45FC0109291015CC020919301309187
:1034D00094012F5F3F4F3093940120939301820F0B
:1034E000931F8F3791050CF05BC05CC02091930156
:1034F000309194012F5F3F4F3093940120939301BB
:10350000280F391F2F37310594F0109291010FC009
:10351000209193013091940121503109309394010D
:1035200020939301280F391F1216130674F7209168
:103530009501309196012F5F3F4F30939601209374
:103540009501820F931FCF975CF52CC020919301BA
:1035500030919401215031093093940120939301CB
:103560001AC0209193013091940121503109309378
:10357000940120939301280F391F121613060CF0A3
:10358000A1CF2091950130919601215031093093BE
:10359000960120939501820F931F1816190614F0B7
:1035A00010929101411188CE80E80E94030888237F
:1035B00089F0E091B201F091B30184819581019786
:1035C0009583848326813781821B930B97FF02C0EA
:1035D0003583248380E10E9403088823B1F0E091C1
:1035E000B201F091B3018481958101969583848322
:1035F00026813781820F931F8034910534F08FE349
:1036000090E0821B930B9583848380E20E940308E1
:10361000882389F0E091B201F091B3018281938116
:1036200001979383828326813781821B930B97FFB7
:1036300002C03383228380E40E9403088823B1F010
:10364000E091B201F091B30182819381019693835D
:10365000828326813781820F931F8038910534F051
:103660008FE790E0821B930B9383828310929F02DB
:1036700010929E0201E085E0B82E92E0892E23E0B0
:10368000A22E37E0932E46E0742E54E0652E8091F2
:103690009E0290919F028431910514F00C94581170
:1036A000189FD001199FB00D1124A954BE4F8C91C1
:1036B000882309F4D4C019968C91199781501996D2
:1036C0008C9319978111CBC01A968C911A971996E1
:1036D0008C9319971896EC911897E0939001129695
:1036E0002D913C91139730938F0120938E01149666
:1036F0004D915C91159750938D0140938C011696D6
:103700008D919C9190938B0180938A01E83008F011
:103710008CC00E2E000CFF0BE057F44E0C94471F8C
:10372000B31BE91B391C4D1C781C8C1CB21CC11C22
:10373000109299010E94140B1092910197CF24E0EE
:1037400020939901F7CF26E0FBCF27E0F9CF25E0C2
:10375000F7CF22E0F5CF21E0F3CF23E0F1CF0097C0
:1037600009F484CFE7CF415051099A01281B390B46
:1037700037FD05C050938D0140938C0156C0909346
:103780008D0180938C016092900169E070E080E08F
:1037900090E00E94840A60FF48C0C09090010C2C09
:1037A000000CDD08EE08FF0866E070E080E090E0C5
:1037B0000E94840A6F5F7F4F8F4F9F4F6C0D7D1D5E
:1037C0008E1D9F1DA20191010E949F1D609390017B
:1037D0002CC041505109BA01681B790B77FD11C00B
:1037E00050938D0140938C012F5F3F4FAC01420FEE
:1037F000531F403851057CF430938F0120938E0184
:1038000014C0AC014F5F5F4F50938D0140938C010A
:10381000A0929001E9CFEEE7F0E0E81BF90BF093FE
:103820008F01E0938E019092900180919E02909181
:103830009F02189FF001199FF00D1124E954FE4FCB
:1038400080919001808780918E0190918F01938368
:10385000828380918C0190918D01958384838091E6
:103860009E0290919F02019690939F0280939E02E8
:103870000ECF2F5F3F4FAC01420F531F4038510511
:103880000CF4BACF2EE730E0281B390B30938F01B0
:1038900020938E017092900178CF4F5F5F4FBC01F3
:1038A000640F751F60347105C4F450938D0140930B
:1038B0008C012F5F3F4FAC01420F531F4038510521
:1038C0000CF49ACF4EE750E0481B590B50938F01F0
:1038D00040938E01B0929001A8CF4EE350E0481B78
:1038E000590B50938D0140938C0100939001E1CFCF
:1038F0004F5F5F4F9C01240F351F203431050CF4BE
:1039000039CFAEE3B0E0A81BB90BB0938D01A09303
:103910008C011092900139CF4F5F5F4FBC01640F53
:10392000751F603471059CF450938D0140938C0198
:1039300021503109A901481B590B57FF5DCF019652
:1039400090938F0180938E01A09290016ECF4EE3F1
:1039500050E0481B590B50938D0140938C0190927D
:103960009001E6CF21503109A901481B590B57FF9F
:1039700043CF019690938F0180938E0180929001A6
:1039800004CF41505109BA01681B790B77FD13C070
:1039900050938D0140938C0121503109A901481B9E
:1039A000590B57FF29CF019690938F0180938E0179
:1039B000009390013ACFAC014F5F5F4F50938D0160
:1039C00040938C01B0929001E7CF8F929F92AF927B
:1039D000BF92CF92DF92EF92FF92CF93DF93EC01F1
:1039E000688179818A819B816115710581059105C5
:1039F00021F464E279ED8BE597E02DE133EF41E0CE
:103A000050E00E949F1D49015A019B01AC01A7EAA9
:103A1000B1E40E94BE1D6B017C01ACEEB4EFA501C8
:103A200094010E94CC1DC60ED71EE81EF91EF7FE9B
:103A300006C081E0C81AD108E10880E8F80AC88207
:103A4000D982EA82FB82C701B6019F77DF91CF91CD
:103A5000FF90EF90DF90CF90BF90AF909F908F90AE
:103A600008958F929F92AF92BF92CF92DF92EF9282
:103A7000FF9260911C0170911D0180911E01909137
:103A80001F01611571058105910521F464E279ED4D
:103A90008BE597E02DE133EF41E050E00E949F1D60
:103AA00049015A019B01AC01A7EAB1E40E94BE1D85
:103AB0006B017C01ACEEB4EFA50194010E94CC1D1A
:103AC000C60ED71EE81EF91EF7FE06C081E0C81A12
:103AD000D108E10880E8F80AC0921C01D0921D01CB
:103AE000E0921E01F0921F01C701B6019F77FF907F
:103AF000EF90DF90CF90BF90AF909F908F90089500
:103B000060931C0170931D0180931E0190931F010F
:103B10000895F999FECF92BD81BDF89A992780B595
:103B20000895262FF999FECF1FBA92BD81BD20BD01
:103B30000FB6F894FA9AF99A0FBE01960895052ED9
:103B400097FB1EF400940E94B61D57FD07D00E94FB
:103B5000D11D07FC03D04EF40C94B61D5095409532
:103B6000309521953F4F4F4F5F4F08959095809529
:103B7000709561957F4F8F4F9F4F08950E94F31D61
:103B8000A59F900DB49F900DA49F800D911D1124B1
:103B90000895B7FF0C94BE1D0E94BE1D821B930B9F
:103BA0000895A1E21A2EAA1BBB1BFD010DC0AA1F7E
:103BB000BB1FEE1FFF1FA217B307E407F50720F096
:103BC000A21BB30BE40BF50B661F771F881F991F11
:103BD0001A9469F760957095809590959B01AC015A
:103BE000BD01CF010895A29FB001B39FC001A39F63
:103BF000700D811D1124911DB29F700D811D112426
:103C0000911D08950E94091E6894B1110C94981E8C
:103C100008950E947D1E88F09F5798F0B92F99272C
:103C2000B751B0F0E1F0660F771F881F991F1AF0A7
:103C3000BA95C9F714C0B13091F00E94971EB1E057
:103C400008950C94971E672F782F8827B85F39F056
:103C5000B93FCCF3869577956795B395D9F73EF440
:103C600090958095709561957F4F8F4F9F4F0895E8
:103C7000E89409C097FB3EF4909580957095619506
:103C80007F4F8F4F9F4F9923A9F0F92F96E9BB27BC
:103C90009395F695879577956795B795F111F8CF38
:103CA000FAF4BB0F11F460FF1BC06F5F7F4F8F4FA3
:103CB0009F4F16C0882311F096E911C0772321F099
:103CC0009EE8872F762F05C0662371F096E8862F31
:103CD00070E060E02AF09A95660F771F881FDAF788
:103CE000880F9695879597F9089557FD9058440F3A
:103CF000551F59F05F3F71F04795880F97FB991F4B
:103D000061F09F3F79F08795089512161306140607
:103D1000551FF2CF4695F1DF08C016161706180694
:103D2000991FF1CF86957105610508940895E8946F
:103D3000BB2766277727CB0197F908950E94B11E0C
:103D40000C94221F0E94141F38F00E941B1F20F0A9
:103D5000952311F00C940B1F0C94111F11240C943B
:103D6000981E0E94751E70F3959FC1F3950F50E049
:103D7000551F629FF001729FBB27F00DB11D639F1D
:103D8000AA27F00DB11DAA1F649F6627B00DA11DC3
:103D9000661F829F2227B00DA11D621F739FB00D69
:103DA000A11D621F839FA00D611D221F749F3327D9
:103DB000A00D611D231F849F600D211D822F762F72
:103DC0006A2F11249F5750409AF0F1F088234AF04F
:103DD000EE0FFF1FBB1F661F771F881F91505040BB
:103DE000A9F79E3F510580F00C940B1F0C94981E70
:103DF0005F3FE4F3983ED4F3869577956795B79542
:103E0000F795E7959F5FC1F7FE2B880F911D96955B
:103E1000879597F9089597F99F6780E870E060E0CB
:103E200008959FEF80EC089500240A941616170653
:103E300018060906089500240A941216130614069B
:103E400005060895092E0394000C11F4882352F0FE
:103E5000BB0F40F4BF2B11F460FF04C06F5F7F4FB6
:103E60008F4F9F4F089597FB072E16F4009407D0AD
:103E700077FD09D00E944D1F07FC05D03EF49095B8
:103E800081959F4F0895709561957F4F0895EE0F2E
:103E9000FF1F0590F491E02D0994AA1BBB1B51E173
:103EA00007C0AA1FBB1FA617B70710F0A61BB70BAA
:103EB000881F991F5A95A9F780959095BC01CD014F
:103EC0000895AEE0B0E0E7E6FFE10C9410220D8922
:103ED0001E8986E08C831A8309838FEF9FE79E8378
:103EE0008D83AE01475E5F4F6F89788DCE0101965D
:103EF0000E94841F2F813885020F131FF801108242
:103F00002E96E4E00C942C22ABE0B0E0EAE8FFE16E
:103F10000C9402227C013B018A01FC01178216826B
:103F2000838181FFC8C1CE0101965C01F7019381B5
:103F3000F30193FD859193FF81913F01882309F45B
:103F400053C1853239F493FD859193FF81913F01EF
:103F5000853229F4B70190E00E947421E7CF912CBB
:103F6000212C312CFFE1F31538F08B3211F190F454
:103F7000803209F1833229F137FC3CC020ED280F53
:103F80002A3050F536FE20C08AE0989E200D11247C
:103F9000922E06C08D3291F0803371F7689430F81C
:103FA000F30193FD859193FF81913F018111DACF58
:103FB00021C0689431F8689432F8F2CF689433F8ED
:103FC000EFCF689434F8ECCFEAE02E9E200D112458
:103FD000222E689435F8E4CF8E3229F436FC04C1E1
:103FE000689436F8DDCF8C3619F4689437F8D8CF5A
:103FF0008836B1F2982F9F7D95549330E0F0833648
:10400000A1F18337C1F1833509F063C02801F2E0E3
:104010004F0E511CF801C080D180692D70E036FC34
:1040200002C06FEF7FEFC6010E945E214C016894D1
:1040300037F882010AC00C5F1F4FFFE3F983882421
:104040008394912C6501E89437F833FE2DC0522CEF
:104050008114910471F5552009F468CFB70180E20D
:1040600090E00E9474215A94F6CFF80180818983F0
:104070000E5F1F4FE4CF2801F2E04F0E511CF801F4
:10408000C080D180692D70E036FC02C06FEF7FEFF9
:10409000C6010E9469214C018201D5CFB70180E29F
:1040A00090E00E9474212A942814190409F0B0F7B2
:1040B000CECFF60137FC859137FE81916F01B701B4
:1040C00090E00E94742151105A94F1E08F1A9108E7
:1040D000BFCF843619F0893609F077C0F80137FE72
:1040E0006BC060817181828193810C5F1F4FF32DC2
:1040F000FF763F2E97FF09C090958095709561954A
:104100007F4F8F4F9F4F689437F82AE030E0A5012A
:104110000E94A421C82ECA188C2C432C36FE0CC039
:10412000E89440F8C91440F434FE05C032FC03C0E2
:10413000F32DFE7E4F2E892C44FE95C0FE01EC0D22
:10414000F11D8081803309F087C0242D297E422E05
:10415000842D8870582E43FC95C040FE8FC09C2C47
:10416000821418F42C0C922C981844FE91C0B701BC
:1041700080E390E00E94742142FE09C088E790E04D
:1041800041FE02C088E590E0B7010E947421C91485
:1041900008F48AC0CA94D12C9FEFC91AD90ACA0C54
:1041A000DB1CF60182916F01B70190E00E9474213F
:1041B000AC14BD04B1F74FCF60817181072E000CA4
:1041C000880B990B0E5F1F4F92CFD32CE894D4F835
:1041D0002AE030E0853739F1232D297FD22E8F3622
:1041E00001F148F48835A9F0F701868197812B9673
:1041F000E2E10C941E22803749F08837A9F7D4FEFB
:1042000002C06894D2F820E130E00DC06894D4F880
:10421000F6CF34FE03C0822F8660D82E20E132E034
:1042200002C028E030E0F801D7FE0FC06081718144
:10423000828193810C5F1F4FA5010E94A421C82E8B
:10424000CA183D2CE89437F867CF6081718190E0FF
:1042500080E00E5F1F4FF0CF42FC02C0839478CF06
:104260008394839475CF842D867809F471CFF6CF2B
:10427000B70180E290E00E94742183948214C0F31D
:10428000512C73CF522C5818821408F46ECFF8CFEB
:10429000842D867809F47BCF8BE241FE80E247FCD7
:1042A0008DE2B70190E071CFB70180E390E00E940A
:1042B00074219A946CCF8FEF9FEF99CFFC010590FA
:1042C000615070400110D8F7809590958E0F9F1F18
:1042D0000895FC016150704001900110D8F780955D
:1042E00090958E0F9F1F08950F931F93CF93DF9389
:1042F000182F092FEB018B8181FD09C01FEF0FEFF4
:10430000812F902FDF91CF911F910F91089582FF00
:1043100014C02E813F818C819D81281739073CF480
:10432000E881F981CF0101969983888310838E817A
:104330009F8101969F838E83E3CFE885F985812F46
:104340000995892BA1F3DACFFA01AA27283051F178
:10435000203181F1E8946F936E7F6E5F7F4F8F4FB6
:104360009F4FAF4FB1E03ED0B4E03CD0670F781F15
:10437000891F9A1FA11D680F791F8A1F911DA11DFA
:104380006A0F711D811D911DA11D20D009F4689433
:104390003F912AE0269F11243019305D3193DEF6DB
:1043A000CF010895462F4770405D4193B3E00FD091
:1043B000C9F7F6CF462F4F70405D4A3318F0495D7C
:1043C00031FD4052419302D0A9F7EACFB4E0A6955F
:1043D0009795879577956795BA95C9F70097610581
:1043E000710508959B01AC010A2E069457954795D7
:1043F00037952795BA95C9F7620F731F841F951FCC
:10440000A01D08952F923F924F925F926F927F92DC
:104410008F929F92AF92BF92CF92DF92EF92FF92D4
:104420000F931F93CF93DF93CDB7DEB7CA1BDB0B80
:104430000FB6F894DEBF0FBECDBF09942A88398825
:1044400048885F846E847D848C849B84AA84B9842C
:10445000C884DF80EE80FD800C811B81AA81B98138
:10446000CE0FD11D0FB6F894DEBF0FBECDBFED014C
:064470000895F894FFCF4F
:10447600FFFFFFFF00E100000000000010573A3088
:1044860030204C3A3030204F3A30300001000000E6
:1044960000C1808100000000000000CB066007EC30
:1044A60006E1063207F0060E07000000009C099E92
:1044B600067F0A7E0A5374617274204F736D6F73A0
:1044C600000D0A002530326400253364002D2D3E90
:0444D600002C0000B6
:00000001FF
