:100000000C94290B0C94510B0C94510B0C94510B28
:100010000C94510B0C94510B0C94510B0C94510BF0
:100020000C94510B0C94510B0C941C170C948E17C0
:100030000C94510B0C94510B0C94510B0C94510BD0
:100040000C94510B0C94510B0C94510B0C94510BC0
:100050000C94510B0C94510B0C94510B0C948F1A63
:100060000C94510B0C94510B0C94510B0C94510BA0
:100070000C94510B0C94510B0C94510B0C94510B90
:100080000C94510B0C94510B0C94510B0C94510B80
:100090000C94510B0C94510B0C94510B0C94510B70
:1000A0000C94510B0C9414150C94510B4F0E520ED2
:1000B000550E580E5B0E5E0E610E640E670E6A0ED4
:1000C0006D0E007F9E797674866FCB6A4466EE6112
:1000D000C75DCD59FF555952DC4E844B50483F45C2
:1000E0005042803FCF3C3B3AC33766352233F7302E
:1000F000E42EE72CFF2A2D296E27C2252824A022D2
:100100002821C01F671E1D1DE11BB31A91197C1801
:100110007217731680159614B713E112141250114A
:100120009410E00F340F8F0EF10D590DC90C3E0CD9
:10013000B90B3A0BC00A4B0ADB0970090A09A80877
:100140004A08F0079A074707F806AD0664061F0637
:10015000DC059D0560052605EE04B80485045404FD
:100160002504F803CD03A4037C03560332030F03D5
:10017000EE02CE02B002930277025C0243022A0230
:100180001202FC01E601D201BE01AB019901880116
:1001900077016701580149013B012E012101150139
:1001A0000901FE00F300E900DF00D600CD00C40025
:1001B000BC00B400AC00A5009E00970091008A002E
:1001C00085007F007A00740070006B00660062009A
:1001D0005E005A00560052004F004C004800450097
:1001E000420040003D003A00380035003300310045
:1001F0002F002D002B0029002700260024002300BB
:10020000210020001E001D001C001B001A00180009
:10021000170016001500150014001300120011003D
:10022000110010000F000F000E000D000D000C005B
:100230000C000B000B000A000A000900090009006D
:100240000800080008000700070007000600060075
:100250000600060005000500050005000500040075
:100260000400040004000400030003000300030072
:10027000030003000300030002000200020002006A
:10028000020002000200020002000200020002005E
:100290000100010001000100010001000100010056
:1002A0000100010001000100010001000100010046
:1002B0000100010001000100010001000100000037
:1002C0000000FF65554C45403C383532302E2C2A15
:1002D000282725242321201F1E1D1C1B1A1919182D
:1002E000171616151414131312111110100F0F0EE8
:1002F0000E0D0D0D0C0C0B0B0B0A0A0A090909084F
:10030000080808070707060606060505050505048B
:1003100004040404030303030303020202020202AF
:1003200002010101010101010101010000000000C1
:1003300000000000000000000000000000000000BD
:10034000000000200030002353657175656E636501
:1003500020392D3136002353657175656E63652034
:10036000312D38000D0A312073657175656E636536
:100370002072656365697665642E0D0A0020000DA4
:100380000A646F6E652E0D0A000D1B72726F72206B
:10039000617420706F736974696F6E20000D0A6854
:1003A0006561646572206973204F4B0D0A007365A7
:1003B0006E642073657175656E6365730D0A000068
:1003C0000000000603070B053616091C3617093412
:1003D0003617094C36170964361809000000000664
:1003E000050403020100FFFEFDFCFBFAFAFAF9F92D
:1003F000F9FAFAFBFCFDFEFF00010203040506FD0D
:10040000FCFBFAFAF9F9F9F9FAFBFCFDFEFFFF0033
:100410000102030405060707070707060504034151
:1004200041636377777F6363637F7F01010101012C
:100430000100030C03000102070200050205000091
:1004400002070200020202020234FF45FF34FF45A8
:1004500034FF3445344545344434FF45FF34FF45CB
:1004600034FF3445FF34FF45343CFEFE3CFF373754
:10047000373CFEFE3CFFFF3C3F3E3E3E3E3E3E3EA6
:100480003E414141413C3C3C403C3E404244464868
:100490004A4C4A48464442403E3C3CFF3C4343FFB2
:1004A0004345FE3C4541FE45413C484B4A48464495
:1004B00043413F3E3F3B3C3E3734393C453B3F4365
:1004C0003F42FE40FE3BFE37FE3C483C453C413C43
:1004D000433C483C4A3C473C4843434343FF464631
:1004E0004646FF4646FF4646464145484C4145473D
:1004F0004A4043474A4043454841414141414040C9
:10050000404343413E3CFFFFFF41414141414040A8
:1005100040403E3E403EFF43FE404040FE404040A3
:10052000FE40433C3E40FEFFFF4343414140403ECE
:10053000FE4343414140403EFE3C3C43434545432E
:10054000FE414140403E3E3CFE05021B01020705C4
:1005500026050205092002020008220807070320D9
:10056000010204011001020401080302020C000749
:1005700007F0F89C8E8783878E9CF8F00000FEFFC2
:100580000303030303070EFCF80000FEFF0303034D
:100590000303070EFCF80000FFFF0000000000004E
:1005A00000FFFF0000FEFF8383838383C7EE7C3858
:1005B0000000F8FC0E07030303070EFCF800003FE1
:1005C0007FE0C08080C0E07F3FFFFF0101010101AB
:1005D0000101FFFF0000FFFF0C0C0C0C1C3E77E339
:1005E000C100007FFFC0C0C0C0C0E0703F1F00005E
:1005F0001F3F70E0C0C0C0E0703F1F00007FFFC120
:10060000C1C1C1C1E3773E1C00001F3F70E0C0C004
:10061000C0E0703F1F000000000001FFFF0100006C
:1006200000D5F08D14A1C881CFD9F1AF200005010C
:100630002001020007052C05020005092002020026
:10064000000822080700070320010200040110012E
:1006500002FE0401080302FE00000000003E5B4FA2
:100660005B3E3E6B4F6B3E1C3E7C3E1C183C7E3C12
:10067000181C577D571C1C5E7F5E1C00183C180020
:10068000FFE7C3E7FF0018241800FFE7DBE7FF30B0
:10069000483A060E2629792926407F050507407F1E
:1006A00005253F5A3CE73C5A7F3E1C1C08081C1C91
:1006B0003E7F14227F22145F5F005F5F06097F0187
:1006C0007F006689956A606060606094A2FFA29472
:1006D00008047E040810207E201008082A1C080840
:1006E0001C2A08081E101010100C1E0C1E0C30388E
:1006F0003E3830060E3E0E06000000000000005F8F
:1007000000000007000700147F147F14242A7F2AAA
:10071000122313086462364956205000080703006C
:10072000001C2241000041221C002A1C7F1C2A08B8
:10073000083E08080080703000080808080800001B
:1007400060600020100804023E5149453E00427F8F
:10075000400072494949462141494D331814127FDE
:100760001027454545393C4A49493141211109077E
:100770003649494936464949291E000014000000FF
:1007800040340000000814224114141414140041D1
:1007900022140802015909063E415D594E7C12118E
:1007A000127C7F494949363E414141227F414141C6
:1007B0003E7F494949417F090909013E4141517341
:1007C0007F0808087F00417F41002040413F017FB2
:1007D000081422417F404040407F021C027F7F047A
:1007E00008107F3E4141413E7F090909063E4151C3
:1007F000215E7F09192946264949493203017F01B3
:10080000033F4040403F1F2040201F3F4038403FB3
:10081000631408146303047804036159494D4300C9
:100820007F4141410204081020004141417F040200
:100830000102044040404040000307080020545497
:1008400078407F2844443838444444283844442875
:100850007F385454541800087E090218A4A49C78C8
:100860007F0804047800447D40002040403D007F24
:100870001028440000417F40007C047804787C0804
:100880000404783844444438FC18242418182424D8
:1008900018FC7C08040408485454542404043F44BD
:1008A000243C4040207C1C2040201C3C4030403CEC
:1008B00044281028444C9090907C4464544C44004C
:1008C00008364100000077000000413608000201B0
:1008D0000204023C2623263C1EA1A161123A40409C
:1008E000207A38545455592155557941215454781A
:1008F00041215554784020545579400C1E527212B3
:10090000395555555939545454593955545458003A
:1009100000457C410002457D420001457C40F029B4
:100920002429F0F0282528F07C5455450020545403
:100930007C547C0A097F4932494949323248484847
:1009400032324A4848303A4141217A3A424020788E
:10095000009DA0A07D39444444393D4040403D3C89
:1009600024FF2424487E4943662B2FFC2F2BFF09AC
:1009700029F620C0887E09032054547941000044A0
:100980007D413048484A32384040227A007A0A0A8B
:10099000727D0D19317D2629292F282629292926FE
:1009A00030484D4020380808080808080808382F43
:1009B00010C8ACBA2F102834FA00007B00000814CD
:1009C0002A142222142A14089500220095AA005500
:1009D00000AAAA55AA55AA000000FF00101010FF97
:1009E00000141414FF001010FF00FF1010F010F09E
:1009F000141414FC001414F700FF0000FF00FF148F
:100A000014F404FC141417101F10101F101F1414DA
:100A1000141F00101010F0000000001F1010101024
:100A20001F10101010F010000000FF101010101018
:100A300010101010FF10000000FF140000FF00FF56
:100A400000001F10170000FC04F4141417101714F2
:100A500014F404F40000FF00F71414141414141414
:100A6000F700F7141414171410101F101F14141487
:100A7000F4141010F010F000001F101F0000001FF1
:100A800014000000FC140000F010F01010FF10FF24
:100A9000141414FF141010101F00000000F010FFB9
:100AA000FFFFFFFFF0F0F0F0F0FFFFFF000000009D
:100AB00000FFFF0F0F0F0F0F38444438447C2A2AE1
:100AC0003E147E02020606027E027E026355494102
:100AD000633844443C04407E201E2006027E02020D
:100AE00099A5E7A5991C2A492A1C4C7201724C3021
:100AF0004A4D4D303048784830BC625A463D3E49F8
:100B00004949007E0101017E2A2A2A2A2A44445F9B
:100B1000444440514A444040444A51400000FF018F
:100B200003E080FF000008086B6B0836123624369D
:100B3000060F090F06000018180000001010003002
:100B400040FF0101001F01011E00191D1712003C8A
:100B50003C3C3C0000000000080B000202020100C7
:100B60000904000001020200000524001001052410
:100B70000101010424020605240600010705810382
:100B800010004009040100020A00000007050202EB
:100B9000400000070583024000000403090412011D
:100BA0000002EF02014041233680000101020301EF
:100BB00041726475696E6F204C4C430041726475DC
:100BC000696E6F204C656F6E6172646F007FE0EE3E
:100BD000E0FFE07160FFE06AEE7FFF7FE07AE07F98
:100BE000606FEFFFE0EFEF7FFF7FE0EEE0FFE0718F
:100BF00060FFE06A6E7FFF7F607AE07FE06FEFFF6B
:100C0000E0EFEF7FFFFF68EA62FF607A60FF70EF5E
:100C100070FCFDFDFDFDFFF0F7F8FFF0F7F0FFF0D1
:100C2000FCF0FFF0FDFCFFFDFDFDFDFCFFFCFDFD0C
:100C3000FDFDFFF0FDF2FFF0F5F5FFF0F7F7FFF82F
:100C4000F7F8FFFDFDFDFDFCFFFFF0FCF0FFF0F508
:100C5000F5FFF0FCF00000D8DCD80000FEFEFEFE40
:100C6000FEFEFEFEFEFEFEFEFEFEFEFEFEFEFEFEA4
:100C700000AA15CAE522E5CA15AA00FFFF00000078
:100C8000FF000000FFFF00FFFF000000FF0000006A
:100C9000FF000000FFFF00FFFF000000FF0000005A
:100CA000FFFF00FFFF000000FF000000FF0000004A
:100CB000FFFF00FFFF000000FF000000FFFF00FF3C
:100CC000FF000000FF000000FF000000FFFF00FF2A
:100CD000FFFF00AA55A850A851A850A853AB530332
:100CE0000303030303030303030303AB53AB53AB3C
:100CF00050AA007FFF80FF7F00AA00FFFFFC00FCDE
:100D0000FFFC00FCFFFF00FFFFFC00FCFFFC00FC01
:100D1000FFFC00FCFFFF00FFFFFC00FCFFFC00FCF1
:100D2000FFFF00FFFFFC00FCFFFC00FCFFFC00FCE1
:100D3000FFFF00FFFFFC00FCFFFC00FCFFFF00FFCB
:100D4000FFFC00FCFFFC00FCFFFC00FCFFFF00FFC1
:100D5000FFFF00AA55AA552A152A55AA55AA5528B3
:100D6000142854A854A85428142854AA55AA552A1B
:100D7000152A55AA54AA542A152A54A955A9542902
:100D8000152954A955A95429152954A955A95429F7
:100D9000152954A955A95429152954A955A95429E7
:100DA000152954A955A95429152954A955A95429D7
:100DB000152954A955A95429152954A955A95429C7
:100DC000152954A955A95429152954A955A95429B7
:100DD000152954AA5500FEFF01FFFE005500FEFF35
:100DE00001FFFE005500FEFF01FFFE005500FEFF63
:100DF00001FFFE000100FEFF01FFFE005500FEFFA7
:100E000001FFFE005500FEFF01FFFE005500FEFF42
:100E100001FFFE000100FEFF01FFFE005500FEFF86
:100E200001FFFE005500FEFF01FFFE005500FEFF22
:100E300001FFFE000100FEFF01FFFE005500FEFF66
:100E400001FFFE005500FEFF01FFFE005500FEFF02
:100E500001FFFE005500FFFF00FFFF005500FFFFF0
:100E600000FFFF005500FFFF00FFFF005500FFFFE0
:100E700000FFFF000000FFFF00FFFF005500FFFF25
:100E800000FFFF005500FFFF00FFFF005500FFFFC0
:100E900000FFFF000000FFFF00FFFF005500FFFF05
:100EA00000FFFF005500FFFF00FFFF005500FFFFA0
:100EB00000FFFF000000FFFF00FFFF005500FFFFE5
:100EC00000FFFF005500FFFF00FFFF005500FFFF80
:100ED00000FFFF005500FFFF00FFFF005500FFFF70
:100EE00000FFFF005500FFFF00FFFF005500FFFF60
:100EF00000FFFF000000FFFF00FFFF005500FFFFA5
:100F000000FFFF005500FFFF00FFFF005500FFFF3F
:100F100000FFFF000000FFFF00FFFF005500FFFF84
:100F200000FFFF005500FFFF00FFFF005500FFFF1F
:100F300000FFFF000000FFFF00FFFF005500FFFF64
:100F400000FFFF005500FFFF00FFFF005500FFFFFF
:100F500000FFFF005500FFFF00FFFF005500FFFFEF
:100F600000FFFF005500FFFF00FFFF005500FFFFDF
:100F700000FFFF000000FFFF00FFFF005500FFFF24
:100F800000FFFF005500FFFF00FFFF005500FFFFBF
:100F900000FFFF000000FFFF00FFFF005500FFFF04
:100FA00000FFFF005500FFFF00FFFF005500FFFF9F
:100FB00000FFFF000000FFFF00FFFF005500FFFFE4
:100FC00000FFFF005500FFFF00FFFF005500FFFF7F
:100FD00000FFFF0055803F7F607F3FC055803F7F0F
:100FE000607F3FC05D803F7F607F3FC055803F7F17
:100FF000607F3FC050803F7F607F3FC055803F7F14
:10100000607F3FC055803F7F607F3FC055803F7FFE
:10101000607F3FC050803F7F607F3FC055803F7FF3
:10102000607F3FC055803F7F607F3FC055803F7FDE
:10103000607F3FC050803F7F607F3FC055803F7FD3
:10104000607F3FC055803F7F607F3FC055803F7FBE
:10105000607F3FC05541636F757374696320506949
:10106000616E6F0000456C6563747269632050693E
:10107000616E6F0000547562756C61722042656C20
:101080006C730000004D6172696D626100000000C8
:1010900000000000004A617A7A2047756974617225
:1010A000000000000046696E67657220426173733C
:1010B0000000000000536C617020426173730000F7
:1010C000000000000050657263757373696F6E00F5
:1010D0000000000000AA44AA11AA440201C2E4C20E
:1010E0000102A4F2F1F2F4F2F1F2F4F2F1F2F4F20C
:1010F000F1F2F4F2F1F2F4F2F1F2F4F2F1F2F4F2CC
:10110000F1F2F4F2F1F2F4F2F1F2F4F2F1F2F4F2BB
:10111000F1F2F4F2F1F2F4F2F1F2F4F2F1F2F4F2AB
:10112000F1F2F4F2F1F2F4F2F1F2F4F2F1F2F4F29B
:10113000F1F2F4F2F1F2F4F2F1F2F4F2F1F2F4F28B
:10114000F1F2F4F2F1F2F40211AA44AA11AA44AAAB
:1011500011AA44AA11AA44AA11AA448000864E8664
:1011600000804A9F1F9F5F9F1F9F5F9F1F9F5F9FE2
:101170001F9F5F9F1F9F5F9F1F9F5F9F1F9F5F9F7F
:101180001F9F5F9F1F9F5F9F1F9F5F9F1F9F5F9F6F
:101190001F9F5F9F1F9F5F9F1F9F5F9F1F9F5F9F5F
:1011A0001F9F5F9F1F9F5F9F1F9F5F9F1F9F5F9F4F
:1011B0001F9F5F9F1F9F5F9F1F9F5F9F1F9F5F9F3F
:1011C0001F9F5F9F1F9F5F8011AA44AA11AA44AA74
:1011D00011AA44AA11AA44AA11AA44AA1102A4F26B
:1011E000F1F2F4F2F1F2F4F2F1F2F4F201AA44AA0B
:1011F00011AA44AA1102A4F2F1F2F4F2F1F2F4F20B
:10120000F1F2F4F201AA44AA11AA44AA1102A4F22A
:10121000F1F2F4F2F1F2F4F2F1F2F4F201AA44AADA
:1012200011AA44AA1102A4F2F1F2F4F2F1F2F4F2DA
:10123000F1F2F4F201AA44AA11AA44AA1102A4F2FA
:10124000F1F2F4F2F1F2F4F2F1F2F4F201AA44AAAA
:1012500011AA44AA11AA44AA11AA44AA11804A9F19
:101260001F9F5F9F1F9F5F9F1F9F5F9F00AA44AAB2
:1012700011AA44AA11804A9F1F9F5F9F1F9F5F9FD3
:101280001F9F5F9F00AA44AA11AA44AA11804A9FE7
:101290001F9F5F9F1F9F5F9F1F9F5F9F00AA44AA82
:1012A00011AA44AA11804A9F1F9F5F9F1F9F5F9FA3
:1012B0001F9F5F9F00AA44AA11AA44AA11804A9FB7
:1012C0001F9F5F9F1F9F5F9F1F9F5F9F00AA44AA52
:1012D00011AA44AA11AA44AA11AA44AAF17A1C0E7E
:1012E0000706030303030306070E1C7AF1AA44AAA8
:1012F00011AA44AAF17A1C0E07060303030303068E
:10130000070E1C7AF1AA44AA11AA44AAF17A1C0E6B
:101310000706030303030306070E1C7AF1AA44AA77
:1013200011AA44AAF17A1C0E07060303030303065D
:10133000070E1C7AF1AA44AA11AA44AAF17A1C0E3B
:101340000706030303030306070E1C7AF1AA44AA47
:1013500011AA44AA11AA44AA11AA44AF3FF0C0801E
:1013600000000000000000000080C0F03FAF44AA71
:1013700011AA44AF3FF0C080000000000000000050
:101380000080C0F03FAF44AA11AA44AF3FF0C08034
:1013900000000000000000000080C0F03FAF44AA41
:1013A00011AA44AF3FF0C080000000000000000020
:1013B0000080C0F03FAF44AA11AA44AF3FF0C08004
:1013C00000000000000000000080C0F03FAF44AA11
:1013D00011AA44AA11AA44AA11AA042A112A85AB67
:1013E00093AB86AE16AE86AB93AB852A112A042A40
:1013F000512A04AA112A05AB13AB862E96AE06AB72
:10140000932B85AA91AA042A512A042A112A85AB72
:1014100093AB86AE162E86AB132B052A112A042A0F
:10142000512A042A91AA85AB93AB062E96AE86ABC1
:10143000932B052A91AA042A512A04AA91AA85ABC2
:10144000932B06AE96AE86AB132B05AA91AA042A5F
:1014500011AA44AA11AA44AA11AA008000803FBF81
:101460000484048000BF3FA424A43F9B008000802C
:10147000558000BF3F8E3FBF009F3FA03F9F00BFF2
:101480003FA000BF3F80008055800080008000802A
:101490003FBF008000803FBF20A020A000800080D0
:1014A0005580008020BF3FA020BF1F803FBF0C9C05
:1014B00037A300813FBF0080558000A03FBF20A020
:1014C0003F9F00BF3F8C1CB7238031B92CA72380DE
:1014D00000AA44AA11007E665A5A7E426A427E429F
:1014E00066427E665A5A7E42525A7E425E5E7E0056
:1014F000FFE0F3E0FFE0FAE0FFE0FFFEE0FEFFE0E8
:10150000FFE0F1E0FFF1EEE2FFEFFFEFFF20627995
:101510007465732072656365697665642E0D0A6172
:10152000626F727465642E00206279746573207234
:10153000656365697665642E0D0A61626F72746514
:10154000642E0020000102040810204080070B15C3
:101550000F290F231527293F3B153F290F531557F7
:10156000290F6B156F2901020406080A0C0E1012D0
:10157000141418181E1E4B22CA224C23CF235524A4
:10158000DC246525F0257E260D279E273228C828D5
:101590006029FA29962A342BD52B792C1E2DC62D9D
:1015A000712E1E2FCD2F7F303431EB31A5326133B8
:1015B0002134E334A8356F363A370838D838AC3997
:1015C000833A5D3B3A3C1A3DFD3DE43ECE3FBC4094
:1015D000AD41A2429A430004081014182024283078
:1015E000343840444850545860646870747880843B
:1015F00088909498A0A400000000250028002B00EB
:101600002E00310000000000240027002A002D00D9
:10161000300004040404040304050202020204036B
:10162000020202020606060606060404020202047C
:1016300004040802011040804010204080408008CF
:101640000204018040201002011080102040402040
:10165000492911241FBECFEFDAE0DEBFCDBF11E074
:10166000A0E0B1E0ECEBF5E502C005900D92AE33E1
:10167000B107D9F728E0AEE3B1E001C01D92A3366F
:10168000B207E1F71BE0C9E2DBE004C02197FE01ED
:101690000E94B02AC832D107C9F70E940F240C94C7
:1016A000DC2A0C9400000F931F93CF93DF93DC018F
:1016B0004C9311962C93119712961C921297EC0151
:1016C000239680E090E0FB01E80FF91FE491E99395
:1016D000019685309105B9F7ED01289680E090E0FC
:1016E000F801E80FF91FE491E99301968031910523
:1016F000B9F75C961C921E925B975D961C925D9763
:1017000058961C92DF91CF911F910F9108959FE9F8
:10171000980F963008F480529091C205923039F4B7
:101720008A3011F08D30C9F51092C20536C083326F
:1017300021F482E08093C20530C020ED280F2A30CA
:1017400020F03FEB380F3630B0F4992319F0913088
:1017500031F023C091E09093C2051092C40590919E
:10176000C4059093C3058A3314F0875301C0822FB8
:101770008093C40512C0803221F08A3011F08D3080
:1017800061F4992351F0913021F41092C20581E067
:10179000089581E08093C705089580E00895EF9251
:1017A0000F93362F330F330F330F3F5F860F911D8B
:1017B000FC01808587FD0AC06CE6681B70E093E041
:1017C000E92E03E025E044E454E00AC08E3F61F4D2
:1017D00083E0E82E03E025E04FE354E069E270E0A7
:1017E000832F90E00E94421C0F91EF900895EF929A
:1017F0000F93FC01818165E070E0681B710987FD32
:101800007395660F70E083E0E82E01E025E04BE27F
:1018100054E08EE190E00E94421C0F91EF900895F9
:10182000CF93C82F803120F485E493E00E94BF213C
:101830006C2F70E080E090E040E10E947E2183E424
:1018400093E0CF910C94BF210F931F93CF93DF931D
:10185000EC018C01085E1F4F89910E94100CC0178B
:10186000D107D1F780E8DF91CF911F910F910C94B0
:10187000100C0F931F93CF932EE1829FC001112470
:101880008C010F5D194FC8010E94F70BC0E06C2F4F
:10189000C8010E94CF0BCF5FC031C9F7CF911F9114
:1018A0000F9108950F931F9309E315E020E04CE397
:1018B00069E475E081E296E00E94530B09E215E0CD
:1018C00020E04CE369E475E08FE396E00E94530B5F
:1018D00009E115E021E040E66EE475E08DE596E073
:1018E0000E94530B09E015E021E040E66EE475E04C
:1018F0008BE796E00E94530B09EF14E021E040E6ED
:101900006EE475E089E996E00E94530B09EE14E05D
:101910002FEF4AE463E575E087EB96E00E94530BF6
:1019200009ED14E020E040EC68E575E085ED96E017
:101930000E94530B09EC14E020E044E968E575E0EF
:1019400083EF96E00E94530B09EB14E020E04CE497
:101950006DE575E081E197E00E94530B09EA14E020
:1019600020E04EE76DE575E08FE297E00E94530BB3
:1019700009E914E02FEF42E862E675E08DE497E0B4
:101980000E94530B09E814E020E040EF62E675E0A6
:101990008BE697E00E94530B09E714E02FEF48E72E
:1019A00067E675E089E897E00E94530B09E614E0CA
:1019B0002FEF43E767E675E087EA97E00E94530B55
:1019C00009E514E02FEF42E86CE675E085EC97E05E
:1019D0000E94530B09E414E02FEF42E86CE675E037
:1019E00083EE97E00E94530B1F910F9108958F9201
:1019F0009F92AF92BF92DF92EF92FF920F931F934D
:101A0000CF93DF931F92CDB7DEB75C017B01D42E5D
:101A100049018FEF8983672B19F4CE0101967C0170
:101A2000F50180818823A9F00E94E01A8D2121F41C
:101A3000F5011082F4010AC0F7018081882311F0BA
:101A4000815011C081E0F7018083F801099581E0A0
:101A50000CC00E94E01A8D218D1106C081E0F501B5
:101A6000808385E0F701808380E00F90DF91CF9144
:101A70001F910F91FF90EF90DF90BF90AF909F90DC
:101A80008F900895EF92FF920F931F93CF93DF9360
:101A900040916B0191E0492740936B019FEF980FB4
:101AA000903108F04DC090E001979C0123703327DE
:101AB00031E1239F202D1124235E959587959595DF
:101AC0008795880FC82FCC0FCC0F8C0F8B5FC82F3A
:101AD000D0E0E22EF12C442331F000E02BE042E193
:101AE000BE01C7013FC001E02BE042E1BE01C701DA
:101AF0000E94022220E0AE01B70185E098E00E943A
:101B0000AF1D87010F5E1F4F20E0AE01B80185E0D9
:101B100098E00E94AF1D2A9620E0AE01B70185E053
:101B200098E00E94AF1D20E0AE01B80185E098E08A
:101B3000DF91CF911F910F91FF90EF900C94AF1D0B
:101B4000863190F481519EE0899F802D1124845E1E
:101B500090E0442311F000E001C001E029E04FE0F3
:101B60006EE270E00E940222DF91CF911F910F91EF
:101B7000FF90EF900895CF93C82F80916B01882339
:101B800021F080916D010E94420DC63124F41C1693
:101B90001CF0C1E001C0C5E1C0936D018C2FCF9155
:101BA0000C94420DCF92EF920F93CF93E091710579
:101BB0009EE1E99FF0011124EF5DF94FC081C80F4C
:101BC000C083C13F20F4C83318F4C8E301C0C0EF9C
:101BD00001E027E042E162E070E088E090E00E94EE
:101BE000E021C43698F08C2F64E60E94902A20E30E
:101BF000280FCC24C394EE24E39400E042E050E0AC
:101C000068E070E081E098E00E94511B8C2F64E650
:101C10000E94902A492F62E08EE00E942223E091E8
:101C200071058EE1E89FF0011124EF5DF94FC0834B
:101C3000CF910F91EF90CF900895EF920F93CF93A4
:101C4000DF93EC01C60FD11D888587FD60C0962FFC
:101C50006CE6681B70E0990F990F990F81E0890F6E
:101C600023E0E22E03E025E04AE354E090E00E9406
:101C7000421CC88580ED8C0F853208F048C0D0E04A
:101C8000E097CE016CE070E00E949C2AFC01319745
:101C9000EB30F10528F5EA5AFF4F0C94B02AE4E046
:101CA00028E220C0ECE02AE21DC0E4E02CE21AC0E9
:101CB000ECE02EE217C0ECE022E314C0E4E024E301
:101CC00011C0ECE026E30EC0E4E028E30BC0ECE03A
:101CD0002AE308C0E4E02CE305C0ECE02EE302C0F8
:101CE000ECE026E2F0E0CE016CE070E00E949C2A7D
:101CF000822F9CE1699F800D112493E0E92E03E07F
:101D000023E047E354E0BF0190E00E94421CDF91D2
:101D1000CF910F91EF900895EF92FF921F93CF9381
:101D2000DF93C0914D01C13059F024F4CC2309F464
:101D3000A7C03BC0C23059F0C33109F4A1C035C0BF
:101D4000DF91CF911F91FF90EF900C94D20DE09115
:101D500071052E2F30E04EE1E49FF0011124EF5D7C
:101D6000F94FD181D80FD33024F4DE3F1CF4DEEFDD
:101D700001C0D2E0CEE1C29FC001C39F900D1124EB
:101D80008F5D994F0E94F70BE0917105CE9FF00196
:101D90001124CF018F5D994FFC01D183DF91CF9149
:101DA0001F91FF90EF900C94F70BC3509091710529
:101DB000EC2EF12C292F30E0F7014EE1949FE00D3D
:101DC000F11D1124EF5DF94F9085D92FD80F9F3F5A
:101DD00021F418160CF452C00DC09F3F24F487FF65
:101DE00009C0D4E507C0D03324F0D5351CF0DEEFB0
:101DF00001C0DFEF4EE1429FC001439F900D1124CF
:101E00008F5D994FFC01228DC21303C06C2F0E947D
:101E10001D0E809171051EE1189FC00111246C2FC9
:101E20008F5D994F0E94CF0B80917105189FC00163
:101E300011248F5D994FFC01EE0DFF1DD0876C2F93
:101E40000E94CF0B80917105189FC00111248F5DF6
:101E5000994FFC01228DC21313C06C2F0E941D0EDE
:101E600080917105189FC00111248F5D994FDF91FA
:101E7000CF911F91FF90EF900C943722D0E3BACF0F
:101E8000DF91CF911F91FF90EF900895EF920F9304
:101E900020916B0191E0922790936B01813071F456
:101EA000992311F001E001C000E02BE047E060E081
:101EB00070E080E090E00E94022214C0823031F095
:101EC000880F880F880F885163E102C060E08DE1C0
:101ED00070E093E0E92E04E027E040E354E090E076
:101EE0000E94421C0F91EF900895CF93DF93C82F6B
:101EF00080916B01882321F080914D010E94460F53
:101F0000C33124F4C2301CF4C1E001C0C3E0C0936B
:101F10004D018C2F0E94460FE0917105DEE1DE9F9E
:101F2000F0011124EF5DF94F858D811120C0C33080
:101F3000F4F0628DCF010E941D0E6DEF6C0FE091E9
:101F40007105DE9FF0011124EF5DF94F608F618F05
:101F5000628FCF010E941D0E80917105D89FC00134
:101F600011248F5D994FDF91CF910C943722DF912F
:101F7000CF910895EF920F93CF93DF93EC0101E09F
:101F800027E046E06BE070E08EE090E00E94E02108
:101F90008D8DE12C07E026E0882319F04FE154E015
:101FA00002C045E254E06BE070E08EE090E00E94F9
:101FB000421CDF91CF910F91EF9008954F925F9265
:101FC0006F927F928F929F92AF92BF92CF92DF9249
:101FD000EF92FF920F931F93CF93DF93EB01542E59
:101FE000FB014491282F30E0AFE1B0E00E94812A4C
:101FF000242F30E040E050E00E94402AF901E150F7
:10200000FC4FE490F901E152FC4F84918E010C5F8A
:102010001F4FF8019491E82F880FFF0B9F01290FA4
:10202000311DC9012396FE0124910E2C000CFF08DE
:10203000E20EF11CF801049110E0FE01C491D0E021
:10204000AC01401B510B57FF03C0519541955109FD
:1020500097012C1B3D0B37FF03C0319521953109AA
:10206000442443942417350714F0412C0AC03E2D14
:102070002F2D7C01832F922F3C2F2D2FE801032F32
:10208000122FEC16FD0654F4302F212F8C01832FD4
:10209000922F3C2F2D2FE701E32EF22E37016C1AE1
:1020A0007D0A5C01A01AB10AB7FE03C0B194A194E5
:1020B000B108630177FE03C0FFEFCF1ADF0AD594A2
:1020C000C7940817190714F08FEF01C081E0882E1C
:1020D000880F9908EC16FD06B4F0252D442019F060
:1020E000AE01B80102C0A801BE0185E098E00E94DF
:1020F000AF1DCA18DB08D7FE04C0080D191DC60C99
:10210000D71C2196E7CFDF91CF911F910F91FF90C0
:10211000EF90DF90CF90BF90AF909F908F907F9087
:102120006F905F904F900895AF92BF92CF92DF92E1
:10213000EF92FF920F93CF936C017B01C42F40E08D
:10214000FC0180810E94DE0FC7FDC0E0F7012491F1
:1021500030E04C2F0C2E000C550B241735070CF4D7
:10216000C491F601C0835701F2E0AF0EB11CF50136
:1021700064916701FFEFCF1ADF0AF601849170E0E6
:1021800001E027E04CE090E00E94E021F50164913D
:10219000F60184914C2F0E9422230E94572341E094
:1021A000B7018C2FCF910F91FF90EF90DF90CF90E0
:1021B000BF90AF900C94DE0FCF92DF92EF92FF9220
:1021C0000F931F93CF93DF93C82F87FD04C08830F0
:1021D0001CF0C7E001C0C0E0C093420101E029E06B
:1021E00045E664E070E08DE090E00E94E02120E1AF
:1021F000C202C00111248B5A9F4E0E94FE22E09021
:1022000071053EE1E39EC00111249C012C5D394F14
:1022100079018DE4C82E85E1D82E35E0C302E001B6
:10222000112400E010E0F801EC0FFD1FE75BFA4F0E
:102230004491B601C701800F911F0E9494100F5F57
:102240001F4F85E0C80ED11C0530110561F7DF91E5
:10225000CF911F910F91FF90EF90DF90CF90089555
:10226000E09171059EE1E99FF0011124EC5DF94FC9
:10227000909141019330B9F02CF4913049F09230B3
:1022800061F008959530E9F0ACF0963009F10895C9
:1022900090914201890F0C94DC104081480F6DE44D
:1022A00075E1CF011BC04181480F62E575E1CF01A7
:1022B000019614C04281480F67E575E1CF0102968F
:1022C0000DC04381480F6CE575E1CF01039606C050
:1022D0004481480F61E675E1CF0104960C94941097
:1022E00080914E0190914F018130910541F08230F3
:1022F000910541F0892B89F48FEF0C9430118FEF09
:102300000C948C0E80916D01811104C08091710537
:102310008F5F01C08C5F0C94BB0D089580914E01BE
:1023200090914F018130910541F08230910541F04B
:10233000892BB9F481E00C94301181E00C948C0E5F
:1023400090916D01911104C0809171058F5F07C05C
:102350008CEF890F21E0953109F020E0821B0C946D
:10236000BB0D08950F9300916B0191E00927009335
:102370006B0194E0899F90011124F901E154FC4F15
:102380008491F901E054FC4F6491F901EF53FC4F43
:102390004491F901EE53FC4F249170E090E00E94CB
:1023A00002220F910895CF93C82F80916B0188234B
:1023B00021F0809141010E94B211C73024F41C1613
:1023C0001CF0C1E001C0C6E0C09341018C2FCF9149
:1023D0000C94B21180914E0190914F018130910582
:1023E00051F08230910561F0892B99F4809141017F
:1023F0008F5F0C94D31180914D018F5F0C94750FFA
:1024000080916D01811102C0809171058F5F0C94E4
:10241000BB0D089580914E0190914F01813091053F
:1024200051F08230910561F0892BA9F4809141012E
:1024300081500C94D31180914D0181500C94750FF3
:1024400080916D01811104C0809171058F5F01C081
:1024500081500C94BB0D0895FF920F931F93CF935F
:10246000DF93082F80916C018130F1F098F0823079
:10247000B1F5C0E0FF24F3941EE182E795E00E94ED
:102480006716892B09F46AC180916C01823009F0CA
:1024900065C127C08FEF9FEF90937F0580937E05E6
:1024A00081E080936C011BC0C0910D016AE070E077
:1024B00080E090E00E94BE19CC2389F08EEA93E080
:1024C0000E94BF2182E080936C011092C20510929D
:1024D000C6051092C5051092C7051092E805C0E028
:1024E0003DC182E795E00E94FE162091C50530911E
:1024F000C6052530310544F40E94870B882309F175
:102500000E94CD1DC82FB9CF25303105E1F40E94BE
:10251000870B811105C08091C705811105C011C0CD
:102520000E94CD1D8823B9F38091C5059091C60501
:10253000069709F07EC01092E7058DE993E00E94AE
:10254000BF21C0E09ACF0E94870B882309F44DC0B9
:102550002091C30580E1280290011124D091C40587
:10256000D22B6D2F70E080E090E040E10E947E2150
:102570008DE793E00E94BF21E091E705E13081F013
:102580001CF4EE2331F01BC0E23079F0E83181F029
:1025900016C088EC8D0F893B90F0F092C705DCC027
:1025A00082E08D0F8530C8F70AC0D038B1F707C078
:1025B000D03829F484E693E00E94BF21CDC081E0A9
:1025C0008E0F8093E7050E2E000CFF0BE753FA4F9A
:1025D000D08320E08091C5059091C6050196909327
:1025E000C6058093C505211126C08091C7058823A3
:1025F000B9F089E893E00E94BF216091C505709110
:10260000C605072E000C880B990B97FF03C00E948C
:10261000982303C04AE00E947E210E94532303C0F6
:10262000CC2309F48ECF8FE793E00E94BF21109254
:102630006C01C1E022CF8091C7058111D6CFA09156
:10264000C9053091CA058091CB05002309F448C023
:102650009091E805692F092E000C770B169FF00169
:10266000179FF00D1124EF5DF94FA0833183828312
:102670008EE19802A00111244F5D594F20E030E017
:10268000FA01E20FF31FD901AE53BA4F1A968C919B
:1026900083832F5F3F4F2530310591F720E030E0F5
:1026A000FA01E20FF31FD901AE53BA4F1F968C9176
:1026B00080872F5F3F4F2031310591F7169FF00142
:1026C000179FF00D1124EF5DF94F158E9F5F9093CA
:1026D000E8058091C8059817ECF51092E70585CFBD
:1026E00020917105422F50E0149FF001159FF00DCD
:1026F0001124EF5DF94FA083318382838EE1289FFF
:10270000900111242F5D394F80E090E0F901E80F2E
:10271000F91FDC01AE53BA4F1A966C916383019690
:102720008530910599F780E090E0F901E80FF91FF5
:10273000DC01AE53BA4F1F966C91608701968031D1
:10274000910599F7149FF001159FF00D1124EF5D8D
:10275000F94F158EC1E049CF21E03CCF8C2FDF919E
:10276000CF911F910F91FF9008950F931F93CF93D7
:10277000C82F90916C01913061F018F09230C1F047
:102780005DC08FEF9FEF90937F0580937E0581E082
:102790000CC0C0910D016AE070E080E090E00E9402
:1027A000BE19CC2309F44AC082E080936C0146C074
:1027B000811102C011E001C010E181E60E94100CFD
:1027C00082E60E94100C86E40E94100C8DE40E94A8
:1027D000100C81E00E94100C812F0E94100C0E94AE
:1027E0005323CC23D9F001E216E0C0E0C11103C0AD
:1027F00086E593E004C0C83031F487E493E00E949A
:10280000BF210E945323C8010E94240C0E9453231D
:10281000CF5F025E1F4FC03149F70CC08091710538
:102820002EE1829FC00111248F5D994F0E94240CDC
:102830000E94532310926C0181E001C080E0CF918F
:102840001F910F9108952F923F924F925F926F9236
:102850007F928F929F92AF92BF92CF92DF92EF9230
:10286000FF920F931F93CF93DF9300D000D01F925E
:10287000CDB7DEB780E191E00E94111E898381E12E
:1028800091E00E94111E8A8382E191E00E94111E54
:102890008B8383E191E00E94111E8C8344E050E021
:1028A00065E371E0CE0101960E94CF2A892B09F0E1
:1028B00082C084E191E00E94111E823008F07BC04A
:1028C00085E191E00E94111E282F813108F020E15E
:1028D00001E216E082E2E82E86E0F82EAA24BB246C
:1028E000A01AB10A512C94E5492E30E3332E40E86A
:1028F000242E521609F45DC0480188E1880E911C0F
:1029000068013501EAEE6E1AEEEF7E0AC3018C0D06
:102910009D1D2D830E94111EF60181936F012D8153
:10292000E815F90599F7F8019081983308F498E3D0
:10293000913F08F090EFF8019083F70190819E3F5E
:102940000CF49EEF93300CF092E0F7019083EDE4ED
:10295000F5E180E090E0D801A80FB91F13963C91F3
:1029600013974491341708F0349113963C930196D1
:1029700035968530910579F780E090E0F801E80F11
:10298000F91F3085303310F4308603C035350CF034
:10299000408601968031910589F7F801228253948F
:1029A000025E1F4FFEE1EF0EF11C86E0A81AB1088F
:1029B000A0CF81E001C080E00F900F900F900F90AA
:1029C0000F90DF91CF911F910F91FF90EF90DF90CB
:1029D000CF90BF90AF909F908F907F906F905F90BF
:1029E0004F903F902F900895EF92FF920F931F9377
:1029F000CF93DF931F92CDB7DEB77C01FC0100813E
:102A00001181C80169830E942A2A6981681719F017
:102A1000C8010E94322AC7010F90DF91CF911F9108
:102A20000F91FF90EF9008951F920F920FB60F92A3
:102A300011242F938F939F93809100018150809355
:102A4000000187FF0CC021E0209300018091430129
:102A50009091440190589093CF00209345019F910D
:102A60008F912F910F900FBE0F901F901895CF92BE
:102A7000DF92EF92FF920F931F93DC015A96EC9135
:102A80005A9754968D919C915597EE2329F101E028
:102A900010E08230910514F400E010E021E030E015
:102AA0005696ED90FC905797F2E0EF16F10414F46F
:102AB00020E030E0020F131F012E000C220B330B1D
:102AC000EC5F04C0000F111F221F331FEA95D2F7DD
:102AD000400F511F621F731F0D911D912D913C914D
:102AE0001397400F511F621F731F1496CD90DD90F6
:102AF000ED90FC9017970C0D1D1D2E1D3F1D0D9385
:102B00001D932D933C931397E62FEF7767FF03C038
:102B100020E82E1BE22FF0E0EE53FD4F24911E968D
:102B2000EC911E97F0E0E20FF11D9F012227232B6D
:102B300011F0EFEFF0E0EE0FFF1FEE53FF4F259186
:102B4000349157969C938E93569770FF03C031959E
:102B50002195310955963C932E93549754968D9117
:102B60009C9155971F910F91FF90EF90DF90CF9020
:102B7000089540916801509169012091660130915A
:102B8000670142175307B4F49091E8009570E1F3A0
:102B90009091E80092FD19C08093F1008091680146
:102BA0009091690101968F739927892B19F48EEF03
:102BB0008093E8008091680190916901019690935B
:102BC00069018093680181E0089580E00895DF92B3
:102BD000EF92FF920F931F93CF93DF93D82E8A012A
:102BE0007B01E40EF51EEB01CE15DF0571F0D7FE7B
:102BF00003C0FE01849101C088810E94B91521960D
:102C00008111F2CF8FEF9FEF01C0C801DF91CF910B
:102C10001F910F91FF90EF90DF900895615030F079
:102C20002091F100FC0120830196F8CF289884E6DA
:102C300080936F010895CF92DF92EF92FF920F93EE
:102C40001F93CF93DF936C017A018B01C0E0D0E03A
:102C5000CE15DF0589F0D8016D918D01D601ED917A
:102C6000FC910190F081E02DC6010995892B11F4AA
:102C70007E0102C02196ECCFC701DF91CF911F9159
:102C80000F91FF90EF90DF90CF900895CF93DF9357
:102C90001F92CDB7DEB76983DC01ED91FC91028014
:102CA000F381E02D41E050E0BE016F5F7F4F099559
:102CB0000F90DF91CF91089583E08093E900809198
:102CC000F200882319F08AE38093E8000895FC015C
:102CD0008485958597FD0BC09FB7F89482E080931B
:102CE000E9008091F2009FBF90E0019608959FB7A0
:102CF000F89482E08093E9008091F2009FBF90E019
:102D000008953FB7F8948091620190916301A0917A
:102D10006401B091650126B5A89B05C02F3F19F04D
:102D20000196A11DB11D3FBFBA2FA92F982F88274B
:102D3000820F911DA11DB11DBC01CD0142E0660FA6
:102D4000771F881F991F4A95D1F708950E94CA2AB4
:102D50000F931F93CF93DF931F92CDB7DEB782E01F
:102D6000898342E450E068E57BE080E80E94E71553
:102D70000E94FB23DC0112960D911C911397011503
:102D8000110569F0D801ED91FC910280F381E02DED
:102D9000BE016F5F7F4FC801099597FF07C089810A
:102DA0000F90DF91CF911F910F910895F801008549
:102DB0001185E5CF0F931F93CF93DF931F92CDB76C
:102DC000DEB78C01FC018485958597FF0EC0CE018E
:102DD00001960E94D123019719F4298130E002C0A5
:102DE0002FEF3FEFF80135872487F801848595851B
:102DF0000F90DF91CF911F910F910895CF93DF93A3
:102E00001F92CDB7DEB7FC018485958597FD05C07F
:102E10002FEF3FEF358724870BC0CE0101960E942C
:102E2000D123019719F4898190E002C08FEF9FEFC1
:102E30000F90DF91CF9108951F920F920FB60F92CE
:102E400011248F939F938091E1009091E100937FF3
:102E50009093E10083FF0FC01092E90091E09093FE
:102E6000EB001092EC0092E39093ED001092700151
:102E700098E09093F00082FF20C093E09093E900E7
:102E80009091F200992319F09AE39093E8009091C1
:102E90006A01992339F090916A01915090936A01E7
:102EA000992389F190916F01992339F090916F01E5
:102EB000915090936F01992341F184FF10C080914C
:102EC000E2008E7E81608093E2008091E1008F7E3F
:102ED0008093E10080913F018E7E806111C080FF70
:102EE00016C08091E2008E7E80618093E200809126
:102EF000E1008E7E8093E10080913F018E7E8160B3
:102F000080933F0104C05D9ACDCF289AD6CF9F9180
:102F10008F910F900FBE0F901F9018951F920F92D8
:102F20000FB60F921124CF92DF92EF92FF920F9380
:102F30001F932F933F934F935F936F937F938F9341
:102F40009F93AF93BF93EF93FF93CF93DF93CDB74F
:102F5000DEB76C97DEBFCDBF1092E9008091E8002C
:102F600083FFEDC168E0CE0145960E940E1682EF08
:102F70008093E8008D8987FF05C09091E80090FF5D
:102F8000FCCF03C09EEF9093E800982F907609F055
:102F9000C6C09E892F89188D91110CC0803829F4E4
:102FA000809140018093F10002C01092F1001092D4
:102FB000F10048C1422F50E0512B913051F4811162
:102FC00041C14130510509F03DC1809140018D7FE3
:102FD0000BC0933061F4811135C14130510509F0C6
:102FE00031C1809140018260809340012BC19530B6
:102FF00041F48091E80080FFFCCF20682093E3003B
:1030000021C1963009F05FC0EB8CFC8C1092E90076
:103010001092690110926801123091F510926701C7
:10302000109266010E94A81699E0BE016F5F7F4F63
:10303000DB01E92F1D92EA95E9F799831A8391E064
:103040009E8390EA98879AEF998720916801309142
:103050006901275F3F4F3C832B838D831092E900EA
:103060001092690110926801F0926701E092660186
:1030700049E050E080E00E94E7150E94A816E2C0F7
:10308000F0926701E09266010E94FB23DC01129638
:10309000ED90FC901397E114F10409F4C0C0D7013E
:1030A000ED91FC910480F581E02DBE016B5E7F4FB8
:1030B000C7010995009719F00CF0C4C0C7C0F7010B
:1030C000E084F184E8CF973009F4C0C0983021F44F
:1030D00081E08093F100B6C0993009F0B3C08370ED
:1030E00009F0B4C0EFE0F1E081E021E036E3908147
:1030F000992361F08093E9002093EB0091919093E4
:10310000EC003093ED008F5F873089F78EE7809376
:10311000EA001092EA008F898093700193C08B8D32
:103120009C8D1092E90010926901109268019093B1
:10313000670180936601898D811156C08E899D89B2
:10314000913A59F4813209F081C047E050E066E0DD
:1031500071E080E00E94E71575C0913209F076C0F9
:10316000833289F4888D90E0982F88272F89822BCD
:10317000A0E0B0E08093020190930301A0930401CA
:10318000B09305015FC0803269F48091E80082FF4E
:10319000FCCF67E086E091E00E940E168BEF8093F3
:1031A000E80006C0823209F04DC08F8980930D017E
:1031B00080913E01882319F0EEEFFAE002C0E0E0D2
:1031C000F8E08091060190910701A0910801B0916B
:1031D0000901803B9440A105B10509F07BC08091B5
:1031E0000D0180FF93C076C00E94FB23DC01129684
:1031F0000D911C9113970115110541F1D801ED9125
:10320000FC910190F081E02DBE016B5E7F4FC80103
:103210000995811117C0F80100851185ECCF113097
:1032200009F44EC0133091F48F89882309F445C006
:10323000823081F440E860E18CEB9BE00E94C8287A
:10324000882321F08EEF8093E80079C081E280939B
:10325000EB0075C0813029F440E86BE080EB9BE027
:10326000EDCF833099F70E94FB23DC011296ED909D
:10327000FC9013978E010F5F1F4F6801E114F1045A
:1032800079F0D701ED91FC910680F781E02DB8012E
:10329000C7010995080F111DF701E084F184EECFF5
:1032A000D8011C92F60101900020E9F73197BF0187
:1032B0006C197D0940E0C601C1CF6AE97BE002C01C
:1032C0006EE97BE06115710509F2FB01449150E064
:1032D00080E840CF0FB6F894A8958091600088618F
:1032E00080936000109260000FBEA895EE3F2AE028
:1032F000F20739F08091FE0A9091FF0A9183808352
:10330000A1CF1092FF0A1092FE0A9CCFEE3F8AE0F6
:10331000F80731F0808191819093FF0A8093FE0A33
:1033200087E797E7918380839BE088E10FB6F89465
:10333000A895809360000FBE9093600083CF6C9639
:103340000FB6F894DEBF0FBECDBFDF91CF91FF91D6
:10335000EF91BF91AF919F918F917F916F915F910D
:103360004F913F912F911F910F91FF90EF90DF9020
:10337000CF900F900FBE0F901F9018958F929F9235
:10338000AF92BF92CF92DF92EF92FF926B017C01DE
:103390000E9481164B015C01C114D104E104F104C7
:1033A000F1F00E948116DC01CB0188199909AA0964
:1033B000BB09883E9340A105B10570F321E0C21A14
:1033C000D108E108F10888EE880E83E0981EA11C60
:1033D000B11CC114D104E104F10419F7DDCFFF9051
:1033E000EF90DF90CF90BF90AF909F908F90089517
:1033F0007F928F929F92AF92BF92CF92DF92EF9285
:10340000FF920F931F93CF93DF936C015B017A01BF
:1034100080910D01882309F46BC08091700188238D
:1034200009F466C080913F0180FF05C08091E000F3
:1034300082608093E000E70110E00AEF83E0982EBD
:1034400090E4792E2AE3822E209709F448C08FB7A2
:10345000F8949092E9009091E80095FF06C0909151
:10346000F200272D291B922F01C090E08FBF9111F0
:103470000AC0015009F43CC061E070E080E090E0D7
:103480000E94BE19E1CF292F30E0C217D3070CF4F8
:103490009C2F8FB7F8949092E9002091E80025FFC7
:1034A0001CC0292F30E0C21BD30BF501915020F036
:1034B00041914093F100FACFA20EB31E112319F0EF
:1034C0008092E80009C09091E80095FD06C08092C6
:1034D000E80011E0209709F010E08FBFB5CF11117F
:1034E000B6CF5D9884E680936A011E141F0444F0F1
:1034F00081E090E0F6019383828380E090E001C058
:10350000C701DF91CF911F910F91FF90EF90DF9056
:10351000CF90BF90AF909F908F907F9008951F9213
:103520000F920FB60F9211242F933F938F939F9377
:10353000AF93BF938091460190914701A0914801BC
:10354000B09149013091610123E0230F2D3720F420
:103550000196A11DB11D05C026E8230F0296A11DED
:10356000B11D209361018093460190934701A09380
:103570004801B09349018091620190916301A0914B
:103580006401B09165010196A11DB11D8093620196
:1035900090936301A0936401B0936501BF91AF91D3
:1035A0009F918F913F912F910F900FBE0F901F9081
:1035B00018952D9A0895BC0180E090E00C94BE19F6
:1035C0008FB12CB193B130E0209530952074332722
:1035D000A90123E0559547952A95E1F7292F30E079
:1035E000209530952071332735952795359527956A
:1035F000242B8095807F822B089583B7817F83BFA2
:1036000083B7816083BF889583B78E7F83BF08951A
:103610008EBD00000DB407FEFDCF0895FC01840FA0
:10362000911D18161906E4F5E038F105CCF5F7FF01
:1036300002C0E0E0F0E08138910514F080E890E00D
:10364000382F3E1BAB0177FF02C0495F5F4F83E01D
:10365000559547958A95E1F75695542F44275795E8
:103660004795E40FF51FEF58FE4F6770772781E00D
:1036700090E001C0880F6A95EAF7482F222349F0AD
:10368000213071F4315020F08081842B8193FACF66
:1036900008958095315020F0908198239193FACF2E
:1036A00008952F923F924F925F926F927F928F92E6
:1036B0009F92AF92BF92CF92DF92EF92FF920F93C1
:1036C0001F93CF93DF93CDB7DEB727970FB6F8944C
:1036D000DEBF0FBECDBF603871050CF06EC0403448
:1036E00051050CF06AC0FB0135E0C39EE00DF11DF1
:1036F00011241E161F060CF060C08C2C912CFA01B0
:1037000038E0C39EE00DF11D11241E161F060CF0BB
:1037100054C02C2CEA8209833A0145E0249F8001A1
:1037200011247F836E83085A194F30E0FC013496D0
:10373000FC83EB83F8015490353009F4512C53018C
:1037400088E0382E50FC02C04A8001C049804110F8
:103750000BC0FA814981F41307C056943A94A80C1F
:10376000B91C3110EFCF1DC0EE80FF808E2D9E81E1
:10377000891B821590F765018C2D8A19821568F4D2
:10378000242DA601B7018B819C813D830E94AF1D32
:103790005FEFC51AD50A3D81EFCF8FEFE81AF80A1F
:1037A000E5CF3F5FEE81FF81E80DF91DFF83EE83DA
:1037B0000F5F1F4F363009F0BDCF27960FB6F89434
:1037C000DEBF0FBECDBFDF91CF911F910F91FF9054
:1037D000EF90DF90CF90BF90AF909F908F907F90B1
:1037E0006F905F904F903F902F900895CF92EF92FF
:1037F0000F93CF93DF93EC016A3069F42C8D888DA1
:10380000998D38E0239F800D911D1124998F888F09
:103810001F8A1E8A2EC06D3061F1262F488D598D6A
:103820006E897F89CC8CEB8C0A8D0E94511B2C8D6C
:10383000422F50E08E899F8936E0239F800D911D95
:1038400011249F8B8E8B2D8D222399F06AEF6403B8
:103850009001659F300D112420583F4F28173907DC
:1038600044F4E881F9810190F081E02D6AE0CE0115
:10387000099581E090E0DF91CF910F91EF90CF908B
:10388000089508952F923F924F925F926F927F9288
:103890008F929F92AF92BF92CF92DF92EF92FF9260
:1038A0000F931F93CF93DF93CDB7DEB72D970FB64E
:1038B000F894DEBF0FBECDBFED82E22EF12C9C014D
:1038C0002E0D3F1D37FD32C1803891050CF02EC101
:1038D0009B01200F311D37FD29C1603471050CF0AB
:1038E00025C1DB0177FF04C0AA27BB27A61BB70BA6
:1038F000A770BB279B0177FF02C0295F3F4F13E0F2
:10390000359527951A95E1F777FF08C021503109C1
:1039100068E070E0FB01EA1BFB0BDF01E02FE6959E
:10392000E695E695CE2ED12C077019F0FFEFCF1A51
:10393000DF0AB9017695762F662777956795680F28
:10394000791F6F587E4F8601020F131F1987088752
:10395000C12CD12CF8E0AF2EB12C85010A1B1B0B1A
:103960001F830E83088519852017310709F4DEC0EF
:103970002830310509F4DAC02F3F1FEF31070CF46E
:10398000CAC08B0100581F4F1D870C874B013B019C
:103990002B011C011C830B831A8309831B861A8647
:1039A0000A851B850E151F050CF0B5C010E8211601
:1039B000310409F4B0C037FC89C02F3FEFEF3E0758
:1039C00009F4B0C00A851B850C0D1D1DFD81F13069
:1039D00079F4F801E40FF51FE491F0E08F010A2E6D
:1039E00001C0000F0A94EAF7F301B0800B2925C04B
:1039F000FD81F11114C0F801E40FF51FE491F0E02E
:103A00000A2E02C0EE0FFF1F0A94E2F78F01009505
:103A10001095F401A080B12C0A211B210EC0F801E1
:103A2000E40FF51FE491F0E08F010A2E01C0000FB2
:103A30000A94EAF7F201B0800B250083109709F48D
:103A400045C02730310509F441C00A851B850C0D9E
:103A50001D1DFD81F13089F4F801E40FF51FE4919B
:103A60000E2F10E00E8002C0159507950A94E2F71C
:103A7000EC85FD85B0800B2928C0FD81F11115C0B2
:103A8000F801E40FF51FE4910E2F10E00E8002C044
:103A9000159507950A94E2F700951095E981FA814A
:103AA000A080B12C0A211B2110C0F801E40FF51FE2
:103AB000E4910E2F10E00E8002C0159507950A9430
:103AC000E2F7EB81FC81B0800B2500830A851B8522
:103AD0000F5F1F4F1B870A870C851D850F5F1F4FC8
:103AE0001D870C8709811A810F5F1F4F1A83098375
:103AF0000B811C810F5F1F4F1C830B831FEF211A4B
:103B0000310AEFEF4E1A5E0AFFEF6F1A7F0A0FEFCE
:103B1000801A900A45CF2F5F3F4F60587F4FCE0CE1
:103B2000DF1C20CF109709F090CFD0CF2D960FB685
:103B3000F894DEBF0FBECDBFDF91CF911F910F91E3
:103B4000FF90EF90DF90CF90BF90AF909F908F90BD
:103B50007F906F905F904F903F902F9008956038C6
:103B60007105D0F440345105B8F4E5E4F5E180E1A5
:103B7000849FD001A0781124A60F4770E40FF11D97
:103B8000E491AF58BE4F222319F04C91E42B03C0AF
:103B9000E0954C91E423EC930895CF938091C30575
:103BA00020E18202C0011124C091C405C82B6C2FF2
:103BB00070E080E090E040E10E947E2183E495E1A6
:103BC0000E94BF212091C5053091C60524303105E2
:103BD000E9F01CF437FF0AC01BC025303105C1F4E1
:103BE000C093C8051092C70581E013C08C2F90E0E8
:103BF000F901EB5CFE4F4081042E000C550B84173D
:103C0000950731F081E08093C70503C0CC23D1F341
:103C100080E02F5F3F4F3093C6052093C505CF91BD
:103C200008950C942A2A4F925F926F927F928F92FE
:103C30009F92AF92BF92CF92DF92EF92FF920F933B
:103C40001F93CF93DF93C091710510926B01109277
:103C50006E0180914E0190914F018130910509F4E0
:103C60005EC08230910509F4A0C0892B09F030C1F3
:103C70000E94892310921A081092190810921808AD
:103C800010921708EE24E39400E420E845ED50E19B
:103C900060E070E080E090E00E94421C8091420170
:103CA00020E18202C00111248B5A9F4E0E94FE2205
:103CB0002DE4E22E25E1F22E8EE1C89F8001112431
:103CC000C0E0D0E06801E3E0CE0ED11CFE01E00FC1
:103CD000F11FEF5DF94FC6018C0F9D1F4381B701A6
:103CE0008F5D994F0E9494102196F5E0EF0EF11C24
:103CF000C530D10559F780914101DF91CF911F91D6
:103D00000F91FF90EF90DF90CF90BF90AF909F907A
:103D10008F907F906F905F904F900C94B2110E94A3
:103D2000892310921A0810921908109218081092FC
:103D30001708EE24E39400E420E845E55CE060E049
:103D400070E080E090E00E94421C80917105CEE11D
:103D5000C89FC00111248F5D994F0E94BA0F8091B6
:103D600071050E94390C80E00E94D20D809171058E
:103D7000C89FC00111248F5D994FFC01628D0E9484
:103D80001D0E80914D01DF91CF911F910F91FF90FA
:103D9000EF90DF90CF90BF90AF909F908F907F90EB
:103DA0006F905F904F900C94460F00E02EE34DE42F
:103DB00061E070E089E190E00E9402222CE34BE494
:103DC00062E070E08AE190E00E94022201E02AE3D2
:103DD00049E463E070E08BE190E00E94E021412C37
:103DE00005E010E094E5692E712C6801065F1F4F15
:103DF000542CCDE1D0E020E0A601BE0185E098E0A2
:103E00000E94AF1D5E01F1E1AF0EB11C20E0A601E2
:103E1000B50185E098E00E94AF1D20E0A801BE0139
:103E200085E098E00E94AF1D20E0A801B50185E083
:103E300098E00E94AF1D2EE1529E40011124E12C1A
:103E4000F12CF701E80DF91DEF5DF94F808587FD35
:103E500017C0A301481B510987FD539557FF02C0A6
:103E60004D5F5F4F55954795559547954C0D5D1D99
:103E700020E0B7016C0F7D1F85E098E00E94AF1D28
:103E80008FEFE81AF80AE0E1EE16F104D1F6539448
:103E9000E501C136D10509F0AECFF4E04F0E0D3289
:103EA000110509F0A2CF00E02CE044E460E370E0EB
:103EB0008DE190E00E94E021EE24E3940CE024E404
:103EC0004DEC5BE060E370E08DE190E00E94421C0D
:103ED000DF91CF911F910F91FF90EF90DF90CF90E6
:103EE000BF90AF909F908F907F906F905F904F901A
:103EF000089580914E0190914F018230910570F4A8
:103F000090934B0180934A0182E090E090934F019F
:103F100080934E0110926D010C94131E0895E0E5FC
:103F2000F1E08AE0DF011D928A95E9F780914E0168
:103F300090914F018130910569F01CF4892B39F083
:103F400008958230910559F0039771F0089581E04A
:103F500090E022C010924F0110924E0121C080913A
:103F60004A0190914B0118C00E9453236091C505EE
:103F70007091C605072E000C880B990B97FF03C0A4
:103F80000E94982303C04AE00E947E2188E295E1C6
:103F90000E94BF2182E090E090934F0180934E01F8
:103FA0000C94131E8F929F92AF92BF92CF92DF928A
:103FB000EF92FF920F931F93CF93DF9300D0CDB773
:103FC000DEB720914E0130914F012230310529F0AA
:103FD0002330310509F4EFC00DC190916D01953189
:103FE0006CF48091710591310CF048C09111B6C00C
:103FF0008F5F80936D010E94420D0EC1953109F0D3
:10400000ADC080E191E09A83898361E6CE0101969B
:104010000E94F41481E191E09A83898362E6CE01E3
:1040200001960E94F41482E191E09A83898366E408
:10403000CE0101960E94F41483E191E09A83898372
:104040006DE4CE0101960E94F41484E191E09A831C
:10405000898361E0CE0101960E94F41485E191E02C
:104060009A83898360E1CE0101960E94F41481E273
:10407000E82E86E0F82E00E010E04CC02EE1829F92
:10408000F0011124EF5DF94F158E23E030E03093FD
:104090004F0120934E0190934C0110926C0100E06F
:1040A00027E141E363E170E087E290E00E940222B1
:1040B00001E025E14FE264E170E088E290E00E94D7
:1040C000E02100E028E04DE168E170E081E390E06C
:1040D0000E94E021EE24E39408E02DE140EF54E15A
:1040E00068E170E081E390E00E94421C00E028E07B
:1040F0004BE160E270E082E390E00E94E02108E0A2
:104100002BE145ED54E160E270E082E390E00E9433
:10411000421C82C0570148E1A40EB11C6701C801CE
:104120008C5095404C01F60161916F01C4018E0FD6
:104130009F1F9A838983CE0101960E94F414CA14AA
:10414000DB0489F7FEE1EF0EF11C06501109003A7D
:104150002FEF1207F9F60E94231428C09150909374
:104160005A01E09171052EE12E9FF0011124EF5DBF
:10417000F94F358D892F90E031110FC030E1308F2C
:10418000148E138E31E0358F289FF001299FF00D9A
:104190001124EF5DF94F158E09C0289FF001299F6A
:1041A000F00D1124EF5DF94F81E0858F80914A0178
:1041B00090914B0118C00E9453236091C5057091E6
:1041C000C605072E000C880B990B97FF03C00E94B1
:1041D000982303C04AE00E947E218DE095E10E9471
:1041E000BF2182E090E090934F0180934E010E94A6
:1041F000131E12C0809171054EE1849FC0011124ED
:104200008F5D994FFC01558D41E04527458F213049
:10421000310511F40E94BA0F0F900F90DF91CF91EA
:104220001F910F91FF90EF90DF90CF90BF90AF90D4
:104230009F908F900895BC01009791F0FC01019030
:104240000020E9F73197AF01481B590BE091720547
:10425000F09173050280F381E02D82E795E00994E7
:1042600080E090E00895DF92EF92FF920F931F930A
:10427000CF93DF937C01D22E8B01040F111DEB0134
:1042800077FF0EC0C0E0D0E00BC0C417D5077CF4A8
:104290002D2DAE01B70185E098E00E94AF1D21965B
:1042A000A801013411058CF340E450E0EECFDF911A
:1042B000CF911F910F91FF90EF90DF90089590E0C4
:1042C000FC01EF5CF94E2491FC01EE5EF94E849105
:1042D000882399F090E0880F991FFC01EC5FF94E5C
:1042E000A591B491FC01EA50FA4E859194918FB753
:1042F000F894EC91E22BEC938FBF08958F929F92EC
:10430000AF92BF920F931F93CF93DF93CDB7DEB7DA
:10431000A1970FB6F894DEBF0FBECDBF19A24230F1
:1043200008F44AE08E010F5D1F4F842E912CA12CC2
:10433000B12CA50194010E945F2AE62FB901CA01A0
:1043400001501109EA3014F4E05D01C0E95CD801C4
:10435000EC93232B242B252B61F7C8010E941B21F2
:10436000A1960FB6F894DEBF0FBECDBFDF91CF91FF
:104370001F910F91BF90AF909F908F9008950F93D2
:104380001F93CF93DF938C01C0E0D0E0F801EC0FD6
:10439000FD1F6491662371F0E0917205F091730541
:1043A0000190F081E02D82E795E00995892B11F0CD
:1043B0002196ECCFCE01DF91CF911F910F910895FF
:1043C000CF92DF92EF92FF920F931F93CF93DF93E1
:1043D0006B01122FEC017C01E40EF11CCE15DF0500
:1043E00044F4202F412FB601CE010E9433212196A3
:1043F000F5CFDF91CF911F910F91FF90EF90DF905C
:10440000CF900895DF92EF92FF920F931F93CF9377
:10441000DF93EC017B01D42E122F6034710520F460
:10442000202FCE010E940E1BB701610F711D61503C
:1044300071096034710528F4202F4D2DCE010E94A2
:104440000E1B202F412FB701CE010E943321CE0138
:104450008D0D911D202F412FB7010197DF91CF9135
:104460001F910F91FF90EF90DF900C9433214F92AA
:104470005F926F927F929F92AF92BF92CF92DF92A4
:10448000EF92FF920F931F93CF93DF938C01DC0188
:1044900058968C91F801E80FF11D808587FD88C042
:1044A000C9EED5E0E12CF12C4CE0942E52E0A52E83
:1044B000B12C65E9462E55245394612C712CF801DA
:1044C000808DE80FF11DD80111969C918085999DF2
:1044D000800D1124E82F082E000CFF0BF595E795B1
:1044E000F595E795EA52FA4E45915491E42FEF7015
:1044F0008370E82BB8E0EB9FF0011124EA58FA4EE4
:1045000025913491F701E751FA4F6F01E38DF0E007
:10451000EA59FA4EA491B0E00E94812A552724E07E
:10452000559547952A95E1F7DC01CB0104C0880F2A
:10453000991FAA1FBB1F4A95D2F78C839D83AE8318
:10454000BF83188219821A821B82BD8AAC8AD60167
:1045500058968C9190E0A0E0B0E031E1880F991F6F
:10456000AA1FBB1F3A95D1F78C879D87AE87BF875F
:10457000F601818D811105C0188A198A1A8A1B8A51
:104580000DC0A301920104C0220F331F441F551F09
:104590008A95D2F7288B398B4A8B5B8B3CE1E30EF3
:1045A000F11C6C9648E3E416F10409F088CF16C0BC
:1045B0008F3FA1F480E090E0AFEFB0E08093F5058D
:1045C0009093F605A093F705B093F8058093110634
:1045D00090931206A0931306B0931406DF91CF9127
:1045E0001F910F91FF90EF90DF90CF90BF90AF9011
:1045F0009F907F906F905F904F900895CF92EF9231
:104600000F931F93CF93DF931FE0FC012491EC01E4
:104610002196222381F0612F70E0CC24C394EE24F4
:10462000E39400E045E050E081E098E00E94511BF7
:104630001A5FCE01EACFDF91CF911F910F91EF90DA
:10464000CF900895AF92BF92CF92EF920F931F93A6
:10465000CF93DF93C82F842FA62EB12CD0E06AE031
:104660000E94902A192F20E3280FCC24C394EE2413
:10467000E39400E0A501BE0181E098E00E94511B97
:1046800020E3210FBE016A5F7F4FA50181E098E022
:104690000E94511BDF91CF911F910F91EF90CF900E
:1046A000BF90AF9008958AE391E00C941B21CF93C3
:1046B000DF93A09171058EE1A89FD0011124AC5D1C
:1046C000B94FED01EDE4F5E184919881891710F47B
:1046D000849188832196359685E1E636F807A1F71F
:1046E0008C918093030611968C9111978093040608
:1046F00012968C9112978093010613968C911397C2
:104700008093020614968C9180931E06DF91CF91C0
:10471000089520E081E791E0B22FB111BFEFFC01D5
:104720000024B193B193B193B1930394D1F7089559
:10473000CF92DF92EF92FF92CF93DF936B017C01D8
:10474000E0917205F09173050190F081E02D6DE22A
:1047500082E795E00995EC0166277727CB016C1974
:104760007D098E099F094AE00E947E218C0F9D1FC2
:10477000DF91CF91FF90EF90DF90CF9008958091DF
:1047800071018EBDE2E7F1E081910DB407FEFDCF2E
:104790008EBD85E0E137F807B9F70DB407FEFDCF10
:1047A0000895FC0180917001811103C08FEF9FEF8C
:1047B00008959FB7F89482E08093E9002091F20079
:1047C00030E01216130614F421E030E02115310513
:1047D00059F0289884E680936F018091F1008083DE
:1047E0008091F200882319F09FBFC90108958BE6DC
:1047F0008093E800F9CF8091230881110DC082E0F9
:1048000080931F0884E08093200810922208109261
:10481000210881E0809323088FE198E00895CF93E9
:10482000DF9300D0CDB7DEB7789484B5826084BDC5
:1048300084B5816084BD85B5826085BD85B58160A4
:1048400085BD80916E00816080936E001092810022
:1048500080918100826080938100809181008160DD
:10486000809381008091800081608093800080919E
:10487000910082608093910080919100816080938B
:104880009100809190008160809390008091C100A0
:1048900084608093C1008091C10082608093C100D8
:1048A0008091C10081608093C1008091C3008160CC
:1048B0008093C3008091C00082608093C00080918B
:1048C000C20081608093C20080917A0084608093EE
:1048D0007A0080917A00826080937A0080917A00D9
:1048E000816080937A0080917A00806880937A005A
:1048F000109270011092400110923F018091D700F8
:1049000081608093D70080EA8093D80089B5806168
:1049100089BD89B5826089BD09B400FEFDCF61E023
:1049200070E080E090E00E94BE198091D8008F7CFA
:1049300080618093D8008091E000807F8093E000C8
:104940008091E1008E7E8093E1008DE08093E20013
:10495000559A209AEEEFFFE7859194918B3F9C4DFD
:1049600019F481E080933E0181EC80937C0085B155
:10497000806F85B9249884B1866E84B95E9A5F98F9
:104980008AB1806D8AB9769A6E9881B3806F81BB47
:10499000899880B38D7080BB80E58CBD81E08DBD32
:1049A00085E090E00E94DB1A5F9A85E090E00E942B
:1049B000DB1A5E985C9801E216E06DE0F62EF00ED0
:1049C000F80184910E94081B0F5F1F4FF012F8CF6F
:1049D0005C9A81E88093640081E08093650000E048
:1049E00014E080E00E94081B01501109D1F70E94D9
:1049F000E01A87FF10C05C9885EA0E94081B5C9A49
:104A00002E982F982D988091640080628093640086
:104A10000E94FD1AFDCF02E010E00E94E01A82FF22
:104A200042C02D980E94E01A84788438C9F00E9410
:104A3000E01A8471843191F50E94D91A88EC90E0D3
:104A40000E94DB1A2E981A83098360E0CE0101963A
:104A50000E94F41484EF91E00E94DB1A2E9A19C090
:104A60000E94D91A88EC90E00E94DB1A2F981A83D2
:104A700009836FEFCE0101960E94F41484EF91E058
:104A80000E94DB1A2F9A0E94E01A84788438D9F3A6
:104A9000CECF0E94E01A84718431D9F388EC90E083
:104AA0000E94DB1ABACF0E94D91A82E090E00E94DD
:104AB0002A2A882331F03E9A3F9A81E080935B0155
:104AC00004C010925B013E983F982E985EEEC52E72
:104AD000DD24DA940E94E01A86FF04C02E9A2F9AF1
:104AE0002D9A41C0FCEFCF16FFEFDF0619F42E9A86
:104AF0002F9806C028E1C216D10411F42F9A2D98E0
:104B00000E948923EE24E39400E128E541E755E083
:104B1000B60184E190E00E94421C0E94BF238BE119
:104B200090E00E94DB1A40EFC4164FEFD40621F448
:104B30008AEF90E00E94DB1A8FEFC81AD80AA9E129
:104B4000CA16D10439F68CEB92E00E94DB1A0E945F
:104B5000D91AE0910508F09106080190F081E02D46
:104B600085E098E0099582E390E00E94DB1A0E94BC
:104B7000E01A8111F8CF82E480930C0810924F0163
:104B800010924E018DE00E945F2185E00E945F211E
:104B90008091C100877F8093C1008091C1008B7F8D
:104BA0008093C1008091C1008D7F8093C10080916E
:104BB000C10081608093C1008091C00082608093B9
:104BC000C0008091C30081608093C3008091C300C6
:104BD0008D7F8093C3008091C0008F778093C00049
:104BE0008091C00080648093C000809172008460D6
:104BF00080937200CA9AEEE2F6E0E491E093030635
:104C0000EFE2F6E0E491E0930406E0E3F6E0E491FD
:104C1000E0930106E1E3F6E0E491E0930206E2E3CB
:104C2000F6E0E491E0931E0681E0809341018093D9
:104C30004D0110924201E0E5F1E08AE0DF011D92B2
:104C40008A95E9F70E94E01A83FF03C00E94520C84
:104C500004C00E9423148823C9F31092710581E0D7
:104C600080933E060E94131E80E00E94DC100E948A
:104C7000BF239EE1F92E20E7222E2CE4322E412C78
:104C8000512C30E0C32E30E0D32EEE24E394812C5F
:104C9000912C5401AA9480914501882309F45BC2A8
:104CA00080915C0190915D01909344018093430158
:104CB000109245018091010181508093010187FF8D
:104CC0006BC0BFE0B09301014091F5055091F6052E
:104CD0006091F7057091F80541155105EFEF6E07EA
:104CE000710530F58091F9059091FA05A091FB05C9
:104CF000B091FC05840F951FA61FB71FAC01BD0125
:104D0000442755276627452B462B472B49F480938C
:104D1000F5059093F605A093F705B093F80508C044
:104D20008092F5059092F605A092F705B092F805ED
:104D3000409111065091120660911306709114066D
:104D400041155105FFEF6F07710530F5809115068C
:104D500090911606A0911706B0911806840F951F22
:104D6000A61FB71FAC01BD01442755276627452B59
:104D7000462B472B49F48093110690931206A0937B
:104D80001306B093140608C0809211069092120682
:104D9000A0921306B092140640E050E0BA0189EEEA
:104DA00095E00E943715AC01990F660B770B8CE0EC
:104DB000440F551F661F771F8A95D1F785E096E04F
:104DC0000E94371590935D0180935C0120917105DD
:104DD000F29E800111240F5D194FD8015D968C91D0
:104DE0005D978823E1F15B968D919C915C9701978B
:104DF0005C969C938E935B9797FF31C058968C91ED
:104E0000803128F5C8010E943722F801208130E066
:104E100040E050E0C201B1010E94402A2F5F3F4FA5
:104E2000F8E1F29FC001F39F900D11240197D80182
:104E30005C969C938E935B9758968C91589791E0D3
:104E4000980F58969C93589759968C9308C08091C8
:104E50005A01281387C1F801108E148E138E2FB7B4
:104E6000F8948091460190914701A0914801B0913A
:104E700049012FBF40911108509112086091130809
:104E80007091140820911508222341F020910D08FB
:104E9000821B80931608109215085DC18417950730
:104EA000A607B70738F4481B423008F454C10E94E3
:104EB000FD1A51C1E092150880930D0890930E08D9
:104EC000A0930F08B093100820910C08820F911D39
:104ED000A11DB11D8093110890931208A09313088F
:104EE000B093140880910808909109080196909356
:104EF00009088093080880915E01882321F00E94B0
:104F0000BF2310925E010EE811E1980140E866E5CA
:104F100071E080E591E00E94F70C90915E01892B91
:104F200080935E0100E711E1980140E167E571E0DF
:104F300081E591E00E94F70C90915E01892B8093AE
:104F40005E010AE012E1980140E260E070E082E573
:104F500091E00E94F70C90915E01892B80935E0195
:104F60000AEE11E1980140E460E070E083E591E031
:104F70000E94F70C90915E01892B80935E0109E7F6
:104F80001FE122ED3FE148E068E571E084E591E052
:104F90000E94F70C90915E01892B80935E010FE8CF
:104FA0001FE1980144E060E070E085E591E00E9437
:104FB000F70C90915E01892B80935E0180914E01E8
:104FC00090914F0181309105C1F18330910509F431
:104FD0008CC0892B09F0BFC080916001882309F43F
:104FE000BAC00DE415E1612C712C80915F01F301D1
:104FF000F89EE00DF11D1124EF5DF94F40E0B8017E
:1050000083810E94DE0F80917105F301F89EE00D0F
:10501000F11D1124EF5DF94F41E0B80183810E9439
:10502000DE0FBFEF6B1A7B0A0B5F1F4FE5E06E16BA
:105030007104D9F61092600176C0E0917105FE9E70
:10504000F0011124EF5DF94F918D808D981709F4CF
:1050500082C0628DCF010E941D0E80916001882365
:1050600061F110915F01F19EF0011124CF018F5D7C
:10507000994FDC015A966C910E941D0E809171052A
:10508000181739F0812F0E94390C809171050E9408
:10509000390C1092600180E00E94D20D8091710560
:1050A000F89EC00111248F5D994FFC01628D0E9412
:1050B0001D0E80914D010E94460F80917105F89E52
:1050C000C00111248F5D994FDC0159966C910E94AB
:1050D0001D0EE0917105FE9EF0011124EF5DF94F68
:1050E000818D828F808D818F1EC080914C01823195
:1050F00059F024F4813179F580E007C08331B1F0B3
:10510000843149F581E013C081E00E94B513882302
:1051100011F180914A0190914B0190934F0180933E
:105120004E010E94131EE0925E0115C080E00E94B5
:105130002C12882381F000914A0110914B011093A9
:105140004F0100934E010E94131EE0925E01012B5D
:1051500011F00E945723C114D10409F49CCD0E9480
:10516000000099CDE092600120935F01D8015D9627
:105170001C925D97F89EF0011124EF5DF94F108E9F
:1051800059969C91918F809371050E94572367CE09
:10519000CF92DF92EF92FF920F931F93CF93DF9303
:1051A0001F92CDB7DEB7182F062FE42E862F880F5B
:1051B0008E5F99830E94B91583E00E94B915F12E84
:1051C000C12E9981D92E8C2D8F19801798F4F60154
:1051D000E7FE02C0849101C080810E94B915182F9A
:1051E00080E00E94B9158123FFEFCF1ADF0A8111F9
:1051F000EACF01C081E00F90DF91CF911F910F9115
:10520000FF90EF90DF90CF90089504970C940829B9
:105210000F931F93CF93DF938C0181E090E00E9466
:105220002A2A80FF31C08AE090E00E942A2A9FEF5C
:10523000980F9E3F48F522E330E0D80157963C9303
:105240002E93569728E330E059963C932E93589727
:10525000CBE0D0E0D801ED91FC910190F081E02D00
:10526000682FC8010995CE010E942A2A2196C131D2
:10527000D10581F70E94BF2388EE93E0DF91CF91A3
:105280001F910F910C94DB1ADF91CF911F910F9119
:105290000895CF93DF93109275051092740588EEF0
:1052A00093E0A0E0B0E08093760590937705A0931B
:1052B0007805B093790589E191E090937305809327
:1052C00072058FEF9FEF90937F0580937E0510927C
:1052D00004081092030810920A0810920B0820E1AB
:1052E00020930C08909309088093080810921108E5
:1052F00010921208109213081092140810921508B8
:1053000089E291E0909302088093010883E391E0A1
:1053100090930608809305081092180810921708B9
:1053200010921A081092190881E080931B081092BD
:105330001C0880931D0810921E08A1E2B6E0EEE35F
:10534000F6E028E790E82C93EF016C9718822196FD
:1053500098836696188221961882219618825C9608
:105360001C921E925B9780835E967E9638E0A130F9
:10537000B30749F7E9EEF5E080E090E021E0108224
:10538000118212821382148615861686178614825D
:10539000158216821782108A118A128A138A158A38
:1053A000148A178A168ADC01A751BA4F5B962C9390
:1053B0005B9759961C92599758961C9258975A96F3
:1053C0001C924C967C9688339105C9F688E78093A9
:1053D000C9051092CA0580E88093CB051092E105BB
:1053E0001092E2051092E3051092E5051092E40593
:1053F00081E08093E605EBE2F8E080E090E021E0D8
:1054000010821182128213821486158616861786E0
:105410001482158216821782108A118A128A138AC0
:10542000158A148A178A168ADC01A55DB74F5B9628
:105430002C935B9759961C92599758961C925897A3
:105440005A961C924C967C9688339105C9F6DF914A
:10545000CF910895F999FECF92BD81BDF89A992711
:1054600080B50895262FF999FECF1FBA92BD81BD50
:1054700020BD0FB6F894FA9AF99A0FBE01960895D6
:10548000052E97FB1EF400940E94572A57FD07D063
:105490000E945F2A07FC03D04EF40C94572A5095C3
:1054A0004095309521953F4F4F4F5F4F0895909510
:1054B0008095709561957F4F8F4F9F4F0895A1E222
:1054C0001A2EAA1BBB1BFD010DC0AA1FBB1FEE1F7E
:1054D000FF1FA217B307E407F50720F0A21BB30BC9
:1054E000E40BF50B661F771F881F991F1A9469F745
:1054F00060957095809590959B01AC01BD01CF01A1
:105500000895A29FB001B39FC001A39F700D811D9C
:105510001124911DB29F700D811D1124911D0895BC
:10552000991B79E004C0991F961708F0961B881FF5
:105530007A95C9F78095089597FB072E16F4009485
:1055400007D077FD09D00E94B62A07FC05D03EF4AB
:10555000909581959F4F0895709561957F4F08951F
:10556000EE0FFF1F0590F491E02D0994AA1BBB1BC1
:1055700051E107C0AA1FBB1FA617B70710F0A61B53
:10558000B70B881F991F5A95A9F780959095BC0174
:10559000CD01089581E090E0F8940C94DC2AFB01A1
:1055A000DC0104C08D910190801921F441505040DC
:0C55B000C8F7881B990B0895F894FFCFF2
:1055BC00010FFFFFFFFF00E100000000000000C131
:1055CC008081000000000000004616F8196716FEE6
:1055DC0016DA165C1600000000F61B1B160829FCD8
:0E55EC00FF000005296162464D000D0A000017
:00000001FF
