:100000000C942D080C9455080C9455080C94550824
:100010000C9455080C9455080C9455080C945508EC
:100020000C9455080C9455080C9429120C949B12AE
:100030000C9455080C9455080C9455080C945508CC
:100040000C9455080C9455080C9455080C945508BC
:100050000C9455080C9455080C9455080C94B3094D
:100060000C9455080C9455080C9455080C9455089C
:100070000C9455080C9455080C9455080C9455088C
:100080000C94650D0C9455080C9455080C94550867
:100090000C9455080C9455080C9455080C9455086C
:1000A0000C9455080C9455080C945508F0F89C8E47
:1000B0008783878E9CF8F00000FEFF030303030391
:1000C000070EFCF80000FEFF0303030303070EFC0A
:1000D000F80000FFFF00000000000000FFFF00002C
:1000E000FEFF8383838383C7EE7C380000F8FC0E19
:1000F00007030303070EFCF800003F7FE0C0808089
:10010000C0E07F3FFFFF01010101010101FFFF008E
:1001100000FFFF0C0C0C0C1C3E77E3C100007FFFBE
:10012000C0C0C0C0C0E0703F1F00001F3F70E0C0F3
:10013000C0C0E0703F1F00007FFFC1C1C1C1C1E36B
:10014000773E1C00001F3F70E0C0C0C0E0703F1F42
:10015000000000000001FFFF01000000D5F08D1439
:10016000A1C881CFD9F1AF200026016400F7006457
:1001700000A50064005700960000804A0164005DFD
:100180000164000B02FA0000800E0A60F0F8FCFE29
:10019000FEFFFFFFFFFEFCF8400000010303030326
:1001A00003030301010000100850F6A6F656F6A658
:1001B000F050F6A6F656F6A6F05D016400B801967A
:1001C0000000805D016400880164005D01640088B6
:1001D0000164005D01640088016400EE01C8000054
:1001E000805D016400EE0164000B029600BA02C853
:1001F0000000805D016400B80196004B02C8000059
:1002000080FFFFFFFFFFFFFFFFFFFFFFFFFFFFFF7D
:10021000FFFFFFFFFFFFFFFFFFFFFFFFFFFFFFFFEE
:10022000FFFFFFFFFFFFFFFFFFFFFFFFFFFFFFFFDE
:10023000FFFFFFFFFFFFFFFFFFFFFFFFFFFFFFFFCE
:10024000FF3F3F3F3F3F3F3F3F3F3F3F3F3F3F3FFE
:100250003F0000000000000000000000000000005F
:10026000000000000000000000000000000000008E
:1002700000C0C0C0C0C0C0C0C0C0C0C0C0C0C0C03E
:10028000C0FFFFFFFFFFFFFFFFFFFFFFFFFFFFFFBD
:10029000FFFFFFFFFFFFFFFFFFFFFFFFFFFFFFFF6E
:1002A000FFFFFFFFFFFFFFFFFFFFFFFFFFFFFFFF5E
:1002B000FFFFFFFFFFFFFFFFFFFFFFFFFFFFFFFF4E
:1002C000FF0F0F0F0F0F0F0F0F0F0F0F0F0F0F0F4E
:1002D0000F10640000FFFFFFFFFFFFFFFFFFFF00A5
:1002E000FF00000000FFFFFFFFFFFFFFFFFFFF0019
:1002F000FF00000000FFFFFFFFFFFFFFFFFFFF0009
:10030000FF00000000FFFFFFFFFFFFFFFFFFFF00F8
:10031000FF00003C3C3F3F3F3F3F3F3F3F3F3F30C0
:1003200037243C0000000000000000000000000036
:1003300000000000000000000000000000000000BD
:10034000000000C0C0C0C0C0C0C0C0C0C0C0C0C0ED
:10035000C040C00303FFFFFFFFFFFFFFFFFFFF00E1
:10036000FE02030000FFFFFFFFFFFFFFFFFFFF0094
:10037000FF00000000FFFFFFFFFFFFFFFFFFFF0088
:10038000FF00000000FFFFFFFFFFFFFFFFFFFF0078
:10039000FF000000000F0F0F0F0F0F0F0F0F0F00C8
:1003A0000F00001064FFFFFFFFFFFFFFFFFFFFFFD5
:1003B000FFFFFFFFFFFFFFFFFFFFFFFFFFFFFFFF4D
:1003C000FFFFFFFFFFFFFFFFFFFFFFFFFFFFFFFF3D
:1003D000FFFFFFFFFFFFFFFFFFFFFFFFFFFFFFFF2D
:1003E000FFFFFFFFFF0F0F0F0F0F0F0F0F0F0F0F6D
:1003F0000F0F0F0F0F0000000000000000000000B2
:1004000000000000000000000000000000000000EC
:1004100000000000000000000000000000000000DC
:100420000000000000FFFFFFFFFFFFFFFFFFFFFFD7
:10043000FFFFFFFFFFFFFFFFFFFFFFFFFFFFFFFFCC
:10044000FFFFFFFFFFFFFFFFFFFFFFFFFFFFFFFFBC
:10045000FFFFFFFFFFFFFFFFFFFFFFFFFFFFFFFFAC
:10046000FFFFFFFFFF0F0F0F0F0F0F0F0F0F0F0FEC
:100470000F0F0F0F0F10640000FFFFFFFFFFFFFFC4
:10048000FFFFFF00FF00000000FFFFFFFFFFFFFF77
:10049000FFFFFF00FF00000000FFFFFFFFFFFFFF67
:1004A000FFFFFF00FF00000000FFFFFFFFFFFFFF57
:1004B000FFFFFF00FF00000F0F0F0F0F0F0F0F0FB9
:1004C0000F0F0F0C0D090F000000000000000000CE
:1004D000000000000000000000000000000000001C
:1004E000000000000000000000000000000000000C
:1004F000000000000000000F0FFFFFFFFFFFFFFFE5
:10050000FFFFFF03FB090F0000FFFFFFFFFFFFFFDF
:10051000FFFFFF00FF00000000FFFFFFFFFFFFFFE6
:10052000FFFFFF00FF00000000FFFFFFFFFFFFFFD6
:10053000FFFFFF00FF000000000F0F0F0F0F0F0F56
:100540000F0F0F000F00001064FFFFFFFFFFFFFF02
:10055000FFFFFFFFFFFFFFFFFFFFFFFFFFFFFFFFAB
:10056000FFFFFFFFFFFFFFFFFFFFFFFFFFFFFFFF9B
:10057000FFFFFFFFFFFFFFFFFFFFFFFFFFFFFFFF8B
:10058000FFFFFFFFFFFFFFFFFF030303030303035F
:100590000303030303030303030000000000000040
:1005A000000000000000000000000000000000004B
:1005B000000000000000000000000000000000003B
:1005C000000000000000000000FCFCFCFCFCFCFC47
:1005D000FCFCFCFCFCFCFCFCFCFFFFFFFFFFFFFF46
:1005E000FFFFFFFFFFFFFFFFFFFFFFFFFFFFFFFF1B
:1005F000FFFFFFFFFFFFFFFFFFFFFFFFFFFFFFFF0B
:10060000FFFFFFFFFFFFFFFFFF0F0F0F0F0F0F0F8A
:100610000F0F0F0F0F0F0F0F0F10640000FFFFFFE2
:10062000FFFFFFFFFFFFFF00FF00000000FFFFFFD5
:10063000FFFFFFFFFFFFFF00FF00000000FFFFFFC5
:10064000FFFFFFFFFFFFFF00FF0000C0C0FFFFFF35
:10065000FFFFFFFFFFFFFF007F40C0030303030313
:10066000030303030303030303020300000000006A
:10067000000000000000000000000000000000007A
:10068000000000000000000000000000000000006A
:1006900000000000000000000000003C3CFCFCFCEE
:1006A000FCFCFCFCFCFCFC0CEC243C0000FFFFFF11
:1006B000FFFFFFFFFFFFFF00FF00000000FFFFFF45
:1006C000FFFFFFFFFFFFFF00FF00000000FFFFFF35
:1006D000FFFFFFFFFFFFFF00FF000000000F0F0FF5
:1006E0000F0F0F0F0F0F0F000F00001064FFFFFF21
:1006F000FFFFFFFFFFFFFFFFFFFFFFFFFFFFFFFF0A
:10070000FFFFFFFFFFFFFFFFFFFFFFFFFFFFFFFFF9
:10071000FFFFFFFFFFFFFFFFFFFFFFFFFFFFFFFFE9
:10072000FFFFFFFFFFFFFFFFFFFFFFFFFF000000D6
:1007300000000000000000000000000000000000B9
:1007400000000000000000000000000000000000A9
:100750000000000000000000000000000000000099
:1007600000000000000000000000000000F0F0F0B9
:10077000F0F0F0F0F0F0F0F0F0F0F0F0F0FFFFFF4C
:10078000FFFFFFFFFFFFFFFFFFFFFFFFFFFFFFFF79
:10079000FFFFFFFFFFFFFFFFFFFFFFFFFFFFFFFF69
:1007A000FFFFFFFFFFFFFFFFFFFFFFFFFF0F0F0F29
:1007B0000F0F0F0F0F0F0F0F0F0F0F0F0F10640002
:1007C00000FFFFFFFFFFFFFFFFFFFF00FF00000034
:1007D00000FFFFFFFFFFFFFFFFFFFF00FF00000024
:1007E00000FFFFFFFFFFFFFFFFFFFF00FF0000F024
:1007F000F0FFFFFFFFFFFFFFFFFFFFC0DF90F000F4
:1008000000000000000000000000000000000000E8
:1008100000000000000000000000000000000000D8
:1008200000000000000000000000000000000000C8
:10083000000000000000000000000000000000F0C8
:10084000F0F0F0F0F0F0F0F0F0F0F030B090F000F8
:1008500000FFFFFFFFFFFFFFFFFFFF00FF000000A3
:1008600000FFFFFFFFFFFFFFFFFFFF00FF00000093
:1008700000FFFFFFFFFFFFFFFFFFFF00FF00000083
:10088000000F0F0F0F0F0F0F0F0F0F000F0000AF14
:1008900000960000800E0A609028546A7ABDFDFD23
:1008A000253A04B8400000010202020202020201DD
:1008B0000100000E0A60902894BABABDFDFD253AE9
:1008C00004B840000001020202020202020101001B
:1008D000000E0A609028E4EADABDFDFD253A04B86E
:1008E000400000010202020202020201010000FEB9
:1008F00000FFFFFFC7D707F0FFFF0000FEFFFFC7A5
:10090000C7FFFE00FFFFFFC7C7FFFFFE00FFC7C70F
:10091000FFFFFE007FFFE0E0FFFF7F000000000020
:10092000000000000000000000003F202F2F0F01FA
:100930001D30272F2F2E2E0E20EF01F1F7F77077A5
:1009400077F7F1E505F1F4F607F1F5F57170F0F6DA
:10095000E007EFE0F07070F0F0E000F0F0F000F091
:10096000F0F0707070000000000000000000000057
:1009700000000000FF00FFFFFFCECECEFFFFFF0014
:10098000FFFFFF00FFFFFF7CFCDF9F0F00FFFFFF6B
:10099000C0C0FFFFFF00FFFFFF00FFFFFFCECECE76
:1009A0000000000000000000000000000000000740
:1009B00004050505050505050104040505010405F3
:1009C00005010404050104040505050505050104E8
:1009D0000405050104050505050501000000F010EA
:1009E000D0D010D0D010D0D010F00000000000C047
:1009F00040404040404040C00000000000F808680F
:100A000008086808F820E00000000000000000F876
:100A10000868680808686808F80000800000FF009F
:100A2000DDDD00DDDD00DDDD00FF0000000000FF9A
:100A300000333333333300FF0868686808FF00DB96
:100A40000000DB00FF00FF0000808080808080FFCE
:100A50000066E680806666407F808000834C3F2091
:100A60001D1D103D3D508D050403028281818101D1
:100A7000018383879BE3900F080707070407040699
:100A80000830F6201F080F08103FC02A904A242380
:100A90001111102020408000000000010000000023
:100AA000000000000000000304020100000C02012D
:100AB000010000000000000106000000000000002E
:100AC000000000000000000000000007000000001F
:100AD0000000000000000100000000000000000015
:100AE0003E5B4F5B3E3E6B4F6B3E1C3E7C3E1C189C
:100AF0003C7E3C181C577D571C1C5E7F5E1C0018FA
:100B00003C1800FFE7C3E7FF0018241800FFE7DBED
:100B1000E7FF30483A060E2629792926407F050549
:100B200007407F05253F5A3CE73C5A7F3E1C1C0886
:100B3000081C1C3E7F14227F22145F5F005F5F064B
:100B4000097F017F006689956A606060606094A299
:100B5000FFA29408047E040810207E201008082AB2
:100B60001C08081C2A08081E101010100C1E0C1E51
:100B70000C30383E3830060E3E0E060000000000F5
:100B800000005F00000007000700147F147F14249A
:100B90002A7F2A122313086462364956205000081F
:100BA000070300001C2241000041221C002A1C7F78
:100BB0001C2A08083E080800807030000808080851
:100BC00008000060600020100804023E5149453EC4
:100BD00000427F400072494949462141494D33183E
:100BE00014127F1027454545393C4A494931412176
:100BF0001109073649494936464949291E0000145A
:100C000000000040340000000814224114141414A1
:100C100014004122140802015909063E415D594E53
:100C20007C1211127C7F494949363E414141227F65
:100C30004141413E7F494949417F090909013E41FE
:100C40004151737F0808087F00417F4100204041E7
:100C50003F017F081422417F404040407F021C0238
:100C60007F7F0408107F3E4141413E7F090909060C
:100C70003E4151215E7F09192946264949493203DF
:100C8000017F01033F4040403F1F2040201F3F4065
:100C900038403F631408146303047804036159491E
:100CA0004D43007F41414102040810200041414171
:100CB0007F04020102044040404040000307080056
:100CC00020545478407F28444438384444442838D9
:100CD0004444287F385454541800087E090218A44C
:100CE000A49C787F0804047800447D4000204040A4
:100CF0003D007F1028440000417F40007C047804C0
:100D0000787C080404783844444438FC18242418B7
:100D100018242418FC7C080404084854545424045F
:100D2000043F44243C4040207C1C2040201C3C408C
:100D300030403C44281028444C9090907C446454AB
:100D40004C4400083641000000770000004136089E
:100D50000002010204023C2623263C1EA1A16112CE
:100D60003A4040207A3854545559215555794121FB
:100D700054547841215554784020545579400C1EE4
:100D8000527212395555555939545454593955548C
:100D900054580000457C410002457D420001457CDD
:100DA00040F0292429F0F0282528F07C54554500EE
:100DB0002054547C547C0A097F49324949493232D3
:100DC00048484832324A4848303A4141217A3A420A
:100DD000402078009DA0A07D39444444393D4040E6
:100DE000403D3C24FF2424487E4943662B2FFC2FA2
:100DF0002BFF0929F620C0887E090320545479412D
:100E00000000447D413048484A32384040227A0050
:100E10007A0A0A727D0D19317D2629292F28262963
:100E200029292630484D40203808080808080808B5
:100E300008382F10C8ACBA2F102834FA00007B00F5
:100E40000008142A142222142A140895002200955E
:100E5000AA005500AAAA55AA55AA000000FF001032
:100E60001010FF00141414FF001010FF00FF1010EA
:100E7000F010F0141414FC001414F700FF0000FF2D
:100E800000FF1414F404FC141417101F10101F108A
:100E90001F1414141F00101010F0000000001F1089
:100EA0001010101F10101010F010000000FF101094
:100EB00010101010101010FF10000000FF140000A0
:100EC000FF00FF00001F10170000FC04F4141417AB
:100ED00010171414F404F40000FF00F71414141491
:100EE000141414F700F7141414171410101F101F03
:100EF000141414F4141010F010F000001F101F0050
:100F000000001F14000000FC140000F010F010108E
:100F1000FF10FF141414FF141010101F0000000025
:100F2000F010FFFFFFFFFFF0F0F0F0F0FFFFFF0019
:100F300000000000FFFF0F0F0F0F0F38444438442C
:100F40007C2A2A3E147E02020606027E027E02638C
:100F5000554941633844443C04407E201E2006022B
:100F60007E020299A5E7A5991C2A492A1C4C720108
:100F7000724C304A4D4D303048784830BC625A4649
:100F80003D3E494949007E0101017E2A2A2A2A2A3A
:100F900044445F444440514A444040444A51400024
:100FA00000FF0103E080FF000008086B6B083612A9
:100FB000362436060F090F0600001818000000102E
:100FC00010003040FF0101001F01011E00191D1714
:100FD00012003C3C3C3C00000000000102040810F0
:100FE000204080080B0002020201000904000001F9
:100FF000020200000524001001052401010104245F
:1010000002060524060001070581031000400904BB
:101010000100020A00000007050202400000070567
:1010200083024000000403090412010002EF0201E0
:101030004041233680000101020301417264756959
:101040006E6F204C4C430041726475696E6F204C8A
:10105000656F6E6172646F000A1C11241FBECFEFB2
:10106000DAE0DEBFCDBF11E0A0E0B1E0ECE2FBE3EF
:1010700002C005900D92A43FB107D9F726E0A4EF76
:10108000B1E001C01D92A73DB207E1F718E0CDE243
:10109000D8E004C02197FE010E94891DCC32D107FF
:1010A000C9F70E94CB140C94941D0C940000CF92AD
:1010B000DF92EF92FF920F931F93CF93DF936C0118
:1010C0007A018B01C0E0D0E0CE15DF0589F0D801B0
:1010D0006D918D01D601ED91FC910190F081E02D93
:1010E000C6010995892B11F47E0102C02196ECCF2F
:1010F000C701DF91CF911F910F91FF90EF90DF908B
:10110000CF9008953FB7F89480913F0290914002AC
:10111000A0914102B091420226B5A89B05C02F3F85
:1011200019F00196A11DB11D3FBFBA2FA92F982F0D
:101130008827820F911DA11DB11DBC01CD0142E088
:10114000660F771F881F991F4A95D1F708958091E0
:10115000F40108950895089580E090E00895809145
:101160003702E0913502F0913602882349F0CF0131
:10117000029690933602809335028591949108955A
:10118000CF0102969093360280933502808191813F
:101190000895CF92DF92EF92FF920F931F93CF9318
:1011A000DF930E94AF08811520E8920761F48091D7
:1011B00071008D7F8093710010929100469847983E
:1011C000109234028BC021E020933402813020E859
:1011D000920751F48091320290913302909336023B
:1011E000809335020E94AF0897FD05C0209131021F
:1011F000222309F43FC02091300221113BC021E09D
:1012000020933802EC01DF77209769F481E0809326
:10121000390246983FE9C32E3FE0D32EE12CF12C52
:10122000CAEFD0E014C08E0120E030E060E472E448
:101230008FE090E0A90198010E94FE1C69017A01EB
:1012400081E0C81AD108E108F10810923902E09152
:101250004706F09148060995811103C081E080930B
:101260003902809138028823B9F1809139028111C5
:1012700033C003C010923802C5CF46992DC0479A9B
:101280000E94AF08009771F09C01DE010E94521D80
:10129000DC01CB0129E0B595A795979587952A950F
:1012A000D1F703C08FEF9FEFDC01109290002AE08E
:1012B00020939100D0929900C092980080933A02B6
:1012C00090933B02A0933C02B0933D028091710049
:1012D00082608093710002C04798D2CFDF91CF9196
:1012E0001F910F91FF90EF90DF90CF9008950E9493
:1012F0008F1D8F929F92AF92BF92CF92DF92EF920B
:10130000FF926B017C010E9482084B015C01C114B9
:10131000D104E104F104F1F00E948208DC01CB0168
:1013200088199909AA09BB09883E9340A105B1050E
:1013300070F321E0C21AD108E108F10888EE880EA6
:1013400083E0981EA11CB11CC114D104E104F10476
:1013500019F7DDCFFF90EF90DF90CF90BF90AF9067
:101360009F908F9008951F920F920FB60F921124A5
:101370002F933F938F939F93AF93BF938091F501EA
:101380009091F601A091F701B091F80130913E02E1
:1013900023E0230F2D3720F40196A11DB11D05C0B8
:1013A00026E8230F0296A11DB11D20933E028093D3
:1013B000F5019093F601A093F701B093F8018091A5
:1013C0003F0290914002A0914102B09142020196E9
:1013D000A11DB11D80933F0290934002A093410252
:1013E000B0934202BF91AF919F918F913F912F9106
:1013F0000F900FBE0F901F9018954F925F926F92B3
:101400007F928F929F92AF92BF92CF92DF92EF9294
:10141000FF920F931F93CF93DF9300D000D0CDB7EF
:10142000DEB749012C2DA02EB12CDC01AA0DBB1D6D
:101430001A161B060CF0B3C1803891050CF0AFC131
:10144000FB01EE0DF11D1E161F060CF0A8C1603445
:1014500071050CF0A4C14115510509F4A0C1FB01AF
:1014600077FF04C0EE27FF27E61BF70B3E2F3770F0
:10147000732EFB0177FD379633E0F595E7953A95A6
:10148000E1F73E2F77FF07C0772029F03FEF3E0FAF
:1014900068E06719762E97FF05C0EE27FF27E81B47
:1014A000F90B02C0E0E0F0E0A038B10524F060E8FC
:1014B000F62EF81A01C0F02EFE1A632F032E000C30
:1014C000770B3F3F1CF4A62FA09501C0A0E011E0D0
:1014D000BE2DB77009F410E0E694E694E694E10EB0
:1014E0006E0D711D693071051CF068E0E62EE31A7F
:1014F000EA1A3A0F60E83603800D911D11248E0F11
:101500009F1FA09FE00DF11D11244E0F5F1F61E092
:1015100070E0072C02C0660F771F0A94E2F72330B1
:1015200009F4FCC098F4213009F4AEC0223009F06F
:1015300036C12FEF269F8001279F100D11240095A3
:1015400010951C830B835C80E30E27C02A3F29F093
:101550002B3F09F024C1E30E83C0E30E4EC0FA0115
:10156000EC0DFD1DE491E69F4001E79F900C1124D6
:101570009A82898237FD04C02C912023822A8C9282
:10158000711014C0EFEFCE1ADE0A1196CF1438F3A3
:101590003F5F4A0D5B1D80589F4F3E1509F4FFC009
:1015A000DC01A95BBD4FC12CD12CF0CF373054F7F3
:1015B000FD01E058FF4F208125219A8029292083B1
:1015C000E1CFFA01E00FF11FE491E69F6001E79F90
:1015D000D00C1124DA82C98237FD03C02C91C22AB3
:1015E000CC92711013C00F5F1F4F11960F1548F367
:1015F0003F5F4A0D5B1D80589F4F3E1509F4CFC0D9
:10160000DC01A95BBD4F00E010E0F0CF37305CF7A4
:10161000FD01E058FF4FD0802A812D292083E3CFA0
:10162000FA01EC0DFD1DE491E69FD001E79FB00D9E
:101630001124BA83A98337FD05C0A095F801208144
:10164000A223A083711015C0FFEFCF1ADF0A0F5F2E
:101650001F4FCF1428F33F5F4A0D5B1D80589F4FEB
:101660003E1509F49CC08C01095B1D4FC12CD12C87
:10167000F0CF37304CF7F801E058FF4F2A81209522
:10168000A0812A232083E0CFD401AE0FBF1FE30E39
:101690003E1509F484C0FC01E95BFD4F4F01C12CEC
:1016A000D12CCF1498F5FD01EC0DFD1DE491E69FC2
:1016B0008001E79F100D1124009510951C830B836A
:1016C000FA01EC0DFD1DE491E69F2001E79F500C0F
:1016D00011245A82498237FD05C0F401208102237A
:1016E000402A4082772059F037304CF4F401E0581A
:1016F000FF4F10812C8121231A81212B2083FFEFA2
:10170000CF1ADF0A2FEF821A920ACBCF3F5F4A0D22
:101710005B1DAA0DBB1D80589F4FBACFCF2CD12C7B
:10172000E40FF51FDC01A95BBD4FAC0149535D4FD0
:1017300000E810E00C191D09AC18BD08AA0CBB1C70
:101740006F2C2E2DCF93DF93EA018590C5907720E3
:1017500059F0869E4001C69E600137302CF4988176
:10176000D0949D219929999333233AF09C91C09468
:101770009C2198299D930C94BE0B1196FA9429F7FD
:10178000EA9451F0F62C33951124EA0DF11DA00FC7
:10179000B11DC00FD11DD9CFDF91CF9111240F9072
:1017A0000F900F900F90DF91CF911F910F91FF90AD
:1017B000EF90DF90CF90BF90AF909F908F907F90F1
:1017C0006F905F904F9008952D9A0895BC0180E02E
:1017D00090E00C9479098FB12CB193B130E0209551
:1017E000309520743327A90123E0559547952A9514
:1017F000E1F7292F30E0209530952071332735957A
:10180000279535952795242B8095807F822B0895E9
:1018100083B7817F83BF83B7816083BF889583B798
:101820008E7F83BF08958EBD00000DB407FEFDCFEF
:1018300008953E9A3F9A81E08093F4010895FC0157
:10184000840F911D18161906E4F5E038F105CCF562
:10185000F7FF02C0E0E0F0E08138910514F080E885
:1018600090E0382F3E1BAB0177FF02C0495F5F4F0E
:1018700083E0559547958A95E1F75695542F44276F
:1018800057954795E40FF51FE95BFD4F6770772784
:1018900081E090E001C0880F6A95EAF7482F222383
:1018A00049F0213071F4315020F08081842B8193F4
:1018B000FACF08958095315020F09081982391932C
:1018C000FACF0895EBEDFFE090E1969FD001A0786C
:1018D0001124A80F6770E60FF11D9491A95BBD4F0D
:1018E000442319F08C91982B03C090958C919823E8
:1018F0009C9308952F923F924F925F926F927F92A6
:101900008F929F92AF92BF92CF92DF92EF92FF920F
:101910000F931F93CF93DF93CDB7DEB727970FB603
:10192000F894DEBF0FBECDBFFC016A3069F4248D90
:10193000808D918D38E0239F800D911D1124918F12
:10194000808F178A168AA6C06D3009F4A3C09F83C2
:101950008E83348C238D2983328D3A83608C718CF5
:10196000E688F78880E8E816F104C4F0AE81BF810C
:101970005C962C915C97422F50E056968D919C91ED
:101980005797B6E02B9F800D911D1124EE81FF81AA
:10199000978B868B258D211167C07CC0F0E46F1674
:1019A000710424F7C70125E0329E800D911D11249A
:1019B00018161906DCF6432C512CC30138E0339E6F
:1019C000800D911D11241816190684F685E0689F74
:1019D000800111240552154F20E0F8012490253094
:1019E00009F4212C430158E020FC02C0398101C0D8
:1019F0003A8131110BC0F9818A81F81307C026940E
:101A00005150840C951C5111EFCF25C067018C2DCE
:101A10008E198315A0F754018A2D88198315B8F4FF
:101A200090E8C916D10478F4A0E4AA16B10458F4D9
:101A3000432FB501C6012C833B835D830E94620C5A
:101A40005D813B812C81BFEFAB1ABB0AE5CFEFEF85
:101A5000CE1ADE0ADCCF2F5FE40CF51C0F5F1F4FA0
:101A6000263009F0BACF82CF6AEF64039001659FF8
:101A7000300D112420583F4F281739075CF4AE81F0
:101A8000BF81ED91FC9111970190F081E02D6AE00A
:101A9000CD01099581E090E027960FB6F894DEBF5E
:101AA0000FBECDBFDF91CF911F910F91FF90EF90AF
:101AB000DF90CF90BF90AF909F908F907F906F906E
:101AC0005F904F903F902F9008951F920F920FB606
:101AD0000F9211242F933F934F935F936F937F93B4
:101AE0008F939F93AF93BF93EF93FF9380913A02AD
:101AF00090913B02A0913C02B0913D02892B8A2B30
:101B00008B2B81F18091390281110BC098B180E457
:101B1000892788B980913802882319F088B18058C4
:101B200088B980913A0290913B02A0913C02B09119
:101B30003D02181619061A061B06B4F480913A02E3
:101B400090913B02A0913C02B0913D020197A10906
:101B5000B10980933A0290933B02A0933C02B09368
:101B60003D0202C00E94C908FF91EF91BF91AF9161
:101B70009F918F917F916F915F914F913F912F91A5
:101B80000F900FBE0F901F9018959C01E1E7F0E0B9
:101B900090819D7F908381E080933702309336025D
:101BA0002093350230933302209332020C94C908FB
:101BB000EF92FF920F931F93CF93DF931F92CDB7B6
:101BC000DEB77C01FC0100811181C80169830E949C
:101BD000E81C6981681719F0C8010E94F01CC70150
:101BE0000F90DF91CF911F910F91FF90EF9008958B
:101BF0002FB7F89483E08093E9009091E800892F53
:101C0000807295FF04C09091F20080E4891B2FBF81
:101C10000895CF93DF931F92CDB7DEB76983DC01C0
:101C2000ED91FC910280F381E02D41E050E0BE0196
:101C30006F5F7F4F09950F90DF91CF91089583E0FB
:101C40008093E9008091F200882319F08AE3809361
:101C5000E80008950E94F80D90E00895009769F05B
:101C6000FC0101900020E9F73197AF01481B590BA7
:101C7000BC0189E496E00C94570880E090E0089558
:101C80008F929F92AF92BF92CF92DF92EF92FF928C
:101C90000F931F93CF93DF935C016B017A018091C7
:101CA0000E01882309F45BC080914602882309F461
:101CB00056C08091440280FF05C08091E0008260A0
:101CC0008093E000E70110E00AEF83E0882E9AE3BA
:101CD000992E2097D9F10E94F80D81110AC0015068
:101CE00009F43DC061E070E080E090E00E94790975
:101CF000F0CF282F30E0C217D3070CF48C2F4FB74A
:101D0000F8948092E9009091E80095FF1DC0282F7B
:101D100030E0C21BD30BF601982F915020F0819137
:101D20008093F100FACFC20ED31E112319F09092C6
:101D3000E80009C08091E80085FD06C09092E800A7
:101D400011E0209709F010E04FBFC3CF1111C3CFAE
:101D50005D9884E6809343021E141F0444F081E0E2
:101D600090E0F5019383828380E090E001C0C70199
:101D7000DF91CF911F910F91FF90EF90DF90CF9067
:101D8000BF90AF909F908F9008950F931F93CF9324
:101D9000DF9300D0CDB7DEB78C01FC01608182E11A
:101DA00090E09A838983CE0101960E94D80DF801B4
:101DB000618183E190E09A838983CE0101960E943C
:101DC000D80DC8010F900F90DF91CF911F910F9107
:101DD000089580E0E7E4F2E081118FEF0024819321
:101DE0008193819381930394D1F708958091470261
:101DF0008EBDE8E4F2E081910DB407FEFDCF8EBD0B
:101E000086E0E734F807B9F70DB407FEFDCF089573
:101E10000C942E0E20915306282329F490915206FB
:101E2000982381E009F480E008958F929F92AF9209
:101E3000BF92CF92DF92EF92FF920F931F93CF93B7
:101E4000DF93CDB7DEB7A1970FB6F894DEBF0FBE14
:101E5000CDBF6C01990FEE08FF08F7FE31C0E0918D
:101E60004906F0914A060190F081E02D6DE289E487
:101E700096E009958C0122273327A9012C193D09E9
:101E80004E095F0919A2CE0181967C019AE0892E44
:101E9000912CA12CB12CCA01B901A50194010E9479
:101EA000301D605DF70162937F0121153105410509
:101EB000510589F7CF010E942E0E800F911F1DC082
:101EC000A701960119A28E010F5D1F4F8AE0C82E4F
:101ED000D12CE12CF12CCA01B901A70196010E9475
:101EE000301D605DF80162938F01211531054105B8
:101EF000510589F7CF010E942E0EA1960FB6F894D6
:101F0000DEBF0FBECDBFDF91CF911F910F91FF902C
:101F1000EF90DF90CF90BF90AF909F908F900895FB
:101F2000CF92DF92EF92FF920F931F93CF93DF93A5
:101F30001F92CDB7DEB77C018B01040F111D6B0121
:101F400077FF14C0C12CD12C11C0C616D706ACF433
:101F500080E8E816F10438F4422FB601C70129835E
:101F60000E94620C29818FEFC81AD80AB801013487
:101F700011055CF360E470E0E8CF0F90DF91CF9142
:101F80001F910F91FF90EF90DF90CF900895DF9217
:101F9000EF92FF920F931F93CF93DF93EC017B019E
:101FA000D42E122F6034710520F4202FCE010E9410
:101FB0001F0CB701610F711D61507109603471050B
:101FC00028F4202F4D2DCE010E941F0C202F412FD1
:101FD000B701CE010E94900FCE018D0D911D202FD3
:101FE000412FB7010197DF91CF911F910F91FF9082
:101FF000EF90DF900C94900F2F923F924F925F9250
:102000006F927F928F929F92AF92BF92CF92DF9208
:10201000EF92FF920F931F93CF93DF93CDB7DEB76D
:1020200028970FB6F894DEBF0FBECDBF5A01822E9F
:10203000912C9C01280D391D37FDC4C080389105B5
:102040000CF0C0C09B01200F311D37FDBBC06034B8
:1020500071050CF0B7C0AB0177FF04C044275527CA
:10206000461B570B477055279B0177FF02C0295F1E
:102070003F4FE3E035952795EA95E1F777FF08C0F4
:102080002150310968E070E0DB01A41BB50BAD0104
:10209000602F66956695669570E0077011F06F5F2A
:1020A0007F4FDB01A20FB31FBA83A9833901769456
:1020B000762C662477946794680E791EE12CF12CB7
:1020C00000E010E02301B0E84B0E511C68E070E026
:1020D000DB01A41BB50BBC83AB8369817A81261716
:1020E000370709F46FC02830310509F46BC02F3F62
:1020F000BFEF3B070CF45BC0B201600F711FDB0147
:10210000A95BBD4FBE83AD83D801A60DB71DA95BEA
:10211000BD4F6C0160E070E0681579050CF047C0B8
:10212000E0E8CE16D10409F442C0D7FC34C02F3FFA
:10213000FFEF3F0709F442C0FB01EE0DFF1DEA0D62
:10214000FB1DE491042E01C0EE0F0A94EAF73C90C7
:10215000E329EC9341155105F1F027303105D9F011
:10216000FB01EE0DFF1DEA0DFB1DE4912E2E312C1F
:10217000F1010B8002C0F595E7950A94E2F7F88724
:10218000EF83ED81FE813080EF81F885E3291F0127
:10219000ED81FE8120826F5F7F4FED81FE81319660
:1021A000FE83ED83FFEFCF1ADF0A1196B5CF2F5FC5
:1021B0003F4F00581F4FE80CF91C8FCF41155105B8
:1021C00079F6E9CF28960FB6F894DEBF0FBECDBFE3
:1021D000DF91CF911F910F91FF90EF90DF90CF9003
:1021E000BF90AF909F908F907F906F905F904F9037
:1021F0003F902F900895FC0180914602811103C009
:102200008FEF9FEF08959FB7F89482E08093E900E5
:102210002091F20030E01216130614F421E030E0B1
:102220002115310559F0289884E680934502809164
:10223000F10080838091F200882319F09FBFC901CB
:1022400008958BE68093E800F9CF80916B068111A9
:102250000DC082E08093670684E080936806109248
:102260006A061092690681E080936B0687E696E025
:102270000895FC018485958597FD0BC09FB7F89460
:1022800082E08093E9008091F2009FBF90E0019688
:1022900008959FB7F89482E08093E9008091F2005E
:1022A0009FBF90E008954091D5065091D6062091A9
:1022B000D3063091D40642175307B4F49091E80046
:1022C0009570E1F39091E80092FD19C08093F100C0
:1022D0008091D5069091D60601968F739927892B08
:1022E00019F48EEF8093E8008091D5069091D60680
:1022F00001969093D6068093D50681E0089580E0FC
:102300000895DF92EF92FF920F931F93CF93DF9385
:10231000D82E8A017B01E40EF51EEB01CE15DF05F8
:1023200071F0D7FE03C0FE01849101C088810E9434
:10233000531121968111F2CF8FEF9FEF01C0C80199
:10234000DF91CF911F910F91FF90EF90DF90089553
:10235000615030F02091F100FC0120830196F8CF0C
:10236000289884E6809345020895CF93DF931F92C7
:10237000CDB7DEB7FC018485958597FD05C02FEFAD
:102380003FEF358724870BC0CE0101960E94FB10DA
:10239000019719F4898190E002C08FEF9FEF0F90B1
:1023A000DF91CF9108950F931F93CF93DF931F92E7
:1023B000CDB7DEB78C01FC018485958597FF0EC0F3
:1023C000CE0101960E94FB10019719F4298130E09B
:1023D00002C02FEF3FEFF80135872487F80184858D
:1023E00095850F90DF91CF911F910F9108950F93D5
:1023F0001F93CF93DF931F92CDB7DEB782E089831F
:1024000042E450E063EE7FE080E80E9481110E9488
:102410002511DC0112960D911C91139701151105E0
:1024200069F0D801ED91FC910280F381E02DBE01AD
:102430006F5F7F4FC801099597FF07C089810F9093
:10244000DF91CF911F910F910895F80100851185BB
:10245000E5CF1F920F920FB60F9211248F939F9387
:102460008091E1009091E100937F9093E10083FFE0
:102470000FC01092E90091E09093EB001092EC00F5
:1024800092E39093ED001092460298E09093F00052
:1024900082FF20C093E09093E9009091F20099238D
:1024A00019F09AE39093E80090914302992339F050
:1024B00090914302915090934302992389F1909116
:1024C0004502992339F0909145029150909345022D
:1024D000992341F184FF10C08091E2008E7E8160DB
:1024E0008093E2008091E1008F7E8093E1008091F3
:1024F00044028E7E806111C080FF16C08091E20090
:102500008E7E80618093E2008091E1008E7E8093D8
:10251000E100809144028E7E81608093440204C079
:102520005D9ACDCF289AD6CF9F918F910F900FBEF5
:102530000F901F9018951F920F920FB60F921124B3
:10254000CF92DF92EF92FF920F931F932F933F93BF
:102550004F935F936F937F938F939F93AF93BF93AB
:10256000EF93FF93CF93DF93CDB7DEB76C97DEBFCA
:10257000CDBF1092E9008091E80083FFEDC168E0D3
:10258000CE0145960E94A81182EF8093E8008D89C4
:1025900087FF05C09091E80090FFFCCF03C09EEF3D
:1025A0009093E800982F907609F0C6C09E892F89F5
:1025B000188D91110CC0803829F48091D206809337
:1025C000F10002C01092F1001092F10048C1422FB8
:1025D00050E0512B913051F4811141C141305105EE
:1025E00009F03DC18091D2068D7F0BC0933061F41C
:1025F000811135C14130510509F031C18091D206B8
:1026000082608093D2062BC1953041F48091E8001E
:1026100080FFFCCF20682093E30021C1963009F0B1
:102620005FC0EB8CFC8C1092E9001092D6061092E1
:10263000D506123091F51092D4061092D3060E945E
:10264000F71199E0BE016F5F7F4FDB01E92F1D920B
:10265000EA95E9F799831A8391E09E8390EA988737
:102660009AEF99872091D5063091D606275F3F4F84
:102670003C832B838D831092E9001092D606109232
:10268000D506F092D406E092D30649E050E080E00F
:102690000E9481110E94F711E2C0F092D406E092EC
:1026A000D3060E942511DC011296ED90FC90139741
:1026B000E114F10409F4C0C0D701ED91FC9104804C
:1026C000F581E02DBE016B5E7F4FC7010995009734
:1026D00019F00CF0C4C0C7C0F701E084F184E8CF62
:1026E000973009F4C0C0983021F481E08093F10064
:1026F000B6C0993009F0B3C0837009F0B4C0E2E607
:10270000F1E081E021E036E39081992361F080934C
:10271000E9002093EB0091919093EC003093ED0051
:102720008F5F873089F78EE78093EA001092EA0086
:102730008F898093460293C08B8D9C8D1092E90007
:102740001092D6061092D5069093D4068093D306A5
:10275000898D811156C08E899D89913A59F48132B3
:1027600009F081C047E050E067E071E080E00E943E
:10277000811175C0913209F076C0833289F4888D59
:1027800090E0982F88272F89822BA0E0B0E08093DB
:102790000F0190931001A0931101B09312015FC03B
:1027A000803269F48091E80082FFFCCF67E087E027
:1027B00091E00E94A8118BEF8093E80006C082325E
:1027C00009F04DC08F8980930E018091D106882336
:1027D00019F0EEEFFAE002C0E0E0F8E080910701C6
:1027E00090910801A0910901B0910A01803B9440A9
:1027F000A105B10509F07BC080910E0180FF93C057
:1028000076C00E942511DC0112960D911C91139740
:102810000115110541F1D801ED91FC910190F08174
:10282000E02DBE016B5E7F4FC8010995811117C075
:10283000F80100851185ECCF113009F44EC013303A
:1028400091F48F89882309F445C0823081F440E8EF
:1028500060E187E490E10E944F1C882321F08EEF15
:102860008093E80079C081E28093EB0075C08130ED
:1028700029F440E86BE08BE390E1EDCF833099F7EA
:102880000E942511DC011296ED90FC9013978E01A9
:102890000F5F1F4F6801E114F10479F0D701ED914A
:1028A000FC910680F781E02DB801C7010995080F5A
:1028B000111DF701E084F184EECFD8011C92F601DE
:1028C00001900020E9F73197BF016C197D0940E0C4
:1028D000C601C1CF65E270E102C069E270E1611535
:1028E000710509F2FB01449150E080E840CF0FB63A
:1028F000F894A895809160008861809360001092A0
:1029000060000FBEA895EE3F2AE0F20739F08091F3
:10291000FE0A9091FF0A91838083A1CF1092FF0A53
:102920001092FE0A9CCFEE3F8AE0F80731F08081DA
:1029300091819093FF0A8093FE0A87E797E791833E
:1029400080839BE088E10FB6F894A895809360009F
:102950000FBE9093600083CF6C960FB6F894DEBFE5
:102960000FBECDBFDF91CF91FF91EF91BF91AF919E
:102970009F918F917F916F915F914F913F912F9197
:102980001F910F91FF90EF90DF90CF900F900FBEAF
:102990000F901F901895CF93DF9300D0CDB7DEB77F
:1029A000789484B5826084BD84B5816084BD85B52A
:1029B000826085BD85B5816085BD80916E00816036
:1029C00080936E00109281008091810082608093DC
:1029D00081008091810081608093810080918000DE
:1029E000816080938000809191008260809391004B
:1029F000809191008160809391008091900081602E
:102A0000809390008091C10084608093C100809188
:102A1000C10082608093C1008091C1008160809379
:102A2000C1008091C30081608093C3008091C00089
:102A300082608093C0008091C20081608093C20058
:102A400080917A00846080937A0080917A0082601D
:102A500080937A0080917A00816080937A008091DF
:102A60007A00806880937A00109246021092D20613
:102A7000109244028091D70081608093D70080EA51
:102A80008093D80089B5806189BD89B5826089BD90
:102A900009B400FEFDCF61E070E080E090E00E94AC
:102AA00079098091D8008F7C80618093D8008091D3
:102AB000E000807F8093E0008091E1008E7E809333
:102AC000E1008DE08093E200559A209AEEEFFFE757
:102AD000859194918B3F9C4D19F481E08093D106B0
:102AE00080E190E00E94E81C182F81E190E00E94B4
:102AF000E81C1C3411F48A35C1F080E190E09A831F
:102B000089836CE4CE0101960E94D80D81E190E0AA
:102B10009A8389836AE5CE0101960E94D80D1A82B4
:102B20001982CE0101960E94C50E81EC80937C0033
:102B300085B1806F85B9249884B1866E84B95E9A18
:102B40005F988AB1806D8AB9769A6E9881B3806FEA
:102B500081BB899880B38D7080BB80E58CBD81E09E
:102B60008DBD85E090E00E94E60B5F9A85E090E0E5
:102B70000E94E60B5E985C980CE511E06DE0E62E95
:102B8000E00EF80184910E94130C0F5F1F4FE012BA
:102B9000F8CF5C9A81E88093640081E080936500BF
:102BA00000E014E080E00E94130C01501109D1F7FD
:102BB0000E94EB0B87FF10C05C9885EA0E94130C03
:102BC0005C9A2E982F982D98809164008062809353
:102BD00064000E94080CFDCF02E010E00E94EB0BA5
:102BE00082FF42C02D980E94EB0B84788438C9F094
:102BF0000E94EB0B8471843191F50E94E40B88EC08
:102C000090E00E94E60B2E981A83098360E0CE01C3
:102C100001960E94D80D84EF91E00E94E60B2E9A57
:102C200019C00E94E40B88EC90E00E94E60B2F98FC
:102C30001A8309836FEFCE0101960E94D80D84EFAD
:102C400091E00E94E60B2F9A0E94EB0B8478843867
:102C5000D9F3CECF0E94EB0B84718431D9F388EC89
:102C600090E00E94E60BBACF0E94E40B82E090E075
:102C70000E94E81C882319F00E94190C04C01092CD
:102C8000F4013E983F982E985EEEA52EBB24BA9490
:102C90000E94EB0B86FF04C02E9A2F9A2D9A3FC0FC
:102CA000FCEFAF16FFEFBF0619F42E9A2F9806C05F
:102CB00028E1A216B10411F42F9A2D980E94E90E72
:102CC00000E128E54CEA50E0B50184E190E00E9483
:102CD000FC0F0E94F60E8BE190E00E94E60B30EFB5
:102CE000A3163FEFB30621F48AEF90E00E94E60BB3
:102CF0008FEFA81AB80A99E1A916B10449F68CEB2E
:102D000092E00E94E60B0E94E40BE0914D06F091E8
:102D10004E060190F081E02D8DE496E0099582E366
:102D200090E00E94E60B0E94EB0B8111F8CF0E940D
:102D3000E90E1092620610926106109260061092DF
:102D40005F0681E28093540682E190E00E94E81CD5
:102D50008093240283E190E00E94E81C8093250286
:102D60000E94190C40E2242E312C412C512C2FB7FB
:102D7000F8948091F5019091F601A091F701B0913E
:102D8000F8012FBF4091590650915A0660915B0699
:102D900070915C0620915D06222341F0209155063A
:102DA000821B80935E0610925D06DAC48417950735
:102DB000A607B70738F4481B423008F4D1C40E9474
:102DC000080CCEC421E020935D06809355069093B5
:102DD0005606A0935706B093580620915406820FCA
:102DE000911DA11DB11D8093590690935A06A09381
:102DF0005B06B0935C068091500690915106019657
:102E0000909351068093500620912F02211104C007
:102E1000209106012223C1F020912E02211114C01D
:102E200080FD09C080912C0290912D020196909313
:102E30002D0280932C0280912A0290912B02019600
:102E400090932B0280932A0280912802909129026C
:102E5000181619062CF401979093290280932802E2
:102E6000A0910001B09101015D01EFEFAE1ABE0A21
:102E70008D01075F1F4FE1E0F2E060E070E063303A
:102E80007105ACF58081882371F18381948145813E
:102E900056819A01205F3F4F220F8180928034E05B
:102EA000830E911C3BE183169104D0F480179107A7
:102EB00034F44C01820E911CA814B90474F08C5B9C
:102EC0009F4F440F551F841B950B8017910744F4A7
:102ED000820F911DA816B9061CF410922F0207C08C
:102EE000AF32B105D4F76F5F7F4F3B96C8CF80916B
:102EF0005206809353060E94EB0B809352060E9469
:102F0000E90E10926206109261061092600610920D
:102F10005F06812C912CA12CB12C33E0A316B104B7
:102F2000DCF480912C0290912D0260E470E00E940C
:102F3000751D00E220E44BED59E06FE170E0F40113
:102F4000E81BF90BCF010E94FC0FFFEFAF1ABF0A7D
:102F500020E4820E911CE1CF80910601882309F4C0
:102F60006FC00BE12BE34FEE58E061E070E087E1CA
:102F700090E00E94FC0F80912602909127028C30F5
:102F8000910534F40196909327028093260204C0A1
:102F90001092270210922602809126029091270219
:102FA000009719F481ED98E00AC08430910519F476
:102FB00083EB98E004C0089731F485E998E090939A
:102FC00005018093040181E090E090936006809376
:102FD0005F068EE190E0909362068093610688E63A
:102FE00091E00E94080F80912402909125020E9496
:102FF000150F84E891E00E94080F0E94EB0B82FFFE
:1030000008C08091240290912502181619060CF42C
:10301000AFC30E94EB0B82FD05C0109223021092F9
:1030200022022E9A88E00E940A0F882349F010920B
:103030000601109227021092260281E080932F024F
:1030400084E00E940A0F90912F02882349F099236F
:1030500009F4A1C020912E0281E0822780932E02E4
:10306000992309F498C080912E02811194C088E0C0
:103070000E940A0F8823A1F010920301109202010E
:1030800081ED98E0909305018093040180912802DE
:1030900090912902892B21F48FE898E00E94C50DB8
:1030A0008091020190910301813191052CF40196E8
:1030B000909303018093020180910201909103019A
:1030C0008830910519F423EB38E005C08C30910568
:1030D00031F425E938E03093050120930401880F8D
:1030E000991FFC01E95EFE4F209100013091010122
:1030F00080819181820F931F97FF05C0109201017B
:103100001092000104C0909301018093000180910E
:103110005006909151066CE370E00E94611D00978B
:10312000D1F520E030E002C02F5F3F4F2330310562
:1031300094F50B96FC01EA50FE4F40814111F4CF0B
:103140008BE0829F8001839F100D11240F5F1D4F24
:1031500081E0F80180838EE790E0928381830E9472
:10316000DA1CA20191010E94FE1C60527109F80153
:10317000748363838091FF01909100028B309105ED
:103180008CF4168215828DEB97E0908787838BEE07
:1031900096E09287818741E0A42E42E0B42E812CF4
:1031A000912C33C08531910564F481E090E0F80101
:1031B0009683858389E196E09087878387E495E00D
:1031C000E8CFC39764F482E090E0F80196838583AA
:1031D00085E794E09087878383EA93E0DACF83E002
:1031E00090E0F8019683858381ED92E09087878354
:1031F00081E092E0CECFF501808181110BC03FEFDD
:10320000831A930A8BE0A80EB11C93E089169104EF
:1032100094F371C010912F02112349F080912E0276
:10322000811105C081819281019792838183F5018B
:1032300061807280F1EF6F16FFEF7F0614F4F501E5
:103240001082F50121853285478150856381748123
:103250004115510559F0FA0104913196E4904E5F01
:103260005F4FCC24C394C3010E94FD09F9E06F169F
:10327000710409F0C4CF112309F4C1CF80912E024B
:103280008111BDCF8091FF01909100020196909332
:1032900000028093FF018A30910539F483EF91E0B9
:1032A0000E94C50D2EE030E021C08431910559F413
:1032B00081EE91E00E94C50D81E190E0909329029A
:1032C000809328029CCFC29759F483EC91E00E942E
:1032D000C50DE8E1F0E0F0932902E09328028FCFDA
:1032E00089EB91E00E94C50D27E030E03093290280
:1032F0002093280284CF88E190E090936006809329
:103300005F0684E090E0909362068093610680916E
:103310002F02882351F08CE791E00E94080F8091E2
:10332000FF01909100020E94150F812C912CA12C7D
:10333000B12C30E1632E712C39E0A316B10414F5E1
:1033400080912A0290912B02B3010E94751DF40115
:10335000E81BF90BCF01E7EAF1E00491E8EAF1E0BC
:10336000E49022E0C22E20E030E049EA51E068E338
:1033700070E00E94FD09FFEFAF1ABF0A20E1820E44
:10338000911CDACF8091220290912302181619061F
:103390000CF04AC080910601882309F445C02E989C
:1033A00000E027E048E668E370E080E090E00E94FB
:1033B000C70F01E025E046E669E370E081E090E0B8
:1033C0000E94C70F8090220290902302082D000FC8
:1033D00082E0A82EB12C10E00E5F1F4FA016B106A0
:1033E0005CF421E043E06AE370E0C5010E94900FC5
:1033F0008FEFA81AB80AF2CF92E389169104A1F4CC
:10340000109223021092220210922502109224029E
:103410001A821982CE0101960E94C50E8AE590E0BB
:103420009093FE018093FD018091FD019091FE013A
:1034300018161906ECF4809106018823C9F081E082
:1034400090E09093600680935F0687E390E090930E
:103450006206809361068BE991E00E94080F8091DB
:10346000FD019091FE0101979093FE018093FD0173
:10347000409104015091050160910001709101019A
:103480004115510571F0FA0104913196E4904E5FB7
:103490005F4FCC24C39429E831E08AE090E00E9499
:1034A000FD0980912F02811147C180910601811190
:1034B00043C18091FC0181110BC080915006909115
:1034C00051066EE170E00E94611D892B09F45AC11A
:1034D0008091FB01811115C02091FF013091000204
:1034E0008091240290912502821793071CF48BE7A8
:1034F00091E002C089E691E00E94C50D81E08093D1
:10350000FB0101E02FE240E86FE070E080E090E036
:103510000E94C70F01E010E020E04DE260E170E0A2
:10352000C8010E94900F0F5F1F4F0F371105A1F7C1
:103530008AE090E09093600680935F0681E190E0DE
:1035400090936206809361068EEA91E00E94080FD4
:1035500082E090E09093600680935F0689E190E0BE
:1035600090936206809361062091FF0130910002E2
:103570008091240290912502821793072CF5809167
:10358000FA01811121C06091FF0182E190E09A83EC
:103590008983CE0101960E94D80D6091000283E1DB
:1035A00090E09A838983CE0101960E94D80D81E034
:1035B0008093FA012091FF0130910002309325029F
:1035C000209324028093F9018091F901882329F046
:1035D00088EB91E00E94080F0AC089E791E00E9401
:1035E000080F80912402909125020E94150F02E09D
:1035F00010E01093600600935F0682E290E09093E3
:103600006206809361068CE791E00E94080F80912A
:10361000FF01909100020E94150F10936006009325
:103620005F068BE290E09093620680936106809142
:10363000FC01882309F480C086EC91E00E94080F09
:103640001093600600935F0684E390E09093620617
:10365000809361068BED91E00E94080F88E00E9444
:103660000A0F882391F181E080932F0220E030E05F
:1036700080E090E08330910544F4F901EF5FFD4F65
:1036800010820196255F3F4FF5CF10922B021092CA
:103690002A0280E190E09093010180930001109252
:1036A00003011092020185E998E09093050180934F
:1036B0000401109200021092FF011092FC0110927E
:1036C000FB011092FA011092F90184E00E940A0FA6
:1036D000882391F180E090E020E030E08330910594
:1036E00044F4F901EF5FFD4F10820196255F3F4FD3
:1036F000F5CF10922B0210922A0280E190E0909375
:1037000001018093000181E0809306011092030182
:103710001092020185E998E09093050180930401DD
:10372000109200021092FF011092FC011092FB0116
:103730001092FA011092F90180912E02882371F003
:1037400081E090E09093600680935F06909362061C
:10375000809361068DEE91E00E94080F0E94F60EA4
:1037600080E090E0892B09F402CB0E940000FFCAA0
:1037700080912202909123020196909323028093DC
:10378000220247CC81E08093FC01A2CE0F931F93CD
:10379000CF93DF938C0181E090E00E94E81C80FFD2
:1037A00031C08AE090E00E94E81C9FEF980F9E3F96
:1037B00048F522E330E0D80157963C932E93569774
:1037C00028E330E059963C932E935897CBE0D0E015
:1037D000D801ED91FC910190F081E02D682FC80196
:1037E0000995CE010E94E81C2196C131D10581F7CF
:1037F0000E94F60E88EE93E0DF91CF911F910F911A
:103800000C94E60BDF91CF911F910F9108950497CF
:103810000C94C61BE3E7F6E01382128288EE93E075
:10382000A0E0B0E084839583A683B7838FE391E023
:10383000918380838FEF9FEF95878487E9E4F6E09B
:10384000138212821186128620E123879087878354
:10385000108A118A128A138A148A81E591E0918371
:1038600080838FE591E095838483178A168A118E71
:10387000108E81E0828F138E848F158E87EA98E0F8
:10388000909348068093470680E090E89093D00696
:103890008093CF0646983E9A47983F9A0895CF92D4
:1038A000DF92EF92FF920F931F93CF93DF931F92BC
:1038B000CDB7DEB7182F062FE42E862F880F8E5F28
:1038C00099830E94531183E00E945311F12EC12E5F
:1038D0009981D92E8C2D8F19801798F4F601E7FE67
:1038E00002C0849101C080810E945311182F80E092
:1038F0000E9453118123FFEFCF1ADF0A8111EACF13
:1039000001C081E00F90DF91CF911F910F91FF9047
:10391000EF90DF90CF9008958F929F92AF92BF92D9
:10392000CF92DF92EF92FF92CF93DF93EC01688109
:1039300079818A819B81611571058105910521F449
:1039400064E279ED8BE597E02DE133EF41E050E063
:103950000E94FE1C49015A019B01AC01A7EAB1E497
:103960000E941D1D6B017C01ACEEB4EFA50194011A
:103970000E942B1DDC01CB018C0D9D1DAE1DBF1DBA
:10398000B7FF03C00197A109B04888839983AA8330
:10399000BB83BC01CD019F77DF91CF91FF90EF906A
:1039A000DF90CF90BF90AF909F908F9008950E942E
:1039B0008C1C089583E191E00E948C1C0895609313
:1039C00013017093140180931501909316010895CB
:1039D000F999FECF92BD81BDF89A992780B50895D7
:1039E000262FF999FECF1FBA92BD81BD20BD0FB61B
:1039F000F894FA9AF99A0FBE01960895052E97FB4E
:103A00001EF400940E94151D57FD07D00E94301D22
:103A100007FC03D04EF40C94151D5095409530953D
:103A200021953F4F4F4F5F4F08959095809570952A
:103A300061957F4F8F4F9F4F08950E94521DA59F04
:103A4000900DB49F900DA49F800D911D1124089599
:103A5000B7FF0C941D1D0E941D1D821B930B089522
:103A6000A1E21A2EAA1BBB1BFD010DC0AA1FBB1F82
:103A7000EE1FFF1FA217B307E407F50720F0A21BF4
:103A8000B30BE40BF50B661F771F881F991F1A9461
:103A900069F760957095809590959B01AC01BD018B
:103AA000CF010895A29FB001B39FC001A39F700DE5
:103AB000811D1124911DB29F700D811D1124911D36
:103AC0000895AA1BBB1B51E107C0AA1FBB1FA61765
:103AD000B70710F0A61BB70B881F991F5A95A9F7B7
:103AE00080959095BC01CD01089597FB072E16F4A3
:103AF000009407D077FD09D00E94611D07FC05D016
:103B00003EF4909581959F4F0895709561957F4FF4
:103B10000895EE0FFF1F0590F491E02D099481E0C8
:0C3B200090E0F8940C94941DF894FFCFF2
:103B2C001000000095080100E1000000000000FFFB
:103B3C00FFFFFF010000000000FEFFFEFFFEFFFF85
:103B4C00FFFFFFFFFFFFFF0000000001000100016D
:103B5C000001000200020002000400000000000945
:103B6C000E400E2A0E1F0E3911B511D31100000094
:103B7C00007A0C5708AC08AB08C61BFCFF0000070A
:103B8C001C00C180810000005072657373204120BD
:103B9C00746F20706C6179210A48692D53636F72C0
:103BAC00653A20000A486F6C64204220746F2064D0
:103BBC00656C6574652064617461000A48692D53F5
:103BCC00636F72652064656C657465642100476180
:103BDC006D65204F766572004E65772048692D53D0
:103BEC00636F726521005072657373204120746F8E
:103BFC002074727920616761696E0050726573730D
:103C0C00204220746F2072657475726E005061755D
:043C1C007365640068
:00000001FF
