:100000000C94230B0C944B0B0C944B0B0C944B0B40
:100010000C944B0B0C944B0B0C944B0B0C944B0B08
:100020000C944B0B0C944B0B0C944F170C94C11766
:100030000C944B0B0C944B0B0C944B0B0C944B0BE8
:100040000C944B0B0C944B0B0C944B0B0C944B0BD8
:100050000C944B0B0C944B0B0C944B0B0C946D1C95
:100060000C944B0B0C944B0B0C944B0B0C944B0BB8
:100070000C944B0B0C944B0B0C944B0B0C944B0BA8
:100080000C94B71C0C944B0B0C944B0B0C944B0B1B
:100090000C944B0B0C944B0B0C944B0B0C944B0B88
:1000A0000C944B0B0C944B0B0C944B0B2D21962169
:1000B00012229522782382230A24DD0EDD0EE20E21
:1000C000E20EE90EE90EEF0EEF0EFE0FFE0F3710F7
:1000D000371086108610DA10DA10471A4A1A391AC1
:1000E0003D1A411A6B1A6B1A6B1A4E1A521A561A8B
:1000F0005C1A601A6B1A661ABD1AC21AC71AD11A8C
:10010000DB1A251B251B251BE51AEF1AF91A031B01
:10011000101B251B181B7068616E7461736D616C18
:10012000206372656174757265732E007368656C07
:100130006C732074686174206F6E6C7920686172D2
:100140006D0073686F6F747320616E7469207068DE
:10015000616E7461736D00636F6E7461696E6D655D
:100160006E742E205468652074616E6B0068656C37
:100170007020776974680077696C6C206265206410
:1001800065706C6F79656420746F007068616E745F
:1001900061736D2074616E6B20756E6974006E61A1
:1001A00074696F6E616C20677561726420616E7432
:1001B00069006F6E207468656972206F776E2E20FB
:1001C0005468650063616E277420636F6E746169A3
:1001D0006E20486172616D626500496620746865D1
:1001E000207A6F6F206B656570657273007068614F
:1001F0006E7461736D2062756C6C6574732E006B28
:100200006565706572277320616E7469006172653F
:100210002076756C6E657261626C6520746F2074F7
:1002200068650061667465726C6966652E20546845
:100230006520736E616B65730077696C6C206C6F01
:10024000736520616E00746F756368657320486123
:1002500072616D626520686500486172616D6265FA
:100260002E2049662074686520736E616B6500728C
:10027000656C656E746C6573736C792068756E74EB
:100280000077696C6C2061707065617220616E64CA
:100290000041207068616E7461736D616C20736ED3
:1002A000616B650062616C616E6365206F66206ED4
:1002B00061747572652E0070726573656E6365207A
:1002C0007570736574732074686500486172616D40
:1002D0006265277320636F6E74696E7565640031A3
:1002E000303020706F696E74732E006166746572B1
:1002F0006C69666520666F72206576657279004864
:100300006172616D6265206765747320616E20653E
:1003100078747261006265206170706C6965642E2A
:100320002052656D656D6265720072656D61696E02
:10033000696E67207365636F6E642077696C6C000B
:10034000626F6E757320706F696E742070657200D5
:100350007468616E203135207365636F6E6473203D
:100360006100636F6D706C6574656420696E206CEC
:100370006573730049662061207374616765206945
:100380007300746F20636F6D706C657465206120FD
:1003900073746167652E006D616B652069742074EC
:1003A0006F20746865207374616972730061707086
:1003B0006561722E20486172616D6265206D757392
:1003C00074006E6578742073746167652077696C5A
:1003D0006C00737461697273206C656164696E6727
:1003E00020746F20746865006120737461676520F4
:1003F00061726520636F6E766572746564004F6E1E
:10040000636520616C6C20746F75726973747320FE
:100410006F6E007068616E7461736D616C206372E1
:10042000656174757265732E0074686174206F6EF7
:100430006C79206861726D00616E7469207068610A
:100440006E7461736D2062756C6C65747300677592
:100450006E7320617265206C6F61646564207769DA
:10046000746800746F7563682E20546865206B652E
:100470006570657227730066726F6D2048617261E6
:100480006D626527732063757273656400746861BB
:10049000742070726F7465637473207468656D0086
:1004A0007068616E7461736D207261696E2067653A
:1004B00061720054686579207765617220616E749D
:1004C0006900707265706172656420666F722048A1
:1004D0006172616D62652E00546865207A6F6F20CD
:1004E0006B656570657273207765726500666F7203
:1004F0002065766572792031303020706F696E74B6
:10050000732E00616E206578747261206166746577
:10051000726C69666500706F696E74732E20486135
:1005200072616D6265206765747300636F6E7665D6
:100530007274656420697320776F72746820330069
:100540004561636820746F757269737400486172E5
:10055000616D6265277320526576656E676521005F
:1005600063616E20746F206578616374006D616EE5
:100570007920746F75726973747320617320796F59
:1005800075006576616375617465642E20436F6ED6
:100590007665727420617300746F75726973747319
:1005A000207374696C6C206E65656400636C6F7396
:1005B000652C20627574206D616E790063617573BE
:1005C000656420746865207A6F6F20746F004861DD
:1005D00072616D626527732070726573656E636505
:1005E0000062756C6C65742E007468616E20612009
:1005F0007370656564696E670074656D706F7261B4
:1006000072696C792066617374657200626F6F73D2
:1006100074207768696368206D616B657320686911
:100620006D0077697468206120737570657220733E
:10063000706565640068617320616C736F2062652A
:10064000656E20696D627565640070726F746563B4
:10065000742068696D2E20486172616D6265007753
:10066000696C6C20646F20746865697220626573C0
:100670007420746F00676F72696C6C61207A6F6DA3
:1006800062696573207468617400746F756368656E
:100690007320746F206D7574616E7400636F6E7675
:1006A0006572742074686F7365206865007769747B
:1006B000682074686520706F77657220746F0048D9
:1006C0006172616D62652068617320726574757214
:1006D0006E65640043696E63696E6E617469205A69
:1006E0006F6F2E00677261766520746F2068617588
:1006F0006E74207468650072657475726E6564202E
:1007000066726F6D207468650041207068616E7458
:1007100061736D616C20676F72696C6C6100596FF9
:100720007520706C617920617320486172616D621F
:10073000652E000808DBDB99ADA5BDDBC3080822E8
:10074000538B8A8A92924C0808AAAAAAAAAAA8A09D
:10075000800808047EEEBFAFBFFE0408081C72F3D9
:10076000BBBBF3721C08087FF5D1FDDDF1F57F6896
:1007700061746368656420746F20656E61626C6586
:100780002E2E2E0074686520776F726C64206120B5
:10079000706C616E2077617300496E206120666124
:1007A0007220636F726E6572206F66004F746865A9
:1007B000727320746F6F6B20616374696F6E2100B8
:1007C000756E666169722E00536F6D652074686F77
:1007D00075676874206974207761730000646965C7
:1007E000642E007468652064617920486172616DCF
:1007F00062650045766572796F6E65206C6F737403
:100800002061206865726F00D5F08D14A1C881CF7A
:10081000D9F1AF20005200C80000006400880164D4
:10082000000000C800EE0164000000C8005200C8CB
:100830000000006400EE01C800000064008801644C
:10084000000000C800520064000000320052006442
:10085000000000320052006400000032004A013201
:100860000000006400520064000000320052006486
:1008700000000032005200C80000006400880164DB
:10088000000000C800EE0164000000C8008300C83A
:1008900000000064004A0164000000C800D2016446
:1008A000000000C8008300C800000064004A016422
:1008B000000000C800D20164000000C800410064CC
:1008C000000000320041006400000032004100647A
:1008D00000000032000601320000006400410064A4
:1008E000000000320041006400000032008300C8B4
:1008F00000000064004A0164000000C800D20164E6
:10090000000000C80001806F0F1900DD04190055B8
:10091000043200B80719006E0219002A023200DC06
:1009200003190037011900150132000080A4039655
:10093000004B0296002D08960075059600A40396BC
:10094000000080490719004B0219000B023200A475
:100950000319002601190006013200D20119009383
:1009600000190083003200750032003A00320000A6
:1009700080A40332004B0232004907320000801687
:100980000203010001000000000000000000000060
:100990000000030101000147414D45204F564552DB
:1009A0002100B8019600EE0196000B029600B801F6
:1009B000960093022C0110039600700396000080AD
:1009C00054696D6520426F6E75733A20000B024BBF
:1009D0000093024B0010034B0093024B0010034B9B
:1009E0000017044B00008053636F72653A2000418A
:1009F000667465726C697665733A2000537461673A
:100A0000653A2000486967682053636F72653A2031
:100A10000048656C700053746172740A004F66661A
:100A20000A004F6E0A00536F756E643A008040FFF3
:100A30000101019F9F010101FFFF1F0181F9810158
:100A40001FFFFF0101019999010143FFFF1F018170
:100A5000F981011FFFFF010101E1073F07E10101EA
:100A600001FF0101019999012123FF0101019999D8
:100A7000FFF1F1F9FFC3818119012163FFFFFFFF3E
:100A80007F7F6FB7BF5FD7C7D7D7CBCFCFE1E1E1CC
:100A9000E1C3D3F3E7EFCFEF47C7C4C7C3B7FFBF87
:100AA000FFFFFFFFFFFFFFFFFFFFFFFFFFFFFFFF56
:100AB0001010109F9F101030FF1310109C9CFC1002
:100AC0001013FFF0F0101F1FF010101F9390F0FC98
:100AD0001C1C1070F31F1010F03F1010909F10306E
:100AE00030FF1010109393F0F0F8FFF0F0F0F3F3F4
:100AF000F3FFFFFFFFF8F0F0F3F0F0F8EF2BF974DD
:100B0000361616070B0F060707070F070103030129
:100B10000303010101030303030D0507772E0E757F
:100B200058EAEFCF8FFFFFFFFFFFFFFFFFFFFFFF41
:100B3000000000F9F9000004FF00000039393FFF10
:100B4000E000001F0000E0FFFF00000039393FFF18
:100B5000000000F8C3000000FF8000003F33820265
:100B600002FF00000039393FFFFFFFFFFFFFFFFFDB
:100B7000FFFFFFFFFFFFFFFFDBFB126AE2FAFAFC59
:100B8000E080F0F0F8F0FCF8F8F8F8F8F8F8E8FC95
:100B9000FCFCF87CFCF8F0F8F0F0F0F0E0E0E1F0BC
:100BA000C9E9C89BFF9EFFE7FFFFFFFFFFFFFFFFB5
:100BB000FFFFFFFFFFFFFFFFFFFFFFFFFFFFFFFF45
:100BC000FFFFFFFFFFFFFFFFFFFFFFFFFFFFFFFF35
:100BD000FFFFFFFFFFFFFFFFFFFFFFFFFFFFFFFF25
:100BE000FFFFFFFFFFFFFFFFFFFFFFFFFFFFFFFF15
:100BF000FFFFFFFFFFFFFFFF93A5E67CCF03070387
:100C000003010101000000000001010101010101D7
:100C100000010101000001000201010101010101C7
:100C200003031B0F3FF3BEEEDFFFFFFFFFFFFFFFDE
:100C3000FFFFFFFFFFFFFFFFFFFFFFFFFFFFFFFFC4
:100C4000FFFFFFFFFFFFFFFFFFFFFFFFFFFFFFFFB4
:100C5000FFFFFFFFFFFFFFFFFFFFFFFFFFFFFFFFA4
:100C6000FFFFFFFFFFFFFFFFFFFFFFFFFFFFFFFF94
:100C7000FFFFFFFFFFFFFFB7C7470505010C60003F
:100C8000008000070716161C1EF86EF4F8FFFFFF21
:100C9000FCFC705EFCECC6E86008100C0406040066
:100CA0000000446048361FFF87EFFFFFFFFFFFFF94
:100CB000FFFFFFFFFFFFFFFFFFFFFFFFFFFFFFFF44
:100CC000FFFFFFFFFFFFFFFFFFFFFFFFFFFFFFFF34
:100CD000FFFFFFBFFFFFBFBF9FBF274B2F274FE384
:100CE00077FBBBFDE6FFFFFFFF7F3F3F7F3F6F07C7
:100CF000DF0F27EBFFBFFFFFF9DCF5402282028107
:100D0000C04403100000008070FEFFE787070F0F4C
:100D10001F3F1F0F0F87E7FFF88000000000408291
:100D200020E8200080C4BFFEC77EF7FFFFFFFFFF63
:100D3000FFFFFFFFFFFFFFFFFFFFFFFFFFFFFFFFC3
:100D4000FFFFFFFFFFFFFFFFFFFFFFFFFFFFFF7F33
:100D50007B0F1147010408040101036E5C3AB22FB6
:100D6000DFDFBFFFFFFFFFBFBBFD37BB4AB2DC7E4B
:100D70001A603E1F5F5FE90FDF57FF7D8000400272
:100D800000000020387C3F3F0FA8371FDFFF9FFF88
:100D9000FFFF9F9F8F9F0F0F5B3F3F3C7000000343
:100DA000008045802FFF3F5FA3D1FF1F6F6F1BFFA8
:100DB000FFFFFFFFFFFFFFFFFFFFFFFFFFFFFFFF43
:100DC000FFFFFFFFFFFFFFFFFFFF3F5F0715400033
:100DD00000040000000000000000010010000001FD
:100DE00023893F7BDD1D7F1F2F3B1C3B0A03020431
:100DF0000000C080A0E0FBE1F1FCDF767C9C388045
:100E000000000000000006020405040404040406B7
:100E1000040404040404040008080C150000000085
:100E2000002002010C0B0201000C01000002014A2B
:100E300001FA000000320088019600DC03FA00008D
:100E40000032004B0296000601FA00000032003723
:100E500001960088019600D20196008801FA0000F0
:100E60000032006E0296000B022C010080DA01C4F1
:100E700001B2019E018B0177016D01570142012CE6
:100E8000011601CB02B702A402910281026F02593E
:100E9000024602390223020D02FF01ED01FE03E8C2
:100EA00003D203C203AD03970382037403620350AA
:100EB0000340032A031503FF02EB02DF02D804C23A
:100EC00004B304A0048D04770463044E0438042999
:100ED000041304CE05BC05AC05980582056D0560BC
:100EE000054D0540052B0516050305ED041E0709F4
:100EF00007F706E406D406BF06AD069C068A06750B
:100F0000065F064A06350622060C06F905E905E1E4
:100F100005204E61763A20447061642045786974FA
:100F20003A20410067075D07530749073F07350728
:100F3000120D0B100D0BF307E307DD07DC07C807E5
:100F4000C007DC07AC07DC07990784076F070808B0
:100F5000FFC31CEEE61CC3FF0808C3DBBDADA599AB
:100F6000DBDB0808FFC3386F6738C3FF08087FF56D
:100F7000F1DDFDD1F57F4100320083003200060132
:100F800032000B023200170432000B023200170449
:100F900032002D0832005A1032002D0832005A104B
:100FA00032002D081900170419000B021900060160
:100FB000190083001900008008081C72D3BBBBF322
:100FC000721C08081C72F39B9BF3721C08083E7588
:100FD000D1DDDDD1753E080804FEBFAFBFEE7E0453
:100FE00083001900930019004A01190000800808C5
:100FF0004C92928A8A8B53222D081900B807190047
:1010000049071900E00619007D061900200619009D
:10101000C80519007505190027051900DD04190018
:10102000970419004100640000800000FFFF0100E8
:10103000FFFF010000000100010000000100FFFFB0
:101040000100FFFF0000FFFFFFFF00000000080B92
:101050000002020201000904000001020200000572
:1010600024001001052401010104240206052406C0
:1010700000010705810310004009040100020A0075
:10108000000007050202400000070583024000003F
:101090000403090412010002EF02014041233680DB
:1010A00000010102030141726475696E6F204C4CAE
:1010B000430041726475696E6F204C656F6E61729A
:1010C000646F0000000000003E5B4F5B3E3E6B4FD4
:1010D0006B3E1C3E7C3E1C183C7E3C181C577D57CA
:1010E0001C1C5E7F5E1C00183C1800FFE7C3E7FF76
:1010F0000018241800FFE7DBE7FF30483A060E2609
:1011000029792926407F050507407F05253F5A3C60
:10111000E73C5A7F3E1C1C08081C1C3E7F14227FA3
:1011200022145F5F005F5F06097F017F006689957B
:101130006A606060606094A2FFA29408047E040864
:1011400010207E201008082A1C08081C2A08081EE7
:10115000101010100C1E0C1E0C30383E3830060ECD
:101160003E0E06000000000000005F0000000700C7
:101170000700147F147F14242A7F2A122313086483
:101180006236495620500008070300001C22410027
:101190000041221C002A1C7F1C2A08083E08080067
:1011A0008070300008080808080000606000201007
:1011B0000804023E5149453E00427F4000724949C1
:1011C00049462141494D331814127F1027454545A2
:1011D000393C4A49493141211109073649494936C3
:1011E000464949291E000014000000403400000058
:1011F000081422411414141414004122140802018A
:101200005909063E415D594E7C1211127C7F4949B5
:1012100049363E414141227F4141413E7F49494952
:10122000417F090909013E414151737F0808087F48
:1012300000417F41002040413F017F081422417F4F
:10124000404040407F021C027F7F0408107F3E41E7
:1012500041413E7F090909063E4151215E7F09193E
:101260002946264949493203017F01033F40404056
:101270003F1F2040201F3F4038403F631408146345
:1012800003047804036159494D43007F4141410201
:1012900004081020004141417F0402010204404043
:1012A000404040000307080020545478407F284401
:1012B00044383844444428384444287F38545454EB
:1012C0001800087E090218A4A49C787F08040478FA
:1012D00000447D40002040403D007F102844000035
:1012E000417F40007C047804787C0804047838440A
:1012F000444438FC1824241818242418FC7C0804BE
:101300000408485454542404043F44243C404020DE
:101310007C1C2040201C3C4030403C442810284489
:101320004C9090907C4464544C440008364100003A
:1013300000770000004136080002010204023C264A
:1013400023263C1EA1A161123A4040207A38545411
:101350005559215555794121545478412155547896
:101360004020545579400C1E52721239555555592A
:10137000395454545939555454580000457C41004F
:1013800002457D420001457C40F0292429F0F028E7
:101390002528F07C545545002054547C547C0A097F
:1013A0007F4932494949323248484832324A4848EE
:1013B000303A4141217A3A42402078009DA0A07DF8
:1013C00039444444393D4040403D3C24FF242448B6
:1013D0007E4943662B2FFC2F2BFF0929F620C0885E
:1013E0007E090320545479410000447D413048482F
:1013F0004A32384040227A007A0A0A727D0D193149
:101400007D2629292F28262929292630484D4020A4
:10141000380808080808080808382F10C8ACBA2F80
:10142000102834FA00007B000008142A1422221429
:101430002A14089500220095AA005500AAAA55AAC8
:1014400055AA000000FF00101010FF00141414FF34
:10145000001010FF00FF1010F010F0141414FC0026
:101460001414F700FF0000FF00FF1414F404FC1430
:101470001417101F10101F101F1414141F00101029
:1014800010F0000000001F101010101F101010109E
:10149000F010000000FF101010101010101010FFBE
:1014A00010000000FF140000FF00FF00001F1017D5
:1014B0000000FC04F414141710171414F404F400BE
:1014C00000FF00F714141414141414F700F7141484
:1014D00014171410101F101F141414F4141010F00B
:1014E00010F000001F101F0000001F14000000FC7F
:1014F000140000F010F01010FF10FF141414FF146B
:101500001010101F00000000F010FFFFFFFFFFF0A1
:10151000F0F0F0F0FFFFFF0000000000FFFF0F0FF2
:101520000F0F0F38444438447C2A2A3E147E0202AE
:101530000606027E027E0263554941633844443CFC
:1015400004407E201E2006027E020299A5E7A5998E
:101550001C2A492A1C4C7201724C304A4D4D3030C5
:1015600048784830BC625A463D3E494949007E01B0
:1015700001017E2A2A2A2A2A44445F444440514ACF
:10158000444040444A51400000FF0103E080FF0016
:101590000008086B6B083612362436060F090F0652
:1015A000000018180000001010003040FF0101007A
:1015B0001F01011E00191D1712003C3C3C3C00009D
:1015C00000000001020408102040800000000024F8
:1015D0000027002A002D0030000000000025002810
:1015E000002B002E0031000404040404030405024F
:1015F00002020204030202020206060606060604AE
:101600000402020204040408020110408040102079
:1016100040804080080204018040201002011080B8
:1016200010204040200000000200090F00000304C9
:1016300001000C000000000000000000000000009D
:1016400000000000242E11241FBECFEFDAE0DEBF21
:10165000CDBF12E0A0E0B1E0ECECF7E602C00590EF
:101660000D92AC33B107D9F727E0ACE3B2E001C08B
:101670001D92A130B207E1F71BE0C3E2DBE004C03A
:101680002197FE010E94D42FC232D107C9F70E94D0
:10169000AF1F0C94E4330C940000FC0122813381D1
:1016A00086819781820F931F938382832481358162
:1016B00080859185820F931F95838483089588E0A8
:1016C000089588E00895DC011A96EC91E770F0E047
:1016D000EE0FFF1FEE50FE4F80819181089583E051
:1016E00090E0089588E090E0089588E0089588E00B
:1016F0000895FC018285811103C08FE397E008956E
:1017000080EF9FE0089586E090E0089588E00895D6
:1017100088E00895FC018285811103C083E597E08C
:10172000089588ED9FE0089582E090E0089587E0B5
:1017300090E0089588E0089588E00895FC012785E9
:10174000243051F4858596858F31910540F4892B9D
:1017500049F48DE597E008958EEC9FE0089584ECC0
:101760009FE008958AEB9FE00895FC01878590E053
:10177000089588E0089588E00895FC01828581112C
:1017800003C087E697E008958EE69FE0089581E024
:1017900090E008952F923F924F925F926F927F92C6
:1017A0008F929F92AF92BF92CF92DF92EF92FF9271
:1017B0000F931F93CF93DF93EC018B01CA80DB80E3
:1017C000DB011296AD90BC901397CA14DB04B4F4FD
:1017D000E881F9810284F385E02D0995B0E28B9FC1
:1017E00040011124F801E280F3800190F081E02DA6
:1017F0000284F385E02DC801099516C0DB01ED9147
:10180000FC910284F385E02DCB010995B0E28B9F1A
:1018100040011124EA80FB80E881F9810284F3858C
:10182000E02DCE01099565016C807D80F801448032
:10183000558064147504C4F4E881F9810484F58545
:10184000E02DCE010995F0E28F9F50011124D801BF
:1018500014962D903C901597ED91FC910484F5859C
:10186000E02DC801099516C00190F081E02D048497
:10187000F585E02DC8010995B0E28B9F5001112438
:101880002C803D80E881F9810484F585E02DCE012E
:1018900009953201EC18FD08E814F90434F426180F
:1018A000370881E02A143B040CF080E0DF91CF91EF
:1018B0001F910F91FF90EF90DF90CF90BF90AF906E
:1018C0009F908F907F906F905F904F903F902F9060
:1018D0000895FC0186819781009729F01CF021E092
:1018E000228701C0128622813381820F931F938346
:1018F00082832481358180859185820F931F958312
:1019000084830895CF93DF93EC018B859C85181613
:1019100019064CF4CE010E94690C8B859C85C097FA
:101920009C878B8702C01C861B86DF91CF91089510
:10193000CF93DF93EC018B859C85181619064CF428
:10194000CE010E94690C8B859C85C0979C878B87F4
:1019500002C01C861B86DF91CF910895089580E018
:10196000089580E0089580E090E0089580E090E0A0
:1019700008950F931F93CF93DF93FC018585811109
:1019800050C083859485009709F048C0232BD9F176
:10199000E801A881B9811097B1F112962D913C917F
:1019A000139782819381281B390B14968D919C91FA
:1019B000159744815581841B950BA901415E5F4FAA
:1019C0004F33510518F4178216820AC012161306F7
:1019D0001CF42AE030E002C026EF3FEF3783268375
:1019E0009C01215E3F4F2F33310518F4118610867C
:1019F0000AC0181619061CF48AE090E002C086EFAF
:101A00009FEF91878087EF010E940A2F6FE070E0BF
:101A10000E94C02F0F969C878B8703C001979487E5
:101A20008387DF91CF911F910F9108952F923F925D
:101A30004F925F926F927F928F929F92AF92BF92DE
:101A4000CF92DF92EF92FF920F931F93CF93DF938A
:101A500000D000D000D0CDB7DEB77C016901DC0139
:101A6000ED91FC910480F581E02D0995049709F032
:101A700076C001151105A1F1D801ED91FC913097C7
:101A800079F1D70112962D913C9113978281938120
:101A9000281B390B14968D919C9115976481758143
:101AA0001D964D915C911E974115510531F04150A5
:101AB00051091E965C934E931D9720563E4F21343C
:101AC000334070F4861B970B80569E4F81349340B1
:101AD00038F48CE390E0D7011E969C938E931D976B
:101AE000F701838594850097C1F50E940A2F69E06C
:101AF00070E00E94C02FBC01660F771F660F771F32
:101B0000665D7F4E44E050E0CE0101960E941A2FA0
:101B100089819A8145E0880F991F4A95E1F7D7019D
:101B200017969C938E9316978B819C8155E0880F16
:101B3000991F5A95E1F719969C938E9318970E94D6
:101B40000A2F6EE170E00E94C02F97FD01969595D7
:101B50008795F70194878387C5C00197BEC0C114DC
:101B6000D10409F4BFC00115110509F4BBC0F80187
:101B700080819181892B09F4B5C00E940A2F1E83B0
:101B80000D8388248A94982CA82C9FE7B92E40E0D6
:101B900050E0ED81FE81A191B191FE83ED8312961B
:101BA0008D919C911397F70162817381861B970B2E
:101BB00014962D913C911597A481B5812A1B3B0B5E
:101BC000889F3001899F700C700C1124229FC001E6
:101BD000239F900D900D1124860D971D2C01990FB8
:101BE00066087708481459046A047B041CF45301FE
:101BF00042011A014F5F5F4F4C155D0551F62101FF
:101C0000440C551C040D151DF80180819181FC01C7
:101C1000A280B380A61AB70AC480D580CA1ADB0A8C
:101C20000190F081E02D0284F385E02D0995950166
:101C3000B7FE04C0222733272A193B09F0E28F9F01
:101C4000C00111242817390734F4D70117961C92C4
:101C50001E92169710C01A141B0434F48AE090E008
:101C6000F7019783868307C086EF9FEFD70117960A
:101C70009C938E931697F80180819181DC01ED9100
:101C8000FC910484F585E02D09959601D7FE04C0EA
:101C9000222733272C193D09B0E28B9FC001112464
:101CA0002817390724F4F7011186108610C01C1478
:101CB0001D0444F48AE090E0D70119969C938E931A
:101CC000189705C086EF9FEFF701918780870E94E4
:101CD0000A2F6EE170E00E94C02FD7011C969C93E2
:101CE0008E931B9726960FB6F894DEBF0FBECDBF1E
:101CF000DF91CF911F910F91FF90EF90DF90CF90E8
:101D0000BF90AF909F908F907F906F905F904F901B
:101D10003F902F9008954F925F926F927F928F9293
:101D20009F92AF92BF92CF92DF92EF92FF920F936A
:101D30001F93CF93DF9300D000D0CDB7DEB77C01E7
:101D40006901DC011D968D919C911E97009729F0E9
:101D500001971E969C938E931D97F7018785908916
:101D6000009719F00197908B87870E940A2F66E0F1
:101D700070E00E94C02F8130910509F467C0823065
:101D8000910509F4F5C0892B09F07EC2D7011D9693
:101D90008D919C911E97892B09F076C20E940A2F83
:101DA00069E070E00E94C02FBC0188309105E8F422
:101DB000FC01E35AFF4F0C94D42FF701128660E028
:101DC00070E013C082E0D7011A968C9362E070E055
:101DD0000CC084E0F701828764E070E006C086E012
:101DE000D7011A968C9366E070E0660F771F660F36
:101DF000771F665D7F4E44E050E0CE0101960E9461
:101E00001A2F49815A8185E0849F9001859F300D6A
:101E10001124F701378326834B815C81849F9001D5
:101E2000859F300D1124318720870E940A2F6EE193
:101E300070E00E94C02F97FD019695958795873099
:101E4000910508F08FC087E090E086C0D7011D960D
:101E50008D919C911E97892B09F016C2CD2809F40B
:101E60006EC0D801ED91FC91309709F468C0C28032
:101E7000D380D7011296AD90BC9013970481158141
:101E800014968D909C9015970E940A2F62E070E046
:101E90000E94C02F009719F0019751F150C0C60160
:101EA0008A199B099C01215E3F4F2F33310520F495
:101EB000F7011782168216C01816190664F482E01C
:101EC000D7011A968C931A9785E090E017969C9309
:101ED0008E93169707C086E0F70182878BEF9FEFFE
:101EE00097838683D70119961C921E92189727C054
:101EF000C801881999099C01215E3F4F2F33310594
:101F000020F4F7011186108615C01816190664F41E
:101F100084E0D7011A968C931A9785E090E0199681
:101F20009C938E93189706C0F70112868BEF9FEF54
:101F300091878087D70117961C921E9216970E9450
:101F40000A2F6EE170E00E94C02F97FD01969595D3
:101F500087958730910520F0F7019687858794C192
:101F600087E090E0D7011E969C938E931D978CC1BD
:101F7000F70187859089892B09F086C1CD2809F45E
:101F800083C1D801ED91FC91309709F47DC1D7014F
:101F90001B968D909C901C978114910409F474C138
:101FA000D4011B968D919C911C97181619060CF460
:101FB0006BC1D70112966D907C901397C280D3802D
:101FC000C618D70814964D905C901597A480B580DC
:101FD000A418B508F7011682178210861186E285CB
:101FE0008E2F90E08830910508F01AC1FC01EB5962
:101FF000FF4FD8018D919C910C94D42FDC01ED9171
:10200000FC910284F385E02D0995B0E18B9F600C73
:10201000711C1124F40173826282D7011B96ED9129
:10202000FC911C9714968D919C91159795838483B0
:10203000F80180819181DC01ED91FC910484F585AA
:10204000E02D0995B7FE03C0B194A194B108B0E2A8
:102050008B9FC0011124D7011B96ED91FC911C9719
:10206000A816B9060CF499C080ED9FEF9EC0DC0164
:10207000ED91FC910284F385E02D0995B0E28B9FF0
:10208000600C711C1124F40173826282D7011B96CB
:102090008D909C901C971496AD90BC901597F8016C
:1020A00080819181DC01ED91FC910484F585E02D26
:1020B0000995B0E18B9FA00CB11C1124F401B582ED
:1020C000A482D8018D919C91DC01ED91FC91028458
:1020D000F385E02D09959601D7FE04C0222733270A
:1020E0002C193D09B0E28B9FC0011124D7011B962A
:1020F000ED91FC911C97281739070CF488C01C142B
:102100001D040CF08BC080E390E086C0DC01ED91F3
:10211000FC910284F385E02D0995B0E18B9F600C62
:10212000711C1124F40173826282D7011B968D9079
:102130009C901C971496CD90DC901597F8018081A7
:102140009181DC01ED91FC910484F585E02D0995E8
:10215000B0E28B9FC00CD11C1124F401D582C48243
:10216000D8018D919C91DC01ED91FC910484F58561
:10217000E02D09959501B7FE04C0222733272A19BF
:102180003B09B0E28B9FC0011124D7011B96ED9152
:10219000FC911C97281739071CF41186108607C07C
:1021A0001A141B0424F480E390E09187808717823F
:1021B000168236C0F40173826282DC01ED91FC91DB
:1021C0000484F585E02D0995B0E18B9F400C511CEE
:1021D0001124F40155824482D8018D919C91DC0137
:1021E000ED91FC910284F385E02D0995D7FE03C0A3
:1021F000D194C194D108B0E28B9FC0011124D701C2
:102200001B96ED91FC911C97C816D9061CF41782F9
:10221000168204C080ED9FEF978386831186108617
:10222000D7011B96ED91FC911C9786819781892B94
:1022300021F480859185892B39F188EF9FE00E94F8
:10224000171DD7011B96ED91FC911C9780E090E142
:10225000948783870E940A2F6EE170E00E94C02F4E
:1022600047E0489F9001499F300D11242A353105E0
:1022700020F0F701308B278707C08AE590E0D7016F
:1022800050969C938E931F970F900F900F900F90E6
:10229000DF91CF911F910F91FF90EF90DF90CF9042
:1022A000BF90AF909F908F907F906F905F904F9076
:1022B0000895AF92BF92CF92DF92EF92FF920F9369
:1022C0001F93CF93DF9300D000D0CDB7DEB77C0152
:1022D0006901DC011D968D919C911E97009729F054
:1022E00001971E969C938E931D97F7018785908981
:1022F000009719F00197908B87870E940A2F66E05C
:1023000070E00E94C02F81309105A1F182309105CB
:1023100009F4A0C0892B09F061C1D7011D968D91E8
:102320009C911E97892B09F059C10E940A2F69E0E0
:1023300070E00E94C02FBC01660F771F660F771FE9
:10234000665D7F4E44E050E0CE0101960E941A2F58
:1023500089819A8145E0880F991F4A95E1F7F70135
:10236000978386838B819C8155E0880F991F5A95AE
:10237000E1F755C0D7011D968D919C911E97892B31
:1023800009F02CC1CD2809F44CC0D801ED91FC9185
:10239000309709F446C022813381D70112968D917E
:1023A0009C911397281B390B8481958114964D912C
:1023B0005C911597841B950BA901415E5F4F4F33CC
:1023C000510528F417961C921E92169710C01216EB
:1023D000130634F420E230E0F7013783268307C088
:1023E00020EE3FEFD70117963C932E9316979C0152
:1023F000215E3F4F2F33310520F4F70111861086FF
:1024000010C01816190644F480E290E0D70119961E
:102410009C938E93189705C080EE9FEFF7019187EC
:1024200080870E940A2F6EE170E00E94C02F97FD06
:102430000196959587958730910530F0D7011E96C6
:102440009C938E931D97CAC087E090E0F701968712
:102450008587C4C0D7011F968D919C915097892B79
:1024600009F0BCC0CD2809F4B9C0F8014081518100
:102470004115510509F4B2C01B96ED91FC911C97D2
:10248000309709F4ABC083859485181619060CF4AF
:10249000A5C012962D913C911397DA011296AD903A
:1024A000BC901397A21AB30AD70114968D919C91F0
:1024B0001597DA011496CD90DC901597C81AD90AB1
:1024C000D70116961D921D921D921C921997338367
:1024D000228395838483F80180819181DC01ED91D1
:1024E000FC910284F385E02D09959501B7FE04C0A7
:1024F000222733272A193B09B0E28B9FC001112400
:10250000D7011B96ED91FC911C97281739071CF4F5
:10251000178216820AC01A141B041CF480E390E090
:1025200002C080ED9FEF97838683F80180819181BF
:10253000DC01ED91FC910484F585E02D099596016F
:10254000D7FE04C0222733272C193D09B0E28B9F08
:10255000C0011124D7011B96ED91FC911C972817FF
:1025600039071CF4118610860AC01C141D041CF4C3
:1025700080E390E002C080ED9FEF918780878681A5
:102580009781892B21F480859185892B39F180EE03
:102590009FE00E94171DD7011B96ED91FC911C979F
:1025A00080E496E0948783870E940A2F6EE170E0B2
:1025B0000E94C02F47E0489F9001499F300D112491
:1025C0002A35310520F0F701308B278707C08AE5CF
:1025D00090E0D70150969C938E931F970F900F9089
:1025E0000F900F90DF91CF911F910F91FF90EF907F
:1025F000DF90CF90BF90AF9008950C946F300C9403
:102600006F300C946F300C946F300C946F300C94CE
:102610006F300C946F300C946F30FC01838594857F
:1026200018161906BCF4648175818281938135E0A6
:10263000959587953A95E1F78038910558F425E00E
:10264000759567952A95E1F76034710518F441E0B6
:102650000C94A01D0895CF93DF93EC010E942F1DD1
:1026600085FF0DC02B853C858E819F811216130638
:102670001CF48054910901C08A979F838E830E9425
:102680002F1D86FF0DC02B853C858E819F811216E4
:1026900013061CF4805C9F4F01C08A969F838E8333
:1026A0000E942F1D87FF0DC02B853C85888599854D
:1026B000121613061CF48054910901C08A97998759
:1026C00088870E942F1D84FF0DC02B853C8588853F
:1026D0009985121613061CF4805C9F4F01C08A96E0
:1026E000998788878D859E85009769F40E942F1DA4
:1026F00083FD37C00E942F1D82FF0FC08B859C85F4
:10270000892B79F10AC001979E878D87892B29F43F
:1027100040E061E080E00E944C1D8B859C85009725
:1027200071F12E813F81232B21F428853985232BBC
:1027300031F18054910997FD03C09C878B8702C0BB
:102740001C861B868B859C85892BC9F486E990E0C5
:102750009E878D8740E060E081E0DF91CF910C940F
:102760004C1D80E897E09C878B8740E061E081E02A
:102770000E944C1D86E79FE00E94171DCECFDF917F
:10278000CF910895EF92FF920F93CF93DF931F9213
:10279000CDB7DEB77C01DC01ED91FC910084F185C1
:1027A000E02D0995892B71F1D701ED91FC910484FD
:1027B000F585E02DC7010995082FD701ED91FC9112
:1027C0000284F385E02DC7010995282FD701ED91EB
:1027D000FC910084F185E02DC70129830995AC01A6
:1027E000F7016481758185E0759567958A95E1F7B4
:1027F00082819381298135E0959587953A95E1F716
:102800000E94FC150F90DF91CF910F91FF90EF90F8
:102810000895FC012585211102C00C94C21308956E
:10282000CF93DF93EC010E94C2131E821F82188691
:102830001986DF91CF910895089508950895089518
:102840000895089508950895FC01808191810C9464
:10285000332FFC0180915E02811103C08FEF9FEF47
:1028600008959FB7F89482E08093E9002091F200E8
:1028700030E01216130614F421E030E02115310582
:1028800059F0289884E680935D028091F10080835E
:102890008091F200882319F09FBFC90108958BE64B
:1028A0008093E800F9CF8091850681110DC082E008
:1028B0008093810684E080938206109284061092B1
:1028C000830681E08093850681E896E00895CF93A2
:1028D000DF931F92CDB7DEB76983DC01ED91FC91E8
:1028E0000280F381E02D41E050E0BE016F5F7F4F39
:1028F00009950F90DF91CF91089583E08093E900CF
:102900008091F200882319F08AE38093E80008950B
:10291000CF93DF931F92CDB7DEB7FC0184859585F9
:1029200097FD05C02FEF3FEF358724870BC0CE0101
:1029300001960E942914019719F4898190E002C040
:102940008FEF9FEF0F90DF91CF9108950F931F931B
:10295000CF93DF931F92CDB7DEB78C01FC01848546
:10296000958597FF0EC0CE0101960E94291401970C
:1029700019F4298130E002C02FEF3FEFF8013587CD
:102980002487F801848595850F90DF91CF911F9161
:102990000F910895FC018485958597FD0BC09FB725
:1029A000F89482E08093E9008091F2009FBF90E06C
:1029B000019608959FB7F89482E08093E900809192
:1029C000F2009FBF90E00895009769F0FC0101902C
:1029D0000020E9F73197AF01481B590BBC0182E693
:1029E00096E00C94F11980E090E008957F928F9228
:1029F0009F92AF92BF92CF92DF92EF92FF920F938E
:102A00001F93CF93DF936C015B017A0180910F01DB
:102A1000882309F46BC080915E02882309F466C0A4
:102A200080915C0280FF05C08091E000826080930D
:102A3000E000E70110E00AEF83E0982E90E4792EA1
:102A40002AE3822E209709F448C08FB7F894909219
:102A5000E9009091E80095FF06C09091F200272DC3
:102A6000291B922F01C090E08FBF91110AC0015025
:102A700009F43CC061E070E080E090E00E94331C0B
:102A8000E1CF292F30E0C217D3070CF49C2F8FB76A
:102A9000F8949092E9002091E80025FF1CC0292FAE
:102AA00030E0C21BD30BF501915020F041914093CF
:102AB000F100FACFA20EB31E112319F08092E800A4
:102AC00009C09091E80095FD06C08092E80011E0F1
:102AD000209709F010E08FBFB5CF1111B6CF5D98E8
:102AE00084E6809380061E141F0444F081E090E089
:102AF000F6019383828380E090E001C0C701DF91FB
:102B0000CF911F910F91FF90EF90DF90CF90BF90EA
:102B1000AF909F908F907F9008950F931F93CF93C6
:102B2000DF931F92CDB7DEB782E0898342E450E0A5
:102B30006EE470E180E80E947B1F0E945314DC0168
:102B400012960D911C9113970115110569F0D8018A
:102B5000ED91FC910280F381E02DBE016F5F7F4F0C
:102B6000C801099597FF07C089810F90DF91CF9128
:102B70001F910F910895F80100851185E5CFCF923F
:102B8000DF92EF92FF920F931F93CF93DF931F92E9
:102B9000CDB7DEB7182F062FE42E862F880F8E5F55
:102BA00099830E944D1F83E00E944D1FF12EC12E7C
:102BB0009981D92E8C2D8F19801798F4F601E7FE94
:102BC00002C0849101C080810E944D1F182F80E0B7
:102BD0000E944D1F8123FFEFCF1ADF0A8111EACF38
:102BE00001C081E00F90DF91CF911F910F91FF9075
:102BF000EF90DF90CF9008952F923F924F925F9287
:102C00006F927F928F929F92AF92BF92CF92DF92FC
:102C1000EF92FF920F931F93CF93DF93CDB7DEB761
:102C200028970FB6F894DEBF0FBECDBF5A01822E93
:102C3000912C9C01280D391D37FDC4C080389105A9
:102C40000CF0C0C09B01200F311D37FDBBC06034AC
:102C500071050CF0B7C0AB0177FF04C044275527BE
:102C6000461B570B477055279B0177FF02C0295F12
:102C70003F4FE3E035952795EA95E1F777FF08C0E8
:102C80002150310968E070E0DB01A41BB50BAD01F8
:102C9000602F66956695669570E0077011F06F5F1E
:102CA0007F4FDB01A20FB31FBA83A983390176944A
:102CB000762C662477946794680E791EE12CF12CAB
:102CC00000E010E02301B0E84B0E511C68E070E01A
:102CD000DB01A41BB50BBC83AB8369817A8126170A
:102CE000370709F46FC02830310509F46BC02F3F56
:102CF000BFEF3B070CF45BC0B201600F711FDB013B
:102D0000A15ABD4FBE83AD83D801A60DB71DA15AF0
:102D1000BD4F6C0160E070E0681579050CF047C0AC
:102D2000E0E8CE16D10409F442C0D7FC34C02F3FEE
:102D3000FFEF3F0709F442C0FB01EE0DFF1DEA0D56
:102D4000FB1DE491042E01C0EE0F0A94EAF73C90BB
:102D5000E329EC9341155105F1F027303105D9F005
:102D6000FB01EE0DFF1DEA0DFB1DE4912E2E312C13
:102D7000F1010B8002C0F595E7950A94E2F7F88718
:102D8000EF83ED81FE813080EF81F885E3291F011B
:102D9000ED81FE8120826F5F7F4FED81FE81319654
:102DA000FE83ED83FFEFCF1ADF0A1196B5CF2F5FB9
:102DB0003F4F00581F4FE80CF91C8FCF41155105AC
:102DC00079F6E9CF28960FB6F894DEBF0FBECDBFD7
:102DD000DF91CF911F910F91FF90EF90DF90CF90F7
:102DE000BF90AF909F908F907F906F905F904F902B
:102DF0003F902F900895FC019C01295F3F4F80E098
:102E00009191892798E04CE8869508F484279A9553
:102E1000D9F7E217F307A1F7089580915F028EBDFD
:102E2000E0E6F2E081910DB407FEFDCF8EBD86E0B5
:102E3000EF35F807B9F70DB407FEFDCF089520E090
:102E40008FE592E0B22FB111BFEFFC010024B193E6
:102E5000B193B193B1930394D1F7E2E6F6E0118E0A
:102E6000108E178A168A0895CF93DF930E94E41478
:102E7000EC0188E392E00E94E4148C0F9D1FDF9127
:102E8000CF9108950C94E41420916C06282329F422
:102E900090916B06982381E009F480E008951F92D9
:102EA0000F920FB60F9211248F939F938091E100A0
:102EB0009091E100937F9093E10083FF0FC0109207
:102EC000E90091E09093EB001092EC0092E3909374
:102ED000ED0010925E0298E09093F00082FF20C017
:102EE00093E09093E9009091F200992319F09AE30E
:102EF0009093E80090918006992339F09091800694
:102F0000915090938006992389F190915D029923C5
:102F100039F090915D02915090935D02992341F1B7
:102F200084FF10C08091E2008E7E81608093E20079
:102F30008091E1008F7E8093E10080915C028E7E23
:102F4000806111C080FF16C08091E2008E7E80619A
:102F50008093E2008091E1008E7E8093E100809179
:102F60005C028E7E816080935C0204C05D9ACDCF4E
:102F7000289AD6CF9F918F910F900FBE0F901F90E0
:102F800018951F920F920FB60F921124CF92DF92D5
:102F9000EF92FF920F931F932F933F934F935F9363
:102FA0006F937F938F939F93AF93BF93EF93FF9311
:102FB000CF93DF93CDB7DEB76C97DEBFCDBF109256
:102FC000E9008091E80083FFEDC168E0CE014596FD
:102FD0000E94A21F82EF8093E8008D8987FF05C0C1
:102FE0009091E80090FFFCCF03C09EEF9093E80023
:102FF000982F907609F0C6C09E892F89188D91115F
:103000000CC0803829F480915B028093F10002C0EB
:103010001092F1001092F10048C1422F50E0512B64
:10302000913051F4811141C14130510509F03DC148
:1030300080915B028D7F0BC0933061F4811135C1AB
:103040004130510509F031C180915B02826080936B
:103050005B022BC1953041F48091E80080FFFCCFEA
:1030600020682093E30021C1963009F05FC0EB8C0B
:10307000FC8C1092E9001092590210925802123002
:1030800091F510925702109256020E948D1599E008
:10309000BE016F5F7F4FDB01E92F1D92EA95E9F7D3
:1030A00099831A8391E09E8390EA98879AEF998793
:1030B0002091580230915902275F3F4F3C832B8368
:1030C0008D831092E9001092590210925802F092EA
:1030D0005702E092560249E050E080E00E947B1FD8
:1030E0000E948D15E2C0F0925702E09256020E94B3
:1030F0005314DC011296ED90FC901397E114F10447
:1031000009F4C0C0D701ED91FC910480F581E02D58
:10311000BE016B5E7F4FC7010995009719F00CF057
:10312000C4C0C7C0F701E084F184E8CF973009F448
:10313000C0C0983021F481E08093F100B6C099308E
:1031400009F0B3C0837009F0B4C0E3E0F2E081E0BD
:1031500021E036E39081992361F08093E900209388
:10316000EB0091919093EC003093ED008F5F8730EE
:1031700089F78EE78093EA001092EA008F898093A6
:103180005E0293C08B8D9C8D1092E90010925902C3
:10319000109258029093570280935602898D8111A4
:1031A00056C08E899D89913A59F4813209F081C0C7
:1031B00047E050E068E071E080E00E947B1F75C04E
:1031C000913209F076C0833289F4888D90E0982F8F
:1031D00088272F89822BA0E0B0E080930401909390
:1031E0000501A0930601B09307015FC0803269F426
:1031F0008091E80082FFFCCF67E088E091E00E94C8
:10320000A21F8BEF8093E80006C0823209F04DC008
:103210008F8980930F0180915A02882319F0EEEF75
:10322000FAE002C0E0E0F8E0809108019091090125
:10323000A0910A01B0910B01803B9440A105B1051A
:1032400009F07BC080910F0180FF93C076C00E947F
:103250005314DC0112960D911C9113970115110561
:1032600041F1D801ED91FC910190F081E02DBE017A
:103270006B5E7F4FC8010995811117C0F801008569
:103280001185ECCF113009F44EC0133091F48F89C1
:10329000882309F445C0823081F440E860E182EB84
:1032A00090E10E94BF15882321F08EEF8093E80003
:1032B00079C081E28093EB0075C0813029F440E849
:1032C0006BE086EA90E1EDCF833099F70E945314CA
:1032D000DC011296ED90FC9013978E010F5F1F4F4B
:1032E0006801E114F10479F0D701ED91FC910680B9
:1032F000F781E02DB801C7010995080F111DF701ED
:10330000E084F184EECFD8011C92F60101900020F8
:10331000E9F73197BF016C197D0940E0C601C1CFC3
:1033200060E970E102C064E970E16115710509F2BC
:10333000FB01449150E080E840CF0FB6F894A89587
:1033400080916000886180936000109260000FBEE1
:10335000A895EE3F2AE0F20739F08091FE0A90919D
:10336000FF0A91838083A1CF1092FF0A1092FE0A78
:103370009CCFEE3F8AE0F80731F0808191819093F5
:10338000FF0A8093FE0A87E797E7918380839BE09B
:1033900088E10FB6F894A895809360000FBE9093D3
:1033A000600083CF6C960FB6F894DEBF0FBECDBF22
:1033B000DF91CF91FF91EF91BF91AF919F918F914D
:1033C0007F916F915F914F913F912F911F910F913D
:1033D000FF90EF90DF90CF900F900FBE0F901F9057
:1033E0001895CF92DF92EF92FF920F931F93CF9396
:1033F000DF936C017A018B01C0E0D0E0CE15DF05D0
:1034000089F0D8016D918D01D601ED91FC9101906B
:10341000F081E02DC6010995892B11F47E0102C0CF
:103420002196ECCFC701DF91CF911F910F91FF90B3
:10343000EF90DF90CF900895362F90E0FC01EB5D88
:10344000F94E4491FC01EA5FF94E2491FC01E951E7
:10345000FA4E8491882309F451C04423E1F150E0ED
:10346000FA013197EF30F105B0F5E359FF4F0C94B5
:10347000D42F909180009F7707C0909180009F7D0E
:1034800003C090918000977F9093800024C094B5F2
:103490009F7702C094B59F7D94BD1DC09091900010
:1034A0009F7707C0909190009F7D03C090919000FE
:1034B000977F909390000FC09091C0009F7703C0BA
:1034C0009091C0009F7D9093C00005C09091C20074
:1034D000977F9093C200E82FF0E0EE0FFF1FE752B6
:1034E000FA4EA591B4918FB7F894EC91311103C0C5
:1034F00020952E2301C02E2B2C938FBF0895CF93A0
:10350000DF93DB01482F50E0FA01EA5FF94E949116
:10351000FA01E951FA4E2491222399F030E0220F6A
:10352000331FF901E553FA4EC591D491F901E752E1
:10353000FA4E259134912FB7F894E881E92BE8836E
:103540002FBF109711F460E004C0AF3FB10529F41C
:1035500061E0DF91CF910C941C1AFA01EB5DF94EFA
:10356000E4914E2F50E0FA013197EF30F10508F069
:103570006CC0E458FF4F0C94D42F84B5806884BD90
:10358000A7BD68C084B5806284BDA8BD63C08091BA
:103590008000806880938000B0938900A0938800A9
:1035A00059C080918000806280938000B0938B002E
:1035B000A0938A004FC08091800088608093800033
:1035C000B0938D00A0938C0045C0809190008068DE
:1035D00080939000B0939900A09398003BC0809195
:1035E0009000806280939000B0939B00A0939A001B
:1035F00031C080919000886080939000B0939D00CE
:10360000A0939C0027C08091C00080688093C00078
:103610008091C0008F7B8093C000A093CF001AC020
:103620008091C00080628093C000A093D00012C03F
:103630008091C20088608093C2008091C2008B7F1D
:103640008093C200A093D20005C0A038B1050CF051
:103650007FCF79CFDF91CF9108953FB7F8948091D4
:10366000F9069091FA06A091FB06B091FC0626B5EA
:10367000A89B05C02F3F19F00196A11DB11D3FBFAA
:10368000BA2FA92F982F8827820F911DA11DB11D38
:10369000BC01CD0142E0660F771F881F991F4A9534
:1036A000D1F708958091F106E091EF06F091F006D0
:1036B000882349F0CF0102969093F0068093EF069D
:1036C000859194910895CF0102969093F00680938E
:1036D000EF06808191810895CF92DF92EF92FF9261
:1036E0000F931F93CF93DF930E94521B811520E805
:1036F000920761F4809171008D7F80937100109228
:10370000910046984798109240028BC021E0209388
:103710004002813020E8920751F48091ED069091AB
:10372000EE069093F0068093EF060E94521B97FDE1
:1037300005C02091EC06222309F43FC02091EB063E
:1037400021113BC021E02093F206EC01DF772097A6
:1037500069F481E08093F30646983FE9C32E3FE089
:10376000D32EE12CF12CCAEFD0E014C08E0120E062
:1037700030E060E472E48FE090E0A90198010E94DB
:10378000492F69017A0181E0C81AD108E108F108DE
:103790001092F306E0915F06F091600609958111A1
:1037A00003C081E08093F3068091F2068823B9F18B
:1037B0008091F306811133C003C01092F206C5CF89
:1037C00046992DC0479A0E94521B009771F09C01A8
:1037D000DE010E949D2FDC01CB0129E0B595A79564
:1037E000979587952A95D1F703C08FEF9FEFDC015E
:1037F000109290002AE020939100D0929900C092FC
:1038000098008093F4069093F506A093F606B09383
:10381000F7068091710082608093710002C0479822
:10382000D2CFDF91CF911F910F91FF90EF90DF905A
:10383000CF900895809141020895089588E00895F9
:1038400088E0089589E497E00895089589E090E07C
:103850000895FC01238521110C94C21308950E9440
:1038600007310C946F308F929F92AF92BF92CF929C
:10387000DF92EF92FF926B017C010E942D1B4B01A6
:103880005C01C114D104E104F104F1F00E942D1B8C
:10389000DC01CB0188199909AA09BB09883E93402C
:1038A000A105B10570F321E0C21AD108E108F108C1
:1038B00088EE880E83E0981EA11CB11CC114D104AF
:1038C000E104F10419F7DDCFFF90EF90DF90CF9086
:1038D000BF90AF909F908F9008951F920F920FB658
:1038E0000F9211242F933F938F939F93AF93BF9386
:1038F00080913C0290913D02A0913E02B0913F0226
:103900003091F80623E0230F2D3720F40196A11DF6
:10391000B11D05C026E8230F0296A11DB11D2093FD
:10392000F80680933C0290933D02A0933E02B09330
:103930003F028091F9069091FA06A091FB06B091A2
:10394000FC060196A11DB11D8093F9069093FA061D
:10395000A093FB06B093FC06BF91AF919F918F910E
:103960003F912F910F900FBE0F901F9018951F92AF
:103970000F920FB60F9211242F933F934F935F93A3
:103980006F937F938F939F93AF93BF93EF93FF9327
:103990008091F4069091F506A091F606B091F70695
:1039A000892B8A2B8B2B81F18091F30681110BC01F
:1039B00098B180E4892788B98091F206882319F0AC
:1039C00088B1805888B98091F4069091F506A0914D
:1039D000F606B091F706181619061A061B06B4F477
:1039E0008091F4069091F506A091F606B091F70645
:1039F0000197A109B1098093F4069093F506A0936D
:103A0000F606B093F70602C00E946C1BFF91EF917F
:103A1000BF91AF919F918F917F916F915F914F91E6
:103A20003F912F910F900FBE0F901F9018959C0102
:103A3000E1E7F0E090819D7F908381E08093F10643
:103A40003093F0062093EF063093EE062093ED06B8
:103A50000C946C1BBC0180E090E00C94331C8FB183
:103A60002CB193B130E02095309520743327A90113
:103A700023E0559547952A95E1F7292F30E02095C9
:103A80003095207133273595279535952795242B2B
:103A90008095807F822B0895EF92FF921F93CF93A2
:103AA000DF931F92CDB7DEB7162FEE24EA94F12CE8
:103AB000B701681B71098AE049830E947F1AB70128
:103AC000611B71098BE00E947F1A4981B701641B59
:103AD000710989E00F90DF91CF911F91FF90EF90D6
:103AE0000C947F1ACF93DF9300D01F92CDB7DEB72F
:103AF0006091410282E090E09A838983CE01019631
:103B00006B830E9424146B81681749F082E090E077
:103B10000F900F900F90DF91CF910C943B2F0F904F
:103B20000F900F90DF91CF910895109241023E982F
:103B30003F9808953E9A3F9A81E08093410208950C
:103B4000E3ECF5E190E1969FD001A0781124A80F55
:103B50006770E60FF11D8491A15ABD4F442321F0F7
:103B6000EC91E82BEC930895E82FE0958C918E234F
:103B70008C9308952F923F924F925F926F927F9213
:103B80008F929F92AF92BF92CF92DF92EF92FF926D
:103B90000F931F93CF93DF93CDB7DEB727970FB661
:103BA000F894DEBF0FBECDBFFC016A3069F4248DEE
:103BB000808D918D38E0239F800D911D1124918F70
:103BC000808F178A168AA6C06D3009F4A3C09F8320
:103BD0008E83348C238D2983328D3A83608C718C53
:103BE000E688F78880E8E816F104C4F0AE81BF816A
:103BF0005C962C915C97422F50E056968D919C914B
:103C00005797B6E02B9F800D911D1124EE81FF8107
:103C1000978B868B258D211167C07CC0F0E46F16D1
:103C2000710424F7C70125E0329E800D911D1124F7
:103C300018161906DCF6432C512CC30138E0339ECC
:103C4000800D911D11241816190684F685E0689FD1
:103C5000800111240D531F4E20E0F80124902530DF
:103C600009F4212C430158E020FC02C0398101C035
:103C70003A8131110BC0F9818A81F81307C026946B
:103C80005150840C951C5111EFCF25C067018C2D2C
:103C90008E198315A0F754018A2D88198315B8F45D
:103CA00090E8C916D10478F4A0E4AA16B10458F437
:103CB000432FB501C6012C833B835D830E94A01D69
:103CC0005D813B812C81BFEFAB1ABB0AE5CFEFEFE3
:103CD000CE1ADE0ADCCF2F5FE40CF51C0F5F1F4FFE
:103CE000263009F0BACF82CF6AEF64039001659F56
:103CF000300D112420583F4F281739075CF4AE814E
:103D0000BF81ED91FC9111970190F081E02D6AE067
:103D1000CD01099581E090E027960FB6F894DEBFBB
:103D20000FBECDBFDF91CF911F910F91FF90EF900C
:103D3000DF90CF90BF90AF909F908F907F906F90CB
:103D40005F904F903F902F900895EF92FF920F93C6
:103D50001F93CF93DF938C017C01C0E0D0E0F8018A
:103D600020A930E0C217D30788F4D7018D919D9127
:103D70007D01009749F0DC01ED91FC910680F7810F
:103D8000E02D62E676E009952196E9CFDF91CF91AB
:103D90001F910F91FF90EF9008955F926F927F9225
:103DA0008F929F92AF92BF92CF92DF92EF92FF924B
:103DB0000F931F93CF93DF9300D0CDB7DEB78C0165
:103DC000512CCC24CA94DC2C90E1E92EF12C580122
:103DD00028E0A20EB11C48013701601A710A8A144A
:103DE0009B0469F0C401860D971D9A838983CE01D7
:103DF00001960E942414F40181934F01F0CFC80171
:103E00000E94FB16F8019781891317C02081F0E109
:103E1000EF16F10441F0452D50E0822F90E001971C
:103E20004817590751F4522EC70108966701883F79
:103E300023E0920731F07C01CECFF0E1CF16D10420
:103E40009CF07601E01AF10A0A151B0591F0C701F2
:103E5000800F911F9A838983CE0101960E942414BA
:103E6000F80181938F01F0CF88E0F80111928A95D3
:103E7000E9F7C6010F900F90DF91CF911F910F913D
:103E8000FF90EF90DF90CF90BF90AF909F908F907A
:103E90007F906F905F9008950895409158025091DF
:103EA0005902209156023091570242175307B4F439
:103EB0009091E8009570E1F39091E80092FD19C0AF
:103EC0008093F100809158029091590201968F736E
:103ED0009927892B19F48EEF8093E800809158027E
:103EE000909159020196909359028093580281E073
:103EF000089580E00895DF92EF92FF920F931F9351
:103F0000CF93DF93D82E8A017B01E40EF51EEB01DF
:103F1000CE15DF0571F0D7FE03C0FE01849101C00C
:103F200088810E944D1F21968111F2CF8FEF9FEF64
:103F300001C0C801DF91CF911F910F91FF90EF90C9
:103F4000DF900895615030F02091F100FC01208352
:103F50000196F8CF289884E680935D020895CF9368
:103F6000DF93CDB7DEB7E7970FB6F894DEBF0FBE8D
:103F7000CDBF789484B5826084BD84B5816084BDF2
:103F800085B5826085BD85B5816085BD80916E00F7
:103F9000816080936E001092810080918100826028
:103FA0008093810080918100816080938100809165
:103FB0008000816080938000809191008260809376
:103FC0009100809191008160809391008091900098
:103FD0008160809390008091C10084608093C100D3
:103FE0008091C10082608093C1008091C100816096
:103FF0008093C1008091C30081608093C300809151
:10400000C00082608093C0008091C2008160809374
:10401000C20080917A00846080937A0080917A0057
:10402000826080937A0080917A00816080937A0028
:1040300080917A00806880937A0010925E021092DC
:104040005B0210925C028091D70081608093D70060
:1040500080EA8093D80089B5806189BD89B5826086
:1040600089BD09B400FEFDCF61E070E080E090E022
:104070000E94331C8091D8008F7C80618093D8008F
:104080008091E000807F8093E0008091E1008E7E4F
:104090008093E1008DE08093E200559A209AEEEF44
:1040A000FFE7859194918B3F9C4D19F481E08093BB
:1040B0005A0281EC80937C0085B1806F85B9249889
:1040C00084B1866E84B95E9A5F988AB1806D8AB930
:1040D000769A6E9881B3806F81BB899880B38D701A
:1040E00080BB80E58CBD81E08DBD85E090E00E94C5
:1040F0002A1D5F9A85E090E00E942A1D5E985C98D8
:10410000E8E0F8E08DE08E0F94919EBD00000DB4C4
:1041100007FEFDCF31968E13F7CF5C9A81E880932E
:10412000640081E08093650082E090E09A83898357
:10413000CE0101960E942414882319F00E949A1D32
:1041400002C00E94951D81E280936D0681E08093FC
:104150007E06CE0101960E94CD1E019631F08E8121
:104160009F819093500280934F0285E198E00E94D6
:10417000171D64E6262E312C2FB7F89480913C024F
:1041800090913D02A0913E02B0913F022FBF40911D
:1041900072065091730660917406709175062091B5
:1041A0007606222349F020916E06821B80937706C3
:1041B000109276060C943A2D84179507A607B70738
:1041C00088F4481B423010F40C943A2D83B7817F59
:1041D00083BF83B7816083BF889583B78E7F83BF9A
:1041E0000C943A2D21E02093760680936E069093EE
:1041F0006F06A0937006B093710620916D06820F32
:10420000911DA11DB11D8093720690937306A0931A
:104210007406B09375068091690690916A060196BE
:1042200090936A068093690610915502912F9B7FA7
:1042300029F090910301191709F4F1C310930301B8
:104240000E941F17812F90E08730910508F0D2C39C
:10425000FC01EA5AFF4F0C94D42F809101019091F8
:1042600002010A97909302018093010155E0959510
:1042700087955A95E1F710927906109278069093F7
:104280007B0680937A0697FF1BC0079643E09595BF
:1042900087954A95E1F7E82EE1944BE04E1538F406
:1042A00082E08093550281E080935402A3C310E022
:1042B0001E1538F48AE392E00E9434171F5FF8CF8E
:1042C000E12C29E02E0D2D3008F02CE036E0F32E05
:1042D00000E410E0E21608F08DC3EE2DF0E0EE0FE2
:1042E000FF1FCF018A5C904F6C01FC018591949176
:1042F0002FAB0E942A2FDC01FA9EC001FB9E900D7D
:10430000112496958795F801E81BF90BF09379062F
:10431000E0937806F60165917491CE0101960E94B2
:10432000232F0E943417E3942FA9D4CF8091010149
:1043300007E0F02EF80E8091530290E0FC01E05D62
:10434000F04F24912F1508F4F49029E030E03093D9
:1043500079062093780610927B0610927A06FC016B
:10436000EE0FFF1FEC5DF04F4591549108E028E0FF
:1043700060E070E080E090E00E94FC1561E17FE089
:10438000CE0101960E94232F0E943417E090010174
:1043900001E010E0EF1408F02DC3109379060093AC
:1043A0007806809153028230F9F058F48823A9F0FE
:1043B0008130B1F5EE2DF0E0EE0FFF1FED52F14F21
:1043C00027C08430F9F0B8F0853051F5EE2DF0E0DB
:1043D000EE0FFF1FE359F14F1BC0EE2DF0E0EE0F83
:1043E000FF1FE351F14F14C0EE2DF0E0EE0FFF1F61
:1043F000E354F14F0DC0EE2DF0E0EE0FFF1FE3563A
:10440000F14F06C0EE2DF0E0EE0FFF1FED57F14F1C
:1044100065917491CE0101960E94232F0E9434175A
:10442000E394B8CF80915402882331F01092540263
:104430008FE29EE00E94171D00E420E84FE25AE060
:1044400060E070E080E090E00E94FC1581E090E088
:10445000909379068093780680E290E090937B06B3
:1044600080937A069091000181E0911180E0809321
:104470007C0681E0911101C080E080937D0666E2B8
:104480007AE0CE0101960E94232F0E94421780916C
:104490004102882319F062E27AE002C06DE17AE01D
:1044A000CE0101960E94232F0E9442178091780628
:1044B0009091790601969093790680937806909171
:1044C000000181E0913009F080E080937C0681E07A
:1044D000913009F480E080937D0666E17AE0CE01B8
:1044E00001960E94232F0E94421780917806909196
:1044F0007906019690937906809378069091000151
:1045000081E0923009F080E080937C0681E0923077
:1045100009F480E080937D0661E17AE0CE010196A6
:104520000E94232F0E94421765C2209151023091B0
:10453000520280914F02909150028217930708F423
:10454000C9019F938F9389E292E09F938F938E018D
:10455000095E1F4F1F930F930E940C31F8010190C9
:104560000020E9F7CF01801B910B0B9676E0B72E68
:10457000B89E9001B99E300D1124C901969587957A
:10458000F0E4EF2EF12C9701281B390B30937906BC
:104590002093780610927B0610927A0664E07AE007
:1045A000CE0101960E94232F0E944217C8010E944B
:1045B000421780914E021F928F93ADE2CA2EA2E065
:1045C000DA2EDF92CF921F930F930E940C31F801E5
:1045D00001900020E9F7CF01801B910B0696B89E51
:1045E0009001B99E300D1124C90196958795A701B8
:1045F000481B590B509379064093780684E190E06C
:1046000090937B0680937A066CEF79E0CE01019659
:104610000E94232F0E944217C8010E94421789E37B
:1046200092E00E94421780914D021F928F93DF9279
:10463000CF921F930F930E940C31F801019000203C
:10464000E9F7CF01801B910B0B96B89E9001B99EA4
:10465000300D1124C90196958795D701A81BB90B78
:10466000B0937906A09378066FEE79E0CE010196BB
:104670000E94232F0E944217C8010E94421789E31B
:1046800092E00E944217809152028F9380915102D2
:104690008F9382E392E09F938F931F930F930E94D7
:1046A0000C31F80101900020E9F7CF01801B910B3C
:1046B0000696B89E9001B99E300D1124C9019695B9
:1046C0008795E81AF90AF0927906E092780667EE83
:1046D00079E0CE0101960E94232F0E944217C80163
:1046E0000E94421740E061E080E00E944C1D8CC0B7
:1046F00080914B0290914C02009709F47BC10E947B
:10470000A51E78C1609147027091480280914902CC
:1047100090914A022EE130E040E050E00E947B2F71
:104720006FE0C62ED12CE12CF12CC21AD30AE40A78
:10473000F50A2091510230915202C901B1010E9443
:10474000AC2F4B01A12CB12CC701B601620F731F16
:10475000811D911D24E630E040E050E00E94492F89
:1047600082169306A406B5066CF48091400281116E
:10477000FCCF8DEC99E00E94171D80914D028F5F58
:1047800080934D0280915102909152028C0D9D1D9B
:104790009093520280935102FF92EF92DF92CF9258
:1047A00085E392E09F938F938E01095E1F4F1F93C5
:1047B0000F930E940C31F80101900020E9F7CF011E
:1047C000801B910B0B9646E0489F9001499F300D4E
:1047D00011243695279580E490E0821B930B9093EB
:1047E0007906809378068CE190E090937B06809325
:1047F0007A0660EC79E0CE0101960E94232F0E9498
:104800004217C8010E9442170FB6F894DEBF0FBED0
:10481000CDBFF0C0809140028111FCCF20915102A8
:104820003091520280914F0290915002821793076B
:1048300008F4C9019F938F938DE292E09F938F9329
:104840008E01095E1F4F1F930F930E940C31F801D8
:1048500001900020E9F7CF01801B910B0B96F6E049
:10486000DF2ED89E9001D99E300D1124C901969556
:104870008795B0E4EB2EF12CA701481B590B509300
:1048800079064093780610927B0610927A0664E0CF
:104890007AE0CE0101960E94232F0E944217C801A0
:1048A0000E94421782EA99E00E94171D82E290E07E
:1048B000909379068093780688E190E090937B0648
:1048C00080937A0667E979E0CE0101960E94232F52
:1048D0000E94421789E392E00E944217809152029F
:1048E0008F93809151028F9382E392E09F938F93F5
:1048F0001F930F930E940C31F80101900020E9F7FB
:10490000CF01801B910B0696D89E9001D99E300D49
:104910001124C90196958795E81AF90AF09279064B
:10492000E092780667EE79E0CE0101960E94232F8F
:104930000E944217C8010E94421700915102109133
:1049400052020FB6F894DEBF0FBECDBF80914F026A
:10495000909150028017910708F04CC010935002BC
:1049600000934F02CE018D960E94CD1E6C0181E412
:104970008EA783E58FA784E588AB80914E0289AB33
:104980001BAB0AABFE01F5967F01F0E1CF16D10417
:1049900014F40C944E2DC60140968115944010F4E9
:1049A0000C94442DDEAACDAAC7010E9424148F5F67
:1049B0008DA7E0E1CE2ED12CCE018D960E94FB1664
:1049C0008CAB8E01035D1F4F0E151F0599F0D801AA
:1049D0006D918D01DEAACDAAC7016FAB0E94241490
:1049E0006FA9681719F0C6010E943B2FBFEFCB1AC1
:1049F000DB0AEACF0E940D1780914702909148028E
:104A0000A0914902B0914A020196A11DB11D809367
:104A1000470290934802A0934902B0934A02F09053
:104A20005502E4E0FE1203C780914B0290914C02C4
:104A3000892B09F08FC310924702109248021092FE
:104A4000490210924A0288E390E00E94DA2F8C011A
:104A5000DC0191961C921E92909793961C921E9246
:104A6000929795961C921E92949797961C921E92DE
:104A7000969799961C921E9298979B961C921E92BE
:104A80009A979D961C921E929C979F961C921E929E
:104A90009E97D0961C9280914E028A3010F473E05B
:104AA000F72EF801F1AA8F3010F491E001C092E0E6
:104AB000D801D2969C9391E0853008F490E0F801FB
:104AC00093AB843128F491E08A3018F490E001C06F
:104AD00092E0D801D4969C93D497D5961C92D59702
:104AE000D6961C92D697D7961C9280E2F801119226
:104AF0008A95E9F7C12CD12C50E2452E512C68E063
:104B0000862E912CF80181A990E0C816D90608F0EC
:104B10007DC00E940A2F68E370E00E94C02F3C0114
:104B200081971CF020E4620E711C0E940A2FB201D2
:104B30000E94C02F5C0138E0A31AB10841E1A4161D
:104B4000B10424F05C0158E1A50EB11C80E190E0B5
:104B50000E94DA2F7C0125E0660C771C2A95E1F78C
:104B6000DC0113967C926E921297950145E0220F1C
:104B7000331F4A95E1F715963C932E931497179699
:104B80001C921E92169719961C921E9218971A96AE
:104B90001C921A97EEE1F1E0ED93FC930E940A2F2C
:104BA000B4010E94C02F0796D7011C969C938E9348
:104BB0001B971E961C921E921D97E4E01F96EC9385
:104BC000D801D0968C91F801E80FF11DE80FF11D86
:104BD000F182E082EF2829F441E060E080E00E9469
:104BE0004C1DF80122A133A180A9232B39F498018F
:104BF000280F311D280F311D33A322A38F5FD80149
:104C0000D0968C93BFEFCB1ADB0A7CCFE12CF12C32
:104C100088E3C82ED12C96E3A92E91E0B92EF80195
:104C200083A990E0E816F90608F060C00E940A2FF8
:104C3000B6010E94C02F4C0181971CF020E4820E27
:104C4000911C0E940A2F68E170E00E94C02F3C0175
:104C500041971CF040E2640E711C8EE090E00E94CF
:104C6000DA2FFC01A5E0880C991CAA95E1F7938244
:104C70008282B5E0660C771CBA95E1F77582648292
:104C800017821682118610861286B182A08214863F
:104C900013861586D801D0968C91D097A80FB11D98
:104CA000A80FB11DED93FC93EF2B29F441E060E0D8
:104CB00080E00E944C1DF80180A591A520A9892BB8
:104CC00069F4C801820F911D820F911D91A780A7E1
:104CD00042A153A1452B11F493A382A32F5FD801C6
:104CE000D0962C93BFEFEB1AFB0A99CFC12CD12C95
:104CF000E6ECEE2EE1E0FE2EF80182A990E0C81667
:104D0000D906C0F58DE090E00E94DA2FFC011382F5
:104D100012821582148217821682118610861286DC
:104D2000F182E08214861386D801D0968C91D097B8
:104D3000A80FB11DA80FB11DED93FC93EF2B29F423
:104D400041E060E080E00E944C1DF80124A135A103
:104D500080A9232B39F49801280F311D280F311D0C
:104D600035A324A38F5FD801D0968C93BFEFCB1AC5
:104D7000DB0AC2CFC12CD12C7EE4E72E71E0F72EE6
:104D8000F80184A990E0C816D906C0F58DE090E03E
:104D90000E94DA2FFC01138212821582148217827C
:104DA000168211861086128614861386F182E0829E
:104DB000D801D0968C91D097A80FB11DA80FB11D26
:104DC000ED93FC93EF2B29F441E060E080E00E943A
:104DD0004C1DF80122A533A580A9232B39F4980195
:104DE000280F311D280F311D33A722A78F5FD8014F
:104DF000D0968C93BFEFCB1ADB0AC2CFC12CD12C3B
:104E000058E3A52EB12C66E6862E61E0962ED801D9
:104E1000D2968C9190E0C816D90608F078C00E940E
:104E20000A2FB5010E94C02F3C0181971CF020E49D
:104E3000620E711C0E940A2F68E170E00E94C02F70
:104E40002C0141971CF040E2440E511C81E190E09E
:104E50000E94DA2F7C01D8019496ED91FC919597F0
:104E6000C601880F991FE80FF91F8081918135E0F5
:104E7000660C771C3A95E1F7F7017382628245E090
:104E8000440C551C4A95E1F75582448217821682DC
:104E90001186108612869182808294878387168677
:104EA00015860E940A2F68E770E00E94C02F865A7C
:104EB0009F4FD70150969C938E931F97F80180A91E
:104EC000E80FF11DE80FF11DF182E082EF2829F4CF
:104ED00041E060E080E00E944C1DD80196962D9143
:104EE0003C919797D0968C91D097232B49F49801B9
:104EF000280F311D280F311D97963C932E939697BE
:104F00008F5FF80180ABFFEFCF1ADF0A80CFA12CB3
:104F1000B12CB8E38B2E912CD801D4968C9190E0D3
:104F2000A816B90608F084C00E940A2FB4010E9496
:104F3000C02F6C0181971CF0E0E4CE0ED11C0E94C2
:104F40000A2F68E170E00E94C02F3C0141971CF0DD
:104F500020E2620E711C81E190E00E94DA2F7C0158
:104F6000D8019A96ED91FC919B97C501880F991FE6
:104F7000E80FF91F8081918175E0CC0CDD1C7A95DA
:104F8000E1F7F701D382C282A5E0660C771CAA95EF
:104F9000E1F7758264821782168211861086128666
:104FA0002EE731E031832083948783871686158628
:104FB0000E940A2F68E770E00E94C02F865A9F4F18
:104FC000D70150969C938E931F97F80180A9E80F04
:104FD000F11DE80FF11DF182E082EF2829F441E094
:104FE00060E080E00E944C1DD8019C968D919C91C0
:104FF0009D97D0962C91D097892B99F4C801820F58
:10500000911D820F911D9D969C938E939C979696D1
:105010004D915C919797452B21F497969C938E9395
:1050200096972F5FF80120ABFFEFAF1ABF0A74CF3E
:105030008FE090E00E94DA2FFC0180E897E09383F4
:10504000828380E893E09583848317821682118699
:105050001086128686E991E09183808314861386F8
:1050600016861586D801D0968C91D097A80FB11DC1
:10507000A80FB11DED93FC93EF2B29F441E060E004
:1050800080E00E944C1DF80180A99801280F311D75
:10509000280F311D31A320A38F5F80AB0E940A2F00
:1050A00064E070E00E94C02F8130910551F0A4F0BF
:1050B0008230910549F0039779F4E12C47E0F42E12
:1050C00007C0E12CF12C04C0E12C57E0F52E06C0FE
:1050D000C12C3FE0D32E04C0E12CF12CC12CD12CEB
:1050E0008CE090E00E94DA2FFC01D382C282F5822C
:1050F000E482178216821186108612868EEA91E06B
:10510000918380831386D801D0968C91D097A80F75
:10511000B11DA80FB11DED93FC93EF2B29F441E0D5
:1051200060E080E00E944C1DF80180A99801280FE2
:10513000311D280F311D37A726A78F5F80AB109335
:105140004C0200934B02012B29F441E060E080E027
:105150000E944C1DE0904B02F0904C02E114F104CF
:1051600009F488C46701A12CB12CD701D0968C9189
:1051700090E0A816B90608F050C0D6018D919C9118
:10518000009709F443C0DC01ED91FC910480F581A6
:10519000E02D09959C01F601808191812530310532
:1051A000B1F024F4223031050CF103C02630310572
:1051B000E9F4DC01ED91FC91D70190960D911C91E1
:1051C00091970684F785E02D21E030E01AC0DC01DC
:1051D000ED91FC91D70196960D911C919797D296DF
:1051E0002C9130E00684F785E02D0BC0DC01ED91B9
:1051F000FC91D701D0962C9130E00684F785E02D04
:10520000870141E656E062E676E00995BFEFAB1A0A
:10521000BB0AE2E0CE0ED11CA8CF00914B02109148
:105220004C027801C12CD12CF80180A990E0C8165D
:10523000D90688F4F701819191917F01009739F0A7
:10524000DC01ED91FC910088F189E02D0995BFEF1B
:10525000CB1ADB0AE9CF00914B0210914C02680196
:105260007801A12CB12CD801D0968C9190E0A81691
:10527000B90608F033C1F701A081B18112968D9172
:105280009C91139797FF2FC013961C921E92129712
:1052900016968D919C9117979195819591091796E6
:1052A0009C938E931697ED91FC9111970480F58154
:1052B000E02DCD010995F701A081B181079721F477
:1052C0001C961C921E921B97ED91FC9111970480E5
:1052D000F581E02DCD010995089729F4D701ED91CD
:1052E000FC9114861386F70180819181DC0112966E
:1052F0008D909C901397ED91FC910284F385E02DA5
:105300000995B0E28B9F800C911C1124E1EE8E1662
:10531000EFE09E060CF445C0D7018D909C90D4011F
:10532000ED91FC910284F385E02DC4010995E0EE36
:10533000FFE020E2829FE019F1091124D4011396C5
:10534000FC93EE931297F701A081B18116968D918F
:105350009C91179791958195910917969C938E939F
:105360001697ED91FC9111970480F581E02DCD0108
:105370000995F701A081B181079721F41C961C9231
:105380001E921B97ED91FC9111970480F581E02D01
:10539000CD010995089729F4D701ED91FC91148668
:1053A0001386F701A081B18114968D919C91159778
:1053B00097FF2FC015961C921E92149718968D91E8
:1053C0009C91199791958195910919969C938E932B
:1053D0001897ED91FC9111970480F581E02DCD0196
:1053E0000995F701A081B181079721F41C961C92C1
:1053F0001E921B97ED91FC9111970480F581E02D91
:10540000CD010995089729F4D701ED91FC911486F7
:105410001386F70180819181DC0114968D909C9018
:105420001597ED91FC910484F585E02D0995B0E286
:105430008B9F800C911C1124E1EE8E16E7E09E06F6
:105440000CF445C0D7018D909C90D401ED91FC9156
:105450000484F585E02DC4010995E0EEF7E020E233
:10546000829FE019F1091124D4011596FC93EE9363
:105470001497F701A081B18118968D919C9119978D
:1054800091958195910919969C938E931897ED911A
:10549000FC9111970480F581E02DCD010995F7016C
:1054A000A081B181079721F41C961C921E921B9734
:1054B000ED91FC9111970480F581E02DCD010995C6
:1054C000089729F4D701ED91FC9114861386BFEF5C
:1054D000AB1ABB0AE2E0EE0EF11CC5CEE12CF12CBA
:1054E000BB24B39425E0A22ED801D0968C9190E0F5
:1054F000E816F90608F0A8C0F60180819181D8016C
:105500009096ED91FC9191972081318182179307BC
:1055100009F493C0DC01ED91FC910480F581E02D4C
:105520000995F601A081B1810797D9F41B968D9159
:105530009C911C9718161906A4F4D8019096ED9129
:10554000FC91919780819181DC01ED91FC91D601D4
:105550006D917C910288F389E02D0995811120C01D
:105560006CC0ED91FC9111970480F581E02DCD0187
:105570000995F601A081B181089739F41B968D91A8
:105580009C911C9718161906C4F2ED91FC91119785
:105590000480F581E02DCD010995079771F64DC086
:1055A000D6018D919C91DC01ED91FC910480F581F7
:1055B000E02D0995049709F07AC281E799E00E94ED
:1055C000171DD601ED91FC91A786F80185A98F5F83
:1055D00085AB2091510230915202C901B1010E9464
:1055E000AC2FFB01C9010396B1010E94AC2FE61755
:1055F000F70748F48DEC99E00E94171D80914D0249
:105600008F5F80934D0280915102909152020396D8
:105610009093520280935102D801D5969C91D597D0
:10562000D1968C91D197981308C09E96ED91FC91DC
:105630009F970190F081E02DB386FFEFEF1AFF0AEC
:1056400022E0C20ED11C50CFC12CD12C77247394F0
:10565000F80122A984A990E0820F911DC816D906ED
:1056600008F0ADC04601880C991CD8019496ED91C4
:10567000FC919597E80DF91D0190F081E02D309790
:1056800009F499C083859485181619060CF093C007
:10569000A12CB12CD801D1962C91D197D3968C9175
:1056A00090E0820F911DA816B90608F084C075011C
:1056B000EE0CFF1CD8019296ED91FC919397EE0DA4
:1056C000FF1D80819181009709F471C0DC01ED918B
:1056D000FC910480F581E02D09950597E9F4D80146
:1056E0009496ED91FC919597E80DF91D808191813B
:1056F000FC012081318192960D90BC91A02DAE0DC0
:10570000BF1D6D917C91D9015296ED91FC915397FB
:105710000995811121C04BC0D8019296ED91FC9161
:105720009397EE0DFF1D80819181DC01ED91FC913D
:105730000480F581E02D09950697C9F5D801929668
:10574000ED91FC919397EE0DFF1D0190F081E02DFE
:10575000858581112CC0C3CFD8019496ED91FC9121
:105760009597E80DF91D0190F081E02D14861386C0
:105770009296ED91FC919397EE0DFF1D80819181A2
:10578000DC01ED91FC910480F581E02D09950697EF
:1057900071F487E099E00E94171DF80182A193A19E
:1057A000FC01EE0DFF1D0190F081E02D7586FFEFED
:1057B000AF1ABF0A6FCFBFEFCB1ADB0A49CF0091F8
:1057C0004B0210914C02D801D7969C91D797D69650
:1057D0008C91911103C0882309F44CC1882361F096
:1057E00080914D02815080934D02882311F083E017
:1057F00001C086E080935502992309F4C5C18091C8
:10580000470290914802A0914902B0914A02823C1D
:105810009140A105B10510F485E001C083E08093BB
:10582000550280914E028F5F80934E02ADC18091F0
:105830006B0680936C060E942F1D80936B068091EF
:1058400046028823A9F00E942F1D8C7F09F0F8C022
:105850001092460280910001813009F0F1C08091E0
:105860006C0683FFE7C090916B0693FDE3C0B8C15F
:1058700088E00E944417882391F1F1E0FF1202C0F2
:1058800082E02AC022E0F212DBC080910001813068
:10589000B1F048F0823009F0D3C0109202011092AA
:1058A000010181E019C080914102882319F00E9412
:1058B000951D02C00E949A1D0E94721D56C002E0F2
:1058C00026E141E859E06DE170E087E590E00E9453
:1058D000FC150E940D17B4C080935502B1C084E03E
:1058E0000E944417882361F132E0F31281C0809155
:1058F00000018130C1F058F0823009F079C0109277
:1059000002011092010181E08093550271C08091E3
:105910004102882319F00E94951D02C00E949A1D21
:105920000E94721D4BC002E026E141E859E06DE1A2
:1059300070E087E590E00E94FC150E940D1758C0AA
:1059400080E20E9444178823A1F041E0F41278C05D
:1059500080915302882311F0815001C085E080932B
:10596000530210920201109201018FEF8093030104
:1059700067C080E40E944417882361F051E0F5126B
:105980005FC080915302853010F48F5FE8CF109292
:105990005302E7CF80E80E9444178823F1F081E0AA
:1059A000F81210C080910101909102011816190699
:1059B0002CF4019790930201809301018FEF809363
:1059C000030116C092E0F91213C0809100018823F0
:1059D00011F0815029C082E027C080E10E94441765
:1059E000882371F1A1E0FA1639F0B2E0FB16B9F0A4
:1059F00081E08093460224C08091010190910201D0
:105A0000E0915302F0E0E05DF04FE4919C01295FEA
:105A10003F4FF0E02E173F078CF60196CBCF8091D9
:105A20000001823020F48F5F80930001C7CF109275
:105A30000001C4CF82FF04C080916B0682FFD0C0FA
:105A40000E940A2F092E000CAA0BBB0B40914202A8
:105A5000509143026091440270914502840F951F5A
:105A6000A61FB71F8093420290934302A093440263
:105A7000B093450280E090E0892B11F40C94BC2097
:105A80000E9400000C94BC20C6010E94332F8F5F3F
:105A90008DA7E8E0CE0ED11C0C94DC24FFEFCF16CE
:105AA000DF0611F00C94D2241DA60C94D924F60123
:105AB00080819181DC01ED91FC910480F581E02DE4
:105AC0000995F601A081B181069729F41D968C9164
:105AD0001D97882391F1ED91FC9111970480F58138
