:100000000C945B020C9483020C9483020C94830284
:100010000C9483020C9483020C9483020C9483024C
:100020000C9483020C9483020C94EF100C946111D5
:100030000C9483020C9483020C9483020C9483022C
:100040000C9483020C9483020C9483020C9483021C
:100050000C9483020C9483020C9483020C94600C25
:100060000C9483020C9483020C9483020C948302FC
:100070000C9483020C9483020C9483020C948302EC
:100080000C941B0F0C9483020C9483020C94830237
:100090000C9483020C9483020C9483020C948302CC
:1000A0000C9483020C9483020C9483021F111F1280
:1000B0001F101D151711151F07041F17151D1F14DD
:1000C0001C01011F1F151F07051F1E091F1F150AF1
:1000D0000E11111F110E1F15111F05010E111D1FED
:1000E000041F111F1108110F1F041B1F10101F02E6
:1000F0001F1F011E0E110E1F05020E111E1F051BD4
:10010000121509011F010F101F0F100F1F081F1BD1
:10011000041B17140F19151301003200645001015C
:1001200028005A4601031E0050460204323C5A5031
:100130000205323250460306323246469302C80068
:1001400000006400BA026400000032009302640000
:1001500000003200BA02640000006400C4006400C1
:1001600000008403C40064000080C40064008801AF
:100170006400AF0064000080C40064009F0164005C
:100180007201640000800000000000000000000018
:100190000000000000000000000000000000C0207F
:1001A000102040201020402010E07F012127212135
:1001B00021212721017F804020D010101010D02055
:1001C00040807F000000000E0E000000007F000055
:1001D000800000008000000080007E0908390A09C4
:1001E00008093A09087F0000008080808080800034
:1001F00000007C020106007070000601027CC02035
:10020000102040201020402010E07F012117111104
:1002100011111721017FC40064000080F22A954A61
:10022000A572DA13A9542A95CAA99427B2DB6D598D
:1002300022EDD369CFB5DD6EE744539A5439A7A4B4
:1002400092DB6D76BB5D6FB74A3A67675D2AE794CC
:1002500054729BDD6E974A2AA9A4924E61496ED3CF
:10026000E9AD92E84CA7D311EB743AED1C1A4BA7F9
:10027000D3E934914EA7D3B8C21811FD4A86AEB463
:1002800073FC6BA71D23D6F1A5B34BE59C92DB58FD
:10029000B34B2595738A144F5211D1A6751E5F9EDC
:1002A000DF6EB7DB25C28810A49C73CE39E79C7241
:1002B000CE39E79C73CE6DE7D77ABF954A875F5CEE
:1002C0002E9DB2A1D339E429A9B04844FF76BBDD05
:1002D000E2CBE309BF769D4E2789E4FDA9ABBB7451
:1002E0003A9DAE653E3FDB5239E7747AED90A4A4A7
:1002F000B2EBF8D25B2595744E2AFEAD92CE49251D
:1003000095738A74ABA47352492595E394CA6E978A
:10031000A8724E2AA99C732E3AA9EC76A91C3AE53C
:10032000D9CA752E77B9EB5CE7BCCFA7D3E9743A8D
:100330001B9D77A9CB5DDDE52E77B9AB654AAD9DF9
:100340005D2A87ABF476BBDD460FC4006400AF00C6
:100350002C0100803864DADADADA643800F0F0F080
:10036000F0F0F0F0F0F00000000000000FFFFFFFE1
:10037000FFFFFFFFFFFF0F0F0F0F0F0F0000000029
:10038000FEFEFEFEFFFFFFFFFEFEFEFE0000000081
:1003900003030303FFFFFFFF030303030000E02049
:1003A00020202020E00000000000000000067F4028
:1003B000404040407F06060606060600000000009A
:1003C00000FC0404040606040404FC000000000011
:1003D00000010101017F7F01010101000000808017
:1003E00080808080808000007E01080A0A08080A58
:1003F0000A08017E804020D010101010D0204080CC
:100400007F000204040404040402007F0814222272
:1004100022414141414141414141412222221408AE
:100420003C52A1A1A1A1523CE0202020205FA1418B
:1004300041A15F20202020E00704040404FA858203
:100440008285FA0404040407080B0002020201007A
:100450000904000001020200000524001001052427
:100460000101010424020605240600010705810399
:1004700010004009040100020A0000000705020202
:100480004000000705830240000004030904120134
:100490000002EF0201404123368000010102030106
:1004A00041726475696E6F204C4C430041726475F3
:1004B000626F7900821711241FBECFEFDAE0DEBF32
:1004C000CDBF11E0A0E0B1E0E4E2F7E302C00590A7
:1004D0000D92AE3EB107D9F726E0AEEEB1E001C015
:1004E0001D92A93DB207E1F712E0CBE5D2E004C0CE
:1004F0002197FE010E94851BCA35D107C9F70E94CA
:1005000022180C94901B0C940000CF92DF92EF9273
:10051000FF920F93CF93DF93EC016B017A01F70108
:1005200021917F012223B9F0203299F0022E000C94
:10053000330B21543109A901440F551F240F351FD6
:10054000A90146535F4F05E023E0B601CE010E94AA
:100550000A162496E4CFDF91CF910F91FF90EF9090
:10056000DF90CF9008958F929F92AF92BF92CF92DB
:10057000DF92EF92FF920F931F93CF93DF9300D000
:1005800000D000D0CDB7DEB75C014B01CA014AE014
:100590008E010F5F1F4FB8010E949C1AF801019055
:1005A0000020E9F778016501CF0101975C01EA14A9
:1005B000FB04A1F0F70141917F014053F3E04F9F0D
:1005C000A001112444555F4F08E023E0B401C601A7
:1005D0000E940A1684E0C80ED11CE9CF26960FB6F9
:1005E000F894DEBF0FBECDBFDF91CF911F910F9169
:1005F000FF90EF90DF90CF90BF90AF909F908F9043
:100600000895CF92DF92EF92FF920F931F93CF93B3
:10061000DF93E0910E02F0910F02CF0102969093CA
:100620000F0280930E0265917491EB01611580E8D1
:10063000780789F4809171008D7F8093710010920A
:1006400091004698DF91CF911F910F91FF90EF900D
:10065000DF90CF900895209769F481E080930001A6
:1006600046983FE9C32E3FE0D32EE12CF12CCAEF90
:10067000D0E014C08B0120E030E060E472E48FE051
:1006800090E0A90198010E94E71A69017A0181E0CE
:10069000C81AD108E108F1081092000180911D02EA
:1006A000811103C081E080930001E0910E02F0917E
:1006B0000F02CF01029690930F0280930E020591D4
:1006C00014910115110571F09801DE010E943B1B88
:1006D000DC01CB0129E0B595A795979587952A95DB
:1006E000D1F703C08FEF9FEFDC01109290002AE05A
:1006F00020939100D0929900C09298008093EE01CF
:100700009093EF01A093F001B093F10180917100FB
:10071000826080937100BE0180E090E04AE00E9418
:100720009C14E0912F06F09130060190F081E02DAD
:1007300060E28FE296E00995B80180E090E04AE03F
:100740000E949C148BEE91E0DF91CF911F910F914D
:10075000FF90EF90DF90CF900C948414E1E7F0E0ED
:1007600020812D7F208390930F0280930E020C94A2
:1007700001037F928F929F92AF92BF92CF92DF92AE
:10078000EF92FF920F931F93CF93DF931F92CDB7FA
:10079000DEB72FB19CB183B1492F50E04095509501
:1007A0004074552773E0559547957A95E1F790E0A9
:1007B00080959095807199279595879595958795C2
:1007C000482B592B822F8095807F8A01082B80919E
:1007D000050190910601A0910701B091080118163A
:1007E00019061A061B063CF005FF63C080910D0236
:1007F00085FFB3C15EC04097A109B109809305018F
:1008000090930601A0930701B093080118161906EA
:100810001A061B060CF455C080910401811111C009
:1008200010921E0288EB9BE0A0E0B0E080930501EF
:1008300090930601A0930701B09308018AEE95E01A
:1008400025C08230F1F54FB12CB193B130E0209545
:1008500030952074332753E0359527955A95E1F765
:10086000892F90E08095909580719927959587952F
:1008700095958795822B932B242F2095207F822B73
:1008800080930D021092040185EF9CE09093240266
:10089000809323020F90DF91CF911F910F91FF90D2
:1008A000EF90DF90CF90BF90AF909F908F907F9010
:1008B000089506FF04C080910D0286FF54C103FD18
:1008C0005AC100930D028CE192E090932C06809324
:1008D0002B0680E091E090932A06809329061092DF
:1008E00028061092270610922E0610922D0681E0FF
:1008F0000E94F2167C01AA24A394B12C712CC12C65
:10090000D12C812C01E010E09924939481E00E9485
:10091000F216892B19F493949394F8CF892D0E94A1
:10092000F216AC01982D60E070E0461757070CF402
:1009300056C0E114F10409F07A28AA0CBB1CA114DA
:1009400021E0B20609F048C081E0890F893088F5BE
:100950002EE6C216D1046CF5E92F092E000CFF0B10
:10096000272D30E09F3FA1F0DF01B695BA2FAA27CF
:10097000B795A795AC0DBD1DA75CBD4FBC904901B7
:10098000689414F8880C991C1694E1F7B828BC9266
:10099000F695FE2FEE27F795E795EC0DFD1DE75434
:1009A000FD4FB3E035952795BA95E1F73081232BBC
:1009B00020832FEFC21AD20A20E6C216D10444F0D7
:1009C000982FAA24A394B12C712CC12CD12C04C033
:1009D000AA24A394B12C712C6F5F7F4FA6CF892ED0
:1009E000C8018E199F097C0194E098150CF08CCFFA
:1009F0004091050150910601609107017091080135
:100A000080910401493C5105610571058CF4C12CAC
:100A1000D12C2CE733E04CEB53E068E270E0882304
:100A2000C9F08130D1F0823009F58EE490E020C029
:100A3000CC24C394D12C2CE533E04CE953E06AE29A
:100A400070E0882369F0813071F0823079F48CE4B1
:100A500090E00EC08EE090E00BC08EE290E008C007
:100A60008CE090E005C08CE290E002C080E090E075
:100A7000E0E1EE2E00E10E94DD148091040181117D
:100A800004C0B601665C7F4F02C06AE370E049E1D2
:100A900051E08AE090E00E9485028091040181305B
:100AA00021F4B601665C7F4F02C06AE370E04FE15B
:100AB00051E088E290E00E94850280911D02811140
:100AC00010C080910401813021F4B601645C7F4F35
:100AD00002C06CE370E04CE350E086E290E00E94DC
:100AE000D01680910401823021F4B601665C7F4FFC
:100AF00002C06AE370E046E251E08AE490E00E94BE
:100B000085024CE251E062E370E084E690E00E94EE
:100B1000850240910B0250910C024436510530F48D
:100B20004A30510530F48CE790E005C084E790E04E
:100B300002C088E790E06AE370E00F90DF91CF9108
:100B40001F910F91FF90EF90DF90CF90BF90AF90EB
:100B50009F908F907F900C94B30280910401882322
:100B600039F0815005C080910401823009F08F5F17
:100B700080930401A4CE80910D0283FDA2CE80E972
:100B800091E0A0E0B0E08093050190930601A0936E
:100B90000701B0930801809104018130B1F4909174
:100BA0001D02892790911D02981380931D02609168
:100BB0001D0281E090E069830E94D11A6981861745
:100BC00021F081E090E00E94D91A8AE493E00E942B
:100BD000AE0377CE2F923F924F925F926F927F92A9
:100BE0008F929F92AF92BF92CF92DF92EF92FF923D
:100BF0000F931F93CF93DF93CDB7DEB727970FB631
:100C0000F894DEBF0FBECDBF809105019091060123
:100C1000A0910701B0910801883B9B40A105B10557
:100C200021F48CE391E00E94AE0380910501909144
:100C30000601A0910701B0910801AC01BD0140512E
:100C400051096109710940930501509306016093B0
:100C5000070170930801AC01BD01415E5740610975
:100C6000710900E120E1473C51056105710548F03B
:100C7000895F9340A109B109873C9105A105B105A0
:100C800058F44CE953E06EE070E088E390E00E9495
:100C90000A1681E090E00AC04CEB53E06CE070E093
:100CA0008CE390E00E940A1680E090E08C01025EE6
:100CB0001F4F45E351E0B80182E390E00E948502B6
:100CC00040911E0250E04F5F5F4FB8018AE490E010
:100CD0000E94B302C0900501D0900601E090070188
:100CE000F0900801D701C601895E9340A109B109BE
:100CF000883E9340A105B10500F54CE351E066E262
:100D000070E086E390E027960FB6F894DEBF0FBE42
:100D1000CDBFDF91CF911F910F91FF90EF90DF90AA
:100D2000CF90BF90AF909F908F907F906F905F908B
:100D30004F903F902F900C94850249EEC41643E0EB
:100D4000D406E104F1040CF072C143E451E066E220
:100D500070E086E390E00E948502F7FE68C1109281
:100D60000D0220911E0281E0820F80931E028630C8
:100D700008F025E056E0259F90011124285E3E4FA3
:100D8000F901949190930602319694919093F50114
:100D90003196E491AE2FB0E0B093F701A093F60145
:100DA000F9013396E4916E2F70E07093F301609334
:100DB000F201F9013496E4914E2F50E0F901359695
:100DC000249130E08630C0F0E1E0E90FE093F501D6
:100DD00090E00597880F991FA81BB90BB093F701F6
:100DE000A093F601681B790B7093F3016093F201F5
:100DF000481B590B281B390B8091F6019091F70184
:100E0000449734F484E190E09093F7018093F601E5
:100E10008091F2019091F301449734F484E190E0E1
:100E20009093F3018093F2014431510514F444E1AD
:100E300050E02431310514F424E130E05093FF01F7
:100E40004093FE0167E0649FC001659F900D1124EF
:100E50009093010280930002CA01880F991F840FAA
:100E6000951F959587959595879590930302809307
:100E70000202FA01F595E795F0930502E09304026A
:100E8000EEEFF1E081E090E040815181141615060B
:100E900014F091838083329642E0E630F407A1F7A4
:100EA0003093F9012093F80149E0429FC001439F2C
:100EB000900D1124EAE0F0E0BF010E94561B7093F0
:100EC000FB016093FA0147E0429FC001439F900DF0
:100ED0001124BF010E94561B7093FD016093FC0119
:100EE000E8EFF1E081E090E02081318112161306F5
:100EF00014F091838083329651E0EE3FF507A1F71D
:100F000080E395E7A0E0B0E08093050190930601AF
:100F1000A0930701B0930801809106028983E82F0E
:100F2000F0E0FB83EA832090F2013090F301A0917E
:100F3000FE01B091FF012091F6013091F7013D8350
:100F40002C83A20FB31F8091F8019091F901A80F93
:100F5000B91F21E130E00E946A1B2B013C01D10145
:100F60000E946A1B4B015C0160E375E780E090E042
:100F700000E010E01F821E826B017C01C818D908B6
:100F8000EA08FB08EA81FB810E171F077CF4A30126
:100F900092010E94191B8E819F81820F931F9F8354
:100FA0008E830F5F1F4FC701B601E6CFFE81F0931E
:100FB000F4012E813F814A815B81241B350B809196
:100FC000F501281B31098091070290910802820FD8
:100FD000931F909308028093070284E0809304019A
:100FE0008C819D816FE776E0A2E8B6E020E035E0F5
:100FF00049E0F9812F17A9F0EC91E93039F03E9FD3
:10100000F0011124E856F94F10824C93FB01108235
:1010100092838183820D931D2F5F6B5F7F4F1596A7
:10102000E8CF80E398E090932402809323022796F0
:101030000FB6F894DEBF0FBECDBFDF91CF911F91E9
:101040000F91FF90EF90DF90CF90BF90AF909F9067
:101050008F907F906F905F904F903F902F9008956A
:101060002F923F924F925F926F927F928F929F92B8
:10107000AF92BF92CF92DF92EF92FF920F931F93A6
:10108000CF93DF938091050190910601A091070114
:10109000B09108014097A109B1098093050190938F
:1010A0000601A0930701B0930801B7FF77C0C09174
:1010B0000902D0910A028091070290910802C81794
:1010C000D90798F088EB9BE0A0E0B0E080930501A1
:1010D00090930601A0930701B09308018AEE95E072
:1010E0009093240280932302B3C34FB12CB193B1E8
:1010F00030E0209530952074332703E0359527950F
:101100000A95E1F7892F90E0809590958071992755
:101110009595879595958795822B932B242F2095D0
:10112000207F822B80930D0288EB9BE0A0E0B0E053
:101130008093050190930601A0930701B0930801E5
:1011400081E59EE0909324028093230280910B021C
:1011500090910C028C179D0708F07AC3D0930C0273
:10116000C0930B026C2F82E090E00E94D91A6D2F81
:1011700083E090E0DF91CF911F910F91FF90EF906E
:10118000DF90CF90BF90AF909F908F907F906F90A7
:101190005F904F903F902F900C94D91A4FB12CB183
:1011A00083B130E02095309520743327D3E0359516
:1011B0002795DA95E1F790E08095909580719927D1
:1011C0009595879595958795282B392B842F809514
:1011D000807F282B80910101811107C025FFF8C273
:1011E00080910D0285FFFBC2F3C2D0E020930D0277
:1011F000C8E9EC2EC6E0FC2EF701638174816D5FB7
:101200007F4F8181928107E024E14CE054E00A970E
:101210000E940A16F5E0EF0EF11C85ECE81686E058
:10122000F80651F7B12CC5E0A5E0AA2EB4E02B2EAC
:10123000312C412C512C80910602B81608F0B1C116
:10124000CB2CD12CDD2309F445C0CC9D8001CD9D54
:10125000100D11240158194F90910401F801838158
:10126000981338C080818230A9F5848181111AC019
:101270008AE691E00E94AE0381E0809301018AE05A
:1012800090E0909303018093020183E0F801808352
:101290008EE190E0928381838091090290910A020D
:1012A000019614C088E791E00E94AE0383E080932A
:1012B0000101E4E1F0E0F0930301E0930201809189
:1012C000090290910A02009709F0019790930A028F
:1012D00080930902CC9DF001CD9DF00D1124E158C1
:1012E000F94F21813281215031093283218380815C
:1012F000813009F472C038F0823009F4C7C08330FD
:1013000009F400C14CC137FF4AC10E948E1A29E07E
:1013100030E040E050E00E94E71AC69FD001C79F2E
:10132000B00D1124A856B94F8C918111EECFAC9C11
:10133000F001AD9CF00D1124E158F94F638381E079
:101340008C938091F501882391F10E948E1AA2015D
:1013500091010E94E71A21E0633071058105910532
:101360000CF420E0CC9DF001CD9DF00D1124E1584E
:10137000F94F248321110BC08091F40190E020915A
:10138000F501821B9109029714F481E08483CC9DBE
:10139000F001CD9DF00D1124E158F94F848188238F
:1013A00039F08091F50181508093F50101C01482DC
:1013B0008091F401882319F081508093F401CC9D31
:1013C000F001CD9DF00D1124E158F94F81E08083AB
:1013D0008091FE019091FF01E0C0E381CE9FF0017A
:1013E0001124E856F94FE180F28003811481809145
:1013F0000002909101028217930754F1809102023A
:101400009091030282179307E4F44801F5E08F0EF0
:10141000911C370183E0681A7108B401C3010E946E
:1014200062140A5F1F4FB801C3010E94621492E068
:10143000E90EF11CB401C7010E946214B801C70192
:1014400011C080910402909105028217930764F401
:101450000A5F1F4FB801C70103970E946214B801C9
:10146000C70102960E946214CC9DF001CD9DF00D43
:101470001124E158F94F8181928197FF90C082E059
:1014800080838091F8019091F90187C0A381CA9F60
:10149000D0011124A856B94F11968D919C911297A5
:1014A000069713966D917C91149768507109A481E9
:1014B000AA2319F04EEF51E002C044EF53E0E0914F
:1014C000FA01F091FB012E173F072CF0AA2379F0C7
:1014D0004EEC51E011C0E091FC01F091FD01E217EA
:1014E000F30754F4AA2331F04EE951E005C046EE6B
:1014F00051E002C046EB51E0FFE0EF2E0CE020E0AF
:1015000030E021C0E381CE9FF0011124E856F94F6D
:10151000818092800380F481E02DC9016AE070E04F
:101520000E94561B05971CF046E851E002C04CEDA6
:1015300053E0BF0168507109EFE0EE2E0CE020E0AF
:1015400030E0C40106970E94DD14CC9DD001CD9DF2
:10155000B00D1124A158B94F11968D919C911297FD
:1015600097FF1DC08091F6019091F7011396EC91C1
:101570001397E93049F0CE9FF0011124E856F94F56
:10158000108229E013962C93CC9D9001CD9D300DB7
:101590001124F901E158F94F108292838183B394A9
:1015A0004ACEDD2389F08091010181110DC086E1D1
:1015B00092E00E94AE0382E0809301018AE090E015
:1015C00090930301809302018091020190910301A5
:1015D000019790930301809302012091040130E070
:1015E000409101014330D0F44130D8F485E0829F2E
:1015F000F001839FF00D1124E856F94F6381748147
:101600006351710930E1E32E00E12CE733E04CEB4C
:1016100053E0818192810E94DD1437C0433011F183
:1016200034C085E0829FF001839FF00D1124E856BD
:10163000F94F63817481615171098181928120E147
:10164000E22E00E12CE533E04CE953E005970E94DF
:10165000DD14809102019091030197FF16C0109252
:10166000010113C06AE070E00E94561B05978CF3DD
:1016700085E0829FF001839FF00D1124E856F94F19
:101680006381748163517109D8CF4AE451E062E00B
:1016900070E08FE590E00E94850240910902509130
:1016A0000A024436510530F44A30510530F48CE7D3
:1016B00090E005C084E790E002C088E790E068E031
:1016C00070E00E94B30245E351E061E170E08FE514
:1016D00090E00E94850240911E024A3018F48CE787
:1016E00090E002C088E790E050E067E170E00E947F
:1016F000B30241E551E063E370E08FE590E00E94C2
:101700008502609105017091060180910701909119
:10171000080128E13CEF4FEF5FEF0E94E71AE90173
:10172000C258DF4F4EE750E069E370E08FE590E08C
:101730000E94D0164EE750E06EE370E08FE590E037
:101740000E94D0160AE310E0B8018FE590E00E94F5
:1017500062140F5F1F4F0E331105B1F70AE310E05B
:10176000B8018EE790E00E9462140F5F1F4F0E33A6
:101770001105B1F74EE750E06AE370E0CE010E9438
:10178000D0164EE750E06BE370E0CE010E94D01619
:101790004EE750E06CE370E0CE010E94D0164EE7B9
:1017A00050E06DE370E0CE01DF91CF911F910F917A
:1017B000FF90EF90DF90CF90BF90AF909F908F9071
:1017C0007F906F905F904F903F902F900C94D01629
:1017D00026FF0FC080910D0286FF12C00AC0409103
:1017E0000401842F63E00E944A1B911141504093F1
:1017F000040127FF0FC080910D0287FF12C00AC0AD
:1018000040910401842F63E00E944A1B923079F3D7
:101810004F5FEDCF24FF0CC080910D0284FF12C0FA
:1018200007C080910401833008F083508093040145
:1018300023FFDBCCD0910D02D3FB882780F9D1E0C8
:10184000D827D4CC80910401863080F78D5FEECF0D
:10185000DF91CF911F910F91FF90EF90DF90CF908C
:10186000BF90AF909F908F907F906F905F904F90C0
:101870003F902F9008953FB7F89480911102909176
:101880001202A0911302B091140226B5A89B05C0C4
:101890002F3F19F00196A11DB11D3FBFBA2FA92FEF
:1018A000982F8827820F911DA11DB11DBC01CD016C
:1018B00042E0660F771F881F991F4A95D1F7089558
:1018C0001F920F920FB60F9211242F933F938F9375
:1018D0009F93AF93BF9380911F0290912002A0919C
:1018E0002102B09122023091100223E0230F2D3704
:1018F00020F40196A11DB11D05C026E8230F029614
:10190000A11DB11D2093100280931F02909320020D
:10191000A0932102B09322028091110290911202B1
:10192000A0911302B09114020196A11DB11D8093E4
:10193000110290931202A0931302B0931402BF916C
:10194000AF919F918F913F912F910F900FBE0F906C
:101950001F901895CF93DF934FB12CB193B130E026
:10196000209530952074332783E0359527958A9507
:10197000E1F7892F90E08095909580719927959552
:10198000879595958795822B932B242F2095207FE3
:10199000822B80930D021092040110920501109287
:1019A0000601109207011092080110920A0210928B
:1019B000090282E090E00E94D11AC82FD0E0D093B3
:1019C0000C02C0930B0283E090E00E94D11AD82B46
:1019D000D0930C02C0930B0289EB93E09093240206
:1019E00080932302DF91CF9108954F925F926F927F
:1019F0007F928F929F92AF92BF92CF92DF92EF929F
:101A0000FF920F93CF93DF93809105019091060190
:101A1000A0910701B0910801BC01CD01605171098D
:101A20008109910960930501709306018093070174
:101A30009093080120910401211189C028EE33E020
:101A400040E050E00E94E71A20FD19C0442443946E
:101A5000512C91E1C92ED12CCFE3D0E024E5E22E28
:101A600023E0F22E3CE5832E33E0932E4CE9A42EA6
:101A700043E0B42E5CED652E53E0752E17C0412C6B
:101A8000512CEFE0CE2ED12CC4E4D0E0F0E2EF2ECA
:101A9000F4E0FF2EACE78A2EA3E09A2EBCEBAB2E2F
:101AA000B3E0BB2E04EF602E03E0702E47E551E05B
:101AB00062E070E08AE290E00E94850200E120E1AD
:101AC00048E254E06AE170E084E090E00E940A1687
:101AD00008E028E0A70162E270E088E190E00E945F
:101AE0000A1628E040E254E06EE170E082E290E005
:101AF0000E940A1607E024E14CE054E065E270E041
:101B00008AE390E00E940A166FE0E62E0CE020E0E7
:101B100030E0A3016AE170E08EE390E00E94DD1402
:101B200070E1E72E00E19401A501B601CE010E940B
:101B3000DD144AE451E068E170E080E690E00E9444
:101B40008502A2016EE170E08BE790E058C0213081
:101B500009F057C044E651E062E070E082E390E0B3
:101B60000E9485024DE651E06FE070E084E190E074
:101B70000E9485024BE751E067E170E080E490E06D
:101B80000E94850249E851E063E270E08EE190E056
:101B90000E94850242E951E06BE270E080E490E04F
:101BA0000E94850243E050E06BE270E084E690E042
:101BB0000E94B3020FE02CE044EF53E064E370E0D6
:101BC00083E690E00E940A164DE951E06AE370E076
:101BD00082E790E00E94850241E050E06AE370E015
:101BE00086E790E00E94B302809121068064809392
:101BF000210640E050E06AE370E08CE790E00E944C
:101C0000B3024FB12CB193B130E0209530952074E0
:101C1000332783E0359527958A95E1F7892F90E062
:101C2000809590958071992795958795959587953D
:101C3000822B932B242F2095207F822B009721F03D
:101C400021E030910D02311120E080930D0222231A
:101C5000C1F0809104018F5F80930401823088F08D
:101C6000DF91CF910F91FF90EF90DF90CF90BF90D9
:101C7000AF909F908F907F906F905F904F900C945B
:101C8000AA0CDF91CF910F91FF90EF90DF90CF9052
:101C9000BF90AF909F908F907F906F905F904F908C
:101CA0000895CF92DF92EF92FF920F93C0900501BB
:101CB000D0900601E0900701F090080180E1C81A79
:101CC000D108E108F108C0920501D0920601E09226
:101CD0000701F092080180EDC81687E0D806E104FC
:101CE000F1040CF059C040EA51E06CE070E080E390
:101CF00090E00E94850288EEC81683E0D806E104D1
:101D0000F1040CF049C0C0900902D0900A02809101
:101D10000B0290910C0207E024E14CE054E062E2F7
:101D200070E0C816D906C1F480E290E00E940A165D
:101D30007FE0E72E0CE020E030E044EF53E066E186
:101D400070E084E290E00E94DD144BEA51E06AE129
:101D500070E088E390E017C088E290E00E940A16E5
:101D60006FE0E62E0CE020E030E04CED53E066E161
:101D700070E08CE290E00E94DD144AE451E06AE1F8
:101D800070E084E490E00E948502A60162E270E0C7
:101D900088E490E00E94B302609105017091060111
:101DA000809107019091080197FF3FC028EE33E032
:101DB00040E050E00E94E71A20FD08C048EB51E0E7
:101DC00068E370E088E290E00E9485024FB12CB198
:101DD00093B130E0209530952074332783E035951A
:101DE00027958A95E1F7892F90E0809590958071ED
:101DF00099279595879595958795822B932B242FD9
:101E00002095207F822B009721F021E030910D0258
:101E1000311120E080930D02222339F00F91FF90C1
:101E2000EF90DF90CF900C94AA0C0F91FF90EF9061
:101E3000DF90CF9008951F920F920FB60F9211244A
:101E40002F933F934F935F936F937F938F939F93C2
:101E5000AF93BF93EF93FF938091EE019091EF01C9
:101E6000A091F001B091F101892B8A2B8B2B49F1C4
:101E700080910001811104C098B180E4892788B95C
:101E80008091EE019091EF01A091F001B091F101EC
:101E9000181619061A061B06B4F48091EE019091EB
:101EA000EF01A091F001B091F1010197A109B109F1
:101EB0008093EE019093EF01A093F001B093F101B4
:101EC00002C00E940103FF91EF91BF91AF919F91DA
:101ED0008F917F916F915F914F913F912F910F90D3
:101EE0000FBE0F901F901895409117025091180245
:101EF000209115023091160242175307B4F49091C5
:101F0000E8009570E1F39091E80092FD19C080938C
:101F1000F100809117029091180201968F73992712
:101F2000892B19F48EEF8093E8008091170290912D
:101F300018020196909318028093170281E0089589
:101F400080E00895CF92DF92EF92FF920F931F935C
:101F5000CF93DF931F92CDB7DEB7182F062FE42E55
:101F6000862F880F8E5F99830E94740F83E00E94F2
:101F7000740FF12EC12E9981D92E8C2D8F198017B7
:101F800098F4F601E7FE02C0849101C080810E94AE
:101F9000740F182F80E00E94740F8123FFEFCF1A77
:101FA000DF0A8111EACF01C081E00F90DF91CF916C
:101FB0001F910F91FF90EF90DF90CF900895DF92E7
:101FC000EF92FF920F931F93CF93DF93D82E8A0146
:101FD0007B01E40EF51EEB01CE15DF0571F0D7FE97
:101FE00003C0FE01849101C088810E94740F219674
:101FF0008111F2CF8FEF9FEF01C0C801DF91CF9128
:102000001F910F91FF90EF90DF900895615030F095
:102010002091F100FC0120830196F8CF289884E6F6
:10202000809325020895CF92DF92EF92FF920F9353
:102030001F93CF93DF936C017A018B01C0E0D0E056
:10204000CE15DF0589F0D8016D918D01D601ED9196
:10205000FC910190F081E02DC6010995892B11F4C6
:102060007E0102C02196ECCFC701DF91CF911F9175
:102070000F91FF90EF90DF90CF900895CF93DF9373
:102080001F92CDB7DEB76983DC01ED91FC91028030
:10209000F381E02D41E050E0BE016F5F7F4F099575
:1020A0000F90DF91CF91089583E08093E9008091B4
:1020B000F200882319F08AE38093E8000895FC0178
:1020C0008485958597FD0BC09FB7F89482E0809337
:1020D000E9008091F2009FBF90E0019608959FB7BC
:1020E000F89482E08093E9008091F2009FBF90E035
:1020F00008950E948B1B0F931F93CF93DF931F9222
:10210000CDB7DEB782E0898342E450E068E474E052
:1021100080E80E94DF0F0E946E17DC0112960D917D
:102120001C9113970115110569F0D801ED91FC91EF
:102130000280F381E02DBE016F5F7F4FC8010995DA
:1021400097FF07C089810F90DF91CF911F910F9169
:102150000895F80100851185E5CFCF93DF931F9295
:10216000CDB7DEB7FC018485958597FD05C02FEFBF
:102170003FEF358724870BC0CE0101960E9444179C
:10218000019719F4898190E002C08FEF9FEF0F90C3
:10219000DF91CF9108950F931F93CF93DF931F92F9
:1021A000CDB7DEB78C01FC018485958597FF0EC005
:1021B000CE0101960E944417019719F4298130E05D
:1021C00002C02FEF3FEFF80135872487F80184859F
:1021D00095850F90DF91CF911F910F9108951F92D8
:1021E0000F920FB60F9211248F939F938091E1006D
:1021F0009091E100937F9093E10083FF0FC01092D4
:10220000E90091E09093EB001092EC0092E3909340
:10221000ED001092260298E09093F00082FF20C01B
:1022200093E09093E9009091F200992319F09AE3DA
:102230009093E80090911902992339F09091190236
:10224000915090931902992389F190912502992335
:1022500039F090912502915090932502992341F1F4
:1022600084FF10C08091E2008E7E81608093E20046
:102270008091E1008F7E8093E10080911B028E7E31
:10228000806111C080FF16C08091E2008E7E806167
:102290008093E2008091E1008E7E8093E100809146
:1022A0001B028E7E816080931B0204C05D9ACDCF9D
:1022B000289AD6CF9F918F910F900FBE0F901F90AD
:1022C00018951F920F920FB60F921124CF92DF92A2
:1022D000EF92FF920F931F932F933F934F935F9330
:1022E0006F937F938F939F93AF93BF93EF93FF93DE
:1022F000CF93DF93CDB7DEB76C97DEBFCDBF109223
:10230000E9008091E80083FFEDC168E0CE014596C9
:102310000E94061082EF8093E8008D8987FF05C038
:102320009091E80090FFFCCF03C09EEF9093E800EF
:10233000982F907609F0C6C09E892F89188D91112B
:102340000CC0803829F480911C028093F10002C0F7
:102350001092F1001092F10048C1422F50E0512B31
:10236000913051F4811141C14130510509F03DC115
:1023700080911C028D7F0BC0933061F4811135C1B7
:102380004130510509F031C180911C028260809377
:102390001C022BC1953041F48091E80080FFFCCFF6
:1023A00020682093E30021C1963009F05FC0EB8CD8
:1023B000FC8C1092E9001092180210921702123051
:1023C00091F510921602109215020E947B1099E06E
:1023D000BE016F5F7F4FDB01E92F1D92EA95E9F7A0
:1023E00099831A8391E09E8390EA98879AEF998760
:1023F0002091170230911802275F3F4F3C832B83B7
:102400008D831092E9001092180210921702F09238
:102410001602E092150249E050E080E00E94DF0FD2
:102420000E947B10E2C0F0921602E09215020E9418
:102430006E17DC011296ED90FC901397E114F104F5
:1024400009F4C0C0D701ED91FC910480F581E02D25
:10245000BE016B5E7F4FC7010995009719F00CF024
:10246000C4C0C7C0F701E084F184E8CF973009F415
:10247000C0C0983021F481E08093F100B6C099305B
:1024800009F0B3C0837009F0B4C0E8ECF1E081E07A
:1024900021E036E39081992361F08093E900209355
:1024A000EB0091919093EC003093ED008F5F8730BB
:1024B00089F78EE78093EA001092EA008F89809373
:1024C000260293C08B8D9C8D1092E9001092180209
:1024D000109217029093160280931502898D811134
:1024E00056C08E899D89913A59F4813209F081C094
:1024F00047E050E06DE071E080E00E94DF0F75C0C2
:10250000913209F076C0833289F4888D90E0982F5B
:1025100088272F89822BA0E0B0E080930901909357
:102520000A01A0930B01B0930C015FC0803269F4E3
:102530008091E80082FFFCCF67E08DE091E00E948F
:1025400006108BEF8093E80006C0823209F04DC080
:102550008F898093140180911A02882319F0EEEF7D
:10256000FAE002C0E0E0F8E080910D0190910E01E8
:10257000A0910F01B0911001803B9440A105B105DD
:1025800009F07BC08091140180FF93C076C00E9447
:102590006E17DC0112960D911C9113970115110510
:1025A00041F1D801ED91FC910190F081E02DBE0147
:1025B0006B5E7F4FC8010995811117C0F801008536
:1025C0001185ECCF113009F44EC0133091F48F898E
:1025D000882309F445C0823081F440E867E08CEA42
:1025E00094E00E94A20F882321F08EEF8093E800F0
:1025F00079C081E28093EB0075C0813029F440E816
:102600006BE080EA94E0EDCF833099F70E946E177B
:10261000DC011296ED90FC9013978E010F5F1F4F17
:102620006801E114F10479F0D701ED91FC91068085
:10263000F781E02DB801C7010995080F111DF701B9
:10264000E084F184EECFD8011C92F60101900020C5
:10265000E9F73197BF016C197D0940E0C601C1CF90
:102660006AE874E002C06EE874E06115710509F271
:10267000FB01449150E080E840CF0FB6F894A89554
:1026800080916000886180936000109260000FBEAE
:10269000A895EE3F2AE0F20739F08091FE0A90916A
:1026A000FF0A91838083A1CF1092FF0A1092FE0A45
:1026B0009CCFEE3F8AE0F80731F0808191819093C2
:1026C000FF0A8093FE0A87E797E7918380839BE068
:1026D00088E10FB6F894A895809360000FBE9093A0
:1026E000600083CF6C960FB6F894DEBF0FBECDBFEF
:1026F000DF91CF91FF91EF91BF91AF919F918F911A
:102700007F916F915F914F913F912F911F910F9109
:10271000FF90EF90DF90CF900F900FBE0F901F9023
:1027200018958F929F92AF92BF92CF92DF92EF92C5
:10273000FF926B017C010E943B0C4B015C01C114B8
:10274000D104E104F104F1F00E943B0CDC01CB0167
:1027500088199909AA09BB09883E9340A105B105CA
:1027600070F321E0C21AD108E108F10888EE880E62
:1027700083E0981EA11CB11CC114D104E104F10432
:1027800019F7DDCFFF90EF90DF90CF90BF90AF9023
:102790009F908F9008957F928F929F92AF92BF9259
:1027A000CF92DF92EF92FF920F931F93CF93DF931D
:1027B0006C015B017A0180911401882309F46BC0DC
:1027C00080912602882309F466C080911B0280FF55
:1027D00005C08091E00082608093E000E70110E096
:1027E0000AEF83E0982E90E4792E2AE3822E209738
:1027F00009F448C08FB7F8949092E9009091E800EE
:1028000095FF06C09091F200272D291B922F01C041
:1028100090E08FBF91110AC0015009F43CC061E003
:1028200070E080E090E00E949113E1CF292F30E02A
:10283000C217D3070CF49C2F8FB7F8949092E9003D
:102840002091E80025FF1CC0292F30E0C21BD30BCC
:10285000F501915020F041914093F100FACFA20E82
:10286000B31E112319F08092E80009C09091E8008E
:1028700095FD06C08092E80011E0209709F010E075
:102880008FBFB5CF1111B6CF5D9884E68093190242
:102890001E141F0444F081E090E0F60193838283CC
:1028A00080E090E001C0C701DF91CF911F910F91AF
:1028B000FF90EF90DF90CF90BF90AF909F908F9060
:1028C0007F90089580389105F0F460347105D8F454
:1028D000FB0123E0F595E7952A95E1F7F695FE2FA4
:1028E000EE27F795E7958E0F9F1FFC01E95DFD4FE1
:1028F0006770772781E090E001C0880F6A95EAF75A
:102900009081892B80830895BC01009791F0FC0190
:1029100001900020E9F73197AF01481B590BE09176
:102920002F06F09130060280F381E02D8FE296E0D1
:10293000099480E090E008958F929F92AF92BF92A9
:102940000F931F93CF93DF93CDB7DEB7A1970FB649
:10295000F894DEBF0FBECDBF19A2423008F44AE0A2
:102960008E010F5D1F4F842E912CA12CB12CA5013F
:1029700094010E94191BE62FB901CA0101501109E7
:10298000EA3014F4E05D01C0E95CD801EC93232B3C
:10299000242B252B61F7C8010E948414A1960FB641
:1029A000F894DEBF0FBECDBFDF91CF911F910F9185
:1029B000BF90AF909F908F9008954F925F927F92BB
:1029C0008F929F92AF92BF92CF92DF92EF92FF923F
:1029D0000F931F93CF93DF9300D000D0CDB7DEB716
:1029E000F901C02ED12C9C012C0D3D1D1216130691
:1029F0000CF0FCC0803891050CF0F8C0DB01AE0D86
:102A0000B11D1A161B060CF0F1C0603471050CF0F4
:102A1000EDC0DB0177FF04C0AA27BB27A61BB70BBD
:102A20001A2F1770912E5B0177FF03C0A7E0AA0E43
:102A3000B11CA3E0B594A794AA95E1F7BA2D77FF4E
:102A400007C0992029F0BFEFBA0D68E06919962EEA
:102A500097FF05C066277727681B790B02C060E0E7
:102A600070E02038310524F020E8822E881A01C059
:102A7000802E861A2B2F0B2E000C330BBF3F1CF41D
:102A8000A22FA09501C0A0E0772473941E2D17708B
:102A900009F4712CE694E694E6947E0C270D311D22
:102AA000293031051CF028E0722E7B1A7A1A3A2F51
:102AB0003B0F10E83103800D911D1124860F971FE5
:102AC000A09F600D711D1124460F571FA1E0B0E0BB
:102AD000092C02C0AA0FBB1F0A94E2F7895D9D4F23
:102AE000730E309709F03DC02FEF2A9F80012B9F76
:102AF000100D1124009510951C830B83371509F4D4
:102B000075C0BC01E12CF12CE81428F5FA01EE0D9A
:102B1000FF1DE491EA9F5001EB9FB00C1124BA8293
:102B2000A98237FD05C0FB0120812023A22AA082B3
:102B3000992059F037304CF4FB01E058FF4FB0803A
:102B40002C812B21BA802B292083FFEFEF1AFF0A5B
:102B50006F5F7F4FD9CF3F5F4C0D5D1D80589F4FFA
:102B6000CDCF6E0F7F1F371509F440C05C01E12CFB
:102B7000F12CE81498F5FB01EE0DFF1DE491EA9F9E
:102B80008001EB9F100D1124009510951C830B8381
:102B9000FA01EE0DFF1DE491EA9F2001EB9F500C1E
:102BA00011245A82498237FD05C0F5012081022394
:102BB000402A4082992059F037304CF4F501E05812
:102BC000FF4F10812C8121231A81212B2083FFEFBD
:102BD000EF1AFF0A1FEFA11AB10ACBCF3F5F4C0DCE
:102BE0005D1D6C0D7D1D80589F4FBDCF0F900F90C8
:102BF0000F900F90DF91CF911F910F91FF90EF9069
:102C0000DF90CF90BF90AF909F908F907F905F901C
:102C10004F9008953F924F925F926F927F928F9262
:102C20009F92AF92BF92CF92DF92EF92FF920F935B
:102C30001F93CF93DF934A0130E0AC01420F531F43
:102C4000141615060CF09AC0803891050CF096C049
:102C5000AB01400F511D141615060CF08FC06034E7
:102C600071050CF08BC0DB0177FF04C0AA27BB27DE
:102C7000A61BB70BA770BB27EB0177FD279653E088
:102C8000D595C7955A95E1F777FF07C0219748E09A
:102C900050E0BA016A1B7B0BDB01302E3694369470
:102CA0003694077009F03394BE018E011695102FEB
:102CB000002717950795080F191FE12CF12C48E004
:102CC00050E02A014A1A5B0A462F4C1B43150CF0B0
:102CD00055C06830710509F451C0A80140585F4FD4
:102CE0005A016F3F5FEF75070CF43FC0712C472D01
:102CF000072C000C550B42175307BCF5FA01E80FDF
:102D0000F91FE038F1058CF5F7FD2DC0FA01EE0D45
:102D1000FF1DE80DF91D64906F3FEFEF7E0759F13D
:102D2000F801E40FF51FE95DFD4FC62C0A2E01C026
:102D3000CC0C0A94EAF7D080CD28C082109799F085
:102D40006730710581F04A0D5B1DFA01E95DFD4FA9
:102D5000462D50E0042C02C0559547950A94E2F7A1
:102D60005081452B40837394C2CF6F5F7F4F8501A5
:102D7000E20EF31EA9CF109731F7F5CFDF91CF9177
:102D80001F910F91FF90EF90DF90CF90BF90AF9089
:102D90009F908F907F906F905F904F903F9008959D
:102DA000EF92FF920F931F93CF93DF937B018A01E2
:102DB000EC0197FF02C0C0E0D0E00038110514F02C
:102DC00000E810E00C171D0734F0B701CE010E9497
:102DD00062142196F7CFDF91CF911F910F91FF9051
:102DE000EF900895EF92FF920F931F93CF93DF938D
:102DF000A82FC0912B06D0912C0640912D06509102
:102E00002E06E0912706F0912806209129063091A0
:102E10002A0660E070E080E090E001E010E06A17D0
:102E200000F52115B1E03B0749F4FE01E40FF51F61
:102E3000E491F0E04F5F5F4F21E030E07F01E2225C
:102E4000F322EF2849F07801062E02C0EE0CFF1C99
:102E50000A94E2F78E0D9F1D220F331F6F5F7F4F85
:102E6000DECF30932A062093290650932E064093F6
:102E70002D06F0932806E0932706DF91CF911F914E
:102E80000F91FF90EF900895FC018091260281112F
:102E900003C08FEF9FEF08959FB7F89482E080936F
:102EA000E9002091F20030E01216130614F421E03C
:102EB00030E02115310559F0289884E680932502E9
:102EC0008091F10080838091F200882319F09FBFE8
:102ED000C90108958BE68093E800F9CF8091D1066F
:102EE00081110DC082E08093CD0684E08093CE06F0
:102EF0001092D0061092CF0681E08093D1068DEC1F
:102F000096E00895109232061092310688EE93E012
:102F1000A0E0B0E08093330690933406A09335068A
:102F2000B09336068FED91E09093300680932F0694
:102F30008FEF9FEF90933C0680933B06109298068C
:102F400088E190E090939A06809399068BE090E058
:102F500090939C0680939B0610929D0620E330E0A0
:102F600030939F0620939E069093A1068093A0061F
:102F70001092A20648E450E05093A4064093A306A2
:102F80009093A6068093A5061092A70686E190E08E
:102F90009093A9068093A80680E290E09093AB06F8
:102FA0008093AA061092AC063093AE062093AD062D
:102FB0009093B0068093AF061092B1064AE450E0B9
:102FC0005093B3064093B2069093B5068093B4062F
:102FD0001092B60684E190E09093B8068093B7060D
:102FE00085E390E09093BA068093B9061092BB06F1
:102FF0003093BD062093BC069093BF068093BE0617
:103000001092C0062CE430E03093C2062093C10633
:103010009093C4068093C306EFE7F6E080E090E06B
:1030200029E0108212821182DC01A158B94F139657
:103030002C93139714961C92059635968931910519
:1030400081F70895CF93DF93CDB7DEB72D970FB6F5
:10305000F894DEBF0FBECDBF789484B5826084BD86
:1030600084B5816084BD85B5826085BD85B581608C
:1030700085BD80916E00816080936E00109281000A
:1030800080918100826080938100809181008160C5
:103090008093810080918000816080938000809186
:1030A0009100826080939100809191008160809373
:1030B0009100809190008160809390008091C10088
:1030C00084608093C1008091C10082608093C100C0
:1030D0008091C10081608093C1008091C3008160B4
:1030E0008093C3008091C00082608093C000809173
:1030F000C20081608093C20080917A0084608093D6
:103100007A0080917A00826080937A0080917A00C0
:10311000816080937A0080917A00806880937A0041
:103120001092260210921C0210921B028091D7006E
:1031300081608093D70080EA8093D80089B5806150
:1031400089BD89B5826089BD09B400FEFDCF61E00B
:1031500070E080E090E00E9491138091D8008F7C15
:1031600080618093D8008091E000807F8093E000B0
:103170008091E1008E7E8093E1008DE08093E200FB
:10318000559A209AEEEFFFE7859194918B3F9C4DE5
:1031900019F481E080931A029FB7F894209A8CB5B5
:1031A00080618CBD8CB580648CBD219A229A9FBFB2
:1031B00080B38F7080BB81B3806F81BB6E98769A2D
:1031C00084B18F7E2C9A9AB1906D9AB9806E84B931
:1031D0008091C200877F8093C2005F9A61E070E0B7
:1031E00080E090E00E9491135F986AE070E080E0D8
:1031F00090E00E9491135F9A8DE0EEECF1E0DE0129
:10320000119601900D928A95E1F78CB58C7F8CBD5B
:103210008DB581608DBD5E9A5C985E98FE01319699
:103220008DE08E0F91919EBD00000DB407FEFDCF85
:103230008E13F8CF5C9A5E988091640081608093D1
:1032400064008091640082608093640080916400D7
:10325000806880936400809164008064809364003F
:103260008091650081608093650046983E9A4798FA
:103270003F9A809180008062809380002FEF30E041
:1032800030938B0020938A0084B5806884BD8FEFD3
:1032900087BD809180008068809380003093890092
:1032A00020938800809164008E7F8093640087EC77
:1032B00080937C0080E280937B0062E070E080E09D
:1032C00090E00E94911380917A00806480937A004C
:1032D00080917A0086FDFCCF0091780010917900F2
:1032E000009510958EE580937C0062E070E080E0B0
:1032F00090E00E94911380917A00806480937A001C
:1033000080917A0086FDFCCFE0907800F090790003
:103310000E943B0C9B01AC01209530954095509547
:10332000E094F094E09ED001E19EB00DF09EB00DCF
:1033300011240E94061B6B017C010E943B0C6C0D4A
:103340007D1D8E1D9F1D611571058105910511F073
:103350000E94931A8091640081608093640080E0F1
:1033600090E00E94D11A803FA9F060EF80E090E0E9
:103370000E94D91A60E081E090E00E94D91A60E0D2
:1033800082E090E00E94D91A60E083E090E00E9421
:10339000D91A0DC081E090E00E94D11A91E08130ED
:1033A00009F090E080911D02891390931D02109204
:1033B0001E020E94AA0C00E010E02FB7F894809142
:1033C0001F0290912002A0912102B09122022FBFF2
:1033D0004091C9065091CA066091CB067091CC0607
:1033E0006C017D01C41AD50AE60AF70AB701A601E5
:1033F000403151056105710580F44F30510561057B
:103400007105B9F183B7817F83BF83B7816083BFC3
:10341000889583B78E7F83BF2CC08093C906909315
:10342000CA06A093CB06B093CC068091C5069091B6
:10343000C606A091C706B091C8060196A11DB11D90
:103440008093C5069093C606A093C706B093C8069E
:10345000E0912302F09124020995E7E2F2E08081F5
:103460008EBD11920DB407FEFDCF26E0E732F207C4
:10347000B1F70115110509F4A0CF0E9400009DCFFE
:103480008F929F92AF92BF92CF92DF92EF92FF9274
:10349000CF93DF93EC01688179818A819B816115EB
:1034A00071058105910521F464E279ED8BE597E0E2
:1034B0002DE133EF41E050E00E94E71A49015A0143
:1034C0009B01AC01A7EAB1E40E94061B6B017C01E1
:1034D000ACEEB4EFA50194010E94141BDC01CB01FA
:1034E0008C0D9D1DAE1DBF1DB7FF03C00197A10927
:1034F000B04888839983AA83BB83BC01CD019F77A1
:10350000DF91CF91FF90EF90DF90CF90BF90AF9081
:103510009F908F9008950E94401A089585E191E050
:103520000E94401A089560931501709316018093CC
:103530001701909318010895BB274A3031F499235D
:1035400022F4BDE2909581959F4F0C94A81ABB2759
:10355000FB015527AA27880F991FAA1FA41710F04F
:10356000A41B83955051B9F7A05DAA3308F0A95D5B
:10357000A193009779F7B111B1931192CB010C94FB
:10358000C11ADC01FC01672F71917723E1F73297B3
:1035900004C07C916D9370836291AE17BF07C8F32E
:1035A0000895F999FECF92BD81BDF89A992780B50B
:1035B0000895262FF999FECF1FBA92BD81BD20BD77
:1035C0000FB6F894FA9AF99A0FBE01960895052E4F
:1035D00097FB1EF400940E94FE1A57FD07D00E942C
:1035E000191B07FC03D04EF40C94FE1A509540951D
:1035F000309521953F4F4F4F5F4F0895909580959F
:10360000709561957F4F8F4F9F4F08950E943B1B90
:10361000A59F900DB49F900DA49F800D911D112426
:103620000895B7FF0C94061B0E94061B821B930B88
:103630000895A1E21A2EAA1BBB1BFD010DC0AA1FF3
:10364000BB1FEE1FFF1FA217B307E407F50720F00B
:10365000A21BB30BE40BF50B661F771F881F991F86
:103660001A9469F760957095809590959B01AC01CF
:10367000BD01CF010895A29FB001B39FC001A39FD8
:10368000700D811D1124911DB29F700D811D11249B
:10369000911D0895991B79E004C0991F961708F0B1
:1036A000961B881F7A95C9F78095089597FB072E7A
:1036B00016F4009407D077FD09D00E94711B07FC17
:1036C00005D03EF4909581959F4F08957095619532
:1036D0007F4F08950E943B1BB7FF0895821B930BF9
:1036E0000895AA1BBB1B51E107C0AA1FBB1FA61749
:1036F000B70710F0A61BB70B881F991F5A95A9F79B
:1037000080959095BC01CD010895EE0FFF1F0590A7
:10371000F491E02D099481E090E0F8940C94901BD2
:04372000F894FFCF4B
:10372400010000000430750000FFFFFFFF00E1000E
:10373400000000000001000000504C4159000053FB
:103744004F554E440000494E464F000048495343EC
:103754004F524500004C4556454C000052454144EB
:103764005900005354415254000053434F524500F2
:103774000054494D450000484F5720544F20504CA9
:1037840041590000435245444954530000434F44B7
:10379400452047465820534E4400005A454455435B
:1037A4004B4D415354455200004C4943454E5345FB
:1037B4000000474E552047504C205600005600004C
:1037C40047414D45204F56455200004E455720482D
:1037D4004953434F52450000505245535320414EE4
:1037E40059204B4559000000C18081000000D5F0EC
:1037F4008D14A1C881CFD9F1AF2000000000003E94
:0E38040010CB135F10AD10CB1054100D0A0046
:00000001FF
