:100000000C94DD120C9405130C9405130C94051339
:100010000C9405130C9405130C9405130C94051300
:100020000C9405130C9405130C948C1F0C94FE1F58
:100030000C9405130C9405130C9405130C940513E0
:100040000C9405130C9405130C9405130C940513D0
:100050000C9405130C9405130C9405130C946A1559
:100060000C9405130C9405130C9405130C940513B0
:100070000C9405130C9405130C9405130C940513A0
:100080000C9405130C9405130C9405130C94051390
:100090000C9405130C9405130C9405130C94051380
:1000A0000C9405130C9405130C940513BC14BF1485
:1000B000AE14B214B614E014E014E014C314C71460
:1000C000CB14D114D514E014DB14F0F89C8E878384
:1000D000878E9CF8F00000FEFF0303030303070E66
:1000E000FCF80000FEFF0303030303070EFCF80007
:1000F00000FFFF00000000000000FFFF0000FEFF07
:100100008383838383C7EE7C380000F8FC0E0703EB
:100110000303070EFCF800003F7FE0C08080C0E0D2
:100120007F3FFFFF01010101010101FFFF0000FF0F
:10013000FF0C0C0C0C1C3E77E3C100007FFFC0C01D
:10014000C0C0C0E0703F1F00001F3F70E0C0C0C0D3
:10015000E0703F1F00007FFFC1C1C1C1C1E3773E16
:100160001C00001F3F70E0C0C0C0E0703F1F0000D7
:1001700000000001FFFF010000000000000024005B
:1001800027002A002D003000D5F08D14A1C881CFA2
:10019000D9F1AF2000040802011040804010204037
:1001A000804080080204018040201002011080106D
:1001B0002040402000000000250028002B002E00D9
:1001C00031000404040404030405020202020403CF
:1001D00002020202060606060606040402020204E1
:1001E000041402130212021502070208020A020A8C
:1001F000010B020B010902090104010C01060100B7
:10020000FFC3A59999A5C3FFC0C0FFDFDFFFC0C032
:10021000000000000000000000000000000003F0EB
:1002200000000000000000000000000000001FFCB3
:1002300000000000000000000000000000003C2E54
:100240000C30F1FF000000000000000000007AAF59
:100250000E31F9FF000000000000000000006037D0
:100260000F339C3800000000000000000000EAAFDF
:100270000F339C3800000000000000000000C02583
:100280000DB39C3800000000000000000000EAAF41
:100290000CF39C3800000000000000000000C03596
:1002A0000CF39C3800000000000000000000E2AFEA
:1002B0000C71F8380000000000001E000000C0258E
:1002C0000C30F038000000000001FF800000EAAFB1
:1002D0000000000000000000001FC1800000C037C7
:1002E000000000000000000000FE23C00000EAAF94
:1002F000000000000000000003E007C00000C0256F
:1003000000000000000000001F889FE00000EAAF2E
:1003100000000000000000007C003F600000C035CD
:100320000000000000000001E222FBF00000E2AF4C
:1003300000000000000000078003C7F00000C02597
:10034000000000000000001E888FEBF80000EAAFFC
:1003500001CE71F3FE07C078007C31DC0000C037AD
:1003600001CE73FBFE07C0E223FABAFC0000EAAF3D
:1003700001CE7398700FE1C00FC815DE0000C025D4
:1003800001CE73C0700EE388FE8EAAFE0000EAAFB5
:1003900001CE71F0700EE603F0040D770000C03559
:1003A00001CE7038700EE7FFA226A6BF0000E2AFB4
:1003B0001DCE7338700FE7F80002067F8078C025E5
:1003C0001FC7E3F8701FF388888BAABFBFFEEAAF90
:1003D0000F83C1F0701C73800001033FFC03C03722
:1003E00000000000000001A22223ABFFE223EAAFDD
:1003F00000000000000001C0000081FFE006C025F1
:1004000000000000000000C88888EFFFF88EEAAF07
:1004100000000000000000E000007FFFF01CC0357D
:10042000000000000000006222227FFEB238E2AF2E
:1004300000000000000000600007FFFF70F0C02512
:100440000000000000000038889FFFFBE9C0EAAF11
:100450000000000000000030007FFFF5C780C037BB
:100460000E71F3FE0000001A23FFFFBFBE00EAAFCB
:100470000E71F3FE0000001C3FFFFD5E7800C025FA
:100480000E73F8700000000FFFFFFEBDF000EAAF32
:100490000FF3B8700000000FFFFF87F7C000C035F2
:1004A0000FF3B87000000007FFFE27DF0000E2AF87
:1004B0000E73B87000000007FFF01F7E0000C0251B
:1004C0000E73F8700000001FFF88F9FE0000EAAF0D
:1004D0000E77FC700000003BE003EFDF0000C03748
:1004E0000E771C70000000F3A23F3EEF0000EAAF61
:1004F00000000000000001C183F9F0678000C02502
:100500000000000000000388FFCFFAABC000EAAF94
:100510000000000000000700707E3031C000C035D0
:100520000000000000000E2223F01ABBE000E2AF42
:100530000000000000000C001F80181CF000C02507
:100540000000000000000C8BFC000EAAF800EAAFCF
:100550000000000000000FFFC0000C0D7C00C03741
:1005600000000000000003F0000006AEBF00EAAF8C
:100570000FC3E0F1C7000000000007034FC0C02513
:100580000FE3E1F9CE000000000003ABABF0EAAFEF
:100590000EE7F3B9DC00000000000180D1FCC0359B
:1005A0000FE77381FC000000000000E2EABFE2AF49
:1005B0000FC77381FC000000000000E03C47C0252D
:1005C0000EE77381EC0000000000007AAFABEAAFE9
:1005D0000EE7F3B9CE0000000000003C00F1C03788
:1005E0000EFFF9F9CE0000000000000EAABEEAAF2F
:1005F0000E7E38F1C7000000000000078003C02510
:10060000000000000000000000000001EAAAEAAFBC
:1006100000000000000000000000000000000000DA
:1006200000000000000000000000000000000000CA
:1006300000000000000000000000000000000000BA
:100640000000000000000000F000000000000000BA
:1006500000000000000000F1FC00000000000000AD
:1006600000000000000001F0FE000000000000009B
:1006700000000000000001F8EF0000000000000092
:1006800000000000000003F8E3000000000000008C
:100690000000000000000398E3800000000000005C
:1006A0000000000000000718E1C00000000000008A
:1006B000000000000000071C61C0000000000000F6
:1006C000000000000000060C60E0000000000000D8
:1006D000000000000000060C60E0000000000000C8
:1006E000000000000000060E60E0000000000000B6
:1006F000000000000000040E70E000000000000098
:10070000000000000000060E70E380000000000002
:10071000000000000000060E70E7C00000000000AE
:10072000000000000000060E3FE7E00000000000AF
:10073000000000000000071E3FE7E000000000008E
:1007400000000000000007FC1FE630000000000071
:10075000000000000000E3FC0FC4300000000000B7
:10076000000000000001E3F8000410000000000099
:10077000000000000001F0E0000C1000000000008C
:10078000000000000001B800000C1800000000008C
:100790000000000000019800000C1800000000009C
:1007A0000000000000018C00000E18000000000096
:1007B0000000000000030C00000F380000000000E3
:1007C00000000000000186000007F00000000000AB
:1007D0000000000000018700FC03F00000000000A2
:1007E0000000000000018701FF00C00000000000C1
:1007F000000000000001CF07FF80000000000000A3
:10080000000000000001FE0703C00000000000001F
:10081000000000000000FE0E01E0000000000000EB
:10082000000000000000FC0C20F0000000000000B0
:10083000000000000000301C303C00000000000000
:100840000000000000000018301E00000000000042
:100850000000000000000030382780000000000089
:10086000000000000000007039E3C000000000003C
:1008700000000000000000607FC1C0000000000018
:1008800000000000000001CFFF81E0000000000038
:1008900000000000000001C7FF00E00000000000B1
:1008A0000000000000000381FF00F00000000000D5
:1008B00000000000000003807F00F0000000000046
:1008C00000000000000007007F80F0000000000032
:1008D00000000000000007807380F00000000000AE
:1008E000000000000000078060C1E0000000000080
:1008F0000000000000000380400FE0000000000046
:1009000000000000000003C0407FC00000000000A5
:1009100000000000000003E000FC000000000000F8
:1009200000000000000001FFC1E000000000000026
:1009300000000000000000FFFFC0000000000000F9
:1009400000000000000000107F8000000000000098
:1009500000000000000000001E0000000000000079
:100960000000000000000000000000000000000087
:100970000000000000000000000000000000000077
:100980000000000000000000000000000000000067
:100990000000000000000000000000000000000057
:1009A0000000000000000000000000000000000047
:1009B0000000000000000000000000000000000037
:1009C0000000000000000000000000000000000027
:1009D0000000000000000000000000000000000017
:1009E0000000000000000000000000000000000007
:1009F00000000000000000000000000000000000F7
:100A000000000000000000000000000000000000E6
:100A10003300CC3300CCFFFFFFFF3300CC3300CCDE
:100A2000CC0033CC0033FFFFFFFFCC0033CC0033CE
:100A3000C0C0FEDF6F7F6060001C30FFFF301C0015
:100A400080C06CFFFF6CC08018182C2C5E5E9FFF6E
:100A5000FF0000FFFF0000FFFF9F5E5E2C2C1818B8
:100A6000030F3FFFCF330C03C030CCF3FFFCF0C0CB
:100A7000FFC3BDA5A5BDC3FF00000000000000002E
:100A8000000002020202020202020202020202024A
:100A90000202020101010102020101010101010141
:100AA000010101010000010202010000000000003C
:100AB00000000000000001020201C8000000000068
:100AC0000000000000C70102020101010101010153
:100AD00001010101010101020202020202020202FD
:100AE00002020202020202020000000000000000F6
:100AF00000000000000000000101010101010101EE
:100B000001010101010101010100000000000000DC
:100B100000000000000000010100000202020000CD
:100B200000000000000000010100C70202020202F2
:100B300002000000000000010102020200000000AB
:100B4000000000000002020101000000000000009F
:100B500000000202020202010100C80000000002BF
:100B6000020202020202020101010101010101016E
:100B70000101010101010101010101010101010165
:100B800001010101010101010100C8000000000292
:100B90000000000000000001010202020200000249
:100BA0000000000000000001010000000000000241
:100BB0000000000000000001010000000000000231
:100BC0000000000002000001010000020202020217
:100BD000000000020200000101000000000000000F
:100BE000000002020200C70101010101010101012F
:100BF00001010101010101010101010101010101E5
:100C000001010101010101010100000000020200D7
:100C1000000000000000000101C800000002020006
:100C200000000000000000010101010000020200BC
:100C300000020202020000010101010000020200A4
:100C4000000202020000000101010100000000009A
:100C5000000202000000000101010100000000008C
:100C60000002020000C700010101010101010101B0
:100C70000101010101010101010101010101010164
:100C80000101010101010101010101010000000058
:100C90000000000000000001010101000000000050
:100CA0000000000000000001010100000000000041
:100CB000000000000200C701010000000000000069
:100CC000000200000001010101000000000002001C
:100CD000000000000000010101C800020000000047
:100CE00000000000000001010101010101010101FA
:100CF00001010101010101010101010101010101E4
:100D000001010101010101010100000000000000DA
:100D100000000000000000010100000000000000D1
:100D200000000000000000010100C80000020200F5
:100D3000000202000000C7010102020000020200DE
:100D40000002020000020201010000000000000099
:100D50000000000000000001010000000000000091
:100D60000000000000000001010606060606060657
:100D70000606060606060601010101010101010140
:100D8000010101010101010101000000000000005A
:100D90000000000000000001010000000000000051
:100DA0000000000000000001010000000000000041
:100DB0000000000000000001010000000000000031
:100DC0000000000000000001010000000000000021
:100DD00000000000000000010100C8000000000049
:100DE000000000000000C70101010106060606061A
:100DF00006060606060601010101010101010101C5
:100E000001010101010101010100000200000000D7
:100E100000020000000000010100000200000000CC
:100E200000020000000000010100000200000200BA
:100E300000000000000000010100000200000200AC
:100E40000000000000C700010100000000000200D7
:100E500000020000010101010100C80000000000C3
:100E60000002000001010101010101010606060660
:100E7000060206060101010102070707020202023B
:100E80000202020207070702020000000000000041
:100E9000C80000000000000202000000020202027E
:100EA0000202020200000002020000000000000036
:100EB000000000000000000202000000000000002E
:100EC0000000000000000002020000000902000013
:100ED00000000208000000020200000009020000F9
:100EE000C70002080000000202060606020206020F
:100EF00002060202060606020101010101070707B8
:100F000007070701010101010100000000000000C6
:100F100000000009020202010100000202000000BC
:100F200000000009020202010100000902000000A5
:100F300000000000000000010800000202000000A4
:100F40000000000000000001080000020200000094
:100F5000000000090200C70101C8000202000000F1
:100F6000000000090202020101010101010606065A
:100F70000606060101010101010101010101010152
:100F80000101010101010101030000000000000056
:100F9000000000000000000103000000000000004D
:100FA0000000000000000001030000020202020035
:100FB0000002020202000001030000000000020023
:100FC000C702000000000001030000000000020250
:100FD00002020000000000010300C8000000000041
:100FE00000000000000000010101010101010101F8
:100FF00001010101010101010101010101010101E1
:1010000001010101010101010100000000000000D7
:1010100000000000000003010100000002020202C3
:1010200002020202000003010100000102000000B0
:1010300000000000000003010100000302000000A6
:101040000000000000000301010000030200000096
:10105000020000000000010101C800030200C700F7
:101060000206060606060101010101010101010156
:10107000010101010101010101010101010101025F
:10108000010101010101010101C80000000000038C
:101090000000000000000001010200000000000349
:1010A0000002000000000001010000000200000337
:1010B000000000000000C701010000000000000265
:1010C0000000000200000101010002000002000017
:1010D000000200000002000101000000000000000A
:1010E00000000000000000010106060606060601D9
:1010F00006060606060606010101010101010101BD
:1011000001010101010101010A00000000000002CB
:10111000020000000000000B0A00000000000002B6
:10112000020000000000000B0A000000C7000002DF
:10113000020000000000000B0A020202020202028A
:10114000020000020202020B0A000000000000027E
:10115000020000000000000B0A000000C8000002AE
:10116000020000000000000B01010101010101016A
:10117000010101010101010101010101010101015F
:1011800001010101010101010A000000000000004D
:10119000000000020800000B0A000002020000002C
:1011A000000000020800000B0A0000090200000015
:1011B000000000020200000B0A000009020000000B
:1011C000000000020200000B0A0000020200000002
:1011D000000000020800000B0A00C8020200000024
:1011E000C70000020800000B010101010106060111
:1011F00001060601010101010101010101010101D5
:10120000010101010101010101020202020A0000C3
:10121000020202020200000B01000200000B0000AB
:10122000020A0000000000010100020000020000AC
:10123000020202020202000101000B00C7020000CC
:101240000A00000000000001010202020202000088
:1012500002020200020002010A00C80002020000AD
:10126000020000000200000B010101010101010167
:101270000101010101010101000000020101010160
:101280000101010200000000000000020A0000C885
:1012900000000B0200000000000000020A00000233
:1012A00000000B0200000000000000020A00000025
:1012B00000000B0200000000000000020A00000015
:1012C00000000B0200000000000000020A00000005
:1012D00000000B0200000000000000020A0000C72E
:1012E00000000B02000000000000000201060601E1
:1012F00006060102000000000101010101010101D7
:1013000001010101010101010100000000000000D4
:1013100000000000000000010100000000000000CB
:1013200000000000000000010202040202000000B0
:101330000000000202040202010202020200000098
:10134000000000020101020101000202040000008D
:10135000000000040102000101000002020000C8B8
:10136000C7000002020000010101010102010101A8
:101370000101010201010101010404040404040447
:10138000040404040404040101C800000000000077
:10139000000000000000000401040404040404042C
:1013A000040404040404000401010101040404040D
:1013B0000404040404040004010000000000000010
:1013C0000000000000000004010000000404040408
:1013D00004040404040404010100C7000101010124
:1013E00001010101010101010101010101010101ED
:1013F00001010101010101010101010101010101DD
:1014000001010101010101010400000000000000D0
:1014100000000000000000040400000000000000C4
:1014200000000000000000040400000000000000B4
:10143000000000000000000404000000C8000000DC
:1014400000C70000000000040400000404040000C1
:101450000404040000040401040000040204000069
:101460000400040000040201010404020202040456
:101470000200020404020201010101010201010152
:1014800001020101010101010100000B020A00003B
:1014900004020100000000010100000B020A00C864
:1014A000010204000000000101000101010101012D
:1014B000010101010100000404000101010000001C
:1014C00000000B020A0000010100000101000101FF
:1014D00000000B020A0000010100000B0104010AD8
:1014E000000001020100C701010101010201010127
:1014F00001010102010101010202020202000202D5
:101500000202000202020202020000000B000A00B6
:101510000002000200000002020000000B000A00AE
:1015200000020004000000020400000202000200A9
:101530000002000202000004020000020200020099
:101540000002000202000002020000000B00020084
:101550000002000A00000002020000000B0002C8A6
:10156000C702000A00000002020204020200020296
:101570000202000202020202010101010101010155
:101580000101010101010101010000000000000052
:101590000000000300000001010000000000000046
:1015A000000000040000000401C8C700000400009F
:1015B000040000000000000401020200000300001B
:1015C0000200000000000004010000000004000010
:1015D0000200000400000004010000000000000000
:1015E00004000003000000010106060606060606C8
:1015F0000206060206060601020707070707070795
:10160000070707070707070208000000000000009F
:1016100000000000000000090800040000000000B5
:101620000004000000C800090800000000040000D9
:101630000000000000040009080000000000000095
:10164000C7000000000000090800040000000000BE
:101650000400000400000009080000000000000071
:101660000000000000000009020606060606060645
:101670000606060606060602020402000000020232
:10168000020200000000000004000B0000000A003D
:101690000002000000020402020402000000020036
:1016A000000B0000000A000400000000000002001F
:1016B0000002000000020402000002040200020016
:1016C0000002000000000000000004000B000A00FF
:1016D000000200020402000000000204020002C82E
:1016E000C70B000A00040000000000000000020216
:1016F00002020002040200000101010101010101D6
:1017000001010101010101010100000000000000D0
:10171000000000000000000101C8000000000000FF
:1017200000000000000000040102020000020204A8
:101730000402020000020201010203000000000096
:10174000000000000003020101020300000000008D
:10175000000000000003020101020300000000007D
:10176000C700000000030201010202060606010490
:10177000040106060602020101070707070707071B
:10178000070702020202020101000000000000003F
:101790000000070202020201010000000000000038
:1017A0000000000702020201010000000000000624
:1017B000000000000000000101000000000009021C
:1017C0000600000000000001010000000000090206
:1017D00002060000000000010100C800000009022C
:1017E0000202060000C70001010101060606010110
:1017F00001010106010101010000020207070707BC
:1018000007070707020200000000020800000000AE
:1018100000000000090200000000020400000000B7
:1018200000000000090200000000020800000000A3
:10183000000000000402000000000204000000009C
:101840000000000009020000000002080000000083
:10185000000000000402000000000204000000C8B4
:10186000C70000000902000000000202060606018F
:101870000106060602020000010101010101010149
:10188000010101010101010101C800000200000085
:10189000000000000000000401020002040000003B
:1018A0000000000000000004010400040200000029
:1018B000020606040400000404000000000000000A
:1018C00004020202080000040400000000000000FE
:1018D00004020202080000010106000600000006E2
:1018E000020202020206C70101010401010404010F
:1018F00001010101010101010000000202020000DA
:1019000000000202020202020000000203000000C6
:1019100000000000000000020000000203000000C0
:1019200000000000000000020000000203000002AE
:101930000200020200000002020202020200000095
:10194000000003020000000202000000000000008E
:101950000000030200C700020200C80000000000EF
:10196000000003020202020202020202020200005E
:1019700000000202020202020101010100000B004C
:101980000001010A000001010101010100000B003A
:101990000001010A000000010A0009010000010025
:1019A000C70101010100000B0A000901000001014B
:1019B000010101010101000B0101010100000B0106
:1019C0000A000001010101010A00000101010101F9
:1019D000010000010000000B0A00C8010707010018
:1019E000000000010000000B0101010100000100E6
:1019F00000010101000001010101010000020100DC
:101A000000000001010101010100000000020200CC
:101A100000000000000000010100C80000020200F8
:101A2000000000000000000101020206060202069A
:101A30000606020000C700010102020202020202C1
:101A400002020202020202010A0000000009020072
:101A5000000000000000000B0A0000000009020066
:101A6000000000000000000B01010100000901005E
:101A700000000001010606010A000000000000004D
:101A8000000000000000000B0A000000000600003B
:101A9000000000000000000B0A000400090208001A
:101AA000000000000004000B0A0000000007000016
:101AB000040000000000000B0A000000000000000D
:101AC000000000060000000B0A000000C700000034
:101AD000000009020800000B0A00000004000000DA
:101AE000C80000070000000B0A0000000000000012
:101AF000020000000004000B0207070707070707A2
:101B000002020707070707020200000000000000AA
:101B100003020000000000090200C80000000000ED
:101B2000030200000000000902020200000600009B
:101B30000302000006000009080000000902080076
:101B40000308000002000009080000000007000070
:101B5000020200000300000908000000000000006D
:101B6000000000000200C70902060606060606027B
:101B70000202020602020202010101010101020049
:101B8000000000010101010101000000000002004D
:101B9000000000000000000901C80000000002066B
:101BA0000000000000000009010206000000000221
:101BB000060000000000000901020206000000000B
:101BC00002060000000000090102020206000000F7
:101BD00000020600000000090102020202060000E5
:101BE0000000020000C70009010101010101060017
:101BF00000000002010101010301010101010102D4
:101C000002020000000000090300000100000009BA
:101C100002000000000000090300C80100000009E4
:101C20000200000000C700090300010100000009D4
:101C30000200000002020202030000000000000097
:101C40000000000000000009030000000000000088
:101C50000000000000000009020000000000000970
:101C60000200000000000009030606060606060240
:101C70000206000000000009010101010800000047
:101C800001000000000101010100C800080000007F
:101C90000100000002070701010002020A0000061D
:101CA0000100C7020200000B080000020A00000247
:101CB000010101020000000B080000020800000002
:101CC00009010800000000010100000B0A000000EB
:101CD00009020000000000010100000B0A000000E2
:101CE00009020000000006010106060108000000CC
:101CF00002000000000602010000000000000000D9
:101D000000000000000000000202020202020202C3
:101D10000202020202020202020707040407070489
:101D20000407070404000002020000000000000095
:101D3000000000000000000202C8000000000000D7
:101D4000000000000000000202040406060404066D
:101D5000060404060600C702020202020202020290
:101D60000202020202020202000000000000000063
:101D70000000000000000000020707070707070730
:101D80000707070707070702080000000000000018
:101D90000000000000000009080000000000000032
:101DA0000000000000000009080000000002000020
:101DB0000000020000000009020000000902080003
:101DC0000000020800000002020000000002000003
:101DD000000002000000000208000000000200C82D
:101DE000C7090200000000090206040406010101FF
:101DF0000101010604040602020707070707070797
:101E00000707070707070702080000000000000097
:101E100000000000000000090800000000040000AD
:101E20000000000000C800090800000000030000D6
:101E30000000060602020202080000000003000083
:101E40000000040202020202080000000003000079
:101E5000000000000000000908000000000400006D
:101E600006C706000000000902060606060206066E
:101E70000204020606060602000000000000000040
:101E80000000000000000000000000000000000052
:101E90000000000000000000000000000000000042
:101EA0000000000000000000020202020202020222
:101EB0000202020202020202010000000000000011
:101EC0000000000000000001010000000000000010
:101ED00000000000000000010100C8000000000038
:101EE0000000000000C70001010101010101010122
:101EF0000101010101010101C0C0F0DCDFFFCFC31E
:101F0000C3CFFFDFDCF0C0C0C0C3FFDFDFFC603049
:101F10003060FCDFDFFFC3C000000000003E5B4F0D
:101F20005B3E3E6B4F6B3E1C3E7C3E1C183C7E3C39
:101F3000181C577D571C1C5E7F5E1C00183C180047
:101F4000FFE7C3E7FF0018241800FFE7DBE7FF30D7
:101F5000483A060E2629792926407F050507407F45
:101F600005253F5A3CE73C5A7F3E1C1C08081C1CB8
:101F70003E7F14227F22145F5F005F5F06097F01AE
:101F80007F006689956A606060606094A2FFA29499
:101F900008047E040810207E201008082A1C080867
:101FA0001C2A08081E101010100C1E0C1E0C3038B5
:101FB0003E3830060E3E0E06000000000000005FB6
:101FC00000000007000700147F147F14242A7F2AD2
:101FD0001223130864623649562050000807030094
:101FE000001C2241000041221C002A1C7F1C2A08E0
:101FF000083E080800807030000808080808000043
:1020000060600020100804023E5149453E00427FB6
:10201000400072494949462141494D331814127F05
:102020001027454545393C4A4949314121110907A5
:102030003649494936464949291E00001400000026
:1020400040340000000814224114141414140041F8
:1020500022140802015909063E415D594E7C1211B5
:10206000127C7F494949363E414141227F414141ED
:102070003E7F494949417F090909013E4141517368
:102080007F0808087F00417F41002040413F017FD9
:10209000081422417F404040407F021C027F7F04A1
:1020A00008107F3E4141413E7F090909063E4151EA
:1020B000215E7F09192946264949493203017F01DA
:1020C000033F4040403F1F2040201F3F4038403FDB
:1020D000631408146303047804036159494D4300F1
:1020E0007F4141410204081020004141417F040228
:1020F00001020440404040400003070800205454BF
:1021000078407F284444383844444428384444289C
:102110007F385454541800087E090218A4A49C78EF
:102120007F0804047800447D40002040403D007F4B
:102130001028440000417F40007C047804787C082B
:102140000404783844444438FC18242418182424FF
:1021500018FC7C08040408485454542404043F44E4
:10216000243C4040207C1C2040201C3C4030403C13
:1021700044281028444C9090907C4464544C440073
:1021800008364100000077000000413608000201D7
:102190000204023C2623263C1EA1A161123A4040C3
:1021A000207A385454555921555579412154547841
:1021B00041215554784020545579400C1E527212DA
:1021C0003955555559395454545939555454580062
:1021D00000457C410002457D420001457C40F029DC
:1021E0002429F0F0282528F07C545545002054542B
:1021F0007C547C0A097F493249494932324848486F
:1022000032324A4848303A4141217A3A42402078B5
:10221000009DA0A07D39444444393D4040403D3CB0
:1022200024FF2424487E4943662B2FFC2F2BFF09D3
:1022300029F620C0887E09032054547941000044C7
:102240007D413048484A32384040227A007A0A0AB2
:10225000727D0D19317D2629292F28262929292625
:1022600030484D4020380808080808080808382F6A
:1022700010C8ACBA2F102834FA00007B00000814F4
:102280002A142222142A14089500220095AA005527
:1022900000AAAA55AA55AA000000FF00101010FFBE
:1022A00000141414FF001010FF00FF1010F010F0C5
:1022B000141414FC001414F700FF0000FF00FF14B6
:1022C00014F404FC141417101F10101F101F141402
:1022D000141F00101010F0000000001F101010104C
:1022E0001F10101010F010000000FF101010101040
:1022F00010101010FF10000000FF140000FF00FF7E
:1023000000001F10170000FC04F414141710171419
:1023100014F404F40000FF00F7141414141414143B
:10232000F700F7141414171410101F101F141414AE
:10233000F4141010F010F000001F101F0000001F18
:1023400014000000FC140000F010F01010FF10FF4B
:10235000141414FF141010101F00000000F010FFE0
:10236000FFFFFFFFF0F0F0F0F0FFFFFF00000000C4
:1023700000FFFF0F0F0F0F0F38444438447C2A2A08
:102380003E147E02020606027E027E026355494129
:10239000633844443C04407E201E2006027E020234
:1023A00099A5E7A5991C2A492A1C4C7201724C3048
:1023B0004A4D4D303048784830BC625A463D3E491F
:1023C0004949007E0101017E2A2A2A2A2A44445FC3
:1023D000444440514A444040444A51400000FF01B7
:1023E00003E080FF000008086B6B083612362436C5
:1023F000060F090F0600001818000000101000302A
:1024000040FF0101001F01011E00191D1712003CB1
:102410003C3C3C00000000000000000200090F00EE
:1024200000030401000C0000000000000000000098
:1024300000000000000000080B0002020201000979
:10244000040000010202000005240010010524011F
:10245000010104240206052406000107058103107A
:10246000004009040100020A0000000705020240C2
:102470000000070583024000000403090441726460
:1024800075696E6F204C4C430041726475696E6FC4
:10249000204C656F6E6172646F00120100020000D3
:1024A00000404123368000010102030112010002B5
:1024B000EF02014041233680000101020301004088
:1024C0007A10F35A00A0724E18090010A5D4E80043
:1024D00000E87648170000E40B54020000CA9A3B5B
:1024E000000000E1F50500008096980000004042E1
:1024F0000F000000A086010000001027000000006F
:10250000E803000000006400000000000A00000072
:1025100000000100000000002C76D888DC674F081E
:1025200023DFC1DFAE59E1B1B796E5E3E453C63A24
:10253000E651997696E8E6C28426EB898C9B62ED9B
:10254000407C6FFCEFBC9C9F40F2BAA56FA5F49055
:10255000055A2AF75C936B6CF9676DC11BFCE0E4CC
:102560000D47FEF520E6B500D0ED902E0300943522
:1025700077050080841E080000204E0A000000C875
:102580000C333333330F986E12831141EF8D2114C6
:10259000893BE65516CFFEE6DB18D1844B381BF796
:1025A0007C1D901DA4BBE424203284725E22810035
:1025B000C9F124ECA1E53D27962B11241FBECFEFD6
:1025C000DAE0DEBFCDBF11E0A0E0B1E0E6ECF3E67B
:1025D00002C005900D92A83EB107D9F727E0A8EEFA
:1025E000B1E001C01D92AD31B207E1F712E1CDEDCE
:1025F000D2E104C02197FE010E94C72BCC3DD10738
:10260000C9F70E943B220C94E1310C94000008951C
:10261000CF92DF92EF92FF920F931F93CF93DF93AE
:102620006C017A018B01C0E0D0E0CE15DF0589F0A6
:10263000D8016D918D01D601ED91FC910190F08151
:10264000E02DC6010995892B11F47E0102C0219667
:10265000ECCFC701DF91CF911F910F91FF90EF90C9
:10266000DF90CF9008953FB7F89480918E029091BB
:102670008F02A0919002B091910226B5A89B05C04F
:102680002F3F19F00196A11DB11D3FBFBA2FA92FF1
:10269000982F8827820F911DA11DB11DBC01CD016E
:1026A00042E0660F771F881F991F4A95D1F708955A
:1026B0000E94362E0F931F93CF93DF938C01EB0173
:1026C000FC01808191810097B1F068817981611569
:1026D000710579F0428153812C813D814217530766
:1026E00040F00E94442E8C819D81F8019583848363
:1026F00013C00E94D42C88819981F8019183808332
:102700008A819B81938382838C819D81958384833D
:10271000198218821B821A821D821C82DF91CF913E
:102720001F910F9108950F931F93CF93DF93EC01A7
:1027300088819981009729F02A813B8126173707E4
:1027400088F48B016F5F7F4F0E946C2D009761F0C2
:10275000998388831B830A832C813D81232B11F469
:10276000FC01108281E001C080E0DF91CF911F91D8
:102770000F910895CF93DF93EC01888199810097A1
:1027800011F00E94D42C198218821D821C821B8297
:102790001A82DF91CF910895EF92FF920F931F93CA
:1027A000CF93DF93EC01FB0184819581E080F18080
:1027B0000C811D81E114F104B1F00097B9F0080F0C
:1027C000191FB801CE010E949313882361F028815C
:1027D00039818C819D81B701820F931F0E94442E05
:1027E0001D830C8303C0CE010E94BA13CE01DF917A
:1027F000CF911F910F91FF90EF900895EF92FF926C
:102800000F931F93CF93DF93EC017B018A01BA01F1
:102810000E949313811104C0CE010E94BA1307C015
:102820001D830C83B701888199810E94442ECE01BB
:10283000DF91CF911F910F91FF90EF900895FC01D0
:10284000808191810C94D42CEF92FF920F931F936F
:10285000CF93DF93CDB7DEB7A1970FB6F894DEBF65
:102860000FBECDBF7C01CB01BA01F70111821082EE
:10287000138212821582148242E0420F8E010F5F92
:102880001F4F0E944B2E009769F0FC010190002021
:10289000E9F73197AF01481B590BBC01C7010E94F2
:1028A000FE1303C0C7010E94BA13A1960FB6F89495
:1028B000DEBF0FBECDBFDF91CF911F910F91FF9073
:1028C000EF900895FB01DC0111961C921E92139665
:1028D0001C921E92129715961C921E9214978617A0
:1028E000970749F0608171816115710521F044817C
:1028F00055810C94FE130895FC01118210821382FD
:102900001282158214826115710551F0FB0101904C
:102910000020E9F73197AF01461B570B0C94FE13CB
:102920000895362F90E0FC01E85EFB4D4491FC01D8
:10293000EB56FE4F2491FC01EE53FE4F8491882309
:1029400009F451C04423E1F150E0FA013197EF302E
:10295000F105B0F5EA5AFF4F0C94C72B9091800017
:102960009F7707C0909180009F7D03C09091800069
:10297000977F9093800024C094B59F7702C094B550
:102980009F7D94BD1DC0909190009F7707C090914E
:1029900090009F7D03C090919000977F909390004E
:1029A0000FC09091C0009F7703C09091C0009F7DA1
:1029B0009093C00005C09091C200977F9093C20091
:1029C000E82FF0E0EE0FFF1FEC54FE4FA591B491FD
:1029D0008FB7F894EC91311103C020952E2301C0DC
:1029E0002E2B2C938FBF0895CF93DF9390E0FC01A3
:1029F000EB56FE4F2491FC01EE53FE4F8491882349
:102A000061F190E0880F991FFC01E658FE4FC591D7
:102A1000D491FC01EC54FE4FA591B491611109C011
:102A20009FB7F8948881209582238883EC912E2388
:102A30000BC0623061F49FB7F8943881822F809583
:102A400083238883EC912E2B2C939FBF06C08FB7D6
:102A5000F894E8812E2B28838FBFDF91CF910895C2
:102A60008F929F92AF92BF92CF92DF92EF92FF929E
:102A70006B017C010E9433134B015C01C114D10432
:102A8000E104F104F1F00E943313DC01CB01881959
:102A90009909AA09BB09883E9340A105B10570F3C5
:102AA00021E0C21AD108E108F10888EE880E83E01F
:102AB000981EA11CB11CC114D104E104F10419F742
:102AC000DDCFFF90EF90DF90CF90BF90AF909F90C1
:102AD0008F9008951F920F920FB60F9211242F938B
:102AE0003F938F939F93AF93BF9380919602909162
:102AF0009702A0919802B091990230918D0223E043
:102B0000230F2D3720F40196A11DB11D05C026E825
:102B1000230F0296A11DB11D20938D028093960272
:102B200090939702A0939802B093990280918E029D
:102B300090918F02A0919002B09191020196A11DF7
:102B4000B11D80938E0290938F02A0939002B09358
:102B50009102BF91AF919F918F913F912F910F90D3
:102B60000FBE0F901F9018958FB12CB193B130E02C
:102B70002095309520743327A90123E0559547957A
:102B80002A95E1F7292F30E02095309520713327E1
:102B90003595279535952795242B8095807F822B19
:102BA00008951F93CF93DF931F92CDB7DEB7162FF3
:102BB000682F8AE049830E949114612F8BE00E9464
:102BC00091144981642F89E00F90DF91CF911F917B
:102BD0000C94911483B7817F83BF83B7816083BFD7
:102BE000889583B78E7F83BF0895E091EC01F091C3
:102BF000ED0190818091EB01892B8083E091E901C7
:102C0000F091EA0190818091E80180958923808389
:102C1000E091EC01F091ED0190818091EB018095C4
:102C2000892380830895E091E901F091EA01908180
:102C30008091E801892B8083E091EC01F091ED0116
:102C400090818091EB0180958923808308958EBDCA
:102C500000000DB407FEFDCF8EB508950F931F93AE
:102C6000CF93DF931F92CDB7DEB7182F062F61E009
:102C700089E049830E94911468EC70E080E090E064
:102C80000E94301560E0802F0E94911482E090E055
:102C90000E9494314981481729F0642F82E090E026
:102CA0000E949C3164EF71E080E090E00E9430155A
:102CB00061E0802F0E9491140E94B4158123811736
:102CC000D9F30F90DF91CF911F910F910895603844
:102CD000710518F54034510500F5E42FE695E695A9
:102CE000E695F0E047705527F695FE2FEE27F7950D
:102CF000E7956E0F7F1FFB01E656FD4F81E090E0E8
:102D000001C0880F4A95EAF7222319F09081892B98
:102D100003C0809590818923808308952F923F92EC
:102D20004F925F926F927F928F929F92AF92BF92DB
:102D3000CF92DF92EF92FF920F931F93CF93DF9387
:102D4000CDB7DEB72A970FB6F894DEBF0FBECDBF62
:102D5000FC016A3069F4228D8689978938E0239FC7
:102D6000800D911D1124978B868B158A148AB0C013
:102D70006D3009F4ADC09A878987E28C318D808DE2
:102D80008983268837880489158900381105C4F09D
:102D9000A985BA855A962C915A97422F50E054969D
:102DA0008D919C915597B6E02B9F800D911D11241C
:102DB000E985FA85958B848B238D211173C088C09A
:102DC000F0E42F16310424F7C80125E0E29E800DBF
:102DD000911D112418161906DCF68E2D90E09B83A8
:102DE0008A83C101A8E0EA9E800D911D1124181666
:102DF000190674F625E0629FF0011124FD83EC832F
:102E0000C12CD12C89859A8504969F838E8395E069
:102E1000C916D10441F0EC81FD81EC0DFD1DE85E89
:102E2000F04EF49001C0F12C310188E0482EF0FC06
:102E300002C0532E01C0598051100CC0A9813A1311
:102E400009C0F6944A94EA81FB816E0E7F1E411000
:102E5000EECF1BC058018A2D801B8E1590F74301C1
:102E6000882D86198E1568F4252DA401B5018E8153
:102E70009F8138870E946716FFEF8F1A9F0A388557
:102E8000EFCF2FEFA21AB20AE6CF8FEFC81AD80AF7
:102E9000AA81BB810A0F1B1FB6E0CB16D10409F033
:102EA000B6CF76CF6AEF64039001659F300D112491
:102EB00020583F4F281739075CF4A985BA85ED9152
:102EC000FC9111970190F081E02D6AE0CD01099508
:102ED00081E090E02A960FB6F894DEBF0FBECDBF1A
:102EE000DF91CF911F910F91FF90EF90DF90CF90E6
:102EF000BF90AF909F908F907F906F905F904F901A
:102F00003F902F9008950F93CF938091EE01811100
:102F10002DC06091790270E080917A0208E028E08B
:102F200040E45AE090E00E94E81B6091790270E072
:102F30006850710980917A0228E048E35AE090E0F5
:102F40000E94E81BC0918C02CC2381F06091790231
:102F500070E06850710980917A0200E02C2F48E0FF
:102F600090E00E94C61BC150C0938C0290917602E3
:102F700060917C0280917B02992351F090917402C0
:102F8000992331F070E008E028E040E15FE125C0DE
:102F900090917502992351F090917402992331F028
:102FA00070E008E028E048E05FE117C020917F0270
:102FB0003091800270E008E02530310524F028E0EF
:102FC00040E05FE10AC02C3F3F4F24F428E048EF87
:102FD0005EE103C028E048E052E090E00E94E81B78
:102FE000CF910F9108950F931F93CF93DF9310927A
:102FF000720210927602C0E0D0E011E050917B02A4
:10300000252F30E0C901019797FD079603E09595BC
:1030100087950A95E1F720917C02BE01620F711D30
:1030200023E0759567952A95E1F76830710514F0EE
:1030300060E070E09B01B4E0220F331FBA95E1F726
:10304000F901E80FF91FE151FE4F4081EFEFE40F66
:10305000E53020F0552311F04B3029F51093720222
:10306000C430D10524F04330F1F01093760244309F
:10307000D1F4280F391FF901E151FE4F1083F3E01D
:10308000660F771FFA95E1F701E028E048E0A3E03A
:10309000880F991FAA95E1F70E94C61B8091EE0147
:1030A00081508093EE012196C830D10509F0A6CF5A
:1030B0001092730210927502C0E0D0E011E05091BE
:1030C0007B02852F90E0089663E0959587956A9539
:1030D000E1F720917C02BE01620F711DE3E075955E
:1030E0006795EA95E1F76830710514F060E070E0EB
:1030F0009B0144E0220F331F4A95E1F7F901E80FE5
:10310000F91FE151FE4F4081EFEFE40FE53020F071
:10311000583710F44A3029F510937302C430D105A2
:1031200024F04330F1F0109375024430D1F4280FAD
:10313000391FF901E151FE4F108323E0660F771F1D
:103140002A95E1F701E028E048E033E0880F991F75
:103150003A95E1F70E94C61B8091EE018150809361
:10316000EE012196C830D10509F0A9CFDF91CF91AA
:103170001F910F9108950F931F93CF93DF9381E0D9
:1031800080937402C0E0D0E011E080917B029E0148
:10319000280F311DC901B3E095958795BA95E1F7E0
:1031A00060917C0270E0685F7F4F03E075956795E2
:1031B0000A95E1F76830710514F060E070E0FB01FA
:1031C000A4E0EE0FFF1FAA95E1F7E80FF91FE15108
:1031D000FE4F20813FEF320F3530C8F41092740259
:1031E0002430A9F41083E3E0660F771FEA95E1F736
:1031F00001E028E048E0F3E0880F991FFA95E1F735
:103200000E94C61B8091EE0181508093EE012196B1
:10321000C830D10509F0B9CF10926F02C0E0D0E0FC
:1032200011E080917B029E01280F311DC90163E0EE
:10323000959587956A95E1F760917C02662349F040
:1032400070E06150710953E0759567955A95E1F703
:1032500002C067E070E0FB0144E0EE0FFF1F4A95FB
:10326000E1F7E80FF91FE151FE4F20813FEF320FE8
:103270003530C8F410936F022430A9F4108323E092
:10328000660F771F2A95E1F701E028E048E033E078
:10329000880F991F3A95E1F70E94C61B8091EE01B5
:1032A00081508093EE012196C830D10509F0B9CF45
:1032B000DF91CF911F910F9108952F923F924F92DE
:1032C0005F926F927F928F929F92AF92BF92CF92B6
:1032D000DF92EF92FF920F931F93CF93DF9300D073
:1032E00000D000D0CDB7DEB74091820280E8489F81
:1032F000A00111242FEE822E21E0922E94014F5E28
:103300005140BA01620F731F80E090E0FC01E60FAC
:10331000F71FE858F54FE491D901A80FB91FEC93B6
:1033200001968031910591F7205F3F4F92E02F3653
:10333000390739F70E944D1DE0E0F1E0A8E0B1E067
:1033400080E181938D9391E0E830F907D1F71092F5
:10335000EE0110928C02E12CF12CA12CB12C8FE00B
:10336000282E90E1692E712C270197E0490E511CFF
:103370003E2C640110E01E821D82F501E050FF4FDB
:10338000FA83E983C501885F9E4F9C838B83F60196
:103390008081813049F408E028E040E75AE0B70135
:1033A0008D819E810E94E81BF6018081823049F464
:1033B00008E028E040E052E0B7018D819E810E9444
:1033C000E81BF6018081843001F5B7018D819E8173
:1033D0000E940B1DB2018D819E810E940B1D21E078
:1033E00048E0B7018D819E810E949A1B21E048E050
:1033F000B7018D819E8107960E949A1B8091EE01F4
:103400008F5F8093EE0120928C02F60180818630DE
:1034100049F408E028E048E65AE0B7018D819E8132
:103420000E94E81BF6018081873049F408E028E01B
:1034300040E65AE0B7018D819E810E94E81BF601AB
:103440008081883049F408E028E048E55AE0B70177
:103450008D819E810E94E81BF6018081833049F4B2
:1034600008E028E040E55AE0B7018D819E810E9486
:10347000E81BF6018081893049F408E028E048E43F
:103480005AE0B7018D819E810E94E81BF601808180
:103490008A3061F408E028E048E25AE0B7018D8103
:1034A0009E810E94E81BE981FA811083F6018081E8
:1034B0008B3061F408E028E040E25AE0B7018D81EA
:1034C0009E810E94E81BEB81FC811083F6018081C4
:1034D000883C31F4FD81F0937B0230927C0207C07E
:1034E000873C29F48D8180937A02309279029FEF94
:1034F000C91AD90AED81FE813896FE83ED831F5FDC
:10350000103109F044CF80918202883251F57092D7
:10351000AF066092AE061092B1061092B00685EB2F
:1035200091E00E94F91C83E090E09093AF068093B5
:10353000AE06E8E0F0E0F093B106E093B00686EC6A
:1035400091E00E94F91C82E290E09093AF06809394
:10355000AE067092B1066092B0068BED91E00E94CB
:10356000F91C9FEFA91AB90AE8E0EE0EF11CF0E190
:103570008F0E911C88E0A816B10409F0F5CE0E94C8
:1035800083171092800210927F0210927E02109296
:103590007D021092780210927702109270021092BF
:1035A00081021092710226960FB6F894DEBF0FBE0C
:1035B000CDBFDF91CF911F910F91FF90EF90DF90E2
:1035C000CF90BF90AF909F908F907F906F905F90C3
:1035D0004F903F902F900C94E71CCF93DF931F9256
:1035E000CDB7DEB76983DC01ED91FC910280F381F8
:1035F000E02D41E050E0BE016F5F7F4F09950F90D5
:10360000DF91CF91089583E08093E9008091F200EB
:10361000882319F08AE38093E80008958F929F929F
:10362000AF92BF92CF92DF92EF92FF920F931F93D0
:10363000CF93DF935C016B018A018091170188238E
:1036400009F45EC080919502882309F459C08091E5
:10365000930280FF05C08091E00082608093E000CB
:10366000E8018AEFF82E93E0E92E2FE3822E3AE369
:10367000932E209709F43DC08FB7F894E092E900AB
:103680009091E80095FF06C09091F200282D291B2B
:10369000922F01C090E08FBF91110AC0FA94FF20D1
:1036A00079F161E070E080E090E00E943015E1CFB8
:1036B000292F30E0C217D3070CF49C2F8FB7F89452
:1036C000E092E9002091E80025FF11C0292F30E0A9
:1036D000C21BD30BF601915020F041914093F100B1
:1036E000FACFC20ED31E9091E80095FF13C08FBF92
:1036F000C0CF5D9884E6809392021016110644F0C4
:1037000081E090E0F5019383828380E090E005C042
:10371000C80103C09092E800EACFDF91CF911F91DA
:103720000F91FF90EF90DF90CF90BF90AF909F9060
:103730008F900895DF92EF92FF920F931F93CF9394
:10374000DF937C01D22E8B01040F111DEB0177FF5B
:103750000EC0C0E0D0E00BC0C417D5077CF42D2DFF
:10376000AE01B7018EE996E00E9467162196A80186
:10377000013411058CF340E450E0EECFDF91CF919E
:103780001F910F91FF90EF90DF900895CF92DF92FD
:10379000EF92FF920F931F93CF93DF936B01122F42
:1037A000EC017C01E40EF11CCE15DF0544F4202F62
:1037B000412FB601CE010E949A1B2196F5CFDF91D1
:1037C000CF911F910F91FF90EF90DF90CF900895D0
:1037D0002F923F924F925F926F927F928F929F9221
:1037E000AF92BF92CF92DF92EF92FF920F931F930F
:1037F000CF93DF93CDB7DEB728970FB6F894DEBF2F
:103800000FBECDBF5A01822E912C9C01280D391D6F
:1038100037FDC4C0803891050CF0C0C09B01200F5B
:10382000311D37FDBBC0603471050CF0B7C0AB0172
:1038300077FF04C044275527461B570B4770552771
:103840009B0177FF02C0295F3F4FE3E03595279545
:10385000EA95E1F777FF08C02150310968E070E090
:10386000DB01A41BB50BAD01602F669566956695CF
:1038700070E0077011F06F5F7F4FDB01A20FB31F85
:10388000BA83A98339017694762C66247794679459
:10389000680E791EE12CF12C00E010E02301B0E865
:1038A0004B0E511C68E070E0DB01A41BB50BBC8320
:1038B000AB8369817A812617370709F46FC02830F6
:1038C000310509F46BC02F3FBFEF3B070CF45BC021
:1038D000B201600F711FDB01A656BD4FBE83AD83E1
:1038E000D801A60DB71DA656BD4F6C0160E070E073
:1038F000681579050CF047C0E0E8CE16D10409F44C
:1039000042C0D7FC34C02F3FFFEF3F0709F442C04D
:10391000FB01EE0DFF1DEA0DFB1DE491042E01C01D
:10392000EE0F0A94EAF73C90E329EC934115510518
:10393000F1F027303105D9F0FB01EE0DFF1DEA0D46
:10394000FB1DE4912E2E312CF1010B8002C0F59568
:10395000E7950A94E2F7F887EF83ED81FE813080E6
:10396000EF81F885E3291F01ED81FE8120826F5FE1
:103970007F4FED81FE813196FE83ED83FFEFCF1AFD
:10398000DF0A1196B5CF2F5F3F4F00581F4FE80C4D
:10399000F91C8FCF4115510579F6E9CF28960FB65E
:1039A000F894DEBF0FBECDBFDF91CF911F910F9175
:1039B000FF90EF90DF90CF90BF90AF909F908F904F
:1039C0007F906F905F904F903F902F9008958091DF
:1039D0009A028EBDEBE9F2E081910DB407FEFDCFB6
:1039E0008EBD86E0EA39F807B9F70DB407FEFDCFC2
:1039F0000895009769F0FC0101900020E9F73197E4
:103A0000AF01481B590BBC018AE996E00C940813DE
:103A100080E090E008959C01295F3F4F27383105F1
:103A200060F5FC0197FF02C0E0E0F0E00896813805
:103A3000910514F080E890E08E1B9B0127703327DE
:103A400091E001C0990F2A95EAF777FF02C0695FFC
:103A50007F4F23E0759567952A95E1F77695762F48
:103A6000662777956795E60FF71FE656FD4F81505D
:103A700020F02081292B2193FACF089520E08AE9B4
:103A800092E0B22FB111BFEFFC010024B193B193CA
:103A9000B193B1930394D1F708950E943E1DEAE9D2
:103AA000F6E0178A168A158A148A08952FB7F894B3
:103AB0008091960290919702A0919802B0919902FC
:103AC0002FBF2091AC06222391F02091A406382F1D
:103AD000321B3093AD062091A1063091A2062F5FD4
:103AE0003F4F3093A2062093A1061092AC0640915E
:103AF000A8065091A9066091AA067091AB0684179A
:103B00009507A607B70730F4481B4230F8F00E942B
:103B1000EA151CC02091A306AC01BD01420F511D46
:103B2000611D711D4093A8065093A9066093AA06D3
:103B30007093AB068093A4069093A506A093A60667
:103B4000B093A70681E08093AC06089580E00895C5
:103B5000AF92BF92CF92DF92EF92FF920F931F939B
:103B6000CF93DF936C01E12CF12C00E010E090E8A2
:103B7000A92EB12CC0E0D0E0FE0183E0F595E795D9
:103B80008A95E1F7EE0DFF1DEC0DFD1D84919E0160
:103B900027703327A50102C0559547952A95E2F76E
:103BA000E82FF0E0E423F523EF2B39F021E0A80122
:103BB000BE018EE996E00E9467162196C038D105B5
:103BC000D9F60F5F1F4F50E1E50EF11C00341105CF
:103BD00089F6DF91CF911F910F91FF90EF90DF90C9
:103BE000CF90BF90AF900895FC01448155816081D2
:103BF00071818AE996E00C9408130F931F93CF9379
:103C0000DF93EC010C811D810F5F1F4FB8010E94F3
:103C10009313882369F0288139818C819D8166EE18
:103C200071E0820F931F0E94442E1D830C8303C0FA
:103C3000CE010E94BA13CE01DF91CF911F910F9157
:103C40000895FC0180919502811103C08FEF9FEFD1
:103C500008959FB7F89482E08093E9002091F200E4
:103C600030E01216130614F421E030E0211531057E
:103C700059F0289884E6809394028091F100808323
:103C80008091F200882319F09FBFC90108958BE647
:103C90008093E800F9CF8091BA0681110DC082E0CF
:103CA0008093B60684E08093B7061092B90610920E
:103CB000B80681E08093BA0686EB96E00895FC0191
:103CC0008485958597FD0BC09FB7F89482E080931B
:103CD000E9008091F2009FBF90E0019608959FB7A0
:103CE000F89482E08093E9008091F2009FBF90E019
:103CF00008954091170750911807209115073091AA
:103D0000160742175307B4F49091E8009570E1F359
:103D10009091E80092FD19C08093F10080911707FF
:103D20009091180701968F739927892B19F48EEFBC
:103D30008093E8008091170790911807019690935F
:103D400018078093170781E0089580E00895CF92C7
:103D5000DF92EF92FF920F931F93CF93DF931F9207
:103D6000CDB7DEB7182F062FE42E862F880F8E5F73
:103D700099830E94791E83E00E94791EF12EC12E44
:103D80009981D92E8C2D8F19801798F4F601E7FEB2
:103D900002C0849101C080810E94791E182F80E0AA
:103DA0000E94791E8123FFEFCF1ADF0A8111EACF2B
:103DB00001C081E00F90DF91CF911F910F91FF9093
:103DC000EF90DF90CF900895DF92EF92FF920F93E4
:103DD0001F93CF93DF93D82E8A017B01E40EF51E4B
:103DE000EB01CE15DF0571F0D7FE03C0FE01849113
:103DF00001C088810E94791E21968111F2CF8FEF38
:103E00009FEF01C0C801DF91CF911F910F91FF90EB
:103E1000EF90DF900895615030F02091F100FC01A7
:103E200020830196F8CF289884E680939402089521
:103E3000CF93DF931F92CDB7DEB7FC0184859585C4
:103E400097FD05C02FEF3FEF358724870BC0CE01CC
:103E500001960E94211E019719F4898190E002C009
:103E60008FEF9FEF0F90DF91CF9108950F931F93E6
:103E7000CF93DF931F92CDB7DEB78C01FC01848511
:103E8000958597FF0EC0CE0101960E94211E0197D5
:103E900019F4298130E002C02FEF3FEFF801358798
:103EA0002487F801848595850F90DF91CF911F912C
:103EB0000F9108950F931F93CF93DF931F92CDB768
:103EC000DEB782E0898342E450E067E374E280E891
:103ED0000E94E41E0E944B1EDC0112960D911C9163
:103EE00013970115110569F0D801ED91FC9102803D
:103EF000F381E02DBE016F5F7F4FC801099597FFE9
:103F000007C089810F90DF91CF911F910F91089584
:103F1000F80100851185E5CF1F920F920FB60F9221
:103F200011248F939F938091E1009091E100937F02
:103F30009093E10083FF0FC01092E90091E090930D
:103F4000EB001092EC0092E39093ED00109295023A
:103F500098E09093F00082FF20C093E09093E900F6
:103F60009091F200992319F09AE39093E8009091D0
:103F70009202992339F0909192029150909392027B
:103F8000992389F190919402992339F090919402A8
:103F9000915090939402992341F184FF10C0809135
:103FA000E2008E7E81608093E2008091E1008F7E4E
:103FB0008093E100809193028E7E806111C080FF2A
:103FC00016C08091E2008E7E80618093E200809135
:103FD000E1008E7E8093E100809193028E7E81606D
:103FE0008093930204C05D9ACDCF289AD6CF9F913B
:103FF0008F910F900FBE0F901F9018951F920F92E8
:104000000FB60F921124CF92DF92EF92FF920F938F
:104010001F932F933F934F935F936F937F938F9350
:104020009F93AF93BF93EF93FF93CF93DF93CDB75E
:10403000DEB76C97DEBFCDBF1092E9008091E8003B
:1040400083FFFAC168E0CE0145960E940B1F82EF04
:104050008093E8008D8987FF05C09091E80090FF6C
:10406000FCCF03C09EEF9093E800982F907609F064
:10407000C6C09E892F89188D91110CC0803829F4F3
:10408000809113078093F10002C01092F10010920A
:10409000F10047C1422F50E0512B913051F4811172
:1040A00040C14130510509F03CC1809113078D7F1B
:1040B0000BC0933061F4811134C14130510509F0D6
:1040C00030C1809113078260809313072AC1953015
:1040D00041F48091E80080FFFCCF20682093E3004A
:1040E00020C1963009F05FC0EB8CFC8C1092E90087
:1040F0001092180710921707123091F510921607B8
:10410000109215070E945A1F99E0BE016F5F7F4F02
:10411000DB01E92F1D92EA95E9F799831A8391E073
:104120009E8390EA98879AEF99872091170730919C
:104130001807275F3F4F3C832B838D831092E90044
:104140001092180710921707F0921607E0921507C1
:1041500049E050E080E00E94E41E0E945A1FE1C046
:10416000F0921607E09215070E944B1EDC01129692
:10417000ED90FC901397E114F10409F4C0C0D7014D
:10418000ED91FC910480F581E02DBE016B5E7F4FC7
:10419000C7010995009719F00CF0C3C0C6C0F7011C
:1041A000E084F184E8CF973009F4BFC0983021F45F
:1041B00081E08093F100B5C0993009F0B2C08370FE
:1041C00009F0B3C0EFE3F1E081E021E036E3908154
:1041D000992361F08093E9002093EB0091919093F3
:1041E000EC003093ED008F5F873089F78EE7809386
:1041F000EA001092EA008F898093950292C08B8D1D
:104200009C8D1092E9001092180710921707909356
:10421000160780931507898D811156C08E899D8957
:10422000913A59F4813209F080C047E050E060E1F2
:1042300071E080E00E94E41E74C0913209F075C004
:10424000833289F4888D90E0982F88272F89822BDC
:10425000A0E0B0E08093180190931901A0931A0197
:10426000B0931B015EC0803269F48091E80082FF48
:10427000FCCF67E080E191E00E940B1F8BEF809301
:10428000E80006C0823209F04CC08F898093170184
:1042900080911207882319F0EEEFFAE002C0E0E007
:1042A000F8E08091100190911101A0911201B0915C
:1042B0001301803B9440A105B10509F088C08091AD
:1042C000170180FFA0C083C00E944B1EDC01129624
:1042D0000D911C9113970115110539F1D801ED913C
:1042E000FC910190F081E02DBE016B5E7F4FC80113
:1042F0000995811116C0F80100851185ECCF1130A8
:10430000C1F0133091F48F89882309F455C08230AD
:10431000E9F440E860E189E894E20E94A71E88235E
:1043200021F08EEF8093E80087C081E28093EB005C
:1043300083C08B8D9C8D089711F410931407809186
:104340001407811136C06AE974E238C0813029F45B
:1043500040E86BE08DE794E2E0CF833031F70E94D4
:104360004B1EDC011296ED90FC9013978E010F5FAF
:104370001F4F6801E114F10479F0D701ED91FC9130
:104380000680F781E02DB801C7010995080F111DBE
:10439000F701E084F184EECFD8011C92F601019080
:1043A0000020E9F73197BF016C197D0940E0C60193
:1043B000B4CF6CEA74E202C069E774E2611571057A
:1043C00009F4B3CFFB01449150E080E833CF0FB63E
:1043D000F894A895809160008861809360001092A5
:1043E00060000FBEA895EE3F2AE0F20739F08091F9
:1043F000FE0A9091FF0A9183808393CF1092FF0A67
:104400001092FE0A8ECFEE3F8AE0F80731F08081ED
:1044100091819093FF0A8093FE0A87E797E7918343
:1044200080839BE088E10FB6F894A89580936000A4
:104430000FBE9093600075CF6C960FB6F894DEBFF8
:104440000FBECDBFDF91CF91FF91EF91BF91AF91A3
:104450009F918F917F916F915F914F913F912F919C
:104460001F910F91FF90EF90DF90CF900F900FBEB4
:104470000F901F901895CF93DF93CDB7DEB7A89715
:104480000FB6F894DEBF0FBECDBF789484B58260BE
:1044900084BD84B5816084BD85B5826085BD85B5E8
:1044A000816085BD80916E00816080936E00109266
:1044B00081008091810082608093810080918100E1
:1044C0008160809381008091800081608093800072
:1044D0008091910082608093910080919100816031
:1044E00080939100809190008160809390008091F2
:1044F000C10084608093C1008091C100826080937C
:10450000C1008091C10081608093C1008091C3008F
:1045100081608093C3008091C00082608093C0005E
:104520008091C20081608093C20080917A00846093
:1045300080937A0080917A00826080937A008091E3
:104540007A00816080937A0080917A0080688093FD
:104550007A001092950210921307109293028091A4
:10456000D70081608093D70080EA8093D80089B516
:10457000806189BD89B5826089BD09B400FEFDCF27
:1045800061E070E080E090E00E9430158091D800FA
:104590008F7C80618093D8008091E000807F809341
:1045A000E0008091E1008E7E8093E1008DE08093B9
:1045B000E200559A209AEEEFFFE7859194918B3FA8
:1045C0009C4D19F481E0809312071FB7F8948091F5
:1045D0008402811127C0E3EDF1E08491E6EAF1E085
:1045E0009491E82FF0E0EE0FFF1FE658FE4FA591E3
:1045F000B491EC91E92321F461E081E10E949114EE
:1046000061E081E10E94F4148CB580618CBD8CB5B1
:1046100080648CBD61E08FE00E94F41461E080E171
:104620000E94F414809184028F5F809384021FBFE4
:1046300001EE11E0F80184910E5F1F4F31966491F5
:10464000882319F00E94F414F5CF61E086E00E94FF
:10465000911461E070E080E090E00E94301560E02D
:1046600086E00E9491146AE070E080E090E00E9491
:10467000301561E086E00E949114EEECF1E0E491E7
:10468000F0E0EE0FFF1FEC54FE4F85919491909354
:10469000ED018093EC01E1EAF1E0E491E093EB01BC
:1046A000E6ECF1E0E491F0E0EE0FFF1FEC54FE4F7A
:1046B000859194919093EA018093E901E9E9F1E011
:1046C000E491E093E8018CB58C7F8CBD8DB5816061
:1046D0008DBD0E94F51508E811E07DE0F72EF00E83
:1046E000F80184910E9427160F5F1F4FF012F8CF38
:1046F0000E94131680916400816080936400809111
:10470000640082608093640080916400806880937C
:1047100064008091640080648093640080916500EF
:1047200081608093650000E014E080E00E9427161D
:1047300001501109D1F70E94B41587FF3CC00E94B7
:10474000F51585EA0E9427160E94131640E060E0E6
:1047500080E00E94D1150E94B41584FD03C00E9420
:10476000EA15F9CF41E061E081E00E94D1150E9495
:10477000F51584EA0E9427160E9413161CC060E0FB
:1047800089E00E9491140E94B4158478843821F441
:104790004FEF6BE00E942E160E94B4158471843195
:1047A00021F440E06AE00E942E1668EC70E080E0A0
:1047B00090E00E9430150E94B41582FDE0CF61E0C8
:1047C00089E00E94911460E08AE00E9491144EEE0C
:1047D000E42EFF24FA941E2D1C3F19F441E060E002
:1047E00004C0183129F440E061E081E00E94D11555
:1047F0000E943E1D00E128E54AEC50E0B70184E14B
:1048000090E00E94E81B0E94E71C6BE170E080E0F2
:1048100090E00E943015103F31F46AEF70E080E0C4
:1048200090E00E943015FFEFEF1AFF0A29E1E2162F
:10483000F10489F66EEE72E080E090E00E9430159F
:1048400061E089E00E94911482E090E00E9494313E
:10485000882359F061E085E00E94F41461E08DE066
:104860000E94F41481E08093830280E18093A30688
:104870000E944D1D0E94E71C0E944D1D0E94E71CD6
:1048800064E670E080E090E00E94301516E0EE24CF
:10489000E394F12C20E2222E312C36E3832E912C4E
:1048A00080E196E00E94A81D3092AF062092AE06ED
:1048B0009092B1068092B00685E491E00E94F91CC6
:1048C000370180E4680E711C5701270190E8490EFA
:1048D000511C670100E0212F412FB501C6010E9444
:1048E000C61BE8E0CE0ED11CC414D50499F7F8E03D
:1048F000AF0EB11CA614B70461F70E94E71C62E377
:1049000070E080E090E00E9430152FEFE21AF20A8A
:10491000125031F680E196E00E94A81D80E290E0FE
:104920009093AF068093AE0686E390E09093B10635
:104930008093B00685E491E00E94F91C0E94E71C78
:104940006CED75E080E090E00E94301512E084E0AC
:10495000E82EF12C3701F0E46F0E711C670147015E
:1049600020E8820E911C570100E0212F412FB60153
:10497000C5010E94C61B88E0A80EB11CA814B9048A
:1049800099F798E0C90ED11CC614D70461F7E1E08D
:10499000EE1AF1081E5F1830E9F60E94E71C64E683
:1049A00070E080E090E00E9430150E944D1D0E9452
:1049B000E71C64EF71E080E090E00E94301580E138
:1049C00092E00E94A81D00E020E444E360E070E073
:1049D00080E090E00E94C61B0E94E71C64EF71E03B
:1049E00080E090E00E94301580E192E00E94A81DD6
:1049F0002EE244E362E170E080E090E00E94C61B9A
:104A00000E94E71C64EF71E080E090E00E943015A6
:104A100080E192E00E94A81D2DE144E363E270E092
:104A200080E090E00E94C61B0E94E71C64EF71E0EA
:104A300080E090E00E94301580E192E00E94A81D85
:104A40002EE044E362E370E080E090E00E94C61B49
:104A50000E94E71C64EF71E080E090E00E94301556
:104A600080E192E00E94A81D0E94E71C0E94B415FC
:104A700083FD04C00E94B41582FFF8CF0E944D1D33
:104A80000E94E71C64EF71E080E090E00E94301526
:104A900008E028E048E052E061E070E08BE390E05D
:104AA0000E94E81BE12CF12C08E028E040E052E0F5
:104AB000B70180E090E00E94E81B88E0E80EF11C5E
:104AC00090E4E916F10481F7E12CF12C08E028E0EC
:104AD00040E052E0B70188E790E00E94E81BE8E080
:104AE000EE0EF11CF0E4EF16F10481F70E94E71CD2
:104AF0006EEE72E080E090E00E9430158DE090E074
:104B00009093AF068093AE068AE090E09093B10652
:104B10008093B00682E591E00E94F91C0E94E71C98
:104B20006EEE72E080E090E00E9430150EE110E041
:104B30001093AF060093AE0684E190E09093B10627
:104B40008093B00684E691E00E94F91C0E94E71C65
:104B50006EEE72E080E090E00E94301585E190E01A
:104B60009093AF068093AE061093B1060093B00603
:104B700080E791E00E94F91C0E94E71C6EEE72E053
:104B800080E090E00E94301587E290E09093AF06BD
:104B90008093AE0688E290E09093B1068093B006D1
:104BA0008FE791E00E94F91C0E94E71C6EEE72E014
:104BB00080E090E00E94301508E028E040E45AE0F0
:104BC00068E370E08BE390E00E94E81B28E048E394
:104BD0005AE060E370E08BE390E00E94E81B0E94E3
:104BE000E71C0E94B41583FD04C00E94B41582FF27
:104BF000F8CFCE0101961C0110918202183208F004
:104C00002CC20E944D1D8EE190E09093AF068093E0
:104C1000AE0684E190E09093B1068093B0061C8AC2
:104C20001B8A1E8A1D8A188E1F8A812F90E04AE0F7
:104C3000B10101960E946B2EF10101900020E9F76D
:104C40003197AF0142195309B101CE0143960E9439
:104C5000FE1368E871E0C1010E947C14BE016D5E24
:104C60007F4FC1010E94CC13BC01CE014F960E9420
:104C70006214C1010E941F14CE0143960E941F14AA
:104C8000CE014F960E94F41D85E090E09093AF0610
:104C90008093AE0682E390E09093B1068093B006D5
:104CA00060918602709187028091880290918902BA
:104CB0000E94083120E030E040E752E40E94CD2B12
:104CC000AB01BC0122E0CE0143960E9424146FE8A0
:104CD00071E0CE0149960E947C14BE016D5E7F4F4B
:104CE000CE0149960E94CC130E94FD1DBC01C1015A
:104CF0000E946214B101CE014F960E945A13C10165
:104D00000E941F14CE0149960E941F14CE014396A3
:104D10000E941F14CE014F960E94F41D0E94E71CB2
:104D20006CED75E080E090E00E943015CE014F966A
:104D30000E941F1492C1852F90E00697049708F4F3
:104D40004BC1822F90E00697049708F445C150E0CC
:104D5000465051094430510508F43EC1809181020A
:104D600081117AC30E94561D8823C1F3F0907B0203
:104D700060917C0270E000E028E048E08F2D90E038
:104D80000E94C61B0E94F3170E94BB1800917F026D
:104D9000109180022091780230E0C80117FF04C012
:104DA00088279927801B910B8095909505968217EF
:104DB00093070CF455C10115110509F451C10E9466
:104DC000F3170E94BB1800917D0210917E02209182
:104DD000770230E0C80117FF04C088279927801B9D
:104DE000910B809590950596821793070CF4F8C166
:104DF0000115110509F4F4C130917C02832F8695C9
:104E00008695869590E020917B022695269526959D
:104E10005C0104E0AA0CBB1C0A95E1F7F501E20F66
:104E2000F11DE151FE4F20812A3051F4FC01E85F71
:104E3000FE4F2081220F220F220F285020937B0249
:104E4000632E712C7301E7E0EE0EF11CA3E0F594E4
:104E5000E794AA95E1F7E0917B02F0E03796B3E0A2
:104E6000F595E795BA95E1F714E0EE0CFF1C1A955D
:104E7000E1F7EE0DFF1DE151FE4F20812B3051F483
:104E8000FC01E050FF4F8081880F880F880F885FFA
:104E900080937B020E94831780918502882309F406
:104EA00054C210928502F0E04F2EF1E05F2E88E0B0
:104EB00091E09EA38DA3C12CD12CF20181912F01F1
:104EC000803198F4F8E08F9F4001112400E028E041
:104ED00048E0B601C4010E94C61B08E028E048E291
:104EE0005AE0B601C4010E94E81BEDA1FEA1819128
:104EF000FEA3EDA3803198F4F8E08F9F40011124C8
:104F000000E028E048E0B601C4010E94C61B08E0AA
:104F100028E040E25AE0B601C4010E94E81B28E004
:104F2000C20ED11C80E4C816D10439F680917802F3
:104F30008F5F80937802809177028F5F80937702F2
:104F400080918202883298F4809186029091870243
:104F5000A0918802B09189020196A11DB11D809394
:104F6000860290938702A0938802B09389020E94E0
:104F7000E71C8091EE0120917B02882309F42CC26A
:104F8000822F86958695869590E0F701E80FF91FA8
:104F9000E151FE4F4081C22ED12C9601295F3F4F37
:104FA00053E0359527955A95E1F7F701E20FF31F86
:104FB000E151FE4F50812A0D3B1DF901E151FE4F99
:104FC00020818A0D9B1DFC01E151FE4F808190E004
:104FD0000697049708F0AFCE80918A0290918B02D9
:104FE000019690938B0280938A0264EF71E080E0D7
:104FF00090E00E94301510E07301EFEFEE1AFE0A08
:10500000C60101969EA38DA3530192E0A90EB11C87
:105010004601E2E08E0E911CC301039698A78FA370
:10502000260193E0490E511C0E94561D8823E1F38E
:105030001111F6C100E022E042E06FA178A5C201A3
:105040000E94C61B0E94E71C103109F003C264EFE6
:1050500071E080E090E00E9430150E945D197ECEE4
:1050600080917602811104C080917502882321F01D
:105070008091740281112BC00E94B41586FF0FC06D
:10508000C801019697FD05C09093800280937F022E
:1050900006C00D5F1F4F1093800200937F020E9495
:1050A000B41585FF14C080917F02909180029C010D
:1050B00021503109121613062CF0309380022093F0
:1050C0007F0205C003979093800280937F020E9425
:1050D000B41586FD21C00E94B41585FD1DC08091C8
:1050E0007F02909180020097B9F020917402211103
:1050F00013C0181619062CF4019790938002809320
:105100007F0280917F029091800297FF05C00196F7
:105110009093800280937F0280917F029091800221
:10512000069734F085E090E09093800280937F02B0
:1051300080917F02909180028B3F9F4F34F48BEFE0
:105140009FEF9093800280937F0200917F021091E5
:10515000800210161106E4F480917302811114C0CC
:1051600081E08F0D80937B020E94F31705301105BB
:1051700079F48091730281110BC0F394F394F0924F
:105180007B020E94F31704C01092800210927F02EB
:10519000E0907F02F0908002F7FE1FC080917202C3
:1051A000811117C010917B028FEF810F80937B02DA
:1051B0000E94F3179BEFE9169FEFF90671F48091B7
:1051C000720281110AC0125010937B020E94F317E1
:1051D00004C01092800210927F0210927802EFCDEC
:1051E00080917402882309F442C00E94B41583FDA3
:1051F00004C00E94B41582FF68C2809171028823A6
:1052000059F01016110644F480917002811104C007
:10521000E1E0E093700208C00150110910937E0292
:1052200000937D021092700280917602882369F0CB
:105230000E94B41583FF05C080917102811105C0E1
:1052400047C20E94B41582FDF7CF80917502882372
:10525000D1F00E94B41583FF05C0809171028111C5
:1052600012C048C20E94B41582FDF7CF0CC0109244
:105270007E0210927D020E94B41583FD4BC20E94F3
:10528000B41582FD47C200917D0210917E02101676
:10529000110654F580916F02811122C080917C0229
:1052A000811104C0F8E3F0937C0203C08150809325
:1052B0007C020E94BB1805301105B1F480916F0289
:1052C000811112C080917C02811104C028E32093D7
:1052D0007C0203C0815080937C020E94BB1804C0F2
:1052E00010927E0210927D0200917D0210917E024A
:1052F00017FF28C080917402882301F180917C02FD
:105300008F5F893318F480937C0202C010927C0274
:105310000E94BB180B3F1F4FA9F480917402882391
:1053200089F080917C028F5F893318F480937C022E
:1053300002C010927C020E94BB1804C010927E0230
:1053400010927D021092770257CD91E090938502E2
:10535000E0E0F1E0FEA3EDA3E8E04E2EE1E05E2EFA
:10536000C12CD12CEDA1FEA18191FEA3EDA3803132
:1053700098F4F8E08F9F4001112400E028E048E015
:10538000B601C4010E94C61B08E028E048E15AE0CB
:10539000B601C4010E94E81BF20181912F01803106
:1053A00098F4F8E08F9F4001112400E028E048E0E5
:1053B000B601C4010E94C61B08E028E040E15AE0A3
:1053C000B601C4010E94E81B28E0C20ED11C80E493
:1053D000C816D10439F6AACD822F90E0FC0131968F
:1053E00073E0F595E7957A95E1F7EA0DFB1DE1513C
:1053F000FE4F3081373C09F0C3CDFC01369663E0A7
:10540000F595E7956A95E1F7EA0DFB1DE151FE4F31
:105410008081873C09F0B4CD91E090938102B0CDBA
:10542000153031F400E024E044E0B501C40108CEB9
:105430001A3039F400E026E046E0B7018DA19EA1C4
:10544000FFCD1F3009F0FECD00E028E048E0B301B9
:10545000C601F6CD1F5FE8CD1092800210927F0248
:1054600010927E0210927D0260917C0270E0809129
:105470007B0200E028E048E090E00E94C61BC0905C
:105480007A02C0927B02E0907902E0927C020E9454
:1054900083170E94E71CD12CF12C0E94561D8823F3
:1054A000E1F310917C02812E912C70907B02A72C4D
:1054B000B12C00E028E048E0B401C5010E94C61B01
:1054C000E1E1FE12DCC0F12CD12C08E028E040E440
:1054D0005AE0B701C6010E94E81BB7016850710984
:1054E00028E048E35AE0C6010E94E81B28E040E3B8
:1054F0005AE0B401C5010E94E81B0E94E71C68EE57
:1055000073E080E090E00E943015809182028F5F0E
:1055100080938202893209F0D0C00E944D1D85E03F
:10552000E82EF12CF092AF06E092AE068AE090E011
:105530009093B1068093B0066091860270918702C5
:1055400080918802909189020E94083120E030E029
:1055500040E752E40E94CD2BAB01BC0122E08E015A
:105560000F5F1F4FC8010E9424146FE871E0CE0145
:1055700043960E947C14B801CE0143960E94CC133E
:105580000E94FD1DBC01CE014F960E946214CE0107
:1055900043960E941F14C8010E941F14CE014F960B
:1055A0000E94F41DF092AF06E092AE0689E190E011
:1055B0009093B1068093B00680918A0290918B02FD
:1055C0001C8A1B8A1E8A1D8A188E1F8A4AE0B8010F
:1055D0000E946B2EF80101900020E9F73197AF018E
:1055E000401B510BB801CE0143960E94FE136CE99B
:1055F00071E0CE0149960E947C14BE016D5E7F4F22
:10560000CE0149960E94CC13BC01C8010E946214CD
:10561000B801CE014F960E945A13C8010E941F1470
:10562000CE0149960E941F14CE0143960E941F147A
:10563000CE014F960E94F41D87E290E09093AF0652
:105640008093AE068DE290E09093B1068093B00611
:105650008BEA91E00E94F91C80E290E09093AF0603
:105660008093AE0687E390E09093B1068093B006F6
:1056700085E491E00E94F91C0E94E71C17C0FDE040
:10568000FF1510F41F5F01C0115010937C0224E03D
:10569000D21205C07A9470927B02D12C01C0D394AF
:1056A0000E9483170E94E71CF394F7CE68E873E129
:1056B00080E090E00E943015F9CF80E090E0892BE7
:1056C00009F49ACA0E94000097CA1092710295CDFF
:1056D000E5E0F0E0F0937E02E0937D0283E090E06D
:1056E0009093800280937F0291E0909371021092D8
:1056F0007002ABCDE5E0F0E0F0937E02E0937D0236
:105700008DEF9FEF9093800280937F0291E09093C2
:10571000710209C0E5E0F0E0F0937E02E0937D02C3
:10572000F1E0F093710210927002ADCDE2ECF6E080
:105730001382128288EE93E0A0E0B0E08483958328
:10574000A683B7838AE291E0918380838FEF9FEFF6
:1057500095878487EAE9F6E0138212821582168221
:1057600080E181871086178216861786108A118A33
:10577000128A8AE391E091838083158A148A178ABA
:10578000168A81E0808F118E828F138E0895EE0F1E
:10579000FF1F0590F491E02D09940E94E12B0C94D9
:1057A0005A310E94533158F00E944C3140F029F494
:1057B0005F3F29F00C94433151110C948E310C94BD
:1057C00049310E946B3168F39923B1F3552391F36A
:1057D000951B550BBB27AA2762177307840738F060
:1057E0009F5F5F4F220F331F441FAA1FA9F335D0BD
:1057F0000E2E3AF0E0E832D091505040E695001C71
:10580000CAF72BD0FE2F29D0660F771F881FBB1F2A
:10581000261737074807AB07B0E809F0BB0B802D08
:10582000BF01FF2793585F4F3AF09E3F510578F034
:105830000C9443310C948E315F3FE4F3983ED4F3E3
:10584000869577956795B795F7959F5FC9F7880F08
:10585000911D9695879597F90895E1E0660F771F5A
:10586000881FBB1F621773078407BA0720F0621BEB
:10587000730B840BBA0BEE1F88F7E0950895CF9356
:10588000DF938230910510F482E090E0E0911B07F5
:10589000F0911C0720E030E0C0E0D0E0309711F13B
:1058A0004081518148175907C0F04817590761F4E2
:1058B00082819381209719F09B838A832BC09093D8
:1058C0001C0780931B0726C02115310519F04217CC
:1058D000530718F49A01BE01DF01EF010280F38142
:1058E000E02DDCCF2115310509F1281B390B2430BF
:1058F000310590F412968D919C9113976115710565
:1059000021F0FB019383828304C090931C07809352
:105910001B07FD01329644C0FD01E20FF31F819386
:105920009193225031092D933C933AC0209119074D
:1059300030911A07232B41F420911E0130911F0151
:1059400030931A072093190720911C0130911D01F3
:105950002115310541F42DB73EB7409120015091FA
:105960002101241B350BE0911907F0911A07E2176A
:10597000F307A0F42E1B3F0B2817390778F0AC0172
:105980004E5F5F4F2417350748F04E0F5F1F50934F
:105990001A07409319078193919302C0E0E0F0E069
:1059A000CF01DF91CF9108950F931F93CF93DF9392
:1059B000009709F48CC0FC01329713821282009187
:1059C0001B0710911C070115110581F420813181FD
:1059D000820F931F2091190730911A072817390752
:1059E00079F5F0931A07E093190771C0D80140E0E8
:1059F00050E0AE17BF0750F412962D913C911397CB
:105A0000AD012115310509F1D901F3CF9D01DA016D
:105A10003383228360817181860F971F82179307DA
:105A200069F4EC0128813981260F371F2E5F3F4F23
:105A3000318320838A819B8193838283452B29F440
:105A4000F0931C07E0931B0742C01396FC93EE9360
:105A50001297ED01499159919E01240F351FE217CC
:105A6000F30771F480819181840F951F029611963E
:105A70009C938E938281938113969C938E9312971D
:105A8000E0E0F0E0D80112968D919C911397009779
:105A900019F0F8018C01F6CF8D919C9198012E5F41
:105AA0003F4F820F931F2091190730911A07281733
:105AB000390769F4309729F410921C0710921B07DC
:105AC00002C01382128210931A0700931907DF9104
:105AD000CF911F910F910895A0E0B0E0E2E7FDE2C1
