:100000000C94E8140C9410150C9410150C94101505
:100010000C9410150C9410150C9410150C941015CC
:100020000C9410150C9410150C9496220C94082323
:100030000C9410150C9410150C9410150C941015AC
:100040000C9410150C946F160C9410150C9410153C
:100050000C9410150C9410150C9410150C94251676
:100060000C9410150C9410150C9410150C9410157C
:100070000C9410150C9410150C9410150C9410156C
:100080000C94AB170C9410150C9410150C941015BF
:100090000C9410150C9410150C9410150C9410154C
:1000A0000C9410150C9410150C941015122B1C2B7D
:1000B000322B432B462B4B2B552B40E0FFE0400EC1
:1000C0001FFF1F0E000003000040A0FFA0400A1DFC
:1000D000EF1D0A000003000080C0E0FFFFE0C080C9
:1000E0003C7FFFFFFFFF7F3C0000000F0F00000080
:1000F00080C0E07F7FE0C0803C63D4D8D8D4633C2C
:100100000000000F0F000000FEFFFFFFFFFFFFFFDA
:10011000FFFFFFFFFFFFFEF3FFFFFFFFFFFFFFFFFC
:10012000FFFFFFFFFFF3FFFFFFFFFFFFFFFFFFFFEB
:10013000FFFFFFFFFF7FFFFFFFFFFFFFFFFFFFFF4F
:10014000FFFFFF7FFEFFFDFDFDFDFDFDFDFDFDFD54
:10015000FDFFFEF30F472B872B87AB278B472B87A2
:100160000FF3FF0092440128920065148159240086
:10017000FF7F80A688A39084A1A988A292A9807FEE
:10018000FEFFFFFFFFFFFFFFFFFFFFFFFEFFFFFF81
:10019000FFFFFFFFFFFFFFFFFFFFFFFFFFFFFFFF6F
:1001A000FFFFFFFFFFFFFF0307070707070707071B
:1001B00007070703FE3F3F3F3F3F3F3F3F3F3F3F74
:1001C000FEFF07FCFCFCFCFCFCFCFCFC07FFFFDC6E
:1001D000C7C7C7C7C7C7C7C7C7DCFF030707070726
:1001E0000707070707070703E0F0F8F8F8F8FCFE31
:1001F000FFFFFFFFFFFEFCE08000003F3F3F3F3F6F
:100200000F0F0F3F3F3F3F3F00010303E0F0F8F8BF
:10021000F8F8FC8E7FFFFFFFEFFEFCE08000003F60
:100220003F3F3F3F0F0F0F3E3E3E3F3F0001030366
:10023000000000000001FEFFFF1F1E0C0804FC1C54
:100240001CFE0FFF03000000000000000001000082
:1002500000000000000000000001FE01F511120C7A
:100260000804FC1414F209FC030000000000000064
:1002700000010000000000008040007CFEFFFFFF46
:10028000FFFFFE7C000003063C3E1F3F3F3F0F3F49
:100290003F3E38308040007CFE872B632B87FE7CFE
:1002A000000003063C26113B23370B33212E383048
:1002B00070882848300C3E7FFFFEFEFE7F7F3E0C9C
:1002C0000001020204040207010701030600000006
:1002D00070882848300C3E7FF7FEEEEE7F773E0CAC
:1002E00000010202040402070107010306000000E6
:1002F0000080C0FCFEFFFFFFFFFE4002030F1F3F18
:100300003F3F3F1F1F100080C0FCFEFFF36F73FED6
:100310004002030F1F3F3F2030101F10183C78E0B1
:10032000783C78E07C3E1F1F0E04182458A0582407
:1003300058A05C2211150A04F0F89C8E8783878EE2
:100340009CF8F00000FEFF0303030303070EFCF814
:100350000000FEFF0303030303070EFCF80000FF89
:10036000FF00000000000000FFFF0000FEFF83838D
:10037000838383C7EE7C380000F8FC0E0703030379
:10038000070EFCF800003F7FE0C08080C0E07F3FA8
:10039000FFFF01010101010101FFFF0000FFFF0C50
:1003A0000C0C0C1C3E77E3C100007FFFC0C0C0C036
:1003B000C0E0703F1F00001F3F70E0C0C0C0E07091
:1003C0003F1F00007FFFC1C1C1C1C1E3773E1C00D8
:1003D000001F3F70E0C0C0C0E0703F1F0000000081
:1003E0000001FFFF01000000D5F08D14A1C881CFEE
:1003F000D9F1AF2000905800969054009690580084
:10040000969054004B80F0C0F0F830D0DEFFEE9FA5
:10041000FDFFEFEE9EFCC0E0C0091F3F17FE7FFF0F
:10042000EF77EFFFBDBFDFE37F3F08000000000074
:100430000001010103030301000000000000A69079
:10044000460299800000903F029980000090450488
:100450008D8000009046005280000090480052803D
:100460000000904600DD800000904300DD80000029
:10047000903F00DD8000009045053480F0F0FEFFE5
:10048000FFFFFFFFFFFFFFFFFEF0E71FE78783830C
:1004900083838387E71FE77F48EF4F679757976707
:1004A0004FEF487F0007000000060006000000072D
:1004B00000F0FEFFFFFFFFFFFFFFFFFFFEF0FFFF6B
:1004C000FFFFFFFFFFFFFFFFFFFFFF7F7FFFFFFF3C
:1004D000FFFFFFFFFFFF7F7F0007070707070107F9
:1004E000070707070000550000CDCCCCBD00663CD7
:1004F000009A9919BE02530000B81E85BE025A64C4
:1005000000B81E85BE0254E600B81E85BE00660017
:10051000003333B3BE006664003333B3BE0253000E
:1005200000295C8FBE025A5000295C8FBE0254A085
:1005300000295C8FBE006600003333B3BE006778CD
:10054000003333B3BE012964003333B3BE0116C890
:100550000052B89EBE030B2C010AD723BD025300E4
:10056000009A9999BE025AC8009A9999BE006700EC
:10057000009A9919BE0067DC009A9919BE0016000E
:10058000009A9999BE001778009A9999BE0129643A
:1005900000713D8ABE030DC8000AD7A3BC03072C17
:1005A000010AD7A3BC0349F4018FC275BD026B00D9
:1005B000009A9999BE0266C8009A9999BE005300A4
:1005C000009A9919BE0254DC009A9919BE011600CE
:1005D000009A9999BE001782009A9999BE012964E0
:1005E00000CDCCCCBE030DC8008FC2F5BC03060AFB
:1005F000000AD723BC0349F4018FC2F5BC01660091
:1006000000713D8ABE026EB400713D8ABE026682F0
:1006100000713D8ABE025300009A9919BE0254DC53
:10062000009A9919BE001600009A9999BE00178287
:10063000009A9999BE01296400713D8ABE030DBCE0
:10064000020AD7A3BC030664000AD723BC034900EF
:10065000000AD7A3BC033EF4018FC2F5BC006600BC
:1006600000713D8ABE02318C00A470BDBE0231F023
:1006700000A470BDBE02315401A470BDBE016682EB
:1006800000713D8ABE015300009A9919BE0154E6DB
:10069000009A9919BE001800009A9999BE02178213
:1006A000009A9999BE02286400713D8ABE00020733
:1006B0000E16202B39000192A5F3FB2070713B3BF5
:1006C0007D00442247E2F700829CD44EFF2424247C
:1006D000FF44AAAA444E4244EE929292FF170F059D
:1006E0000705070507050F172574257325252525FB
:1006F00073252573252573257325532553482A54BF
:1007000021215F5F57652520617265255F462A2A92
:100710002A494E475F676F696E6720254241434B08
:100720005F494E252054494D45212121210000904B
:100730003F005E8000059043005E800005904B0006
:100740005E8000059048005E800005903F005E805E
:1007500000059043005E800005904B005E80000520
:100760009048005E800005903F005E800005904349
:10077000005E800005904B005E8000059048005EA2
:10078000800005903F005E8000059043005E800081
:1007900005904B005E8000059048005E800005904B
:1007A0003F005E8000059043005E800005904B0096
:1007B0005E8000059048005E800005903F005E80EE
:1007C00000059043005E800005904B005E800005B0
:1007D0009048005E800005903E005E8000059043DA
:1007E000005E800005904B005E8000059048005E32
:1007F000800005903C005E8000059043005E800014
:1008000005904B005E8000059048005E80000590DA
:1008100041005E8000059044005E800005904D0020
:100820005E8000059048005E8000059041005E807B
:1008300000059044005E800005904D005E8000053C
:100840009048005E8000059041005E800005904465
:10085000005E800005904D005E8000059048005EBF
:100860008000059041005E8000059044005E80009D
:1008700005904D005E8000059048005E8000059068
:1008800041005E8000059044005E800005904D00B0
:100890005E8000059048005E8000059041005E800B
:1008A00000059044005E800005904D005E800005CC
:1008B0009048005E800005903F005E8000059044F7
:1008C000005E800005904D005E8000059048005E4F
:1008D0008000059041005E8000059044005E80002D
:1008E00005904D005E8000059048005E80000590F8
:1008F00043005E8000059046005E800005904F003A
:100900005E800005904B005E8000059043005E8095
:1009100000059046005E800005904F005E80000557
:10092000904B005E8000059043005E80000590467D
:10093000005E800005904F005E800005904B005ED9
:100940008000059043005E8000059046005E8000B8
:1009500005904F005E800005904B005E8000059082
:1009600043005E8000059046005E800005904F00C9
:100970005E800005904B005E8000059043005E8025
:1009800000059046005E800005904F005E800005E7
:10099000904B005E8000059044005E80000590480A
:1009A000005E800005904F005E800005904B005E69
:1009B0008000059043005E8000059046005E800048
:1009C00005904F005E800005904B005E8000059012
:1009D00041005E8000059044005E800005904D005F
:1009E0005E8000059048005E8000059041005E80BA
:1009F00000059044005E800005904D005E8000057B
:100A00009048005E8000059041005E8000059044A3
:100A1000005E800005904D005E8000059048005EFD
:100A20008000059041005E8000059044005E8000DB
:100A300005904D005E8000059048005E805DC5F029
:100A40004E6F206D6F6E6B657921215F4E4F4F4F5A
:100A50004F4F4F21252525250000576861742069D7
:100A60006620495F6A7573742D2D2D252500004C75
:100A70006F6F6B73206576696C2C5F6C696B65209A
:100A800074696D655F2274726176656C6C79222C75
:100A90005F4E6F626F647920746F7563685F69740D
:100AA0002D2D2D00005965732C20746861745F6FC3
:100AB0006E652E25252525250000C0D0D8B8B4BEEA
:100AC000B7AB776B776A766ED6EED67EBECC74B84F
:100AD000FC0F0F050A150B152B152B172B572B5633
:100AE0003E7E017F1F0502017F3F9395732AD5B992
:100AF000CE5572273F7559E59C93B5EA4A762E2567
:100B0000D556D9F4769BDE2AA9AC92CE49A5FAD463
:100B1000A7AA52A9542A95CA75AE739DEB5CE72B20
:100B200059C9EAAEEEEAAEEEEAAEEEEAAEEEEAAEF3
:100B3000EE9C73A57D557555D952E54EA7D3D97452
:100B40003A954A55A5AABAABBBBAABAB5255A9AABE
:100B5000EEEAAEAE64252B59B94A56B29295ACE492
:100B6000B29295AC6C3A9B3BD95575555D7C1EEDA8
:100B7000B6FF6C3A15615471A5E34C79529553A9AF
:100B800074EA934A2B1FAF9265ABBAAAB2D55F75D0
:100B9000A92A5595AC6425A5B35BE56CEFDEAA7474
:100BA0003A9D4EA7D3E9743A9D4EA7B3E9743A9D96
:100BB0004E279D97BE7255555755F66465D3E97417
:100BC000D056BEB24965B3958DD5E96CE5425A3A27
:100BD0009D4EA7F34AE7D359A5D3BBA572B54DA740
:100BE00023DDEF7E67EDFC7BE7E7532EE5CA2F4B55
:100BF000B92A5BA5AE724AEFB7D16F15F494AF6C0A
:100C00004A5256B67295743A5BB9D01951369DCE98
:100C1000C6140C94FA9453CE29A7A492CBAD924A51
:100C20006E95DC4A75ABAA565DA95E3AE7A452B749
:100C3000FA73A97C3A9F1F6FA12DBF1C5BDB722A40
:100C4000A7AAAEAA5655AE2AE7F095CF2A59BB4AB5
:100C50002AAB643618DABB6CD229A9E452A5D3E9D1
:100C60006CEEFACAD55575552E224429B552647BCF
:100C7000E7E7F3BE929DEB5C27D3EB656CA13BED00
:100C80007D557555B92A65A1B1ECB272E96C369BF8
:100C90004EA7D3F9743A9D4EA7D3F95E55729B7750
:100CA00088574EC968B78A33A9D495ABAEEA4A5D76
:100CB000BB993C75CAA57095F2EF76CBA0B3BD2564
:100CC000CA565557952DAB68436C3E9BCFE6F3153E
:100CD00093F5F965A5D3D975B6D2C94AA7D3F974E6
:100CE0003A5B962DBA5C953A5BB9CAE5B3D97C36C6
:100CF000542B57ADAAABEAAAAE5C954B2129BFDEB7
:100D00008DB56DF84A7F2ED7E94BA6729DEB643AFC
:100D1000BDCE87C77C65938A349F4DAFB31574965B
:100D2000CD46175D74F9E8F2C97D369BCF065311A5
:100D30005557D555956782C2963B2597B72AA596F4
:100D400095BCDC7F75EBB34A074AEA6457D5557505
:100D5000F179C8299FCE4694045768696368206F6B
:100D60006E653F5F5468617420676C6F77696E676A
:100D70005F6D656E6163696E675F626F7820696E33
:100D8000207468655F6D6964646C65206F66206FB0
:100D900075725F6A756E676C653F25252500005486
:100DA0006865206A756E676C655F6C6F6F6B73202A
:100DB000617320495F72656D656D626572215F4583
:100DC000786365707420746861745F6D69737465AD
:100DD00072696F75735F61727469666163742E25E1
:100DE00025250000576520646964206974215F77B8
:100DF0006520617265207468655F626573742E207A
:100E00005468655F737566666572696E67206F66A4
:100E10005F6C6976696E6720696E20615F5A6F6FDB
:100E2000206973206F7665722E0000486520697313
:100E3000207468655F6C617374206F6E65215F77E5
:100E400065206172655F616C6D6F73742066726599
:100E5000652E000054686174207761735F636C6F66
:100E600073652E204E6F775F6973207468652074F8
:100E700075726E5F6F66207468655F656C6570681B
:100E8000616E742E0000417765736F6D652C20775D
:100E9000655F61726520616C6D6F73745F74686506
:100EA00072652E204E6F775F6865726520492063FA
:100EB0006F6D652100004E696365212049206469DA
:100EC000645F6974212C206E6F77207468655F6C95
:100ED000696F6E212062655F6361726566756C2E55
:100EE00000004E6F77207468655F70726574746976
:100EF0006573742C5F7374726F6E676573742C5FA7
:100F000068616E64736F6D6573745F616E64206891
:100F100065726F69635F6F6620616C6C21000025EC
:100F20002525254A555354204B494444494E4721D1
:100F300025255F4F7572205A6F6F206469645F6E5C
:100F40006F74206861766520616E795F6275646791
:100F50006574204C4F4C215F50656E6775696E213A
:100F600020796F755F676F206E6F772100004920D1
:100F70006B6E6F77212C5F796F75206469642069CF
:100F8000745F736E616B65202332206F665F23365A
:100F9000353533352E20596F755F617265206E656A
:100FA00078745F736E616B652023332100004920E4
:100FB0006B6E6F77212C5F796F752064696420698F
:100FC000745F736E616B65202331206F665F23361B
:100FD000353533352E20596F755F617265206E652A
:100FE00078745F736E616B652023322100002525C4
:100FF00025255453535321215F737373732E0000BF
:10100000252525257473732E00004C6574277320E5
:10101000676F212C5F736E616B6520796F755F61FF
:101020007265207468655F736D616C6C6573742C98
:101030005F796F7520676F5F66697273742E000049
:1010400052656D656D6265723A2077655F6861769D
:1010500065206665775F62616E64616765732C20E9
:10106000736F5F646F206E6F74206765745F696E65
:101070006A757265642E5F2525576520616C6C204A
:10108000686176655F746F206D616B65206974219E
:10109000252525000045786163746C7921207765EA
:1010A0005F77696C6C207269736B5F6F7572206C0F
:1010B0006976657320746F5F63726F7373207468F1
:1010C000655F6869676877617920616E645F6265F2
:1010D0002066726565252125212521250000747370
:1010E00073737373737373735F2E2E2E2E747373F7
:1010F0002E2E2E20252525252525255F5F5F737340
:10110000732E00000000000000000000000000003E
:10111000000000000000000000000080808080804F
:1011200080808080000000000000000000000000BF
:1011300000000000000000000000000000000000AF
:10114000000000000080780602010100000000009D
:10115000000030783101010302068C4830000000A5
:10116000000000000000000000000000000000007F
:1011700000000080780740A054A8641A140A0C0AE2
:101180000C0A0C0404040C1E3A326160606060A01A
:1011900000000000000000FC04820E7CB22A32AA8B
:1011A000721A0681502AD5BACD8B5090204080808B
:1011B000000000000000000000000000000000002F
:1011C00000000000000000010F3A556051615169B4
:1011D000302A351A07010000000101020204040848
:1011E0001162823CC000000000000000000000000E
:1011F00000000000000000000000000000000000EF
:1012000000000000000000000000000000000000DE
:1012100000000001030000000000000000000000CA
:101220000000000057656C6C2C207468655F746862
:10123000696E672069735F74686174207468657291
:10124000655F69732061206A756E676C655F7061A8
:10125000737420746861745F686967687761790086
:1012600000596561682C20776861745F61626F75F1
:101270007420746861743F250000000000000000C5
:1012800008186484881020202020202010105090FE
:1012900090908888042422544C8080000000000034
:1012A000000000000000000000000000000000003E
:1012B00000000000FF00000000000000000000022D
:1012C000050E0702000000000000000101223204A8
:1012D00004082830C00000000000000000000000EA
:1012E00000000000FF00000000000080808080807F
:1012F0008080808080808040404040404040504816
:10130000486818060100000000000000000000000E
:101310000000C07CA3000000000000C03C030000EF
:1013200000000000000000000000000000000000BD
:1013300000000000000000000000000000000000AD
:10134000807C0B150A05000000C03C030000000073
:10135000000000000000000000000000000000008D
:101360000000000000000000000000000000807885
:10137000AF50A00000008040FC030000000000000F
:10138000000000000000000000000000000000005D
:10139000000000000000000000002525252525256F
:1013A00048657920677579732C2520495F677565D5
:1013B0007373207765206172655F616C6C20617763
:1013C0006172655F74686174206F7572205A6F6F07
:1013D0005F68616420746F20636C6F73655F2E2E8D
:1013E0002E0000596F752063616E5F65646974201B
:1013F0007468655F736F75726365636F64655F6959
:1014000066207468652067616D655F676574732029
:10141000686172642E2E2E5F636865617465722147
:101420000000416C6C20616E696D616C735F757357
:101430006520615F72656374616E676C6520746FAF
:101440005F636F6C6C696465206475655F6C617A5D
:101450007920636F64696E6700004D6F7665207454
:1014600068655F616E696D616C20746F5F7468653B
:10147000206661725F726967687420736964655F72
:10148000746F2077696E0000596F752063616E5F1D
:101490006D6F766520696E5F646961676F6E616C00
:1014A00000005072657373204120746F5F6765742C
:1014B000206120736D616C6C5F626F6F7374207755
:1014C00068696C655F6D6F76696E67207468655FCB
:1014D000616E696D616C0000426F6F737420776993
:1014E000746820415F696E20646961676F6E616C2A
:1014F0005F666F7220626573745F726573756C747A
:101500007300004920414D5F4552524F522E00005A
:10151000426F6F7374207769746820415F616E64F5
:101520002072656C656173655F74686520627574AF
:10153000746F6E5F6661737420666F725F6661734D
:1015400074657220626F6F73745F72656C6F616433
:101550000000426F6F7374696E675F77697468200B
:1015600041206E656564735F706572666563745F64
:1015700074696D696E6720666F725F66617374650A
:10158000725F6D6F76656D656E7400004D722E2012
:101590004D69636F3A5F5F4C6574206D65206769C4
:1015A00076655F796F7520612068696E745F2E2E95
:1015B000252E252E252E0000547C68616E6B73202D
:1015C000746F3A5F5F4D617C727C69616E7C615FB4
:1015D00053697C6D6F6E5F417264757C626F7920B8
:1015E000747C65616D5F4B4243616D706572000094
:1015F000576F726B696E675F7469746C653A5F628E
:1016000061636B326A756E676C655F5F5665727396
:10161000696F6E20312E362E315F323031373035E2
:1016200032330000436F646520616E645F677261EE
:1016300070686963732062793A5F5F457277696E9B
:1016400020526965645F6572777C697C6E40727C4C
:1016500069657C642E7C636C5F77777C772E727C07
:1016600069657C642E636C252525250000FF01013A
:10167000F9F91919191919F9F90101FFFF7F999958
:1016800019190101E7E77979811F1F6767FFFF01DA
:1016900001F9F91919191919F9F90101FFFFC0C068
:1016A000CFCFC8C8C8C8C8CFCFC0C0FFFFC8373762
:1016B000C0C0FEFE0909FEFEC73E3EC8C8FFFFC00F
:1016C000C0CFCFC8C8C8C8C8CFCFC0C0FFFF0000B8
:1016D000FCFC7373B333333C3C4C4C4C4C834C4C50
:1016E00030308F8FCCCCC0C0C380803C3CCFCF0F7C
:1016F0000FF3F3C08080F3F3C3C30F0FFFFF0000AD
:10170000FFFF9898819E9E787866661E1EE7F8F81F
:10171000E0E0FFFF191967677FE1E10606010106B6
:101720000661611FE7E71F1FE1E18686FFFF0303F4
:10173000F3F33333333333F3F30303FFFFC0CCCC82
:1017400000000F0FF3F3F0F0FF0C0C00003F3F33ED
:10175000333F3F0033333C3C3F3F3333FFFF808018
:101760009F9F98989898989F9F8080FFFF87FFFF82
:10177000FFFF9F9F84848080F8FCFC83839C9CE413
:10178000E4E3E3E79C9CFBFBFCFC8080FF4D722EB6
:10179000204D69636F3A5F5F5468652068696768C8
:1017A0006573745F697320245F596F757220637568
:1017B0007272656E745F69732026004D722E204D23
:1017C00069636F3A5F5F54686572652069735F6E25
:1017D0006F20686967685F73636F72652E00000031
:1017E00000000000000000000000000000000000F9
:1017F00000008080808080808080C040402020B0B9
:1018000010181CB02040C0808000000000000000C4
:1018100000000000000000000000F0A8DCAC542A2A
:101820005729552A542A15281528152011205120EA
:101830005020502071E0F1281F000000000000003F
:101840000000000000704E828EFFF5FAD1107C82FD
:1018500082B2B28282827C1010107C828282B2B20A
:1018600082827C10D0FFFF1F0484F800000000007B
:10187000000000000000000000010F193160E0C00E
:10188000C0C0C080848484040404040480808080F8
:10189000C0602030180C06010100000000000000AC
:1018A0000000000000000000000000000000808038
:1018B000C0E0F171FBFF5FBF5FBF7BFB7BF1F1E13C
:1018C0008000000000000000000000000000003C5C
:1018D0001C1C1C3C3CF8F0E00000E0F8FE3F0F0749
:1018E00003F1F8EF55AA55AA55AAD5FF3C008FFF82
:1018F000FFF800000000000000000000000000668B
:1019000030B752216FABA473CE399D4EA79DD371D2
:10191000EEEC76BBDD6E97CE39E79C934A3A2715FD
:101920008E9C73CE392795545249259554761DFBCC
:1019300076BB5DA743533A78322D15BEB63BE79C84
:10194000736E1D655629A9F8B6FC5BA9743ABDB53E
:10195000133B67F74ADA11E59C4EA743D3D6CEBBBB
:10196000756E0CED643A95554EAED7E9F476BBDD55
:101970006EB75B55EAAA5C55AE7255B9CA55E52AF1
:101980005795AB5C555C155D32A66418C29B924AB4
:101990002AA9A4C2D58EDA8E2AA9A4924A2A69D786
:1019A000E9B4548469E7A4D2E9F4D639E79C73CE4C
:1019B00039E79C924AAAED76BBDDEE5C5A49259D3B
:1019C000934A2ABB55D239A94EFDAA95744E2ABB1B
:1019D000DDAE7A752B57C9CB55B6B2D9CA662B9BEB
:1019E00053A5B6AAD4F672DB0B4BB9CB5DEE72CE23
:1019F0003977B9CB5D643BE794DC5ECE3927C3FF12
:101A0000CE6DB7DBA5CFB9ED76BBE3DFB9ED76BB25
:101A1000225CC9743A9D56D2EEDCE449C227CD3926
:101A2000A5A4924AAAE9722ED215673A4AE6542A28
:101A3000954AA554584BA97452CD966EA5A492AA66
:101A400054FFA79C534A29A9E4763B1ED3D99D8B0A
:101A50003DE7922B34292595739327959231A16800
:101A600025D3CEE97476BB73D32E9D934A3AE79C77
:101A700053CE39E7A2535249259554524925B7B35D
:101A80006EB7E9743A34EDDC5449A564CE2D933B2E
:101A9000E7AC5432A9948C496DB7DFEA5637A77387
:101AA000CE392595545239E79C73CE39E79C92D1B3
:101AB0002AA9E476BBDD6EB7E9743A683A1D56018F
:101AC00000C8903E00BD80000A903F00BD80000A23
:101AD000904000BD80000A9048017B800014904037
:101AE00000BD80000A9048017B800014904000BD3A
:101AF00080000A904801C180015E904800BD8000CE
:101B00000A904A00BD80000A904B00BD80000A90F8
:101B10004C00BD80000A904800BD80000A904A0039
:101B2000BD80000A904C017B800014904700BD806E
:101B3000000A904A017B800014904801B780016838
:101B4000903E00BD80000A903F00BD80000A90409A
:101B500000BD80000A9048017B800014904000BDC9
:101B600080000A9048017B800014904000BD8000F6
:101B70000A9048914801B7808100A0904500BD803F
:101B8000000A904300BD80000A904200BD80000A18
:101B9000904500BD80000A904800BD80000A904C2E
:101BA000017B800014904A00BD80000A904800BD6F
:101BB00080000A904500BD80000A904A01C1800063
:101BC000FA903E00BD80000A903F00BD80000A9060
:101BD0004000BD80000A9048017B800014904000C6
:101BE000BD80000A9048017B800014904000BD80B9
:101BF000000A904801C1800096904800BD80000A0C
:101C0000904A00BD80000A904B00BD80000A904CB5
:101C100000BD80000A904800BD80000A904A00BDC7
:101C200080000A904C018580000A904700BD80002A
:101C30000A904A017B800014904801C18000FA900C
:101C40004800C8914A005980006E904C00598100AC
:101C50006E9148005980006E904A005981006E9143
:101C60004C00598001369048004F810078914A001D
:101C70005980006E9048005981006E914C00598047
:101C8000006E9048005981006E914A005980006EA4
:101C9000904C00598101369148004F800078904A5D
:101CA000005981006E9148005980006E904C005997
:101CB00081006E9148005980006E904A0059810061
:101CC0006E914C00598001369047004F8100789109
:101CD0004A00598001369048004F81024E80F090B2
:101CE0003F9142923F0096904091439240009690DF
:101CF00041914492410096904291459242009690C3
:101D00004691469243934394439543009690429163
:101D10004592428384850096904391469243009673
:101D20009044914792440096904391469243009686
:101D30009044914792440096904591489245009670
:101D4000808182012C9051914F00968081F04361F7
:101D5000726566756C215F5765206F6E6C792068BF
:101D60006176655F6665772062616E646167657341
:101D70005F66726F6D207468655F5A6F6F2773209E
:101D800066697273745F616964206B697400004FE7
:101D900068206E6F2120736F6D655F6F66206F75B1
:101DA0007220646561725F667269656E6473207724
:101DB000696C6C5F626520737475636B20696E5F1C
:101DC000746865205A6F6F5F2546254F255225455B
:101DD000255625452552252E252E252E2500000089
:101DE000000000000000000000808080C0F0F8F8D3
:101DF000F87838383C3C1C1C1C1C1C1C1C1C1C1C73
:101E00001C383838383878F8F8F0C0000000000086
:101E100000000000000000001C1320237FFFFFFFD4
:101E20000100000C0E0440C0C0C0C0C0C0C0C0C093
:101E3000400C0E040000E0FFFFFF4741213E000080
:101E4000F0FCFE3E0F0707070F0FFEFCF803070F1D
:101E50001E3C3870707070F0F0F0F0F0F0F0F0F0C0
:101E6000707078381C0C0F070301000000000000A0
:101E7000037FFFF8C0870F0E0E0F0FC7E36040C04F
:101E8000C0E0E0F0783CDC7EBF57AF57AF5EFE1E8F
:101E90003CFCF8E020E080000000000000000000B2
:101EA0000000000103070F0E1E1E9C3DE7FCFFFF14
:101EB0001F17133FFC7E7B55EAD5EAD56A753F0FA5
:101EC00082E3FFFF3E83F1E080000000000000009D
:101ED000000000000000000000010100033F3F3F40
:101EE0003C1C0C04000000000000000C1E1E3C3EC8
:101EF0001F0F03010001010101000000000000901C
:101F00002D02EE913902EA810003913C02EA810040
:101F100003914008C680810003902802EE913702A9
:101F2000EA810003913B02EA810003914008C680E8
:101F3000810003902902EE913902EA810003913C6D
:101F400002EA810003914008C680810003902B02C1
:101F5000EE913702EA810003913B02EA810003918E
:101F60003E02EA810003914305D88081F07F7F41E2
:101F7000556B3E1C087F7F4375433E1C08E01050A4
:101F8000088834DC7AEEB1C55141233C00030404D7
:101F90000402020101000000000000904D91560073
:101FA000958081012C904D91560095808100009084
:101FB0004D9156009580810000904C915400958081
:101FC000810000904E915601C18081F000FA904648
:101FD00003E6800001903F03E6800001904506D4AF
:101FE0008000019046007B8000019048007B8000CB
:101FF000019046014C8000019043014C800001900B
:102000003F014C800001904502EC800001904600A9
:102010007B8000019048007B800001904601F280A7
:102020000001904101F2800001904601F280000120
:10203000904D01F2800001904D03E6800001904C2C
:1020400002EC800001904A007B800001904C007BF4
:10205000800001904D08C8800001904800EC80008D
:102060000D90480075800007904A00758000079029
:102070004B00EC80000D904800EC80000D904E016C
:10208000D980001A904F01D980001A905000EC803E
:10209000000D904F00EC80000D904D00EC80000D85
:1020A000904A00EC80000D904F00EC80000D904DA8
:1020B00000EC80000D904B00EC80000D904A00EC8D
:1020C00080000D904800EC80000D90480075800065
:1020D00007904A0075800007904B00EC80000D903F
:1020E0004800EC80000D904E01D980001A904F01FD
:1020F000D980001A904900EC80000D905000EC80CF
:10210000000D904F00EC80000D904700EC80000D1A
:10211000904800EC80000D904F00EC80000D90483E
:1021200001D980001A903C914800EC8081000D900C
:102130003C9148007580810007903E914A0075806F
:10214000810007903F914B00EC8081000D903C9105
:102150004800EC8081000D9042914E01D9808100B1
:102160001A9043914F01D98081001A9044915000F8
:10217000EC8081000D9043914F00EC8081000D9028
:1021800041914D00EC8081000D903E914A00EC8021
:1021900081000D9043914F00EC8081000D904191A2
:1021A0004D00EC8081000D904B913F00EC80810050
:1021B0000D904A913E00EC8081000D9048913C00CA
:1021C000EC8081000D9048913C0075808100079063
:1021D0004A913E007580810007904B913F00EC8052
:1021E00081000D9048913C00EC8081000D904E9153
:1021F0004201D98081001A904F914301D98081001A
:102200001A9049913D00EC8081000D90509144005E
:10221000EC8081000D904F914300EC8081000D9087
:1022200047913B00EC8081000D9048913C00EC8090
:1022300081000D904F914300EC8081000D904891FA
:102240003C01D98081001A90500299800001904F82
:1022500000A5800001904D00A5800001904F014C29
:10226000800001904D014C800001904B014C80009A
:1022700001904D05DA800001905201F2800001903A
:10228000500299800001904F00A5800001904D0000
:10229000A5800001904F014C800001904D014C80C1
:1022A0000001904B014C800001904D02EC8000FB3E
:1022B0009041014C8000019048014C800001904AFF
:1022C000014C800001904B0299800001904F014C1D
:1022D000800001905202998000019054014C8000CE
:1022E000019055014C800001904D014C80000190FF
:1022F00050014C8000019054014C800001904B0132
:102300004C8000019050014C800001905002998057
:102310000001904E00A5800001904D00A5800001B5
:10232000904D07CE80F0010204081020408000008C
:102330000000003E5B4F5B3E3E6B4F6B3E1C3E7CA5
:102340003E1C183C7E3C181C577D571C1C5E7F5E53
:102350001C00183C1800FFE7C3E7FF001824180012
:10236000FFE7DBE7FF30483A060E262979292640A9
:102370007F050507407F05253F5A3CE73C5A7F3ED5
:102380001C1C08081C1C3E7F14227F22145F5F0067
:102390005F5F06097F017F006689956A6060606003
:1023A0006094A2FFA29408047E040810207E2010EE
:1023B00008082A1C08081C2A08081E101010100CF7
:1023C0001E0C1E0C30383E3830060E3E0E06000045
:1023D00000000000005F00000007000700147F14E9
:1023E0007F14242A7F2A1223130864623649562058
:1023F000500008070300001C2241000041221C007D
:102400002A1C7F1C2A08083E08080080703000083B
:1024100008080808000060600020100804023E510F
:1024200049453E00427F40007249494946214149A1
:102430004D331814127F1027454545393C4A494908
:102440003141211109073649494936464949291E72
:102450000000140000004034000000081422411461
:1024600014141414004122140802015909063E41B3
:102470005D594E7C1211127C7F494949363E4141DB
:1024800041227F4141413E7F494949417F09090934
:10249000013E414151737F0808087F00417F4100A0
:1024A0002040413F017F081422417F404040407F4F
:1024B000021C027F7F0408107F3E4141413E7F099C
:1024C0000909063E4151215E7F09192946264949DD
:1024D000493203017F01033F4040403F1F2040201D
:1024E0001F3F4038403F631408146303047804031B
:1024F0006159494D43007F414141020408102000C9
:102500004141417F04020102044040404040000339
:1025100007080020545478407F2844443838444405
:102520004428384444287F385454541800087E09FD
:102530000218A4A49C787F0804047800447D40001D
:102540002040403D007F1028440000417F40007C37
:10255000047804787C080404783844444438FC182F
:1025600024241818242418FC7C0804040848545413
:10257000542404043F44243C4040207C1C20402040
:102580001C3C4030403C44281028444C9090907CA7
:102590004464544C440008364100000077000000B9
:1025A0004136080002010204023C2623263C1EA1FB
:1025B000A161123A4040207A38545455592155555A
:1025C000794121545478412155547840205455790B
:1025D000400C1E527212395555555939545454599C
:1025E00039555454580000457C410002457D420055
:1025F00001457C40F0292429F0F0282528F07C545E
:102600005545002054547C547C0A097F493249497D
:1026100049323248484832324A4848303A414121EA
:102620007A3A42402078009DA0A07D394444443944
:102630003D4040403D3C24FF2424487E4943662BD6
:102640002FFC2F2BFF0929F620C0887E0903205478
:102650005479410000447D413048484A3238404076
:10266000227A007A0A0A727D0D19317D2629292FD6
:1026700028262929292630484D40203808080808EE
:1026800008080808382F10C8ACBA2F102834FA00F0
:10269000007B000008142A142222142A1408950032
:1026A000220095AA005500AAAA55AA55AA00000022
:1026B000FF00101010FF00141414FF001010FF0092
:1026C000FF1010F010F0141414FC001414F700FFA5
:1026D0000000FF00FF1414F404FC141417101F1062
:1026E000101F101F1414141F00101010F000000011
:1026F000001F101010101F10101010F0100000001C
:10270000FF101010101010101010FF10000000FF2C
:10271000140000FF00FF00001F10170000FC04F46D
:1027200014141710171414F404F40000FF00F71425
:10273000141414141414F700F714141417141010AC
:102740001F101F141414F4141010F010F000001FC8
:10275000101F0000001F14000000FC140000F01007
:10276000F01010FF10FF141414FF141010101F00AD
:10277000000000F010FFFFFFFFFFF0F0F0F0F0FFAF
:10278000FFFF0000000000FFFF0F0F0F0F0F384486
:102790004438447C2A2A3E147E02020606027E0247
:1027A0007E0263554941633844443C04407E201E08
:1027B0002006027E020299A5E7A5991C2A492A1C37
:1027C0004C7201724C304A4D4D303048784830BC24
:1027D000625A463D3E494949007E0101017E2A2A4E
:1027E0002A2A2A44445F444440514A444040444ACF
:1027F00051400000FF0103E080FF000008086B6B00
:10280000083612362436060F090F06000018180085
:1028100000001010003040FF0101001F01011E00E8
:10282000191D1712003C3C3C3C0000000000000059
:102830000000240027002A002D00300000000000C6
:10284000250028002B002E00310004080201104052
:102850008040102040804080080204018040201009
:1028600002011080102040402004040404040304EA
:10287000050202020204030202020206060606061E
:1028800006040402020204040601150126013701B0
:102890004A015D01720188019F01B801D201EE0178
:1028A0000B022A024B026E029302BA02E4021003E8
:1028B0003F037003A403DC03170455049704DD04ED
:1028C00027057505C80520067D06E0064907B807F7
:1028D0002D08A9082D09B9094D0AEA0A900B400CE8
:1028E000FA0CC00D910E6F0F5A1053115B12721338
:1028F0009A14D41520178018F519801B231DDE1E8D
:10290000B420A622B524E4263429A72B402E00317A
:10291000EA330037453ABC3D68414C456B49C84DE8
:1029200068524F57805C0062101112131516171869
:102930001A1C1D1F21232527292C2E3134373A3EFE
:102940004145494E52575C62686E757B838B939C00
:10295000A5AFB9C4D0DCE9F7080B00020202010000
:1029600009040000010202000005240010010524F2
:102970000101010424020605240600010705810364
:1029800010004009040100020A00000007050202CD
:1029900040000007058302400000040309041201FF
:1029A0000002EF02014041233680000101020301D1
:1029B00041726475696E6F204C4C430041726475BE
:1029C000696E6F204C656F6E6172646F0000AB3290
:1029D00011241FBECFEFDAE0DEBFCDBF12E0A0E0D2
:1029E000B1E0ECE7FCE602C005900D92A434B1071B
:1029F000D9F727E0A4E4B2E001C01D92A135B207E7
:102A0000E1F714E1C8EED4E104C02197FE010E9471
:102A10003136C73ED107C9F70E9438250C943C36A1
:102A20000C940000CF92DF92EF92FF920F931F93CE
:102A3000CF93DF936C017A018B01C0E0D0E0CE151B
:102A4000DF0589F0D8016D918D01D601ED91FC91E2
:102A50000190F081E02DC6010995892B11F47E01CA
:102A600002C02196ECCFC701DF91CF911F910F914A
:102A7000FF90EF90DF90CF900895CF92DF92EF928A
:102A8000FF921F93CF93DF93E82FF0E0EA55FE4FBC
:102A90001081E62FF0E0603330F4E85DF64DE4910C
:102AA000CE2FD0E006C0EE0FFF1FE85DF74DC591B9
:102AB000D4916E01E12CF12C60E074E284EF90E09F
:102AC000A70196010E949E33DA01C9010197A1096D
:102AD000B109009721E0A207B10578F060E970ED37
:102AE00083E090E0A70196010E949E33DA01C901BC
:102AF0000197A109B10923E001C021E01130C9F01B
:102B0000133051F530919100387F232B20939100A1
:102B10009093990080939800D093AB02C093AA023F
:102B200081E08093A902809171008260809371009E
:102B300013C03091C60631110FC030918100387F2B
:102B4000232B2093810090938900809388008091AB
:102B50006F00826080936F00DF91CF911F91FF9093
:102B6000EF90DF90CF9008958091440208950895EA
:102B70000E9437363FB7F8948091B1029091B2022B
:102B8000A091B302B091B40226B5A89B05C02F3F17
:102B900019F00196A11DB11D3FBFBA2FA92F982F83
:102BA0008827820F911DA11DB11DBC01CD0142E0FE
:102BB000660F771F881F991F4A95D1F708958F9246
:102BC0009F92AF92BF92CF92DF92EF92FF926B01F2
:102BD0007C010E94BA154B015C01C114D104E104CF
:102BE000F104F1F00E94BA15DC01CB0188199909B2
:102BF000AA09BB09883E9340A105B10570F321E005
:102C0000C21AD108E108F10888EE880E83E0981E08
:102C1000A11CB11CC114D104E104F10419F7DDCFEA
:102C2000FF90EF90DF90CF90BF90AF909F908F90EC
:102C300008952FB7F8946091AD027091AE02809123
:102C4000AF029091B0022FBF08951F920F920FB65E
:102C50000F9211242F933F938F939F93AF93BF9322
:102C60008091AD029091AE02A091AF02B091B002FE
:102C70003091AC0223E0230F2D3720F40196A11DE3
:102C8000B11D05C026E8230F0296A11DB11D20939A
:102C9000AC028093AD029093AE02A093AF02B093CA
:102CA000B0028091B1029091B202A091B302B091B2
:102CB000B4020196A11DB11D8093B1029093B2029E
:102CC000A093B302B093B402BF91AF919F918F9143
:102CD0003F912F910F900FBE0F901F9018951F924C
:102CE0000F920FB60F9211242F933F938F939F93C0
:102CF000AF93BF93EF93FF938091C606882309F4A7
:102D00004FC08091C1069091C206A091C306B091B8
:102D1000C406892B8A2B8B2B51F18091A002E09164
:102D20009E02F0919F029081892780838091C10645
:102D30009091C206A091C306B091C4061816190658
:102D40001A061B06D4F58091C1069091C206A09187
:102D5000C306B091C4060197A109B1098093C106C9
:102D60009093C206A093C306B093C40626C01092E7
:102D7000C5061092C60680916F008D7F80936F000C
:102D80009091A002E0919E02F0919F028081282FF5
:102D900030E0892F90E080959095822393230CC09A
:102DA0008091A802811109C08091A002E0919E0249
:102DB000F0919F02908189278083FF91EF91BF91CD
:102DC000AF919F918F913F912F910F900FBE0F90D8
:102DD0001F901895E82FF0E0EA55FE4F8081813072
:102DE00019F0833089F008958091C606811122C0C0
:102DF00080916F008D7F80936F009091A002E09191
:102E00009E02F0919F020CC01092A9028091C5060B
:102E1000811110C09091A702E091A502F091A60245
:102E20008081282F30E0892F90E080959095822333
:102E3000932380830895CF93DF93D1E0E091C90677
:102E4000F091CA069F012F5F3F4F3093CA0620932F
:102E5000C9068491982F907FC82FCF70903821F4A5
:102E60008C2F0E94EA16EACF9039F9F4E091CD0652
:102E7000F091CE0609958D278093A802E091C906AE
:102E8000F091CA06CF0101969093CA068093C906B5
:102E900064918091C706C81788F6C13009F052C006
:102EA00080919D028111CACF4DC097FD3AC03296E4
:102EB000F093CA06E093C906F901249130E0382B5B
:102EC000A091AA02B091AB020E94F2336C507E4FE7
:102ED0008F4F9F4F28EE33E040E050E00E94D03308
:102EE0002093A1023093A2024093A3025093A40224
:102EF0008091A1029091A202A091A302B091A4029C
:102F0000892B8A2B8B2B21F581E090E0A0E0B0E0AB
:102F10008093A1029093A202A093A302B093A40273
:102F200017C0903E49F48091CB069091CC069093C7
:102F3000CA068093C90682CF903F09F07FCF1092D6
:102F4000C80606C067FD7ACF8C2F0E943D1576CF4C
:102F5000DF91CF9108951F920F920FB60F92112417
:102F60002F933F934F935F936F937F938F939F9391
:102F7000AF93BF93EF93FF938091A902882341F011
:102F80008091C506811104C08091A802882351F167
:102F90008091C806882381F18091A1029091A202BC
:102FA000A091A302B091A402892B8A2B8B2B21F133
:102FB0008091A1029091A202A091A302B091A402DB
:102FC0000197A109B1098093A1029093A202A09355
:102FD000A302B093A402892B8A2B8B2B69F40E9445
:102FE0001B170AC08091A702E091A502F091A602EA
:102FF000908189278083CCCFFF91EF91BF91AF91D2
:103000009F918F917F916F915F914F913F912F9100
:103010000F900FBE0F901F9018959091C706923099
:1030200009F471C0292F30E0F901EA55FE4F4081C3
:10303000F901E556FD4F8083913031F420919B02D8
:10304000281302C090939D029F5F9093C70690E063
:10305000FC01E759F74D2491FC01E65BF74D8491A3
:1030600030E0220F331FF901E45CF74D6591749154
:10307000F901E25DF74DA591B4919C91982B9C9339
:10308000413019F04330D9F0089590916400977F52
:1030900090936400109280001092810090918100C2
:1030A000986090938100909181009160909381004D
:1030B00070939F0260939E028093A0020895909166
:1030C0006500977F90936500109290001092910098
:1030D00090919100986090939100909191009160EF
:1030E000909391007093A6026093A5028093A7022B
:1030F0008091C706882321F06CE380E00E943D1593
:1031000080E00C94EA1608952D9A0895BC0180E0A1
:1031100090E00C94DF158FB12CB193B130E0209585
:10312000309520743327A90123E0559547952A95BA
:10313000E1F7292F30E02095309520713327359520
:10314000279535952795242B8095807F822B089590
:1031500083B7817F83BF83B7816083BF889583B73F
:103160008E7F83BF08958EBD00000DB407FEFDCF96
:1031700008955C980E94B3185C9A089510924402D6
:103180003E983F9808953E9A3F9A81E0809344028A
:1031900008958091C1028EBDE2ECF2E081910DB400
:1031A00007FEFDCF8EBD86E0E13CF807B9F70DB410
:1031B00007FEFDCF0895CF92DF92EF92FF920F931B
:1031C0001F93CF93DF93DC01C090BD02D090BE026D
:1031D0004091BF025091C002E091B902F091BA0251
:1031E0002091BB023091BC0260E070E080E090E092
:1031F00001E010E06A177B0704F52115C1E03C07E8
:1032000049F4F601E40FF51FE491F0E04F5F5F4FE2
:1032100021E030E07F01E222F322EF2849F078013B
:10322000062E02C0EE0CFF1C0A94E2F78E0D9F1DC5
:10323000220F331F6F5F7F4FDDCF3093BC0220938F
:10324000BB025093C0024093BF02F093BA02E093D6
:10325000B902DF91CF911F910F91FF90EF90DF9016
:10326000CF9008952F923F924F925F926F927F92EC
:103270008F929F92AF92BF92CF92DF92EF92FF9286
:103280000F931F93CF93DF93CDB7DEB72D970FB674
:10329000F894DEBF0FBECDBFED82E22EF12C9C0173
:1032A0002E0D3F1D37FD32C1803891050CF02EC127
:1032B0009B01200F311D37FD29C1603471050CF0D1
:1032C00025C1DB0177FF04C0AA27BB27A61BB70BCC
:1032D000A770BB279B0177FF02C0295F3F4F13E018
:1032E000359527951A95E1F777FF08C021503109E8
:1032F00068E070E0FB01EA1BFB0BDF01E02FE695C5
:10330000E695E695CE2ED12C077019F0FFEFCF1A77
:10331000DF0AB9017695762F662777956795680F4E
:10332000791F6F537D4F8601020F131F198708877E
:10333000C12CD12CF8E0AF2EB12C85010A1B1B0B40
:103340001F830E83088519852017310709F4DEC015
:103350002830310509F4DAC02F3F1FEF31070CF494
:10336000CAC08B0100581F4F1D870C874B013B01C2
:103370002B011C011C830B831A8309831B861A866D
:103380000A851B850E151F050CF0B5C010E8211627
:10339000310409F4B0C037FC89C02F3FEFEF3E077E
:1033A00009F4B0C00A851B850C0D1D1DFD81F1308F
:1033B00079F4F801E40FF51FE491F0E08F010A2E93
:1033C00001C0000F0A94EAF7F301B0800B2925C071
:1033D000FD81F11114C0F801E40FF51FE491F0E054
:1033E0000A2E02C0EE0FFF1F0A94E2F78F0100952C
:1033F0001095F401A080B12C0A211B210EC0F80108
:10340000E40FF51FE491F0E08F010A2E01C0000FD8
:103410000A94EAF7F201B0800B250083109709F4B3
:1034200045C02730310509F441C00A851B850C0DC4
:103430001D1DFD81F13089F4F801E40FF51FE491C1
:103440000E2F10E00E8002C0159507950A94E2F742
:10345000EC85FD85B0800B2928C0FD81F11115C0D8
:10346000F801E40FF51FE4910E2F10E00E8002C06A
:10347000159507950A94E2F700951095E981FA8170
:10348000A080B12C0A211B2110C0F801E40FF51F08
:10349000E4910E2F10E00E8002C0159507950A9456
:1034A000E2F7EB81FC81B0800B2500830A851B8548
:1034B0000F5F1F4F1B870A870C851D850F5F1F4FEE
:1034C0001D870C8709811A810F5F1F4F1A8309839B
:1034D0000B811C810F5F1F4F1C830B831FEF211A71
:1034E000310AEFEF4E1A5E0AFFEF6F1A7F0A0FEFF5
:1034F000801A900A45CF2F5F3F4F60587F4FCE0C08
:10350000DF1C20CF109709F090CFD0CF2D960FB6AB
:10351000F894DEBF0FBECDBFDF91CF911F910F9109
:10352000FF90EF90DF90CF90BF90AF909F908F90E3
:103530007F906F905F904F903F902F9008956038EC
:103540007105D0F440345105B8F4E6E2F3E280E1CD
:10355000849FD001A0781124A60F4770E40FF11DBD
:10356000E491AF53BD4F222319F04C91E42B03C0DB
:10357000E0954C91E423EC9308952F923F924F9263
:103580005F926F927F928F929F92AF92BF92CF92F3
:10359000DF92EF92FF920F931F93CF93DF93CDB7FC
:1035A000DEB729970FB6F894DEBF0FBECDBFFC0182
:1035B0006A3069F4248D808D918D38E0239F800DD1
:1035C000911D1124918F808F178A168AAAC06D30A1
:1035D00009F4A7C099878887F48C338C228C608C7F
:1035E000718C0689178900381105C4F0A885B98542
:1035F0005C962C915C97422F50E056968D919C9151
:103600005797B6E02B9F800D911D1124E885F98511
:10361000978B868B258D21116EC083C0F0E46F16C9
:10362000710424F7C80125E0F29E800D911D11243C
:1036300018161906DCF68F2D90E09C838B83C3014E
:10364000A8E0FA9E800D911D11241816190674F633
:10365000B5E06B9FB0011124FB01E25DFC4DFA83E4
:10366000E98330E08885998504969E838D83E9817E
:10367000FA81E490353009F4E12C430188E0482ECA
:10368000E0FC02C0532C01C0522C51100BC0321070
:1036900009C0E6944A948B819C81880E991E411042
:1036A000EFCF1BC068018C2D801B8F1590F7540144
:1036B0008A2D88198F1568F4252DA501B6018D81F5
:1036C0009E813F830E949F1A9FEFA91AB90A3F81EA
:1036D000EFCFAFEFCA1ADA0AE6CF3F5FEB81FC818A
:1036E0000E0F1F1F89819A8101969A838983363034
:1036F00009F0BDCF7BCF6AEF64039001659F300D69
:10370000112420583F4F281739075CF4A885B98544
:10371000ED91FC9111970190F081E02D6AE0CD01CF
:10372000099581E090E029960FB6F894DEBF0FBEB0
:10373000CDBFDF91CF911F910F91FF90EF90DF9060
:10374000CF90BF90AF909F908F907F906F905F9041
:103750004F903F902F9008950F931F93CF93DF9337
:10376000EC018B01FB0160810E949033F8016181C3
:10377000CE0101960E94903382E090E0DF91CF91DC
:103780001F910F9108950F931F93CF93DF938C0197
:10379000EB010E9488338883C80101960E94883318
:1037A000898382E090E0DF91CF911F910F9108957E
:1037B0008091C806811104C08CEC9FE10C94381EE6
:1037C00008950E94461E87EA0E94B9180E94461E6C
:1037D0008BE99FE10E94381E84EA96E00E948618D9
:1037E00086EA0C94B9184F925F926F927F928F92F3
:1037F0009F92AF92BF92CF92DF92EF92FF920F9380
:103800001F93CF93DF931F92CDB7DEB75C013B01CF
:1038100049830E948D1F4981411104C048E0C42E94
:10382000D12C1FC010E0812F90E020910201022EC8
:10383000000C330B8217930794F434E0880F991F20
:103840003A95E1F7EE24E3940BE02FE04DE75FE1DA
:1038500065E370E002960E9432191F5FE4CFC12C2D
:10386000D12C86010F5F1F4FC8010E945F1FC60148
:10387000C2960E945F1F460183E3880E911C2801B7
:1038800017FF02C0412C512C82017401E1E48E1615
:1038900091041CF020E4E22EF12C0E151F055CF4BF
:1038A00021E0A80160E070E084ED96E00E949F1A9C
:1038B0000F5F1F4FEACF21E0A20161E370E084EDCA
:1038C00096E00E949F1AFFEF4F1A5F0A4E145F04A2
:1038D00091F7EE24E39400E320E3A501B6016E5FC7
:1038E0007F4F81E090E00E94321984E390E0909352
:1038F000E7068093E606D092E906C092E8068301C7
:10390000A12CBB24B39494E3E92EF12CF80184910B
:103910008532F1F04CF4803239F1843249F1811171
:1039200042C08EEFA82E5DC08F3531F08C3709F480
:1039300058C08632C1F523C0F9E0CF0ED11CF092F9
:10394000E706E092E606D092E906C092E80649C092
:1039500084ED96E00E94C918B11003C081E090E0A8
:103960003EC088EC90E03BC080E20E94E11E39C07E
:1039700080914502909146020E94EC1E0DC08091FC
:103980004702909148020E94EC1E8091470290915C
:103990004802181619062CF584ED96E00E94C91805
:1039A0000E94E11B1EC00E94E11EB11005C04AE04A
:1039B00050E060E070E004C044E150E060E070E09E
:1039C00084E893E00E94551E84ED96E00E94C91899
:1039D000B11003C08CE090E002C084E690E00E9449
:1039E00086180E948B1882FDB12CA3940F5F1F4F85
:1039F0008FEFA8128BCF84ED96E00E94C918B1100A
:103A000003C08CE291E002C08CED95E00E94861824
:103A10000E948B1882FDFCCF0F90DF91CF911F91F8
:103A20000F91FF90EF90DF90CF90BF90AF909F905D
:103A30008F907F906F905F904F900895EF920F93CB
:103A4000CF93DF93D82FC62F842F611103C04DE68B
:103A50005FE102C045E75FE160E470E0681B710967
:103A6000EE24E39407E028E088E790E00E94321912
:103A700084ED96E00E94C918DD23F9F0C11102C05F
:103A8000D4E001C0D8E00E948B188D238D17B1F3CC
:103A9000C11102C0D4E001C0D8E00E948B188D2370
:103AA000B9F3C11102C0D4E001C0D8E00E948B1864
:103AB0008D238D17B1F381E00CC0C11102C0C4E0A9
:103AC00001C0C8E00E948B18982F9C2381E09C13B2
:103AD00080E0DF91CF910F91EF900895CF93DF9326
:103AE0001F92CDB7DEB76983DC01ED91FC910280B6
:103AF000F381E02D41E050E0BE016F5F7F4F0995FB
:103B00000F90DF91CF91089583E08093E900809139
:103B1000F200882319F08AE38093E8000895009763
:103B200069F0FC0101900020E9F73197AF01481BD3
:103B3000590BBC0180ED96E00C94121580E090E0EA
:103B400008957F928F929F92AF92BF92CF92DF9211
:103B5000EF92FF920F931F93CF93DF936C015B0162
:103B60007A0180910C01882309F46BC08091B8021E
:103B7000882309F466C08091B60280FF05C0809159
:103B8000E00082608093E000E70110E00AEF83E04C
:103B9000982E90E4792E2AE3822E209709F448C0CB
:103BA0008FB7F8949092E9009091E80095FF06C0D5
:103BB0009091F200272D291B922F01C090E08FBF1A
:103BC00091110AC0015009F43CC061E070E080E04E
:103BD00090E00E94DF15E1CF292F30E0C217D30714
:103BE0000CF49C2F8FB7F8949092E9002091E80094
:103BF00025FF1CC0292F30E0C21BD30BF5019150CB
:103C000020F041914093F100FACFA20EB31E112390
:103C100019F08092E80009C09091E80095FD06C077
:103C20008092E80011E0209709F010E08FBFB5CF37
:103C30001111B6CF5D9884E68093B5021E141F045F
:103C400044F081E090E0F6019383828380E090E08D
:103C500001C0C701DF91CF911F910F91FF90EF90AD
:103C6000DF90CF90BF90AF909F908F907F900895FE
:103C70009093CC068093CB069093CA068093C90696
:103C80000E941B1781E08093C8060895CF93C0E07F
:103C90008091C706C81728F48C2F0E94EA16CF5FC0
:103CA000F7CF1092C806CF9108954F925F926F920E
:103CB0007F928F929F92AF92BF92CF92DF92EF92BC
:103CC000FF92CF93DF93EC014A015B01E091CD06B7
:103CD000F091CE060995882309F464C08091C70647
:103CE000823008F45FC081E08093C6068091FA06B6
:103CF0008093C5062E01612C712C60E072E18AE789
:103D000090E0A30192010E949E3369017A0181E053
:103D1000C81AD108E108F108C114D10481E0E8060D
:103D2000F104F0F168E478EE81E090E0A301920103
:103D30000E949E3369017A0181E0C81AD108E10826
:103D4000F10883E090918100987F982B90938100F7
:103D500081149104A104B10471F0DE01AA0FBB1F0C
:103D6000A50194010E94BD3328EE33E040E050E00D
:103D70000E94D03303C02FEF3FEFA901D0928900FA
:103D8000C09288002093C1063093C2064093C306B8
:103D90005093C40680916F00826080936F0002C0D0
:103DA00081E0D0CFDF91CF91FF90EF90DF90CF9067
:103DB000BF90AF909F908F907F906F905F904F904B
:103DC0000895E091D006F091D1060190F081E02DA8
:103DD000682F80ED96E009948F929F92AF92BF92E8
:103DE000CF92DF92EF92FF920F931F93CF93DF93C7
:103DF000CDB7DEB7A1970FB6F894DEBF0FBECDBF2B
:103E00006C01990FEE08FF08F7FE29C08DE20E94B1
:103E1000E11E8C0122273327A9012C193D094E09E7
:103E20005F0919A2CE0181967C019AE0892E912C1E
:103E3000A12CB12CCA01B901A50194010E94D03373
:103E4000605DF70162937F01211531054105510540
:103E500089F7CF010E948F1D800F911F1DC0A70100
:103E6000960119A28E010F5D1F4F8AE0C82ED12C3A
:103E7000E12CF12CCA01B901A70196010E94D033AF
:103E8000605DF80162938F012115310541055105EF
:103E900089F7CF010E948F1DA1960FB6F894DEBF5F
:103EA0000FBECDBFDF91CF911F910F91FF90EF908B
:103EB000DF90CF90BF90AF909F908F900895AC010E
:103EC0004770552721E001C0220F4A95EAF797FD78
:103ED0000796FC0183E0F595E7958A95E1F7F6955D
:103EE000FE2FEE27F795E795EF53FD4F83E38150C3
:103EF00021F09081922B9193FACF089520E081ECEC
:103F000092E0B22FB111BFEFFC010024B193B19345
:103F1000B193B1930394D1F708950E947E1FE0ED11
:103F2000F6E0118E108E178A168A08950C948F1D54
:103F30005F926F927F928F929F92AF92BF92CF9239
:103F4000DF92EF92FF920F931F93CF93DF93EC01D9
:103F50008B017A01A901461B570B57FF03C05195EE
:103F600041955109C7018C1B9D0B97FF03C091958B
:103F700081959109552453948417950714F0512C79
:103F80000AC09E2D8F2D7901292F382F9C2F8D2F20
:103F9000E801092F182FEC16FD0654F4902F812FFD
:103FA0008901292F382F9C2F8D2FE701E92EF82E1C
:103FB00037016C1A7D0A5901A01AB10AB7FE03C075
:103FC000B194A194B108630177FE03C08FEFC81AC2
:103FD000D80AD594C7940217130714F08FEF01C0C5
:103FE00081E0882E880F9908EC16FD06B4F021E0D8
:103FF000552019F0AE01B80102C0A801BE0184ED40
:1040000096E00E949F1ACA18DB08D7FE04C0080D6C
:10401000191DC60CD71C2196E7CFDF91CF911F91B8
:104020000F91FF90EF90DF90CF90BF90AF909F9057
:104030008F907F906F905F9008952F923F924F9254
:104040005F926F927F928F929F92AF92BF92CF9228
:10405000DF92EF92FF920F931F93CF93DF93CDB731
:10406000DEB728970FB6F894DEBF0FBECDBF6C0148
:104070007B015093BE024093BD0280E091E090939B
:10408000BC028093BB021092BA021092B902109245
:10409000C0021092BF0288E090E00E94DB180196F7
:1040A0009C838B8388E090E00E94DB188C0181E088
:1040B00090E00E94DB184C018B819C818C0D9D1D32
:1040C00097FDEDC020E8C216D1040CF0E8C0C8018D
:1040D00001969701280F391F37FDE1C030E4E31640
:1040E000F1040CF0DCC08701F7FE04C000271127A3
:1040F0000E191F09077011279701F7FE02C0295FEB
:104100003F4FA90133E0559547953A95E1F75A831A
:104110004983F7FE0AC0415051095A83498328E078
:1041200030E0D901A01BB10B8D011C0197FF03C02A
:10413000B7E02B0E311C23E0359427942A95E1F744
:1041400087709927892B19F0EFEF2E1A3E0A662403
:104150006394712C18861F82E12CF12CA12CB12CB8
:1041600088E090E09C01201B310B3E832D83A2143C
:10417000B3040CF094C044244394512C81E090E0AB
:104180000E94DB18892B21F432E0430E511CF6CF3C
:10419000C2010E94DB182C0120E030E042165306D9
:1041A0000CF473C08114910431F04F815885462975
:1041B000572958874F83660C771C611451E07506A8
:1041C00009F060C049815A814A0D5B1DBA016F5FD9
:1041D0007F4F69307105F0F5C7018C0D9D1D80384A
:1041E0009105C0F54F3F8FEF580709F454C0FA010D
:1041F000F695FE2FEE27F795E795EC0DFD1DEE0DDC
:10420000FF1DEF53FD4FA0818F819885002E01C0C7
:10421000880F0A94EAF78A2B808301151105D1F0E3
:1042200047305105B9F0FB01F695FE2FEE27F795C3
:10423000E795EC0DFD1DEE0DFF1DEF53FD4F4F817A
:1042400058850D8002C0559547950A94E2F7808104
:10425000842B80839FEFE91AF90A4B815C81E41675
:10426000F5065CF05FEFA51AB50A66246394712C1D
:1042700018861F82E12CF12C05C066246394712CF2
:1042800018861F822F5F3F4F89CF81E090E0881909
:1042900099094C016CCF0115110529F6DBCF289641
:1042A0000FB6F894DEBF0FBECDBFDF91CF911F9147
:1042B0000F91FF90EF90DF90CF90BF90AF909F90C5
:1042C0008F907F906F905F904F903F902F900895C8
:1042D000FC018091B802811103C08FEF9FEF089518
:1042E0009FB7F89482E08093E9002091F20030E0DB
:1042F0001216130614F421E030E02115310559F0AF
:10430000289884E68093B7028091F10080838091A1
:10431000F200882319F09FBFC90108958BE68093AE
:10432000E800F9CF8091F20681110DC082E0809300
:10433000EE0684E08093EF061092F1061092F006EC
:1043400081E08093F2068EEE96E00895FC0184856C
:10435000958597FD0BC09FB7F89482E08093E900A4
:104360008091F2009FBF90E0019608959FB7F89466
:1043700082E08093E9008091F2009FBF90E0089571
:1043800040914F075091500720914D0730914E07B3
:1043900042175307B4F49091E8009570E1F39091BF
:1043A000E80092FD19C08093F10080914F07909131
:1043B000500701968F739927892B19F48EEF8093FC
:1043C000E80080914F079091500701969093500715
:1043D00080934F0781E0089580E00895DF92EF9287
:1043E000FF920F931F93CF93DF93D82E8A017B0107
:1043F000E40EF51EEB01CE15DF0571F0D7FE03C00C
:10440000FE01849101C088810E94C0212196811102
:10441000F2CF8FEF9FEF01C0C801DF91CF911F91C5
:104420000F91FF90EF90DF900895615030F0209150
:10443000F100FC0120830196F8CF289884E6809350
:10444000B70208950F931F93CF93DF931F92CDB7B9
:10445000DEB78C01FC018485958597FF0EC0CE01E7
:1044600001960E946821019719F4298130E002C069
:104470002FEF3FEFF80135872487F8018485958574
:104480000F90DF91CF911F910F910895CF93DF93FC
:104490001F92CDB7DEB7FC018485958597FD05C0D9
:1044A0002FEF3FEF358724870BC0CE0101960E9486
:1044B0006821019719F4898190E002C08FEF9FEF86
:1044C0000F90DF91CF9108950F931F93CF93DF93B8
:1044D0001F92CDB7DEB782E0898342E450E068E501
:1044E00079E280E80E94EE210E949221DC0112967E
:1044F0000D911C9113970115110569F0D801ED91EB
:10450000FC910280F381E02DBE016F5F7F4FC801F7
:10451000099597FF07C089810F90DF91CF911F9177
:104520000F910895F80100851185E5CF1F920F9234
:104530000FB60F9211248F939F938091E100909179
:10454000E100937F9093E10083FF0FC01092E90098
:1045500091E09093EB001092EC0092E39093ED00C9
:104560001092B80298E09093F00082FF20C093E090
:104570009093E9009091F200992319F09AE39093B7
:10458000E8009091B502992339F09091B5029150CD
:104590009093B502992389F19091B702992339F04C
:1045A0009091B70291509093B702992341F184FF03
:1045B00010C08091E2008E7E81608093E200809145
:1045C000E1008F7E8093E1008091B6028E7E806153
:1045D00011C080FF16C08091E2008E7E80618093C2
:1045E000E2008091E1008E7E8093E1008091B6022E
:1045F0008E7E81608093B60204C05D9ACDCF289AEA
:10460000D6CF9F918F910F900FBE0F901F9018954E
:104610001F920F920FB60F921124CF92DF92EF925A
:10462000FF920F931F932F933F934F935F936F933B
:104630007F938F939F93AF93BF93EF93FF93CF930A
:10464000DF93CDB7DEB76C97DEBFCDBF1092E90028
:104650008091E80083FFEDC168E0CE0145960E949D
:10466000152282EF8093E8008D8987FF05C0909125
:10467000E80090FFFCCF03C09EEF9093E800982FD6
:10468000907609F0C6C09E892F89188D91110CC0B3
:10469000803829F480914C078093F10002C0109279
:1046A000F1001092F10048C1422F50E0512B91309F
:1046B00051F4811141C14130510509F03DC1809152
:1046C0004C078D7F0BC0933061F4811135C14130AF
:1046D000510509F031C180914C07826080934C07ED
:1046E0002BC1953041F48091E80080FFFCCF206819
:1046F0002093E30021C1963009F05FC0EB8CFC8C65
:104700001092E9001092500710924F07123091F565
:1047100010924E0710924D070E94642299E0BE014C
:104720006F5F7F4FDB01E92F1D92EA95E9F79983CF
:104730001A8391E09E8390EA98879AEF9987209157
:104740004F0730915007275F3F4F3C832B838D836A
:104750001092E9001092500710924F07F0924E0706
:10476000E0924D0749E050E080E00E94EE210E9477
:104770006422E2C0F0924E07E0924D070E9492211F
:10478000DC011296ED90FC901397E114F10409F40A
:10479000C0C0D701ED91FC910480F581E02DBE01F0
:1047A0006B5E7F4FC7010995009719F00CF0C4C0EC
:1047B000C7C0F701E084F184E8CF973009F4C0C0A6
:1047C000983021F481E08093F100B6C0993009F06F
:1047D000B3C0837009F0B4C0E9ECF1E081E021E0FE
:1047E00036E39081992361F08093E9002093EB00F8
:1047F00091919093EC003093ED008F5F873089F7B3
:104800008EE78093EA001092EA008F898093B802C5
:1048100093C08B8D9C8D1092E900109250071092DE
:104820004F0790934E0780934D07898D811156C095
:104830008E899D89913A59F4813209F081C047E00F
:1048400050E065E071E080E00E94EE2175C0913299
:1048500009F076C0833289F4888D90E0982F8827FC
:104860002F89822BA0E0B0E080930D0190930E0180
:10487000A0930F01B09310015FC0803269F4809162
:10488000E80082FFFCCF67E085E091E00E941522FE
:104890008BEF8093E80006C0823209F04DC08F890B
:1048A00080930C0180914B07882319F0EEEFFAE01A
:1048B00002C0E0E0F8E08091050190910601A0912E
:1048C0000701B0910801803B9440A105B10509F0B2
:1048D0007BC080910C0180FF93C076C00E94922122
:1048E000DC0112960D911C9113970115110541F1F0
:1048F000D801ED91FC910190F081E02DBE016B5E3D
:104900007F4FC8010995811117C0F80100851185F5
:10491000ECCF113009F44EC0133091F48F89882305
:1049200009F445C0823081F440E860E18CEB99E203
:104930000E94E632882321F08EEF8093E80079C050
:1049400081E28093EB0075C0813029F440E86BE090
:1049500080EB99E2EDCF833099F70E949221DC0140
:104960001296ED90FC9013978E010F5F1F4F680118
:10497000E114F10479F0D701ED91FC910680F78103
:10498000E02DB801C7010995080F111DF701E0845A
:10499000F184EECFD8011C92F60101900020E9F7D6
:1049A0003197BF016C197D0940E0C601C1CF6AE9AA
:1049B00079E202C06EE979E26115710509F2FB0145
:1049C000449150E080E840CF0FB6F894A8958091CC
:1049D0006000886180936000109260000FBEA8950F
:1049E000EE3F2AE0F20739F08091FE0A9091FF0A2B
:1049F00091838083A1CF1092FF0A1092FE0A9CCF70
:104A0000EE3F8AE0F80731F0808191819093FF0AB0
:104A10008093FE0A87E797E7918380839BE088E194
:104A20000FB6F894A895809360000FBE9093600035
:104A300083CF6C960FB6F894DEBF0FBECDBFDF916B
:104A4000CF91FF91EF91BF91AF919F918F917F9106
:104A50006F915F914F913F912F911F910F91FF9017
:104A6000EF90DF90CF900F900FBE0F901F90189592
:104A7000CF93DF93CDB7DEB7C954D1090FB6F89401
:104A8000DEBF0FBECDBF789484B5826084BD84B58F
:104A9000816084BD85B5826085BD85B5816085BD39
:104AA00080916E00816080936E00109281008091F1
:104AB0008100826080938100809181008160809379
:104AC00081008091800081608093800080919100BE
:104AD0008260809391008091910081608093910029
:104AE000809190008160809390008091C1008460EB
:104AF0008093C1008091C10082608093C100809149
:104B0000C10081608093C1008091C3008160809367
:104B1000C3008091C00082608093C0008091C20079
:104B200081608093C20080917A00846080937A00D3
:104B300080917A00826080937A0080917A0081600F
:104B400080937A0080917A00806880937A00109236
:104B5000B80210924C071092B6028091D700816083
:104B60008093D70080EA8093D80089B5806189BDA1
:104B700089B5826089BD09B400FEFDCF61E070E0B7
:104B800080E090E00E94DF158091D8008F7C8061EA
:104B90008093D8008091E000807F8093E000809136
:104BA000E1008E7E8093E1008DE08093E200559AD3
:104BB000209AEEEFFFE7859194918B3F9C4D19F47D
:104BC00081E080934B0781EC80937C0085B1806FFE
:104BD00085B9249884B1866E84B95E9A5F988AB14B
:104BE000806D8AB9769A6E9881B3806F81BB8998FF
:104BF00080B38D7080BB80E58CBD81E08DBD85E08C
:104C000090E00E9486185F9A85E090E00E948618E6
:104C10005E985C9808EE13E06DE0F62EF00EF80159
:104C200084910E94B3180F5F1F4FF012F8CF5C9A67
:104C300081E88093640081E08093650000E014E0E7
:104C400080E00E94B31801501109D1F70E948B181F
:104C500087FF1DC085EA0E94B9182E982F982D98BD
:104C6000809164008062809364000E94A818FDCF48
:104C70002D980E948B188478843871F00E948B18CC
:104C80008471843131F188EC90E00E9486180E9492
:104C90008B1882FDEDCF3AC00E94841888EC90E01A
:104CA0000E9486182F9882E090E00E9488338F3F00
:104CB00029F06FEF82E090E00E94903384EF91E062
:104CC0000E9486182F9A0E948B1884788438D9F312
:104CD000D5CF0E94841888EC90E00E9486182E9808
:104CE00082E090E00E948833882329F060E082E02F
:104CF00090E00E94903384EF91E00E9486182E9AF3
:104D00000E948B1884718431D9F3BDCF0E9484181E
:104D100082E090E00E948833882319F00E94C31833
:104D200002C00E94BE182E985EEEC52EDD24DA94D5
:104D30000E948B1886FF04C02E9A2F9A2D9A43C08A
:104D4000FCEFCF16FFEFDF0619F42E9A2F9806C05E
:104D500028E1C216D10411F42F9A2D980E947E1FCB
:104D6000EE24E39400E128E548E353E0B60184E152
:104D700090E00E94321984ED96E00E94C9188BE100
:104D800090E00E94861830EFC3163FEFD30621F45F
:104D90008AEF90E00E9486184FEFC41AD40A59E1B6
:104DA000C516D10429F68CEB92E00E9486180E9469
:104DB0008418E091D406F091D5060190F081E02DA1
:104DC00084ED96E0099582E390E00E9486180E94A7
:104DD0008B188111F8CF80E18093DB060E948D1F34
:104DE000809164008E7F8093640080917A0080645B
:104DF00080937A0080917A0086FDFCCF0091780044
:104E0000109179000E94BA1520E030E09801112736
:104E10000027600F711F821F931F611571058105A7
:104E2000910511F00E947633809164008160809337
:104E3000640085E00E940D188DE00E940D1884E743
:104E400090E00E9488338E3A11F00C947231BE01CA
:104E50006E5E7F4F86E790E00E94C31BBE016F5FCE
:104E60007F4F88E790E00E94C31B8A899B89298134
:104E70003A81280F391F20383B4B11F00C947231C6
:104E80009093460280934502FE013196FCA7EBA762
:104E90000E9419160091E0061091E1062091E206A9
:104EA0003091E3064091E406442349F02091DC066A
:104EB000621B6093E5061092E4060C94683160175B
:104EC00071078207930748F4061B023010F40C9414
:104ED00068310E94A8180C94683121E02093E40600
:104EE0006093DC067093DD068093DE069093DF0608
:104EF0002091DB06DC01CB01820F911DA11DB11DAC
:104F00008093E0069093E106A093E206B093E30657
:104F10008091D7069091D80601969093D8068093F9
:104F2000D706809104018A3F09F46AC418F5873FC7
:104F300009F444C2B0F4823009F01CC50E94D81BA9
:104F40000E948D1F84ED96E00E94C91884EF91E0C5
:104F50000E94861818EFE12EFF24FA940DE010E06D
:104F60001AC0883F09F4C7C4893F09F003C5EAE5C0
:104F7000F2E092C48D3F09F443C438F48B3F09F446
:104F8000D7C28C3F09F426C2F5C48E3F09F4D9C1BB
:104F90008F3FD1F1EFC40E948D1F1093E70600935D
:104FA000E606F092E906E092E80687ED91E00E94BD
:104FB000961F84ED96E00E94C91884E190E00E945B
:104FC0008618FFEFEF1AFF0A2AE1E216F10419F73B
:104FD00088E592E00E94861889E290E09093E706C7
:104FE0008093E60683E290E09093E9068093E806DA
:104FF00089EE91E00E94961F84ED96E00E94C91808
:1050000080ED97E00E9486180E94D81B81E1E5E1BF
:10501000F1E0DE01529601900D928A95E1F781E16F
:10502000ABA5BCA51D928A95E9F7212C312C68E12E
:10503000462E512C07E310E077E2672E712CE1E257
:10504000EE2EF12CFBE2CF2ED12CA4E3AA2EB12C14
:10505000B0E68B2E912C0E94D81B0E948D1F4FEF23
:1050600058E162E070E08EE090E00E941D205092D6
:10507000E7064092E6061093E9060093E80681E110
:105080000E94E11EB2E03B1669F1B31524F0E1E0A5
:105090003E1691F006C0F3E03F1679F124E0321697
:1050A000B9F1F092E706E092E6061093E906009364
:1050B000E80682EF91E036C0F092E706E092E6065D
:1050C0001093E9060093E8068DEF91E00E94961F89
:1050D00080914402811103C083ED91E023C08FECE5
:1050E00091E020C07092E7066092E6061093E90610
:1050F0000093E80685E092E015C0D092E706C092E2
:10510000E6061093E9060093E8068EE092E00AC0F6
:10511000B092E706A092E6061093E9060093E8062F
:1051200086E192E00E94961F9092E7068092E60642
:105130001093E9060093E80680E10E94E11E84EDE9
:1051400096E00E94C9188091D9068093DA060E94E1
:105150008B188093D9069091DA0692FF02C00C94C6
:10516000763182FD02C00C9476310E948B1882FD4C
:10517000FCCF32E0331609F451C0331524F041E07E
:10518000341669F108C053E0351609F45AC084E0BA
:10519000381609F474C0FE01729631E121E12E0F38
:1051A00081E0820D9191A1E0B0E0AC0FBD1FA20D96
:1051B000B11D4C914913ADC0632F0E942536292E95
:1051C0002E13EECF80910001909101018C509E4FE3
:1051D00090930101809300010E94E11B9AC00E94FC
:1051E000461E80914402882319F00E94BE1802C016
:1051F0000E94C3186091440282E090E02A966FAF4B
:105200002A970E9488332A966FAD2A97681709F467
:1052100022CF82E090E00E9490331DCF8091470220
:1052200090914802892B49F4809145029091460261
:10523000892B19F46BEB77E102C06DE877E140E070
:105240005EC040E064E276E18DE696E10E94F31BE9
:1052500047E060E081E00E941E1D40E060EF75E1E4
:105260008DE696E10E94F31B47E060E081E00E943A
:105270001E1D40E068EB75E18DE696E142C040E01E
:105280006CE875E18FED97E10E94F31B0E9471338A
:105290002EE130E040E050E00E949E336530A9F0FE
:1052A00040F4623071F06430C1F440E063E075E1D5
:1052B00026C0663071F0673081F440E062E575E148
:1052C0001EC040E060E175E11AC040E068ED74E1A5
:1052D00016C040E062EA74E112C040E0653118F0A7
:1052E00068E874E10CC06F3018F06AE574E107C03B
:1052F0006A3018F062E274E102C063EE73E18FED90
:1053000097E10E94F31B47E060E081E00E941E1DD0
:10531000A2CE0E94461E48E750E060E070E08BEDB0
:1053200093E00E94551E8CE390E00E94861840E9AD
:1053300051E060E070E086E295E00E94551E8EEF3D
:10534000C5C740E06AE973E18FED9DE10E94F31B60
:1053500040E061E672E18AE792E10E94F31B40E0DF
:1053600064E272E18FED9DE10E94F31B40E06EED7F
:1053700070E184E091E10E94F31B40E065E970E197
:105380008FED9DE10E94F31B41E060E470E18FED41
:105390009DE10E94F31B40E06AE070E18AE792E140
:1053A0000E94F31B40E060E070E184E091E10E9424
:1053B000F31B47E060E081E00E941E1D1092030194
:1053C000109248021092470210929A0283E0809352
:1053D000020160C28091C806811104C08FEF9EE176
:1053E0000E94381E0E948D1FC0909602D090970296
:1053F000E0909802F09099020E941916C616D706FE
:10540000E806F906B0F48CE090E09093E70680930C
:10541000E60689E190E09093E9068093E80682E051
:105420008093EC068BE192E00E94961F81E08093CE
:10543000EC060E941916009192021091930220919D
:10544000940230919502061717072807390708F0CC
:105450006AC01092E7061092E60689E390E0909306
:10546000E9068093E80685E292E00E94961F80910B
:105470004702909148020E94EC1E1092E70610929B
:10548000E6061092E9061092E8068DE292E00E948C
:10549000961F80914502909146020E94EC1E0E9448
:1054A0008B188C70E1F788E590E09093E706809385
:1054B000E6061092E9061092E80682E392E00E9466
:1054C000961F8EE590E09093E7068093E60689E3C9
:1054D00090E09093E9068093E80688E392E00E94CA
:1054E000961F84ED96E00E94C91817EF0FEF47E072
:1054F00060E080E00E941E1D882319F000930401E3
:1055000008C040E461E080E00E941E1D81111093FC
:105510000401809104018C3F51F30E948B188C7020
:10552000E1F70E94461E84ED96E00E94C918D0C69D
:105530000E94E11B0E9419160091490210914A0233
:1055400020914B0230914C02601B710B820B930B2C
:1055500000914702109148022091020130919A0275
:10556000432F50E04F5F5F4F34E6349F7001359F0B
:10557000F00C1124A9E12A02E00CF11C1124603680
:10558000BAEE7B07810591054CF428E13CEF4FEF23
:105590005FEF0E949E33245C3F4F02C020E030E06A
:1055A0000E0D1F1D200F311F30934802209347021C
:1055B0008091450290914602821793070CF5309333
:1055C0004602209345023AA729A76EEA84E790E0B5
:1055D0000E949033BE01675D7F4F86E790E00E9496
:1055E000AC1B29A53AA580E89BEB821B930B9A8301
:1055F0008983BE016F5F7F4F88E790E00E94AC1BFC
:10560000E0919A0281E08E0F80939A028E2F90E0B3
:105610008730910508F039C1FC01EA5AFF4F40E09C
:105620000C9431366EEE7FE084E091E10E94F31B32
:1056300040E06EEA7FE025C16EEE7FE084E091E11C
:105640000E94F31B40E06EE67FE08FED9DE10E943B
:10565000F31B47E060E081E00E941E1D40E06FE127
:105660007FE00FC162EE7EE08FED9DE10E94F31BB3
:1056700047E060E081E00E941E1D40E060E070E1D4
:1056800084E091E100C166EB7EE0FBC066E87EE06D
:105690008AE792E1F8C064E57EE08AE792E10E9441
:1056A000F31B40E06BE27EE0ECC064EE7DE08FED4A
:1056B0009DE10E94F31B40E06FE97DE08FED9DE1ED
:1056C0000E94F31B40E069E57DE08AE792E10E94D9
:1056D000F31B47E060E081E00E941E1D0E94191646
:1056E0004B015C01E0ED8E0EE7E09E1EA11CB11C9B
:1056F0008092960290929702A0929802B09299029C
:105700000E948D1F48EE5AE060E070E080E090E07B
:105710000E941D2010E0FF24F394E12E0FE027E10A
:105720004AEB5AE062E270E087E390E00E943219AF
:105730001F258EE190E00E94861884ED96E00E947D
:10574000C9180E941916681579058A059B0528F362
:1057500047E060E080E00E941E1D8823F1F20E9475
:105760008B188C70E1F740E065EA7AE08FED9DE1FF
:105770000E94F31B40E06FE67AE08AE792E10E9424
:10578000F31B40E06AE57AE08FED9DE10E94F31B98
:1057900040E060E47AE08AE792E10E94F31B40E097
:1057A0006EEE7FE084E091E10E94F31B47E060E051
:1057B00081E00E941E1D8FE297E00E94381E0E9429
:1057C0008D1F84ED96E00E94C91818E086E990E0EC
:1057D0000E94861887EA0E94B91886E990E00E9424
:1057E000861886EA0E94B918115081F740E068EEE9
:1057F00076E084E091E10E94F31B0C94000045C028
:10580000809102018150809302011816BCF140E0A2
:105810006FE87DE18FED9DE10E94F31B88EE93E040
:105820000E9486188CEF809304010E941916209123
:105830004402211104C000E010E0980104C000ED12
:1058400017E020E030E0DC01CB01800F911FA21FA8
:10585000B31F8093960290939702A0939802B093FF
:1058600099028053984FAF4FBF4F8093920290930D
:105870009302A0939402B09395022AC541E06EE48E
:105880007DE18FED9DE10E94F31B47E060E081E048
:105890000E941E1D89EF1AC520E030E040E852E466
:1058A000219331934193519332E0E239F307A1F709
:1058B0008FED9CE10E94381E80E090E0A0E0B7EC04
:1058C0008093560290935702A0935802B0935902C6
:1058D0008093520290935302A0935402B0935502C6
:1058E00010924E0210924F021092500210925102EA
:1058F0008FEF80934D02C0905602D0905702E090F7
:105900005802F090590220E030E040E057ECC70127
:10591000B6010E946E34882381F02AE939E949E111
:105920005EE3C701B6010E94023460935602709391
:105930005702809358029093590220E030E040E4EF
:1059400050E46091560270915702809158029091F4
:1059500059020E94B33518166CF481E0809304015B
:105960000E9419166093490270934A0280934B0279
:1059700090934C028091C806811105C0809104016A
:10598000813009F408C511E080910401813031F0C3
:1059900010E048EF21964FAF219719C020E030E08A
:1059A0004AEF52E46091560270915702809158027A
:1059B000909159020E94B33518162CF051E02196AF
:1059C0005FAF219704C08BEF21968FAF21970E9484
:1059D0008D1F20E430E044E150E060E070E084E1BD
:1059E00090E00E94981F20E430E041E550E060E044
:1059F00070E081E590E00E94981FE12CF12C670196
:105A000097E0C90ED11C960147E250E0B70187E24A
:105A100090E00E94981F960144E650E0B70184E6AA
:105A200090E00E94981FA0E1EA0EF11CB0E4EB1692
:105A3000F10429F720E430E04AE350E060E070E050
:105A40008AE390E00E94981F20E430E047E750E0AE
:105A500060E070E087E790E00E94981FE0919A0272
:105A6000EFAF2EE0E29FF0011124EC5BFE4F30819E
:105A70003DA741814FA722803380C480D580868096
:105A80009780A084B18482859385A485B585259669
:105A90008CAF9DAFAEAFBFAF259720E030E040E0C8
:105AA00057EC609156027091570280915802909184
:105AB00059020E946E34811114C09DA5692F70E0B7
:105AC000719561957109072E000C880B990B0E9446
:105AD000AB346093560270935702809358029093B0
