:100000000C941B150C9443150C9443150C94431538
:100010000C9443150C9443150C9443150C94431500
:100020000C9443150C9443150C94EA220C945C2315
:100030000C9443150C9443150C9443150C944315E0
:100040000C9443150C94A2160C9443150C94431570
:100050000C9443150C9443150C9443150C945816AA
:100060000C9443150C9443150C9443150C944315B0
:100070000C9443150C9443150C9443150C944315A0
:100080000C94DE170C9443150C9443150C944315F3
:100090000C9443150C9443150C9443150C94431580
:1000A0000C9443150C9443150C944315672B712B3A
:1000B000872B982B9B2BA02BAA2B40E0FFE0400E18
:1000C0001FFF1F0E000003000040A0FFA0400A1DFC
:1000D000EF1D0A000003000080C0E0FFFFE0C080C9
:1000E0003C7FFFFFFFFF7F3C0000000F0F00000080
:1000F00080C0E07F7FE0C0803C63D4D8D8D4633C2C
:100100000000000F0F000000FEFFFFFFFFFFFFFFDA
:10011000FFFFFFFFFFFFFEF3FFFFFFFFFFFFFFFFFC
:10012000FFFFFFFFFFF3FFFFFFFFFFFFFFFFFFFFEB
:10013000FFFFFFFFFF7FFFFFFFFFFFFFFFFFFFFF4F
:10014000FFFFFF7FFEFFFDFDFDFDFDFDFDFDFDFD54
:10015000FDFFFEF30F472B872B87AB278B472B87A2
:100160000FF3FF0092440128920065148159240086
:10017000FF7F80A688A39084A1A988A292A9807FEE
:10018000FEFFFFFFFFFFFFFFFFFFFFFFFEFFFFFF81
:10019000FFFFFFFFFFFFFFFFFFFFFFFFFFFFFFFF6F
:1001A000FFFFFFFFFFFFFF0307070707070707071B
:1001B00007070703FE3F3F3F3F3F3F3F3F3F3F3F74
:1001C000FEFF07FCFCFCFCFCFCFCFCFC07FFFFDC6E
:1001D000C7C7C7C7C7C7C7C7C7DCFF030707070726
:1001E0000707070707070703E0F0F8F8F8F8FCFE31
:1001F000FFFFFFFFFFFEFCE08000003F3F3F3F3F6F
:100200000F0F0F3F3F3F3F3F00010303E0F0F8F8BF
:10021000F8F8FC8E7FFFFFFFEFFEFCE08000003F60
:100220003F3F3F3F0F0F0F3E3E3E3F3F0001030366
:10023000000000000001FEFFFF1F1E0C0804FC1C54
:100240001CFE0FFF03000000000000000001000082
:1002500000000000000000000001FE01F511120C7A
:100260000804FC1414F209FC030000000000000064
:1002700000010000000000008040007CFEFFFFFF46
:10028000FFFFFE7C000003063C3E1F3F3F3F0F3F49
:100290003F3E38308040007CFE872B632B87FE7CFE
:1002A000000003063C26113B23370B33212E383048
:1002B00070882848300C3E7FFFFEFEFE7F7F3E0C9C
:1002C0000001020204040207010701030600000006
:1002D00070882848300C3E7FF7FEEEEE7F773E0CAC
:1002E00000010202040402070107010306000000E6
:1002F0000080C0FCFEFFFFFFFFFE4002030F1F3F18
:100300003F3F3F1F1F100080C0FCFEFFF36F73FED6
:100310004002030F1F3F3F2030101F10183C78E0B1
:10032000783C78E07C3E1F1F0E04182458A0582407
:1003300058A05C2211150A04426F6F7374696E67CE
:100340005F776974682041206E656564735F7065CE
:1003500072666563745F74696D696E6720666F723B
:100360005F6661737465725F6D6F76656D656E74DF
:1003700000005072657373204120746F5F6765746D
:10038000206120736D616C6C5F626F6F7374207796
:1003900068696C655F6D6F76696E67207468655F0C
:1003A000616E696D616C0000426F6F7374207769D4
:1003B000746820415F7768656E206D6F76696E673F
:1003C0005F646961676F6E616C6C795F666F7220E4
:1003D000626573745F726573756C74730000492095
:1003E000414D5F4552524F522E0000426F6F737461
:1003F000207769746820415F616E642072656C6566
:100400006173655F74686520627574746F6E5F7187
:100410007569636B6C7920666F725F666173746572
:100420007220626F6F73745F72656C6F616400003D
:10043000F0F89C8E8783878E9CF8F00000FEFF0307
:1004400003030303070EFCF80000FEFF030303038E
:1004500003070EFCF80000FFFF0000000000000092
:10046000FFFF0000FEFF8383838383C7EE7C380099
:1004700000F8FC0E07030303070EFCF800003F7FA3
:10048000E0C08080C0E07F3FFFFF0101010101016A
:1004900001FFFF0000FFFF0C0C0C0C1C3E77E3C1BA
:1004A00000007FFFC0C0C0C0C0E0703F1F00001F41
:1004B0003F70E0C0C0C0E0703F1F00007FFFC1C1BF
:1004C000C1C1C1E3773E1C00001F3F70E0C0C0C047
:1004D000E0703F1F000000000001FFFF010000006E
:1004E000D5F08D14A1C881CFD9F1AF20009058006C
:1004F0009690540096905800969054004B80F0C00F
:10050000F0F830D0DEFFEE9FFDFFEFEE9EFCC0E086
:10051000C0091F3F17FE7FFFEF77EFFFBDBFDFE38F
:100520007F3F0800000000000001010103030301F8
:10053000000000000000A690460299800000903F55
:1005400002998000009045048D8000009046005282
:1005500080000090480052800000904600DD80003E
:1005600000904300DD800000903F00DD800000909F
:1005700045053480F0F0FEFFFFFFFFFFFFFFFFFFA8
:10058000FEF0E71FE787838383838387E71FE77F87
:1005900048EF4F67975797674FEF487F0007000076
:1005A000000600060000000700F0FEFFFFFFFFFF4F
:1005B000FFFFFFFFFEF0FFFFFFFFFFFFFFFFFFFF5B
:1005C000FFFFFF7F7FFFFFFFFFFFFFFFFFFF7F7F3B
:1005D000000707070707010707070707000055007F
:1005E00000CDCCCCBD00663C009A9919BE025300E8
:1005F00000B81E85BE025A6400B81E85BE0254E6CD
:1006000000B81E85BE006600003333B3BE006664CA
:10061000003333B3BE02530000295C8FBE025A5030
:1006200000295C8FBE0254A000295C8FBE006600CA
:10063000003333B3BE006778003333B3BE0129649F
:10064000003333B3BE0116C80052B89EBE030B2C54
:10065000010AD723BD025300009A9999BE025AC8D5
:10066000009A9999BE006700009A9919BE0067DC4C
:10067000009A9919BE001600009A9999BE00177841
:10068000009A9999BE01296400713D8ABE030DC884
:10069000000AD7A3BC03072C010AD7A3BC0349F463
:1006A000018FC275BD026B00009A9999BE0266C89F
:1006B000009A9999BE005300009A9919BE0254DC21
:1006C000009A9919BE011600009A9999BE001782E6
:1006D000009A9999BE01296400CDCCCCBE030DC807
:1006E000008FC2F5BC03060A000AD723BC0349F4F5
:1006F000018FC2F5BC01660000713D8ABE026EB476
:1007000000713D8ABE02668200713D8ABE025300BE
:10071000009A9919BE0254DC009A9919BE0016007D
:10072000009A9999BE001782009A9999BE0129648E
:1007300000713D8ABE030DBC020AD7A3BC03066448
:10074000000AD723BC034900000AD7A3BC033EF428
:10075000018FC2F5BC00660000713D8ABE02318C7B
:1007600000A470BDBE0231F000A470BDBE023154C1
:1007700001A470BDBE01668200713D8ABE015300B6
:10078000009A9919BE0154E6009A9919BE00180002
:10079000009A9999BE021782009A9999BE0228641C
:1007A00000713D8ABE0002070E16202B390001920F
:1007B000A5F3FB2070713B3B7D00442247E2F7002C
:1007C000829CD44EFF242424FF44AAAA444E4244CF
:1007D000EE929292FF170F050705070507050F1701
:1007E0002574257325252525732525732525732532
:1007F0007325532553482A5421215F5F57652520CF
:10080000617265255F462A2A2A494E475F676F69EC
:100810006E6720254241434B5F494E252054494D88
:1008200045212121210000903F005E80000590437A
:10083000005E800005904B005E8000059048005EE1
:10084000800005903F005E8000059043005E8000C0
:1008500005904B005E8000059048005E800005908A
:100860003F005E8000059043005E800005904B00D5
:100870005E8000059048005E800005903F005E802D
:1008800000059043005E800005904B005E800005EF
:100890009048005E800005903F005E800005904318
:1008A000005E800005904B005E8000059048005E71
:1008B000800005903F005E8000059043005E800050
:1008C00005904B005E8000059048005E800005901A
:1008D0003E005E8000059043005E800005904B0066
:1008E0005E8000059048005E800005903C005E80C0
:1008F00000059043005E800005904B005E8000057F
:100900009048005E8000059041005E8000059044A4
:10091000005E800005904D005E8000059048005EFE
:100920008000059041005E8000059044005E8000DC
:1009300005904D005E8000059048005E80000590A7
:1009400041005E8000059044005E800005904D00EF
:100950005E8000059048005E8000059041005E804A
:1009600000059044005E800005904D005E8000050B
:100970009048005E8000059041005E800005904434
:10098000005E800005904D005E8000059048005E8E
:100990008000059041005E8000059044005E80006C
:1009A00005904D005E8000059048005E8000059037
:1009B0003F005E8000059044005E800005904D0081
:1009C0005E8000059048005E8000059041005E80DA
:1009D00000059044005E800005904D005E8000059B
:1009E0009048005E8000059043005E8000059046C0
:1009F000005E800005904F005E800005904B005E19
:100A00008000059043005E8000059046005E8000F7
:100A100005904F005E800005904B005E80000590C1
:100A200043005E8000059046005E800005904F0008
:100A30005E800005904B005E8000059043005E8064
:100A400000059046005E800005904F005E80000526
:100A5000904B005E8000059043005E80000590464C
:100A6000005E800005904F005E800005904B005EA8
:100A70008000059043005E8000059046005E800087
:100A800005904F005E800005904B005E8000059051
:100A900044005E8000059048005E800005904F0095
:100AA0005E800005904B005E8000059043005E80F4
:100AB00000059046005E800005904F005E800005B6
:100AC000904B005E8000059041005E8000059044E0
:100AD000005E800005904D005E8000059048005E3D
:100AE0008000059041005E8000059044005E80001B
:100AF00005904D005E8000059048005E80000590E6
:100B000041005E8000059044005E800005904D002D
:100B10005E8000059048005E8000059041005E8088
:100B200000059044005E800005904D005E80000549
:100B30009048005E805DC5F0496E2063617365205A
:100B400077655F646F6E2774207365655F656163A9
:100B500068206F746865725F616761696E2C206FD1
:100B600075725F73636F72652069735F26004E6FE5
:100B7000206D6F6E6B657921215F4E4F4F4F4F4F48
:100B80004F212525252500005768617420696620BE
:100B9000495F6A7573742D2D2D252500004C6F6FEC
:100BA0006B73206576696C2C5F6C696B65202274B1
:100BB000696D655F74726176656C6C79222C5F6E0D
:100BC0006F626F647920746F7563685F69742D2D2F
:100BD0002D00005965732C20746861745F6F6E6519
:100BE0002E25252525250000C0D0D8B8B4BEB7AB2A
:100BF000776B776A766ED6EED67EBECC74B8FC0F75
:100C00000F050A150B152B152B172B572B563E7E50
:100C1000017F1F0502017F3F9395732AD5B9CE55F9
:100C200072273F7559E59C93B5EA4A762E25D5562D
:100C3000D9F4769BDE2AA9AC92CE49A5FAD4A7AA0C
:100C400052A9542A95CA75AE739DEB5CE72B59C91E
:100C5000EAAEEEEAAEEEEAAEEEEAAEEEEAAEEE9C5A
:100C600073A57D557555D952E54EA7D3D9743A95DC
:100C70004A55A5AABAABBBBAABAB5255A9AAEEEA84
:100C8000AEAE64252B59B94A56B29295ACE4B292F5
:100C900095AC6C3A9B3BD95575555D7C1EEDB6FF06
:100CA0006C3A15615471A5E34C79529553A974EAD5
:100CB000934A2B1FAF9265ABBAAAB2D55F75A92A2A
:100CC0005595AC6425A5B35BE56CEFDEAA743A9D3F
:100CD0004EA7D3E9743A9D4EA7B3E9743A9D4E27C7
:100CE0009D97BE7255555755F66465D3E974D05635
:100CF000BEB24965B3958DD5E96CE5425A3A9D4E31
:100D0000A7F34AE7D359A5D3BBA572B54DA723DDF9
:100D1000EF7E67EDFC7BE7E7532EE5CA2F4BB92A40
:100D20005BA5AE724AEFB7D16F15F494AF6C4A521F
:100D300056B67295743A5BB9D01951369DCEC61429
:100D40000C94FA9453CE29A7A492CBAD924A6E95F7
:100D5000DC4A75ABAA565DA95E3AE7A452B7FA73AE
:100D6000A97C3A9F1F6FA12DBF1C5BDB722AA7AA2B
:100D7000AEAA5655AE2AE7F095CF2A59BB4A2AAB00
:100D8000643618DABB6CD229A9E452A5D3E96CEE1B
:100D9000FACAD55575552E224429B552647BE7E72A
:100DA000F3BE929DEB5C27D3EB656CA13BED7D55CB
:100DB0007555B92A65A1B1ECB272E96C369B4EA7A4
:100DC000D3F9743A9D4EA7D3F95E55729B77885735
:100DD0004EC968B78A33A9D495ABAEEA4A5DBB99D0
:100DE0003C75CAA57095F2EF76CBA0B3BD25CA5667
:100DF0005557952DAB68436C3E9BCFE6F31593F5A5
:100E0000F965A5D3D975B6D2C94AA7D3F9743A5BA7
:100E1000962DBA5C953A5BB9CAE5B3D97C36542BAA
:100E200057ADAAABEAAAAE5C954B2129BFDE8DB5C2
:100E30006DF84A7F2ED7E94BA6729DEB643ABDCE82
:100E400087C77C65938A349F4DAFB3157496CD46A2
:100E5000175D74F9E8F2C97D369BCF0653115557DB
:100E6000D555956782C2963B2597B72AA59695BC1E
:100E7000DC7F75EBB34A074AEA6457D55575F179BB
:100E8000C8299FCE4694045768696368206F6E65D1
:100E90003F5F5468617420676C6F77696E672C5F81
:100EA0006D656E6163696E675F626F7820696E2041
:100EB0007468655F6D6964646C65206F66206F752A
:100EC000725F6A756E676C653F2525250000546862
:100ED00065206A756E676C655F6C6F6F6B73206100
:100EE0007320495F72656D656D626572215F45783B
:100EF0006365707420746861745F6D797374657272
:100F0000696F75735F61727469666163742E2525FC
:100F100025000057652064696420697421255F57A6
:100F20006520617265207468655F626573742E2048
:100F30005468655F737566666572696E67206F6673
:100F40005F6C6976696E6720696E20615F5A6F6FAA
:100F5000206973206F7665722E00004865206973E2
:100F6000207468655F6C617374206F6E65215F57D4
:100F700065206172655F616C6D6F73742066726568
:100F8000652E000054686174207761735F636C6F35
:100F900073652E204E6F775F6974277320746865C0
:100FA0005F656C657068616E7427735F7475726ECF
:100FB0002E0000417765736F6D652C5F776520614A
:100FC00072655F616C6D6F73742074686572652EF5
:100FD0005F4E6F7720686572655F4920636F6D654E
:100FE0002100004E696365215F49206469642069BE
:100FF00074215F4E6F7720666F725F746865206C36
:10100000696F6E215F4265206361726566756C2E43
:1010100000004E6F77207468655F70726574746944
:101020006573742C5F7374726F6E676573742C5F75
:1010300068616E64736F6D6573745F6D6F73742038
:101040006865726F69635F6F6620616C6C21000078
:10105000252525254A555354204B494444494E479C
:101060002125255F4F7572205A6F6F206469645F78
:101070006E6F74206861766520616E795F62756459
:10108000676574204C4F4C215F50656E6775696EC3
:101090002120796F755F676F206E6F77210000499F
:1010A000206B6E6F77215F596F75206469642069CA
:1010B000745F736E616B65202332206F665F233629
:1010C000353533352E20596F755F617265206E6539
:1010D00078745F736E616B652023332100004920B3
:1010E0006B6E6F77215F596F752064696420697436
:1010F0005F736E616B65202331206F665F23363529
:101100003533352E20596F755F617265206E6578B5
:10111000745F736E616B65202332210000252525E5
:10112000255453535321215F737373732E0000258D
:101130002525257473732E00004C65742773206772
:101140006F212C5F736E616B6520796F755F6172C3
:1011500065207468655F736D616C6C6573742C5F7A
:10116000796F7520676F5F66697273742E00005225
:10117000656D656D6265723A5F5765206861766579
:1011800020766572795F6665772062616E6461675B
:1011900065732C20736F5F646F206E6F74206765BA
:1011A000745F696E6A757265642E5F2525576520C8
:1011B000616C6C20686176655F746F206D616B6532
:1011C00020697421252525000045786163746C79B8
:1011D00021255F57652077696C6C207269736B5F9E
:1011E0006F7572206C6976657320746F5F63726FC0
:1011F0007373207468655F686967687761792061D7
:101200006E645F6265206672656525212521252152
:10121000250000747373737373737373735F2E2E6F
:101220002E2E7473732E2E2E20252525252525255B
:101230005F5F5F7373732E0000000000000000000A
:10124000000000000000000000000000000000009E
:10125000808080808080808080000000000000000E
:10126000000000000000000000000000000000007E
:10127000000000000000000000008078060201016C
:101280000000000000000030783101010302068CEC
:1012900048300000000000000000000000000000D6
:1012A000000000000000000080780740A054A864FF
:1012B0001A140A0C0A0C0A0C0404040C1E3A3261BB
:1012C00060606060A000000000000000FC04820E6E
:1012D0007CB22A32AA721A0681502AD5BACD8B5016
:1012E000902040808000000000000000000000000E
:1012F000000000000000000000000000010F3A554F
:101300006051615169302A351A070100000001015E
:1013100002020404081162823CC0000000000000C8
:1013200000000000000000000000000000000000BD
:1013300000000000000000000000000000000000AD
:101340000000000000000000010300000000000099
:1013500000000000000000000057656C6C2C207439
:1013600068655F7468696E672069735F746861742B
:101370002074686572655F69732061206A756E67A5
:101380006C655F7061737420746861745F6869670D
:10139000687761790000596561682C20776861740D
:1013A0005F61626F757420746861743F250000008E
:1013B00000000000000818648488102020202020ED
:1013C000201010509090908888042422544C8080E3
:1013D000000000000000000000000000000000000D
:1013E000000000000000000000FF000000000000FE
:1013F0000000000002050E070200000000000000CF
:10140000010122320404082830C00000000000005E
:10141000000000000000000000FF000000000000CD
:1014200080808080808080808080808040404040BC
:101430004040405048486818060100000000000085
:1014400000000000000000C07CA3000000000000BD
:10145000C03C03000000000000000000000000008D
:10146000000000000000000000000000000000007C
:101470000000000000807C0B150A05000000C03C45
:101480000300000000000000000000000000000059
:10149000000000000000000000000000000000004C
:1014A0000000008078AF50A00000008040FC0300E6
:1014B000000000000000000000000000000000002C
:1014C00000000000000000000000000000000025F7
:1014D000252525252548657920677579732C2520D4
:1014E000495F6775657373207765206172655F6119
:1014F0006C6C2061776172655F74686174206F75D0
:1015000072205A6F6F5F68616420746F5F636C6FE5
:1015100073652E2E2E0000416C6C20616E696D612A
:101520006C735F75736520615F72656374616E676C
:101530006C655F746F20636F6C6C6964655F647564
:101540006520746F5F6C617A7920636F64696E6780
:1015500000004D6F7665207468655F616E696D612E
:101560006C20746F5F746865206661725F72696772
:10157000687420736964655F746F2077696E00001A
:10158000596F752063616E206D6F76655F64696168
:10159000676F6E616C6C790000596F752063616EC6
:1015A0005F65646974207468655F736F75726365E5
:1015B00020636F64655F6966207468652067616D8C
:1015C000655F6765747320686172642E2E2E255FD7
:1015D000636865617465722100004D722E204D694B
:1015E000636F3A5F5F4C6574206D6520676976654F
:1015F0005F796F7520612068696E745F2E2E252ECD
:10160000252E252E0000547C68616E6B7320746F4C
:101610003A5F5F5068617261700000547C68616E6F
:101620006B7320746F3A5F5F4D617C727C69616E91
:101630007C615F53697C6D6F6E5F417264757C6223
:101640006F7920747C65616D5F4B4243616D70659D
:10165000720000576F726B696E675F7469746C65B6
:101660003A5F6261636B326A756E676C655F5F5685
:10167000657273696F6E20312E372E315F323031D3
:1016800037303532350000436F646520616E645F2A
:1016900067726170686963732062793A5F5F45724F
:1016A00077696E20526965645F6572777C697C6ECC
:1016B00040727C69657C642E7C636C5F77777C7795
:1016C0002E727C69657C642E636C252525250000BF
:1016D000FF0101F9F91919191919F9F90101FFFFA8
:1016E0007F999919190101E7E77979811F1F6767C8
:1016F000FFFF0101F9F91919191919F9F90101FF88
:10170000FFC0C0CFCFC8C8C8C8C8CFCFC0C0FFFFB8
:10171000C83737C0C0FEFE0909FEFEC73E3EC8C836
:10172000FFFFC0C0CFCFC8C8C8C8C8CFCFC0C0FF98
:10173000FF0000FCFC7373B333333C3C4C4C4C4C0B
:10174000834C4C30308F8FCCCCC0C0C380803C3CAD
:10175000CFCF0F0FF3F3C08080F3F3C3C30F0FFF9E
:10176000FF0000FFFF9898819E9E787866661E1E97
:10177000E7F8F8E0E0FFFF191967677FE1E1060687
:101780000101060661611FE7E71F1FE1E18686FF91
:10179000FF0303F3F33333333333F3F30303FFFF75
:1017A000C0CCCC00000F0FF3F3F0F0FF0C0C0000E6
:1017B0003F3F33333F3F0033333C3C3F3F3333FF06
:1017C000FF80809F9F98989898989F9F8080FFFFA8
:1017D00087FFFFFFFF9F9F84848080F8FCFC83834A
:1017E0009C9CE4E4E3E3E79C9CFBFBFCFC8080FF27
:1017F0004D722E204D69636F3A5F5F5468652068B3
:101800006967686573745F697320245F596F7572C7
:101810002063757272656E745F69732026004D7265
:101820002E204D69636F3A5F5F5468657265206969
:10183000735F6E6F20686967685F73636F72652E90
:101840000000000000000000000000000000000098
:1018500000000000008080808080808080C0404048
:101860002020B010181CB02040C080800000000074
:1018700000000000000000000000000000F0A8DCF4
:10188000AC542A5729552A542A15281528152011F1
:101890002051205020502071E0F1281F000000004E
:1018A0000000000000000000704E828EFFF5FAD1AB
:1018B000107C8282B2B28282827C1010107C828282
:1018C00082B2B282827C10D0FFFF1F0484F8000035
:1018D000000000000000000000000000010F1931AE
:1018E00060E0C0C0C0C08084848404040404048018
:1018F000808080C0602030180C06010100000000CC
:1019000000000000000000000000000000000000D7
:10191000008080C0E0F171FBFF5FBF5FBF7BFB7B9E
:10192000F1F1E18000000000000000000000000074
:1019300000003C1C1C1C3C3CF8F0E00000E0F8FE01
:101940003F0F0703F1F8EF55AA55AA55AAD5FF3C5A
:10195000008FFFFFF8000000000000000000000002
:1019600000006630B752216FABA473CE399D4EA7ED
:101970009DD371EEEC76BBDD6E97CE39E79C934A32
:101980003A27158E9C73CE39279554524925955484
:10199000761DFB76BB5DA743533A78322D15BEB654
:1019A0003BE79C736E1D655629A9F8B6FC5BA974CC
:1019B0003ABDB5133B67F74ADA11E59C4EA743D30E
:1019C000D6CEBB756E0CED643A95554EAED7E9F4A4
:1019D00076BBDD6EB75B55EAAA5C55AE7255B9CAE7
:1019E00055E52A5795AB5C555C155D32A66418C267
:1019F0009B924A2AA9A4C2D58EDA8E2AA9A4924A19
:101A00002A69D7E9B4548469E7A4D2E9F4D639E75E
:101A10009C73CE39E79C924AAAED76BBDDEE5C5A08
:101A200049259D934A2ABB55D239A94EFDAA9574E2
:101A30004E2ABBDDAE7A752B57C9CB55B6B2D9CA83
:101A4000662B9B53A5B6AAD4F672DB0B4BB9CB5DC4
:101A5000EE72CE3977B9CB5D643BE794DC5ECE396C
:101A600027C3FFCE6DB7DBA5CFB9ED76BBE3DFB9FA
:101A7000ED76BB225CC9743A9D56D2EEDCE449C2D5
:101A800027CD39A5A4924AAAE9722ED215673A4AFF
:101A9000E6542A954AA554584BA97452CD966EA582
:101AA000A492AA54FFA79C534A29A9E4763B1ED3CB
:101AB000D99D8B3DE7922B342925957393279592D9
:101AC00031A16825D3CEE97476BB73D32E9D934A9A
:101AD0003AE79C53CE39E7A25352492595545249CF
:101AE00025B7B36EB7E9743A34EDDC5449A564CE3A
:101AF0002D933BE7AC5432A9948C496DB7DFEA567D
:101B000037A773CE392595545239E79C73CE39E700
:101B10009C92D12AA9E476BBDD6EB7E9743A683AA3
:101B20001D560100C8903E00BD80000A903F00BDD8
:101B300080000A904000BD80000A9048017B800030
:101B400014904000BD80000A9048017B80001490F2
:101B50004000BD80000A904801C180015E904800AD
:101B6000BD80000A904A00BD80000A904B00BD80F5
:101B7000000A904C00BD80000A904800BD80000A19
:101B8000904A00BD80000A904C017B800014904771
:101B900000BD80000A904A017B800014904801B784
:101BA000800168903E00BD80000A903F00BD80002B
:101BB0000A904000BD80000A9048017B800014908C
:101BC0004000BD80000A9048017B800014904000D6
:101BD000BD80000A9048914801B7808100A09045DF
:101BE00000BD80000A904300BD80000A904200BD05
:101BF00080000A904500BD80000A904800BD80002A
:101C00000A904C017B800014904A00BD80000A902D
:101C10004800BD80000A904500BD80000A904A013E
:101C2000C18000FA903E00BD80000A903F00BD8058
:101C3000000A904000BD80000A9048017B8000149B
:101C4000904000BD80000A9048017B8000149040C5
:101C500000BD80000A904801C1800096904800BDF8
:101C600080000A904A00BD80000A904B00BD8000B1
:101C70000A904C00BD80000A904800BD80000A9088
:101C80004A00BD80000A904C018580000A90470000
:101C9000BD80000A904A017B800014904801C180F9
:101CA00000FA904800C8914A005980006E904C009C
:101CB0005981006E9148005980006E904A00598108
:101CC000006E914C00598001369048004F81007899
:101CD000914A005980006E9048005981006E914CE5
:101CE000005980006E9048005981006E914A005959
:101CF00080006E904C00598101369148004F800061
:101D000078904A005981006E9148005980006E9089
:101D10004C005981006E9148005980006E904A0035
:101D20005981006E914C00598001369047004F81D7
:101D30000078914A00598001369048004F81024E48
:101D400080F0903F9142923F0096904091439240A4
:101D50000096904191449241009690429145924262
:101D60000096904691469243934394439543009640
:101D70009042914592428384850096904391469289
:101D80004300969044914792440096904391469226
:101D90004300969044914792440096904591489212
:101DA000450096808182012C9051914F0096808150
:101DB000F04361726566756C21255F5765206F6E13
:101DC0006C795F686176652061206665775F626126
:101DD0006E64616765735F66726F6D207468655FBE
:101DE0005A6F6F27732066697273745F616964202C
:101DF0006B697400004F68206E6F2120736F6D65F2
:101E00005F6F66206F757220646561725F667269CC
:101E1000656E64732077696C6C5F6265207374759E
:101E2000636B20696E5F746865205A6F6F5F25462B
:101E3000254F25522545255625452552252E252E4B
:101E4000252E25000000000000000000000000809A
:101E50008080C0F0F8F8F87838383C3C1C1C1C1C1A
:101E60001C1C1C1C1C1C1C383838383878F8F8F03E
:101E7000C0000000000000000000000000001C1373
:101E800020237FFFFFFF0100000C0E0440C0C0C0F4
:101E9000C0C0C0C0C0C0400C0E040000E0FFFFFF87
:101EA0004741213E0000F0FCFE3E0F0707070F0FE1
:101EB000FEFCF803070F1E3C3870707070F0F0F0F5
:101EC000F0F0F0F0F0F0707078381C0C0F070301A0
:101ED000000000000000037FFFF8C0870F0E0E0F08
:101EE0000FC7E36040C0C0E0E0F0783CDC7EBF5745
:101EF000AF57AF5EFE1E3CFCF8E020E08000000023
:101F00000000000000000000000103070F0E1E1E6D
:101F10009C3DE7FCFFFF1F17133FFC7E7B55EAD576
:101F2000EAD56A753F0F82E3FFFF3E83F1E0800050
:101F300000000000000000000000000000000001A0
:101F40000100033F3F3F3C1C0C0400000000000068
:101F5000000C1E1E3C3E1F0F030100010101010089
:101F60000000000000902D02EE913902EA8100038A
:101F7000913C02EA810003914008C68081000390F1
:101F80002802EE913702EA810003913B02EA8100C8
:101F900003914008C680810003902902EE91390226
:101FA000EA810003913C02EA810003914008C68067
:101FB000810003902B02EE913702EA810003913BEE
:101FC00002EA810003913E02EA810003914305D8B1
:101FD0008081F07F7F41556B3E1C087F7F437543B6
:101FE0003E1C08E01050088834DC7AEEB1C551413F
:101FF000233C00030404040202010100000000006D
:1020000000904D915600958081012C904D91560085
:102010009580810000904D91560095808100009040
:102020004C9154009580810000904E915601C180E2
:1020300081F000FA904603E6800001903F03E680BD
:102040000001904506D48000019046007B8000018D
:102050009048007B8000019046014C800001904335
:10206000014C800001903F014C800001904502EC42
:102070008000019046007B8000019048007B80003A
:1020800001904601F2800001904101F28000019030
:102090004601F2800001904D01F2800001904D0355
:1020A000E6800001904C02EC800001904A007B80A9
:1020B0000001904C007B800001904D08C880000119
:1020C000904800EC80000D90480075800007904A11
:1020D0000075800007904B00EC80000D904800ECEC
:1020E00080000D904E01D980001A904F01D98000D8
:1020F0001A905000EC80000D904F00EC80000D9085
:102100004D00EC80000D904A00EC80000D904F00D7
:10211000EC80000D904D00EC80000D904B00EC80A9
:10212000000D904A00EC80000D904800EC80000DFE
:1021300090480075800007904A0075800007904B1A
:1021400000EC80000D904800EC80000D904E01D90D
:1021500080001A904F01D980001A904900EC80004D
:102160000D905000EC80000D904F00EC80000D9021
:102170004700EC80000D904800EC80000D904F006F
:10218000EC80000D904801D980001A903C914800E5
:10219000EC8081000D903C91480075808100079093
:1021A0003E914A007580810007903F914B00EC8082
:1021B00081000D903C914800EC8081000D9042918F
:1021C0004E01D98081001A9043914F01D98081003E
:1021D0001A9044915000EC8081000D9043914F0083
:1021E000EC8081000D9041914D00EC8081000D90BC
:1021F0003E914A00EC8081000D9043914F00EC80AD
:1022000081000D9041914D00EC8081000D904B912B
:102210003F00EC8081000D904A913E00EC808100EF
:102220000D9048913C00EC8081000D9048913C005D
:102230007580810007904A913E007580810007906B
:102240004B913F00EC8081000D9048913C00EC8068
:1022500081000D904E914201D98081001A904F91DA
:102260004301D98081001A9049913D00EC808100A2
:102270000D9050914400EC8081000D904F914300EF
:10228000EC8081000D9047913B00EC8081000D9027
:1022900048913C00EC8081000D904F914300EC8010
:1022A00081000D9048913C01D98081001A90500224
:1022B00099800001904F00A5800001904D00A580FD
:1022C0000001904F014C800001904D014C800001B5
:1022D000904B014C800001904D05DA800001905236
:1022E00001F280000190500299800001904F00A5FA
:1022F000800001904D00A5800001904F014C8000AE
:1023000001904D014C800001904B014C80000190E8
:102310004D02EC8000FB9041014C8000019048018F
:102320004C800001904A014C800001904B02998042
:102330000001904F014C80000190520299800001F1
:102340009054014C8000019055014C800001904D4B
:10235000014C8000019050014C8000019054014CD0
:10236000800001904B014C8000019050014C800096
:102370000190500299800001904E00A580000190CC
:102380004D00A5800001904D07CE80F001020408A9
:102390001020408000000000003E5B4F5B3E3E6B23
:1023A0004F6B3E1C3E7C3E1C183C7E3C181C577DEF
:1023B000571C1C5E7F5E1C00183C1800FFE7C3E73B
:1023C000FF0018241800FFE7DBE7FF30483A060E4D
:1023D0002629792926407F050507407F05253F5A94
:1023E0003CE73C5A7F3E1C1C08081C1C3E7F142204
:1023F0007F22145F5F005F5F06097F017F006689AF
:10240000956A606060606094A2FFA29408047E04F4
:102410000810207E201008082A1C08081C2A08081A
:102420001E101010100C1E0C1E0C30383E383006DA
:102430000E3E0E06000000000000005F00000007D6
:10244000000700147F147F14242A7F2A1223130804
:10245000646236495620500008070300001C2241E0
:10246000000041221C002A1C7F1C2A08083E080884
:102470000080703000080808080800006060002034
:10248000100804023E5149453E00427F4000724917
:102490004949462141494D331814127F10274545BB
:1024A00045393C4A494931412111090736494949D1
:1024B00036464949291E000014000000403400003F
:1024C00000081422411414141414004122140802A8
:1024D000015909063E415D594E7C1211127C7F491B
:1024E0004949363E414141227F4141413E7F494970
:1024F00049417F090909013E414151737F0808089C
:102500007F00417F41002040413F017F081422416C
:102510007F404040407F021C027F7F0408107F3EC6
:102520004141413E7F090909063E4151215E7F0933
:10253000192946264949493203017F01033F40409A
:10254000403F1F2040201F3F4038403F6314081485
:102550006303047804036159494D43007F414141BD
:102560000204081020004141417F0402010204409E
:1025700040404040000307080020545478407F2822
:102580004444383844444428384444287F38545418
:10259000541800087E090218A4A49C787F0804043B
:1025A0007800447D40002040403D007F10284400DA
:1025B00000417F40007C047804787C08040478386B
:1025C00044444438FC1824241818242418FC7C089B
:1025D000040408485454542404043F44243C404018
:1025E000207C1C2040201C3C4030403C44281028CB
:1025F000444C9090907C4464544C44000836410014
:102600000000770000004136080002010204023C8D
:102610002623263C1EA1A161123A4040207A38545C
:1026200054555921555579412154547841215554D7
:10263000784020545579400C1E5272123955555528
:1026400059395454545939555454580000457C4113
:102650000002457D420001457C40F0292429F0F02C
:10266000282528F07C545545002054547C547C0A7D
:10267000097F4932494949323248484832324A484A
:1026800048303A4141217A3A42402078009DA0A04A
:102690007D39444444393D4040403D3C24FF24249E
:1026A000487E4943662B2FFC2F2BFF0929F620C0BB
:1026B000887E090320545479410000447D4130480C
:1026C000484A32384040227A007A0A0A727D0D194F
:1026D000317D2629292F28262929292630484D40B1
:1026E00020380808080808080808382F10C8ACBAAD
:1026F0002F102834FA00007B000008142A1422222C
:10270000142A14089500220095AA005500AAAA557B
:10271000AA55AA000000FF00101010FF00141414A6
:10272000FF001010FF00FF1010F010F0141414FC44
:10273000001414F700FF0000FF00FF1414F404FC61
:10274000141417101F10101F101F1414141F001042
:102750001010F0000000001F101010101F101010BB
:1027600010F010000000FF101010101010101010CA
:10277000FF10000000FF140000FF00FF00001F100A
:10278000170000FC04F414141710171414F404F4C4
:102790000000FF00F714141414141414F700F714B5
:1027A0001414171410101F101F141414F414101004
:1027B000F010F000001F101F0000001F14000000A8
:1027C000FC140000F010F01010FF10FF141414FFA0
:1027D000141010101F00000000F010FFFFFFFFFF9B
:1027E000F0F0F0F0F0FFFFFF0000000000FFFF0F2F
:1027F0000F0F0F0F38444438447C2A2A3E147E02BF
:10280000020606027E027E02635549416338444453
:102810003C04407E201E2006027E020299A5E7A508
:10282000991C2A492A1C4C7201724C304A4D4D3079
:102830003048784830BC625A463D3E494949007E9E
:102840000101017E2A2A2A2A2A44445F4444405135
:102850004A444040444A51400000FF0103E080FFE9
:10286000000008086B6B083612362436060F090F75
:1028700006000018180000001010003040FF010191
:10288000001F01011E00191D1712003C3C3C3C00BA
:102890000000000000000000240027002A002D0096
:1028A000300000000000250028002B002E00310021
:1028B000040802011040804010204080408008023F
:1028C00004018040201002011080102040402004AC
:1028D00004040404030405020202020403020202C7
:1028E00002060606060606040402020204040601A5
:1028F0001501260137014A015D01720188019F011E
:10290000B801D201EE010B022A024B026E029302C1
:10291000BA02E40210033F037003A403DC031704AC
:1029200055049704DD0427057505C80520067D06B6
:10293000E0064907B8072D08A9082D09B9094D0A6D
:10294000EA0A900B400CFA0CC00D910E6F0F5A1052
:1029500053115B1272139A14D41520178018F519AD
:10296000801B231DDE1EB420A622B524E4263429B4
:10297000A72B402E0031EA330037453ABC3D684171
:102980004C456B49C84D68524F57805C006210112E
:102990001213151617181A1C1D1F21232527292C61
:1029A0002E3134373A3E4145494E52575C62686E8B
:1029B000757B838B939CA5AFB9C4D0DCE9F7080B7A
:1029C00000020202010009040000010202000005E9
:1029D0002400100105240101010424020605240637
:1029E00000010705810310004009040100020A00EC
:1029F00000000705020240000007058302400000B6
:102A00000403090412010002EF0201404123368051
:102A100000010102030141726475696E6F204C4C24
:102A2000430041726475696E6F204C656F6E617210
:102A3000646F0000033311241FBECFEFDAE0DEBF66
:102A4000CDBF12E0A0E0B1E0ECE2FDE602C00590EF
:102A50000D92A035B107D9F727E0A0E5B2E001C09B
:102A60001D92AE35B207E1F715E1CBE1D5E104C027
:102A70002197FE010E948936CA31D107C9F70E9409
:102A80008C250C9494360C940000CF92DF92EF9238
:102A9000FF920F931F93CF93DF936C017A018B0109
:102AA000C0E0D0E0CE15DF0589F0D8016D918D0131
:102AB000D601ED91FC910190F081E02DC6010995C0
:102AC000892B11F47E0102C02196ECCFC701DF9162
:102AD000CF911F910F91FF90EF90DF90CF900895CD
:102AE000CF92DF92EF92FF921F93CF93DF93E82F65
:102AF000F0E0EE54FE4F1081E62FF0E0603330F44A
:102B0000E257F64DE491CE2FD0E006C0EE0FFF1F46
:102B1000E257F74DC591D4916E01E12CF12C60E0A4
:102B200074E284EF90E0A70196010E94F633DA0187
:102B3000C9010197A109B109009721E0A207B105D8
:102B400078F060E970ED83E090E0A70196010E94C3
:102B5000F633DA01C9010197A109B10923E001C0E7
:102B600021E01130C9F0133051F530919100387FD8
:102B7000232B209391009093990080939800D093F9
:102B8000B802C093B70281E08093B60280917100D1
:102B900082608093710013C03091D30631110FC051
:102BA00030918100387F232B2093810090938900FE
:102BB0008093880080916F00826080936F00DF9126
:102BC000CF911F91FF90EF90DF90CF90089580916B
:102BD0005102089508950E948F363FB7F89480916E
:102BE000BE029091BF02A091C002B091C10226B571
:102BF000A89B05C02F3F19F00196A11DB11D3FBF35
:102C0000BA2FA92F982F8827820F911DA11DB11DC2
:102C1000BC01CD0142E0660F771F881F991F4A95BE
:102C2000D1F708958F929F92AF92BF92CF92DF9289
:102C3000EF92FF926B017C010E94ED154B015C014C
:102C4000C114D104E104F104F1F00E94ED15DC019E
:102C5000CB0188199909AA09BB09883E9340A105AF
:102C6000B10570F321E0C21AD108E108F10888EE3D
:102C7000880E83E0981EA11CB11CC114D104E1048C
:102C8000F10419F7DDCFFF90EF90DF90CF90BF9068
:102C9000AF909F908F9008952FB7F8946091BA02EB
:102CA0007091BB028091BC029091BD022FBF08952C
:102CB0001F920F920FB60F9211242F933F938F9371
:102CC0009F93AF93BF938091BA029091BB02A09162
:102CD000BC02B091BD023091B90223E0230F2D3721
:102CE00020F40196A11DB11D05C026E8230F029610
:102CF000A11DB11D2093B9028093BA029093BB022B
:102D0000A093BC02B093BD028091BE029091BF021D
:102D1000A091C002B091C1020196A11DB11D809386
:102D2000BE029093BF02A093C002B093C102BF91B4
:102D3000AF919F918F913F912F910F900FBE0F9068
:102D40001F9018951F920F920FB60F9211242F9378
:102D50003F938F939F93AF93BF93EF93FF93809194
:102D6000D306882309F44FC08091CE069091CF06F8
:102D7000A091D006B091D106892B8A2B8B2B51F1D3
:102D80008091AD02E091AB02F091AC029081892775
:102D900080838091CE069091CF06A091D006B0910D
:102DA000D106181619061A061B06D4F58091CE0610
:102DB0009091CF06A091D006B091D1060197A109BC
:102DC000B1098093CE069093CF06A093D006B0931E
:102DD000D10626C01092D2061092D30680916F00C1
:102DE0008D7F80936F009091AD02E091AB02F091E6
:102DF000AC028081282F30E0892F90E0809590955B
:102E0000822393230CC08091B502811109C0809167
:102E1000AD02E091AB02F091AC02908189278083F2
:102E2000FF91EF91BF91AF919F918F913F912F9122
:102E30000F900FBE0F901F901895E82FF0E0EE5402
:102E4000FE4F8081813019F0833089F008958091A0
:102E5000D306811122C080916F008D7F80936F0017
:102E60009091AD02E091AB02F091AC020CC01092D7
:102E7000B6028091D206811110C09091B402E09107
:102E8000B202F091B3028081282F30E0892F90E0C8
:102E9000809590958223932380830895CF93DF9329
:102EA000D1E0E091D606F091D7069F012F5F3F4F0A
:102EB0003093D7062093D6068491982F907FC82F01
:102EC000CF70903821F48C2F0E941D17EACF9039D3
:102ED000F9F4E091DA06F091DB0609958D278093ED
:102EE000B502E091D606F091D706CF0101969093F6
:102EF000D7068093D60664918091D406C81788F6C9
:102F0000C13009F052C08091AA028111CACF4DC0D0
:102F100097FD3AC03296F093D706E093D606F901B2
:102F2000249130E0382BA091B702B091B8020E94F2
:102F30004A346C507E4F8F4F9F4F28EE33E040E075
:102F400050E00E9428342093AE023093AF024093A9
:102F5000B0025093B1028091AE029091AF02A09165
:102F6000B002B091B102892B8A2B8B2B21F581E025
:102F700090E0A0E0B0E08093AE029093AF02A09307
:102F8000B002B093B10217C0903E49F48091D806C8
:102F90009091D9069093D7068093D60682CF903F22
:102FA00009F07FCF1092D50606C067FD7ACF8C2F2F
:102FB0000E94701576CFDF91CF9108951F920F92E6
:102FC0000FB60F9211242F933F934F935F936F93FC
:102FD0007F938F939F93AF93BF93EF93FF938091D2
:102FE000B602882341F08091D206811104C08091FD
:102FF000B502882351F18091D506882381F1809113
:10300000AE029091AF02A091B002B091B102892BB3
:103010008A2B8B2B21F18091AE029091AF02A0916F
:10302000B002B091B1020197A109B1098093AE023B
:103030009093AF02A093B002B093B102892B8A2B78
:103040008B2B69F40E944E170AC08091B402E09164
:10305000B202F091B302908189278083CCCFFF9197
:10306000EF91BF91AF919F918F917F916F915F9100
:103070004F913F912F910F900FBE0F901F90189579
:103080009091D406923009F471C0292F30E0F901F3
:10309000EE54FE4F4081F901E855FD4F8083913099
:1030A00031F42091A802281302C09093AA029F5FD6
:1030B0009093D40690E0FC01E153F74D2491FC017C
:1030C000E055F74D849130E0220F331FF901EE55A2
:1030D000F74D65917491F901EC56F74DA591B491B6
:1030E0009C91982B9C93413019F04330D9F008956E
:1030F00090916400977F90936400109280001092EA
:10310000810090918100986090938100909181005E
:103110009160909381007093AC026093AB028093B6
:10312000AD02089590916500977F9093650010928D
:10313000900010929100909191009860909391006E
:10314000909191009160909391007093B30260937D
:10315000B2028093B4028091D406882321F06CE3FC
:1031600080E00E94701580E00C941D1708952D9A40
:103170000895BC0180E090E00C9412168FB12CB140
:1031800093B130E02095309520743327A90123E0D6
:10319000559547952A95E1F7292F30E020953095F0
:1031A000207133273595279535952795242B8095C4
:1031B000807F822B089583B7817F83BF83B781602F
:1031C00083BF889583B78E7F83BF08958EBD00002F
:1031D0000DB407FEFDCF08955C980E94E6185C9A36
:1031E0000895109251023E983F9808953E9A3F9A52
:1031F00081E08093510208958091CE028EBDEFEC64
:10320000F2E081910DB407FEFDCF8EBD86E0EE3C6D
:10321000F807B9F70DB407FEFDCF0895CF92DF92FE
:10322000EF92FF920F931F93CF93DF93DC01C09037
:10323000CA02D090CB024091CC025091CD02E091D5
:10324000C602F091C7022091C8023091C90260E025
:1032500070E080E090E001E010E06A177B0704F581
:103260002115C1E03C0749F4F601E40FF51FE49194
:10327000F0E04F5F5F4F21E030E07F01E222F32278
:10328000EF2849F07801062E02C0EE0CFF1C0A94CC
:10329000E2F78E0D9F1D220F331F6F5F7F4FDDCF33
:1032A0003093C9022093C8025093CD024093CC02C0
:1032B000F093C702E093C602DF91CF911F910F9167
:1032C000FF90EF90DF90CF9008952F923F924F9212
:1032D0005F926F927F928F929F92AF92BF92CF92A6
:1032E000DF92EF92FF920F931F93CF93DF93CDB7AF
:1032F000DEB72D970FB6F894DEBF0FBECDBFED82BF
:10330000E22EF12C9C012E0D3F1D37FD32C180387D
:1033100091050CF02EC19B01200F311D37FD29C1F5
:10332000603471050CF025C1DB0177FF04C0AA27CA
:10333000BB27A61BB70BA770BB279B0177FF02C05B
:10334000295F3F4F13E0359527951A95E1F777FFF1
:1033500008C02150310968E070E0FB01EA1BFB0B5B
:10336000DF01E02FE695E695E695CE2ED12C07708D
:1033700019F0FFEFCF1ADF0AB9017695762F66278D
:1033800077956795680F791F62537D4F8601020F0D
:10339000131F19870887C12CD12CF8E0AF2EB12C50
:1033A00085010A1B1B0B1F830E83088519852017B7
:1033B000310709F4DEC02830310509F4DAC02F3FA7
:1033C0001FEF31070CF4CAC08B0100581F4F1D8737
:1033D0000C874B013B012B011C011C830B831A83BF
:1033E00009831B861A860A851B850E151F050CF09E
:1033F000B5C010E82116310409F4B0C037FC89C00B
:103400002F3FEFEF3E0709F4B0C00A851B850C0D76
:103410001D1DFD81F13079F4F801E40FF51FE491F1
:10342000F0E08F010A2E01C0000F0A94EAF7F301C1
:10343000B0800B2925C0FD81F11114C0F801E40F03
:10344000F51FE491F0E00A2E02C0EE0FFF1F0A9470
:10345000E2F78F0100951095F401A080B12C0A21AC
:103460001B210EC0F801E40FF51FE491F0E08F017D
:103470000A2E01C0000F0A94EAF7F201B0800B2572
:103480000083109709F445C02730310509F441C085
:103490000A851B850C0D1D1DFD81F13089F4F80195
:1034A000E40FF51FE4910E2F10E00E8002C0159579
:1034B00007950A94E2F7EC85FD85B0800B2928C0BA
:1034C000FD81F11115C0F801E40FF51FE4910E2FF5
:1034D00010E00E8002C0159507950A94E2F700955A
:1034E0001095E981FA81A080B12C0A211B2110C01E
:1034F000F801E40FF51FE4910E2F10E00E8002C0DA
:10350000159507950A94E2F7EB81FC81B0800B25B5
:1035100000830A851B850F5F1F4F1B870A870C8559
:103520001D850F5F1F4F1D870C8709811A810F5F53
:103530001F4F1A8309830B811C810F5F1F4F1C8350
:103540000B831FEF211A310AEFEF4E1A5E0AFFEFCD
:103550006F1A7F0A0FEF801A900A45CF2F5F3F4FF7
:1035600060587F4FCE0CDF1C20CF109709F090CF12
:10357000D0CF2D960FB6F894DEBF0FBECDBFDF9132
:10358000CF911F910F91FF90EF90DF90CF90BF9060
:10359000AF909F908F907F906F905F904F903F90F3
:1035A0002F90089560387105D0F440345105B8F477
:1035B000ECE8F3E280E1849FD001A0781124A60F0B
:1035C0004770E40FF11DE491A253BD4F222319F07F
:1035D0004C91E42B03C0E0954C91E423EC930895C7
:1035E0002F923F924F925F926F927F928F929F9213
:1035F000AF92BF92CF92DF92EF92FF920F931F9301
:10360000CF93DF93CDB7DEB729970FB6F894DEBF1F
:103610000FBECDBFFC016A3069F4248D808D918D81
:1036200038E0239F800D911D1124918F808F178A80
:10363000168AAAC06D3009F4A7C099878887F48CD0
:10364000338C228C608C718C0689178900381105A7
:10365000C4F0A885B9855C962C915C97422F50E008
:1036600056968D919C915797B6E02B9F800D911D9A
:103670001124E885F985978B868B258D21116EC0E5
:1036800083C0F0E46F16710424F7C80125E0F29EB0
:10369000800D911D112418161906DCF68F2D90E06F
:1036A0009C838B83C301A8E0FA9E800D911D112499
:1036B0001816190674F6B5E06B9FB0011124FB01D2
:1036C000EC56FC4DFA83E98330E0888599850496B1
:1036D0009E838D83E981FA81E490353009F4E12CF1
:1036E000430188E0482EE0FC02C0532C01C0522C5C
:1036F00051100BC0321009C0E6944A948B819C8112
:10370000880E991E4110EFCF1BC068018C2D801BC5
:103710008F1590F754018A2D88198F1568F4252D7F
:10372000A501B6018D819E813F830E94D21A9FEF31
:10373000A91AB90A3F81EFCFAFEFCA1ADA0AE6CF6A
:103740003F5FEB81FC810E0F1F1F89819A810196DB
:103750009A838983363009F0BDCF7BCF6AEF64034B
:103760009001659F300D112420583F4F28173907CD
:103770005CF4A885B985ED91FC9111970190F081D9
:10378000E02D6AE0CD01099581E090E029960FB621
:10379000F894DEBF0FBECDBFDF91CF911F910F9187
:1037A000FF90EF90DF90CF90BF90AF909F908F9061
:1037B0007F906F905F904F903F902F9008950F9360
:1037C0001F93CF93DF93EC018B01FB0160810E947B
:1037D000E833F8016181CE0101960E94E83382E06E
:1037E00090E0DF91CF911F910F9108950F931F9358
:1037F000CF93DF938C01EB010E94E0338883C801F3
:1038000001960E94E033898382E090E0DF91CF91BE
:103810001F910F9108958091D506811104C082E314
:1038200090E20C948C1E08950E949A1E87EA0E94D2
:10383000EC180E949A1E81E090E20E948C1E84EA9D
:1038400096E00E94B91886EA0C94EC184F925F92A9
:103850006F927F928F929F92AF92BF92CF92DF92A0
:10386000EF92FF920F931F93CF93DF931F92CDB7E9
:10387000DEB75C013B0149830E94E11F4981411190
:1038800004C048E0C42ED12C1FC010E0812F90E06E
:1038900020910201022E000C330B8217930794F43F
:1038A00034E0880F991F3A95E1F7EE24E3940BE09A
:1038B0002FE043EE5FE165E370E002960E94651938
:1038C0001F5FE4CFC12CD12C86010F5F1F4FC801B1
:1038D0000E94B31FC601C2960E94B31F460183E334
:1038E000880E911C280117FF02C0412C512C820127
:1038F0007401E1E48E1691041CF020E4E22EF12C18
:103900000E151F055CF421E0A80160E070E081EE77
:1039100096E00E94D21A0F5F1F4FEACF21E0A2016A
:1039200061E370E081EE96E00E94D21AFFEF4F1A39
:103930005F0A4E145F0491F7EE24E39400E320E362
:10394000A501B6016E5F7F4F81E090E00E9465198E
:1039500084E390E09093F4068093F306D092F60609
:10396000C092F5068301A12CBB24B39494E3E92E05
:10397000F12CF80184918532F1F04CF4803229F178
:10398000843239F1811140C08EEFA82E73C08F357B
:1039900031F08C3709F46EC08632B1F521C0F9E000
:1039A000CF0ED11CF092F406E092F306D092F60608
:1039B000C092F5065FC081EE96E00E94FC18BB2025
:1039C00009F44EC088EC90E053C080E20E94351F9D
:1039D00051C080915202909153020E94401F0DC02D
:1039E00080915402909155020E94401F8091540290
:1039F0009091550218161906ECF581EE96E00E949A
:103A0000FC180E94141C36C00E94351FB1100DC056
:103A100080915002882371F0809104018F3F51F012
:103A200041E050E060E070E009C044E150E060E057
:103A300070E004C04AE050E060E070E084E893E0A9
:103A40000E94A91E81EE96E00E94FC18B1100BC0E6
:103A500080915002882351F0809104018F3F31F012
:103A600081E090E005C084E690E002C08CE090E048
:103A70000E94B9180E94BE1882FDB12CA3940F5F5A
:103A80001F4F8FEFA81275CF81EE96E00E94FC18B1
:103A9000B1100BC080915002882351F08091040135
:103AA0008F3F31F08AE090E005C08CED95E002C0D8
:103AB0008CE291E00E94B9180E94BE1882FDFCCFF2
:103AC0000F90DF91CF911F910F91FF90EF90DF90BA
:103AD000CF90BF90AF909F908F907F906F905F90AE
:103AE0004F900895EF920F93CF93DF93D82FC62F67
:103AF000842F611103C043ED5FE102C04BED5FE134
:103B000060E470E0681B7109EE24E39407E028E0AC
:103B100088E790E00E94651981EE96E00E94FC180B
:103B2000DD23F9F0C11102C0D4E001C0D8E00E9449
:103B3000BE188D238D17B1F3C11102C0D4E001C0AE
:103B4000D8E00E94BE188D23B9F3C11102C0D4E0A1
:103B500001C0D8E00E94BE188D238D17B1F381E01B
:103B60000CC0C11102C0C4E001C0C8E00E94BE1870
:103B7000982F9C2381E09C1380E0DF91CF910F91DF
:103B8000EF900895CF93DF931F92CDB7DEB769838F
:103B9000DC01ED91FC910280F381E02D41E050E0E9
:103BA000BE016F5F7F4F09950F90DF91CF91089510
:103BB00083E08093E9008091F200882319F08AE382
:103BC0008093E8000895009769F0FC0101900020BF
:103BD000E9F73197AF01481B590BBC018DED96E019
:103BE0000C94451580E090E008957F928F929F920B
:103BF000AF92BF92CF92DF92EF92FF920F931F93FB
:103C0000CF93DF936C015B017A0180910C018823D3
:103C100009F46BC08091C502882309F466C08091C5
:103C2000C30280FF05C08091E00082608093E000C5
:103C3000E70110E00AEF83E0982E90E4792E2AE362
:103C4000822E209709F448C08FB7F8949092E9002B
:103C50009091E80095FF06C09091F200272D291B56
:103C6000922F01C090E08FBF91110AC0015009F45A
:103C70003CC061E070E080E090E00E941216E1CF6D
:103C8000292F30E0C217D3070CF49C2F8FB7F8947C
:103C90009092E9002091E80025FF1CC0292F30E018
:103CA000C21BD30BF501915020F041914093F100DC
:103CB000FACFA20EB31E112319F08092E80009C0BA
:103CC0009091E80095FD06C08092E80011E02097F1
:103CD00009F010E08FBFB5CF1111B6CF5D9884E623
:103CE0008093C2021E141F0444F081E090E0F601AC
:103CF0009383828380E090E001C0C701DF91CF9180
:103D00001F910F91FF90EF90DF90CF90BF90AF90F9
:103D10009F908F907F9008959093D9068093D806B6
:103D20009093D7068093D6060E944E1781E0809329
:103D3000D5060895CF93C0E08091D406C81728F423
:103D40008C2F0E941D17CF5FF7CF1092D506CF9111
:103D500008954F925F926F927F928F929F92AF924F
:103D6000BF92CF92DF92EF92FF92CF93DF93EC015D
:103D70004A015B01E091DA06F091DB0609958823A0
:103D800009F464C08091D406823008F45FC081E0F9
:103D90008093D306809107078093D2062E01612C71
:103DA000712C60E072E18AE790E0A30192010E9429
:103DB000F63369017A0181E0C81AD108E108F108F7
:103DC000C114D10481E0E806F104F0F168E478EE72
:103DD00081E090E0A30192010E94F63369017A012B
:103DE00081E0C81AD108E108F10883E090918100D0
:103DF000987F982B9093810081149104A104B104C1
:103E000071F0DE01AA0FBB1FA50194010E941534B9
:103E100028EE33E040E050E00E94283403C02FEF4A
:103E20003FEFA901D0928900C09288002093CE066E
:103E30003093CF064093D0065093D10680916F0007
:103E4000826080936F0002C081E0D0CFDF91CF917C
:103E5000FF90EF90DF90CF90BF90AF909F908F90AA
:103E60007F906F905F904F900895E091DD06F09104
:103E7000DE060190F081E02D682F8DED96E009942B
:103E80008F929F92AF92BF92CF92DF92EF92FF926A
:103E90000F931F93CF93DF93CDB7DEB7A1970FB6E4
:103EA000F894DEBF0FBECDBF6C01990FEE08FF087E
:103EB000F7FE29C08DE20E94351F8C01222733278F
:103EC000A9012C193D094E095F0919A2CE0181965D
:103ED0007C019AE0892E912CA12CB12CCA01B90148
:103EE000A50194010E942834605DF70162937F016F
:103EF000211531054105510589F7CF010E94E31DC8
:103F0000800F911F1DC0A701960119A28E010F5DA0
:103F10001F4F8AE0C82ED12CE12CF12CCA01B90127
:103F2000A70196010E942834605DF80162938F0119
:103F3000211531054105510589F7CF010E94E31D87
:103F4000A1960FB6F894DEBF0FBECDBFDF91CF9123
:103F50001F910F91FF90EF90DF90CF90BF90AF90A7
:103F60009F908F900895AC014770552721E001C0C4
:103F7000220F4A95EAF797FD0796FC0183E0F59535
:103F8000E7958A95E1F7F695FE2FEE27F795E795E9
:103F9000E253FD4F83E3815021F09081922B919366
:103FA000FACF089520E08EEC92E0B22FB111BFEF6E
:103FB000FC010024B193B193B193B1930394D1F771
:103FC00008950E94D21FEDEDF6E0118E108E178A33
:103FD000168A08950C94E31D5F926F927F928F92E0
:103FE0009F92AF92BF92CF92DF92EF92FF920F9388
:103FF0001F93CF93DF93EC018B017A01A901461B3C
:10400000570B57FF03C0519541955109C7018C1BB0
:104010009D0B97FF03C09195819591095524539469
:104020008417950714F0512C0AC09E2D8F2D79010D
:10403000292F382F9C2F8D2FE801092F182FEC16D0
:10404000FD0654F4902F812F8901292F382F9C2FA2
:104050008D2FE701E92EF82E37016C1A7D0A5901E0
:10406000A01AB10AB7FE03C0B194A194B1086301CC
:1040700077FE03C08FEFC81AD80AD594C7940217E9
:10408000130714F08FEF01C081E0882E880F990884
:10409000EC16FD06B4F021E0552019F0AE01B80190
:1040A00002C0A801BE0181EE96E00E94D21ACA1891
:1040B000DB08D7FE04C0080D191DC60CD71C2196BD
:1040C000E7CFDF91CF911F910F91FF90EF90DF909D
:1040D000CF90BF90AF909F908F907F906F905F90A8
:1040E00008952F923F924F925F926F927F928F929C
:1040F0009F92AF92BF92CF92DF92EF92FF920F9377
:104100001F93CF93DF93CDB7DEB728970FB6F89400
:10411000DEBF0FBECDBF6C017B015093CB0240933D
:10412000CA0280E091E09093C9028093C802109285
:10413000C7021092C6021092CD021092CC0288E003
:1041400090E00E940E1901969C838B8388E090E09A
:104150000E940E198C0181E090E00E940E194C0122
:104160008B819C818C0D9D1D97FDEDC020E8C216B2
:10417000D1040CF0E8C0C80101969701280F391F3F
:1041800037FDE1C030E4E316F1040CF0DCC0870138
:10419000F7FE04C0002711270E191F090770112709
:1041A0009701F7FE02C0295F3F4FA90133E0559503
:1041B00047953A95E1F75A834983F7FE0AC0415083
:1041C00051095A83498328E030E0D901A01BB10B83
:1041D0008D011C0197FF03C0B7E02B0E311C23E0BB
:1041E000359427942A95E1F787709927892B19F040
:1041F000EFEF2E1A3E0A66246394712C18861F82F4
:10420000E12CF12CA12CB12C88E090E09C01201B2A
:10421000310B3E832D83A214B3040CF094C04424CC
:104220004394512C81E090E00E940E19892B21F4D7
:1042300032E0430E511CF6CFC2010E940E192C0130
:1042400020E030E0421653060CF473C08114910450
:1042500031F04F8158854629572958874F83660C7E
:10426000771C611451E0750609F060C049815A81DC
:104270004A0D5B1DBA016F5F7F4F69307105F0F524
:10428000C7018C0D9D1D80389105C0F54F3F8FEF04
:10429000580709F454C0FA01F695FE2FEE27F7955A
:1042A000E795EC0DFD1DEE0DFF1DE253FD4FA081C6
:1042B0008F819885002E01C0880F0A94EAF78A2B17
:1042C000808301151105D1F047305105B9F0FB018C
:1042D000F695FE2FEE27F795E795EC0DFD1DEE0DFB
:1042E000FF1DE253FD4F4F8158850D8002C055954B
:1042F00047950A94E2F78081842B80839FEFE91A27
:10430000F90A4B815C81E416F5065CF05FEFA51AB3
:10431000B50A66246394712C18861F82E12CF12C57
:1043200005C066246394712C18861F822F5F3F4F4F
:1043300089CF81E090E0881999094C016CCF011573
:10434000110529F6DBCF28960FB6F894DEBF0FBE15
:10435000CDBFDF91CF911F910F91FF90EF90DF9034
:10436000CF90BF90AF909F908F907F906F905F9015
:104370004F903F902F900895FC018091C5028111CC
:1043800003C08FEF9FEF08959FB7F89482E080936A
:10439000E9002091F20030E01216130614F421E037
:1043A00030E02115310559F0289884E68093C40245
:1043B0008091F10080838091F200882319F09FBFE3
:1043C000C90108958BE68093E800F9CF8091FF063C
:1043D00081110DC082E08093FB0684E08093FC068F
:1043E0001092FE061092FD0681E08093FF068BEF8F
:1043F00096E00895FC018485958597FD0BC09FB7D5
:10440000F89482E08093E9008091F2009FBF90E0F1
:10441000019608959FB7F89482E08093E900809117
:10442000F2009FBF90E0089540915C0750915D07B6
:1044300020915A0730915B0742175307B4F49091CB
:10444000E8009570E1F39091E80092FD19C0809327
:10445000F10080915C0790915D0701968F73992719
:10446000892B19F48EEF8093E80080915C0790917E
:104470005D07019690935D0780935C0781E0089546
:1044800080E00895DF92EF92FF920F931F93CF93F6
:10449000DF93D82E8A017B01E40EF51EEB01CE15C9
:1044A000DF0571F0D7FE03C0FE01849101C0888151
:1044B0000E94142221968111F2CF8FEF9FEF01C04D
:1044C000C801DF91CF911F910F91FF90EF90DF9086
:1044D0000895615030F02091F100FC012083019695
:1044E000F8CF289884E68093C4020895CF93DF9391
:1044F0001F92CDB7DEB7FC018485958597FD05C079
:104500002FEF3FEF358724870BC0CE0101960E9425
:10451000BC21019719F4898190E002C08FEF9FEFD1
:104520000F90DF91CF9108950F931F93CF93DF9357
:104530001F92CDB7DEB78C01FC018485958597FF6E
:104540000EC0CE0101960E94BC21019719F4298169
:1045500030E002C02FEF3FEFF80135872487F801E4
:10456000848595850F90DF91CF911F910F910895CC
:104570000F931F93CF93DF931F92CDB7DEB782E0E7
:10458000898342E450E06EEB79E280E80E944222A7
:104590000E94E621DC0112960D911C9113970115E2
:1045A000110569F0D801ED91FC910280F381E02DB5
:1045B000BE016F5F7F4FC801099597FF07C08981D2
:1045C0000F90DF91CF911F910F910895F801008511
:1045D0001185E5CF1F920F920FB60F9211248F9382
:1045E0009F938091E1009091E100937F9093E1008F
:1045F00083FF0FC01092E90091E09093EB001092BE
:10460000EC0092E39093ED001092C50298E0909335
:10461000F00082FF20C093E09093E9009091F200B7
:10462000992319F09AE39093E8009091C20299239C
:1046300039F09091C20291509093C202992389F16E
:104640009091C402992339F09091C40291509093B3
:10465000C402992341F184FF10C08091E2008E7E54
:1046600081608093E2008091E1008F7E8093E10081
:104670008091C3028E7E806111C080FF16C0809140
:10468000E2008E7E80618093E2008091E1008E7E68
:104690008093E1008091C3028E7E81608093C3028B
:1046A00004C05D9ACDCF289AD6CF9F918F910F905D
:1046B0000FBE0F901F9018951F920F920FB60F927A
:1046C0001124CF92DF92EF92FF920F931F932F93BB
:1046D0003F934F935F936F937F938F939F93AF938A
:1046E000BF93EF93FF93CF93DF93CDB7DEB76C9774
:1046F000DEBFCDBF1092E9008091E80083FFEDC1DD
:1047000068E0CE0145960E94692282EF8093E8001E
:104710008D8987FF05C09091E80090FFFCCF03C012
:104720009EEF9093E800982F907609F0C6C09E897E
:104730002F89188D91110CC0803829F48091590768
:104740008093F10002C01092F1001092F10048C174
:10475000422F50E0512B913051F4811141C1413031
:10476000510509F03DC1809159078D7F0BC09330F1
:1047700061F4811135C14130510509F031C1809199
:1047800059078260809359072BC1953041F480917D
:10479000E80080FFFCCF20682093E30021C1963021
:1047A00009F05FC0EB8CFC8C1092E90010925D0761
:1047B00010925C07123091F510925B0710925A0725
:1047C0000E94B82299E0BE016F5F7F4FDB01E92FA5
:1047D0001D92EA95E9F799831A8391E09E8390EA06
:1047E00098879AEF998720915C0730915D07275F42
:1047F0003F4F3C832B838D831092E90010925D071D
:1048000010925C07F0925B07E0925A0749E050E093
:1048100080E00E9442220E94B822E2C0F0925B0730
:10482000E0925A070E94E621DC011296ED90FC907E
:104830001397E114F10409F4C0C0D701ED91FC9184
:104840000480F581E02DBE016B5E7F4FC7010995A5
:10485000009719F00CF0C4C0C7C0F701E084F184E0
:10486000E8CF973009F4C0C0983021F481E08093FC
:10487000F100B6C0993009F0B3C0837009F0B4C03C
:10488000E5EDF1E081E021E036E39081992361F0EC
:104890008093E9002093EB0091919093EC0030938A
:1048A000ED008F5F873089F78EE78093EA001092E2
:1048B000EA008F898093C50293C08B8D9C8D1092E6
:1048C000E90010925D0710925C0790935B0780935C
:1048D0005A07898D811156C08E899D89913A59F464
:1048E000813209F081C047E050E065E071E080E08E
:1048F0000E94422275C0913209F076C0833289F459
:10490000888D90E0982F88272F89822BA0E0B0E037
:1049100080930D0190930E01A0930F01B0931001AD
:104920005FC0803269F48091E80082FFFCCF67E0CD
:1049300085E091E00E9469228BEF8093E80006C039
:10494000823209F04DC08F8980930C018091580705
:10495000882319F0EEEFFAE002C0E0E0F8E0809181
:10496000050190910601A0910701B0910801803BDB
:104970009440A105B10509F07BC080910C0180FF36
:1049800093C076C00E94E621DC0112960D911C9125
:1049900013970115110541F1D801ED91FC9101909A
:1049A000F081E02DBE016B5E7F4FC801099581113A
:1049B00017C0F80100851185ECCF113009F44EC005
:1049C000133091F48F89882309F445C0823081F433
:1049D00040E860E182E29AE20E943E33882321F0BF
:1049E0008EEF8093E80079C081E28093EB0075C080
:1049F000813029F440E86BE086E19AE2EDCF833024
:104A000099F70E94E621DC011296ED90FC90139735
:104A10008E010F5F1F4F6801E114F10479F0D70197
:104A2000ED91FC910680F781E02DB801C701099551
:104A3000080F111DF701E084F184EECFD8011C921C
:104A4000F60101900020E9F73197BF016C197D094B
:104A500040E0C601C1CF60E07AE202C064E07AE2E1
:104A60006115710509F2FB01449150E080E840CFE7
:104A70000FB6F894A89580916000886180936000DB
:104A8000109260000FBEA895EE3F2AE0F20739F0C1
:104A90008091FE0A9091FF0A91838083A1CF1092AA
:104AA000FF0A1092FE0A9CCFEE3F8AE0F80731F031
:104AB000808191819093FF0A8093FE0A87E797E7B0
:104AC000918380839BE088E10FB6F894A89580934A
:104AD00060000FBE9093600083CF6C960FB6F89481
:104AE000DEBF0FBECDBFDF91CF91FF91EF91BF91A0
:104AF000AF919F918F917F916F915F914F913F9176
:104B00002F911F910F91FF90EF90DF90CF900F901A
:104B10000FBE0F901F901895CF93DF93CDB7DEB7E0
:104B2000C954D1090FB6F894DEBF0FBECDBF78943B
:104B300084B5826084BD84B5816084BD85B58260A2
:104B400085BD85B5816085BD80916E008160809353
:104B50006E001092810080918100826080938100BC
:104B600080918100816080938100809180008160CC
:104B70008093800080919100826080939100809169
:104B8000910081608093910080919000816080937A
:104B900090008091C10084608093C1008091C10029
:104BA00082608093C1008091C10081608093C100C8
:104BB0008091C30081608093C3008091C0008260B7
:104BC0008093C0008091C20081608093C200809178
:104BD0007A00846080937A0080917A00826080936A
:104BE0007A0080917A00816080937A0080917A00C7
:104BF000806880937A001092C50210925907109233
:104C0000C3028091D70081608093D70080EA8093AF
:104C1000D80089B5806189BD89B5826089BD09B434
:104C200000FEFDCF61E070E080E090E00E9412168F
:104C30008091D8008F7C80618093D8008091E000C3
:104C4000807F8093E0008091E1008E7E8093E10080
:104C50008DE08093E200559A209AEEEFFFE7859170
:104C600094918B3F9C4D19F481E08093580781EC1F
:104C700080937C0085B1806F85B9249884B1866E5D
:104C800084B95E9A5F988AB1806D8AB9769A6E9877
:104C900081B3806F81BB899880B38D7080BB80E5C4
:104CA0008CBD81E08DBD85E090E00E94B9185F9ACF
:104CB00085E090E00E94B9185E985C9800EE14E0E0
:104CC0006DE0F62EF00EF80184910E94E6180F5F59
:104CD0001F4FF012F8CF5C9A81E88093640081E066
:104CE0008093650000E014E080E00E94E618015027
:104CF0001109D1F70E94BE1887FF1DC085EA0E94E6
:104D0000EC182E982F982D988091640080628093E3
:104D100064000E94DB18FDCF2D980E94BE18847895
:104D2000843871F00E94BE188471843131F188ECAE
:104D300090E00E94B9180E94BE1882FDEDCF3AC0E3
:104D40000E94B71888EC90E00E94B9182F9882E072
:104D500090E00E94E0338F3F29F06FEF82E090E017
:104D60000E94E83384EF91E00E94B9182F9A0E94C4
:104D7000BE1884788438D9F3D5CF0E94B71888EC50
:104D800090E00E94B9182E9882E090E00E94E033F3
:104D9000882329F060E082E090E00E94E83384EF0D
:104DA00091E00E94B9182E9A0E94BE188471843135
:104DB000D9F3BDCF0E94B71882E090E00E94E033A3
:104DC000882319F00E94F61802C00E94F1182E984C
:104DD0005EEEC52EDD24DA940E94BE1886FF04C064
:104DE0002E9A2F9A2D9A43C0FCEFCF16FFEFDF06C5
:104DF00019F42E9A2F9806C028E1C216D10411F496
:104E00002F9A2D980E94D21FEE24E39400E128E50A
:104E100040E354E0B60184E190E00E94651981EE20
:104E200096E00E94FC188BE190E00E94B91830EFE8
:104E3000C3163FEFD30621F48AEF90E00E94B91821
:104E40004FEFC41AD40A59E1C516D10429F68CEBE8
:104E500092E00E94B9180E94B718E091E106F09123
:104E6000E2060190F081E02D81EE96E0099582E363
:104E700090E00E94B9180E94BE188111F8CF80E11D
:104E80008093E8060E94E11F809164008E7F8093EA
:104E9000640080917A00806480937A0080917A0027
:104EA00086FDFCCF00917800109179000E94ED15ED
:104EB00020E030E0980111270027600F711F821F4A
:104EC000931F611571058105910511F00E94CE3384
:104ED0008091640081608093640085E00E944018A6
:104EE0008DE00E94401884E790E00E94E0338E3A03
:104EF000C1F4BE016E5E7F4F86E790E00E94F61B14
:104F0000BE016F5F7F4F88E790E00E94F61B2A8901
:104F10003B8989819A81820F931F21E080389B4BC6
:104F200009F020E08A899B89853FB1E09B071CF04E
:104F300031E030935002211102C080E090E0909364
:104F4000530280935202FE013196FCA7EBA70E9408
:104F50004C160091ED061091EE062091EF0630916F
:104F6000F0064091F106442349F02091E906621BC6
:104F70006093F2061092F1060C94C4316017710729
:104F80008207930748F4061B023010F40C94C431D6
:104F90000E94DB180C94C43121E02093F106609349
:104FA000E9067093EA068093EB069093EC06209155
:104FB000E806DC01CB01820F911DA11DB11D80937C
:104FC000ED069093EE06A093EF06B093F006809165
:104FD000E4069091E50601969093E5068093E40639
:104FE000809104018A3F09F467C418F5873F09F4EA
:104FF0003AC2B0F4823009F019C50E940B1C0E941D
:10500000E11F81EE96E00E94FC1884EF91E00E947F
:10501000B91898EFE92EFF24FA940DE010E01AC0B9
:10502000883F09F4C4C4893F09F000C5E7E6F2E00F
:105030008FC48D3F09F440C438F48B3F09F4CDC2CE
:105040008C3F09F41CC2F2C48E3F09F4CFC18F3FDC
:10505000E9F1ECC40E94E11F1093F4060093F306FB
:10506000F092F606E092F50683EE91E00E94EA1FC8
:1050700081EE96E00E94FC1884E190E00E94B9184D
:10508000FFEFEF1AFF0A2AE1E216F10419F788E5AB
:1050900092E00E94B91889E290E09093F406809320
:1050A000F30683E290E09093F6068093F50685EF91
:1050B00091E00E94EA1F81EE96E00E94FC1880EDCC
:1050C00097E00E94B9188FEF809304010E940B1C97
:1050D00081E1E5E1F1E0DE01529601900D928A95C1
:1050E000E1F781E1ABA5BCA51D928A95E9F7212CDA
:1050F000312C78E1472E512C07E310E0E7E26E2EC9
:10510000712CF1E2EF2EF12CABE2CA2ED12CB4E3DC
:10511000AB2EB12C80E6882E912C0E940B1C0E9495
:10512000E11F42E659E162E070E08EE090E00E940B
:1051300071205092F4064092F3061093F606009305
:10514000F50681E10E94351FB2E03B1669F1B31507
:1051500024F0E1E03E1691F006C0F3E03F1679F14D
:1051600024E03216B9F1F092F406E092F3061093BF
:10517000F6060093F5068EEF91E036C0F092F40645
:10518000E092F3061093F6060093F50689E092E0AC
:105190000E94EA1F80915102811103C08FED91E0BE
:1051A00023C08BED91E020C07092F4066092F3066C
:1051B0001093F6060093F50681E192E015C0D092B7
:1051C000F406C092F3061093F6060093F5068AE102
:1051D00092E00AC0B092F406A092F3061093F6068D
:1051E0000093F50682E292E00E94EA1F9092F40694
:1051F0008092F3061093F6060093F50680E10E9474
:10520000351F81EE96E00E94FC188091E60680939F
:10521000E7060E94BE188093E6069091E70692FF8B
:1052200002C00C94CE3182FD02C00C94CE310E949B
:10523000BE1882FDFCCF32E0331609F451C033159D
:1052400024F041E0341669F108C053E0351609F442
:1052500059C084E0381609F481C0FE01729631E12C
:1052600021E12E0F81E0820D9191A1E0B0E0AC0F21
:10527000BD1FA20DB11D4C914913A0C0632F0E9408
:105280007D36292E2E13EECF8091000190910101E1
:105290008C509E4F90930101809300010E94141C3A
:1052A0008DC00E949A1E80915102882319F00E949D
:1052B000F11802C00E94F6186091510282E090E05D
:1052C0002A966FAF2A970E94E0332A966FAD2A97ED
:1052D000681709F422CF82E090E00E94E8331DCFE6
:1052E0008091540290915502892B49F48091520289
:1052F00090915302892B19F46EE178E15BC060EF65
:1053000077E158C040E067E876E180ED96E10E94E1
:10531000261C47E060E081E00E94721D40E063E5EA
:1053200076E180ED96E10E94261C47E060E081E096
:105330000E94721D40E06BE176E180ED96E10E94F3
:10534000261C40E066E076E180ED96E10E94261C96
:1053500047E060E081E00E94721DDFCE40E06AED30
:1053600075E182E498E10E94261C0E94C9332EE177
:1053700030E040E050E00E94F633653180F46F3059
:1053800088F46A3090F46250663090F4E62FF0E0D2
:10539000EE0FFF1FEA55FE4F608171810BC060E880
:1053A00075E108C062E575E105C067E175E102C01D
:1053B00069E975E140E082E498E1C8CF0E949A1E55
:1053C00048E750E060E070E08BED93E00E94A91E9A
:1053D0008CE390E00E94B91840E951E060E070E091
:1053E00086E295E00E94A91E8EEFCCC740E06FECEC
:1053F00074E185E49EE10E94261C40E066E973E1C9
:105400008FEA93E10E94261C40E069E573E185E4A0
:105410009EE10E94261C40E063E172E189E392E193
:105420000E94261C40E069EC71E185E49EE10E9447
:10543000261C41E06FE671E185E49EE10E94261C96
:1054400040E069E371E18FEA93E10E94261C40E0AD
:105450006FE271E189E392E10E94261C47E060E07F
:1054600081E00E94721D1092030110925502109269
:1054700054021092A70283E08093020167C28091D8
:10548000D506811104C085E69FE10E948C1E0E9412
:10549000E11FC090A302D090A402E090A502F0907A
:1054A000A6020E944C16C616D706E806F906B0F406
:1054B0008CE090E09093F4068093F30689E190E00D
:1054C0009093F6068093F50682E08093F90687E2D2
:1054D00092E00E94EA1F81E08093F9060E944C1638
:1054E00000919F021091A0022091A1023091A2028E
:1054F000061717072807390708F06AC01092F40644
:105500001092F30689E390E09093F6068093F506F7
:1055100081E392E00E94EA1F80915402909155022B
:105520000E94401F1092F4061092F3061092F606A5
:105530001092F50689E392E00E94EA1F80915202E0
:10554000909153020E94401F0E94BE188C70E1F798
:1055500088E590E09093F4068093F3061092F606A7
:105560001092F5068EE392E00E94EA1F8EE590E02D
:105570009093F4068093F30689E390E09093F60607
:105580008093F50684E492E00E94EA1F81EE96E0A3
:105590000E94FC1817EF0FEF47E060E080E00E94E8
:1055A000721D882319F00093040108C040E461E0F3
:1055B00080E00E94721D811110930401809104010A
:1055C0008C3F51F30E94BE188C70E1F70E949A1E26
:1055D00081EE96E00E94FC18D7C60E94141C0E941F
:1055E0004C160091560210915702209158023091AA
:1055F0005902601B710B820B930B009154021091A6
:105600005502209102013091A702432F50E04F5FD5
:105610005F4F34E6349F7001359FF00C1124A9E1EF
:105620002A02E00CF11C11246036BAEE7B078105DA
:1056300091054CF428E13CEF4FEF5FEF0E94F63309
:10564000245C3F4F02C020E030E00E0D1F1D200FF4
:10565000311F309355022093540280915202909151
:105660005302821793070CF5309353022093520292
:105670003AA729A76EEA84E790E00E94E833BE01CA
:10568000675D7F4F86E790E00E94DF1B29A53AA562
:1056900080E89BEB821B930B9A838983BE016F5F2B
:1056A0007F4F88E790E00E94DF1BE091A70281E036
:1056B0008E0F8093A7028E2F90E08730910508F01F
:1056C00040C1FC01EA5AFF4F40E00C9489366DE17D
:1056D00071E189E392E10E94261C40E06EED70E1E9
:1056E0002CC16DE171E189E392E10E94261C40E04A
:1056F0006FE970E185E49EE10E94261C47E060E0CE
:1057000081E00E94721D40E060E570E116C162E137
:1057100070E185E49EE10E94261C47E060E081E0A4
:105720000E94721D40E06FE271E189E392E107C1DE
:1057300063EE7FE002C163EB7FE08FEA93E1FFC09D
:1057400064E87FE08FEA93E10E94261C40E06BE56D
:105750007FE0F3C063E17FE085E49EE10E94261CC8
:1057600040E06EEC7EE085E49EE10E94261C40E075
:1057700067E87EE08FEA93E10E94261C47E060E044
:1057800081E00E94721D0E944C164B015C01E0ED0D
:105790008E0EE7E09E1EA11CB11C8092A302909287
:1057A000A402A092A502B092A6020E94E11F46E1C7
:1057B0005CE060E070E080E090E00E94712010E02A
:1057C000FF24F394E12E0FE027E148EE5BE062E274
:1057D00070E087E390E00E9465191F258EE190E05C
:1057E0000E94B91881EE96E00E94FC180E944C16A7
:1057F000681579058A059B0528F347E060E080E09D
:105800000E94721D8823F1F20E94BE188C70E1F78D
:1058100040E063ED7BE085E49EE10E94261C40E0D1
:105820006DE97BE08FEA93E10E94261C40E068E886
:105830007BE085E49EE10E94261C40E06EE67BE072
:105840008FEA93E10E94261C40E06DE171E189E35B
:1058500092E10E94261C40E068E37BE08FEA93E13E
:105860000E94261C47E060E081E00E94721D87E2F2
:1058700098E00E948C1E0E94E11F81EE96E00E943B
:10588000FC1818E086E990E00E94B91887EA0E94A7
:10589000EC1886E990E00E94B91886EA0E94EC189C
:1058A000115081F740E060EE77E089E392E10E94D9
:1058B000261C0C94000045C0809102018150809309
:1058C00002011816BCF140E065EF7DE185E49EE140
:1058D0000E94261C88EE93E00E94B9188CEF8093FA
:1058E00004010E944C1620915102211104C000E0D5
:1058F00010E0980104C000ED17E020E030E0DC018A
:10590000CB01800F911FA21FB31F8093A30290931E
:10591000A402A093A502B093A6028053984FAF4F64
:10592000BF4F80939F029093A002A093A102B093D7
:10593000A2022AC541E061EB7DE185E49EE10E947F
:10594000261C47E060E081E00E94721D89EF1AC5C5
:1059500020E030E040E852E42193319341935193A9
:1059600032E0EF39F307A1F782E49DE10E948C1E3B
:1059700080E090E0A0E0B7EC809363029093640233
:10598000A0936502B093660280935F0290936002D9
:10599000A0936102B093620210925B0210925C02CB
:1059A00010925D0210925E028FEF80935A02C090B7
:1059B0006302D0906402E0906502F090660220E0FD
:1059C00030E040E057ECC701B6010E94C63488239E
:1059D00081F02AE939E949E15EE3C701B6010E9495
:1059E0005A346093630270936402809365029093CB
:1059F000660220E030E040E450E460916302709180
:105A0000640280916502909166020E940B3618161E
:105A10006CF481E0809304010E944C16609356025E
:105A20007093570280935802909359028091D50643
:105A3000811105C080910401813009F404C511E091
:105A400080910401813031F010E048EF21964FAF92
:105A5000219719C020E030E04AEF52E460916302E0
:105A60007091640280916502909166020E940B36EB
:105A700018162CF051E021965FAF219704C08BEFF0
:105A800021968FAF21970E94E11F20E430E044E18E
:105A900050E060E070E084E190E00E94EC1F20E4C0
:105AA00030E041E550E060E070E081E590E00E9488
:105AB000EC1FE12CF12C670197E0C90ED11C960177
:105AC00047E250E0B70187E290E00E94EC1F9601A8
:105AD00044E650E0B70184E690E00E94EC1FA0E1AC
