:100000000C94BD040C94E5040C94E5040C94E504F4
:100010000C94E5040C94E5040C94E5040C94E504BC
:100020000C94E5040C94E5040C94EB190C945D1A03
:100030000C94E5040C94E5040C94E5040C94E5049C
:100040000C94E5040C94E5040C94E5040C94E5048C
:100050000C94E5040C94E5040C94E5040C941E1D2A
:100060000C94E5040C94E5040C94E5040C94E5046C
:100070000C94E5040C94E5040C94E5040C94E5045C
:100080000C94E5040C94E5040C94E5040C94E5044C
:100090000C94E5040C94E5040C94E5040C94E5043C
:1000A0000C94E5040C94E5040C94E504580A6A0ADF
:1000B000CC0A9F0AC40AE90A170AA021AB21B6217B
:1000C000BD21CB21D621E321EE21F721F7214B22BF
:1000D00053225C22F0F89C8E8783878E9CF8F00078
:1000E00000FEFF0303030303070EFCF80000FEFFFE
:1000F0000303030303070EFCF80000FFFF000000EA
:1001000000000000FFFF0000FEFF8383838383C79E
:10011000EE7C380000F8FC0E07030303070EFCF822
:1001200000003F7FE0C08080C0E07F3FFFFF010113
:100130000101010101FFFF0000FFFF0C0C0C0C1C72
:100140003E77E3C100007FFFC0C0C0C0C0E0703F89
:100150001F00001F3F70E0C0C0C0E0703F1F0000E4
:100160007FFFC1C1C1C1C1E3773E1C00001F3F70CA
:10017000E0C0C0C0E0703F1F000000000001FFFFB2
:1001800001000000D5F08D14A1C881CFD9F1AF20B6
:1001900000191C1C1C1C191313070707071313193C
:1001A000FFFF3F3F8793B9E5E5B993873F3FFFFFE7
:1001B000FFFFFF8E96B096BFBF96B0968EFFFFFFF3
:1001C000FFFF3FBF8783819999818387BF3FFFFFEF
:1001D000FFFFFF8EA680A08080A080A68EFFFFFF7D
:1001E000FFFFFFE3C91D73E7E7731DC9E3FFFFFFCF
:1001F000FFFFFB91A4B495BFBF95B4A491FBFFFF93
:10020000FFFFFFE3C9193307073319C9E3FFFFFFF6
:10021000FFFFFB95A484A48E8EA484A495FBFFFF0E
:10022000F763B75F5B4140415B5F58414041585FB6
:100230005B4140415B5FAF47EF8055803E7F416F40
:100240006F717F3E0003017F0103007F41633E80A9
:100250007F80030302010001000100010001000191
:100260000001000100010001020303AA55AA55AADA
:1002700055AA5500547C38387C54000E58703038DC
:10028000785810004C5E5755772200066C38181CC1
:100290007E4A0C041E7C38387C1E041098CB7F7F6D
:1002A000CB981092D67C7E7E7CD6920C783E7B7B5F
:1002B0003E780C078CFC3F3FFC8C180F5CF8BC7F31
:1002C000DB8E0C339AFF7B7BFF9A33FFFFFFFFFF30
:1002D000FFFFFFFF83C1E1E1C183FFFF83F9FDFD64
:1002E000F983FFFFFFFFAA55FFFFFFF7EFF7EFF7D7
:1002F000EFF7EFFFFFFFFAF5EBF7EFFFFFFFBF5F51
:10030000AFD7EFF7EBF5FAFDFFFFFFF7EFD7AF5FE2
:10031000FFFFFFFFFFFFAA55EFF7EFF7EFF7AF572C
:10032000EFF7EFF7EFF7AA55FFFFFFF7EFF7EAF563
:10033000EFF7EFF7EFF7AA55EFF7EF080B00020220
:10034000020100090400000102020000052400105F
:100350000105240101010424020605240600010709
:1003600005810310004009040100020A0000000793
:100370000502024000000705830240000004030953
:100380000412010002EF0201404123368000010106
:1003900002030141726475696E6F204C4C43004149
:1003A000726475626F7900010204081020408000B9
:1003B000000000003E5B4F5B3E3E6B4F6B3E1C3EC1
:1003C0007C3E1C183C7E3C181C577D571C1C5E7FD5
:1003D0005E1C00183C1800FFE7C3E7FF0018241854
:1003E00000FFE7DBE7FF30483A060E262979292689
:1003F000407F050507407F05253F5A3CE73C5A7F73
:100400003E1C1C08081C1C3E7F14227F22145F5FC8
:10041000005F5F06097F017F006689956A60606002
:10042000606094A2FFA29408047E040810207E203D
:100430001008082A1C08081C2A08081E1010101092
:100440000C1E0C1E0C30383E3830060E3E0E0600D8
:100450000000000000005F00000007000700147F9C
:10046000147F14242A7F2A12231308646236495603
:1004700020500008070300001C2241000041221CFC
:10048000002A1C7F1C2A08083E08080080703000E3
:100490000808080808000060600020100804023EF8
:1004A0005149453E00427F40007249494946214139
:1004B000494D331814127F1027454545393C4A49A8
:1004C00049314121110907364949493646494929E7
:1004D0001E000014000000403400000008142241F7
:1004E0001414141414004122140802015909063E80
:1004F000415D594E7C1211127C7F494949363E417B
:100500004141227F4141413E7F494949417F09099B
:1005100009013E414151737F0808087F00417F4136
:10052000002040413F017F081422417F404040406D
:100530007F021C027F7F0408107F3E4141413E7FC5
:10054000090909063E4151215E7F091929462649BC
:1005500049493203017F01033F4040403F1F204093
:10056000201F3F4038403F6314081463030478049D
:10057000036159494D43007F414141020408102065
:10058000004141417F0402010204404040404000DC
:100590000307080020545478407F284444383844E6
:1005A000444428384444287F385454541800087E62
:1005B000090218A4A49C787F0804047800447D40B4
:1005C000002040403D007F1028440000417F400053
:1005D0007C047804787C080404783844444438FC6B
:1005E0001824241818242418FC7C080404084854EF
:1005F00054542404043F44243C4040207C1C2040AC
:10060000201C3C4030403C44281028444C909090A2
:100610007C4464544C4400083641000000770000DC
:10062000004136080002010204023C2623263C1E3B
:10063000A1A161123A4040207A38545455592155AD
:1006400055794121545478412155547840205455CE
:1006500079400C1E5272123955555559395454541B
:100660005939555454580000457C410002457D429B
:100670000001457C40F0292429F0F0282528F07C51
:10068000545545002054547C547C0A097F49324912
:100690004949323248484832324A4848303A414162
:1006A000217A3A42402078009DA0A07D39444444FC
:1006B000393D4040403D3C24FF2424487E49436668
:1006C0002B2FFC2F2BFF0929F620C0887E09032041
:1006D000545479410000447D413048484A32384002
:1006E00040227A007A0A0A727D0D19317D26292965
:1006F0002F28262929292630484D40203808080867
:100700000808080808382F10C8ACBA2F102834FA87
:1007100000007B000008142A142222142A140895D1
:1007200000220095AA005500AAAA55AA55AA0000C1
:1007300000FF00101010FF00141414FF001010FF31
:1007400000FF1010F010F0141414FC001414F70043
:10075000FF0000FF00FF1414F404FC141417101F12
:1007600010101F101F1414141F00101010F00000A0
:1007700000001F101010101F10101010F0100000BB
:1007800000FF101010101010101010FF10000000CB
:10079000FF140000FF00FF00001F10170000FC0402
:1007A000F414141710171414F404F40000FF00F7E5
:1007B00014141414141414F700F714141417141048
:1007C000101F101F141414F4141010F010F0000077
:1007D0001F101F0000001F14000000FC140000F098
:1007E00010F01010FF10FF141414FF141010101F3D
:1007F00000000000F010FFFFFFFFFFF0F0F0F0F04E
:10080000FFFFFF0000000000FFFF0F0F0F0F0F386A
:10081000444438447C2A2A3E147E02020606027EA4
:10082000027E0263554941633844443C04407E20C3
:100830001E2006027E020299A5E7A5991C2A492AD4
:100840001C4C7201724C304A4D4D30304878483063
:10085000BC625A463D3E494949007E0101017E2A5B
:100860002A2A2A2A44445F444440514A444040448E
:100870004A51400000FF0103E080FF000008086BC0
:100880006B083612362436060F090F0600001818BA
:100890000000001010003040FF0101001F01011E88
:1008A00000191D1712003C3C3C3C0000000000FFFA
:1008B000C399E5E599C3FFFFC199F3F399C1FFFF20
:1008C000FFFBF9FBEF87FFFFFBF9FBFF97A7FFFF9C
:1008D000BB93C7C793BBFFFFFFFF81C3E7FFFFFFCA
:1008E000C399B5AD99C3FFFFE783818183E7FFFF1C
:1008F000E78B8D8D8BE7FFFFE783B1B183E7FFFFC8
:10090000998181818199FFFF99858D8D8599FFFF5F
:1009100099A1B1B1A199FFFF8F838181838FFFFFDF
:100920008F838D8D838FFFFF8FB3B1B1B38FFFFFA7
:10093000938183838193FFFF938D8B8B8D93FFFF37
:1009400093A1B3B3A193FFFFF181838381F1FFFFF3
:10095000F18D8B8B8DF1FFFFF181B3B381F1FFFF3F
:10096000EB81818181EBFFFFEB858D8D85EBFFFFB7
:10097000EB91B1B191EBFF00522C11241FBECFEFD0
:10098000DAE0DEBFCDBF11E0A0E0B1E0E8EDF2E6D5
:1009900002C005900D92AE39B107D9F729E0AEE952
:1009A000B1E001C01D92AC30B207E1F714E0CDEB2D
:1009B000D4E004C02197FE010E94872ECC3BD107D2
:1009C000C9F70E949A230C946A310C9400008F920C
:1009D0009F92AF92BF92CF92DF92EF920F931F93AD
:1009E000CF93DF93FB016A01EB0183E0D695C795B6
:1009F0008A95E1F7CB01880F991F880F991F65E051
:100A000070E00E945F2E42E0460FCF0163E070E08D
:100A10000E945F2ECF0104964801590154E0E52E53
:100A20000AE02C2F880F0E943220DF91CF911F9176
:100A30000F91EF90DF90CF90BF90AF909F908F90ED
:100A400008958F929F92AF92BF92CF92DF92EF92D2
:100A50000F931F93FB016A0159019B0183E03695B7
:100A600027958A95E1F7CB01880F991F880F991F69
:100A700065E070E00E945F2E462FCF0163E070E0DA
:100A80000E945F2E8E2F880F480154E0E52E07E06C
:100A90008D5F0E9432201F910F91EF90DF90CF90D9
:100AA000BF90AF909F908F9008958F929F92AF923A
:100AB000BF92CF92DF92EF920F931F93FB016A01D7
:100AC000CB0165E070E00E945F2EEF30F10538F455
:100AD0008E2FE930F10508F088E0482F01C04E2F35
:100AE000CF0196958795969587954801590175E0B0
:100AF000E72E0AE0262F682F81E08E0F0E94322019
:100B00001F910F91EF90DF90CF90BF90AF909F908B
:100B10008F9008952F923F924F925F926F927F92A3
:100B20008F929F92AF92BF92CF92DF92EF92FF92FD
:100B30000F931F93CF93DF93CDB7DEB729970FB6EF
:100B4000F894DEBF0FBECDBF6B012A014901380109
:100B5000CB0101968232910510F081E290E0888706
:100B6000C60167E070E00E945F2E6987C60163E0FE
:100B700070E00E945F2E6E836B3010F08AE08E83EF
:100B8000C601880F991F63E070E00E945F2E6B30F2
:100B900008F06AE0262E312C9E81291A3108EFEFE9
:100BA0002E1A3E0AE12CF12C86EFA82EBB24BA9413
:100BB000EF82E885EE1608F04AC0FBEAEF9E812D31
:100BC00011248695982F990F890F8E1106C08CE1FC
:100BD000C816D10420F4298503C020E001C023E019
:100BE000C701B1010E94732E4E81480F7A2DBD823C
:100BF000AC8290E4299F9001112484E0489FF00189
:100C00001124E057F74F51815F73522B5A834F7075
:100C100049838301940160E09AE0A91AB1088D81AB
:100C20000E94FC1FF201868D823018F0FF81F0FFD8
:100C300004C08FEFE81AF80ABBCF83019401498101
:100C40005A8161E07C818D810E94FC1FF2CF299640
:100C50000FB6F894DEBF0FBECDBFDF91CF911F91CD
:100C60000F91FF90EF90DF90CF90BF90AF909F904B
:100C70008F907F906F905F904F903F902F9008954E
:100C8000CF93DF93CDB7DEB727970FB6F894DEBFCB
:100C90000FBECDBFFC0120812E3039F481810E942E
:100CA000BE20265081E0223008F080E027960FB663
:100CB000F894DEBF0FBECDBFDF91CF9108950F93A3
:100CC0001F93CF93DF93CDB7DEB727970FB6F89476
:100CD000DEBF0FBECDBF062FFC011081812F0E9409
:100CE000BE208F83701302C017FD07C08F81801351
:100CF00006C016FB882780F903C081E001C080E0B0
:100D000027960FB6F894DEBF0FBECDBFDF91CF910F
:100D10001F910F9108950F931F93CF93DF93CDB73A
:100D2000DEB728970FB6F894DEBF0FBECDBF8C019B
:100D3000FC0180810E94BE2062E0C80138870E94C9
:100D40005F063885882321F0832F8695869501C01C
:100D500080E0830F28960FB6F894DEBF0FBECDBF9C
:100D6000DF91CF911F910F910895FC0190819770B1
:100D7000673031F4923080F081E0943081F40CC01F
:100D8000643021F481E0913051F406C06A3031F4CE
:100D9000965081E0923018F080E0089581E0089547
:100DA000FC01660F660F660F972F990F990F990F29
:100DB00080818650823020F084E0860F9C5F089509
:100DC0008CEF860F94500895DC0182E08093A4019B
:100DD00080E48093900084E59DE090939900809357
:100DE000980011969C91119792959695969593706F
:100DF000E9F0EC91EF70E630C9F044E0E49FF001D7
:100E00001124E057F74F818191509F7340E4949FE4
:100E1000900111248F73282B11962C93119786EF34
:100E20009FEF14969C938E931397089511961C929E
:100E300008959F92AF92BF92CF92DF92EF92FF926E
:100E40000F931F93CF93DF93CDB7DEB727970FB6DE
:100E5000F894DEBF0FBECDBF7C018B016A01922EDC
:100E6000DB016C916F700E94B506B82E882309F4DF
:100E700081C0F70180818770823091F063E0C70103
:100E80000E945F06B82E882359F00E94CA2D63E0A5
:100E900070E00E94732EBB24B394892B09F0B12C0F
:100EA000D7018C910E94BE20A52E60E0C7010E9450
:100EB0005F06882319F08A2D869501C080E0A80E70
:100EC0008A2D90E0911003C061E070E002C062E002
:100ED00070E00E94732EF8018181982F9F7369172B
:100EE000C8F0C8010E94E406D801EC91EF70B4E0AC
:100EF000EB9FF0011124E057F74F2381F601808129
:100F00009181820F911D918380838FEFD70111967C
:100F10008C9319C0961B292F2F73982F907C922B9E
:100F2000F8019183BB2079F08081282F2F70233026
:100F300011F09FE001C097E0F0E19F9FC0011124F4
:100F4000822BD8018C93F70180818770863091F4D1
:100F50000E94CA2D6AE070E00E94732E892B51F422
:100F6000D80113968D919C9114970A9714969C938F
:100F70008E93139727960FB6F894DEBF0FBECDBFA2
:100F8000DF91CF911F910F91FF90EF90DF90CF9065
:100F9000BF90AF909F9008950F931F93CF93DF93CF
:100FA000DC011396ED91FC91149712968C91DB0164
:100FB0009FE0899FA00DB11D11248C91880F880F8F
:100FC000880F8C5F11969C911197990F990F990F2B
:100FD0009C5FF7FD5CC050E018EF5A3018F4252FE5
:100FE00030E002C029E030E0ED01C20FD31F2D81B7
:100FF000322F3295369536953370313039F070F0A6
:10100000323039F0333039F030E009C030E041E0BF
:1010100007C031E004C030E04FEF02C03FEF40E0D6
:101020002F731203B00111246E0F7F1F77FF23C0AF
:101030008F0123E0169507952A95E1F728EF200305
:10104000B001219F700D1124E60FF71F242F220FEE
:10105000220F220F209F800D11244E9F800D1124FE
:10106000232F220F220F220F209F900D11243E9F2D
:10107000900D11240CC0220F220F220F429F800DD1
:101080001124329F900D11245F5FFB01A6CFDF91E9
:10109000CF911F910F9108952F923F924F925F929F
:1010A0006F927F928F929F92AF92BF92CF92DF9278
:1010B000EF92FF920F931F93CF93DF93CDB7DEB7DD
:1010C000C859D1090FB6F894DEBF0FBECDBF45E0B9
:1010D00056E0CC56DF4F59834883C459D0402A018B
:1010E000812C912CCD56DF4F1882C359D040CE565B
:1010F000DF4F1882C259D04010E05FEFC557DF4F75
:101100005883CB58D040140188E0281A3108620176
:10111000A12CB12CF12CD6018E913D018E3039F1EC
:101120008091D705813009F0A4C0809187088F1184
:10113000A0C08091880881139CC0609189086830A4
:1011400008F097C08091800890918108F3E096950F
:101150008795FA95E1F783709927892B09F489C05F
:10116000CE0101960E94F4208981811182C0F30191
:1011700080818E3061F4D6018C910E94BE2029833B
:101180003A834B835C836D837E838F8325C0E0919C
:101190008908B7E0BE9FF0011124EC5DFE4FDE012F
:1011A000119687E001900D928A95E1F7EA81C55783
:1011B000DF4FE883CB58D0406F2D712FCE010196C1
:1011C0000E94D006CD56DF4F8883C359D040CE56FB
:1011D000DF4F9883C259D0408981863070F100E09A
:1011E00020E140E1B1013501F8E06F1A7108C30157
:1011F0000E94C015498150E046505109CA0166E07D
:10120000880F991F6A95E1F7D6014C91042E000CC6
:10121000550B4427550F441F5527E5E0440F551F34
:10122000EA95E1F7480F591F40565E4FEE24E394CC
:1012300000E120E1B101C3012AC0612C712C30E032
:10124000332309F459C5F601808190E0313019F05B
:1012500040E450E002C040E850E084239523892B0D
:1012600009F44AC53F5FF8E06F0E711C333041F757
:1012700010C0D3014C91B8E04B9FA00111244553FD
:101280005D4FEE24E39408E028E0B401C5010E941C
:10129000821DF394E8E0AE0EB11CF3E0CF0ED11C3A
:1012A00020E1F21238CF1F5F48E0840E911C50E31A
:1012B000450E511C183009F026CFCF56DF4F18824B
:1012C000C159D040CC56DF4F48815981C459D040D4
:1012D000C757DF4F59834883C958D040C057DF4FA5
:1012E0001882C059D040C757DF4FE881F981C958EB
:1012F000D040319780818E3009F01CC2C757DF4F34
:10130000A881B981C958D0401196EC91EF3F09F4FA
:1013100011C2B5E0BE9FF0011124EC57F84FDE0179
:10132000959685E001900D928A95E1F78EA18F73D5
:1013300009F400C268ED75E0CE0185960E94CC07E5
:101340004C01C757DF4FE881F981C958D0408081EF
:10135000982F9873E92EF12C270153E05594479468
:101360005A95E1F7FCE0F49DA02C11240E94BE20C8
:1013700029833A834B835C836D837E838F83C0573D
:10138000DF4F6881C059D040CF56DF4F7881C159B7
:10139000D040CE0101960E94D0063C01282C312C71
:1013A000082F10E0A101401B510BC457DF4F598398
:1013B0004883CC58D0402A2D30E0429FC001439F43
:1013C000900D529F900D112464E670E00E94732EE0
:1013D000B62CB60EC92CD12CE72CF12CF601EE1947
:1013E000FF09C257DF4FF983E883CE58D040E29F10
:1013F000C001E39F900DF29F900D112464E670E010
:101400000E94732E372D360FC757DF4FA881B98141
:10141000C958D040EC91E7708E2F90E0FC013197D5
:10142000E730F105D0F4EA5AFF4F0C94872EC20141
:1014300001964C01880C991C880E991E712C720122
:10144000B2E0EB0EF11C032F10E002501109CB2C7F
:10145000D12CE2E0CE1AD10850C1861418F402193A
:10146000130906C0C457DF4F08811981CC58D040FA
:10147000971418F4EC18FD0806C0C257DF4FE88037
:10148000F980CE58D040E016F1065CF4303408F014
:1014900051C1632F70E042E08B2D90E00E94BF1796
:1014A00049C1632F70E020E042E08B2D90E00FC037
:1014B000032F10E0EB2CF12C20E042E0B801C70133
:1014C00001970E94941520E042E0B801C7010E94F4
:1014D000941530C1E32EF12C0B2D10E020E0A70174
:1014E000B80184EC95E00E94EF1E5701FFEFAF1AA0
:1014F000BF0A68012FEFC21AD20A20E0A501B60187
:1015000084EC95E00E94EF1E0150110920E0A50136
:10151000B80184EC95E00E94EF1E41E0E41AF10866
:1015200020E0A701B60184EC95E00E94EF1E20E0C8
:10153000A701B80184EC95E00E94EF1EFBC0EB2DE3
:10154000F0E0C32ED12CEC18FD0859E15E9DC001DE
:101550005F9D900D112464E670E00E94732E630F6E
:10156000262F30E00E1B1F0BA9E1A09FC001A19FF9
:10157000900D112464E670E00E94732EB60E4B2D80
:1015800050E0B601CF0122C0632F70E041E08B2D07
:1015900090E00E948418CEC0B1E3BA1508F4CAC026
:1015A00080918008909181089C01237033272C0D35
:1015B0003D1D2150310963E070E00E945F2EA101C2
:1015C000480F591F41505109B701C8010E946619BF
:1015D000B1C0E42CE694E394632E712C0B2D10E043
:1015E000CE2CD12CEE0C41E04E0DB3016C197D09CF
:1015F00020E0C8010E949415EE24E394F12CEC182D
:10160000FD08222433242C183D08220C331C4424CA
:101610004394512C812C912CC257DF4F198308839E
:10162000CE58D040CA56DF4F79826882C659D04022
:10163000F7FC08C0E1E0CE1AD108F2E02F0E311C11
:10164000E20CF31C2FEF821A920A42E0440E511C66
:10165000E40CF51C8C2D880F31E0380F20E0432F6F
:10166000C3018C199D09C457DF4F99838883CC58D7
:10167000D040BC01C257DF4F88819981CE58D040FD
:10168000880D991DC856DF4F3883C859D0400E9435
:101690009415CA56DF4FA880B980C659D040A81803
:1016A000B90820E0442DB501C8018C0D9D1D0E9494
:1016B000941520E0C856DF4F3881C859D040432FD9
:1016C000C457DF4F68817981CC58D040C257DF4F73
:1016D00088819981CE58D040881999090E94941523
:1016E00020E0442DB501C8018C199D090E94941574
:1016F0008C149D040CF49CCF1DC0872D90E08815A0
:101700009905C4F40E94CA2DB7010E94732E580196
:10171000A80EB91E0E94CA2DB7010E94732EB601F1
:10172000680F791F20E0A50184EC95E00E94EF1E70
:101730007394E3CFC057DF4F9881C059D0409F5F6B
:10174000C057DF4F9883C059D040C757DF4FA8819B
:10175000B981C958D0401396C757DF4FB983A883C2
:10176000C958D040903109F0BECDCF56DF4FB88177
:10177000C159D040BF5FCF56DF4FB883C159D04069
:10178000CC56DF4FE881F981C459D040F096CC5651
:10179000DF4FF983E883C459D040B83009F092CDC7
:1017A000F12C05E0B02E82E0C82ED12C8F2D90E0D8
:1017B00020917E0830917F0882179307A8F4B89E85
:1017C0008001B99E100D11240C57184FD8011396A3
:1017D0008D919C91149797FD05C011968C918F73F4
:1017E00009F0A6C2F394E2CFA0908808AA0CAA0C34
:1017F000AA0CC0908708CC0CCC0CCC0CB12CD12CF2
:1018000028E048E0B501C6010E94F6173601B8E0AD
:101810006B0E711C812C912C13E0E12EF12C8601B2
:10182000095F1F4F2501E7E04E0E511C15012C18D2
:101830003D088091800890918108B3E09695879546
:10184000BA95E1F7880D991DB7010E945F2E892B8B
:1018500011F521E0A501B4016C0D7D1D84EC95E02E
:101860000E94EF1E21E0A4014A0D5B1DB80184EC2B
:1018700095E00E94EF1E21E0A201B30184EC95E007
:101880000E94EF1E21E0A101460D571DB60184EC18
:1018900095E00E94EF1EFFEF8F1A9F0A21E0621A67
:1018A000710848E08416910421F68091D7058130B3
:1018B00021F00E946F1D82FD57C08091D7058130B5
:1018C00009F469C280918808811165C208E3109209
:1018D000D30581E08093D40510E081E090E09093FF
:1018E000D0058093CF051093D2050093D10564E213
:1018F00080EC95E00E940D1F609182087091830832
:1019000080E090E04AE00E94431889E290E09093E2
:10191000D0058093CF051093D2050093D1056CE4D8
:1019200080EC95E00E940D1F6091840870918508FD
:1019300080E090E04AE00E94431889E590E09093AF
:10194000D0058093CF051093D2050093D10562E5B1
:1019500080EC95E00E940D1F6091860870E080E0A9
:1019600090E04AE00E9443188091D705833009F047
:101970005CC00E946F1D83FF58C010E0A5E0DA2E06
:10198000812F90E020917E0830917F088217930785
:1019900008F04BC0D89EF001D99EF00D1124EC57F1
:1019A000F84FDE0111968D2D01900D928A95E1F789
:1019B0008C819D8197FD37C08A818F73A1F168ED7D
:1019C00075E0CE0101960E94CC07E981EF70B4E08A
:1019D000EB9FF0011124E057F74F9180CA80A92EA8
:1019E000B12CE82EF12CB5016650710901E023E01D
:1019F00046E0C70103970E94C015950125503109A3
:101A00002034310580F48C2D8F7355E0859FC00103
:101A10001124692D70E00E945F2E462FB901C70185
:101A200002970E94BF171F5FABCF0091870880917C
:101A300088089091D705913009F0A9C010E090E195
:101A4000899F000D111D1124C801880F991F080FCF
:101A5000191FF801E952FA4F85A58E3009F097C099
:101A600008521A4F7801ADE2EA0EF11CC7010E943C
:101A70008B06C557DF4F8883CB58D04064E0C70141
:101A80000E945F06F82E8091800883FD62C08091DD
:101A90008908883089F468E0CE01875B9F4F0E94F7
:101AA000F4202A968FAD2A97811106C0F80185A5EA
:101AB0000E94BE20723099F080918908893011F51A
:101AC00069E0CE0101960E94F420898181111AC03B
:101AD000D8019D968C910E94BE20823099F4C55702
:101AE000DF4F8881CB58D04086958695C557DF4F0C
:101AF000B881CB58D040B80FC557DF4FB883CB580B
:101B0000D04027C080918908883071F468E0CE0108
:101B100085960E94F4208DA1811106C0F80185A54B
:101B20000E94BE20743099F080918908893089F430
:101B300069E0CE0101960E94F4208981811109C0DB
:101B4000D8019D968C910E94BE20843011F4FF2410
:101B5000F394F80185A50E94BE2029833A834B8324
:101B60005C836D837E838F83609187087091880882
:101B7000CE0101960E94D006CD56DF4F8883C3590F
:101B8000D040CE56DF4F9883C259D04001C0F12CCF
:101B9000C557DF4FF881CB58D040FF3FF1F0CE560C
:101BA000DF4F2881C259D040022F10E0CD56DF4FC1
:101BB0004881C359D040C42ED12C4F2FB801C60143
:101BC0000E948418FF2049F0B8016C50710928E187
:101BD00048E1C6010C970E94F6178091D705813025
:101BE00009F0DBC001E029E040E867E370E080E055
:101BF00090E00E94C01540E867E370E080E090E06C
:101C00000E94BF17C12CD12C10E062E0F62EAA244E
:101C1000A394B12CEFE28E2E912C1D3030F4612F65
:101C2000CE0101960E94F42002C0F9821D828981B2
:101C3000823009F4B2C080918908811335C04A818D
:101C40005B81E12C08E028E068E370E0C6010E94B7
:101C5000821DB092D005A092CF059092D2058092BD
:101C6000D105CE0105960E9431188C81882379F127
:101C700060E280EC95E00E940D1F68E280EC95E048
:101C80000E940D1F64E280EC95E00E940D1F6C81A4
:101C900070E080E090E04AE00E94431869E280EC46
:101CA00095E00E940D1F13C000E028E048E068E3C3
:101CB00070E0C6010E94C0154A815B81EE24E39466
:101CC00008E028E068E370E0C6010E94821D898177
:101CD000813051F4E12C08E028E04BE652E068E363
:101CE00070E0C6010E94821D1F5F58E0C50ED11C26
:101CF000103109F092CF51C08981A30198E1899FE9
:101D0000400D511D11244951574FEE24E39408E032
:101D100028E0B401C501C856DF4F3883C859D04008
:101D20000E94821DC856DF4F3881C859D0409ACAD8
:101D300068ED75E0C8010E94CC07482FD801EC91EE
:101D4000EF70B4E0EB9FF0011124E057F74FE08112
:101D500028E0E29FF0011124ED58FD4F292F30E0DB
:101D600024503109D80113968D919C911497959523
:101D7000879595958795B6010E94732EB901680FD6
:101D8000711D842F90E0E12C08E028E0AF0104975A
:101D90000E94821D27CD01E09ACDC856DF4F0FB6B5
:101DA000F894DEBF0FBECDBFDF91CF911F910F9191
:101DB000FF90EF90DF90CF90BF90AF909F908F906B
:101DC0007F906F905F904F903F902F900895FC010F
:101DD00082818A3070F4DF01A80FB11D15966C93D3
:101DE0006F7323813481260F311D348323838F5FEA
:101DF00082830895FC0110821182DC0115960F96F2
:101E000021E02D93A817B907E1F710821182128201
:101E1000148213820895E92F572FA82FB0E0262FA0
:101E200030E0681720F4CD01821B930B03C0C90179
:101E30008A1B9B0B6E2F70E0252F30E05E1728F475
:101E4000FB01E21BF30B9F0102C0261B370B50E086
:101E500048175907B8F142175307A0F1229FB00164
:101E6000239F700D700D1124889F9001899F300D64
:101E7000300D1124260F371F80E090E42817390712
:101E800028F49695879596958795F8CF60E070E051
:101E9000009791F0FC01E60FF71F2E173F0728F07F
:101EA0002E1B3F0BBF01680F791F9695879596955E
:101EB000879576956795ECCF81E04617570718F020
:101EC00080E0089581E00895EF92FF920F931F93B1
:101ED000CF93DF931F92CDB7DEB77C01FC01008169
:101EE0001181C80169830E94DA2D6981681719F090
:101EF000C8010E94E22DC7010F90DF91CF911F9181
:101F00000F91FF90EF9008952F923F924F925F9222
:101F10006F927F928F929F92AF92BF92CF92DF92F9
:101F2000EF92FF920F931F93CF93DF93CDB7DEB75E
:101F3000E3970FB6F894DEBF0FBECDBF9091D705E3
:101F4000923089F038F4992309F46AC1913009F488
:101F500088C0D1C5943009F46CC508F453C09530DD
:101F600009F4B6C5C8C5883009F04CC081E080933B
:101F7000D705D09087082EE02D1508F4BCC5109128
:101F80008808173008F0B7C501E00D0DE02EF12CE0
:101F9000C70130E1139F800D911D11249C01220F78
:101FA000331F820F931F8C5F994F0E944006882336
:101FB00019F0009387089FC51F5F70E1179F5001BC
:101FC000112495012D0D311DC901880F991F820F14
:101FD000931F8C5F994F0E944006811110C0EA0C3C
:101FE000FB1CC701880F991F8E0D9F1D8C5F994F99
:101FF0000E944006882309F47EC500938708109349
:10200000880879C5803231F118F4803131F073C518
:102010008034A9F0803861F06EC580918808282F3F
:1020200030E02630310514F48F5F06C087E004C02D
:102030008091880881118150809388085CC58091C7
:102040008708282F30E02E30310514F48F5F06C04A
:102050008FE004C0809187088111815080938708A8
:102060004AC5883099F028F4843009F044C582E0EC
:10207000CEC0803209F4CEC0803409F03CC58091D6
:10208000890890E001966DE070E0D8C06091890801
:102090006D3008F030C5CE0101960E94F420898190
:1020A000811129C560918908683008F041C0CE01CE
:1020B00001960E94F42089818130D1F180918908B4
:1020C00097E0899FF0011124EC5DFE4F448150E0C0
:1020D00020918208309183082417350748F1241B8A
:1020E000350B309383082093820890918808E09103
:1020F0008708F0E0A0E19A9FE00DF11D11249F01F7
:10210000220F331FE20FF31FE952FA4FDF019D96B2
:102110009EE095A7877011968C9311978FEF12967A
:102120008C9382E08093D705109289080E94E72063
:10213000F0908908BAE0FB1609F467C0BF1520F0DB
:10214000E8E0FE1650F4D7C4FBE0FF1609F447C0E0
:102150002CE0F21609F459C0CEC480918808009191
:10216000870810E030E1839F000D111D11245801F4
:10217000AA0CBB1C6501C00ED11EF601EB5FF94F26
:1021800080810E94BE20862F90E0880F991F63E017
:1021900070E00E94732E80918208909183088617C8
:1021A000970708F4A8C4F601E852FA4F85A598E00D
:1021B000F91611F090E401C090E80A0D1B1DF8011A
:1021C000E852FA4F892B85A7809182089091830865
:1021D000861B970B90938308809382088CC4809110
:1021E000F7059091F805DC01ED91FC91609186086E
:1021F00070E00190F081E02D0EE718E024E837E070
:1022000048ED55E0099583E002C084E05EC4809308
:10221000D7051CC480918908811117C08CE018C0B3
:10222000803279F0803421F0883009F064C413C022
:102230008091890890E0019666E070E00E94732E1C
:1022400007C080918908882311F0815001C085E082
:102250008093890850C410918908153008F0DFC3B5
:1022600010927F0810927E081092830810928208C4
:10227000109286081092850810928408CE018596E7
:102280000E94FA0ECE0101960E94FA0E1092F605F7
:10229000123009F4E3C020F4113009F44AC006C03A
:1022A000133009F45CC1143009F4EEC181E08DA350
:1022B0008EA365E8CE0185960E94E70E62E4CE010A
:1022C00085960E94E70E65E0CE0185960E94E70E96
:1022D00068E4CE0185960E94E70E62E8CE018596FD
:1022E0000E94E70E65ECCE0185960E94E70E63E83A
:1022F000CE0185960E94E70E67E4CE0185960E9486
:10230000E70E65E0CE0185960E94E70EADA0BEA067
:10231000CFA0D8A4E9A4FAA40BA51CA52DA53EA581
:102320004FA558A969A97AA98BA90E941A2384E10B
:102330008DC011E01DA31EA362E8CE0185960E9408
:10234000E70E67E4CE0185960E94E70E61E8CE01B4
:1023500085960E94E70E62E4CE0185960E94E70E04
:1023600062E8CE0185960E94E70E64E4CE01859670
:102370000E94E70E63E0CE0185960E94E70E62ECB4
:10238000CE0185960E94E70E62E0CE0185960E94FE
:10239000E70E64ECCE0185960E94E70E198386E075
:1023A0008A8363E0CE0101960E94E70E63E4CE01CA
:1023B00001960E94E70E62E8CE0101960E94E70EA8
:1023C00061E4CE0101960E94E70E61E8CE0101961C
:1023D0000E94E70E69E4CE0101960E94E70E63E0D9
:1023E000CE0101960E94E70E62ECCE0101960E949A
:1023F000E70E62E0CE0101960E94E70E64ECCE018A
:1024000001960E94E70EADA0BEA0CFA0D8A4E9A47B
:10241000FAA40BA51CA52DA53EA54FA558A969A9F1
:102420007AA98BA90E941A23A980BA80CB80DC806C
:10243000ED80FE800F81188529853A854B855C8566
:102440006D857E858F850E941A2389E18093F90529
:102450008AE08093FA058BEF95E0A5C111E01DA3FA
:102460001EA365E8CE0185960E94E70E62E4CE01C8
:1024700085960E94E70E62E0CE0185960E94E70EE7
:1024800062E4CE0185960E94E70E62E8CE01859651
:102490000E94E70E63E4CE0185960E94E70E63E09A
:1024A000CE0185960E94E70E62ECCE0185960E94D1
:1024B000E70E62E0CE0185960E94E70E63ECCE0146
:1024C00085960E94E70E8EE089831A8364ECCE0124
:1024D00001960E94E70E65E8CE0101960E94E70E84
:1024E00062E4CE0101960E94E70E63E0CE01019600
:1024F0000E94E70E62E4CE0101960E94E70E63E8B7
:10250000CE0101960E94E70EADA0BEA0CFA0D8A438
:10251000E9A4FAA40BA51CA52DA53EA54FA558A975
:1025200069A97AA98BA90E941A23A980BA80CB80B5
:10253000DC80ED80FE800F81188529853A854B85EA
:102540005C856D857E858F850E941A2384E180934A
:10255000F9058AE08093FA058DEF95E024C102E049
:102560000DA317E01EA362E0CE0185960E94E70E40
:102570006CE4CE0185960E94E70E62E8CE01859656
:102580000E94E70E67ECCE0185960E94E70E66E09A
:10259000CE0185960E94E70E62ECCE0185960E94E0
:1025A000E70E62E8CE0185960E94E70E64ECCE014C
:1025B00085960E94E70E61E0CE0185960E94E70EA7
:1025C00063E4CE0185960E94E70E09831A8362E0D8
:1025D000CE0101960E94E70E6CE4CE0101960E94A6
:1025E000E70E62E8CE0101960E94E70E67ECCE018D
:1025F00001960E94E70E66E0CE0101960E94E70E6A
:1026000062E4CE0101960E94E70E62E8CE010196D7
:102610000E94E70E64E4CE0101960E94E70E61E09D
:10262000CE0101960E94E70E63ECCE0101960E9456
:10263000E70EADA0BEA0CFA0D8A4E9A4FAA40BA534
:102640001CA52DA53EA54FA558A969A97AA98BA9B6
:102650000E941A23A980BA80CB80DC80ED80FE80A6
:102660000F81188529853A854B855C856D857E852A
:102670008F850E941A2389E18093F90588E0809371
:10268000FA058FEF95E08FC01DA31EA362E0CE0177
:1026900085960E94E70E63ECCE0185960E94E70EB8
:1026A00064E8CE0185960E94E70E65E4CE0185962A
:1026B0000E94E70E65E0CE0185960E94E70E62E477
:1026C000CE0185960E94E70E65E8CE0185960E94B0
:1026D000E70E63E4CE0185960E94E70E65E0CE0129
:1026E00085960E94E70E63E4CE0185960E94E70E70
:1026F0008DE0898386E08A8363E0CE0101960E94A3
:10270000E70E65ECCE0101960E94E70E63E8CE016C
:1027100001960E94E70E62ECCE0101960E94E70E40
:1027200063E0CE0101960E94E70E61ECCE010196B6
:102730000E94E70E62E0CE0101960E94E70E63EC74
:10274000CE0101960E94E70E63E8CE0101960E9439
:10275000E70EADA0BEA0CFA0D8A4E9A4FAA40BA513
:102760001CA52DA53EA54FA558A969A97AA98BA995
:102770000E941A23A980BA80CB80DC80ED80FE8085
:102780000F81188529853A854B855C856D857E8509
:102790008F850E941A238EE18093F90586E180934C
:1027A000FA0581E096E09093F8058093F70580E0C4
:1027B00090E02FEFFC01E952FA4F15A616A627A7C5
:1027C00003968038B1E09B07A9F720E0EFE05E2E8A
:1027D0006624639422242A94F2E07F2E8091F605E9
:1027E000281708F0FFC0223018F4822F90E002C0B2
:1027F00081E090E0589EA001599E500D1124FA01ED
:10280000E952FA4F7F018F010F5F1F4F8181D8017D
:1028100011966C9130E0A1E05A01F80192813917CC
:1028200008F0AFC03A3018F4432F50E002C049E03E
:1028300050E04A0D5B1DFA01E352FA4FE0819E2FF2
:102840009295969596959370913041F060F0923004
:1028500041F040E0933041F45FEF07C040E051E0C9
:1028600004C041E001C04FEF50E0A111892E912C2E
:10287000EF734E2E941408F081C0E82FF0E0B0E121
:102880006B9FE00DF11D11246F01CC0CDD1CD601F6
:10289000AE0FBF1FA952BA4F9D96BC91992371F1FB
:1028A00072E0871601F1AB2FAB7FA33031F0B5306A
:1028B00021F0A5EFAB0FA33010F478E001C070E079
:1028C0009130A9F0A3E08A1691F0ACEFAB0FA330E2
:1028D00070F0A7EFAB0FA23050F0A4EFAB0FA23017
:1028E00030F0A0E005C0913009F003C178E0A4E029
:1028F000A72B923099F0882089F004C073E08712EA
:10290000F8C0ACE0B33051F0B63041F078EF7B0F57
:10291000743020F0BD3011F070E001C072E0372E4D
:102920003A2A933079F071E0871661F0B43051F0B3
:10293000A9EFAB0FA23030F0BA50A1E0B43018F0DC
:10294000A0E001C0A1E0A329A350AD3028F4B0E07D
:10295000A05FBE4F8C9001C0812CEC0DFD1DE95293
:10296000FA4FDF019D9685A611961C92119712963B
:102970002C929394850F640F892E7CCF3F5FA0E04B
:102980004CCF9181D7011196EC91F0E0B0E19B9F83
:10299000E00DF11D1124AF01440F551FE40FF51F89
:1029A000E952FA4FDF019D9665A611961C92119788
:1029B00012962C9290E0E0E16E9F800D911D112403
:1029C000FC01EE0FFF1F8E0F9F1FFC01E952FA4F13
:1029D000DF019D9675A611961C92119712962C9266
:1029E0002F5FFCCE809189088093030610928608A1
:1029F0008091FA0590E090938308809382088091FB
:102A0000F90590E0909385088093840888E080938E
:102A1000870884E0809388081092890855C0153093
:102A200009F069C090918A0881E0892780938A081B
:102A300062C0843011F481E048C0883009F05BC086
:102A4000809189088C3029F41092D705109289085A
:102A500052C08A3009F04FC08091880800918708E1
:102A600010E0F0E18F9F000D111D1124C801880FA7
:102A7000991F080F191FF801EB5FF94F80810E9421
:102A8000BE2066958091820890918308860F911DE3
:102A90009093830880938208F801E952FA4FDF018E
:102AA0009D9615A611961C9211978FEF12968C93F6
:102AB00085E08093A40180E4809390008CE195E10F
:102AC000909399008093980082E08093D70513C07B
:102AD000883011F0843079F480918608E091030603
:102AE000F0E0E557F74F9081981708F0ADCF80835D
:102AF000ABCF78E0EACEE3960FB6F894DEBF0FBE18
:102B0000CDBFDF91CF911F910F91FF90EF90DF909C
:102B1000CF90BF90AF909F908F907F906F905F907D
:102B20004F903F902F900895DF92EF92FF920F9376
:102B30001F93CF93DF937C01D22E8B01040F111DC5
:102B4000EB0177FF0EC0C0E0D0E00BC0C417D50783
:102B50007CF42D2DAE01B70184EC95E00E94EF1EB0
:102B60002196A801013411058CF340E450E0EECF2A
:102B7000DF91CF911F910F91FF90EF90DF9008951B
:102B8000CF92DF92EF92FF920F931F93CF93DF9339
:102B90006B01122FEC017C01E40EF11CCE15DF0558
:102BA00044F4202F412FB601CE010E9494152196A6
:102BB000F5CFDF91CF911F910F91FF90EF90DF90B4
:102BC000CF900895CF92DF92EF92FF920F931F93D1
:102BD000CF93DF93EC016B01142FF22E00E065E040
:102BE00070E00E94C015EE24E3940F2D212FA60162
:102BF00065E070E0CE010E94821DDF91CF911F91B0
:102C00000F91FF90EF90DF90CF900895E091C00575
:102C1000F091C1050190F081E02D682F80EC95E0E6
:102C20000994FC018091AD01811103C08FEF9FEFEA
:102C300008959FB7F89482E08093E9002091F20014
:102C400030E01216130614F421E030E021153105AE
:102C500059F0289884E68093AC018091F10080833C
:102C60008091F200882319F09FBFC90108958BE677
:102C70008093E800F9CF2FB7F89483E08093E900C0
:102C80009091E800892F807295FF04C09091F20026
:102C900080E4891B2FBF08958091B30181110DC07D
:102CA00082E08093AF0184E08093B0011092B20182
:102CB0001092B10181E08093B3018FEA91E0089511
:102CC000CF93DF931F92CDB7DEB76983DC01ED911F
:102CD000FC910280F381E02D41E050E0BE016F5F86
:102CE0007F4F09950F90DF91CF91089583E08093F6
:102CF000E9008091F200882319F08AE38093E800CC
:102D000008950E943B1690E00895CF93DF931F92A1
:102D1000CDB7DEB7FC018485958597FD05C02FEF03
:102D20003FEF358724870BC0CE0101960E94111614
:102D3000019719F4898190E002C08FEF9FEF0F9007
:102D4000DF91CF9108950F931F93CF93DF931F923D
:102D5000CDB7DEB78C01FC018485958597FF0EC049
:102D6000CE0101960E941116019719F4298130E0D5
:102D700002C02FEF3FEFF80135872487F8018485E3
:102D800095850F90DF91CF911F910F910895FC01D0
:102D90008485958597FD0BC09FB7F89482E080935A
:102DA000E9008091F2009FBF90E0019608959FB7DF
:102DB000F89482E08093E9008091F2009FBF90E058
:102DC00008958F929F92AF92BF92CF92DF92EF922F
:102DD000FF920F931F93CF93DF935C016B017A01F6
:102DE00080910B01882309F45BC08091AD01882399
:102DF00009F456C08091AB0180FF05C08091E000CE
:102E000082608093E000E70110E00AEF83E0882E03
:102E10009AE3992E2097D9F10E943B1681110AC09E
:102E2000015009F43DC061E070E080E090E00E9454
:102E3000E41CF0CF282F30E0C217D3070CF48C2FFE
:102E40004FB7F8948092E9009091E80095FF1DC07B
:102E5000282F30E0C21BD30BF601982F915020F0A1
:102E600081918093F100FACFC20ED31E112319F085
:102E70009092E80009C08091E80085FD06C090921C
:102E8000E80011E0209709F010E04FBFC3CF111107
:102E9000C3CF5D9884E68093AE011E141F0444F0F6
:102EA00081E090E0F5019383828380E090E001C0AF
:102EB000C701DF91CF911F910F91FF90EF90DF90AD
:102EC000CF90BF90AF909F908F900895DF92EF9238
:102ED000FF920F931F93CF93DF93D82E8A017B012C
:102EE000E40EF51EEB01CE15DF0571F0D7FE03C031
:102EF000FE01849101C088810E945F232196811187
:102F0000F2CF8FEF9FEF01C0C801DF91CF911F91EA
:102F10000F91FF90EF90DF9008950F931F93CF9341
:102F2000DF931F92CDB7DEB782E0898342E450E0A1
:102F30006BE373E080E80E9466170E944C16DC0188
:102F400012960D911C9113970115110569F0D80186
:102F5000ED91FC910280F381E02DBE016F5F7F4F08
:102F6000C801099597FF07C089810F90DF91CF9124
:102F70001F910F910895F80100851185E5CF9C01FF
:102F8000240F311D1216130684F5803891056CF557
:102F9000FC0197FF02C0E0E0F0E02138310514F0B9
:102FA00020E830E02E1BAB014770552781E090E010
:102FB00001C0880F4A95EAF7809577FF02C0695FE4
:102FC0007F4F93E0759567959A95E1F77695762F03
:102FD000662777956795E60FF71FE054FE4F21505F
:102FE00020F0908198239193FACF0895EF92FF9269
:102FF0000F931F93CF93DF93EC018B01E42EF22EFE
:103000006034710510F40E94BF17B8016F0D711D77
:10301000615071096034710520F44E2DCE010E947B
:10302000BF1720E04F2DB801CE010E949415CE01AC
:103030008E0D911D20E04F2DB8010197DF91CF91AA
:103040001F910F91FF90EF900C9494152091CA0559
:10305000282329F49091C905982381E009F480E0A0
:103060000895009769F0FC0101900020E9F731977D
:10307000AF01481B590BBC0180EC95E00C948D1CF2
:1030800080E090E008958F929F92AF92BF920F934D
:103090001F93CF93DF93CDB7DEB7A1970FB6F89408
:1030A000DEBF0FBECDBF19A2423008F44AE08E0148
:1030B0000F5D1F4F842E912CA12CB12CA5019401E2
:1030C0000E94222EE62FB901CA0101501109EA30EF
:1030D00014F4E05D01C0E95CD801EC93232B242BB0
:1030E000252B61F7C8010E943118A1960FB6F894FC
:1030F000DEBF0FBECDBFDF91CF911F910F91BF906B
:10310000AF909F908F9008952F923F924F925F9231
:103110006F927F928F929F92AF92BF92CF92DF92E7
:10312000EF92FF920F931F93CF93DF9300D000D0C5
:10313000CDB7DEB78C017B01242F30E03C832B839D
:1031400081E090E05C01A21AB30AC90191958195D2
:1031500091091C01220C331CA901460F571F20E0C6
:10316000B80184EC95E00E94EF1EA7018B819C8141
:10317000481B590B20E0B80184EC95E00E94EF1E3B
:103180006B817C81600F711F20E0A70184EC95E0CA
:103190000E94EF1EB801EB81FC816E1B7F0B20E0CB
:1031A000A70184EC95E00E94EF1EC12CD12C21E0F8
:1031B00030E03A8329832B813C81C216D3060CF080
:1031C0006EC0B7FC0AC08B819C8101979C838B8366
:1031D00092E0290E311CA20CB31CEFEFCE1ADE0ACE
:1031E00029813A812E5F3F4F3A832983A20EB31E75
:1031F0003601600E711E20E08B809C808E0C9F1C1F
:10320000A401B30184EC95E00E94EF1E28014C1844
:103210005D0820E0A401B20184EC95E00E94EF1E5D
:1032200020E047018B819C81881A990AA401B3018F
:1032300084EC95E00E94EF1E20E0A401B20184EC32
:1032400095E00E94EF1E46018E0C9F1C20E0A40119
:103250006B807C80600E711EB30184EC95E00E944F
:10326000EF1E20E0A4012801EB81FC814E1A5F0AC9
:10327000B20184EC95E00E94EF1E47018C189D0876
:1032800020E0A401B30184EC95E00E94EF1E20E051
:10329000A401B20184EC95E00E94EF1E8CCF0F9048
:1032A0000F900F900F90DF91CF911F910F91FF9092
:1032B000EF90DF90CF90BF90AF909F908F907F90D6
:1032C0006F905F904F903F902F9008955F926F9214
:1032D0007F928F929F92AF92BF92CF92DF92EF92A6
:1032E000FF920F931F93CF93DF93EC018B017A0131
:1032F000A901461B570B57FF03C051954195510932
:10330000C7018C1B9D0B97FF03C091958195910977
:10331000552453948417950714F0512C0AC09E2D00
:103320008F2D7901292F382F9C2F8D2FE801092F00
:10333000182FEC16FD0654F4902F812F8901292FA8
:10334000382F9C2F8D2FE701E92EF82E37016C1AAC
:103350007D0A5901A01AB10AB7FE03C0B194A19425
:10336000B108630177FE03C08FEFC81AD80AD5945D
:10337000C7940217130714F08FEF01C081E0882E65
:10338000880F9908EC16FD06B4F020E0552019F0DE
:10339000AE01B80102C0A801BE0184EC95E00E9414
:1033A000EF1ECA18DB08D7FE04C0080D191DC60C95
:1033B000D71C2196E7CFDF91CF911F910F91FF90FE
:1033C000EF90DF90CF90BF90AF909F908F907F90C5
:1033D0006F905F9008951F920F920FB60F92112475
:1033E0008F939F938091E1009091E100937F909360
:1033F000E10083FF0FC01092E90091E09093EB0091
:103400001092EC0092E39093ED001092AD0198E0E1
:103410009093F00082FF20C093E09093E900909198
:10342000F200992319F09AE39093E8009091AE018D
:10343000992339F09091AE0191509093AE01992368
:1034400089F19091AC01992339F09091AC019150A0
:103450009093AC01992341F184FF10C08091E20068
:103460008E7E81608093E2008091E1008F7E809368
:10347000E1008091AB018E7E806111C080FF16C09B
:103480008091E2008E7E80618093E2008091E10075
:103490008E7E8093E1008091AB018E7E816080936F
:1034A000AB0104C05D9ACDCF289AD6CF9F918F9162
:1034B0000F900FBE0F901F9018951F920F920FB68E
:1034C0000F921124CF92DF92EF92FF920F931F93EE
:1034D0002F933F934F935F936F937F938F939F931C
:1034E000AF93BF93EF93FF93CF93DF93CDB7DEB747
:1034F0006C97DEBFCDBF1092E9008091E80083FF9A
:10350000EDC168E0CE0145960E948D2382EF809345
:10351000E8008D8987FF05C09091E80090FFFCCFFF
:1035200003C09EEF9093E800982F907609F0C6C0F4
:103530009E892F89188D91110CC0803829F48091B3
:10354000AA018093F10002C01092F1001092F100E4
:1035500048C1422F50E0512B913051F4811141C1AB
:103560004130510509F03DC18091AA018D7F0BC00A
:10357000933061F4811135C14130510509F031C1F9
:103580008091AA0182608093AA012BC1953041F4F9
:103590008091E80080FFFCCF20682093E30021C1E8
:1035A000963009F05FC0EB8CFC8C1092E900109211
:1035B000A8011092A701123091F51092A601109265
:1035C000A5010E948D1799E0BE016F5F7F4FDB015F
:1035D000E92F1D92EA95E9F799831A8391E09E837A
:1035E00090EA98879AEF99872091A7013091A801D6
:1035F000275F3F4F3C832B838D831092E90010920D
:10360000A8011092A701F092A601E092A50149E05D
:1036100050E080E00E9466170E948D17E2C0F09291
:10362000A601E092A5010E944C16DC011296ED90D5
:10363000FC901397E114F10409F4C0C0D701ED9197
:10364000FC910480F581E02DBE016B5E7F4FC701C8
:103650000995009719F00CF0C4C0C7C0F701E084C9
:10366000F184E8CF973009F4C0C0983021F481E0AC
:103670008093F100B6C0993009F0B3C0837009F0AF
:10368000B4C0EEE1F1E081E021E036E390819923DE
:1036900061F08093E9002093EB0091919093EC000E
:1036A0003093ED008F5F873089F78EE78093EA00D3
:1036B0001092EA008F898093AD0193C08B8D9C8D11
:1036C0001092E9001092A8011092A7019093A60110
:1036D0008093A501898D811156C08E899D89913A6B
:1036E00059F4813209F081C047E050E064E071E0B4
:1036F00080E00E94661775C0913209F076C083326F
:1037000089F4888D90E0982F88272F89822BA0E05C
:10371000B0E08093000190930101A0930201B09367
:1037200003015FC0803269F48091E80082FFFCCF22
:1037300067E084E091E00E948D238BEF8093E800A6
:1037400006C0823209F04DC08F8980930B018091B1
:10375000A901882319F0EEEFFAE002C0E0E0F8E0FA
:103760008091040190910501A0910601B09107019B
:10377000803B9440A105B10509F07BC080910B010D
:1037800080FF93C076C00E944C16DC0112960D910A
:103790001C9113970115110541F1D801ED91FC9190
:1037A0000190F081E02DBE016B5E7F4FC80109954D
:1037B000811117C0F80100851185ECCF113009F493
:1037C0004EC0133091F48F89882309F445C08230AC
:1037D00081F440E867E08FE993E00E94D02B8823D2
:1037E00021F08EEF8093E80079C081E28093EB00B6
:1037F00075C0813029F440E86BE083E993E0EDCFB8
:10380000833099F70E944C16DC011296ED90FC90E3
:1038100013978E010F5F1F4F6801E114F10479F0D7
:10382000D701ED91FC910680F781E02DB801C70129
:103830000995080F111DF701E084F184EECFD8013E
:103840001C92F60101900020E9F73197BF016C1935
:103850007D0940E0C601C1CF6DE773E002C061E8B9
:1038600073E06115710509F2FB01449150E080E8B5
:1038700040CF0FB6F894A89580916000886180933E
:103880006000109260000FBEA895EE3F2AE0F2079C
:1038900039F08091FE0A9091FF0A91838083A1CF35
:1038A0001092FF0A1092FE0A9CCFEE3F8AE0F807C2
:1038B00031F0808191819093FF0A8093FE0A87E71F
:1038C00097E7918380839BE088E10FB6F894A895F1
:1038D000809360000FBE9093600083CF6C960FB60C
:1038E000F894DEBF0FBECDBFDF91CF91FF91EF9176
:1038F000BF91AF919F918F917F916F915F914F9108
:103900003F912F911F910F91FF90EF90DF90CF90FB
:103910000F900FBE0F901F901895CF92DF92EF92ED
:10392000FF920F931F93CF93DF936C017A018B016A
:10393000C0E0D0E0CE15DF0589F0D8016D918D0192
:10394000D601ED91FC910190F081E02DC601099521
:10395000892B11F47E0102C02196ECCFC701DF91C3
:10396000CF911F910F91FF90EF90DF90CF9008952E
:103970003FB7F8948091BC019091BD01A091BE0128
:10398000B091BF0126B5A89B05C02F3F19F0019645
:10399000A11DB11D3FBFBA2FA92F982F8827820FD5
:1039A000911DA11DB11DBC01CD0142E0660F771F25
:1039B000881F991F4A95D1F708950895089580E0CA
:1039C00090E008950E948D2E8F929F92AF92BF92A9
:1039D000CF92DF92EF92FF926B017C010E94B81CA4
:1039E0004B015C01C114D104E104F104F1F00E9427
:1039F000B81CDC01CB0188199909AA09BB09883ECA
:103A00009340A105B10570F321E0C21AD108E10885
:103A1000F10888EE880E83E0981EA11CB11CC11429
:103A2000D104E104F10419F7DDCFFF90EF90DF90AE
:103A3000CF90BF90AF909F908F9008951F920F925C
:103A40000FB60F9211242F933F938F939F93AF93B1
:103A5000BF9380919E0190919F01A091A001B09190
:103A6000A1013091BB0123E0230F2D3720F40196F3
:103A7000A11DB11D05C026E8230F0296A11DB11D91
:103A80002093BB0180939E0190939F01A093A0017E
:103A9000B093A1018091BC019091BD01A091BE01A4
:103AA000B091BF010196A11DB11D8093BC019093FF
:103AB000BD01A093BE01B093BF01BF91AF919F9193
:103AC0008F913F912F910F900FBE0F901F901895DF
:103AD0002D9A0895BC0180E090E00C94E41C8FB115
:103AE0008095807F669B88601C9B846008951092FF
:103AF000A2013E983F9808953E9A3F9A81E08093B4
:103B0000A20108952F923F924F925F926F927F92FF
:103B10008F929F92AF92BF92CF92DF92EF92FF92DD
:103B20000F931F93CF93DF93CDB7DEB72D970FB6CB
:103B3000F894DEBF0FBECDBFED82E22EF12C9C01CA
:103B40002E0D3F1D37FD32C1803891050CF02EC17E
:103B50009B01200F311D37FD29C1603471050CF028
:103B600025C1DB0177FF04C0AA27BB27A61BB70B23
:103B7000A770BB279B0177FF02C0295F3F4F13E06F
:103B8000359527951A95E1F777FF08C0215031093F
:103B900068E070E0FB01EA1BFB0BDF01E02FE6951C
:103BA000E695E695CE2ED12C077019F0FFEFCF1ACF
:103BB000DF0AB9017695762F662777956795680FA6
:103BC000791F60547E4F8601020F131F19870887E3
:103BD000C12CD12CF8E0AF2EB12C85010A1B1B0B98
:103BE0001F830E83088519852017310709F4DEC06D
:103BF0002830310509F4DAC02F3F1FEF31070CF4EC
:103C0000CAC08B0100581F4F1D870C874B013B0119
:103C10002B011C011C830B831A8309831B861A86C4
:103C20000A851B850E151F050CF0B5C010E821167E
:103C3000310409F4B0C037FC89C02F3FEFEF3E07D5
:103C400009F4B0C00A851B850C0D1D1DFD81F130E6
:103C500079F4F801E40FF51FE491F0E08F010A2EEA
:103C600001C0000F0A94EAF7F301B0800B2925C0C8
:103C7000FD81F11114C0F801E40FF51FE491F0E0AB
:103C80000A2E02C0EE0FFF1F0A94E2F78F01009583
:103C90001095F401A080B12C0A211B210EC0F8015F
:103CA000E40FF51FE491F0E08F010A2E01C0000F30
:103CB0000A94EAF7F201B0800B250083109709F40B
:103CC00045C02730310509F441C00A851B850C0D1C
:103CD0001D1DFD81F13089F4F801E40FF51FE49119
:103CE0000E2F10E00E8002C0159507950A94E2F79A
:103CF000EC85FD85B0800B2928C0FD81F11115C030
:103D0000F801E40FF51FE4910E2F10E00E8002C0C1
:103D1000159507950A94E2F700951095E981FA81C7
:103D2000A080B12C0A211B2110C0F801E40FF51F5F
:103D3000E4910E2F10E00E8002C0159507950A94AD
:103D4000E2F7EB81FC81B0800B2500830A851B859F
:103D50000F5F1F4F1B870A870C851D850F5F1F4F45
:103D60001D870C8709811A810F5F1F4F1A830983F2
:103D70000B811C810F5F1F4F1C830B831FEF211AC8
:103D8000310AEFEF4E1A5E0AFFEF6F1A7F0A0FEF4C
:103D9000801A900A45CF2F5F3F4F60587F4FCE0C5F
:103DA000DF1C20CF109709F090CFD0CF2D960FB603
:103DB000F894DEBF0FBECDBFDF91CF911F910F9161
:103DC000FF90EF90DF90CF90BF90AF909F908F903B
:103DD0007F906F905F904F903F902F900895603844
:103DE0007105D0F440345105B8F4E7EAF3E080E11E
:103DF000849FD001A0781124A60F4770E40FF11D15
:103E00008491A054BE4F222319F06C91862B03C0DD
:103E100080956C9186238C9308952F923F924F92B8
:103E20005F926F927F928F929F92AF92BF92CF924A
:103E3000DF92EF92FF920F931F93CF93DF93CDB753
:103E4000DEB729970FB6F894DEBF0FBECDBFFC01D9
:103E50006A3069F425898189928938E0239F800D31
:103E6000911D1124928B818B108A1786AAC06D3008
:103E700009F4A7C099878887F588348823886188E2
:103E800072880785108900381105C4F0A885B985A6
:103E900055962C915597422F50E01F968D919C91ED
:103EA0005097B6E02B9F800D911D1124E885F98570
:103EB000908B8787268921116EC083C0F0E46F162E
:103EC000710424F7C80125E0F29E800D911D112494
:103ED00018161906DCF68F2D90E09C838B83C301A6
:103EE000A8E0FA9E800D911D11241816190674F68B
:103EF000B5E06B9FB0011124FB01E155FC4FFA8343
:103F0000E98330E08885998504969E838D83E981D5
:103F1000FA81E490353009F4E12C430188E0482E21
:103F2000E0FC02C0532C01C0522C51100BC03210C7
:103F300009C0E6944A948B819C81880E991E411099
:103F4000EFCF1BC068018C2D801B8F1590F754019B
:103F50008A2D88198F1568F4252DA501B6018D814C
:103F60009E813F830E94EF1E9FEFA91AB90A3F81ED
:103F7000EFCFAFEFCA1ADA0AE6CF3F5FEB81FC81E1
:103F80000E0F1F1F89819A8101969A83898336308B
:103F900009F0BDCF7BCF6AEF64039001659F300DC0
:103FA000112420583F4F281739075CF4A885B9859C
:103FB000ED91FC9111970190F081E02D6AE0CD0127
:103FC000099581E090E029960FB6F894DEBF0FBE08
:103FD000CDBFDF91CF911F910F91FF90EF90DF90B8
:103FE000CF90BF90AF909F908F907F906F905F9099
:103FF0004F903F902F9008950F931F93CF93DF938F
:1040000000D000D01F92CDB7DEB749835A836B83AF
:104010007C838D83F8016081718162337105B8F40E
:1040200085E0869FA001879F500D1124D901A40F20
:10403000B51FFE01319601900D928A95E1F7F801C6
:104040008081918101969183808381E001C080E02D
:104050000F900F900F900F900F90DF91CF911F91C5
:104060000F9108952F923F924F925F926F927F929D
:104070008F929F92AF92BF92CF92DF92EF92FF9278
:104080000F931F93CF93DF93CDB7DEB728970FB66B
:10409000F894DEBF0FBECDBF6E834F83322EE8860D
:1040A0002601282E82E3821510F482E3282EC02EEA
:1040B000D12CEE24FF24EC18FD08612C712C362D38
:1040C000621408F042C0832F68850E94532E91111C
:1040D00008C0EC18FD08232DE3E0E31518F423E0F5
:1040E00001C020E04E814B3008F04AE06F816B3018
:1040F00008F06AE070E0641B71096F5F7F4FC301D5
:104100000E94732E480FF201668D832F0E94532E5A
:104110007E2DFD82EC82F0E42F9F9001112484E03B
:10412000489FF0011124E057F74F51815F73522BE4
:104130004F70EC18FD0884019501692F8D810E9454
:10414000FC1FEFEF6E1A7E0ABACF28960FB6F894CE
:10415000DEBF0FBECDBFDF91CF911F910F91FF90BA
:10416000EF90DF90CF90BF90AF909F908F907F9017
:104170006F905F904F903F902F900895CF93DF9373
:10418000CDB7DEB727970FB6F894DEBF0FBECDBF11
:10419000877097E0899FF0011124EC5DFE4F87E066
:1041A000DE01119601900D928A95E1F729813A81FD
:1041B0004B815C816D817E818F8190E027960FB667
:1041C000F894DEBF0FBECDBFDF91CF91089582E09E
:1041D0008093A40180E48093900087E597E090931A
:1041E00099008093980008952F923F924F925F928A
:1041F0006F927F928F929F92AF92BF92CF92DF92F7
:10420000EF92FF920F931F93CF93DF93CDB7DEB75B
:1042100027970FB6F894DEBF0FBECDBF8C01562E88
:10422000FC01108213823090870840908808C32CCC
:10423000D12CF0E14F9E500111247501EC0CFD1CB6
:104240004701880C991CC4018E0D9F1DFC01E95289
:10425000FA4F25A4662E712C2EE0221212C0FC010A
:10426000EB5FF94F80810E94BE2029833A834B8304
:104270005C836D837E838F8345E0451508F094C190
:1042800019C087E0E4E2F1E0DE01119601900D92A1
:104290008A95E1F785E0861760F0E8E16E9FC0013E
:1042A00011248951974FF80192838183211015C001
:1042B00017C068E0C30173E0880F991F7A95E1F792
:1042C0008158974FF80192838183F7E0F51508F440
:1042D00001C1211002C0311030C181E0F80180839A
:1042E00087E0869DF001879DF00D1124EC5DFE4F67
:1042F0008481F8018383F9E05F120BC0F401EE0DB5
:10430000FF1DEB5FF94F808187708650823008F483
:1043100010C1F801838190E02091820830918308D8
:104320002817390710F481E08083852D90E08D30C7
:10433000910508F0CCC0FC01E35AFF4F0C94872E86
:1043400087E6F801848385E7858381E6868382E7B3
:10435000878384E635C083E6F801848381E685831C
:104360008EE6868387839FE6908712C089E6F801F0
:10437000848383E6858385E69CC085E6F801848393
:104380009CE69583868383E6878384E7808782E73C
:104390008187128613C183E7F80184838EE68583C3
:1043A00089E6868380E7878385E6F0CF8DE6F8018E
:1043B000848381E6858387E6868389E6878383E62F
:1043C00080871186FBC087E7F801848381E68583B7
:1043D00084E7868385E6878382E7F2CF86E6F80165
:1043E000848389E6858382E7868385E66DC0F40150
:1043F000EE0DFF1DE952FA4F85A58E3009F067C01A
:1044000081E090E0F8E05F1202C080E090E0FE0101
:10441000E80FF91F86819BE2F8019483823049F10D
:1044200060F4882309F1813009F051C083E7F80175
:10443000858380E7868384E647C0833009F1843032
:1044400009F045C083E7F801848380E7858384E62B
:10445000868380E2878381E6808795E7918792E76C
:10446000928783871486AAC084E6F80185838DE647
:1044700004C082E7F80185838EE6868387E624C040
:1044800083E7F801848388E685838FE6868383E665
:1044900087838BE695CF83E7F801848385E6858360
:1044A0008CE6868311C087E6F80184838FE68583D6
:1044B00081E28683178282C081E7F801848385E7E1
:1044C000858389E6868384E78783108677C0F80131
:1044D000148274C0F9E0F51528F1F401EE0DFF1D0A
:1044E000EB5FF94F208130E0F8E05F1619F080E4CF
:1044F00090E002C080E890E028233923232B21F0AC
:1045000081E0F8018083F7CEFEE02F12F9CF862FED
:1045100090E0880F991F63E070E00E94732EF8010D
:104520006383E9CEFAE05F12E6CE2EE0221609F4AC
:10453000F0CE81E0F8018083ECCE442009F4CDCEAA
:104540003A94232D30E0A20EB31EF501EE0FFF1FAB
:10455000CF018A0D9B1DFC01E952FA4F85A58111FF
:10456000BCCE4A94F0E14F9EC0011124C80ED91E62
:10457000F601EE0FFF1FAF014C0D5D1DFA01E95270
:10458000FA4F45A54111A9CE820F931FFC01EE0FF2
:10459000FF1F8E0F9F1FFC01E952FA4F81E095A586
:1045A00091119CCE80E09ACEF8E15F9EC00111246B
:1045B0008951974FF801928381838FCEC801279646
:1045C0000FB6F894DEBF0FBECDBFDF91CF911F9124
:1045D0000F91FF90EF90DF90CF90BF90AF909F90A2
:1045E0008F907F906F905F904F903F902F900895A5
:1045F00080E0E0ECF1E081118FEF00248193819362
:10460000819381930394D1F7E0ECF5E0128A118A4B
:10461000108A17860895E0ECF1E0A0E0B8E0008091
:104620000EBC8111012C1197A0FDFDCF0192B9F7AD
:104630000DB40895AF92BF92CF92DF92EF92FF92A6
:104640000F931F93CF93DF93CDB7DEB72F970FB69E
:10465000F894DEBF0FBECDBFA982BA82CB82DC82C6
:10466000ED82FE820F83188729873A874B875C8704
:104670006D877E878F878091F605823078F49FE082
:10468000989FD0011124FE013196A852BA4F019093
:104690000D929A95E1F78F5F8093F6052F960FB6EE
:1046A000F894DEBF0FBECDBFDF91CF911F910F9168
:1046B000FF90EF90DF90CF90BF90AF900895409122
:1046C000A7015091A8012091A5013091A6014217A0
:1046D0005307B4F49091E8009570E1F39091E800ED
:1046E00092FD19C08093F1008091A7019091A801DB
:1046F00001968F739927892B19F48EEF8093E80028
:104700008091A7019091A80101969093A8018093B0
:10471000A70181E0089580E00895615030F0209174
:10472000F100FC0120830196F8CF289884E680935D
:10473000AC010895CF93DF93CDB7DEB7E3970FB603
:10474000F894DEBF0FBECDBF789484B5826084BD7F
:1047500084B5816084BD85B5826085BD85B5816085
:1047600085BD80916E00816080936E001092810003
:1047700080918100826080938100809181008160BE
:10478000809381008091800081608093800080917F
:10479000910082608093910080919100816080936C
:1047A0009100809190008160809390008091C10081
:1047B00084608093C1008091C10082608093C100B9
:1047C0008091C10081608093C1008091C3008160AD
:1047D0008093C3008091C00082608093C00080916C
:1047E000C20081608093C20080917A0084608093CF
:1047F0007A0080917A00826080937A0080917A00BA
:10480000816080937A0080917A00806880937A003A
:104810001092AD011092AA011092AB018091D700C5
:1048200081608093D70080EA8093D80089B5806149
:1048300089BD89B5826089BD09B400FEFDCF61E004
:1048400070E080E090E00E94E41C8091D8008F7CB2
:1048500080618093D8008091E000807F8093E000A9
:104860008091E1008E7E8093E1008DE08093E200F4
:10487000559A209AEEEFFFE7859194918B3F9C4DDE
:1048800019F481E08093A90181EC80937C0085B1CB
:10489000806F85B984B1877E84B984B1876E84B90D
:1048A0005E9A5F988AB1806D8AB9769A6E9881B364
:1048B000806F81BB899880B38D7080BB80E58CBD93
:1048C00081E08DBD85E090E00E946A1D5F9A85E0E1
:1048D00090E00E946A1D5E985C98E4E8F1E08DE04B
:1048E0008E0F94919EBD00000DB407FEFDCF319652
:1048F0008E13F7CF5C9A81E8809364008091650005
:1049000081608093650080E00E940B230E946F1DF0
:1049100087FF15C05C9885EA8EBD00000DB407FEC8
:10492000FDCF5C9A2E982F982D988091640080621C
:104930008093640081E083BF889513BEFCCF02E0C2
:1049400010E00E946F1D82FF42C02D980E946F1DD3
:1049500084788438C9F00E946F1D8471843191F588
:104960000E94681D88EC90E00E946A1D2E981A83B0
:10497000098360E0CE0101960E94640F84EF91E00C
:104980000E946A1D2E9A19C00E94681D88EC90E052
:104990000E946A1D2F981A8309836FEFCE0101963A
:1049A0000E94640F84EF91E00E946A1D2F9A0E947A
:1049B0006F1D84788438D9F3CECF0E946F1D847127
:1049C0008431D9F388EC90E00E946A1DBACF0E942E
:1049D000681D82E090E00E94DA2D882319F00E9481
:1049E0007C1D02C00E94771D81E090E00E94DA2DBC
:1049F00082FB112710F981E090E00E94DA2D81FFFF
:104A000046C011112E9850EFC52EDD24DA940E9475
:104A10006F1D86FF04C02E9A2F9A2D9A38C011233D
:104A200031F034E0C316D10411F42E9A2F9881E0AE
:104A30000E940B23EE24E39400E128E544ED50E0CE
:104A4000B60184E190E00E94821D80E00E940B2369
:104A50008FE090E00E946A1D4FEFC41AD40A59E11A
:104A6000C516D104A1F6112311F02F9A2D9880E9D3
:104A700091E00E946A1D0E94681DE091C405F091BA
:104A8000C5050190F081E02D84EC95E0099582E365
:104A900090E00E946A1D0E946F1D8111F8CF0E9454
:104AA0007C1D109290008AE0809391000E94F82271
:104AB00080E18093CB051092A3018AEC90E00E94E4
:104AC000DA2D0BEC10E08F3569F4C8010E94DA2D65
:104AD000F801E054F84F80830F5F1F4F003D110530
:104AE000A1F715C01A83098360E0CE0101960E94E8
:104AF000640F0F5F1F4F003D1105A1F78AEC90E096
:104B00009A8389836FE5CE0101960E94640F8FB767
:104B1000F89440919E0150919F016091A001709185
:104B2000A1018FBF8091CC05942F981B892F909164
:104B3000CD05992329F08093CE051092CD0527C588
:104B40009091CB05891748F48F5F891708F01FC52E
:104B500081E083BF889513BE1AC581E08093CD059F
:104B60004093CC058091C7059091C805019690931C
:104B7000C8058093C7058091A401882331F0815036
:104B80008093A401882309F40AC58091C905809304
:104B9000CA050E946F1D8093C90588E00E942618EF
:104BA000882319F088E00E94840F84E00E94261870
:104BB000882319F084E00E94840F80E20E94261866
:104BC000882319F080E20E94840F80E40E94261856
:104BD000882319F080E40E94840F80E80E94261840
:104BE000882319F080E80E94840F80E10E94261833
:104BF000882319F080E10E94840F809180089091B1
:104C00008108019690938108809380088091D70550
:104C1000833009F09DC2E12CA5E0FA2EB5E0BB2E51
:104C200010E4A12E0CE1C02E05E1D02E2E2D30E097
:104C300080917E0890917F082817390708F0C2C03C
:104C4000F29E8001F39E100D11240C57184FE09135
:104C50008008F0918108D80111968C9111978F737B
:104C6000C9F06C91A62FAF7044E0A49FD00111242D
:104C7000A057B74F12968C9162956F7009F06FE054
:104C8000680F70E0660F771FCF010E945F2E892B9F
:104C900009F488C4CF0163E070E00E945F2E892B85
:104CA00079F4D8014C91842F82958F7049F081500E
:104CB000B0E18B9FC00111244F70842BF8018083D9
:104CC000D80111968C918F7311F1F29EF001F39E31
:104CD000F00D1124E952FA4FDF01A155BE4FAC91FE
:104CE000E055FE4F2FE0A29FD0011124A852BA4FE9
:104CF00013968D919C91149733E0880F991F3A95E4
:104D0000E1F7208131812817390794F52FC0D801A8
:104D10008C918F70863051F5F29EF001F39EF00D6C
:104D20001124E952FA4FDF01A155BE4FAC91E05575
:104D3000FE4F2FE0A29FD0011124A852BA4F139624
:104D40008D919C91149723E0880F991F2A95E1F784
:104D500020813181281739074CF435C4B092A40161
:104D6000A0929000D0929900C0929800E3945ECFF8
:104D7000C8010E94E4068091840890918508D801BA
:104D8000EC91EF70B4E0EB9FF0011124E057F74F86
:104D90002381821B910997FD13C49093850880930A
:104DA0008408892BD9F685E08093D7058FE080931E
:104DB000A40180E48093900082E893E290939900AC
:104DC000809398008091840890918508892B09F43C
:104DD000BFC1E5E0F6E0FCA7EBA71AA619A6E9A477
:104DE000EE2021F05E2D51505DA701C01DA689A5C2
:104DF0009AA5069724F491E09E0D9EA702C0A7E015
:104E0000AEA72BA43CA4BFEF2B1A3B0A0BA51CA5F5
:104E1000F12CF101329780818E3051F0F3940D5FC7
:104E20001F4FF3E02F0E311C20E1F212F2CF3CC1F4
:104E3000C0908008D090810850907E08D8018C9155
:104E40000E94BE2029833A834B835C836D837E83DB
:104E50008F836F2D7E2DCE0101960E94D0064C01CE
:104E6000C8010E948B06B82ED101EC91EF3F09F0EA
:104E70004BC0E4E86E2EE7E07E2ED12CF5E0CF2E7D
:104E8000D51408F074C0F301DE0111968C2D019049
:104E90000D928A95E1F78C819D8197FD30C08A81C2
:104EA0008F7369F169816F70C8010E94B50688230C
:104EB00031F168ED75E0CE0101960E94CC074B2DD3
:104EC000B4010E940B0F81111AC0F101D082D801E8
:104ED0008C91877C8C930E94E720F80180818770F9
:104EE000823009F044C0D101EC91B5E0EB9FF001B4
:104EF0001124EC57F84F808182958F70C1F1D394C3
:104F0000E5E06E0E711CBCCF25E0E29FF00111249C
:104F1000EC57F84F85E0DE01119601900D928A95CD
:104F2000E1F78A818F7309F49CC38C819D8197FD81
:104F300098C3F801B0808B2D0E94BE202AA33BA30A
:104F40004CA35DA36EA37FA388A761E0C8014BAB10
:104F50000E945F064BA9811188C380E0481B642F23
:104F600070E0C6010E945F2E892B09F480C38091F6
:104F700080089091810887709927892B09F04ECF7E
:104F800064E0C8010E945F06882309F447CFFF2030
:104F900039F0AA24AA94AF0CBDE0BF1530F001C0CF
:104FA000A12CBB24B394BF0C02C07FE0B72ECDA4CC
:104FB000662463946B0C712C4EA54C1508F42ECF0F
:104FC00050E1C59E40011124C401860D971D9C012E
:104FD000220F331F820F931F9C0129523A4F290140
:104FE000ADE24A0E511CFC01EB5FF94FF8ABEFA7A5
:104FF000DA2C3AAB29ABBD1408F454C0DF1003C05F
:10500000CE1409F44DC0C4018D0D911D9C01220FD9
:10501000331F820F931FFC01E952FA4F25A52E3052
:1050200049F4BD96DC01AB5FB94F8C918770853038
:1050300001F536C0DB1034C0EEE0ED1588F1A9A90A
:10504000BAA99D968C918E3059F5EFA5F8A980816B
:105050000E94BE2029833A834B835C836D837E83C9
:105060008F83265081E0223008F080E0F20188230F
:10507000B9F02181922F9873892F90E053E0959594
:1050800087955A95E1F78630910514F48E5F01C03B
:1050900087E038E0839FC0011124277C822B818325
:1050A000D394A9CFC39488CF29A53AA52F5F3F4FAA
:1050B0003AA729A74BA55CA5405D5F4F5CA74BA70E
:1050C0002830310509F08BCE40917E0850917F0841
:1050D00080E065E0282F30E02417350760F4629FF8
:1050E000F001639FF00D1124EC57F84F91819F73ED
:1050F00079F58F5FEFCF209186088091820890919B
:1051000083080596322F36953695830F911D90931F
:105110008308809382082F5F2093860882E0809323
:10512000D70547ED55E028E03FEF80E090E0FA0139
:10513000E80FF91F37A7039680339105C1F7215077
:10514000405D5F4F2111F1CF10927F0810927E08D1
:105150000E94F8228091D7058111EAC001E020E485
:1051600040E860E070E080E090E00E94C01522E13D
:1051700049E160E272E083E390E00E94E21520E101
:1051800040E160EA71E089E190E00E94E21520E1EF
:1051900040E160EE71E086E590E00E94E21500E0FB
:1051A00025E040E86CE170E080E090E00E94C015EE
:1051B000C12CD12C80918008909181086FE070E023
:1051C0000E945F2EEE24E39405E02FE041E951E0D8
:1051D0006CE170E0F601E81BF90BCF010E94821D23
:1051E000FFE0CF0ED11C26E9C216D10419F7E091D9
:1051F00089081A821A8A1982E53090F580E28A833A
:105200008B839DE69C8391E69D8390E79E838F83AD
:1052100091E39E0F988789878A871B8692E69A8BEF
:1052200095E69B8B93E79C8B94E79D8B9AE39E8BF3
:105230008F8BF0E0E557F74F80811F928F938AE9BB
:1052400091E09F938F93CE0148969F938F930E94F6
:10525000922E0F900F900F900F900F900F9021C0F3
:10526000E530E9F480E28A8393E79B839EE69C83A2
:1052700094E69D839AE39E838F838FE6888780914F
:105280008A08811102C096E601C09EE699878111C5
:1052900002C086E601C080E28A871B8602C082E0E7
:1052A000898300E02BE040E866E270E080E090E077
:1052B0000E94C01511E01093D3051092D40586E129
:1052C00090E09093D0058093CF0588E290E0909392
:1052D000D2058093D1056CE380EC95E00E940D1F10
:1052E00060E280EC95E00E940D1FCE0102960E94C4
:1052F000311860E280EC95E00E940D1F6EE380ECB7
:1053000095E00E940D1F1092D3051093D40582E002
:1053100090E09093D0058093CF0587E390E0909341
:10532000D2058093D105CE0142960E943118B3C0B8
:10533000853009F0AEC001E020E440E860E070E0B4
:1053400080E090E00E94C0151092D30581E0809328
:10535000D40504E110E01093D0050093CF058AE056
:1053600090E09093D2058093D10567E680EC95E0BC
:105370000E940D1F61E680EC95E00E940D1F6DE616
:1053800080EC95E00E940D1F65E680EC95E00E94A0
:105390000D1F60E280EC95E00E940D1F6FE680EC2F
:1053A00095E00E940D1F66E780EC95E00E940D1FBE
:1053B00065E680EC95E00E940D1F62E780EC95E0C9
:1053C0000E940D1F60E280EC95E00E940D1F61E6D7
:1053D00080EC95E00E940D1F64E780EC95E00E9450
:1053E0000D1F60E280EC95E00E940D1F6091860821
:1053F00070E080E090E04AE00E944318E0910306EC
:10540000F0E0E557F74F909186088081891708F002
:1054100042C01093D0050093CF051093D20500939E
:10542000D1056EE680EC95E00E940D1F65E680ECEC
:1054300095E00E940D1F67E780EC95E00E940D1F2C
:1054400060E280EC95E00E940D1F62E780EC95E041
:105450000E940D1F65E680EC95E00E940D1F63E63B
:1054600080EC95E00E940D1F6FE680EC95E00E94B5
:105470000D1F62E780EC95E00E940D1F64E680EC52
:1054800095E00E940D1F61E280EC95E00E940D1FE7
:1054900002C00E944C088091D705843009F04FC0AB
:1054A00001E02CE24CE66AE070E08AE090E00E94C5
:1054B000C0152CE24CE66AE070E08AE090E00E94C1
:1054C000F6171092D30581E08093D40582E190E035
:1054D0009093D0058093CF058CE190E09093D20516
:1054E0008093D10582E70E94061685E60E94061683
:1054F00081E60E9406168CE60E9406168CE60E9443
:10550000061689E70E9406168FE30E94061680E2BF
:105510000E94061681E40E9406168DE30E9406167C
:1055200089E70E94061680E20E94061682E40E9425
:1055300006168DE30E9406168EE60E9406168091DE
:10554000D705853081F4609186088091030690E04C
:10555000FC01E557F74F2081261738F42091A3016D
:10556000211103C011C11092A30180918A0890916A
:10557000A201981749F0882319F00E947C1D02C0EF
:105580000E94771D0E94E72080E00E940B2380E0AC
:1055900090E0892B09F4BBCA0E940000B8CA10929F
:1055A0009000F3CAF29ED001F39EB00D1124A957CA
:1055B000B84F8D919C91119701968D939C936ACBD6
:1055C00080E090E0EACBF80143815481B281A09160
:1055D0009108AF731082A1834A50510920917E082F
:1055E00030917F082233310598F4F29EF001F39E4A
:1055F000F00D1124EC57F84F1082A183B28354832D
:1056000043832F5F3F4F30937F0820937E08AECBBC
:10561000912C812C692D70E062177307A0F4F69E1F
:10562000C001F79E900D1124FC01EC57F84F8181C9
:105630008F7339F41082A183B28354834383882407
:1056400083949394E7CF811091CBD80111968C91DC
:1056500011978295869586958370806411968C93B8
:1056600085CB8FEFD1018C9382CC82E077CC8B2DD0
:1056700088738695869586958F5F877038E0839FBF
:10568000C0011124D8019C91977C892B8C9388733D
:1056900009F06DCCF1016081F5E06F9FB00111243C
:1056A0006C57784F20E042E858E0C8010E94190783
:1056B000D8018C918770813011F1873001F18230EF
:1056C00019F48FEFF1018083D1018C918F3F09F4A0
:1056D0004ECC68ED75E0CE0101960E94CC076C01BE
:1056E000C8010E948B06482FB401C6010E940B0F0F
:1056F000811143C08C819D8197FF43C03EC0D10181
:105700008C91B5E08B9FC001112468ED75E08C573A
:10571000984F0E94CC073C0185E8C82E87E0D82E20
:10572000412C451488F6F10180814816C9F05601D4
:10573000F1E0AF1AB108D6018C918F7389F01296FF
:105740008D919C91139797FD0BC068ED75E0C50195
:105750000E94CC074CE0B3010E940B0F882329F074
:105760004394B5E0CB0ED11CDCCF21E042E858E0F9
:10577000B501C8010E941907F3CF8FEFF1018083B3
:10578000F6CB0E94E720F3CB85539F4F9A83898302
:10579000CE0101960E94640F81E08093A301E5CEC3
:1057A000CF92DF92EF92FF920F931F93CF93DF93ED
:1057B0001F92CDB7DEB7182F062FE42E862F880F45
:1057C0008E5F99830E945F2383E00E945F23F12E06
:1057D000C12E9981D92E8C2D8F19801798F4F6013E
:1057E000E7FE02C0849101C080810E945F23182FD0
:1057F00080E00E945F238123FFEFCF1ADF0A81112F
:10580000EACF01C081E00F90DF91CF911F910F91FE
:10581000FF90EF90DF90CF9008950F931F93CF9359
:10582000DF938C0181E090E00E94DA2D80FF32C08E
:105830008AE090E00E94DA2D9FEF980F9E3F50F58E
:1058400022E330E0D80150963C932E931F9728E333
:1058500030E052963C932E935197CBE0D0E0D801A4
:10586000ED91FC910190F081E02D682FC801099520
:10587000CE010E94DA2D2196C131D10581F780E059
:105880000E940B2388EE93E0DF91CF911F910F913F
:105890000C946A1DDF91CF911F910F910895049789
:1058A0000C940D2CCF93DF931092BF081092BE087A
:1058B00088EE93E0A0E0B0E08093C0089093C10828
:1058C000A093C208B093C30880E691E09093BD080E
:1058D0008093BC088FEF9FEF9093C9088093C8080E
:1058E0001092900847E04093910892E090939208BC
:1058F00081E0809393088093940838E03093950872
:105900008093960880939708909398082CE02093B2
:10591000990890939A0880939B0823E020939C0811
:10592000C4E1C0939D0890939E0880939F0854E023
:105930005093A0086DE06093A1088093A208809323
:10594000A30865E06093A4086BE26093A5085093F8
:10595000A6089093A70856E05093A808C093A908FA
:105960009093AA089093AB084093AC084EE1409303
:10597000AD082093AE089093AF083093B0083AE397
:105980003093B1089093B2082093B30899E09093B4
:10599000B4089FE39093B5088093B6082093B708A6
:1059A000DAE0D093B8089093B9088093BA082093AE
:1059B000BB0888ED95E00E94FA0E87EE95E00E9404
:1059C000FA0E1092F6051092F8051092F705C093A2
:1059D000F905D093FA0588E991E09093FC0580934E
:1059E000FB0582E991E09093FE058093FD058CE82C
:1059F00091E0909300068093FF0586E891E09093F4
:105A000002068093010680E090E02FEFFC01E9524E
:105A1000FA4F15A616A627A70396803831E09307FC
:105A2000A9F780E090E02FEFFC01E952FA4F15A6AC
:105A300016A627A70396803831E09307A9F7E6E872
:105A4000F7E087E4108212821182DF0111978C93B4
:105A500011971C92359698E0E038F90799F7109263
:105A60008708109288081092D7051092810810922A
:105A7000800810927F0810927E0810928908109278
:105A80008A0810928B0810928C0810928D08109240
:105A90008E0810928F08109203061092C305109280
:105AA000C2051092C9051092CA0580E18093CB050A
:105AB0001092C8051092C7051092CD0582E791E0BB
:105AC0009093C1058093C00580E891E09093C5054F
:105AD0008093C4051092D0051092CF051092D20584
