:100000000C940C040C9434040C9434040C943404B8
:100010000C9434040C9434040C9434040C94340480
:100020000C9434040C9434040C944F120C94C112AC
:100030000C9434040C9434040C9434040C94340460
:100040000C9434040C94520D0C9434040C94340429
:100050000C9434040C9434040C9434040C94080D63
:100060000C9434040C9434040C9434040C94340430
:100070000C9434040C9434040C9434040C94340420
:100080000C9434040C9434040C9434040C94340410
:100090000C9434040C9434040C9434040C94340400
:1000A0000C9434040C9434040C94340418191E1960
:1000B000241930193C199119911991194819541999
:1000C00060196C197A1991198319180C1B0C0A0CF8
:1000D0000E0C140C3C0C3C0C3C0C1F0C230C270C81
:1000E0002D0C310C3C0C370C08000000BE9224494A
:1000F000123EABAAAA2ABECDCCCC4C3E000000805A
:10010000BEABAAAAAA3E00000000BF000000803FCC
:100110000000000000084178D3BB4387D1133D198C
:100120000E3CC3BD4282AD2B3E68EC8276BED98FB9
:10013000E1A93E4C80EFFFBE01C4FF7F3F000000FD
:1001400000000101FF030101F70346014201000025
:100150000000240027002A002D003000D5F08D1467
:10016000A1C881CFD9F1AF200000000000250028F0
:10017000002B002E003100050089300802380249AA
:100180007868140000000005077F4141417F3E5B15
:100190004F5B3E3E6B4F6B3E183C783C18183C7EE4
:1001A0003C181C577D571C1C5E7F5E1C007E434321
:1001B0007E007E73737E007E7F7F7E7F4141417F24
:1001C00030483A060E06297929067F4141417F6071
:1001D000703F02042A1C361C2A7F3E1C08000008BF
:1001E0001C3E7F14227F22143C3C3C7EFF18423C84
:1001F000817E3E6375633E3E616B633E3E636B6B27
:100200003E04027F020410207F201008082A1C08E8
:10021000081C2A0808143E5541226375697563104D
:10022000181C1810040C1C0C040000000000000036
:100230005F00000007000700147F147F14042A7F6A
:100240002A10231308646236495620500008070319
:1002500000001C2241000041221C002A1C3E1C2AD6
:1002600008083E080800E0600000080808080800C8
:100270006060000060100804033E5149453E0042A2
:100280007F400062514949462141494D33181412BB
:100290007F1027454545393C4A49493041211109DC
:1002A000073649494936064949291E0000240000FD
:1002B0000080640000081422410014141414140077
:1002C0004122140802015909063E415D594E7C1233
:1002D00011127C7F494949363E414141227F4141CB
:1002E000221C7F494949417F090909013E41415189
:1002F000327F0808087F00417F41002041413F01D3
:100300007F081422417F404040407F020C027F7FE3
:100310000204087F3E4141413E7F090909063E41F2
:100320006141BE7F09192946264949493201017FA9
:1003300001013F4040403F1F2040201F3F403840C8
:100340003F6314081463030478040361514945436F
:10035000007F41410003040810600041417F000418
:10036000020102048080808080000307080020547E
:100370005478407F2844443838444444283844441E
:10038000287F3854545418087E09090218A4A49CE4
:10039000787F0804047800447D4000006080847DFC
:1003A0007F1010284400417F40007C047804787C52
:1003B000080404783844444438FC182424181824C9
:1003C0002418FC7C080404080854545420043F44B6
:1003D00044203C4040207C1C2040201C3C402040CD
:1003E0003C44281028444C9090907C4464544C44E5
:1003F000000836410000007F000000413608001868
:100400000408100C7F4141417F0003053F213F124A
:1004100008120A100A0E1C0E0C1E0C141A14161FB9
:10042000161E131E1E1B1E1E1F1E3F213F3A2F3A73
:10043000173D173F213F181F02040A041F0E040432
:100440000E1F0A1F0A0E0E1F04110E2E252E2F2A14
:100450002E262929021F02081F08150E04040E1556
:100460000E15151B151B040604040C0400000000E7
:1004700017000300031F0A1F16371A1904130A1561
:100480003A000300000E11110E000A040A040E04C3
:100490000030000404040010001804031F111F1290
:1004A0001F101D151711151F07041F17151D1F15E8
:1004B0001D01011F1F151F17151F000A0000320024
:1004C000040A110A0A0A110A040115020E11171E64
:1004D000051E1F150A0E110A1F110E1F15111F05EB
:1004E000010E111D1F041F111F1108100F1F041BE7
:1004F0001F10101F061F1E040F0E110E1F09060EDF
:10050000112E1F051A121509011F011F101F0F18A8
:100510000F1F0C1F1B041B031C03191513001F11B5
:10052000030418111F000201022020200001020C08
:10053000121E1F120C0C12120C121F0C1A14041E85
:1005400005242A1E1F021C141D1020201D1F081424
:10055000111F101E041E1E021C0C120C3E0A040C5D
:10056000123E1E040214160A020F120E101E0E1066
:100570000E1E081E120C1226281E322A26041E21C8
:10058000001F00211E040102013F213F0005003829
:100590000168010000175344001613780016131465
:1005A000001510200015201000540A03E181867FF9
:1005B0003E186D830F0F0E0183866033186DC319CB
:1005C0008F1803C38E6033186DE330CF1803C39EBA
:1005D000603630CDE360CF3006C79E7E3E30CDB36F
:1005E00060CF300CC6F6603330D9B660CF33CFCC95
:1005F000F66061B0DB1E60CF30D86CE6C061B0DB66
:100600001E618F19986CC6C063B19B0E330F0FB07B
:1006100078C6FF7E1F1B061E0F401E000000000054
:1006200000000000000000000000010000000000C9
:10063000000007000000000000004F000000000064
:100640000001CF00000000000001CE00000000000B
:100650000001CE00000000000031CE0000000000CC
:10066000F1F1CE000000000FF3F1CE000000001EFB
:10067000F671CE000000001CE671C8000000001FEB
:10068000E77380000000019FF75000000000079C06
:10069000F7C0000000031E3CE3800000C00F7E3F57
:1006A000C0000003C03E0C3F0000000F9CFE0FB8CE
:1006B0000000003F3E1C1F800000007E73183C00BD
:1006C000000000FE7F1F6000000000CEFC3E000026
:1006D0000000000EF07000000000000EFF0000009F
:1006E0000000001E7C0000000000003C0000000034
:1006F0000000007800000000000000700000000012
:100700000000000000000000000000F6E8DBCFC39E
:10071000B8AEA49B928A827B746E68625C57524E1C
:100720004945413E3A3734312E2C2927252321458E
:100730000068010000080B00020202010009040029
:10074000000102020000052400100105240101013E
:100750000424020605240600010705810310004059
:1007600009040100020A000000070502024000001F
:10077000070583024000000403090412010002EF90
:1007800002014041233680000101020301417264ED
:1007900075696E6F204C4C430041726475696E6FD1
:1007A000204C656F6E6172646F00000000002300D2
:1007B000260029002C002F0004040404040304056F
:1007C00002020202040302020202060606060606EE
:1007D00004040202020404040802011040804010D4
:1007E0002040804080080204018040201002011057
:1007F0008010204040200000000200090F0000038C
:100800000401000C000000000000000000000000D7
:10081000000000000000792111241FBECFEFDAE0B4
:10082000DEBFCDBF11E0A0E0B1E0ECECFCE402C023
:1008300005900D92AE37B107D9F724E0AEE7B1E0ED
:1008400001C01D92A53EB207E1F714E0CCE0D4E070
:1008500004C02197FE010E943E26CB30D107C9F784
:100860000E9445170C9464260C9400008F929F926E
:10087000AF92BF92CF92DF92EF92FF920F931F93AE
:10088000CF93DF93FB0124913196C490F0907204D2
:1008900080330CF0DBC0022E000C330B1216130653
:1008A0000CF0D4C0482F082E000C550BFA01EC0DAB
:1008B000F11DC7FCFA951E161F060CF0C7C06E5F2F
:1008C0007F4FD901179693E0B595A7959A95E1F7D3
:1008D00087FF0BC0C80EA49FC001A59F900DB49FB9
:1008E000900D1124681B790B80E04C2D0C2C000C12
:1008F000550B480F511D87FD5A95413351051CF08A
:1009000090E3C92EC81A2535310514F024E530E0EE
:1009100010916F041827982F977031E001C0330FA2
:100920009A95EAF7859585958595F4E58F02C0013E
:10093000112484569E4F00E00C2C000CDD08BB24D3
:10094000B394402F50E04C155D050CF07FC0FB01C7
:10095000E490F1E0FF1218C0FB01EC0140E8542FD5
:100960005E2119F05881532B588350E055954795D7
:100970004115510519F43196E49040E821965C2F19
:10098000581B521760F359C0F1101AC0A32EA0943F
:10099000FB01EC0140E8542F5E2119F058815A21E7
:1009A000588350E0559547954115510519F43196F6
:1009B000E49040E821965C2F581B521760F33DC02D
:1009C00043E0F41223C0932E9094FB01EC0140E825
:1009D000A82E8C2E881A542F5E2141F08126588132
:1009E00080FE02C0532B01C05921588350E0559519
:1009F00047954115510519F43196E49040E8219648
:100A00005C2F5A19521728F31B2517C0FB01EC0164
:100A100040E8542F5E2119F058815327588350E045
:100A2000559547954115510519F43196E49040E8E4
:100A300021965C2F581B521760F3330F19F48C5A10
:100A40009F4F31E00F5F6A0F7B1F7BCFDF91CF910C
:100A50001F910F91FF90EF90DF90CF90BF90AF90DC
:100A60009F908F900895CF93DF931F92CDB7DEB7FD
:100A70006983DC01ED91FC910280F381E02D41E07E
:100A800050E0BE016F5F7F4F09950F90DF91CF91CE
:100A9000089583E08093E9008091F200882319F0A3
:100AA0008AE38093E8000895CF93DF930E94B51501
:100AB000EC016BE771E083E694E00E94EB0B8C0F96
:100AC0009D1FDF91CF9108952F923F924F925F9299
:100AD0006F927F928F929F92AF92BF92CF92DF924E
:100AE000EF92FF920F931F93CF93DF93CDB7DEB7B3
:100AF0002D970FB6F894DEBF0FBECDBF40918A048C
:100B000050918B0460918C0470918D042FB7F894F0
:100B100080919C0390919D03A0919E03B0919F03AF
:100B20002FBF481B590B6A0B7B0B8091890490E007
:100B3000A0E0B0E00091820410918304209184042D
:100B40003091850484179507A607B70730F401157F
:100B500011052105310509F061C380E0012B022B4D
:100B6000032B09F09CC30E94351581E00E943515C6
:100B700082E00E94351539EC632E33E0732E4EE18E
:100B8000E42E44E0F42E5FE0C52E54E0D52E7D86A1
:100B90006C8600E010E0BB24B394A02ED801A753CC
:100BA000BC4F98968C919897882309F4F2C08C8456
:100BB0009D843EE5830E911CF40180818111E9C082
:100BC000F60180819181F70120813181F901EE0FD9
:100BD000FF1FE80FF91F259134912115310511F5FB
:100BE000EC85FD85EE5AFF4F2081222329F0D701A5
:100BF0001D921C92FC0114C098961C929897959691
:100C00008C918823C1F1802F0E943515D701ED9179
:100C1000FC91EE0FFF1FD6018D919C91E80FF91FFB
:100C200025913491EC85FD85E659FF4FFA83E983E0
:100C30008C859D8583599F4F9C838B83AC85BD8517
:100C4000A059BF4FBE83AD83EC85FD85ED58FF4FA6
:100C5000F887EF832C843D84F6E72F0E311C4C84FB
:100C60005D8489E7480E511CAC85BD85AF59BF4FE7
:100C7000BA87A9872EC0602F8EEE93E00E94EE0DFA
:100C800088C0C901E6E096958795EA95E1F78F71EE
:100C9000932F96959695969590514F704230A1F16D
:100CA00030F541111EC08B3008F08AE0E985FA85E5
:100CB0008083D701ED91FC9111973196ED93FC93D0
:100CC000EE0FFF1FD6018D919C91E80FF91F259122
:100CD0003491A901569547955695479520FDD1CF5A
:100CE0002AC0413031F76A2D0E947815E2CF433097
:100CF000B1F04430F1F62091FA03829F802D112447
:100D0000D1018C93F20115C02091FA03829F802DAE
:100D10001124A981BA818C93EB81FC810AC02091B6
:100D2000FA03829F802D1124AD81BE818C93EF81C7
:100D3000F8859083BECFEC85FD85E55AFF4F4F7354
:100D400040838091FA03839F802D1124F4018083D6
:100D5000EC85FD85E257FF4F1082F801EE0FFF1F73
:100D6000EF5AFB4F11821082EC85FD85EC59FF4F45
:100D7000B082F801E357FE4FB082EC85FD85E9595A
:100D8000FF4F1082D7018D919C91119701968D9301
:100D90009C930F5F1F4F2C853D852F5F3F4F3D87F5
:100DA0002C8732E0E30EF11C82E0C80ED11C033028
:100DB000110509F0F2CEF4EFEF2EF3E0FF2E07EF6E
:100DC00013E0A7E5CA2EA4E0DA2EB1E5AB2EB4E01D
:100DD000BB2E1C821B8284E2282E312C92E0492EED
:100DE000512CF301EC59FF4F8081882309F404C191
:100DF00036978081811106C06B818EEE93E00E9450
:100E0000EE0DFAC081508083D6018C91F301EF562C
:100E1000FF4F4F0193012C563F4F3A832983811195
:100E200050C0D5012D913C912F5F3F4FEB81FC814C
:100E3000EE0FFF1FEB5BFB4FC901880F991F01905D
:100E4000F081E02DE80FF91F45915491842F8770B0
:100E5000F4018083CA0163E0969587956A95E1F76E
:100E6000BC0176956795952F96959695A981BA813F
:100E70009C936F739091FA03699F602D1124F60182
:100E80006083EB81FC81E756FE4F81708083D50142
:100E900011963C932E93F301EE57FF4F808190E023
:100EA0002817390770F033962081222329F0821BFE
:100EB00091098D939C9305C06B818EEE93E00E9407
:100EC000EE0DF601808181508083F301E959FF4FD7
:100ED00020812F5F20833C974081A981BA813C917A
:100EE000340F78978081380FF7013083F301E05990
:100EF000FF4F6081662371F070E0822F022E000C9C
:100F0000990B0E942A2633968081869F300D1124EA
:100F1000D7013C93F701808190E08496B1010E9453
:100F20002A268083F301EF59FF4F3081D8013C938B
:100F300039966081662381F0062E000C770B822F94
:100F4000022E000C990B0E942A2633968081869FE0
:100F5000300D1124F8013083F301EA58FF4F60810E
:100F6000662391F0822F220F990B70E00E942A26AF
:100F7000CB01B2010E942A2633962081D8019C9190
:100F8000289F900D11249C93F80180814F3341F0EC
:100F90008A300CF089E087FD80E0D8018C9302C094
:100FA000F8011082F894D701EC91F0E0E55FF84F7A
:100FB000E491AB81BC81AA56BE4FEC93F8018081CD
:100FC000F301E956FF4F9081899F802D1124909164
:100FD000FB03899F802D1124D4019C91899F802D32
:100FE0001124EB81FC81ED56FE4F8083EB81FC8167
:100FF000E057FE4F808378942B813C812F5F3F4FD9
:101000003C832B833FEF631A730A8FEFE81AF80AC9
:101010000F5F1F4F9FEFC91AD90AA2E0AA0EB11C99
:101020002B813C812330310509F0DBCE80918E0489
:10103000882309F486C08C3020F49CE0E92EE81A5D
:1010400001C0E12CFF24F394F09269041092720421
:101050001092730430916B049DE2D92E1D2D131B49
:101060001E0D03E0030F2EE4412F63E083E694E0BE
:101070003B870E94DF0E3B850CEF030F1D5F202F87
:1010800041E0612F80E50E945416202F42E0612F3D
:1010900083E00E945416F0927204F092730400915F
:1010A0006B04FD2CF01AFE0C2EE44F2D63E083E65A
:1010B00094E00E94BC0E13E0100F1F0D4FEF410F84
:1010C0002EE463E083E694E00E94BC0E035033E01C
:1010D000F30E202F4F2D60E083E694E00E94D40FA2
:1010E000202F4F2D63E583E694E00E94D40F41E06A
:1010F0006F2D83E00E94D61542E06F2D80E50E949F
:10110000D615145044E0612F80E50E94D61548E0C2
:10111000612F83E00E94D61584E080936C04809157
:101120006B04E81A8E2D815D80936D0480918F048D
:10113000909190040E94B51580918E048150809307
:101140008E0480916F048F5F80936F048CE9E82E8A
:1011500081E0F82ED12C0E94B71682E20E94F70F90
:10116000D3948D2D0E94F70F87E00E94F70F81E244
:101170000E94F70F85E10E94F70F8FE70E94F70F9B
:10118000E0917604F0917704908180917904892B25
:101190008083E0917404F0917504908180917804CB
:1011A00080958923808300E010E0F701E00FF11FB4
:1011B00080810E94F70F0F5F1F4F04351105A9F7BB
:1011C00084E5E80EF11C96E0D912C5CF8091670442
:1011D00081110EC088EF91E0ECE9F1E0DF019C01A4
:1011E0001D9221503040E1F710926C0410926D0472
:1011F0000E94A90C609382047093830480938404FA
:101200009093850420917E0430917F04621B730BC0
:10121000709387046093860480E041C02FB7F894F0
:1012200080919C0390919D03A0919E03B0919F0398
:101230002FBF20918904820F911DA11DB11D8093A4
:101240008A0490938B04A0938C04B0938D048091B6
:101250007A0490917B04A0917C04B0917D04019666
:10126000A11DB11D80937A0490937B04A0937C040C
:10127000B0937D041092820410928304109284042F
:10128000109285040E94A90C60937E0470937F04E1
:1012900080938004909381040E94D81681E02D965B
:1012A0000FB6F894DEBF0FBECDBFDF91CF911F9177
:1012B0000F91FF90EF90DF90CF90BF90AF909F90F5
:1012C0008F907F906F905F904F903F902F900895F8
:1012D000CF92DF92EF92FF920F931F93CF93DF9302
:1012E00020918804222309F4BBC0EC011092E10391
:1012F00081E08093690410926804109267048093DF
:101300007204809373041CE00E9464058823E1F357
:10131000FE018491882319F000916B0401C000E064
:1013200069EA75E080E00E94360469E176E08CE0CD
:10133000800F0E94360410926C0410936D04CE014D
:101340000E94B51580916A04982F990F890F819595
:101350008D5A80936C0480916B04982F990F890F9C
:101360008195835D80936D0480917A0484FF03C02E
:1013700085EA95E002C081EA95E00E9454059091CB
:101380006A04892F880F980F91959D5A90936C0449
:1013900080916D048F5F80936D048091FB0388239F
:1013A00019F08DE995E002C089E995E00E945405A5
:1013B00090916A04892F880F980F91959D5A909368
:1013C0006C0480916D048F5F80936D0485E995E0D6
:1013D0000E9454058091DF03813099F48091FB03D2
:1013E0008F5F082E000C990B6091FC0370E06F5F1B
:1013F0007F4F0E942A268093FB038EEE93E00E948B
:101400004B0E8091DE038130B9F080918804482F23
:1014100050E060E070E0C0907A04D0907B04E090EF
:101420007C04F0907D04C416D506E606F70608F4A1
:101430006BCF8F3F09F468CF8FEF8093880460E013
:101440008EEE93E00E94EE0D1092F10340E06DE805
:1014500075E08EEE93E00E94120E81E08093E1032E
:10146000DF91CF911F910F91FF90EF90DF90CF9080
:101470000895CF93DF93BC0183E694E00E94EB0BC9
:10148000EC016BE771E083E694E00E94EB0B8C0FBC
:101490009D1FDF91CF9108958F929F92AF92BF923F
:1014A0000F931F93CF93DF93CDB7DEB7A1970FB6FE
:1014B000F894DEBF0FBECDBF19A2423008F44AE057
:1014C0008E010F5D1F4F842E912CA12CB12CA501F4
:1014D00094010E947823E62FB901CA010150110935
:1014E000EA3014F4E05D01C0E95CD801EC93232BF1
:1014F000242B252B61F7B80183E694E00E94EB0BC7
:10150000A1960FB6F894DEBF0FBECDBFDF91CF918D
:101510001F910F91BF90AF909F908F900895CF93A0
:10152000DF93BC0180E090E04AE00E944C0AEC01AD
:101530006BE771E083E694E00E94EB0B8C0F9D1F3C
:10154000DF91CF910895FC0180918C01811103C03E
:101550008FEF9FEF08959FB7F89482E08093E900A2
:101560002091F20030E01216130614F421E030E06E
:101570002115310559F0289884E680938B018091DC
:10158000F10080838091F200882319F09FBFC90188
:1015900008958BE68093E800F9CF2FB7F89483E0A5
:1015A0008093E9009091E800892F807295FF04C034
:1015B0009091F20080E4891B2FBF08958F929F9233
:1015C000AF92BF92CF92DF92EF92FF920F931F9351
:1015D000CF93DF935C016B017A0180910C0188232A
:1015E00009F45BC080918C01882309F456C0809176
:1015F0008A0180FF05C08091E00082608093E00056
:10160000E70110E00AEF83E0882E9AE3992E2097F5
:10161000D9F10E94CD0A81110AC0015009F43DC0E0
:1016200061E070E080E090E00E94CE0CF0CF282FC7
:1016300030E0C217D3070CF48C2F4FB7F894809288
:10164000E9009091E80095FF1DC0282F30E0C21BF3
:10165000D30BF601982F915020F081918093F100E7
:10166000FACFC20ED31E112319F09092E80009C0E0
:101670008091E80085FD06C09092E80011E0209777
:1016800009F010E04FBFC3CF1111C3CF5D9884E6BE
:10169000809389011E141F0444F081E090E0F5015D
:1016A0009383828380E090E001C0C701DF91CF91F6
:1016B0001F910F91FF90EF90DF90CF90BF90AF9070
:1016C0009F908F9008958091A40381110DC082E0B6
:1016D0008093A00384E08093A1031092A30310924F
:1016E000A20381E08093A40380EA93E00895CF925F
:1016F000DF92EF92FF920F931F93CF93DF936C01D2
:101700007A018B01C0E0D0E0CE15DF0589F0D80169
:101710006D918D01D601ED91FC910190F081E02D4C
:10172000C6010995892B11F47E0102C02196ECCFE8
:10173000C701DF91CF911F910F91FF90EF90DF9044
:10174000CF90089580918D01882319F080919001A8
:1017500001C080E090918E01992319F09091910140
:10176000890F90918F01992319F090919201890F1F
:1017700090E090939900809398000895089580E0F8
:1017800090E008950E9458260F931F93CF930091E5
:10179000AD031091AE0301151105C9F0C0E08091B1
:1017A000AC03C81758F4F801EC0FF11DEC0FF11D54
:1017B000808191810E943C22CF5FF1CFC8010E94BD
:1017C0003C221092AE031092AD031092AC03CF9165
:1017D0001F910F9108956115710579F0FB0101903A
:1017E0000020E9F73197AF01461B570BDC01ED9163
:1017F000FC910280F381E02D099480E090E008954F
:1018000090E0FC013197EF30F105B0F5EB59FF4F57
:101810000C943E26809180008F7703C080918000D9
:101820008F7D80938000089580918000877FF9CF1D
:1018300084B58F7702C084B58F7D84BD0895809173
:1018400090008F7707C0809190008F7D03C08091BA
:101850009000877F8093900008958091C0008F77DB
:1018600003C08091C0008F7D8093C0000895809157
:10187000C200877F8093C20008951F93CF93DF93A8
:10188000282F30E0F901EA50F84F8491F901E9522C
:10189000F84FD491F901E854F84FC491CC23C9F022
:1018A000162F81110E94000CEC2FF0E0EE0FFF1FAD
:1018B000E759FE4FA591B4918FB7F894111105C067
:1018C0009C91ED2FE095E92302C0EC91ED2BEC9378
:1018D0008FBFDF91CF911F910895CF93DF9390E059
:1018E000FC01E952F84F2491FC01E854F84F84912F
:1018F000882361F190E0880F991FFC01E25BFE4FA5
:10190000C591D491FC01E759FE4FA591B4916111A5
:1019100009C09FB7F8948881209582238883EC9131
:101920002E230BC0623061F49FB7F8943881822F68
:10193000809583238883EC912E2B2C939FBF06C028
:101940008FB7F894E8812E2B28838FBFDF91CF913A
:1019500008953FB7F8948091B3039091B403A09198
:10196000B503B091B60326B5A89B05C02F3F19F06B
:101970000196A11DB11D3FBFBA2FA92F982F88270F
:10198000820F911DA11DB11DBC01CD0142E0660F6A
:10199000771F881F991F4A95D1F708958F929F92BC
:1019A000AF92BF92CF92DF92EF92FF926B017C01D8
:1019B0000E94A90C4B015C01C114D104E104F104A3
:1019C000F1F00E94A90CDC01CB0188199909AA0940
:1019D000BB09883E9340A105B10570F321E0C21A0E
:1019E000D108E108F10888EE880E83E0981EA11C5A
:1019F000B11CC114D104E104F10419F7DDCFFF904B
:101A0000EF90DF90CF90BF90AF909F908F90089510
:101A10001F920F920FB60F9211242F933F938F9323
:101A20009F93AF93BF9380919C0390919D03A0914E
:101A30009E03B0919F033091B20323E0230F2D3713
:101A400020F40196A11DB11D05C026E8230F0296C2
:101A5000A11DB11D2093B20380939C0390939D031D
:101A6000A0939E03B0939F038091B3039091B4031E
:101A7000A091B503B091B6030196A11DB11D80934D
:101A8000B3039093B403A093B503B093B603BF918F
:101A9000AF919F918F913F912F910F900FBE0F901B
:101AA0001F9018951F920F920FB60F9211242F932B
:101AB0003F934F935F936F937F938F939F93AF93D6
:101AC000BF93EF93FF9360919301611102C080E097
:101AD00023C08091AF038F5F8093AF0390919601F5
:101AE0008917A8F390918D0181E0892780938D015A
:101AF0001092AF0380919901882369F080910D01C4
:101B000093E4899F802D1124895B80930D010E94AD
:101B10001E269093900181E060919401662319F153
:101B20009091B0039F5F9093B0032091970192171B
:101B3000D0F090918E0181E0892780938E011092E0
:101B4000B00380919A01882369F080910D0193E49C
:101B5000899F802D1124895B80930D010E941E2690
:101B60009093910181E060919501662319F1909124
:101B7000B1039F5F9093B103209198019217D0F029
:101B800090918F0181E0892780938F011092B1039A
:101B900080919B01882379F080910D0193E4899FC6
:101BA000802D1124895B80930D010E941E26909345
:101BB000920101C081110E94A20BFF91EF91BF9190
:101BC000AF919F918F917F916F915F914F913F91D5
:101BD0002F910F900FBE0F901F901895633008F54E
:101BE00070E0FC01E60FF71F17AE11AE9B01220F4C
:101BF000331F820F931FDC01AD59BF4F1D921C9202
:101C0000EE5BFF4F1082FB01E057FE4F1082FB019D
:101C1000ED56FE4F1082FB01E357FE4F10820C94ED
:101C2000A20B0895EF92FF920F931F93CF93DF9330
:101C30008C017B01C42FD0E0433038F4642F0E9424
:101C4000EE0DF801EC0FFD1F1382FE01EE0FFF1FDA
:101C5000E00FF11FF2A2E1A2FE017896EE0FFF1F46
:101C6000E00FF11F11821082F801EC0FFD1F81E0DF
:101C7000838389E084AFDF01AB5BBF4F1C92169674
:101C80001C92EF5AFF4F1082DF91CF911F910F915D
:101C9000FF90EF90089540E06FE277E00C94120E11
:101CA000DC01FB0184918F5F17968C931797319617
:101CB000E491EF5F1896EC9318976E5F7F4F1E9636
:101CC0007C936E931D970895FC01643508F053C012
:101CD000403308F050C09785742F759575957595AC
:101CE000262F062E000C330B542F57709230A1F480
:101CF000F901E456FE4F84E57802E00DF11D112450
:101D0000808190E0052E02C0959587950A94E2F7B0
:101D10008095982F91700AC0933041F4848581702A
:101D2000462740954170841303C014C0911112C01E
:101D300084E57802200D311D1124F901E456FE4F8F
:101D400081E090E001C0880F5A95EAF78095908174
:101D5000892310C084E57802200D311D1124F9017A
:101D6000E456FE4F81E090E001C0880F5A95EAF7F3
:101D70009081892B80830895DF92EF92FF920F93D9
:101D80001F93CF93DF931F92CDB7DEB78C01D62E72
:101D9000F42EE12CE21654F46E2D6D0D4F2DC8017A
:101DA00029830E94640EE3942981F4CF0F90DF9180
:101DB000CF911F910F91FF90EF90DF900895DF92E8
:101DC000EF92FF920F931F93CF93DF937C01D62F57
:101DD000D22EC42F002E000C110B040F111D47FD35
:101DE0001A954C2F0C2E000C550B4017510744F43C
:101DF0002D2D4C2F6D2FC7010E94BC0ECF5FF1CF50
:101E0000DF91CF911F910F91FF90EF90DF90089598
:101E10006F927F928F929F92AF92BF92CF92DF92FA
:101E2000EF92FF920F931F93CF93DF93EC016A30F1
:101E300019F428859E81A1C06D3009F4A4C01E81CB
:101E4000BA84D9848F8483E58D150CF47FC08FE22A
:101E50008B150CF47BC08F8190E00197189F900147
:101E6000199F300D1124C9018D0D911DD7FC9A9534
:101E7000181619060CF06AC08885819FC0011124CC
:101E80008B0D911DB7FC9A95181619060CF05EC0C3
:101E90009D2CCD2CE62EF12CEC2DED190E2E000CE8
:101EA000FF0B8F8190E0E817F9070CF04EC0019707
:101EB000E817F90779F0E89E9001E99E300DF89E49
:101EC000300D1124E20FF31F8D859E85E80FF91F59
:101ED000749001C0712C6B2CAB2C2A2D2B19022E67
:101EE000000C330B888590E0281739075CF570FEED
:101EF00010C0113031F44A2D6C2DCE010E94640EB9
:101F00001DC0012F212F462D692DCE010E94DF0E0D
:101F100015C088899F85891789F08F87113031F422
:101F20004A2D6C2DCE010E94640E07C0012F212F77
:101F3000462D692DCE010E94DF0E8F867694A394E4
:101F4000610ECBCFC394910EA7CF8F862E813F8198
:101F50008985329F800D112489879D81992399F06D
:101F6000082E000C990B44E550E0239F40195109BD
:101F70001124481759073CF498858A85299F800DBC
:101F800011248A87198681E090E0DF91CF911F911B
:101F90000F91FF90EF90DF90CF90BF90AF909F9008
:101FA0008F907F906F900895DF92EF92FF920F9342
:101FB0001F93CF93DF931F92CDB7DEB78C01D62E40
:101FC000F42EE12CE21654F44E2D4F0D6D2DC80168
:101FD00029830E94640EE3942981F4CF0F90DF914E
:101FE000CF911F910F91FF90EF90DF9008958EBDDC
:101FF00000000DB407FEFDCF8EB50895009719F1CE
:102000009C01BC01990F880B990B121613065CF406
:102010000E944E240E9432250E94892420E030E054
:1020200040E85FE30AC00E944E240E9432250E94CD
:10203000892420E030E040E050E40E94AA230E947E
:102040001624CB01089581E090E00895CF93C0E07D
:102050002C2F30E040918001509181018091BD038F
:102060009091BE03241735075CF4220F331FFC0147
:10207000E20FF31F808191810E943C22CF5FE8CF65
:102080000E943C220E94C40B1092C0031092BF0316
:10209000CF9108957F928F929F92AF92BF92CF92ED
:1020A000DF92EF92FF920F931F93CF93DF93C09134
:1020B0007E01D0917F012196D0937F01C0937E0154
:1020C0001092830110928201209731F0C031D10526
:1020D00028F0CFE0D0E002C0C1E0D0E06E01CC0C2F
:1020E000DD1CC6010E94A7217C019093BE03809352
:1020F000BD0381E090E09093810180938001F7011E
:102100001182108287E090E00E94A7218C01FC01DF
:10211000108211828EE3828380E38383158214828E
:102120001682F701118300838091AD039091AE0375
:10213000892B11F00E94C40BC093AC03C6010E940E
:10214000A7219093AE038093AD03F801C6839583D6
:102150008483FC0111821082F12C82E0882E912C64
:10216000A12CB12CDD24DA94CC24C3948091AC034F
:10217000F81608F051C0F801228130E0E9012297F9
:1021800051F00E9422239E01DD0F440B550B0E944B
:102190004623762E01C0712CF801238130E0E9013D
:1021A000229751F00E9422239E01DD0F440B550B14
:1021B0000E944623E62E01C0E12C84E090E00E94BC
:1021C000A721EC017882E9820E942223A5019401D3
:1021D0000E944623672B682B692B11F0CA8201C02D
:1021E000DA820E942223A50194010E944623672BD4
:1021F000682B692B11F0CB8201C0DB829091AD037B
:102200008091AE03E92FF82FEF0DF11DEF0DF11DB9
:10221000D183C083F394AACF1092C0031092BF035E
:10222000DF91CF911F910F91FF90EF90DF90CF90B2
:10223000BF90AF909F908F907F900895FC01848510
:10224000958597FD0BC09FB7F89482E08093E900D5
:102250008091F2009FBF90E0019608959FB7F89497
:1022600082E08093E9008091F2009FBF90E00895A2
:102270004091BB035091BC032091B9033091BA0344
:1022800042175307B4F49091E8009570E1F39091F0
:10229000E80092FD19C08093F1008091BB039091FA
:1022A000BC0301968F739927892B19F48EEF8093C5
:1022B000E8008091BB039091BC0301969093BC030E
:1022C0008093BB0381E0089580E00895CF92DF9270
:1022D000EF92FF920F931F93CF93DF931F92CDB78F
:1022E000DEB7182F062FE42E862F880F8E5F998376
:1022F0000E94381183E00E943811F12EC12E99817D
:10230000D92E8C2D8F19801798F4F601E7FE02C0A4
:10231000849101C080810E943811182F80E00E94B2
:1023200038118123FFEFCF1ADF0A8111EACF01C0F4
:1023300081E00F90DF91CF911F910F91FF90EF906F
:10234000DF90CF900895DF92EF92FF920F931F934B
:10235000CF93DF93D82E8A017B01E40EF51EEB01AB
:10236000CE15DF0571F0D7FE03C0FE01849101C0D8
:1023700088810E94381121968111F2CF8FEF9FEF53
:1023800001C0C801DF91CF911F910F91FF90EF9095
:10239000DF900895615030F02091F100FC0120831E
:1023A0000196F8CF289884E680938B0108950E94C7
:1023B000CD0A90E00895CF93DF931F92CDB7DEB79B
:1023C000FC018485958597FD05C02FEF3FEF35878C
:1023D00024870BC0CE0101960E94A30A019719F42D
:1023E000898190E002C08FEF9FEF0F90DF91CF9136
:1023F00008950F931F93CF93DF931F92CDB7DEB74E
:102400008C01FC018485958597FF0EC0CE01019655
:102410000E94A30A019719F4298130E002C02FEF2E
:102420003FEFF80135872487F801848595850F9063
:10243000DF91CF911F910F9108950F931F93CF9329
:10244000DF931F92CDB7DEB782E0898342E450E08C
:1024500065E377E080E80E94A3110E94630BDC0132
:1024600012960D911C9113970115110569F0D80171
:10247000ED91FC910280F381E02DBE016F5F7F4FF3
:10248000C801099597FF07C089810F90DF91CF910F
:102490001F910F910895F80100851185E5CF1F92D6
:1024A0000F920FB60F9211248F939F938091E100AA
:1024B0009091E100937F9093E10083FF0FC0109211
:1024C000E90091E09093EB001092EC0092E390937E
:1024D000ED0010928C0198E09093F00082FF20C0F4
:1024E00093E09093E9009091F200992319F09AE318
:1024F0009093E80090918901992339F09091890196
:10250000915090938901992389F190918B0199239E
:1025100039F090918B01915090938B01992341F167
:1025200084FF10C08091E2008E7E81608093E20083
:102530008091E1008F7E8093E10080918A018E7E00
:10254000806111C080FF16C08091E2008E7E8061A4
:102550008093E2008091E1008E7E8093E100809183
:102560008A018E7E816080938A0104C05D9ACDCFFE
:10257000289AD6CF9F918F910F900FBE0F901F90EA
:1025800018951F920F920FB60F921124CF92DF92DF
:10259000EF92FF920F931F932F933F934F935F936D
:1025A0006F937F938F939F93AF93BF93EF93FF931B
:1025B000CF93DF93CDB7DEB76C97DEBFCDBF109260
:1025C000E9008091E80083FFEDC168E0CE01459607
:1025D0000E94CA1182EF8093E8008D8987FF05C0B1
:1025E0009091E80090FFFCCF03C09EEF9093E8002D
:1025F000982F907609F0C6C09E892F89188D911169
:102600000CC0803829F48091B8038093F10002C097
:102610001092F1001092F10048C1422F50E0512B6E
:10262000913051F4811141C14130510509F03DC152
:102630008091B8038D7F0BC0933061F4811135C157
:102640004130510509F031C18091B8038260809317
:10265000B8032BC1953041F48091E80080FFFCCF96
:1026600020682093E30021C1963009F05FC0EB8C15
:10267000FC8C1092E9001092BC031092BB03123044
:1026800091F51092BA031092B9030E941D1299E0BD
:10269000BE016F5F7F4FDB01E92F1D92EA95E9F7DD
:1026A00099831A8391E09E8390EA98879AEF99879D
:1026B0002091BB033091BC03275F3F4F3C832B83AA
:1026C0008D831092E9001092BC031092BB03F0922C
:1026D000BA03E092B90349E050E080E00E94A31100
:1026E0000E941D12E2C0F092BA03E092B9030E9468
:1026F000630BDC011296ED90FC901397E114F1044A
:1027000009F4C0C0D701ED91FC910480F581E02D62
:10271000BE016B5E7F4FC7010995009719F00CF061
:10272000C4C0C7C0F701E084F184E8CF973009F452
:10273000C0C0983021F481E08093F100B6C0993098
:1027400009F0B3C0837009F0B4C0EDE1F1E081E0BD
:1027500021E036E39081992361F08093E900209392
:10276000EB0091919093EC003093ED008F5F8730F8
:1027700089F78EE78093EA001092EA008F898093B0
:102780008C0193C08B8D9C8D1092E9001092BC033C
:102790001092BB039093BA038093B903898D811182
:1027A00056C08E899D89913A59F4813209F081C0D1
:1027B00047E050E065E071E080E00E94A31175C041
:1027C000913209F076C0833289F4888D90E0982F99
:1027D00088272F89822BA0E0B0E080930E01909390
:1027E0000F01A0931001B09311015FC0803269F412
:1027F0008091E80082FFFCCF67E085E091E00E94D5
:10280000CA118BEF8093E80006C0823209F04DC0F8
:102810008F8980930C018091B703882319F0EEEF24
:10282000FAE002C0E0E0F8E0809105019091060135
:10283000A0910701B0910801803B9440A105B1052A
:1028400009F07BC080910C0180FF93C076C00E948C
:10285000630BDC0112960D911C9113970115110564
:1028600041F1D801ED91FC910190F081E02DBE0184
:102870006B5E7F4FC8010995811117C0F801008573
:102880001185ECCF113009F44EC0133091F48F89CB
:10289000882309F445C0823081F440E860E189E989
:1028A00097E00E946611882321F08EEF8093E80064
:1028B00079C081E28093EB0075C0813029F440E853
:1028C0006BE08DE897E0EDCF833099F70E94630BC2
:1028D000DC011296ED90FC9013978E010F5F1F4F55
:1028E0006801E114F10479F0D701ED91FC910680C3
:1028F000F781E02DB801C7010995080F111DF701F7
:10290000E084F184EECFD8011C92F6010190002002
:10291000E9F73197BF016C197D0940E0C601C1CFCD
:1029200067E777E002C06BE777E06115710509F2B0
:10293000FB01449150E080E840CF0FB6F894A89591
:1029400080916000886180936000109260000FBEEB
:10295000A895EE3F2AE0F20739F08091FE0A9091A7
:10296000FF0A91838083A1CF1092FF0A1092FE0A82
:102970009CCFEE3F8AE0F80731F0808191819093FF
:10298000FF0A8093FE0A87E797E7918380839BE0A5
:1029900088E10FB6F894A895809360000FBE9093DD
:1029A000600083CF6C960FB6F894DEBF0FBECDBF2C
:1029B000DF91CF91FF91EF91BF91AF919F918F9157
:1029C0007F916F915F914F913F912F911F910F9147
:1029D000FF90EF90DF90CF900F900FBE0F901F9061
:1029E00018958091C5032091BD039091BE03E22FFD
:1029F000F92FE80FF11DE80FF11D0190F081E02D96
:102A00008091C4039091C3038823B1F02091C10346
:102A1000422F50E0292F30E0808190E0BA01621B04
:102A2000730B86179707FCF0240F351F4281BC01FA
:102A3000640F711DAB0113C02091C203622F70E0BF
:102A4000292F30E0418150E0DB01A21BB30B4A1774
:102A50005B0754F0260F371F8381480F511D81E01B
:102A6000241735070CF480E00895CF93DF93682F87
:102A700070E0EB01C753DC4F9DA19923B1F198A5FC
:102A8000911133C09AADFB01EE0FFF1FE852FC4FCE
:102A900035A126A1E32FF22FE90FF11DE90FF11D5A
:102AA000259134912F3F9FEF390711F41DA21DC0CE
:102AB000FE017E9635A3660F771FFB01EF51FC4F99
:102AC0003327220F331F05A0F6A1E02DE20FF31FDD
:102AD00065917491833028F4482F8EEE93E00E9424
:102AE000120E65968DA18F5F8DA3DF91CF91089512
:102AF00070E09B01220F331F27533C4FF901B7961B
:102B000045A196A1E42FF92FE80FF11DE80FF11D63
:102B100045915491D901A95ABF4F96965C934E9313
:102B20009597FA01859194919091FA03989F802D41
:102B3000112467537C4FFB01E35AFF4F85A3FA0131
:102B4000A591B4912B2F30E0E82FF0E02E173F072E
:102B500020F4FA0125913491832FFB01E05AFF4FB5
:102B6000899F802D112485A308950F931F93CF93E0
:102B7000DF938C01C0E0D0E0F801EC0FFD1F649101
:102B8000662371F0E0916304F09164040190F08198
:102B9000E02D83E694E00995892B11F02196ECCF86
:102BA000CE01DF91CF911F910F910895AF92BF9207
:102BB000CF92DF92EF92FF920F931F93CF93DF9309
:102BC000182F062FC1E0D3E08AEFD82E9EEFE92E12
:102BD000842F8470C82E842F8270B82E842F887022
:102BE000A82E4170F42E8C2F880F8F5FE80ECC201A
:102BF00081F04D2F400F6C2F610F83E694E00E940F
:102C0000640E4C2F400F6D2F610F83E694E00E94FD
:102C1000640EBB2081F0402F4D1B6C2F610F83E6AB
:102C200094E00E94640E402F4C1B6D2F610F83E6D1
:102C300094E00E94640EAA2081F04C2F400F612F77
:102C40006D1B83E694E00E94640E4D2F400F612FB0
:102C50006C1B83E694E00E94640EFF2081F0402FFD
:102C60004C1B612F6D1B83E694E00E94640E402F85
:102C70004D1B612F6C1B83E694E00E94640ECD1700
:102C800044F4E7FC04C0D150D394D394ED0CCF5F4F
:102C9000AACFDF91CF911F910F91FF90EF90DF901E
:102CA000CF90BF90AF9008959F92AF92BF92CF9276
:102CB000DF92EF92FF920F931F93CF93DF93F82E43
:102CC000E62EB22E03E0020FD0E0C3E08AEFC82E5A
:102CD0001EEF842F8170982EAA24A394A20E427016
:102CE000D42EDF5F802F8B19180F9920A1F02C2F85
:102CF000220F2A0D4E2D4C1B6D2F6F0D83E694E095
:102D00000E94D40F202F4E2D4D1B6C2F6F0D83E68C
:102D100094E00E94D40FDD20A1F02C2F220F2A0D69
:102D20004E2D4C1B6F2D6D1B83E694E00E94D40F3B
:102D3000202F4E2D4D1B6F2D6C1B83E694E00E94BF
:102D4000D40FDC1744F417FD04C0C150C394C394DE
:102D50001C0D0E5FC6CFDF91CF911F910F91FF9099
:102D6000EF90DF90CF90BF90AF909F900895CF935A
:102D7000DF93E4E7F4E0C081D1819881A8E7B4E073
:102D80008C91892B8883C0917604D09177049881A7
:102D9000809179048095892388830190F081E02DCA
:102DA00090818C91809589238083DF91CF910895C4
:102DB000CF92DF92EF92FF920F931F93CF93DF9307
:102DC000C3EDD3E00AED13E0FF24FA9496E0E92E78
:102DD000E00E62E088810E946D0C288130E0F901EC
:102DE000EA50F84F8491F901E952F84FC490F90183
:102DF000E854F84FD490DD2071F081110E94000C4E
:102E0000ED2DF0E0EE0FFF1FE655F84FA591B491C0
:102E1000EC91EC2131F5F80180818F5F808360E0D7
:102E200088810E946D0C21960F5F1F4FE012D1CF59
:102E30009091DA0391508091E0039E3F38F4909195
:102E4000DC0391509E3F10F48F5F08C08823A1F0EF
:102E50008F3F19F41092E0030FC08FEF8093E003CF
:102E60000BC0F80180818823F1F2F8018F3F11F443
:102E70001082D5CFF082D3CFDF91CF911F910F91E8
:102E8000FF90EF90DF90CF900895CF93DF93CDB771
:102E9000DEB728970FB6F894DEBF0FBECDBF78948B
:102EA00084B5826084BD84B5816084BD85B582604F
:102EB00085BD85B5816085BD80916E008160809300
:102EC0006E00109281008091810082608093810069
:102ED0008091810081608093810080918000816079
:102EE0008093800080919100826080939100809116
:102EF0009100816080939100809190008160809327
:102F000090008091C10084608093C1008091C100D5
:102F100082608093C1008091C10081608093C10074
:102F20008091C30081608093C3008091C000826063
:102F30008093C0008091C20081608093C200809124
:102F40007A00846080937A0080917A008260809316
:102F50007A0080917A00816080937A0080917A0073
:102F6000806880937A0010928C011092B8031092BE
:102F70008A018091D70081608093D70080EA809396
:102F8000D80089B5806189BD89B5826089BD09B4E1
:102F900000FEFDCF61E070E080E090E00E94CE0C8A
:102FA0008091D8008F7C80618093D8008091E00070
:102FB000807F8093E0008091E1008E7E8093E1002D
:102FC0008DE08093E200559A209AEEEFFFE785911D
:102FD00094918B3F9C4D19F481E08093B70382E379
:102FE0008093890481E090E0A0E0B0E080938204C7
:102FF00090938304A0938404B093850411E010930C
:10300000FC031093FB038FEF8093880484E180938B
:10301000D30382E18093D40383E18093D50385E1D8
:103020008093D60387E08093D70388E08093D8030A
:103030001092D9030E94D816109372041092730450
:1030400010936804109369046AE074E083E694E0E6
:103050000E94500E1FB7F89480918401811127C0FF
:10306000E9ECF7E08491E8EEF7E09491E82FF0E0E6
:10307000EE0FFF1FE25BFE4FA591B491EC91E923A7
:1030800021F461E081E10E943D0C61E081E10E9458
:103090006D0C8CB580618CBD8CB580648CBD61E09D
:1030A0008FE00E946D0C61E080E10E946D0C8091C8
:1030B00084018F5F809384011FBF8CB58C7F8CBD92
:1030C0008DB581608DBD61E084E00E946D0C61E092
:1030D0008CE00E946D0C61E086E00E946D0C61E066
:1030E00086E00E943D0C61E070E080E090E00E948C
:1030F000CE0C60E086E00E943D0C6AE070E080E06B
:1031000090E00E94CE0C61E086E00E943D0CE4EC71
:10311000F7E0E491F0E0EE0FFF1FE759FE4F8591D5
:1031200094919093750480937404ECEBF7E0E49130
:10313000F0E0EE0FFF1FE759FE4F859194919093B9
:10314000770480937604E3EEF7E0E491E09378046B
:10315000EBEDF7E0E491E09379040E94B7167CE58B
:10316000E72E71E0F72E1DE01E0DF70184910E94FD
:10317000F70FFFEFEF1AFF0A1E11F7CFE091760469
:10318000F0917704908180917904892B8083E0917C
:103190007404F0917504908180917804809589235E
:1031A000808300E014E080E00E94F70F01501109D5
:1031B000D1F7FF24F394F092FA03F09260040AE44A
:1031C00011E0109316040093150460E080E00E9463
:1031D0007815F0926104109318040093170461E0CD
:1031E00080E00E947815F092620410931A04009314
:1031F000190462E080E00E94781561E085E00E9499
:103200006D0C61E08DE00E946D0C61E085E00E9434
:103210006D0CEBEFF7E0E4918E2F90E0FC0131971D
:10322000EF30F10508F07DC0EA5AFF4F0C943E26BE
:1032300084B5806884BD81E087BD77C084B5806235
:1032400084BD81E088BD71C08091800080688093DA
:10325000800081E090E0909389008093880065C0B1
:103260008091800080628093800081E090E0909364
:103270008B0080938A0059C0809180008860809381
:10328000800081E090E090938D0080938C004DC091
:103290008091900080688093900081E090E090930E
:1032A00099008093980041C0809190008062809343
:1032B000900081E090E090939B0080939A0035C04D
:1032C0008091900088608093900081E090E09093DE
:1032D0009D0080939C0029C08091C00080688093ED
:1032E000C0008091C0008F7B8093C00081E08093FC
:1032F000CF001BC08091C00080628093C00081E03D
:103300008093D00012C08091C20088608093C20078
:103310008091C2008B7F8093C20081E08093D200B5
:1033200004C060E085E00E943D0C80919100887FA0
:10333000816080939100F894109280001092810037
:10334000109285001092840088E191E090938900AA
:1033500080938800809181008860809381008091B3
:10336000810081608093810080916F0082608093F2
:103370006F0078948091DF03813019F41092FB0381
:1033800015C040E067E771E08EEE93E00E94120EF8
:1033900041E067E771E08EEE93E00E94120E42E09A
:1033A00067E771E08EEE93E00E94120E85E891E0EF
:1033B0000E946809809164008E7F8093640087EC8E
:1033C00080937C0080E280937B0062E070E080E08C
:1033D00090E00E94CE0C80917A00806480937A0005
:1033E00080917A0086FDFCCFE0907800F090790023
:1033F000E094F0948EE580937C0062E070E080E0E1
:1034000090E00E94CE0C80917A00806480937A00D4
:1034100080917A0086FDFCCF0091780010917900B0
:103420000E94A90C9B01AC012095309540955095C8
:10343000009510950E9DD0010F9DB00D1E9DB00DF5
:1034400011240E9465236B017C010E94A90C6C0D64
:103450007D1D8E1D9F1D611571058105910511F062
:103460000E94272380916400816080936400109201
:10347000E10300E011E07801C12CD12CC6010E94CB
:103480003023D7019D917D019817C1F0F80161911A
:103490008F0180E090E06E830E9430236E81681778
:1034A00021F080E090E00E943823F1E003301F0714
:1034B00069F7109286011092850113C02FEFC21A8E
:1034C000D20A33E0C316D104C9F683E090E00E942B
:1034D00030238093850184E090E00E943023809324
:1034E00086010E944A102224239433243A94AA2469
:1034F000A3940E946405882309F4CCC4809103013D
:1035000090910401892B09F0C1C08FE080936C0475
:103510008AE080936D0467E871E083E694E00E949E
:10352000500E64E471E083E694E00E94EB0B20917E
:1035300087013091880180918501909186018217E1
:103540009307C0F58CE080936C048EE180936D044A
:103550008EE491E00E94390A809187019091880160
:103560000E94FE0F2EEF3FEF281B390B46E0429FD3
:10357000C001439F900D11248B5A9F4F97FD0196D8
:103580009595879580936C0469E571E083E694E0F6
:103590000E94EB0B609187017091880180E090E0C0
:1035A0004AE00E944C0A69E571E083E694E00E94DB
:1035B000EB0B23C08BE180936C048EE180936D0450
:1035C0008BE591E00E94390A0091870110918801F2
:1035D000C8010E94FE0F2AEFAC012403C001259F01
:1035E000900D11248B5A9F4F97FD019695958795C5
:1035F00080936C04C8010E948F0A8091DE038130A1
:10360000E9F5609187017091880180918501909121
:1036100086018617970798F010928801109287010B
:1036200010927F0110927E0185E090E0909304015A
:10363000809303010E9426100E944A101FC07093BD
:1036400086016093850183E090E06E830E943023C1
:103650006E81681721F083E090E00E94382360912A
:10366000860184E090E06E830E9430236E816817AB
:1036700099F284E090E00E943823CECF8091E0035D
:10368000813009F007C486E891E050C08091820142
:10369000909183018C3F984008F44BC08BE180935C
:1036A0006C0485E080936D0467E871E083E694E044
:1036B0000E94500E81E691E00E94390A00917E013D
:1036C00010917F01C8010E94FE0F2AEFAC01240374
:1036D000C001259F900D11248B5A9F4F97FD019695
:1036E0009595879580936C04C8010E948F0A15E117
:1036F00010936C0487E691E00E94390A10936C04E1
:1037000083E280936D048FE691E00E94390A8091F4
:10371000DE03813021F40E9426100E944A1080911D
:10372000E003813009F0B6C389E094E00E946809A3
:10373000B1C3E12C00918001109181018E2D90E0A8
:10374000801791070CF0C6C0880F991FE091BD0348
:10375000F091BE03E80FF91F60807180F12CF30136
:103760008681F81608F0B4C0D3011396BC90139765
:1037700011969C9011974C910F2D10E02801440C4C
:10378000551C1496ED91FC911597E40DF51DC08024
:10379000D180F6015081252F30E012968C9190E077
:1037A000840F911D029762812817390711F41616AC
:1037B00024F054130BC067FF09C06195D60112961F
:1037C0006C938EEE93E00E944B0E03C0560FF601F1
:1037D0005083D60111964C911197242F30E08B2DF8
:1037E00090E0890D911D029713965C912817390777
:1037F00011F4151624F049110AC057FF08C051955D
:10380000F60153838EEE93E00E944B0E04C0450FE9
:10381000D60111964C93F394BF2CD30116968C913C
:10382000B81608F09CCFF30184819581FC01EB0D63
:10383000F11DEB0DF11DA081B181FC01E40DF51D21
:103840000190F081E02D11968C9111972C9130E030
:103850004181608170E06B0112E0C10ED11C2C151A
:103860003D05A4F5690152E0C50ED11C6C157D051E
:103870006CF590E050E06A0112E0C10ED11C8C158D
:103880009D0524F56C0112E0C10ED11C4C155D059F
:10389000ECF4D2801D140CF005C36F5F7F4F261728
:1038A000370721F4328212962C9212972381121636
:1038B0000CF006C34F5F5F4F8417950719F43382EE
:1038C00013962C928EEE93E00E944B0EB394A5CFEC
:1038D000E39430CF8091BF039091C003019709F02A
:1038E0006DC28091C3038F5F8093C3032091BD039A
:1038F0003091BE033A8329839091C503F901E90F02
:10390000F11DE90FF11D4081518158874F83DA0184
:103910001696BC91BB83B090C4034090C103512C58
:1039200090E03201681A790A4C01880C991CF40164
:103930003196FD83EC83C090C203D12CA601481BB5
:10394000590B80E090E02B81821708F08EC0AF8188
:10395000B88514966D917C9115979C01220F331FA9
:10396000FB01E20FF31F0190F081E02DBB20B9F1C4
:103970003C9112962C91230F2150A32FB0E030E000
:103980006A167B0634F0B901621673061CF4B301A3
:1039900001C0BD012A1B3B0B8216930614F42C8137
:1039A0003D81F180A081B0E0260F371FA217B30739
:1039B0000CF059C012966A177B070CF054C02F2DDB
:1039C00030E0C216D3060CF44EC02E5F3F4FC21635
:1039D000D3060CF048C083818195838336C0AF81C4
:1039E000B88511963C91119713962C91230F215075
:1039F000A32FB0E030E04A175B0734F0B90142175B
:103A000053071CF4BA0101C0BD012A1B3B0B8216EF
:103A1000930614F42C813D81A181E080F12C4E1499
:103A20005F040CF1B2E0EB0EF11C4E145F04DCF409
:103A3000B0E0260F371FA217B307ACF412966A172F
:103A40007B078CF48281819582838EEE93E00E94C5
:103A50004B0E809103019091040101979093040112
:103A600080930301A7C101966ECF0E94F1148823B1
:103A700009F4A4C18091C4037801EE0CFF1C8823D3
:103A800009F44BC0D090C203AF81B88513960C9156
:103A9000139711968C91080F01500D1987E090E053
:103AA0000E94A721FC01AF81B88512968C911297D4
:103AB0009C919083D394D182828303831582148254
:103AC0001682A981BA81AE0DBF1DED93FC93809142
:103AD000BD039091BE03FC01EE0DFF1D0190F0812E
:103AE000E02DAF81B88516962C91169714964C91BF
:103AF000149715963C911597842F932F820F911D43
:103B0000820F911D958384838091C20311969C91AD
:103B10001197891B13968C9346C0D090C103EF81F7
:103B2000F88502818081080F01500D1987E090E02F
:103B30000E94A721FC01AF81B88513968C91139741
:103B400011969C91D394D0829183028383831582B2
:103B500014821682A981BA81AE0DBF1DED93FC932C
:103B60008091BD039091BE03FC01EE0DFF1D0190FD
:103B7000F081E02DAF81B88516962C91169714969A
:103B80004C91149715963C911597842F932F820F83
:103B9000911D820F911D958384838091C1039C9117
:103BA000891B12968C93EF81F885168240908001D4
:103BB00050908101B201660F771F1B81812F90E029
:103BC000AF81B8851696BC90A091BD03B091BE039D
:103BD000A60FB71FED90FC901197F7011681812E6B
:103BE000912C2B2D30E0A901480D591D481759077C
:103BF000DCF5AF81B88514960D911C911597F901EC
:103C0000EE0FFF1F9F01200F311F3A832983F90117
:103C1000A081B18111962C9111974C9150E0EF81C8
:103C2000F88573806180E080F12C32816701C30EDA
:103C3000D11C4C155D050CF04FC14E5F5F4FE41673
:103C4000F5060CF049C130E0462D50E07A01E70C52
:103C5000F11C2E153F050CF03FC12E5F3F4F421760
:103C600053070CF039C17CC1809187019091880184
:103C700020918201309183015091C403111123C01E
:103C800042816381552349F070E06F5F7F4F469F0B
:103C90008001479F100D112408C050E04F5F5F4F17
:103CA000649F8001659F100D1124800F911F9093D8
:103CB000880180938701200F311F30938301209367
:103CC0008201F70152C0B11057C0EF81F8856381BE
:103CD0004281552349F070E06F5F7F4F469F80011E
:103CE000479F100D112408C050E04F5F5F4F649F45
:103CF0008001659F100D1124800F911F9093880102
:103D000080938701200F311F30938301209382011C
:103D1000F7018081EF81F8858083ED91FC91119707
:103D20008181EF81F8858183ED91FC9111978281EA
:103D3000EF81F8858283ED91FC9111978381EF816A
:103D4000F8858383ED91FC91119784819581EF81B2
:103D5000F88595838483ED91FC9111978681EF819D
:103D6000F8858683ED91FC911197158214828D91CF
:103D70009C910E943C221EC0552329F0AF81B8853A
:103D800012964C9103C0EF81F885438150E0840F77
:103D9000951F9093880180938701240F351F3093DE
:103DA000830120938201FFEF4F1A5F0A5092810135
:103DB000409280011092C0031092BF038091DE03F5
:103DC000813009F04FC08091BF039091C003892BCF
:103DD00009F048C080908001909081011091C70344
:103DE0000091C603A02FB0E0612F70E0C090BD032A
:103DF000D090BE0340E050E0481559059CF5F6010F
:103E0000219131916F01F901F380928181812081AB
:103E100030E0A217B30774F0290F311DA217B307C2
:103E20004CF490E0681779072CF08F0D911D6817FE
:103E300079071CF04F5F5F4FDFCF8091C803882365
:103E400009F494C00093C1031093C203A092C40369
:103E50001092C3034093C50381E090E09093C003A8
:103E60008093BF038091DF03813029F49091C803D0
:103E700089278093C8038091E003813021F48CE886
:103E800095E00E9468098091DB0381508E3F08F025
:103E90008BC073C080E090E0892B09F42ACB0E948C
:103EA000000027CBDD2009F401CD2F5F3F4F6217C3
:103EB000730709F0FBCC228212963C921297F6CC43
:103EC000222309F4FFCC01964817590709F0FACCD0
:103ED000238213963C92F6CC9C0128193909215073
:103EE0003048220F331F020F131FF8012081318148
:103EF000E981FA8131832083E091BD03F091BE0313
:103F0000E60FF71F0190F081E02D2681FC01E21BF6
:103F1000F109E150F048AF01440F551FEF81F885DA
:103F200024813581FA01E20FF31FB183A083E09170
:103F3000BD03F091BE03E60FF71FA081B181149677
:103F40002D913C9115972250310915963C932E9353
:103F500014970190F081E02D26812F5F268330CECB
:103F6000B394AF81B8851696BC922ACE0093C10354
:103F70001093C2031092C4036BCF8091C703282F04
:103F800030E02115310571F02133310514F48150F1
:103F900001C08FE28093C7038091DA0381508E3F86
:103FA00088F48CC180E0F6CF8091DD0381508E3F94
:103FB00098F78091C703282F30E02F3231054CF756
:103FC0008F5FE8CF8091DC0381508E3F08F488C179
:103FD00048EF51E06FEF7FEF8CE991E00E945D26A2
:103FE000109272041092730400E325E140E06FE345
:103FF00083E694E00E94DF0EA0927204A092730404
:1040000080E4F82EF0926C04A0926D046AE074E0F3
:1040100083E694E00E94500E81E691E00E94390A06
:1040200000917E0110917F01C8010E94FE0F25E1E1
:1040300030E0281B390BC901880F880F80936C046E
:10404000C8010E948F0AF0926C048BE591E00E94F7
:10405000390A0091870110918801C8010E94FE0F62
:1040600045E150E0481B590BCA01880F880F809327
:104070006C04C8010E948F0AF0926C0410E0812F3A
:1040800090E020910301309104018217930740F4DE
:1040900067E771E083E694E00E94EB0B1F5FEFCFD0
:1040A0002091820130918301A4E6B0E00E949A231E
:1040B00020EA3BE040E050E00E94782369017A0169
:1040C000C9010E94FE0FA4E1B0E0A81BB90BCD010D
:1040D000880F880F80936C048FE180936D044AE011
:1040E000C701B6010E944C0A69E771E083E694E0DB
:1040F0000E94EB0B109272041092730410E08090F7
:10410000800190908101812F90E088159905ACF491
:10411000880F991FE091BD03F091BE03E80FF91FCE
:104120000190F081E02D038122814181608183E64D
:1041300094E00E94DF0E1F5FE2CFA0927204A09273
:1041400073048091BF039091C003892B09F465C06B
:104150004091C4033091BD032091BE039091C503EB
:104160008091C303E32FF22FE90FF11DE90FF11D39
:10417000A081B181442341F1EC9112962C912E0F34
:1041800021504091C10350E090E0481B590BF0E0F2
:1041900030E04E175F0734F0622F421753071CF4CC
:1041A000642F01C06E2F880F991F2E1B3F0B8217A3
:1041B00093071CF49C012F5F3F4F4091C20383E69D
:1041C00094E00E94BC0E29C01196EC9111971396B1
:1041D0002C912E0F21506091C20370E090E0681B7B
:1041E000790BF0E030E06E177F0734F0422F621752
:1041F00073071CF4462F01C04E2F880F991F2E1BEA
:104200003F0B821793071CF49C012F5F3F4F609177
:10421000C10383E694E00E94D40F82E0809372048D
:10422000809373048091C803882359F06091C6037A
:10423000615023E04091C70383E694E00E94BC0EE6
:104240000AC04091C703415023E06091C60383E652
:1042500094E00E94D40FA0927204A092730410E024
:10426000812F90E0881599050CF014CE880F991FC6
:10427000E091BD03F091BE03E80FF91FE080F180EB
:10428000D12CD70116968C91D816B0F4F7019481F1
:104290008581E92FF82FED0DF11DED0DF11D019038
:1042A000F081E02D02E022E04181608183E694E02C
:1042B0000E94DF0ED394E5CF1F5FD2CF8091C6035B
:1042C000282F30E02115310549F02F33310514F442
:1042D000815001C08DE38093C6037ACE80E0FBCF8E
:1042E0008091C603282F30E02D3331059CF78F5F76
:1042F000F2CFE1E9F4E01382128288EE93E0A0E0CD
:10430000B0E084839583A683B78387E291E09183AD
:1043100080838FEF9FEF95878487109266041092B9
:1043200065048CE391E09093640480936304E6EC6D
:10433000F3E08DE1808388E1818381E08283EFEB8C
:10434000F3E0128213821482858316820895CF933C
:10435000DF938230910510F482E090E0E091E30475
:10436000F091E40420E030E0C0E0D0E0309711F1BB
:104370004081518148175907C0F04817590761F427
:1043800082819381209719F09B838A832BC090931D
:10439000E4048093E30426C02115310519F0421787
:1043A000530718F49A01BE01DF01EF010280F38187
:1043B000E02DDCCF2115310509F1281B390B243004
:1043C000310590F412968D919C91139761157105AA
:1043D00021F0FB019383828304C09093E4048093D3
:1043E000E304FD01329644C0FD01E20FF31F819307
:1043F0009193225031092D933C933AC02091E104CE
:104400003091E204232B41F42091140130911501E5
:104410003093E2042093E1042091120130911301C2
:104420002115310541F42DB73EB740911601509149
:104430001701241B350BE091E104F091E204E2172F
:10444000F307A0F42E1B3F0B2817390778F0AC01B7
:104450004E5F5F4F2417350748F04E0F5F1F509394
:10446000E2044093E1048193919302C0E0E0F0E024
:10447000CF01DF91CF9108950F931F93CF93DF93D7
:10448000009709F48CC0FC013297138212820091CC
:10449000E3041091E4040115110581F420813181B8
:1044A000820F931F2091E1043091E204281739070D
:1044B00079F5F093E204E093E10471C0D80140E0A3
:1044C00050E0AE17BF0750F412962D913C91139710
:1044D000AD012115310509F1D901F3CF9D01DA01B3
:1044E0003383228360817181860F971F8217930720
:1044F00069F4EC0128813981260F371F2E5F3F4F69
:10450000318320838A819B8193838283452B29F485
:10451000F093E404E093E30442C01396FC93EE931B
:104520001297ED01499159919E01240F351FE21711
:10453000F30771F480819181840F951F0296119683
:104540009C938E938281938113969C938E93129762
:10455000E0E0F0E0D80112968D919C9113970097BE
:1045600019F0F8018C01F6CF8D919C9198012E5F86
:104570003F4F820F931F2091E1043091E2042817EE
:10458000390769F4309729F41092E4041092E30497
:1045900002C0138212821093E2040093E104DF91BF
:1045A000CF911F910F9108958F929F92AF92BF92DA
:1045B000CF92DF92EF92FF92CF93DF93EC0168816D
:1045C00079818A819B81611571058105910521F4AD
:1045D00064E279ED8BE597E02DE133EF41E050E0C7
:1045E0000E94462349015A019B01AC01A7EAB1E4AC
:1045F0000E9465236B017C01ACEEB4EFA501940130
:104600000E947323DC01CB018C0D9D1DAE1DBF1DCF
:10461000B7FF03C00197A109B04888839983AA8393
:10462000BB83BC01CD019F77DF91CF91FF90EF90CD
:10463000DF90CF90BF90AF909F908F9008950E9491
:10464000D422089588E191E00E94D42208956093D5
:1046500018017093190180931A0190931B0108951A
:10466000F999FECF92BD81BDF89A992780B508953A
:10467000262FF999FECF1FBA92BD81BD20BD0FB67E
:10468000F894FA9AF99A0FBE01960895052E97FBB1
:104690001EF400940E945D2357FD07D00E947823EA
:1046A00007FC03D04EF40C945D2350954095309553
:1046B00021953F4F4F4F5F4F08959095809570958E
:1046C00061957F4F8F4F9F4F08950E949A23A59F1A
:1046D000900DB49F900DA49F800D911D11240895FD
:1046E000B7FF0C9465230E946523821B930B0895EA
:1046F000A1E21A2EAA1BBB1BFD010DC0AA1FBB1FE6
:10470000EE1FFF1FA217B307E407F50720F0A21B57
:10471000B30BE40BF50B661F771F881F991F1A94C4
:1047200069F760957095809590959B01AC01BD01EE
:10473000CF010895A29FB001B39FC001A39F700D48
:10474000811D1124911DB29F700D811D1124911D99
:1047500008955058BB27AA270E94C1230C94E02437
:104760000E94D22438F00E94D92420F039F49F3FCF
:1047700019F426F40C94CF240EF4E095E7FB0C9486
:10478000A024E92F0E94F12458F3BA176207730797
:104790008407950720F079F4A6F50C942B250EF4E8
:1047A000E0950B2EBA2FA02D0B01B90190010C0141
:1047B000CA01A0011124FF27591B99F0593F50F459
:1047C000503E68F11A16F040A22F232F342F4427B1
:1047D000585FF3CF469537952795A795F0405395A9
:1047E000C9F77EF41F16BA0B620B730B840BBAF079
:1047F0009150A1F0FF0FBB1F661F771F881FC2F7E4
:104800000EC0BA0F621F731F841F48F487957795F7
:104810006795B795F7959E3F08F0B0CF9395880FB1
:1048200008F09927EE0F9795879508950E941D240B
:104830006894B1110C942C2508950E94F92488F0F5
:104840009F5798F0B92F9927B751B0F0E1F0660F54
:10485000771F881F991F1AF0BA95C9F714C0B13095
:1048600091F00E942B25B1E008950C942B25672F21
:10487000782F8827B85F39F0B93FCCF386957795C4
:104880006795B395D9F73EF49095809570956195AD
:104890007F4F8F4F9F4F0895E89409C097FB3EF4D8
:1048A00090958095709561957F4F8F4F9F4F99237D
:1048B000A9F0F92F96E9BB279395F69587957795FB
:1048C0006795B795F111F8CFFAF4BB0F11F460FFBB
:1048D0001BC06F5F7F4F8F4F9F4F16C0882311F013
:1048E00096E911C0772321F09EE8872F762F05C027
:1048F000662371F096E8862F70E060E02AF09A95C2
:10490000660F771F881FDAF7880F9695879597F9B6
:1049100008950E94132590F09F3748F4911116F0E6
:104920000C942C2560E070E080E89FEB089526F45D
:104930001B16611D711D811D0C94A6240C94C124AD
:1049400097F99F6780E870E060E00895882371F42C
:10495000772321F09850872B762F07C0662311F418
:1049600099270DC09051862B70E060E02AF09A954F
:10497000660F771F881FDAF7880F9695879597F946
:1049800008959F3F31F0915020F487957795679572
:10499000B795880F911D9695879597F908959FEF84
:1049A00080EC089500240A941616170618060906C6
:1049B000089500240A941216130614060506089595
:1049C000092E0394000C11F4882352F0BB0F40F41D
:1049D000BF2B11F460FF04C06F5F7F4F8F4F9F4F5D
:1049E000089557FD9058440F551F59F05F3F71F0DF
:1049F0004795880F97FB991F61F09F3F79F0879546
:104A00000895121613061406551FF2CF4695F1DFCE
:104A100008C0161617061806991FF1CF869571055E
:104A20006105089408950E94F924A0F0BEE7B91723
:104A300088F4BB279F3860F41616B11D672F782FB6
:104A40008827985FF7CF869577956795B11D9395E1
:104A50009639C8F30895E894BB2766277727CB01DA
:104A600097F908950E94422529ED3BE54EED5EE35E
:104A70000C948A2516F00C94C1240C94CF246894CD
:104A80000C94A0240E94F924A8F39923C1F3AEF357
:104A9000DF93CF931F930F93FF92C92FDD278823B6
:104AA0002AF02197660F771F881FDAF720E030E0A1
:104AB00040E85FEB9FE3883920F0803E38F0219694
:104AC0008F770E94AA23E8EEF0E004C00E94AA2398
:104AD000E5E1F1E00E94F7258B01BE01EC01FB2E20
:104AE0006F5771097595771F880B990B0E944E249B
:104AF00028E132E741E35FE30E949D25AF2D980155
:104B0000AE01FF900F911F91CF91DF910E94C123C1
:104B10000C94E0240E949D250C94E0240E94D22451
:104B200038F00E94D92420F0952311F00C94A02491
:104B30000C94CF2411240C942C250E94F12470F3A2
:104B4000959FC1F3950F50E0551F629FF001729F32
:104B5000BB27F00DB11D639FAA27F00DB11DAA1F41
:104B6000649F6627B00DA11D661F829F2227B00D8E
:104B7000A11D621F739FB00DA11D621F839FA00D19
:104B8000611D221F749F3327A00D611D231F849F69
:104B9000600D211D822F762F6A2F11249F575040C0
:104BA0009AF0F1F088234AF0EE0FFF1FBB1F661F3B
:104BB000771F881F91505040A9F79E3F510580F004
:104BC0000C94A0240C942C255F3FE4F3983ED4F37E
:104BD000869577956795B795F795E7959F5FC1F7A8
:104BE000FE2B880F911D9695879597F90895DF9371
:104BF000CF931F930F93FF92EF92DF927B018C0173
:104C0000689406C0DA2EEF010E949D25FE01E8940B
:104C1000A5912591359145915591A6F3EF010E94FB
:104C2000C123FE019701A801DA9469F7DF90EF90A4
:104C3000FF900F911F91CF91DF910895991B79E01B
:104C400004C0991F961708F0961B881F7A95C9F71C
:104C50008095089597FB072E16F4009407D077FDF2
:104C600009D00E94442607FC05D03EF4909581951A
:104C70009F4F0895709561957F4F0895EE0FFF1F28
:104C80000590F491E02D0994AA1BBB1B51E107C0CC
:104C9000AA1FBB1FA617B70710F0A61BB70B881FCC
:104CA000991F5A95A9F780959095BC01CD0108955B
:104CB00081E090E0F8940C946426DC0101C06D93CF
:0C4CC00041505040E0F70895F894FFCFF9
:104CCC002A0C1C050000E100000000000001FFFFA1
:104CDC00FFFF0000E50480000100000000C180819E
:104CEC00000000000000003305DE0AD71149051E44
:104CFC0011DB11F91130033E00000000080F770B97
:104D0C00BF0BBE0B47616D65204F7665720048691D
:104D1C0067682073636F7265000F0053636F726571
:104D2C00004C6576656C00636C656172656400505F
:0E4D3C0072657373201500030025000D0A0038
:00000001FF
