:100000000C942F0C0C94570C0C94570C0C94570C0C
:100010000C94570C0C94570C0C94570C0C94570CD4
:100020000C94570C0C94570C0C94741B0C94E31BFD
:100030000C94570C0C94570C0C94570C0C94570CB4
:100040000C94570C0C94570C0C94570C0C94570CA4
:100050000C94570C0C94570C0C94570C0C94151EC4
:100060000C94570C0C94570C0C94570C0C94570C84
:100070000C94570C0C94570C0C94570C0C94570C74
:100080000C94570C0C94570C0C94570C0C94570C64
:100090000C94570C0C94570C0C94570C0C94570C54
:1000A0000C94570C0C94570C0C94570C0F03030B27
:1000B00002120317021C03230227042F0235023900
:1000C00004410246034E03550459021A05020B026D
:1000D000110217021D0225042B04310437043D04CC
:1000E000430449044F0405170B17121618161E1265
:1000F00013311E3125252B25312537253D25432557
:100100002506030C03170223022F023B0247024C71
:1001100003520359031E132B13381345135312595B
:1001200013061F0C1F181F251F321F3F1F4C1F14C3
:100130002B212B2E2B3B2B482B532A592B05370CCD
:10014000361836253632363F364C361106030D0446
:1001500013041C03230229022F0736083C0343041F
:100160004C0352035A031C2222273D264222120826
:10017000050E05170323032F02350241024D0253DA
:100180000259021F1F2E1C341C401C4D1D531D5AAA
:100190001E5A2D1707040D041702290235021A25CD
:1001A000202526252C2507361135420348034E030A
:1001B00059025113591542234D235A233A354134DC
:1001C000473514070413041C032F02470253025936
:1001D00002061306200630171C1D1B271D2F1B416E
:1001E0001B4A1E24352A3547354D351806030C03A6
:1001F0001803061214141E123413062315231B248D
:10020000083523372A373A13401346134C13521339
:100210005A125A205A305B0451043D041706030F4A
:100220000417021D022D043403400346034C0352FD
:10023000035A032A13301309140F141C2825272BE3
:10024000273929422648260E3621351506160C1662
:1002500014141D1524162A1636353E3546335222FF
:1002600058223F15451553024D0246035A033F04D9
:100270002803200307041A06030C03100316032A9D
:100280000335023B025A0357125112341325141935
:100290001406240C232023262234243C22422350FB
:1002A000344A3434342E3418341234FF03F907132B
:1002B00003F9341403613810021F021302261614C6
:1002C0000043301B0125301C010C151DFF03F938BC
:1002D0001203620A0E02140D11022D0712014E10B4
:1002E00018014E281900101C1AFF03F9380F036279
:1002F000160402030C0F0234321000571017001EB0
:100300003215002D0B16FF0362240D0362100C0240
:1003100010020C02581E0D00101A1400262F120095
:1003200032071306531E00FF03F9380A0362160949
:1003300003622B0B00FE1A110141320F0010131043
:1003400002FE0B0A0257020B064F2000FF03F906BC
:100350007003F9177103F9277203F93873014E031B
:100360000E012D320C0050320D0204110602042140
:1003700009FF014022090158220A0005340B021C22
:1003800016080258110503F9066B03F9166C03F9F8
:10039000276D0362066E0362170503622708036276
:1003A000386FFF012B2806004D230701281508028E
:1003B000161203024C110703F9060603F929030379
:1003C000F9386803620669036216070362296A0640
:1003D0004D2400FF012D30030147300401510E056B
:1003E000023C0704022A070E03F9061503F92D64DF
:1003F0000362066503621666FF003C2E0001202E94
:10040000010012200202482001020E1002036206BF
:100410000206512000FFFF012825080134250801AC
:10042000402508012803080134030801400308019E
:100430004C032A01081222FF014F0306010903128F
:100440000156121001562A0F01091E0F000F053A1E
:10045000FF014F033401100334FF010B033501503A
:10046000030901501E1AFF010A0322011D220A017D
:1004700029221401450309FF011A1C1A01560525FA
:1004800001273603014A3603002A1E1CFF011825E6
:100490001301371325014F13250143130BFF0128C7
:1004A0002611010C121601452803014F03080143D0
:1004B0000313012D1303011A0403FF015524130133
:1004C00009121A012712240142150601500506FFE0
:1004D000010925120115350301313503014D35039D
:1004E00001232309013F23090154141201090410B7
:1004F00001380402FF000005030203015D030360ED
:100500000502603F03003F020005FF04251D043182
:100510001D043D1D000005030203015D030360058A
:1005200002603F030C3F030C3B03003B03003A0215
:10053000001B030019030316030515011C15031EF8
:1005400010031E0F031F0E03000E03000500132CE3
:10055000031F2C031E2D031E2F03193203132F0319
:10056000132C03122CFF000005030203015D03039B
:10057000600502600B036011031E11005A11035B3A
:1005800012035C14036017026029031429005A291E
:10059000035B2A035C2C03602F02603F005F3F0374
:1005A000003F030038030336030535030534030613
:1005B00034000034034C3402002103031F03051EE2
:1005C00003051E03061D00001D034C1D020005FF50
:1005D000000005030203012C03032F05033006036B
:1005E0003309033606033803015D03036005026027
:1005F0001703601D035A1D035B1E035C2003602369
:1006000002603F03303F02303203362F03372D02A2
:100610003727033D24033D2303412003431F0243A7
:1006200013033C13033C1803361803361D03291D1E
:10063000032918032318032313031C13021C20038C
:100640002D2D032B2E03283003273202273F0300D2
:100650003F02001B030518030616030016030015CE
:10066000020005FF000005030203015E03036006AC
:1006700002601203601703171703181803191A03EF
:100680001F1D015D1D03602002602603602B035ABD
:100690002B035B2C035C2E036030036034035F3458
:1006A000035F3503603602603F03003F020005FF31
:1006B000000005030203015E0303600603600D03EF
:1006C0004E0D03500F035010035413035814015ED2
:1006D0001403601503601D03461D034618034118EB
:1006E000034113033C13033C0E03150E02152003B4
:1006F0001823031A23015A23035D24036027026091
:100700002C00602B03603203543203542D03342D2C
:1007100003362F033630033A33014833034C360295
:100720004C3F03003F030037030B32030E35031128
:100730003302112D03002D020005FF052426054775
:1007400026000005030203015E0303600602603F0A
:1007500003003F03003902003303053003062E0374
:10076000002E03002902002303052003061E0300B8
:100770001E030018030414011214031A1C014D1C5B
:10078000024D12031C12031C0D03000D0300050093
:100790002A1E03271B00481E034C1AFF00000503F6
:1007A0000203015E0303600603600D03000D0300F6
:1007B0000500001503031301221303241702241D4F
:1007C00003141D03142003172301222403242602EB
:1007D0002435032738032A35022A1A032C13015A19
:1007E0001303601803601E035A1E035B1F035C2182
:1007F000036024036026035F26035F27036028034A
:10080000602E035A2E035B2F035C310360330360B9
:1008100037035F37035F3803603903603F03473FA7
:1008200003473E02472E03442F03403202403F035A
:10083000003F030039030335030A32030B30030C76
:100840002E03002E0300270303230306210309239D
:10085000030C21020C1D03001D030015FF00000501
:10086000030203015E0303600603600D035A0D03D8
:100870005C0F03601202601803601D03261D000058
:100880000503000D03380D03320F033210032E123F
:10089000032A1103261302261D000014030312016C
:1008A0001C12031E14021E1D03161D03181F031B1A
:1008B00027015A2703602903603003503003503565
:1008C00003403503403A03303A03303F03003F0012
:1008D00000140200270300300321300221330000FE
:1008E00036011F3603213300003603003FFF0000AE
:1008F00005030603012A0303320602320D00320DFE
:1009000003000D030005003A05033E03015A0303EB
:10091000600603600D035A0D035C0F036012026052
:100920001803601D034E1D03501F0353210355235D
:10093000015C2303602702603F031D3F00141D0379
:100940001D1D021D3F00141D02143903083900004B
:100950001402002C0300340307340207380307395C
:10096000000014012C1403321602322F0337340115
:100970004734003A06023A0D03460D02461303407F
:1009800014033C13033A15023A21033F21023F248A
:10099000033F2603442602442A03442B03492B0326
:1009A000492D034532FF04122C042E2C044A2C003E
:1009B0000005030203015D0303600603600D0310DD
:1009C0000D03121003181301571303601702603F41
:1009D00003003F000025020040000025030521031D
:1009E000082303101F03111D03011D000005020051
:1009F0001D00491D03191D00191D031B2003222280
:100A000001402203461F03481EFF000007000009A3
:100A1000070909080E1111001F041F001103081F08
:100A2000111F00001F1D151711151F07041F171593
:100A30001D1F151D01011F1F151F07051F07080298
:100A4000462B3F2F060002066B3F4F060002062B87
:100A50007F4F060000062F3F2B460200064F3F6BDC
:100A6000060200064F7F2B060200162F3F6F06007E
:100A700000066F3F2F160000162F3F6F16002461EF
:100A8000747074612440C0E0E0E0C04000066B3D3B
:100A90004B020000026F1B5E060000026F3A0F045B
:100AA0000000045F36CD040006080020547874204E
:100AB0000008142C1408081408081808FEDBF1F1CB
:100AC000FBFE020602070216021702260227022D6B
:100AD0000229023402385806580A58105816581776
:100AE00058245829582B583858265827FF64000A8C
:100AF0001000120201060D010003010A68010D0B2E
:100B000002006502076602096B020A6C020D6D02A3
:100B1000106903000703026A030570030A71030EDC
:100B20007203147303126E04000504030804056FB6
:100B300004090C05090F050D0605110A060C15061A
:100B40000F09070912070D04080913080B140812EE
:100B50000E0901FF00000003060002060D00000060
:100B600002000D03030F03060DFF00000003060043
:100B7000020606000000020006030308030606FF43
:100B800000000000003E5B4F5B3E3E6B4F6B3E1C27
:100B90003E7C3E1C183C7E3C181C577D571C1C5E3E
:100BA0007F5E1C00183C1800FFE7C3E7FF00182415
:100BB0001800FFE7DBE7FF30483A060E26297929BF
:100BC00026407F050507407F05253F5A3CE73C5AF4
:100BD0007F3E1C1C08081C1C3E7F14227F22145FD1
:100BE0005F005F5F06097F017F006689956A60602C
:100BF00060606094A2FFA29408047E040810207E26
:100C0000201008082A1C08081C2A08081E101010AA
:100C1000100C1E0C1E0C30383E3830060E3E0E06F0
:100C2000000000000000005F000000070007001443
:100C30007F147F14242A7F2A122313086462364902
:100C40005620500008070300001C224100004122EA
:100C50001C002A1C7F1C2A08083E080800807030EF
:100C6000000808080808000060600020100804025E
:100C70003E5149453E00427F400072494949462164
:100C800041494D331814127F1027454545393C4AD8
:100C900049493141211109073649494936464949EF
:100CA000291E000014000000403400000008142237
:100CB00041141414141400412214080201590906A5
:100CC0003E415D594E7C1211127C7F494949363EA6
:100CD000414141227F4141413E7F494949417F098C
:100CE0000909013E414151737F0808087F00417F97
:100CF00041002040413F017F081422417F40404095
:100D0000407F021C027F7F0408107F3E4141413E2C
:100D10007F090909063E4151215E7F0919294626AE
:100D20004949493203017F01033F4040403F1F20B2
:100D300040201F3F4038403F631408146303047889
:100D400004036159494D43007F41414102040810A9
:100D500020004141417F04020102044040404040E4
:100D6000000307080020545478407F284444383852
:100D700044444428384444287F38545454180008C4
:100D80007E090218A4A49C787F0804047800447D9E
:100D900040002040403D007F1028440000417F403B
:100DA000007C047804787C0804047838444444388F
:100DB000FC1824241818242418FC7C08040408486F
:100DC0005454542404043F44243C4040207C1C20C0
:100DD00040201C3C4030403C44281028444C90901B
:100DE000907C4464544C4400083641000000770075
:100DF00000004136080002010204023C2623263C82
:100E00001EA1A161123A4040207A3854545559210C
:100E100055557941215454784121555478402054F6
:100E20005579400C1E527212395555555939545442
:100E3000545939555454580000457C410002457DB1
:100E4000420001457C40F0292429F0F0282528F0B3
:100E50007C545545002054547C547C0A097F493207
:100E6000494949323248484832324A4848303A4182
:100E700041217A3A42402078009DA0A07D39444427
:100E800044393D4040403D3C24FF2424487E4943B2
:100E9000662B2FFC2F2BFF0929F620C0887E090323
:100EA00020545479410000447D413048484A32384A
:100EB0004040227A007A0A0A727D0D19317D262976
:100EC000292F28262929292630484D40203808086E
:100ED000080808080808382F10C8ACBA2F102834A2
:100EE000FA00007B000008142A142222142A140895
:100EF0009500220095AA005500AAAA55AA55AA0055
:100F00000000FF00101010FF00141414FF00101058
:100F1000FF00FF1010F010F0141414FC001414F76C
:100F200000FF0000FF00FF1414F404FC1414171059
:100F30001F10101F101F1414141F00101010F000A9
:100F40000000001F101010101F10101010F01000E3
:100F50000000FF101010101010101010FF100000F3
:100F600000FF140000FF00FF00001F10170000FC2E
:100F700004F414141710171414F404F40000FF0000
:100F8000F714141414141414F700F7141414171489
:100F900010101F101F141414F4141010F010F0008F
:100FA000001F101F0000001F14000000FC140000B0
:100FB000F010F01010FF10FF141414FF1410101094
:100FC0001F00000000F010FFFFFFFFFFF0F0F0F047
:100FD000F0FFFFFF0000000000FFFF0F0F0F0F0FDB
:100FE00038444438447C2A2A3E147E020206060213
:100FF0007E027E0263554941633844443C04407E8E
:10100000201E2006027E020299A5E7A5991C2A4906
:101010002A1C4C7201724C304A4D4D303048784891
:1010200030BC625A463D3E494949007E0101017E7D
:101030002A2A2A2A2A44445F444440514A444040D0
:10104000444A51400000FF0103E080FF000008080F
:101050006B6B083612362436060F090F060000188F
:10106000180000001010003040FF0101001F0101B6
:101070001E00191D1712003C3C3C3C000000000003
:10108000F0F89C8E8783878E9CF8F00000FEFF03AB
:1010900003030303070EFCF80000FEFF0303030332
:1010A00003070EFCF80000FFFF0000000000000036
:1010B000FFFF0000FEFF8383838383C7EE7C38003D
:1010C00000F8FC0E07030303070EFCF800003F7F47
:1010D000E0C08080C0E07F3FFFFF0101010101010E
:1010E00001FFFF0000FFFF0C0C0C0C1C3E77E3C15E
:1010F00000007FFFC0C0C0C0C0E0703F1F00001FE5
:101100003F70E0C0C0C0E0703F1F00007FFFC1C162
:10111000C1C1C1E3773E1C00001F3F70E0C0C0C0EA
:10112000E0703F1F000000000001FFFF0100000011
:10113000D5F08D14A1C881CFD9F1AF20008040AA8D
:1011400055AA55AA55AA550000000000000000004D
:10115000000000000000000000000000000000008F
:10116000000000000000000000000000000000007F
:10117000000000000000000000000000000000006F
:10118000000000000000000000000000000000005F
:10119000000000000000000000000000000000004F
:1011A000000000000000000000000000000000003F
:1011B00000000000000000AA55AA55AA55AA55AA89
:1011C00055AA55AA55AA55000000000000000000CD
:1011D000000000000000000000AAFF007D140500D0
:1011E000FFFEFF82BBBAC7FE83BABB82FF82DFEE7F
:1011F000DF82FF82F7EE83FE83BEBFFE87EAEB86C7
:10120000FF82F7EE83FE83BABBC6FFFEFFFEFFFE42
:10121000FFFEFFFEFFFEFFFEFFFEFFFEFFFEFFFEE6
:10122000FFFEFFFE5500000000000000000000006F
:1012300000000000000000AA55AA55AA55AA55AA08
:1012400055AA55AA55AA550000000000000000004C
:10125000000000000000000000AAFF07777707FFEA
:1012600007DFAF77FFFFFFFFFFFFFFFFFFFFFFFF7E
:10127000FFFFFFFFFFFFFFFFFFFFFFFFFFFFFFFF7E
:10128000FFFFFFFFFFFFFFFFFFFFFFFFFFFFFFFF6E
:10129000FFFFFFFFFFFFFFFFFFFFFFFFFFFFFFFF5E
:1012A000FFFFFFFF550000000000000000000000ED
:1012B00000000000000000AA55AA55AA55AA55AA88
:1012C00055AA55AA55AA55000000000000000000CC
:1012D000000000000000000000AAFF070707070742
:1012E000FFFFFFFFFFFFFFFFFFFFFFFFFFFFFFFF0E
:1012F000FFFFFFFFFFFFFFFFFFFFFFFFFFFFFFFFFE
:10130000FFFFFFFFFFFFFFFFFFFFFFFFFFFFFFFFED
:10131000FFFFFFFFFFFFFFFFFFFFFFFFFFFFFFFFDD
:10132000FFFFFFFF5500000000000000000000006C
:1013300000000000000000AA55AA55AA55AA55AA07
:1013400055AA55AA55AA550000000000000000004B
:10135000000000000000000000AAFFFCFCFCFCFCF8
:10136000FFFFFFFFFFFFFFFFFFFFFFFFFFFFFFFF8D
:10137000FFFFFFFFFFFFFFFFFFFFFFFFFFFFFFFF7D
:10138000FFFFFFFFFFFFFFFFFFFFFFFFFFFFFFFF6D
:10139000FFFFFFFFFFFFFFFFFFFFFFFFFFFFFFFF5D
:1013A000FFFFFFFF550000000000000000000000EC
:1013B00000000000000000AA55AA55AA55AA55AA87
:1013C00055AA55AA55AA55000000000000000000CB
:1013D000000000000000000000AAFFFFFFFFFFFF69
:1013E000FFFFFFFFFFFFFFFFFFFFFFFFFFFFFFFF0D
:1013F000FFFFFFFFFFFFFFFFFFFFFFFFFFFFFFFFFD
:10140000FFFFFFFFFFFFFFFFFFFFFFFFFFFFFFFFEC
:10141000FFFFFFFFFFFFFFFFFFFFFFFFFFFFFFFFDC
:10142000FFFFFFFF5500000000000000000000006B
:1014300000000000000000AA55AA55AA55AA55AA06
:1014400055AA55AA55AA550000000000000000004A
:101450000000000000000000002A7F3F7F3F7F3F28
:101460007F3F7F3F7F3F7F3F7F3F7F3F7F3F7F3F8C
:101470007F3F7F3F7F3F7F3F7F3F7F3F7F3F7F3F7C
:101480007F3F7F3F7F3F7F3F7F3F7F3F7F3F7F3F6C
:101490007F3F7F3F7F3F7F3F7F3F7F3F7F3F7F3F5C
:1014A0007F3F7F3F5500000000000000000000006B
:1014B00000000000000000AA55AA55AA55AA55AA86
:1014C00055AA55AA55AA55000000000000000000CA
:1014D000000000000000000000000000000000000C
:1014E00000000000000000000000000000000000FC
:1014F00000000000000000000000000000000000EC
:1015000000000000000000000000000000000000DB
:1015100000000000000000000000000000000000CB
:1015200000000000000000000000000000000000BB
:1015300000000000000000AA55AA55AA55AA5501AE
:1015400008FF4D3700000000000000000000000010
:10155000000E1111150C00111F1100DF5050801FDB
:1015600095555A801FD511001FC505DA8001DF018E
:10157000C00000119F51409F02C49F00C000C15F86
:1015800041801F04041F001F15110000000000000F
:10159000000000000000000000000000000000004B
:1015A000000000000000000007040403000304041E
:1015B00003000702010207000700010700070404F7
:1015C00000070101070007000107000704040300EA
:1015D000000000000000000000000000000000000B
:1015E00000000000001E05051E001F050D12001F53
:1015F00011110E000F10100F001F15151A000E11FB
:10160000110E00C354548F00C00003CC100C030013
:101610001F1511001F05051A001215150900111FCD
:1016200011000E11110E001F02041F000000000027
:101630000000F0501000F0000000F0501000E0102A
:1016400010100010F01000F05050A000E01010E05A
:10165000070505F6000005050310F010000000F076
:101660005050A0000000000000D0507000F010F0BA
:1016700000D05070007050D0000000000000000149
:1016800001010001010100010101000081818100CF
:101690008081800001808001008081810000808045
:1016A00081010100018081810100018081010181AE
:1016B0000000008000808181010001010100010122
:1016C0000100010101000000000000000000000016
:1016D0000002020202020000090A0A0400000F00D0
:1016E000000F02020F000F02020D00000F000000A9
:1016F000000708080A06000F02020F000F0102018E
:101700000F000F0A0800000202020202000000009F
:101710000000000000000000007C10107C0000446D
:101720007C4400384444543000007C10107C00009D
:101730000048545424003844444400384444380099
:101740007C141468007C5444004400000000000035
:101750000000000000000000000000000000000584
:10176000080040A0400040A0E0A04007080102049B
:101770000E0402012010081C081020080B000202B1
:10178000020000090400000102020000052400100C
:1017900001052401010104240206052406000107B5
:1017A00005810310004009040100020A000000073F
:1017B00005020240000007058302400000040309FF
:1017C0000412010002EF02014041233680000101B2
:1017D00002030141726475696E6F204C4C430041F5
:1017E000726475696E6F204C656F6E6172646F0014
:1017F00000000000250028002B002E00310004040A
:1018000004040403040502020202040302020202A9
:101810000606060606060404020202040404080280
:101820000110408040102040804080080204018068
:1018300040201002011080102040402000000002D3
:1018400000090F0000030401000C0000000000006C
:10185000000000000000000000000000921E1124A3
:101860001FBECFEFDAE0DEBFCDBF11E0A0E0B1E0F8
:10187000E0E4F4E502C005900D92A039B107D9F774
:1018800026E0A0E9B1E001C01D92A53FB207E1F753
:101890001CE0CFE2DCE004C02197FE010E94182A80
:1018A000CE32D107C9F70E94DF1E0C941E2A0C9479
:1018B0000000EDE2F2E0A0E0B8E000800EBC811193
:1018C000012C1197A0FDFDCF0192B9F70DB4089539
:1018D000809130068430B9F480912C02882319F06D
:1018E000815080932C028EE68093E1068091DC0685
:1018F0009091E206890F8093DC061092E206109226
:10190000F006109230060895E1E4F8E12491E2E255
:10191000F8E13491E3E0F8E19491992309F430C0BF
:101920002223E9F021502F30D0F4E22FF0E0E556E9
:10193000F34F0C94182AC90CCD0CAA0CC10CC50C81
:10194000AF0CAF0CAF0CD00CD60CDA0CDE0CE40CE8
:10195000AF0CE80C209180002F7720938000E92FB6
:10196000F0E0EE0FFF1FE051F84EA591B4919FB744
:10197000F894EC91811132C030953E233C939FBF87
:101980000895209180002F7DE8CF20918000277F4F
:10199000E4CF24B52F7724BDE2CF24B52F7DFBCF34
:1019A000209190002F7720939000D9CF2091900024
:1019B0002F7DF9CF20919000277FF5CF2091C00097
:1019C0002F772093C000CBCF2091C0002F7DF9CF7F
:1019D0002091C200277F2093C200C1CF3E2BCECFE3
:1019E000FC0180912202882311F13FB7F89482E034
:1019F0008093E9002091F200822F90E018161906DA
:101A000014F481E090E0882339F0289844E640936C
:101A100021024091F1004083222339F02091F2000D
:101A2000211103C02BE62093E8003FBF08958FEFFC
:101A30009FEF08952FB7F89483E08093E900909189
:101A4000E800892F807295FF04C09091F20080E435
:101A5000891B2FBF08958091190281110DC082E06A
:101A60008093150284E0809316021092180210925F
:101A7000170281E08093190285E192E00895CF93E7
:101A8000DF931F92CDB7DEB76983DC01ED91FC9146
:101A90000280F381E02D41E050E0BE016F5F7F4F97
:101AA00009950F90DF91CF91089583E08093E9002D
:101AB0008091F200882319F08AE38093E80008956A
:101AC0000E941A0D90E00895CF93DF931F92CDB737
:101AD000DEB7FC018485958597FD08C02FEF3FEFA9
:101AE000358724870F90DF91CF910895CE0101961D
:101AF0000E94F00C019719F4898190E0F3CF8FEFE9
:101B00009FEFF0CF0F931F93CF93DF931F92CDB72B
:101B1000DEB78C01FC018485958597FF0BC0CE0153
:101B200001960E94F00C019771F4898190E0F80110
:101B300095878487F801848595850F90DF91CF91F3
:101B40001F910F9108958FEF9FEFF1CFFC018485D6
:101B5000958597FD0BC09FB7F89482E08093E900CC
:101B60008091F2009FBF90E0019608959FB7F8948E
:101B700082E08093E9008091F2009FBF90E0089599
:101B800040910F025091100220910D0230910E02EF
:101B900042175307B4F49091E8009570E1F39091E7
:101BA000E80092FD19C08093F10080910F0290919E
:101BB000100201968F739927892B19F48EEF809369
:101BC000E80080910F02909110020196909310020C
:101BD00080930F0281E0089580E00895DF92EF92F4
:101BE000FF920F931F93CF93DF93D82E8A01EB01BF
:101BF0007B01E40EF51ECE15DF0559F0D7FE12C0AD
:101C0000FE0184910E94C00D21968111F4CF0FEF47
:101C10001FEFC801DF91CF911F910F91FF90EF90BF
:101C2000DF9008958881EECF0F931F93CF93DF93BA
:101C30001F92CDB7DEB782E0898342E450E06BE7C4
:101C400077E180E80E94EE0D0E942B0DDC011296D8
:101C50000D911C910115110589F0D801ED91FC91B0
:101C60000280F381E02DBE016F5F7F4FC8010995AF
:101C700097FD04C0F80100851185ECCF89810F9094
:101C8000DF91CF911F910F910895615030F0209115
:101C9000F100FC0120830196F8CF289884E6809318
:101CA000210208953FB7F8948091090290910A02A9
:101CB000A0910B02B0910C0226B5A89B05C02F3F46
:101CC00019F00196A11DB11D3FBFBA2FA92F982F62
:101CD0008827BC01CD01620F711D811D911D42E05D
:101CE000660F771F881F991F4A95D1F708958F9225
:101CF0009F92AF92BF92CF92DF92EF92FF926B01D1
:101D00007C010E94520E4B015C01C114D104E1041C
:101D1000F104B9F00E94520E681979098A099B09E9
:101D2000683E73408105910580F321E0C21AD10815
:101D3000E108F10888EE880E83E0981EA11CB11C12
:101D4000E4CFFF90EF90DF90CF90BF90AF909F9047
:101D50008F9008958F929F92AF92BF92CF92DF9211
:101D6000EF92FF920F931F93CF93DF936C017B0150
:101D70008A0180910C01882309F45CC080912202C1
:101D8000882309F457C08091140280FF05C0809118
:101D9000E00082608093E000E801B12C8AEFA82E79
:101DA00093E0892E2AE3922E209711F4BB20D9F1DB
:101DB0000E941A0D81110AC0AA94AA20D9F161E0EB
:101DC00070E080E090E00E94770EEECF8C171D0649
:101DD00011F00CF08C2F9FB7F8948092E9002091BD
:101DE000E80025FD02C09FBFDFCF282F30E0C21BD7
:101DF000D30BF701815020F041914093F100FACFCD
:101E0000E20EF31EBB2021F09092E800B12CEBCF44
:101E10008091E80085FDE7CF9092E800BB24B39461
:101E2000209709F3F3CF5D9884E680931302101690
:101E300011063CF081E090E0F6019383828310E08C
:101E400000E0C801DF91CF911F910F91FF90EF90BB
:101E5000DF90CF90BF90AF909F908F900895AF92FA
:101E6000BF92CF92DF92EF92FF920F931F93CF9387
:101E7000DF936C017B018B01040F151FEB015E01E9
:101E8000AE18BF08C017D10759F06991D601ED917E
:101E9000FC910190F081E02DC6010995892B79F71D
:101EA000C501DF91CF911F910F91FF90EF90DF90CF
:101EB000CF90BF90AF9008954F925F926F927F92B4
:101EC0008F929F92AF92BF92CF92DF92EF92FF924A
:101ED0000F931F93CF93DF934C015901FC2DC02F1B
:101EE000D0E0CE01880D991D181619060CF06CC0B3
:101EF00020E8821691040CF067C09B012E0D311D65
:101F0000121613060CF060C0603471050CF05CC052
:101F10004115510509F458C0E62FE770FE2EDB018C
:101F200077FD179633E0B595A7953A95E1F73A2FE7
:101F300077FF04C0FF2011F03FEF3A0F66277727A5
:101F40006819790997FC02C070E060E0803891055B
:101F50000CF44BC090E89819961BA32F032E000C8D
:101F6000BB0B1A2F10953F3F0CF010E021E08E2D97
:101F7000877009F420E0E694E694E694E20EAE0D54
:101F8000B11D19971CF028E0E22EE31AE11A310F77
:101F900020E83203D0011124A80DB91DA60FB71FE8
:101FA000019F600D711D1124460F571F0F2D0F2C1F
:101FB000000C110BF33009F41CC1C8F4F13009F422
:101FC000D0C0F23009F47CC0DF91CF911F910F9106
:101FD000FF90EF90DF90CF90BF90AF909F908F9049
:101FE0007F906F905F904F900895902FB5CFFA3FFC
:101FF000B1F1232F2E0DFB3F39F7321729F3BD0125
:10200000635D7D4FD12CC12CC91608F0A4C0FA0124
:10201000EC0DFD1DE491F0E04F01002E02C0880C94
:10202000991C0A94E2F737FD06C0FB018081E82C79
:10203000E0948E218083FF2061F0373054F45B01FF
:10204000F0E8AF0EB11CE92CE094F50180818E21FF
:102050008083FFEFCF1ADF0A6F5F7F4FD5CF232F2B
:102060002E0D321709F4B0CFBD01635D7D4FD12C29
:10207000C12CC91608F069C0FA01EC0DFD1DE491F0
:10208000F0E04F01002E02C0880C991C0A94E2F780
:1020900037FD04C0FB01808188298083FF2051F037
:1020A000373044F45B01F0E8AF0EB11CF5018081DC
:1020B00089298083FFEFCF1ADF0A6F5F7F4FD9CF67
:1020C0006FEF70E00F2C02C0660F771F0A94E2F7E3
:1020D00060957095772E232F2E0D321709F474CF4B
:1020E000FD01E35DFD4F6F01B12CA12CA91638F560
:1020F000FA01EA0DFB1DE491F0E02F01002E02C071
:10210000440C551C0A94E2F737FD05C0F6018081A6
:10211000862384298083FF2059F037304CF4460110
:10212000F0E88F0E911CF40180818721852980833E
:10213000FFEFAF1ABF0A8FEFC81AD80AD7CF3F5F99
:102140004C0F5D1FA058BF4FC8CF3F5F4C0F5D1FA6
:10215000A058BF4F86CF3F5F4C0F5D1FA058BF4FA9
:102160004CCF6A0D7B1D232F2E0D321709F42CCF77
:10217000FD01E35DFD4F6F01B12CA12CA91688F57F
:10218000FB01EA0DFB1D8490912C002E02C0880CEF
:10219000991C0A94E2F780949094FA01EA0DFB1DD1
:1021A0006490712C002E02C0660C771C0A94E2F732
:1021B00037FD05C0F6018081882186298083FF20B4
:1021C00049F037303CF4F601E058FF4F8081892117
:1021D00087298083FFEFAF1ABF0A8FEFC81AD80A8A
:1021E000CDCF3F5F4C0F5D1F6C0F7D1FA058BF4FC1
:1021F000BCCFC92ED12CFA01E60FF71FA35DBD4F4E
:1022000000E810E00C191D09CC19DD09BE01660FAC
:10221000771F41E050E06A010F2C01C0CC0C0A94FA
:10222000EAF7592F2E2D792ECF93DF93ED01EF96FC
:10223000EF9622968590A590FF2059F08C9C400146
:10224000AC9C500137302CF4E880B094EB20E928A6
:10225000E99233233AF0EC90A094EA20E828ED923A
:102260000C94331111965A9529F72A9551F0572D50
:1022700033951124E60FF11DA00FB11DC00FD11D24
:10228000D9CFDF91CF9111249FCECF92EF920F93B0
:10229000CF93DF93DC01FA0104913196E4904E5F15
:1022A0005F4F2223D1F0C1E0D0E09E2D977011F452
:1022B000D0E0C0E0EE2DE695E695E695EC0FFD2F1B
:1022C000F11D0E9FE0010F9FD00D11242C9FC00126
:1022D0002D9F900D1124480F591F8AEFC82E30E012
:1022E00020E0CD010E945C0FDF91CF910F91EF9024
:1022F000CF9008952D9A0895BC0190E080E00C9451
:10230000770E8FB18095807F669B88601C9B846070
:10231000089580E0EDE2F2E081118FEF00248193D7
:102320008193819381930394D1F71092B501109218
:10233000B4011092B7011092B6010895CF93C82F3F
:102340000E948111982F9C2381E09C1380E0CF9103
:1023500008958091F0068E318CF4833EB4F48C3B6A
:1023600064F08E3C0CF05DC08091DC06845080935C
:10237000DC061092E2061092F006089583330CF406
:1023800054C085340CF453C00895809130068111F7
:102390003AC088E00E949E11811108C084E00E942A
:1023A0009E11811103C081E08093EF0688E00E94B6
:1023B0009E11882319F18091EF06882321F182E094
:1023C00080930D0110922F0680E20E949E118823B7
:1023D000E9F010922E0610922D068AE999E9A9E9F2
:1023E000BFEB8093E9069093EA06A093EB06B093C7
:1023F000EC061092ED061092EE0605C084E00E94F5
:102400009E118111D8CF1092E206089580E40E94B7
:102410009E118823C1F381E080932E0680932D06C0
:10242000DCCF8EEF8093E206089582E0FBCF8091AF
:10243000DC068C5F9CCF80E00C94590C462F4770D3
:1024400066956695669590E8699FB0011124635D75
:102450007D4F860F972F911DFC01808190E021E038
:1024600030E0042E02C0220F331F0A94E2F78223C9
:10247000932302C0959587954A95E2F70895803891
:102480009105B8F460347105A0F420E191E061FD9C
:1024900094E060FD990F62FD9295687F269FD001C0
:1024A0001124A80FA35DBD4F8C9140FF03C0892B61
:1024B0008C93089590958923FBCFEF92FF920F9311
:1024C0001F93CF93DF93F82EC9E0D0E0EC2E0CE100
:1024D00010E0FF2059F06E2D802F0E941E1241E067
:1024E000811140E0BE01C8010E943F120F5F1F4FE3
:1024F0000132110571F72196C031D10539F7DF910D
:10250000CF911F910F91FF90EF9008958F929F921E
:10251000AF92BF92CF92DF92EF92FF920F931F93F1
:10252000CF93DF936D3089F0C090B401D090B501A6
:102530006A30D1F41092B7011092B60188E0C80E4B
:10254000D11CD092B501C092B40181E090E0DF913E
:10255000CF911F910F91FF90EF90DF90CF90BF90A0
:10256000AF909F908F9008950091B6011091B701A0
:10257000E5E06E9FE0011124C058D44F4801F12CD2
:10258000F5E0E12CFF1629F0CE010196FE01E49062
:10259000EC01B12CA12C4E2D4170B6016A0D7B1DB2
:1025A000C4010E943F12E694FFEFAF1ABF0A88E011
:1025B000A816B10481F7F394EFEF8E1A9E0AF6E0A5
:1025C000FF12DECF0A5F1F4F1093B7010093B601D1
:1025D000BCCF8FB7F89440910502509106026091EC
:1025E0000702709108028FBF8091B201882321F009
:1025F0001092B20180E008959091B301242F291B1D
:10260000922F20910001921740F49F5F9217A0F43F
:1026100091E093BF889513BE089581E08093B20145
:102620004093B3018091B0019091B10101969093D4
:10263000B1018093B00181E008951F93CF93DF93A0
:10264000C4ECD1E08881882361F01A81612F8981EF
:102650000E941E12811118828B81882359F08150AB
:102660008B83249681E0CC3DD80761F7DF91CF9131
:102670001F9108951F5F1A83F4CFCF92DF92EF92DC
:10268000FF920F931F93CF93DF93082FC62FD5E0B0
:10269000D60FE62E660FFF0886E0E80EF11CC02E6E
:1026A000002E000CDD0884E0C80ED11C8D2F0D2EED
:1026B000000C990BE816F90604F112E0100F812FB7
:1026C000012E000C990BC816D906ACF06D2F812F86
:1026D0000E941E12882369F082E080932E0681E01A
:1026E000DF91CF911F910F91FF90EF90DF90CF90EE
:1026F00008951F5FE4CFDF5FD9CF64E06C0F83E004
:10270000800F0E941E12882359F380912D06882382
:1027100021F0813041F082E0E3CF81E080932E060A
:1027200080932D06F8CF10922E0610922D06F3CF2F
:102730006F927F928F929F92AF92BF92CF92DF92D1
:10274000EF92FF920F931F93CF93DF93E82EF62E15
:10275000942E822EC42F440FDD0BC81BD10987FD98
:10276000D395D7FF03C0D195C195D109882D082CE9
:10277000000C990B8F199109F7FC939597FF03C0F3
:1027800091958195910966246A94E91414F466245C
:10279000639477247A94F81414F4772473940C2EA9
:1027A000000CDD0B082F880F110B6E01C01AD10A27
:1027B000AA24BB24A01AB10A41E06F2D0F2C000CF3
:1027C000770B8E2D0E2C000C990B0E943F12E910F6
:1027D00002C0F81481F0C601880F991FA816B90627
:1027E0001CF4C01AD10AE60C8C179D072CF7CC0EEE
:1027F000DD1EF70CE1CFDF91CF911F910F91FF907C
:10280000EF90DF90CF90BF90AF909F908F907F9090
:102810006F9008955F926F927F928F929F92AF9286
:10282000BF92CF92DF92EF92FF920F931F93CF93BD
:10283000DF93E82EF62E942E822EC42F440FDD0B4C
:10284000C81BD10987FDD395D7FF03C0D195C1958A
:10285000D109882D082C000C990B8F199109F7FCD0
:10286000939597FF03C091958195910955245A94AA
:10287000E91414F45524539466246A94F81414F457
:10288000662463940C2E000CDD0B082F880F110BAF
:102890006E01C01AD10A77247394AA24BB24A01A0B
:1028A000B10A772059F041E06F2D0F2C000C770B07
:1028B0008E2D0E2C000C990B0E943F1281E0782681
:1028C000E91002C0F81481F0C601880F991FA816FC
:1028D000B9061CF4C01AD10AE50C8C179D070CF739
:1028E000CC0EDD1EF60CDDCFDF91CF911F910F9145
:1028F000FF90EF90DF90CF90BF90AF909F908F9020
:102900007F906F905F9008951F93CF93DF93EC01BA
:1029100010E0FE01E10FF11D9491E1E0E10FEC0FF9
:10292000FD2FF11D8491895FE2E0E10FEC0FFD2F97
:10293000F11D6491E3E0E10FEC0FFD2FF11D4491D7
:10294000992331F0913051F0DF91CF911F9108958B
:10295000480F262F0E940A141C5FDBCF262F240F5E
:10296000482FF8CF5F926F927F928F929F92AF9293
:10297000BF92CF92DF92EF92FF920F931F93CF936C
:10298000DF93F82EE62E8A018093AE016093AF01AB
:10299000D0E02D2F30E0F801E20FF31F9491F90100
:1029A0003196E00FF11FD490DF0CF9013296E00F61
:1029B000F11FC490CE0CE1E0E90FE730B0F50E2E28
:1029C000000CFF0BEA51FB4E0C94182A58154B15BE
:1029D000ED14171543154E155515C091AE019DEF19
:1029E000692E6C0C8C2F23E0722E7C0E962C6C2D95
:1029F0008C2CA62C062C000CBB08292D472D0E94E0
:102A0000981393E09C0FD91664F08A141B0411F0FC
:102A1000862C01C08C2C692D982C872D792EC92FDE
:102A2000ECCFC093AE019092AF01DD5FB2CFC09109
:102A3000AF016C2CCC1514F06C2ECC2D82E0782ECE
:102A40007C0E9D2C6C2F8D2D8D2CAD2C0D2C000C07
:102A5000BB0855245A945D0C272D492D0E949813CC
:102A6000CD5F6C165CF08A141B0431F4852C672D45
:102A70007C2E892D982CF0CF8D2CF9CF9092AE0121
:102A8000C092AF01D2CF2C2D4D2D6091AF0180911E
:102A9000AE010E949813D092AE01F2CF4AE65BE0FD
:102AA0006C2D8D2D0E94B214C0CF44E55BE0F8CFB1
:102AB000DF91CF911F910F91FF90EF90DF90CF901A
:102AC000BF90AF909F908F907F906F905F90089590
:102AD000CF92DF92EF92FF920F931F93CF93DF93EA
:102AE0009C01C0E1D7E2BE010E94F029AB01E3E204
:102AF000F2E060836C9F80016D9F100D7C9F100D34
:102B00001124C901801B910B58EEC52E53E0D52E20
:102B1000B6010E94F029EB0161836C9D70016D9DEF
:102B2000F00C7C9DF00C1124C9018E199F09801BAB
:102B3000910B64E670E00E94F029D62F628364E670
:102B4000D62EC901DD9D8019910911248E199F0986
:102B5000801B910B6AE070E00E94F02963839AE089
:102B6000699F20191124DD9E2019112488E1C89F36
:102B7000200D11244295407F241B2483DF91CF91A7
:102B80001F910F91FF90EF90DF90CF900895EF92FB
:102B9000FF920F931F93CF93DF93C82F062FCA0185
:102BA0000E94681510E0C95FD0E083E2E82E82E061
:102BB000F82EF70120814DE15AE0B801CE010E94C4
:102BC0004511F70121814DE15AE0B801CE0104968B
:102BD0000E944511F70122814DE15AE0B801CE0172
:102BE00008960E944511F70123814DE15AE0B80192
:102BF000CE010C960E944511F70124814DE15AE067
:102C0000B801CE014096DF91CF911F910F91FF90B7
:102C1000EF900C944511CF934091280250912902D6
:102C200060E086E60E94C7158091F3019091F4015F
:102C30000E946815209124024DE15AE06BE370E098
:102C400081E790E00E944511209125024DE15AE074
:102C50006BE370E085E790E00E9445112091260229
:102C60004DE15AE06BE370E089E790E00E94451186
:102C7000209127024DE15AE06BE370E08DE790E090
:102C80000E944511C0E080912C02C817D0F48C2F0F
:102C900090E0880F991FFC01E55FF54F6491865F16
:102CA000954FFC01849170E0605E7F4F90E0209131
:102CB000B8014DE35AE08E589F4F0E944511CF5FF7
:102CC000E2CF20E042E15AE060E170E082E790E08C
:102CD0000E944511209181064DE15AE060E170E0CB
:102CE0008DE790E0CF910C944511EDEDF1E011925C
:102CF00081E0E33FF807D9F781E08093DD01E0E967
:102D0000F1E08EEA91E021E021938E179F07E1F731
:102D100008951092C4011092C8011092CC01109233
:102D2000D0011092D4011092D801E0918106F0E018
:102D3000EE0FFF1FE155F94F6081718140E0842F54
:102D400090E0FB01E80FF91F3491FC013196E60F8A
:102D5000F71F24910296FB01E80FF91FE49136302A
:102D6000B9F4295F91E09093BA012093BB01E093FD
:102D7000BC011092BD011092BE011092BF011092D1
:102D8000C0011092C1012093C201E093C3010895D4
:102D90004C5F3F3FA1F61092BA011092BB01109216
:102DA000BC01089590E0292F30E0F901E351F54F7F
:102DB000A491F901E251F54F44912151354FF901A8
:102DC0002491A8132DC084360CF0A0E00A2E000C2C
:102DD000BB0BA352BE4F8C91882321F180918106B9
:102DE000809382064093810680EA9FE09093F401ED
:102DF0008093F301220F330BF901ED53F54F8491CA
:102E00002E53354FF9012491295F2093DC068093DE
:102E1000DD060E9489161092F6011092F5010895C0
:102E20009D5FC1CF0895FC018081882351F081818D
:102E30009281891720F48F5F818380E00895118249
:102E400081E00895CF92DF92EF92FF921F93CF938C
:102E5000DF930E948911E0918106F0E0EE0FFF1FE1
:102E6000ED57F94F4081518160E087E00E94B21434
:102E70008BEF91E00E941317882309F494C080918E
:102E8000BA01882309F48FC0D091BC01DB5FC091E7
:102E9000BB016D2F81E08C0F0E941E1281116FC04B
:102EA0006D2F82E08C0F0E941E12811168C0C150EC
:102EB000C093BB01C090BD01D090BE01E090BF01A6
:102EC000F090C00120E030E040E050E4C701B601DE
:102ED0000E94FE2887FF10C02DEC3CEC4CE45EE322
:102EE000C701B6010E9492286093BD017093BE0194
:102EF0008093BF019093C0016091BC01062E000C2D
:102F0000770B880B990B0E943B292091BD013091D2
:102F1000BE014091BF015091C0010E9492280E94C1
:102F200003296093BC011092C101D091BB01DE5F07
:102F300011E08DECC82E8CECD82E8CE4E82E8FEBB3
:102F4000F82EC091BC0166E06C0F8D2F0E941E12FE
:102F5000811107C067E06C0F8D2F0E941E1288231D
:102F600011F11093C101C092BD01D092BE01E09257
:102F7000BF01F092C001C150C093BC01E2CF1092DA
:102F8000BD011092BE011092BF011092C00181E0FC
:102F90008093BA018091C2018093BB018091C301EB
:102FA0008093BC0187CFDF91CF911F91FF90EF906D
:102FB000DF90CF900895089590E080E0089540E07C
:102FC0002FEF30E0F901E81BF109CF01479A46984D
:102FD00020E02817190634F4F5E0FA95F1F700001F
:102FE0002F5FF7CF469A479820E02817190634F448
:102FF00035E03A95F1F700002F5FF7CF4F5F64138C
:10300000E5CF88B18F7388B90895809130068230FA
:1030100009F447C030F4882391F08130F1F080E06A
:1030200008958530E0F78091E106882309F451C0C6
:1030300081508093E1068091E106855F089580913B
:10304000DF069091ED06992321F09091E006890F1B
:10305000089591E08630D9F7F8CF20E030E0A9015B
:103060006091E9067091EA068091EB069091EC067A
:103070000E94FE2887FF08C01092E9061092EA0617
:103080001092EB061092EC069091DF068091ED060F
:10309000882319F08091E006DACF9630D9F381E0E9
:1030A000D6CF8091E106882379F081508093E106A4
:1030B0008B3688F4833620F064E081E00E94DF17CD
:1030C0008091E106811103C083E0809330068AE09D
:1030D000089583E0AECF89E0089564E684E60E9417
:1030E000DF1764E68CE80C94DF170C941828FF9225
:1030F0000F931F93CF93DF938091B90181111EC06D
:10310000C4ECD1E08881882359F06A81062E000C36
:10311000770B898141E0082E000C990B0E943F1229
:10312000249681E0CC3DD80769F781E08093B9010E
:10313000DF91CF911F910F91FF9008951092B901E7
:103140008EEF91E00E941317882391F3E09181069E
:10315000F0E0EE0FFF1FEB53F94F0190F081E02DEF
:10316000F49004EC11E0D0E0C0E0F801808181111E
:103170002AC00E940828A0918106B0E0AA0FBB1FB8
:10318000AB53B94F2D913C916F2D70E00E94042AF2
:10319000880F8F5F90E0FC013196E20FF31F44919E
:1031A000280F391FF901249181E0F8018083295FFC
:1031B00021834283CC0FDD1FCC0FDD1FCC53DE4FAC
:1031C00083E28B83B5CF21960C5F1F4FC630D105AC
:1031D00061F6AECFCF92DF92EF92FF920F931F93E3
:1031E000CF93DF930E9405188093B8016091DD06AC
:1031F000062E000C770B9091DC06E091E2060E2E75
:10320000000CFF0B282F4DE35AE0DF01A90FB11D81
:1032100097FDBA95CD010E944511E0918106F0E03D
:10322000EE0FFF1FE155F94FE080F180D12C2D2DDD
:1032300030E0F701E20FF31F0491F9013196EE0D32
:10324000FF1D849197E0C92EC80EF9013296EE0D4C
:10325000FF1D1491F9013396EE0DFF1DD491CD2F72
:1032600040E090E0033011F493E047E06091E20623
:103270002091DC06260F2F5F022E000C330B885F97
:10328000891B082E000C990B4D5F480F592F511DBB
:10329000421753071CF16C5F260F311D67FD3A95ED
:1032A00028173907DCF08091DD068F5F082E000CAF
:1032B000990B23E0210F022E000C330BA9014D5F67
:1032C0005F4F4817590754F004968217930734F05C
:1032D000023061F1A0F0033009F453C0D4360CF091
:1032E000C0E0013009F48AC00CF060C00F3F09F45F
:1032F00093C0002309F46DC0B4E0DB0E98CFED2F2E
:103300000D2E000CFF0BE057FE4F8081813031F70E
:103310008091280290912902865E9E4F9093290207
:103320008093280210820E946D18D8CFED2F0D2EA9
:10333000000CFF0BE352FE4F8081811177C080911A
:1033400028029091290280519E4F909329028093E8
:10335000280281E08083D93011F48093F2010E9429
:103360006D18D4360CF065C00C2E000CDD0BC3526A
:10337000DE4F88818111C0CF612F110F770B22E0C2
:1033800035C08D2F0E94D216E0E0D4360CF4ED2F1C
:103390000E2E000CFF0BE352FE4F8081813011F4A2
:1033A0008093DC01D4363CF0C0E005C00230E1F28D
:1033B000033009F0A1CF0C2E000CDD0BC352DE4F01
:1033C0008881882309F498CF612F110F770B23E0B0
:1033D0000DC00C2E000CDD0BC057DE4F88818823FA
:1033E00009F48ACF612F110F770B20E048EA5AE0E9
:1033F0008C2DCC0C990B0E9445117ECF0C2E000C0D
:10340000DD0BC057DE4F8881882309F475CF612F0B
:10341000110F770B21E0EACFDF91CF911F910F9130
:10342000FF90EF90DF90CF900C947718D4360CF487
:1034300063CFC0E099CF2F923F924F925F926F92ED
:103440007F928F929F92AF92BF92CF92DF92EF9234
:10345000FF920F931F93CF93DF93CDB7DEB7CF5774
:10346000D3400FB6F894DEBF0FBECDBF9E012F5FD5
:103470003F4F690188E793E0F9019C0111922150C7
:103480003040E1F78091DC01882309F4F2C010910B
:103490008106E0918206E0938106F0E0EE0FFF1FC7
:1034A000E756F94F808191810E9484141093810620
:1034B0000E940B16BE0167587C4FC6012DE232E018
:1034C000FC01D90140E05D9151934F5F4F36D9F730
:1034D00020583F4F81599F4F8617970789F7809152
:1034E0008106811106C080918206893011F40E9404
:1034F000751610E000E066246A94712CF02E0E948C
:1035000089110E9422170E94EA18E0918106F0E0DA
:10351000EE0FFF1FE756F94F808191810E948414BE
:103520000E940B16602FC301002E01C0880F0A9461
:10353000EAF7C358DC4F8883CD57D3409801285011
:103540003109A301022E01C0440F0A94EAF7C258C0
:10355000DC4F4883CE57D340742F7095C458DC4F4E
:103560007883CC57D340E7E0E01708F09CC0F1E047
:1035700001C0FF0F2A95EAF7C758DC4FF883C957F7
:10358000D340282F2095C558DC4F2883CB57D340F4
:1035900037E03F1508F48DC081E001C0880F6A95BF
:1035A000EAF7C658DC4F8883CA57D3408DE2A82E6D
:1035B00082E0B82E4601312C75012401212C432DC7
:1035C0004170C158DC4F4883CF57D34081E00E94FF
:1035D000840C75E07A95F1F7000080E00E94840C7D
:1035E00085E08A95F1F70000F20191912F01C15811
:1035F000DC4FF881CF57D340F11161C0F7018081D2
:10360000C558DC4FF881CB57D3408F23C358DC4FCC
:103610002881CD57D3409223892BC658DC4F38815F
:10362000CA57D340832BF7018083FFEFEF1AFF0ABD
:1036300023942FE62212CACF33943FE6830E911CC7
:1036400040E8A40EB11C78E03712B6CF8FEF96E7B2
:10365000E1E081509040E040E1F700C000000E94AE
:103660001B120F5F1F4F0031110509F047CF109259
:10367000DC01C158DC4F0FB6F894DEBF0FBECDBFE2
:10368000DF91CF911F910F91FF90EF90DF90CF903E
:10369000BF90AF909F908F907F906F905F904F9072
:1036A0003F902F900895C758DC4F1882C957D340D8
:1036B00068CFC658DC4F1882CA57D34077CFF7017E
:1036C0008081C458DC4FF881CC57D3408F23C25837
:1036D000DC4F2881CE57D3409223892BC758DC4F2B
:1036E0003881C957D3409ECF1F920F920FB60F92C9
:1036F00011248F939F938091E1009091E100937F3B
:103700009093E10083FF0FC01092E90091E0909345
:10371000EB001092EC0092E39093ED0010922202E5
:1037200098E09093F00082FF22C093E09093E9002C
:103730009091F200992319F09AE39093E800909108
:103740001302992341F09091130291509093130228
:10375000911101C05D9A90912102992341F09091BD
:103760002102915090932102911101C0289A84FF67
:1037700018C08091E2008E7E81608093E20080918B
:10378000E1008F7E8093E100809114028E7E806143
:10379000809314029F918F910F900FBE0F901F90F6
:1037A000189580FFF7CF8091E2008E7E8061809334
:1037B000E2008091E1008E7E8093E100809114020E
:1037C0008E7E8160E5CF1F920F920FB60F9211246B
:1037D000CF92DF92EF92FF920F931F932F933F931D
:1037E0004F935F936F937F938F939F93AF93BF9309
:1037F000EF93FF93CF93DF93CDB7DEB76C97DEBF28
:10380000CDBF1092E9008091E80083FF25C068E0F9
:10381000CE0145960E94450E82EF8093E8008D8987
:1038200087FF39C09091E80090FFFCCF982F9076E9
:1038300009F034C19E894F89588D2F89F88C9111D8
:1038400031C0803861F5809112028093F1001092AE
:10385000F1008EEF8093E8006C960FB6F894DEBF0F
:103860000FBECDBFDF91CF91FF91EF91BF91AF918F
:103870009F918F917F916F915F914F913F912F9188
:103880001F910F91FF90EF90DF90CF900F900FBEA0
:103890000F901F9018959EEF9093E800C7CF10925D
:1038A000F100D5CF913059F48111D3CF413051057A
:1038B00081F6809112028D7F80931202CACF9330DD
:1038C00049F48111C6CF4130510519F68091120299
:1038D0008260F2CF953041F48091E80080FFFCCF08
:1038E00020682093E300B5CF963009F0A9C00B8D76
:1038F0001C8D22E01092E9001092100210920F022B
:10390000F2122EC010920E0210920D020E94140E9E
:103910001F8299E09983FA8291E09E8390EA9887CA
:103920009AEF998720910F0230911002275F3F4F45
:103930003C832B838D831092E90010921002109229
:103940000F0210930E0200930D0249E050E0BE01F9
:103950006F5F7F4F80E00E94EE0D0E94140E79CFC2
:1039600010930E0200930D020E942B0DDC011296A3
:103970000D911C910115110509F451C1D801ED916A
:10398000FC910480F581E02DBE016B5E7F4FC80184
:103990000995009709F03EC1F80100851185EACF2D
:1039A000F3E0FF120EC08F89882309F440C08230F3
:1039B00061F440E860E18FED97E10E945F1E8111A4
:1039C00048CF81E28093EB0047CF813029F440E873
:1039D0006BE083ED97E1F1CF833099F70E942B0DD7
:1039E000DC011296ED90FC908E010F5F1F4F680175
:1039F000E114F10479F0D701ED91FC910680F78193
:103A0000E02DB801C7010995080F111DF701E084E9
:103A1000F184EECFD8011C92F60101900020E9F765
:103A20003197BF016C197D0940E0C601C6CF6DEB2F
:103A300077E1FB01449150E080E80E94EE0D09CF50
:103A4000973009F4BECF983021F481E08093F100E3
:103A500000CF993009F0FDCE837009F0B2CFEBE6CC
:103A6000F1E081E031E096E32191222371F080932F
:103A7000E9003093EB00DF0111972C912093EC00CB
:103A80009093ED008F5F873079F78EE78093EA009F
:103A90001092EA008F8980932202DBCE8B8D9C8D61
:103AA0001092E9001092100210920F0290930E02F1
:103AB00080930D02898D811192C08E899D89913AE2
:103AC00049F4813209F07DCF47E050E065E071E0D4
:103AD00080E0B3CF913209F074CF833269F48F89DB
:103AE000988DB0E0A0E08093010190930201A09333
:103AF0000301B0930401ADCE803269F48091E800F7
:103B000082FFFCCF67E085E091E00E94450E8BEFDD
:103B10008093E8009ECE823209F09BCE8F898093FD
:103B20000C01EEEFFFE7859194918B3F9C4D51F195
:103B3000E0E0F8E08091050190910601A091070175
:103B4000B0910801803B9440A105B105F1F480914A
:103B50000C0180FD1AC0EE3F8AE0F80789F587E77F
:103B600097E791838083809160008093110288E1C0
:103B70009BE00FB6F894A895809360000FBE9093D9
:103B8000600067CEEEEFFAE0D5CF80819181873774
:103B9000974709F05ECEA895809160008861809378
:103BA00060008091110280936000EE3F2AE0F207EE
:103BB00089F08091FE0A9091FF0A9183808349CE1B
:103BC000808191818737980751F29093FF0A809303
:103BD000FE0AC5CF1092FF0A1092FE0A3ACE0E944A
:103BE0002B0DDC0112960D911C910115110509F4A4
:103BF000E8CED801ED91FC910190F081E02DBE015D
:103C00006B5E7F4FC8010995811123CEF8010085B5
:103C10001185EBCF181619060CF41BCED2CEF1E0AD
:103C2000FF12BECE61EC77E104CF1F920F920FB668
:103C30000F9211242F933F938F939F93AF93BF9332
:103C40008091050290910602A0910702B0910802AE
:103C50003091040223E0230F2D3758F50196A11D62
:103C6000B11D209304028093050290930602A09355
:103C70000702B09308028091090290910A02A09174
:103C80000B02B0910C020196A11DB11D8093090297
:103C900090930A02A0930B02B0930C02BF91AF91D4
:103CA0009F918F913F912F910F900FBE0F901F907A
:103CB000189526E8230F0296A11DB11DD2CFEF92D1
:103CC000FF920F931F93CF93DF93F82E192FE62EB9
:103CD000042F81E0860F880F0E94C00D83E00E94B0
:103CE000C00DCF2DD12FEC0EFD2EF11CCE15DF0512
:103CF000B9F007FF13C0FE0184910E94C00D182F78
:103D000080E00E94C00D812321968111EFCFDF91C9
:103D1000CF911F910F91FF90EF9008958881EDCF83
:103D200081E0F5CFE1E3F6E01382128288EE93E0C2
:103D3000A0E0B0E084839583A683B78385E791E014
:103D4000918380838FEF9FEF95878487E1EFF6E083
:103D50001382128287E891E0918380838DEC9CEC42
:103D6000ACE4BEE38093E5069093E606A093E706F5
:103D7000B093E80686E1E2E1F1E0A3E8B6E0019065
:103D80000D928A95E1F786E1E8E2F1E0A9E9B6E073
:103D900001900D928A95E1F786E1EEE3F1E0AFEA5A
:103DA000B6E001900D928A95E1F786E1E4E5F1E055
:103DB000A5ECB6E001900D928A95E1F70895CF93B6
:103DC000DF9300D01F92CDB7DEB7789484B58260C0
:103DD00084BD84B5816084BD85B5826085BD85B5AF
:103DE000816085BD80916E00816080936E0010922D
:103DF00081008091810082608093810080918100A8
:103E00008160809381008091800081608093800038
:103E100080919100826080939100809191008160F7
:103E200080939100809190008160809390008091B8
:103E3000C10084608093C1008091C1008260809342
:103E4000C1008091C10081608093C1008091C30056
:103E500081608093C3008091C00082608093C00025
:103E60008091C20081608093C20080917A0084605A
:103E700080937A0080917A00826080937A008091AA
:103E80007A00816080937A0080917A0080688093C4
:103E90007A00109222021092120210921402809163
:103EA000D70081608093D70080EA8093D80089B5DD
:103EB000806189BD89B5826089BD09B400FEFDCFEE
:103EC00061E070E080E090E00E94770E8091D80081
:103ED0008F7C80618093D8008091E000807F809308
:103EE000E0008091E1008E7E8093E1008DE0809380
:103EF000E200559A209A84E18093000181EC80933E
:103F00007C0085B1806F85B984B1877E84B984B126
:103F1000876E84B95E9A5F988AB1806D8AB9769A05
:103F20006E9881B3806F81BB899880B38D7080BBA0
:103F300080E58CBD81E08DBD85E090E00E947C1124
:103F40005F9A85E090E00E947C115E985C98E0E3C7
:103F5000F1E18DE391E124912EBD00000DB407FE47
:103F6000FDCF31968E179F07B1F75C9A81E8809359
:103F70006400809165008160809365000E941B123F
:103F800080E80E949E118823A9F05C9885EA8EBD86
:103F900000000DB407FEFDCF5C9A2E982F982D9847
:103FA0008091640080628093640081E083BF889583
:103FB00013BEFCCF84E00E949E11882309F448C000
:103FC0002D9884E80E949E118823E1F00E947A11C6
:103FD00088EC90E00E947C112F9882E090E00E9493
:103FE00018288F3F29F06FEF82E090E00E94202890
:103FF00084EF91E00E947C112F9A84E80E949E1128
:104000008111FBCF84E10E949E118823E1F00E9480
:104010007A1188EC90E00E947C112E9882E090E06A
:104020000E941828882329F060E082E090E00E9436
:10403000202884EF91E00E947C112E9A84E10E9456
:104040009E118111FBCF88EC90E00E947C11B2CFD1
:104050000E947A1182E090E00E947518882309F48A
:104060004CC23E9A3F9A81E090E00E947518282F3A
:104070002470922E81FF12C021112E98F1EF4F2E45
:1040800055245A9408E010E080E40E949E11882391
:1040900009F436C22E9A2F9A0E947A1182E390E098
:1040A0000E947C110E9481118111F8CF1982F9E0E0
:1040B000FA83DD24D394C980CD24C9820E9489115A
:1040C00020E04DE351E170E060E090E080E00E948C
:1040D000451189810E945D1203E110E06CE1E62E3A
:1040E000F12C41E0B801C7010E943F122FEFE21A04
:1040F000F20A35E2E316F104A1F70F5F1F4F023217
:10410000110561F70E941B124FEF5FE067E241501B
:1041100050406040E1F700C000008A8181508A83EE
:104120008111C9CF0E94891120E04DE351E170E077
:1041300060E090E080E00E94451189810E945D125C
:1041400009E110E05CE1E52EF12C41E0B801C70186
:104150000E943F129FEFE91AF90AE5E2EE16F10418
:10416000A1F70F5F1F4F0232110561F70E941B126A
:10417000FFEF29E638E1F15020403040E1F700C080
:10418000000049814C3308F07EC24F5F49830E9492
:10419000891120E04DE351E170E060E090E080E0C3
:1041A0000E94451181E00E945D1259815E31B0F498
:1041B00009E110E04CE1E42EF12C41E0B801C70127
:1041C0000E943F126FEFE61AF60A85E2E816F10444
:1041D000A1F70F5F1F4F0232110561F70E941B12FA
:1041E00088E00E949E11882309F44FC20E94891121
:1041F0000E941B1264E682E30E94DF1764E68AE0F5
:104200000E94DF1788E00E949E118111FBCF84E09D
:104210000E949E118111F6CF9FEFE9E6F8E19150DF
:10422000E040F040E1F700C000001092020283E09D
:104230008093030281E0809301021092FF019AE0D3
:10424000909300028093FE011092FC0192E0909303
:10425000FD018093FB0110922B0210922A022AE9A1
:10426000422E29E9522E652C2FEB722E812C912C97
:10427000A12C30E4B32E88E0809300018AE0809383
:10428000810610E00E948911E0918106F0E0EE0FB6
:10429000FF1FED57F94F4081518160E087E00E9498
:1042A000B2148091B901811102C00E941D1320E057
:1042B00042E455E166E070E08DE090E00E94451137
:1042C000133308F0ECC11F5F40912A0250912B027A
:1042D00068E380E40E94C7150E9477180E941B12B1
:1042E00088E00E949E11882309F4FDC131E03093DB
:1042F000DC0184E1809300018AE0809382061092C1
:1043000081068FE58093DC0688E38093DD060E94BA
:104310001B1A1092F6011092F5011092DF0610920E
:10432000DB061092DC061092DD061092DE0610927B
:10433000E30644E04093E4061092E0061092E9069A
:104340001092EA061092EB061092EC0651E05093A0
:10435000ED065093EE065093EF061092F006109281
:10436000E2061092E106109230060E9475160E9435
:104370008916109229021092280264E060932C02A0
:10438000109223021092240210922502109226020B
:104390001092270210922E0610922D0610922F06D0
:1043A00082E080930D011092DC0181E08093ED01A9
:1043B00080E10E94D2161092ED01212CB8E03B2E34
:1043C0008091F601882351F08091F3019091F401DE
:1043D000892B21F43092F4012092F3011092F6011E
:1043E0001092F50184E0809330060E9405188093B6
:1043F000B80113E00E94221780E20E949E118823D8
:1044000009F47BC110922E0688E00E949E11882339
:1044100009F480C180913006882309F481C180911C
:10442000EE06811105C08091ED06882309F48FC145
:1044300080912E0680932D066091E9067091EA0620
:104440008091EB069091EC060E940329F62E062E31
:10445000000C770B880B990B0E943B2923E333E375
:1044600043EB5FE30E94EB2918162CF4F2E0F09383
:104470002D06F0932E06F7FC3EC0E0918106F0E099
:10448000EE0FFF1FE756F94F20813181B091DD0615
:10449000BD5FA091DC06AD5F4B2F0B2E000C550BC2
:1044A000BA016D5F7F4FEA2E0A2E000CFF0800E074
:1044B000802F90E0F901E80FF91FC490C982FC0138
:1044C0003196E20FF31FE491F7E0CF2ECE0EFC0100
:1044D0003296E20FF31FD4900396820F931FFC01D4
:1044E00084919981992309F47DC2913009F432C1F4
:1044F0009F3F09F085C280E040C13E983F98B3CD10
:10450000992031F034E04316510411F42E9A2F987B
:1045100081E00E94590C920157FE04C022273327E4
:104520002419350927703327C20157FC0796E3E0A9
:1045300095958795EA95E1F757FE05C00197A80183
:10454000421B530B9A01AC015695542F44275795A3
:104550004795435D5D4FD12CC12C3801621A730A17
:104560008E3F6FEF9607B1F1DA01AC56BF4F7A017B
:1045700070E060E0F601E058FF4E5F018F3F980762
:1045800079F0F501E60FF71FE491F0E01F01022E2C
:1045900001C0220C0A94EAF7F70184882828248AAB
:1045A0002115310571F0F501E60FF71FE491F0E0F8
:1045B000062C02C0F595E7950A94E2F7FC91EF2BE3
:1045C000EC936F5F7F4F1196FFEFEF1AFF0A68358C
:1045D0007105A1F6019668E5C60ED11C40585F4FE3
:1045E000E0EBCE16D10409F0BBCF0E941B128FE086
:1045F00090E00E947C11FFEF4F1A5F0A29E14216FA
:10460000510409F041CD992011F02F9A2D9880E99D
:1046100091E00E947C110E947A1181E090E00E945A
:10462000751880FF3BCD8AE090E00E9475189FEFDF
:10463000980F9E3F08F032CD22E330E03093B7016F
:104640002093B60128E330E03093B5012093B40104
:104650004BE050E05B834A83682F81EF96E00E9435
:1046600086128A819B810E947518EA81FB813196AE
:10467000FB83EA83719781F70E941B1288EE93E017
:104680000E947C110BCD198282CD84E00E949E1184
:104690008111ACCD0E94E9128823E1F372CD29E1AA
:1046A00030E03B832A83EFE3F5E10491E0E4F5E1B8
:1046B000E4908BEFC82E30E020E041E455E16DE25C
:1046C00070E08A819B810E945C0F2A813B812F5F71
:1046D0003F4F3B832A832435310529F7143608F4EC
:1046E000F2CD10E0F1CD84E00E949E118111FECD4B
:1046F0000E94E9128823E1F3C5CD80E40E949E1157
:10470000882321F091E090932E067ECEE2E0E093A4
:104710002E067ACE84E00E949E1181117BCE7FCE40
:104720008091ED06882309F47ACE8091EE068823E5
:1047300009F479CE4092E9065092EA066092EB06BF
:104740007092EC061092ED061092EE0668CE809103
:104750002D0670CECA1254C1ED2DDD0CFF0B6F017A
:10476000C80ED11C87FDDA94C416D5060CF448C1D6
:104770006E177F070CF444C181E0E0903006E11031
:1047800019C08823B9F092E0D92ED0922D06D0928C
:104790002E0680932F068091E206811103C026E049
:1047A0002093DF061092E9061092EA061092EB06BB
:1047B0001092EC0600912F06002309F4E7C180E86F
:1047C0000E949E11882309F41FC18091E206811185
:1047D00005C0023009F000E000930D0180910D0149
:1047E000823009F4B5C108F032C1882309F448C108
:1047F000813009F489C110922F068091B90181118D
:1048000002C00E941D130E94EA18F090DC01F11012
:104810000BC0E0918106F0E0EE0FFF1FE756F94F65
:10482000808191810E9484148091BA01882381F053
:104830006091BC01062E000C770B8091BB0120918A
:10484000C1014FE557E1082E000C990B0E9445115C
:10485000F11070C08091300681116CC04091DD066E
:10486000F090E2068091DC068F0D92E0980F22E036
:104870002F0DA92F092E000CBB0BA20FB11D27FD78
:10488000BA95042E000C550BBA016B5F7F4FE4EC18
:10489000F1E02081222309F4E7C223812111E4C23F
:1048A000E1802E2D0E2C000C330BE9160CF4DCC22B
:1048B000A217B3070CF4D8C22281022E000C330BCE
:1048C000241735070CF4D0C2621773070CF4CCC25E
:1048D000CC24C394C09230069091BA01992351F12F
:1048E0008F5F082E000C990B2091BB012F5F022EC9
:1048F000000C330BF9013296E817F907DCF0E5E01C
:10490000EF0D8E0F911DE7FD9A958217930794F096
:104910008091BC018B5F082E000C990B9C012E5FCF
:104920003F4F2417350734F0681779071CF031E042
:10493000309330060E941B1A0E940B16A09130067D
:10494000A33008F0E3C22091DD064091DC0680919F
:10495000F3019091F401009709F48EC201979093AE
:10496000F4018093F3018091F601882309F4CEC20B
:104970009091F8018091F7014F5F042E000C550BC8
:10498000682F082E000C770BFB013596E417F5070E
:10499000ECF04C5F5F4F46175707C4F02E5F022EB6
:1049A000000C330B492F092E000C550BBA016D5F1B
:1049B0007F4F6217730754F02B5F3F4F2417350763
:1049C0002CF0A11103C061E0609330062091F90141
:1049D000222309F46DC219160CF05EC29150909317
:1049E000F8015CC2DB120CC0082E000C990B8C0D78
:1049F000911DC7FC9A958E159F0514F0AC1514F403
:104A00000C5F56CD82E0B9CE80E10E949E118823D2
:104A100049F08091E2068111E1CE023009F4DCCE4A
:104A200001E0DACE80E40E949E11882319F01093F1
:104A30000D01D4CE80E20E949E11882321F084E0F3
:104A400080930D01CBCE32E030930D01C7CE833081
:104A500009F489C0843009F0CECEE110CCCE80912B
:104A6000F00682381CF081508093F0060E94A91154
:104A70008091E206882309F4BECE1092DF06BBCEF9
:104A8000E110B9CE8091E3069091E406891720F4F5
:104A90008F5F8093E306AFCE6091DD066150609337
:104AA000DD068091DC060E943D13882359F1809138
:104AB000E006811181508093E0068091DD068F5FD2
:104AC0008093DD0680E01092E9061092EA061092CB
:104AD000EB061092EC061092E3069091E0069230FD
:104AE00018F4EE24E394E90EE092E006882309F43A
:104AF00082CE62E086E90E94DF1762E08FEA0E94C0
:104B0000DF1779CE81E0DFCFE11075CE8091E3062B
:104B10009091E406891708F4BBCF8091DD068F5F82
:104B20008093DD068092E9069092EA06A092EB0659
:104B3000B092EC061092E3068091E006882331F0F3
:104B400081508093E00661E086E9D9CF82E0F9CF19
:104B50008091F006835E8B3308F04DCE1092F00604
:104B60000E94A91148CEE11046CE8091F0068F3701
:104B700019F08F5F8093F0060E94A9118091E206E0
:104B8000882309F438CE1093DF0635CE80912D06A8
:104B9000813009F4F4C008F493C0823009F427C1CD
:104BA00081E092E00E9413178823D9F12091E50655
:104BB0003091E6064091E7065091E8066091E906DB
:104BC0007091EA068091EB069091EC060E94922883
:104BD0006B017C0120E030E040E450E40E94FE28BC
:104BE00087FF0DC1C092E906D092EA06E092EB067B
:104BF000F092EC066091DD06062E000C770B880B18
:104C0000990B0E943B292091E9063091EA064091D8
:104C1000EB065091EC060E9492280E9403296093B3
:104C2000DD0680913006813061F46091DD066F5FB2
:104C30008091DC060E943D13882319F062E06093A6
:104C4000300620E030E0A9016091E9067091EA06A3
:104C50008091EB069091EC060E94EB2987FDD3C072
:104C60006091DD068091DC060E943D13882309F4E3
:104C7000E3C01092E9061092EA061092EB06109239
:104C8000EC061092F00681E08093ED0688E00E9429
:104C90009E11811108C084E00E949E11811103C001
:104CA00091E09093EE068091DD0681508093DD06C1
:104CB000809130068130A1F6E2E0E0933006D0CF5B
:104CC0008FEF8E0D833008F46BCF0E94680C8091BB
:104CD000E3069091E406891720F48F5F8093E30642
:104CE0005FCF8091DC0618166CF481508093DC064F
:104CF0008091ED06882331F001E08091E00682305A
:104D000009F000E06091DD068091DC060E943D1311
:104D10008823E9F08091DC068F5F8093DC0620E039
:104D200030E0A9016091E9067091EA068091EB06F6
:104D30009091EC060E94FE2887FF32CF1092E90680
:104D40001092EA061092EB061092EC0629CF109210
:104D5000E3069091E006923010F481E0890F809391
:104D6000E0061092DF06002309F41ACF62E081E02A
:104D70000E94DF1761E088EC0E94DF1711CF8FEFF0
:104D80008E0D833008F40CCF0E94680C8091E306EE
:104D90009091E406891708F4A0CF8091DC068F3744
:104DA00069F08F5F8093DC068091ED06882331F0F7
:104DB00001E08091E006823009F000E06091DD06BC
:104DC0008091DC060E943D13882321F08091DC064F
:104DD0008150A3CF1092E3069091E006923010F438
:104DE00081E0890F8093E0061093DF06BCCF8091AD
:104DF000E4068093E30641E04093E006D1CE51E023
:104E000050933006F7CE6091DD068091DC060E945B
:104E10003D13882389F01092E9061092EA06109259
:104E2000EB061092EC068091DD068F5F8093DD0625
:104E3000F2E0F0932D06E7CF20E030E040E85FE3BA
:104E40006091E9067091EA068091EB069091EC067C
:104E50000E94EB2918160CF0D0CC1092ED0610929F
:104E6000EE061092EF06C9CC34962CED31E02E17E9
:104E70003F0709F00ECD30CD8091F601811173CD41
:104E800051E05093F6011092F7011092F8015093FF
:104E9000FA015093F90167CD1092F9019091FA014E
:104EA0009923C1F0873664F48F5F8093F7010AC0BD
:104EB0009C3314F49F5F93CD91E09093F901EECF72
:104EC0001092FA018091F5018A3060F01092F5019C
:104ED00020E00EC0883014F08150E7CFE1E0E0938D
:104EE000FA01F0CF8F5F8093F50121E0863080F3E7
:104EF0006091F801062E000C770B8091F7014BE6CC
:104F000057E1082E000C990B0E9445110E941B12BC
:104F100080913006833059F580912C02811150CA5E
:104F2000FFEF21EE34E0F15020403040E1F700C0C7
:104F30000000209128023091290280912A0290914C
:104F40002B028217930708F4C90190932B028093D8
:104F50002A020E9489110E941B124FEF51EE64E059
:104F6000415050406040E1F700C0000084C90E94F9
:104F7000E9128823E1F33ECA8F929F92AF92BF92CB
:104F8000CF92DF92EF92FF92CF93DF93EC01688193
:104F900079818A819B81611571058105910521F4D3
:104FA00064E279ED8BE597E02DE133EF41E050E0ED
:104FB0000E942E2849015A019B01AC01A7EAB1E4E5
:104FC0000E944D286B017C01ACEEB4EFA501940169
:104FD0000E945B28DC01CB018C0D9D1DAE1DBF1D09
:104FE000B7FF03C00197A109B04888839983AA83BA
:104FF000BB839F77DF91CF91FF90EF90DF90CF90B1
:10500000BF90AF909F908F9008950E94BC27089505
:105010008EE091E00E94BC270895B0E0A0E080936C
:105020000E0190930F01A0931001B0931101089508
:10503000F999FECF92BD81BDF89A992780B5089560
:10504000262FF999FECF1FBA92BD81BD20BD0FB6A4
:10505000F894FA9AF99A0FBE01960895052E97FBD7
:105060001EF400940E94452857FD07D00E94602836
:1050700007FC03D04EF40C9445285095409530958C
:1050800021953F4F4F4F5F4F0895909580957095B4
:1050900061957F4F8F4F9F4F08950E948228A59F53
:1050A000900DB49F900DA49F800D911D1124089523
:1050B000B7FF0C944D280E944D28821B930B089536
:1050C000A1E21A2EAA1BBB1BFD010DC0AA1FBB1F0C
:1050D000EE1FFF1FA217B307E407F50720F0A21B7E
:1050E000B30BE40BF50B661F771F881F991F1A94EB
:1050F00069F760957095809590959B01AC01BD0115
:10510000CF010895A29FB001B39FC001A39F700D6E
:10511000811D1124911DB29F700D811D1124911DBF
:1051200008955058BB27AA270E94A9280C94B1299A
:105130000E94A32938F00E94AA2920F039F49F3F49
:1051400019F426F40C94A0290EF4E095E7FB0C94D6
:105150009A29E92F0E94C22958F3BA1762077307E8
:105160008407950720F079F4A6F50C94E4290EF451
:10517000E0950B2EBA2FA02D0B01B90190010C0167
:10518000CA01A0011124FF27591B99F0593F50F47F
:10519000503E68F11A16F040A22F232F342F4427D7
:1051A000585FF3CF469537952795A795F0405395CF
:1051B000C9F77EF41F16BA0B620B730B840BBAF09F
:1051C0009150A1F0FF0FBB1F661F771F881FC2F70A
:1051D0000EC0BA0F621F731F841F48F4879577951E
:1051E0006795B795F7959E3F08F0B0CF9395880FD8
:1051F00008F09927EE0F9795879508950E947629D4
:1052000008F481E008950E940A296894B1110C9471
:10521000E52908950E94CA2988F09F5798F0B92F70
:105220009927B751B0F0E1F0660F771F881F991FDB
:105230001AF0BA95C9F714C0B13091F00E94E42970
:10524000B1E008950C94E429672F782F8827B85F80
:1052500039F0B93FCCF3869577956795B395D9F733
:105260003EF490958095709561957F4F8F4F9F4F3D
:105270000895E89409C097FB3EF490958095709549
:1052800061957F4F8F4F9F4F9923A9F0F92F96E992
:10529000BB279395F695879577956795B795F11107
:1052A000F8CFFAF4BB0F11F460FF1BC06F5F7F4FA4
:1052B0008F4F9F4F16C0882311F096E911C07723B6
:1052C00021F09EE8872F762F05C0662371F096E8BF
:1052D000862F70E060E02AF09A95660F771F881F8E
:1052E000DAF7880F9695879597F90895990F000832
:1052F000550FAA0BE0E8FEEF16161706E807F907A8
:10530000C0F012161306E407F50798F0621B730B42
:10531000840B950B39F40A2661F0232B242B252BC3
:1053200021F408950A2609F4A140A6958FEF811D66
:10533000811D089597F99F6780E870E060E0089507
:105340009FEF80EC089500240A941616170618069D
:105350000906089500240A94121613061406050679
:105360000895092E0394000C11F4882352F0BB0F0A
:1053700040F4BF2B11F460FF04C06F5F7F4F8F4F6D
:105380009F4F089557FD9058440F551F59F05F3FA8
:1053900071F04795880F97FB991F61F09F3F79F057
:1053A00087950895121613061406551FF2CF4695D9
:1053B000F1DF08C0161617061806991FF1CF86955B
:1053C0007105610508940895E894BB27662777273F
:1053D000CB0197F908950E94762908F48FEF08957C
:1053E000AA1BBB1B51E107C0AA1FBB1FA617B7070B
:1053F00010F0A61BB70B881F991F5A95A9F7809527
:105400009095BC01CD01089597FB072E16F40094EA
:1054100007D077FD09D00E94F02907FC05D03EF4A3
:10542000909581959F4F0895709561957F4F089550
:10543000EE0FFF1F0590F491E02D0994F894FFCF33
:1054400010FFFFFFFF00E10000000000000201006C
:105450000000A609EE085D089C073B07B00664063D
:10546000D00566050B05F504D004BB049E048D042D
:10547000780467045A045104380417041604F90325
:10548000D403A30372034D0328030703EA02CD02EA
:10549000AC02AB0276024B021C02EB01C20193018B
:1054A0006E014B010001CB00AC0000C18081000007
:1054B00000000000003F0DAA0E600D550DA60D6402
:1054C0000D820D0000000086122F0FDC17DB170085
:00000001FF
