:100000000C942B090C9453090C9453090C94530928
:100010000C9453090C9453090C9453090C945309F0
:100020000C9453090C9453090C94C20C0C94340D89
:100030000C9453090C9453090C9453090C945309D0
:100040000C9453090C9453090C9453090C945309C0
:100050000C9453090C9453090C9453090C942E11CD
:100060000C9453090C9453090C9453090C945309A0
:100070000C9453090C9453090C9453090C94530990
:100080000C948F100C9453090C9453090C9453093D
:100090000C9453090C9453090C9453090C94530970
:1000A0000C9453090C9453090C945309E60BE90B77
:1000B000D80BDC0BE00B0A0C0A0C0A0CED0BF10B55
:1000C000F50BFB0BFF0B0A0C050CF0F89C8E8783DD
:1000D000878E9CF8F00000FEFF0303030303070E66
:1000E000FCF80000FEFF0303030303070EFCF80007
:1000F00000FFFF00000000000000FFFF0000FEFF07
:100100008383838383C7EE7C380000F8FC0E0703EB
:100110000303070EFCF800003F7FE0C08080C0E0D2
:100120007F3FFFFF01010101010101FFFF0000FF0F
:10013000FF0C0C0C0C1C3E77E3C100007FFFC0C01D
:10014000C0C0C0E0703F1F00001F3F70E0C0C0C0D3
:10015000E0703F1F00007FFFC1C1C1C1C1E3773E16
:100160001C00001F3F70E0C0C0C0E0703F1F0000D7
:1001700000000001FFFF01000000D5F08D14A1C8B0
:1001800081CFD9F1AF200000000000240027002A11
:10019000002D0030000102030406080C1018201086
:1001A0000011001200130015001600170018001AA5
:1001B000001C001D001F002100230025002700292E
:1001C000002C002E003100340037003A003E004180
:1001D00000450049004E00520057005C0062006874
:1001E000006E0075007B0083008B0093009C00A5CF
:1001F00000AF00B900C400D000DC00E900F7000641
:10020000011501260137014A015D01720188019F34
:1002100001B801D201EE010B022A024B026E0293D9
:1002200002BA02E40210033F037003A403DC0317C5
:100230000455049704DD0427057505C80520067DCF
:1002400006E0064907B8072D08A9082D09B9094D88
:100250000AEA0A900B400CFA0CC00D910E6F0F5A6F
:100260001053115B1272139A14D41520178018F5CD
:1002700019801B231DDE1EB420A622B524E42634DB
:1002800029A72B402E0031EA330037453ABC3D09FF
:100290000B0002040507000C1824303C4854606C25
:1002A000000000000000000000000000000000004E
:1002B0001C3E41556B3E1C00001400001C1C3E7F80
:1002C00000000000000000001C3E41556B3E1C0079
:1002D000001400001C1C3E7F0018002499423C00C2
:1002E0000000003E0A04003E0A34003E2A2A002490
:1002F0002A1200242A1200001C3E4375433E1C00B3
:1003000000023E02001C221C0000242A1200023EB1
:1003100002003C0A3C003E0A3400023E020000009B
:100320000A070A00000000000A070600000000009B
:100330000A070A0000000000060F0200000000008B
:100340000F0B050F00000000050B050F000000005B
:100350000F0B050B00000000050B050B0000000053
:100360000F09090F000000000000000602434222AE
:100370001E00402214081422010040201F007F406C
:100380003000000808080804000041211109152365
:100390004100010201020000000000000000000016
:1003A000000000000000000000000000000000004D
:1003B000000000000000000000000000000000003D
:1003C000000000000000000000000000000000002D
:1003D000000000000000000000000000000000001D
:100AA0004D4158204C4556454C0054314F3442314D
:100AB000004C4556454C0054314F3443335230437B
:100AC0003252304333523243334533523045334749
:100AD0003500040302010101010154314F344C433C
:100AE00033453344330047414D45204F564552006E
:100AF00054314F3445334433433352304533443318
:100B0000433352324F334333443345334633523504
:100B100000414C4C204C4556454C20434C454152DD
:100B2000454400434F4E47524154554C4154494F60
:100B30004E5321004C4556454C20202020434C4527
:100B400041520054344F3445344434433326433304
:100B500052324634453444332644335232473446C5
:100B6000344534443443355235000000000025003C
:100B700028002B002E0031000404040404030405A3
:100B8000020202020403020202020606060606062A
:100B90000404020202040404080201104080401010
:100BA0002040804080080204018040201002011093
:100BB0008010204040200000000200090F000003C8
:100BC0000401000C00000000000000000000000014
:100BD00000000000000300000000001700000300F8
:100BE00003001F0A1F00161F0D000B041A000A1530
:100BF0001A0000030000000E1100110E00000A048C
:100C00000A00040E04001008000004040400001090
:100C10000000080402001F111F00011F00001D1525
:100C2000170015151F0007041F0017151D001F15BD
:100C30001D0001011F001F151F0017151F00000ACE
:100C40000000100A0000040A11000A0A0A00110A32
:100C50000400011503001F1517001E051E001F15B7
:100C60000A000E1111001F110E001F1515001F059F
:100C700005000E111D001F041F00001F00000810BA
:100C80000F001F041B001F1010001F061F001E0472
:100C90000F000E110E001F0502000E1116001F0599
:100CA0001A0012150900011F01001F101F000F106C
:100CB0000F001F0C1F001B041B00031C0300191551
:100CC0001300001F110002040800111F00000201A0
:100CD000020010101000080B0002020201000904BB
:100CE000000001020200000524001001052401019A
:100CF00001042402060524060001070581031000F3
:100D00004009040100020A00000007050202400039
:100D100000070583024000000403090412010002D9
:100D2000EF020140412336800001010203014172BC
:100D30006475696E6F204C4C430041726475696E36
:100D40006F204C656F6E6172646F000102040810C1
:100D500020408000000000003E5B4F5B3E3E6B4F3A
:100D60006B3E1C3E7C3E1C183C7E3C181C577D573D
:100D70001C1C5E7F5E1C00183C1800FFE7C3E7FFE9
:100D80000018241800FFE7DBE7FF30483A060E267C
:100D900029792926407F050507407F05253F5A3CD4
:100DA000E73C5A7F3E1C1C08081C1C3E7F14227F17
:100DB00022145F5F005F5F06097F017F00668995EF
:100DC0006A606060606094A2FFA29408047E0408D8
:100DD00010207E201008082A1C08081C2A08081E5B
:100DE000101010100C1E0C1E0C30383E3830060E41
:100DF0003E0E06000000000000005F00000007003B
:100E00000700147F147F14242A7F2A1223130864F6
:100E10006236495620500008070300001C2241009A
:100E20000041221C002A1C7F1C2A08083E080800DA
:100E3000807030000808080808000060600020107A
:100E40000804023E5149453E00427F400072494934
:100E500049462141494D331814127F102745454515
:100E6000393C4A4949314121110907364949493636
:100E7000464949291E0000140000004034000000CB
:100E800008142241141414141400412214080201FD
:100E90005909063E415D594E7C1211127C7F494929
:100EA00049363E414141227F4141413E7F494949C6
:100EB000417F090909013E414151737F0808087FBC
:100EC00000417F41002040413F017F081422417FC3
:100ED000404040407F021C027F7F0408107F3E415B
:100EE00041413E7F090909063E4151215E7F0919B2
:100EF0002946264949493203017F01033F404040CA
:100F00003F1F2040201F3F4038403F6314081463B8
:100F100003047804036159494D43007F4141410274
:100F200004081020004141417F04020102044040B6
:100F3000404040000307080020545478407F284474
:100F400044383844444428384444287F385454545E
:100F50001800087E090218A4A49C787F080404786D
:100F600000447D40002040403D007F1028440000A8
:100F7000417F40007C047804787C0804047838447D
:100F8000444438FC1824241818242418FC7C080431
:100F90000408485454542404043F44243C40402052
:100FA0007C1C2040201C3C4030403C4428102844FD
:100FB0004C9090907C4464544C44000836410000AE
:100FC00000770000004136080002010204023C26BE
:100FD00023263C1EA1A161123A4040207A38545485
:100FE000555921555579412154547841215554780A
:100FF0004020545579400C1E52721239555555599E
:10100000395454545939555454580000457C4100C2
:1010100002457D420001457C40F0292429F0F0285A
:101020002528F07C545545002054547C547C0A09F2
:101030007F4932494949323248484832324A484861
:10104000303A4141217A3A42402078009DA0A07D6B
:1010500039444444393D4040403D3C24FF24244829
:101060007E4943662B2FFC2F2BFF0929F620C088D1
:101070007E090320545479410000447D41304848A2
:101080004A32384040227A007A0A0A727D0D1931BC
:101090007D2629292F28262929292630484D402018
:1010A000380808080808080808382F10C8ACBA2FF4
:1010B000102834FA00007B000008142A142222149D
:1010C0002A14089500220095AA005500AAAA55AA3C
:1010D00055AA000000FF00101010FF00141414FFA8
:1010E000001010FF00FF1010F010F0141414FC009A
:1010F0001414F700FF0000FF00FF1414F404FC14A4
:101100001417101F10101F101F1414141F0010109C
:1011100010F0000000001F101010101F1010101011
:10112000F010000000FF101010101010101010FF31
:1011300010000000FF140000FF00FF00001F101748
:101140000000FC04F414141710171414F404F40031
:1011500000FF00F714141414141414F700F71414F7
:1011600014171410101F101F141414F4141010F07E
:1011700010F000001F101F0000001F14000000FCF2
:10118000140000F010F01010FF10FF141414FF14DE
:101190001010101F00000000F010FFFFFFFFFFF015
:1011A000F0F0F0F0FFFFFF0000000000FFFF0F0F66
:1011B0000F0F0F38444438447C2A2A3E147E020222
:1011C0000606027E027E0263554941633844443C70
:1011D00004407E201E2006027E020299A5E7A59902
:1011E0001C2A492A1C4C7201724C304A4D4D303039
:1011F00048784830BC625A463D3E494949007E0124
:1012000001017E2A2A2A2A2A44445F444440514A42
:10121000444040444A51400000FF0103E080FF0089
:101220000008086B6B083612362436060F090F06C5
:10123000000018180000001010003040FF010100ED
:101240001F01011E00191D1712003C3C3C3C000010
:10125000000000008C1A11241FBECFEFDAE0DEBFC1
:10126000CDBF11E0A0E0B1E0ECE8F7E302C00590EB
:101270000D92A433B107D9F726E0A4E3B1E001C091
:101280001D92AF31B207E1F719E0CBE2D9E004C01B
:101290002197FE010E94B91BCA32D107C9F70E94EB
:1012A0003F120C94C41B0C940000FC018091870138
:1012B000811103C08FEF9FEF08959FB7F89482E0EC
:1012C0008093E9002091F20030E01216130614F426
:1012D00021E030E02115310559F0289884E680930B
:1012E00086018091F10080838091F200882319F0BB
:1012F0009FBFC90108958BE68093E800F9CFCF9393
:10130000DF931F92CDB7DEB76983DC01ED91FC91CD
:101310000280F381E02D41E050E0BE016F5F7F4F1E
:1013200009950F90DF91CF91089583E08093E900B4
:101330008091F200882319F08AE38093E8000895F1
:10134000CF93DF931F92CDB7DEB7FC0184859585DF
:1013500097FD05C02FEF3FEF358724870BC0CE01E7
:1013600001960E945509019719F4898190E002C005
:101370008FEF9FEF0F90DF91CF9108950F931F9301
:10138000CF93DF931F92CDB7DEB78C01FC0184852C
:10139000958597FF0EC0CE0101960E9455090197D1
:1013A00019F4298130E002C02FEF3FEFF8013587B3
:1013B0002487F801848595850F90DF91CF911F9147
:1013C0000F910895FC018485958597FD0BC09FB70B
:1013D000F89482E08093E9008091F2009FBF90E052
:1013E000019608959FB7F89482E08093E900809178
:1013F000F2009FBF90E008957F928F929F92AF92EC
:10140000BF92CF92DF92EF92FF920F931F93CF93F1
:10141000DF936C015B017A0180910701882309F455
:101420006BC080918701882309F466C08091850193
:1014300080FF05C08091E00082608093E000E701BA
:1014400010E00AEF83E0982E90E4792E2AE3822EB2
:10145000209709F448C08FB7F8949092E9009091D2
:10146000E80095FF06C09091F200272D291B922FCE
:1014700001C090E08FBF91110AC0015009F43CC037
:1014800061E070E080E090E00E94F410E1CF292F4D
:1014900030E0C217D3070CF49C2F8FB7F8949092CA
:1014A000E9002091E80025FF1CC0292F30E0C21B75
:1014B000D30BF501915020F041914093F100FACF08
:1014C000A20EB31E112319F08092E80009C090917A
:1014D000E80095FD06C08092E80011E0209709F031
:1014E00010E08FBFB5CF1111B6CF5D9884E6809321
:1014F00084011E141F0444F081E090E0F601938300
:10150000828380E090E001C0C701DF91CF911F91FD
:101510000F91FF90EF90DF90CF90BF90AF909F9092
:101520008F907F900895809195018EBDE6E9F1E05E
:1015300081910DB407FEFDCF8EBD85E0E539F8073A
:10154000B9F70DB407FEFDCF0895CF93DF93FC01EB
:1015500067FF06C0E61BF10967FDF395260F60E003
:10156000A62F062E000CBB0BCD01820F911D8038DB
:10157000910514F020E8261BC0919301D0919401AD
:1015800047FF14C0842F8195AC0FBD1F215008F474
:1015900070C0649170E0082E02C0759567950A943A
:1015A000E2F79C91692B6D933196F0CF4933A4F00B
:1015B00088EC840FA058BC4FAC0FBD1F215008F41D
:1015C00058C06491082E01C0660F0A94EAF79C91F6
:1015D000692B6D933196F2CF342F3770042E000CA7
:1015E000550B311119C0BA0133E0759567953A95DD
:1015F000E1F77695762F662777956795AD01460FCB
:10160000571FDE01A40FB51F215098F184919C91C2
:10161000892B8D933196F8CF83E0559547958A9520
:10162000E1F75695542F4427579547954A0F5B1F6E
:10163000DE01A40FB51F48E0431B2150D0F0849178
:1016400090E0BC01032E01C0660F0A94EAF75C919A
:10165000652B6C93ED01C058DF4F042E02C09595A9
:1016600087950A94E2F79881892B888331961196A1
:10167000E4CFDF91CF910895E22FF0E0E60FF11D66
:1016800067FDFA951E161F0634F437E0340F373421
:1016900010F40C94A50A0895EF92FF920F931F93F4
:1016A000CF93DF9300D0CDB7DEB7F42E34E0360F02
:1016B0000AE010E0B8010E94A51BE62E880F991FD2
:1016C000880F991F24E04F2D632F8A5E934F398333
:1016D0007A830E943C0B398134508E2D7A81972F6A
:1016E000009741F70F900F90DF91CF911F910F91CD
:1016F000FF90EF90089520E085E991E0B22FB111BD
:10170000BFEFFC010024B193B193B193B193039463
:10171000D1F70895E8E8F1E0918380839383828391
:10172000148281E0858380E3868388E08783108646
:1017300012861186089580910801853009F5E5ED3E
:10174000FBE0E4918FEF80930801E13071F050F0FD
:10175000E33089F0E430A1F4809172008F7B8093B4
:1017600072000EC010926E000BC080916F008D7FD2
:1017700080936F0005C0809171008D7F8093710010
:10178000EBEBFBE04491ECE9FBE09491EDE7FBE04F
:101790008491882309F44DC04423E1F150E0FA011B
:1017A0003197EF30F105B0F5EA5AFF4F0C94B91BB1
:1017B000209180002F7707C0209180002F7D03C0EB
:1017C00020918000277F2093800024C024B52F77AC
:1017D00002C024B52F7D24BD1DC0209190002F771D
:1017E00007C0209190002F7D03C020919000277F9B
:1017F000209390000FC02091C0002F7703C020914C
:10180000C0002F7D2093C00005C02091C200277F1B
:101810002093C200E82FF0E0EE0FFF1FE659F44FCF
:10182000A591B4918FB7F894EC9190959E239C93D9
:101830008FBF08958091B70581110DC082E080931C
:10184000B30584E08093B4051092B6051092B505F7
:1018500081E08093B70583EB95E0089540911306EE
:101860005091140620911106309112064217530729
:10187000B4F49091E8009570E1F39091E80092FD46
:1018800019C08093F100809113069091140601967F
:101890008F739927892B19F48EEF8093E80080913C
:1018A00013069091140601969093140680931306E4
:1018B00081E0089580E00895DF92EF92FF920F9308
:1018C0001F93CF93DF93D82E8A017B01E40EF51E80
:1018D000EB01CE15DF0571F0D7FE03C0FE01849148
:1018E00001C088810E942E0C21968111F2CF8FEFCA
:1018F0009FEF01C0C801DF91CF911F910F91FF9021
:10190000EF90DF900895615030F02091F100FC01DC
:1019100020830196F8CF289884E680938601089565
:101920000F931F93CF93DF931F92CDB7DEB782E063
:10193000898342E450E066ED7CE080E80E945C0C24
:101940000E941A0CDC0112960D911C91139701153F
:10195000110569F0D801ED91FC910280F381E02D31
:10196000BE016F5F7F4FC801099597FF07C089814E
:101970000F90DF91CF911F910F910895F80100858D
:101980001185E5CF1F920F920FB60F9211248F93FE
:101990009F938091E1009091E100937F9093E1000B
:1019A00083FF0FC01092E90091E09093EB0010923A
:1019B000EC0092E39093ED001092870198E09093F1
:1019C000F00082FF20C093E09093E9009091F20034
:1019D000992319F09AE39093E80090918401992358
:1019E00039F090918401915090938401992389F169
:1019F00090918601992339F09091860191509093AE
:101A00008601992341F184FF10C08091E2008E7E0F
:101A100081608093E2008091E1008F7E8093E100FD
:101A2000809185018E7E806111C080FF16C08091FB
:101A3000E2008E7E80618093E2008091E1008E7EE4
:101A40008093E100809185018E7E81608093850185
:101A500004C05D9ACDCF289AD6CF9F918F910F90D9
:101A60000FBE0F901F9018951F920F920FB60F92F6
:101A70001124CF92DF92EF92FF920F931F932F9337
:101A80003F934F935F936F937F938F939F93AF9306
:101A9000BF93EF93FF93CF93DF93CDB7DEB76C97F0
:101AA000DEBFCDBF1092E9008091E80083FFEDC159
:101AB00068E0CE0145960E94830C82EF8093E80097
:101AC0008D8987FF05C09091E80090FFFCCF03C08F
:101AD0009EEF9093E800982F907609F0C6C09E89FB
:101AE0002F89188D91110CC0803829F4809110062F
:101AF0008093F10002C01092F1001092F10048C1F1
:101B0000422F50E0512B913051F4811141C14130AD
:101B1000510509F03DC1809110068D7F0BC09330B7
:101B200061F4811135C14130510509F031C1809115
:101B300010068260809310062BC1953041F480918D
:101B4000E80080FFFCCF20682093E30021C196309D
:101B500009F05FC0EB8CFC8C1092E9001092140627
:101B600010921306123091F510921206109211067F
:101B70000E94900C99E0BE016F5F7F4FDB01E92F5F
:101B80001D92EA95E9F799831A8391E09E8390EA82
:101B900098879AEF99872091130630911406275F52
:101BA0003F4F3C832B838D831092E90010921406E3
:101BB00010921306F0921206E092110649E050E0EE
:101BC00080E00E945C0C0E94900CE2C0F092120631
:101BD000E09211060E941A0CDC011296ED90FC9026
:101BE0001397E114F10409F4C0C0D701ED91FC9101
:101BF0000480F581E02DBE016B5E7F4FC701099522
:101C0000009719F00CF0C4C0C7C0F701E084F1845C
:101C1000E8CF973009F4C0C0983021F481E0809378
:101C2000F100B6C0993009F0B3C0837009F0B4C0B8
:101C3000EEE2F1E081E021E036E39081992361F06A
:101C40008093E9002093EB0091919093EC00309306
:101C5000ED008F5F873089F78EE78093EA0010925E
:101C6000EA008F898093870193C08B8D9C8D1092A1
:101C7000E9001092140610921306909312068093B6
:101C80001106898D811156C08E899D89913A59F42A
:101C9000813209F081C047E050E060E071E080E00F
:101CA0000E945C0C75C0913209F076C0833289F4D1
:101CB000888D90E0982F88272F89822BA0E0B0E0B4
:101CC0008093090190930A01A0930B01B0930C013A
:101CD0005FC0803269F48091E80082FFFCCF67E04A
:101CE00080E091E00E94830C8BEF8093E80006C0B7
:101CF000823209F04DC08F898093070180910F06D1
:101D0000882319F0EEEFFAE002C0E0E0F8E08091FD
:101D1000000190910101A0910201B0910301803B6B
:101D20009440A105B10509F07BC08091070180FFB7
:101D300093C076C00E941A0CDC0112960D911C9182
:101D400013970115110541F1D801ED91FC91019016
:101D5000F081E02DBE016B5E7F4FC80109958111B6
:101D600017C0F80100851185ECCF113009F44EC081
:101D7000133091F48F89882309F445C0823081F4AF
:101D800040E860E18AE39DE00E94C11A882321F0C7
:101D90008EEF8093E80079C081E28093EB0075C0FC
:101DA000813029F440E86BE08EE29DE0EDCF833096
:101DB00099F70E941A0CDC011296ED90FC90139793
:101DC0008E010F5F1F4F6801E114F10479F0D70114
:101DD000ED91FC910680F781E02DB801C7010995CE
:101DE000080F111DF701E084F184EECFD8011C9299
:101DF000F60101900020E9F73197BF016C197D09C8
:101E000040E0C601C1CF68E17DE002C06CE17DE049
:101E10006115710509F2FB01449150E080E840CF63
:101E20000FB6F894A8958091600088618093600057
:101E3000109260000FBEA895EE3F2AE0F20739F03D
:101E40008091FE0A9091FF0A91838083A1CF109226
:101E5000FF0A1092FE0A9CCFEE3F8AE0F80731F0AD
:101E6000808191819093FF0A8093FE0A87E797E72C
:101E7000918380839BE088E10FB6F894A8958093C6
:101E800060000FBE9093600083CF6C960FB6F894FD
:101E9000DEBF0FBECDBFDF91CF91FF91EF91BF911C
:101EA000AF919F918F917F916F915F914F913F91F2
:101EB0002F911F910F91FF90EF90DF90CF900F9097
:101EC0000FBE0F901F901895CF92DF92EF92FF9266
:101ED0000F931F93CF93DF936C017A018B01C0E0C6
:101EE000D0E0CE15DF0589F0D8016D918D01D601C6
:101EF000ED91FC910190F081E02DC6010995892BAF
:101F000011F47E0102C02196ECCFC701DF91CF9181
:101F10001F910F91FF90EF90DF90CF9008953FB702
:101F2000F89480911B0690911C06A0911D06B0911B
:101F30001E0626B5A89B05C02F3F19F00196A11DCE
:101F4000B11D3FBFBA2FA92F982F8827820F911D4F
:101F5000A11DB11DBC01CD0142E0660F771F881F96
:101F6000991F4A95D1F708952F923F924F925F9211
:101F70006F927F928F929F92AF92BF92CF92DF9299
:101F8000EF92FF920F931F93CF93DF93EC016A3090
:101F900069F42C8D888D998D38E0239F800D911DDB
:101FA0001124998F888F1F8A1E8AA1C06D3009F471
:101FB0009EC03C8D5B8C4A8CC88CD98C8E899F8945
:101FC0008038910584F02C8D422F50E08E899F89B6
:101FD000A6E02A9F800D911D11249F8B8E8B2D8D45
:101FE000211172C084C0B0E4CB16D10464F7AC01F7
:101FF000E5E03E9F400D511D1124141615061CF7F7
:10200000A32EB12CA601F8E03F9F400D511D1124D5
:1020100014161506C4F625E0629FB00111246D5A0E
:10202000724F912C40E1342EFB018490F5E09F1219
:1020300001C0812C760128E0722E80FC02C0652C44
:1020400001C0642C611009C0541007C086947A94B2
:10205000EA0CFB1C7110F1CF2EC0AC01242E242FF2
:10206000281B231798F78701202FE02FEE19E3177D
:10207000F8F440385105C8F400341105B0F4EBE42D
:10208000FDE0329ED001A0781124A20D2770E20F4E
:10209000F11D2491AB56BE4F662019F0EC912E2B0A
:1020A00003C02095EC912E232C930F5F1F4FDCCFA4
:1020B0004F5F5F4FD3CF93948A0D9B1D6F5F7F4F10
:1020C000F6E09F12B1CF7FCF6AEF64039001659F66
:1020D000300D112420583F4F2817390744F4CE0102
:1020E000E881F9810190F081E02D6AE0099581E0B5
:1020F00090E0DF91CF911F910F91FF90EF90DF90D3
:10210000CF90BF90AF909F908F907F906F905F9097
:102110004F903F902F90089508950E94BF1B1F92EB
:102120000F920FB60F9211242F933F938F939F938B
:10213000AF93BF93EF93FF9380913C0190913D014A
:10214000A0913E01B0913F01892B8A2B8B2B51F13D
:1021500080913901E0913A01F0913B01908189270A
:10216000808380913C0190913D01A0913E01B0910E
:102170003F01181619061A061B064CF580913C0102
:1021800090913D01A0913E01B0913F010197A109BD
:10219000B10980933C0190933D01A0933E01B0931F
:1021A0003F0115C0809171008D7F809371009091E7
:1021B0003901E0913A01F0913B018081282F30E014
:1021C000892F90E080959095822393238083FF91BF
:1021D000EF91BF91AF919F918F913F912F910F9070
:1021E0000FBE0F901F9018958F929F92AF92BF9243
:1021F000CF92DF92EF92FF926B017C010E948F0FD2
:102200004B015C01C114D104E104F104F1F00E941E
:102210008F0FDC01CB0188199909AA09BB09883EF7
:102220009340A105B10570F321E0C21AD108E1087D
:10223000F10888EE880E83E0981EA11CB11CC11421
:10224000D104E104F10419F7DDCFFF90EF90DF90A6
:10225000CF90BF90AF909F908F9008951F920F9254
:102260000FB60F9211242F933F938F939F93AF93A9
:10227000BF938091350190913601A0913701B091C3
:10228000380130911A0623E0230F2D3720F40196F0
:10229000A11DB11D05C026E8230F0296A11DB11D89
:1022A00020931A068093350190933601A09337014D
:1022B000B093380180911B0690911C06A0911D06D9
:1022C000B0911E060196A11DB11D80931B0690932F
:1022D0001C06A0931D06B0931E06BF91AF919F915F
:1022E0008F913F912F910F900FBE0F901F901895D7
:1022F0002D9A0895BC0180E090E00C94F4108FB109
:102300002CB193B130E02095309520743327A9018A
:1023100023E0559547952A95E1F7292F30E0209540
:102320003095207133273595279535952795242BA2
:102330008095807F822B089583B7817F83BF83B789
:10234000816083BF889583B78E7F83BF08958EBDDC
:1023500000000DB407FEFDCF0895109240013E9895
:102360003F9808953E9A3F9A81E0809340010895F6
:10237000909134018AEA8927875B809334018295A2
:10238000880F811D08950C94930ACF93DF93C1E4C5
:10239000D1E024E04981688180E693E00E943C0B13
:1023A0006881645F24E0498180E693E0DF91CF910A
:1023B0000C943C0BE4E6F1E04181445060816150B3
:1023C000838190E08871992723E0805E9C4F0C9474
:1023D0003C0B0F931F93CF93DF9304E411E0C0E015
:1023E000D0E0F80181918F01882311F1209739F015
:1023F00032978081811103C084E190E002C085E1C1
:1024000090E0CF31D10519F0F801208121118260CF
:1024100023E0880F991F2A95E1F724E04CE3BE01E1
:10242000660F771F660F771F80569D4F0E943C0BEB
:102430002196C032D105A9F6DF91CF911F910F915E
:1024400008950F931F93CF93DF93EC01162F042F62
:10245000FE01A491AA2371F024E0A202C00111247C
:1024600024E0402F612F8A5A944F0E943C0B1C5F3E
:102470002196EECFDF91CF911F910F910895CF93C9
:10248000DF9300D000D000D0CDB7DEB7789484B50C
:10249000826084BD84B5816084BD85B5826085BD60
:1024A00085B5816085BD80916E00816080936E00EE
:1024B00010928100809181008260809381008091E0
:1024C0008100816080938100809180008160809391
:1024D00080008091910082608093910080919100B2
:1024E0008160809391008091900081608093900042
:1024F0008091C10084608093C1008091C10082609E
:102500008093C1008091C10081608093C10080915F
:10251000C30081608093C3008091C000826080937B
:10252000C0008091C20081608093C20080917A00D7
:10253000846080937A0080917A00826080937A0030
:1025400080917A00816080937A0080917A0080681F
:1025500080937A00109287011092100610928501E4
:102560008091D70081608093D70080EA8093D80063
:1025700089B5806189BD89B5826089BD09B400FED5
:10258000FDCF61E070E080E090E00E94F410809167
:10259000D8008F7C80618093D8008091E000807F9C
:1025A0008093E0008091E1008E7E8093E1008DE0D9
:1025B0008093E200559A209AEEEFFFE7859194917F
:1025C0008B3F9C4D19F481E080930F0681EC809342
:1025D0007C0085B1806F85B9249884B1866E84B9FA
:1025E0005E9A5F988AB1806D8AB9769A6E9881B347
:1025F000806F81BB899880B38D7080BB80E58CBD76
:1026000081E08DBD85E090E00E947A115F9A85E0BF
:1026100090E00E947A115E985C987AE7E72E71E06C
:10262000F72E1DE01E0DF70184910E94A711FFEF08
:10263000EF1AFF0A1E11F7CF5C9A81E880936400BD
:1026400081E08093650000E014E080E00E94A71123
:1026500001501109D1F70E947F1187FF1FC05C98BC
:1026600085EA0E94A7115C9A2E982F982D98809148
:1026700064008062809364000E949C11FDCF2D98BD
:102680000E947F118478843871F00E947F118471D8
:10269000843131F188EC90E00E947A110E947F1120
:1026A00082FDEDCF3AC00E94781188EC90E00E9444
:1026B0007A112F9882E090E00E94421B8F3F29F010
:1026C0006FEF82E090E00E944A1B84EF91E00E944D
:1026D0007A112F9A0E947F1184788438D9F3D5CF4C
:1026E0000E94781188EC90E00E947A112E9882E086
:1026F00090E00E94421B882329F060E082E090E095
:102700000E944A1B84EF91E00E947A112E9A0E9447
:102710007F1184718431D9F3BDCF0E94781182E09A
:1027200090E00E94421B882319F00E94B21102C05F
:102730000E94AD112E986EEE462E55245A9408E054
:1027400010E00E947F1186FF04C02E9A2F9A2D9AC6
:1027500092C02CEF42162FEF520619F42E9A2F98A2
:1027600006C048E14416510411F42F9A2D980E9496
:102770007B0B50EF45165FEF55068CF40E94930AD1
:102780008BE190E00E947A1160EF46166FEF5606DB
:1027900009F059C08AEF90E00E947A1154C092016A
:1027A00057FE04C022273327241935092770332701
:1027B000C20157FC079653E0959587955A95E1F726
:1027C00057FE05C00197F801E21BF30B9F017C0146
:1027D000F694FE2CEE24F794E79440E050E0480194
:1027E000821A930AB70160587F4F5B018F3F7FEFDA
:1027F000970744F40196485A5F4F7501403B5105D5
:1028000089F7BCCFD701A75DBD4F60E070E08F3F77
:10281000EFEF9E0709F4F8C3FB01E40FF51FE65341
:10282000FF4FE4916D01CA18DB08CE0CDF1CF0E00D
:102830001F01022E01C0220C0A94EAF7F6017080F3
:1028400027282082E1C3FFEF4F1A5F0A29E14216D1
:10285000510409F076CF8CEB92E00E947A110E942D
:102860007811E0919905F0919A050190F081E02DA1
:1028700089E995E0099582E390E00E947A110E942F
:102880007F118111F8CF80E18093A0051092810122
:102890001092820185E991E09093940180939301D5
:1028A000109289011092880110928B0110928A0176
:1028B00083E18093340181E080937E0180938301E2
:1028C00018E4412E18EE512E66246394712C88244E
:1028D0008A94982C5401BCE92B2EBBE03B2E0DE7CB
:1028E0001BE02FB7F8948091350190913601A091AB
:1028F0003701B09138012FBF4091A5055091A60531
:102900006091A7057091A8052091A905222341F0A7
:102910002091A105821B8093AA051092A9056CC382
:1029200084179507A607B70738F4481B423008F408
:1029300063C30E949C1160C321E02093A90580938A
:10294000A1059093A205A093A305B093A40520919F
:10295000A005820F911DA11DB11D8093A505909327
:10296000A605A093A705B093A80580919C0590911A
:102970009D05019690939D0580939C050E947F1173
:102980009091820190959823909381018093820188
:1029900020918A0130918B012115310509F419C369
:1029A0008091910190919201009731F0019790935D
:1029B0009201809391010DC380919001882331F0A1
:1029C0000E949B0B809190018150CDC270918C012F
:1029D00090918D0180918E0160918F01A09188016D
:1029E000B0918901A9014F5F5F4FF901F490F11097
:1029F00017C0711179C560938F0180938E019093F8
:102A00008D011092900110929201109291011092FA
:102A100089011092880110928B0110928A01D9C20B
:102A2000F4E5FF1206C02E5F3F4FFA0194919053D8
:102A30000DC0FFE4FF120CC02E5F3F4FFA0144911E
:102A4000E0EDE40FF0E0EA56FD4F8491A90150C596
:102A5000FCE4FF1206C02E5F3F4FFA016491605301
:102A6000F5CFFFEBFF0DF73008F080C250938B01DC
:102A700040938A0160938F0180938E0190938D0122
:102A8000109290011092920110929101EF2DFF0C83
:102A9000FF0BE25BFD4FE4918E0FFA0144914B3244
:102AA00011F48F5F03C04D3239F481502E5F3F4FD8
:102AB00030938B0120938A01E82FF0E0EE0FFF1F87
:102AC000E156FE4FC590D49080914001882309F4CF
:102AD00015C280910801853029F4E5EDFBE0F49101
:102AE000FE839CC08F3F09F009C285E080930801F6
:102AF000E5EDFBE084918F3F09F400C2813009F4D9
:102B000047C0F4F4811189C014BC15BC84B582603F
:102B100084BD85B5816085BDF8018491E82FF0E022
:102B2000EE0FFF1FE659F44F859194919093700139
:102B300080936F01F101849180936E011E8271C0B8
:102B4000833009F447C0843009F067C01092C00098
:102B50001092C1008091C10088608093C100809173
:102B6000C10081608093C100F8018491E82FF0E0FA
:102B7000EE0FFF1FE659F44F8591949190936A01EF
:102B800080936901F101849180936801F4E043C06E
:102B90001092800010928100809181008860809363
:102BA000810080918100816080938100F80184918F
:102BB000E82FF0E0EE0FFF1FE659F44F8591949156
:102BC00090936D0180936C01F101849180936B016E
:102BD000F1E021C01092900010929100809191003C
:102BE0008860809391008091910081608093910032
:102BF000F8018491E82FF0E0EE0FFF1FE659F44F43
:102C00008591949190933B0180933A01F1018491D5
:102C100080933901F3E0FE8304C08E832E8127FD6B
:102C20006DC1F1014491F8018491882399F090E0FD
:102C3000880F991FFC01E957FE4FA591B491FC0143
:102C4000E659F44F259134918FB7F8949C91492B14
:102C50004C938FBFE12CF12C8E818D7F09F0BCC08D
:102C600060E072E18AE790E0A70196010E94581B9C
:102C700029833A834B835C83BA01A90141505109EE
:102C8000610971094F3F51056105710509F008F4AB
:102C900044C060E472E48FE090E0A70196010E94D6
:102CA000581BBA01A9014150510961097109FE81FE
:102CB000F230E1F44F3F51056105710509F008F468
:102CC0001DC160E970ED83E090E0A70196010E94CC
:102CD000581BBA01A90141505109610971094F3FBF
:102CE00051056105710509F000F508C14F3F510517
:102CF00061057105A1F098F0C301B201A701960129
:102D00000E94581BBA01A90141505109610971097A
:102D10002E81222309F4BFC3DEC381E001C082E01B
:102D20009E81992309F453C09AC0C301B201A7013F
:102D300096010E94581BBA01A9014150510961092D
:102D400071094F3F51056105710509F008F4D6C0BE
:102D500064E274EF80E090E0A70196010E94581BA6
:102D6000BA01A90141505109610971094F3F51054B
:102D70006105710509F008F4C1C062E17AE780E0FD
:102D800090E0A70196010E94581BBA01A901415089
:102D90005109610971094F3F51056105710509F03C
:102DA00008F497C389819A81AB81BC812AE0B595EB
:102DB000A795979587952A95D1F7AC01BD0141500C
:102DC0005109610971098E81811149C085E095B56C
:102DD000987F892B85BD50C060E072E18AE790E062
:102DE000A70196010E94581BBA01A901415051093F
:102DF0006109710941155105E1E06E07710570F037
:102E0000C301B201A70196010E94581BBA01A90192
:102E1000415051096109710923E001C021E0FE819F
:102E2000F13039F480918100887F822B809381007A
:102E300032C08E81833039F480919100887F822B5B
:102E4000809391003AC09E81943049F48091C100F2
:102E5000982F987F822F892B8093C10040C0EE81EC
:102E6000E130C9F01CF4EE2339F048C0FE81F330A4
:102E700021F1F430A1F142C047BD809279019092D6
:102E80007A01A0927B01B0927C0180916E008260F9
:102E900080936E0033C050938900409388008092E5
:102EA000750190927601A0927701B092780180919D
:102EB0006F00826080936F0021C05093990040930F
:102EC000980080923C0190923D01A0923E01B09208
:102ED0003F01809171008260809371000FC0409328
:102EE000CF008092710190927201A0927301B09212
:102EF00074018091720080648093720080918F01D0
:102F0000E0918A01F0918B01949190539A3030F4C2
:102F10003196F0938B01E0938A01892FE82FF0E03E
:102F2000EB56FE4FE49180918D01E89FC001112482
:102F30009093920180939101E0918A01F0918B012D
:102F40002491263231F43196F0938B01E0938A017B
:102F500040C08230910508F43CC0019790939201E3
:102F60008093910181E08093900133C022E5F212B9
:102F7000BFC250938B0140938A0160938F0180936D
:102F80008E0190938D0110929001109292011092F7
:102F900091010E949B0B80918F01E0918A01F09139
:102FA0008B01949190539A3030F43196F0938B01C9
:102FB000E0938A01892FE82FF0E0EB56FE4FE49171
:102FC00080918D01E89FF0011124F0939201E0932C
:102FD000910180918301823091F108F0C1C081306C
:102FE00031F480E180937D0182E0809383018091C0
:102FF000820181110E94B81180E090E0892B09F4D0
:1030000070CC0E94000067CC2115310581F0FB01D6
:10301000E40FF51FE653FF4FE491F0E0082C02C0E7
:10302000F595E7950A94E2F7DC90ED29EC936F5F54
:103030007F4F11966835710509F0E9CBDBCB8091A4
:103040007D01807F803131F08032A9F583E080936B
:10305000830131C08091810183FF04C080E28093AD
:103060007D0129C082FF27C080914001811109C0E4
:103070000E94B2118091880190918901892B29F4D5
:1030800002C00E94AD110E949B0B6091400182E042
:1030900090E06D830E94421B6D81681721F082E0F1
:1030A00090E00E944A1B80914001882321F08AEA27
:1030B0009AE00E948A0B0E947B0B20E34AE168E2BF
:1030C00088E693E00E94A50A49E360E580EA9AE079
:1030D0000E94211280917E0149E368E790E00E94FE
:1030E0004C0B8091400128E148E361E0882319F00E
:1030F00088EC92E002C080EB92E00E94A50A2DC00D
:10310000843009F074CF30918001832F807F80322A
:1031100009F4A8C070F1803379F5832F8F7019F40A
:103120003F5F309380018091650184340CF05AC177
:103130008F5F80936501843421F480EF9AE00E94D0
:103140008A0B0E947B0B0E94E9110E94DA114BE16D
:103150006EE286EE9AE00E9421120E94C31147CFD0
:10316000833071F610927F0180E18093800184E0CA
:103170003CCF803129F03BCF803409F446C137CFB2
:10318000832F8F7009F052C080917F01833618F42D
:103190008F5F80937F0180917F01813638F4815069
:1031A0008F7090E1981B892F943008F484E0E4E458
:1031B000F1E021E021939E2F44E451E0941B981705
:1031C000CCF3E82F082E000CFF0BEC5BFE4F1082B7
:1031D0008F5F8E31B1F7FF24F394F0926201F09289
:1031E0006301F09264018BE38093650110926601A4
:1031F000109267013D830E94B81166E10E94991BFD
:10320000892F90E00496880F991F880F991F80934B
:1032100041018CEF80934201F092430187EB9AE0E9
:103220000E948A0B3D813F5F3093800180918A012B
:1032300090918B01892B19F480E2809380010E9488
:103240007B0B0E94E9110E94DA110E94C5114BE12B
:1032500060E381EB9AE00E94211280917F014BE1B3
:1032600068E40AC1832F8F7019F43F5F30938001A7
:1032700080918201E091640183FF04C0EE3724F461
:1032800081E01CC0E2301CF41092660119C0E537E1
:10329000A4F480916601181684F40E2E000CFF0B26
:1032A0003A96F595E795F595E795EC5BFE4F81E04D
:1032B00080838AED9AE00E948A0B8FEF80936601EB
:1032C000F090660180916401F80EF092640151E083
:1032D0005F1534F4809167018F5F8093670102C0AE
:1032E00010926701809143018150809343018111C5
:1032F0004CC0809142018F5F809342018C33BCF1BE
:1033000080914101082E000C990B95958795959514
:103310008795FC01EC5BFE4F91E09083E1E0E80FC4
:103320000E2E000CFF0BEC5BFE4F1082E2E0E80F6C
:103330000E2E000CFF0BEC5BFE4F1082E3E0E80F5B
:103340000E2E000CFF0BEC5BFE4F90830E94B81119
:1033500066E10E94991B892F90E00496880F991FBF
:10336000880F991F809341018CEF80934201E09177
:103370007F01F0E0319764E0F595E7956A95E1F714
:10338000EE52F54FE491E09343010E947B0B0E94C3
:10339000E9110E94DA110E94C5110E94C3116DE764
:1033A0006F1514F480E41BC02F2DFF0C330BF901B3
:1033B0003197F595E795F595E795EC5BFE4F8081A4
:1033C000811115CE2F5F3F4F359527953595279560
:1033D0002C5B3E4FF9018081811109CE80E38093FF
:1033E000800105CE80918A0190918B01892B09F093
:1033F000A8CE80917F0190917E01981710F4809360
:103400007E0181E0809383019CCE832F8F7049F4ED
:1034100083E49BE03D830E948A0B3D813F5F3093B4
:10342000800180918A0190918B01892B89F4809190
:103430007F01833620F480E18093800109C0909160
:103440007E01981710F480937E0181E080938301C0
:103450000E947B0B0E94E9110E94DA11F0907F011B
:10346000F2E6FF1568F04BE164E284E39BE00E9422
:1034700021124BE16CE38F2D90E00E944C0B6DCE3E
:1034800046E160E283E29BE00E94211240E26EE1AD
:1034900081E19BE060CE4F3F510561057105B9F0B8
:1034A000B0F062E17AE780E090E0A70196010E9427
:1034B000581BBA01A90141505109610971094F3FD7
:1034C00051056105710509F0A8F484E080CC83E022
:1034D0007ECC86E025CC4F3F51056105710511F08A
:1034E00008F04BCC84E01CCCAD0191E080E368E0B7
:1034F0009A0178CA89819A81AB81BC812AE0B5950D
:10350000A795979587952A95D1F7AC01BD014150B4
:103510005109610971095ACCEFEBF5E0138212826F
:1035200088EE93E0A0E0B0E084839583A683B78320
:1035300081E191E0918380838FEF9FEF958784876E
:10354000E5E9F5E0138212821186128620E12387D5
:1035500090878783108A118A128A138A148A81E2DB
:1035600091E0918380838BE291E095838483178A35
:10357000168A118E108E81E0828F138E848F158EA5
:103580000895CF92DF92EF92FF920F931F93CF9304
:10359000DF931F92CDB7DEB7182F062FE42E862FAC
:1035A000880F8E5F99830E942E0C83E00E942E0C60
:1035B000F12EC12E9981D92E8C2D8F19801798F458
:1035C000F601E7FE02C0849101C080810E942E0CAA
:1035D000182F80E00E942E0C8123FFEFCF1ADF0A04
:1035E0008111EACF01C081E00F90DF91CF911F914F
:1035F0000F91FF90EF90DF90CF9008950F931F935E
:10360000CF93DF938C0181E090E00E94421B80FF0A
:1036100031C08AE090E00E94421B9FEF980F9E3FCE
:1036200048F522E330E0D80157963C932E93569705
:1036300028E330E059963C932E935897CBE0D0E0A6
:10364000D801ED91FC910190F081E02D682FC80127
:103650000995CE010E94421B2196C131D10581F707
:103660000E94930A88EE93E0DF91CF911F910F9112
:103670000C947A11DF91CF911F910F9108950497C7
:103680000C94FE1AF999FECF92BD81BDF89A992744
:1036900080B50895262FF999FECF1FBA92BD81BD3E
:1036A00020BD0FB6F894FA9AF99A0FBE01960895C4
:1036B000052E97FB1EF400940E946F1B57FD07D048
:1036C0000E94771B07FC03D04EF40C946F1B50959F
:1036D0004095309521953F4F4F4F5F4F08959095FE
:1036E0008095709561957F4F8F4F9F4F0895A1E210
:1036F0001A2EAA1BBB1BFD010DC0AA1FBB1FEE1F6C
:10370000FF1FA217B307E407F50720F0A21BB30BB6
:10371000E40BF50B661F771F881F991F1A9469F732
:1037200060957095809590959B01AC01BD01CF018E
:103730000895991B79E004C0991F961708F0961B0D
:10374000881F7A95C9F780950895AA1BBB1B51E184
:1037500007C0AA1FBB1FA617B70710F0A61BB70B01
:10376000881F991F5A95A9F780959095BC01CD01A6
:103770000895EE0FFF1F0590F491E02D099481E06C
:0C37800090E0F8940C94C41BF894FFCF68
:10378C0000E1000000000000FFFFFFFFFF00000051
:10379C00007F09FC09E209A009BE09950900000097
:1037AC0000B40F640FFE1AFCFF00003F1B00C18029
:0437BC008100000088
:00000001FF
