:100000000C94E1050C9409060C9409060C9409065D
:100010000C9409060C9409060C9409060C94090624
:100020000C9409060C9409060C94CD140C943F15FD
:100030000C9409060C9409060C9409060C94090604
:100040000C9409060C9409060C9409060C940906F4
:100050000C9409060C9409060C9409060C944607A6
:100060000C9409060C9409060C9409060C940906D4
:100070000C9409060C9409060C9409060C940906C4
:100080000C9409060C9409060C9409060C940906B4
:100090000C9409060C9409060C9409060C940906A4
:1000A0000C9409060C9409060C940906D5F08D14DD
:1000B000A1C881CFD9F1AF20005810F0F89C8E87ED
:1000C00083878E9CF8F00000FEFF03030303030701
:1000D0000EFCF80000FEFF0303030303070EFCF809
:1000E0000000FFFF00000000000000FFFF0000FE16
:1000F000FF8383838383C7EE7C380000F8FC0E0700
:10010000030303070EFCF800003F7FE0C08080C0BF
:10011000E07F3FFFFF01010101010101FFFF00003E
:10012000FFFF0C0C0C0C1C3E77E3C100007FFFC0EE
:10013000C0C0C0C0E0703F1F00001F3F70E0C0C0E3
:10014000C0E0703F1F00007FFFC1C1C1C1C1E377A4
:100150003E1C00001F3F70E0C0C0C0E0703F1F00A9
:100160000000000001FFFF01000000010204081070
:1001700020408000B00000A170E150964F26900F03
:100180001D070C009669004AE44A0048444000807C
:100190006810000F99FB8F99BDBBF977D4D4DF1F8E
:1001A0001A1AFE7F5D5DFF805A0000A0A4AA00100D
:1001B000BA3400FF5953F3FF9B9B9EFFB9B996FFDA
:1001C0009595D19FF4940FFC295F91FF1838F8FFA3
:1001D0009294FFFF95D5F77FD5DDD7F18F81F1F7A9
:1001E00088C8F779C6467909FD9B090196F800820F
:1001F000818280507162007756560076763700A271
:10020000B7730107720600782750007334740077C3
:100210005176007F55F70047711000324772007326
:1002200064730015A2750061679400009F6060F41C
:10023000F2F6F210100000000000FC00FC70FCF070
:10024000FCF0FCE0FCD0FEB8FF7CFF3CFF000000AF
:100250000000000000000E000F0C0F0E0F0F0F0E1D
:100260000F050F030F070F0F0F0F0F0E0F000000EA
:100270000000000000001F00BF0FFF1FFFBFFF7C3A
:10028000FFF8FFF0FFE8FFDCFFBFFF1FFF000000EB
:100290000000000000080F0C0F0E0F0F0F0F0F07CC
:1002A0000F020F010F030F070F0F0F0F0F000000BA
:1002B0000000000000018F03DF07FF8FFFDFFFBE9C
:1002C000FF7CFFF8FFF4FFEEFFDEFF8DFF00000074
:1002D0000000000000000F000F0F0F0F0F0F0F03A3
:1002E0000F010F000F010F030F0F0F0F0F00000082
:1002F0000000000000000F001F03FF07FFEFFFF7E3
:10030000FFFAFF7CFFBEFFDFFFEFFFC7FF0000002B
:1003100000000000000000000000030003000300D4
:1003200003000300030007010F030F030F00000089
:1003300000000000001CFF1CFF3CFF7CFFF8FFF0EA
:10034000FEE0FCD0FEB8FF7CFF3EFF1FFF00000078
:1003500000000000000C0F0C0F0E0F0F0F0E0F050A
:100360000F030F070F0F0F0F0F060F080F000000EE
:1003700000000000000FFF01FF01FF81FFC0FFE050
:10038000FFF0FFF8FF7CFF3EFF1FFF0FFF000000A4
:1003900000000000000E0F0C0F0B0F070F070F03DC
:1003A0000F010F000F000F080F040F0A0F000000CD
:1003B000000000000003FF07FF0FFF1FFF3EFF7C50
:1003C000FFF8FFF0FFE0FFC1FF83FF07FF00000021
:1003D00000000000000F0F080F080F080F000F00AB
:1003E0000F000F010F030F0B0F0D0F0E0F0000007A
:1003F000000000000083FF83FFC7FFEFFFF7FFFA55
:10040000FF7CFFBEFFDFFFEFFFC7FF83FF000000A1
:100410000000000000030F030F030F030F010F0084
:100420000700030007010F030F070F0F0F00000065
:1004300000000000001FFF3EFF7CFFF8FFF0FEE021
:10044000FCD0FEB8FF7CFF3CFF1CFF1CFF0000003F
:1004500000000000000C0F0E0F0F0F0E0F050F0312
:100460000F070F0F0F0F0F0E0F0C0F0C0F000000D8
:10047000000000000007FF1BFF3DFF7CFFF8FFF0BE
:10048000FFE0FFC0FF81FF01FF01FF0FFF00000041
:1004900000000000000E0F0C0F080F000F000F01EE
:1004A0000F030F070F0F0F0F0F0E0F0C0F000000A1
:1004B000000000000007FF83FFC1FFE0FFF0FFF82E
:1004C000FF7CFF3EFF1EFF0DFF03FF07FF00000044
:1004D00000000000000F0F0F0F070F030F010F00A8
:1004E0000F000F000F080F080F080F0F0F0000007C
:1004F000000000000081FFC6FFEFFFF7FFFAFF7C5E
:10050000FFBEFFDFFFEFFFC7FF83FF83FF00000099
:1005100000000000000F0F070F030F010F0007007E
:10052000030007010F030F030F030F030F00000069
:1005300000000000003CFF7CFFF8FFF0FEE0FCD074
:10054000FCB0FC70FC00FC00FC000000000000009F
:1005500000000000000E0F0F0F0E0F050F030F0716
:100560000F0F0F0F0F0E0F0C0F000F000E000000EB
:1005700000000000001FFFBFFFDCFFE8FFF0FFF8F6
:10058000FF7CFFBFFF1FFF0FFF00BF001F00000029
:1005900000000000000B0F070F070F030F010F02F1
:1005A0000F070F0F0F0F0F0E0F0C0F080F0000009B
:1005B00000000000008FFFDFFFEEFFF4FFF8FF7C7C
:1005C000FFBEFFDFFF8FFF07FF03DF018F0000008B
:1005D00000000000000F0F0F0F030F010F000F01AD
:1005E0000F030F0F0F0F0F0F0F000F000F00000072
:1005F0000000000000C7FFEFFFF7FFFAFF7CFFBE1F
:10060000FFDFFFEFFF07FF03FF000F000700000001
:100610000000000000030F030F010F00070003009C
:1006200003000300030003000300000000000000BB
:100630000000000000583100000000000000C00071
:10064000E080F0C0F8E0FC70FE38FE18FE18FE0CEA
:10065000FF0CFF0EFF06FF06FF06FF06FF06FF0664
:10066000FF06FF46FF46FF86FF8EFF0CFF3CFF386C
:10067000FEF0FEE0FC80F800F080F0C0F0C0F86012
:10068000F860F860F860F860F8C0F8C0F080F0003A
:10069000E000C000000000000000000000000000BA
:1006A00000000000000000000000000000008000CA
:1006B000C000C000E080E080F0C0F0C0F0C0F86092
:1006C000F860F860FC70FC30FC30FC30FC30FC3032
:1006D000FC60FC60F8E0F8C0F8C0F080F000E000DA
:1006E000C0008000000000000000FC00FFF8FFFEDA
:1006F000FF0FFF03FFE0FFF8FFFCFF06FF02FF0014
:10070000FF00FF00FF00FF00FF00FFF0FFF8FFF811
:10071000FFF0FFE0FF00FF00FF00FF03FF1CFF00F2
:10072000FF00FF01FFFFFFFEFFFFFFC1FF80FF068D
:10073000FF06FF00FF40FF60FFB0FFC1FFFFFF7E2D
:10074000FF60FF60FF60F8C0F8E0F860FC30FC304C
:10075000FC30FC30FC30FC30FC30FE38FF7CFFDC31
:10076000FF8FFF07FF13FF19FF05FF04FF02FF8242
:10077000FFC2FFC1FF61FF41FF40FFC0FF80FF00DC
:10078000FF00FF84FFF8FFE0FF01FF0FFFFFFFFC0A
:10079000FF00FF00FE0000000000FF00FFFFFFFF62
:1007A000FF00FF00FF3FFFFFFFFFFF80FF00FF0094
:1007B000FF00FF00FF00FF00FF00FF00FF01FF013F
:1007C000FF01FF00FF00FF00FF00FF00FF00FF0030
:1007D000FF0CFF9EFF3FFF3BFF70FF71FFFFFF9F7E
:1007E000FF27FF73FF33FF01FF01FF01FF01FF033D
:1007F000FF86FF1CFFF0FF80FF00FF00FF18FFF0E7
:10080000FF00FF00FF00FF01FF03FF1FFF3EFF7817
:10081000FF01FF07FFFCFF00FF00FF00FF07FF0FC6
:10082000FF0CFF18FF18FF38FF38FF77FFFFFFF8B6
:10083000FFF0FF31FF31FF38FF18FF1E7F0F7F03EE
:100840003F001F000F0000000000010007001F0311
:100850007F0FFF3CFFF0FFC0FF01FF07FF0EFF18F7
:10086000FF20FF00FF00FF00FF00FF00FF08FF3830
:10087000FFF0FFF2FFE2FF84FF18FF60FF80FF80C0
:10088000FF00FF01FF03FF06FF1EFF3CFF3CFF3898
:10089000FF01FF01FF86FFFCFFE0FF80FFB8FF9C28
:1008A000FFC7FFE0FFBCFF87FF80FFC0FFF8FFCF5F
:1008B000FFC0FF80FF9CFF98FF90FF90FFC8FF6084
:1008C000FF30FF98FF0FFF0CFF04FF02FF02FF0243
:1008D000FF82FF00FF00FF00FF00FF80FFC0FFE17D
:1008E000FF3FFF0FFF007F001F000000000000001F
:1008F00000000000000000000000000000000000F8
:100900000000010003000F011F073F0E3F0C7F187E
:10091000FF30FF30FF60FF60FF60FFE0FFC0FFC0FF
:10092000FFC0FFC1FFC3FF61FF60FF38FF3FFF0F44
:10093000FFC3FF43FFC6FF46FF4CFF0CFF4CFFCC3D
:10094000FF46FF46FFC1FF01FFC1FFC1FF01FF419D
:10095000FF00FFC0FF41FF41FF81FF01FF80FF401B
:10096000FFC0FF01FFC1FF01FF01FF1FFF7FFF70FD
:10097000FFE7FFCFFFCFFFC6FFE6FF62FF71FF3942
:10098000FF1CFF0C7F063F061F031F010F0107001E
:10099000070003000100000000000000000000004C
:1009A0000000000000000000000000000000000047
:1009B0000000000000000000000000000000000037
:1009C000000000000100010001000300030003001B
:1009D0000300030003000300030003000100010003
:1009E000030007000F03FF00FFFBFF5BFF78FF031F
:1009F000FF79FFC3FFF9FF00FFCBFFABFF98FF03B9
:100A0000FFC8FFABFF9AFF02FFF9FFC0FF03FFF92A
:100A1000FFABFF88FF03FF02FF030F000F0007007B
:100A200003000300030003000300030003000100B0
:100A300001000000000000000000000000000000B5
:100A400000000000000000000000000000000000A6
:100A50000000000000000000000000000000000096
:100A60000000000000000000000000000000000086
:100A70000000000000000000000000000000000076
:100A80000000000000000000000000000000000066
:100A90000000000000000100010001000100010051
:100AA000010001000100010001000100010001003E
:100AB000010001000100010001000100010001002E
:100AC0000100010001000100010000000000000021
:100AD0000000000000000000000000000000000016
:100AE0000000000000000000000000000000000006
:100AF00000000000000000000000000000000000F6
:100B0000000000000000001010E0E0F8F8FCFC3EDF
:100B1000FE0EFE07FF0FFF1FFF1FFF0FFF07FF0E59
:100B2000FE3EFEFCFCF8F8E0E007071F1F373F64BD
:100B30007F487FD8FF08FF00FF00FF08FFF8FF781D
:100B40007F7C7F3F3F1F1F0707080B000202020147
:100B50000009040000010202000005240010010544
:100B60002401010104240206052406000107058171
:100B70000310004009040100020A000000070502FA
:100B8000024000000705830240000004030904122C
:100B9000010002EF020140412336800001010203FF
:100BA0000141726475696E6F204C4C430041726460
:100BB00075696E6F204C656F6E6172646F004A1BC1
:100BC0000C1B11241FBECFEFDAE0DEBFCDBF12E059
:100BD000A0E0B1E0E6E5FFE302C005900D92AC3A7B
:100BE000B107D9F728E0ACEAB2E001C01D92A837FE
:100BF000B207E1F715E0C0EED5E004C02197FE0191
:100C00000E94661ECF3DD107C9F70E94DF170C94E2
:100C10009E1F0C940000CF92DF92EF92FF920F93F1
:100C20001F93CF93DF936C017A018B01C0E0D0E07A
:100C3000CE15DF0589F0D8016D918D01D601ED91BA
:100C4000FC910190F081E02DC6010995892B11F4EA
:100C50007E0102C02196ECCFC701DF91CF911F9199
:100C60000F91FF90EF90DF90CF9008958F929F9219
:100C7000AF92BF92CF92DF92EF92FF920F931F93AA
:100C8000CF93DF938C016B0198E0E92EF12CE42FD8
:100C9000E695E695E695F0E0CA0187709927892BDD
:100CA000C1F5D8011696CD91DC911797C601992709
:100CB000BE010E943E1ED80150964D915C91519705
:100CC000992714966D917C911597452B91F4EC9F83
:100CD000A001ED9F500DFC9F500D1124840F951F16
:100CE000FB01E80FF91FC22FC09520812C23208320
:100CF00032C0EC9FA001ED9F500DFC9F500D1124C0
:100D0000840F951FFB01E80FF91FC081C22BC08320
:100D100022C0C22FD0E04770A42EB12C4F0183E037
:100D2000880C991C8A95E1F79E0101C0220F4A9513
:100D3000EAF7A401B601C8010E943606C7018A1964
:100D40009B0902C0D595C7958A95E2F72C2FA4017F
:100D5000485F5F4F9CCFDF91CF911F910F91FF9024
:100D6000EF90DF90CF90BF90AF909F908F900895BD
:100D70000895089580E090E00895FC01858118169B
:100D80001CF49185981734F48285882331F086818C
:100D9000882319F0878190850895CF0108950895DB
:100DA0000E94991F6115710579F0FB0101900020E7
:100DB000E9F73197AF01461B570BDC01ED91FC9130
:100DC0000280F381E02D099480E090E008953FB720
:100DD000F8948091B2029091B302A091B402B091C4
:100DE000B50226B5A89B05C02F3F19F00196A11D9D
:100DF000B11D3FBFBA2FA92F982F8827820F911DB1
:100E0000A11DB11DBC01CD0142E0660F771F881FF7
:100E1000991F4A95D1F708958F929F92AF92BF92F2
:100E2000CF92DF92EF92FF926B017C010E94E70666
:100E30004B015C01C114D104E104F104F1F00E9402
:100E4000E706DC01CB0188199909AA09BB09883E8C
:100E50009340A105B10570F321E0C21AD108E10861
:100E6000F10888EE880E83E0981EA11CB11CC11405
:100E7000D104E104F10419F7DDCFFF90EF90DF908A
:100E8000CF90BF90AF909F908F9008951F920F9238
:100E90000FB60F9211242F933F938F939F93AF938D
:100EA000BF938091AC029091AD02A091AE02B0913F
:100EB000AF023091B10223E0230F2D3720F40196C9
:100EC000A11DB11D05C026E8230F0296A11DB11D6D
:100ED0002093B1028093AC029093AD02A093AE0236
:100EE000B093AF028091B2029091B302A091B4028C
:100EF000B091B5020196A11DB11D8093B2029093ED
:100F0000B302A093B402B093B502BF91AF919F9189
:100F10008F913F912F910F900FBE0F901F901895BA
:100F20009F92AF92BF92CF92DF92EF92FF920F9378
:100F30001F93CF93DF936C015A01E9014D3F8FEF6F
:100F400058070CF43FC0F60186819781481759076E
:100F5000CCF52D3FFFEF3F07ACF1F6018085918581
:100F6000281739077CF5603208F46FE700EE060FAA
:100F70008FE9860F8A3108F421960C3011F00B317D
:100F800009F421960695F4E00F9F80011124E12CCD
:100F9000F12C6170962EF701E00FF11FED58FE4F16
:100FA0002491911022952F70B7016A0D7B1DAE011F
:100FB000C6010E9436068FEFE81AF80AE4E0EE1642
:100FC000F10449F7DF91CF911F910F91FF90EF90BE
:100FD000DF90CF90BF90AF909F900895CF93DF9315
:100FE000FC016A3061F48485958593878287238923
:100FF00086859785820F911D9787868717C04285C2
:101000005385693029F4475F5F4F538742870EC08D
:10101000EC01268537850E9490078A8990E0049626
:101020002A853B85820F931F9B878A8781E090E00A
:10103000DF91CF9108954F925F926F927F928F923E
:101040009F92AF92BF92CF92DF92EF92FF920F9357
:101050001F93CF93DF9300D000D0CDB7DEB7490107
:101060002C2DA02EB12CDC01AA0DBB1D1A161B06BF
:101070000CF0B3C1803891050CF0AFC1FB01EE0D4F
:10108000F11D1E161F060CF0A8C1603471050CF08E
:10109000A4C14115510509F4A0C1FB0177FF04C0AB
:1010A000EE27FF27E61BF70B3E2F3770732EFB0151
:1010B00077FD379633E0F595E7953A95E1F73E2FC2
:1010C00077FF07C0772029F03FEF3E0F68E06719F0
:1010D000762E97FF05C0EE27FF27E81BF90B02C00D
:1010E000E0E0F0E0A038B10524F060E8F62EF81A50
:1010F00001C0F02EFE1A632F032E000C770B3F3F2A
:101100001CF4A62FA09501C0A0E011E0BE2DB77081
:1011100009F410E0E694E694E694E10E6E0D711D7C
:10112000693071051CF068E0E62EE31AEA1A3A0FFE
:1011300060E83603800D911D11248E0F9F1FA09F24
:10114000E00DF11D11244E0F5F1F61E070E0072CD0
:1011500002C0660F771F0A94E2F7233009F4FCC03F
:1011600098F4213009F4AEC0223009F036C12FEFD7
:10117000269F8001279F100D1124009510951C8338
:101180000B835C80E30E27C02A3F29F02B3F09F038
:1011900024C1E30E83C0E30E4EC0FA01EC0DFD1D29
:1011A000E491E69F4001E79F900C11249A82898286
:1011B00037FD04C02C912023822A8C92711014C018
:1011C000EFEFCE1ADE0A1196CF1438F33F5F4A0DC7
:1011D0005B1D80589F4F3E1509F4FFC0DC01A250F3
:1011E000BC4FC12CD12CF0CF373054F7FD01E05863
:1011F000FF4F208125219A8029292083E1CFFA0100
:10120000E00FF11FE491E69F6001E79FD00C1124ED
:10121000DA82C98237FD03C02C91C22ACC927110A8
:1012200013C00F5F1F4F11960F1548F33F5F4A0D14
:101230005B1D80589F4F3E1509F4CFC0DC01A250C2
:10124000BC4F00E010E0F0CF37305CF7FD01E05814
:10125000FF4FD0802A812D292083E3CFFA01EC0DA6
:10126000FD1DE491E69FD001E79FB00D1124BA83E4
:10127000A98337FD05C0A095F8012081A223A08392
:10128000711015C0FFEFCF1ADF0A0F5F1F4FCF1489
:1012900028F33F5F4A0D5B1D80589F4F3E1509F4B0
:1012A0009CC08C0102501C4FC12CD12CF0CF373088
:1012B0004CF7F801E058FF4F2A812095A0812A239E
:1012C0002083E0CFD401AE0FBF1FE30E3E1509F41B
:1012D00084C0FC01E250FC4F4F01C12CD12CCF1433
:1012E00098F5FD01EC0DFD1DE491E69F8001E79F5F
:1012F000100D1124009510951C830B83FA01EC0D41
:10130000FD1DE491E69F2001E79F500C11245A82B5
:10131000498237FD05C0F40120810223402A408222
:10132000772059F037304CF4F401E058FF4F10812A
:101330002C8121231A81212B2083FFEFCF1ADF0A72
:101340002FEF821A920ACBCF3F5F4A0D5B1DAA0D89
:10135000BB1D80589F4FBACFCF2CD12CE40FF51F67
:10136000DC01A250BC4FAC0142585B4F00E810E0DA
:101370000C191D09AC18BD08AA0CBB1C6F2C2E2D16
:10138000CF93DF93EA018590C590772059F0869E30
:101390004001C69E600137302CF49881D0949D2185
:1013A0009929999333233AF09C91C0949C219829D0
:1013B0009D930C94DC091196FA9429F7EA9451F064
:1013C000F62C33951124EA0DF11DA00FB11DC00FAD
:1013D000D11DD9CFDF91CF9111240F900F900F9095
:1013E0000F90DF91CF911F910F91FF90EF90DF90C1
:1013F000CF90BF90AF909F908F907F906F905F90B5
:101400004F900895CF92DF92EF920F931F93CF9357
:10141000DF934115510591F1FA0104913196E49061
:101420004E5F5F4F222321F130E0220F331FC02F88
:10143000D0E0AE2DA695A695A695EA2FF0E0A1E006
:10144000B0E01E2D177011F4A0E0B0E0AE0FBF1F8A
:10145000CA9F6001CB9FD00CDA9FD00C11242C9D29
:10146000F0012D9DF00D3C9DF00D11244E0F5F1FDE
:1014700023E0C22E20E030E00E941B08DF91CF91D4
:101480001F910F91EF90DF90CF9008952D9A0895BE
:10149000BC0180E090E00C940C078FB12CB193B1AB
:1014A00030E02095309520743327A90123E055952D
:1014B00047952A95E1F7292F30E020953095207146
:1014C00033273595279535952795242B8095807F53
:1014D000822B089583B7817F83BF83B7816083BFE9
:1014E000889583B78E7F83BF08958EBD00000DB4AD
:1014F00007FEFDCF0895FC019681962321F4858196
:10150000682381E009F480E0089560387105D0F423
:1015100040345105B8F4EBE6F1E080E1849FD0015E
:10152000A0781124A60F4770E40FF11D8491A250FA
:10153000BC4F222319F06C91862B03C080956C91CF
:1015400086238C930895AF92BF92CF92DF92EF9251
:10155000FF920F93CF93DF936C015B017A01E20E50
:10156000F11CEA0157FF0DC0C0E0D0E00AC0C4176B
:10157000D5077CF4202FAE01B501C6010E94850A73
:101580002196A70181E4E816F1048CF340E450E0D1
:10159000EECFDF91CF910F91FF90EF90DF90CF9042
:1015A000BF90AF9008958F929F92AF92BF92CF92CB
:1015B000DF92EF920F931F93CF93DF935C014A0169
:1015C000102FEB016B01C20ED11CCC15DD054CF4C4
:1015D0000E2D212FA401BE01C5010E94A30A219650
:1015E000F4CFDF91CF911F910F91EF90DF90CF90CB
:1015F000BF90AF909F908F90089580E0EEEFF3E062
:1016000081118FEF002481938193819381930394BF
:10161000D1F70895FC01118612860895FC014089D6
:1016200050E0218530E081E0421753070CF480E060
:101630000895FC01418550E0208930E02F5F3F4F45
:10164000220F331F81E0421753070CF480E0089506
:10165000CF93DF93EC01E881F9810684F785E02DD3
:101660000995882319F08E819F8101C0CE01DF91F9
:10167000CF910895CF93DF93EC01E881F981008841
:10168000F189E02D0995882319F08C819D8102C094
:101690008E819F81009739F0DC01ED91FC910480EF
:1016A000F581E02D0995E881F9810288F389E02D23
:1016B000CE01DF91CF910994CF93DF93EC01E881C4
:1016C000F9810088F189E02D0995882319F08C8132
:1016D0009D8102C08E819F81009739F0DC01ED91E0
:1016E000FC910280F381E02D09956B812A856623A8
:1016F00071F0822F90E070E06F5F7F4F0E943E1E7E
:10170000892B29F02F5F2A87DF91CF910895898552
:101710008F5F8987F7CFFC0111861286208586812D
:101720009781211102C0009739F0DC01ED91FC9105
:101730000190F081E02D09940895FC0182810895C3
:10174000FC01DC011B9680E09D91981306C08F5F21
:101750008031D1F7818592850895CF0108950F9347
:101760001F93CF93DF93EC018A8581110CC00B810D
:101770001C8168E0C8010E947B0A811104C064E0FA
:10178000C8010E947B0A8A8789858F5F8987DF91DC
:10179000CF911F910F9108950C94011F0C94011F7C
:1017A0000C94011FBF92CF92DF92EF92FF920F93A2
:1017B0001F93CF93DF93EC01288930E080E890E01D
:1017C000B9010E943E1ED62E898590E0B9016F5F57
:1017D0007F4F0E943E1E182FB82EE881F9810088A5
:1017E000F189E02DCE010995811103C0C888C11A85
:1017F00001C0C12EF12CFD1438F51889F19E102D71
:1018000011248D859E85E881F9810088F189E02D7C
:10181000019731F4CE010995811109C01B0D07C054
:10182000CE010995882319F068896B19160F612F6D
:1018300070E0EF8400E42C2D40E050E08B859C8527
:101840000E94D30AF394D7CFDF91CF911F910F91CC
:10185000FF90EF90DF90CF90BF900895CF93DF93EC
:10186000EC018B819C810E94FD0A8D859E850E94E2
:10187000151020E045E356E064E070E084E190E07C
:101880000E94020ACE010F96DF91CF910C94F00FC7
:10189000CF93DF93EC010E94AF0B8D859E850E9454
:1018A00027118E898F5F8E8BDF91CF9108950895D8
:1018B000FC0112821382158214821782168210860E
:1018C0001186128685E591E0918380837487638712
:1018D00081E090E096878587878780E1808B0895F7
:1018E0002F923F924F925F926F927F928F929F9230
:1018F000AF92BF92CF92DF92EF92FF920F931F931E
:10190000CF93DF937C01C62FC42E28013901C90172
:10191000B80120E13EE040E050E00E940D1E1901B8
:10192000D0E0D12C411451046104710419F0243623
:101930003105F4F0F701D587C487D387C287D786EE
:10194000C6866BE072E0C701DF91CF911F910F91C6
:10195000FF90EF90DF90CF90BF90AF909F908F90CF
:101960007F906F905F904F903F902F900C94D20695
:101970008CE3882E912CA12CB12CC301B201A501BE
:1019800094010E940D1ECA01B901A50194010E9493
:101990000D1E8B01C10164E670E00E943E1E2AE02C
:1019A000A22EB12CB5010E943E1E982E605D9601BC
:1019B000AE01C7010E949007AE014B5F5F4F60E32D
:1019C000690D9601C7010E949007AE01465F5F4F07
:1019D00096016AE3C7010E949007FE013F96C80185
:1019E000B5010E943E1E182F605D9601AF01C70130
:1019F0000E949007AE014C5E5F4F60E3610F96015D
:101A0000C701DF91CF911F910F91FF90EF90DF9071
:101A1000CF90BF90AF909F908F907F906F905F908E
:101A20004F903F902F900C9490076F927F928F92DF
:101A30009F92AF92BF92CF92DF92EF92FF920F935D
:101A40001F93CF93DF931F92CDB7DEB73C01DC012C
:101A500013968D919C9114970E94FD0AF301878142
:101A600090850E941510E12C00E420E440E050E055
:101A700060E270E0D30113968D919C9114970E94BF
:101A8000D30A08E328E344E050E064E270E0F301A5
:101A9000838194810E947E1404E324E346E050E0B5
:101AA00066E270E0D30113968D919C9114970E9489
:101AB0007E14F301958D1CE0919F802D112498E2F6
:101AC000980F868D819F802D112418E0180F238D8B
:101AD000348D2115310591F12130310509F05EC0B9
:101AE000C92ED12C03E02CE040E050E0B601838108
:101AF00094810E947E142CE04DE350E0B601D301A6
:101B000013968D919C9114970E947E14C12ED12C16
:101B10000CE023E0A60160E270E0F3018381948190
:101B20000E947E1423E0A6016DE570E0D3011396B8
:101B30008D919C9114970E947E1430C0C92ED12C97
:101B4000EE24E39403E02CE040E050E0B601F30122
:101B5000838194810E94D30A2CE04DE350E0B601CA
:101B6000D30113968D919C9114970E94D30AC12E94
:101B7000D12C0CE023E0A60160E270E0F301838148
:101B800094810E94D30A23E0A6016DE570E0D301A1
:101B900013968D919C9114970E94D30A00E038E22D
:101BA0006CE0E62EF02E18E0F301EF0DF11D238519
:101BB000F301838D948D029771F4822F869586951B
:101BC0008E9D802D1124885D622F63706E9D602D27
:101BD0001124685F02C0612F832F70E043E352E05D
:101BE00090E039830E94020AF394145F398118331C
:101BF000D9F60C5F345F0031A9F6D3011596ED914B
:101C0000FC911697EE24E394F12CF18AE08A92E697
:101C1000A92EB12CB586A486B386A2860CE210E06C
:101C20001787068761E172E0CF010E94D206D301D7
:101C30001596ED91FC91169726E6822E912C9586AD
:101C40008486938682861787068767E672E0CF01CF
:101C50000E94D206D3011596ED91FC91169739E6B4
:101C6000C32ED12CD586C486D386C2861787068715
:101C700063E172E0CF010E94D206D3011596ED9187
:101C8000FC911697B586A486B386A28644E3A42E5B
:101C9000B12CB786A68668E172E0CF010E94D20619
:101CA000D3011596ED91FC911697958684869386BF
:101CB0008286B786A68667E672E0CF010E94D206CA
:101CC000D3011596ED91FC911697D586C486D386DF
:101CD000C286B786A6866AE172E0CF010E94D2066C
:101CE000D3011596ED91FC911697F18AE08A58E0A0
:101CF000C52ED12CD586C486D386C2861787068783
:101D00006FE172E0CF010E94D206D3011596ED91EA
:101D1000FC911697D586C486D386C286B786A686DA
:101D200064E272E0CF010E94D206D3011596ED91D4
:101D3000FC911697F18AE08A85E690E09587848782
:101D400093878287D786C68669E272E0CF010E94B8
:101D5000D206F301078D10A121A132A140E163E673
:101D6000858196810E94700CD3011596ED91FC91AE
:101D70001697F18AE08AD586C486D386C286D7862E
:101D8000C6866EE272E0CF010E94D206F30103A183
:101D900014A125A136A140E166E0858196810E94CB
:101DA000700C0F90DF91CF911F910F91FF90EF90EA
:101DB000DF90CF90BF90AF909F908F907F906F906B
:101DC000089508950895FC012430310550F4D90197
:101DD000A45EBE4F8C91D901A85EBE4F5C9194E089
:101DE00003C090E050E080E0262F2370220F220FE6
:101DF000342F3370230FDF01A20FB11D7C9191505E
:101E000080F0680F450F262F2370220F220F342FEA
:101E10003370230FDF01A20FB11D2C917C93722F21
:101E2000EECF08952F923F924F925F926F927F92E2
:101E30008F929F92AF92BF92CF92DF92EF92FF92DA
:101E40001F93CF93DF9300D000D0CDB7DEB7FC0156
:101E50001C012BE0220E311CD10180E08D938F5F9D
:101E60008031E1F7158E168E178E10A211A212A2E4
:101E7000148E138E8091D0029091D102A091D20243
:101E8000B091D30283A394A3A5A3B6A310E183E0EA
:101E9000482E512C612C712C92E0C92ED12CE12CB2
:101EA000F12C0E94B71DA30192010E94DB1D9B0132
:101EB000AC012F5F3F4F4F4F5F4F29833A834B83D6
:101EC0005C830E94B71DA30192010E94DB1D4B01A0
:101ED0005C013FEF831A930AA30AB30A0E94B71D5D
:101EE000A70196010E94DB1D672B682B692B19F453
:101EF00023E030E002C021E030E0482D6981C101DB
:101F00000E94E30E115069F6F10180E0919198135F
:101F100004C08F5F8031D1F7C4CF0F900F900F9026
:101F20000F90DF91CF911F91FF90EF90DF90CF90B6
:101F3000BF90AF909F908F907F906F905F904F90E9
:101F40003F902F9008950C94011F0C94011F0C9446
:101F5000011F0C94011F0F931F93CF93DF938C01EC
:101F6000DC0113968D919C9114970E94FD0A20E04C
:101F700047E05BE068E170E08CE090E00E94020ADC
:101F8000D8011B96ED91FC911C9781E090E0918B1C
:101F9000808BC0E2D0E0D587C487D387C2878AE12F
:101FA00090E09787868763E372E0CF010E94D206B4
:101FB000D8011B96ED91FC911C97D587C487D387D8
:101FC000C28782E290E09787868761E472E0CF0162
:101FD000DF91CF911F910F910C94D206089508952F
:101FE000FC0187818F738033E8F4A081B181868101
:101FF00090E051969C938E935097238130E082819C
:1020000090E01D969C938E931C971B969C938E93A9
:102010001A971F963C932E931E9764817581CD016C
:102020000C94D206089508950895AF92BF92CF926E
:10203000DF92EF92FF920F931F93CF93DF937C0178
:10204000EC0124966C0184E6C80ED11CFE01329787
:10205000108100E05E01E1E0AE1AB108802F90E04F
:102060002881022E000C330B37FF03C031952195D8
:10207000310982179307BCF4F5014081042E000C4E
:10208000550B21E0612F012E000C770BF7018081A9
:1020900091810E94850A8881181614F4115001C09C
:1020A0001F5F0F5FDBCF2396CC15DD0579F6DF913F
:1020B000CF911F910F91FF90EF90DF90CF90BF9045
:1020C000AF900895EF920F931F93CF93DF93EC019E
:1020D0008B819C810E94FD0A8D859E850E94151032
:1020E000EE24E39406E020E54EE050E06BE170E082
:1020F0008B819C810E94D30AEB85FC858CE190E06A
:1021000095878487938782878FE090E0978786877B
:10211000118A108A69E672E0CF010E94D20622E39A
:102120004DE150E06BE270E08B819C810E94D30A0C
:10213000EB85FC858CE290E0958784879387828786
:102140008EE190E0978786874091B6025091B70262
:102150006091B8027091B9028091D0029091D10241
:10216000A091D202B091D302481759076A077B07A2
:1021700019F06EE572E002C063E572E0CF010E94E3
:10218000D206EE24E39406E02AE145E250E065E35E
:1021900070E08B819C810E94D30A0091B60210915D
:1021A000B7022091B8023091B90246E266E38B850E
:1021B0009C850E94700CCE010F96DF91CF911F91EC
:1021C0000F91EF900C94F00FAF92BF92DF92EF92CD
:1021D000FF920F931F93CF93DF931F92CDB7DEB77C
:1021E0007C01FC01838194810E94FD0AF7018585B1
:1021F00096850E94151008E210E030E0D32E88E0AA
:10220000A82EB12C2D2D43E352E0B501C80139832E
:102210000E94020AFCE0AF0EB11CD394398188E31E
:10222000A816B10479F73C5F045F1F4F083511050C
:1022300029F7C7010F960F90DF91CF911F910F9152
:10224000FF90EF90DF90BF90AF900C94F00F4F9203
:102250005F926F927F92AF92BF92CF92DF92EF9296
:10226000FF920F931F93CF93DF93EC0122967C0193
:1022700024E0E20EF11C8C010E591F4F80E4482E21
:10228000512C612C712C90E8C92ED12C888187FFAC
:102290000CC00E94B71D5701E1E0AE1AB108A301BE
:1022A00092010E94DB1DF50160838881082E000CDD
:1022B000990BB6010E943E1EF7019081890F888319
:1022C0002396F3E0EF0EF11CC017D107F9F6DF916A
:1022D000CF911F910F91FF90EF90DF90CF90BF9023
:1022E000AF907F906F905F904F900895AF92BF92A4
:1022F000CF92DF92EF92FF920F931F93CF93DF93D2
:1023000000D000D01F92CDB7DEB78C01DC0117964C
:102310008D919C9118970E942711F801838D948DBF
:102320009801255F3F4F79018130910509F461C023
:102330008230910509F467C0892B09F06DC0C38014
:10234000D48068E0C6010E947B0A882341F081E0C6
:1023500090E0D8015C969C938E935B975DC064E09F
:10236000C6010E947B0A882331F082E090E0F801E8
:10237000948F838F51C060E2C6010E947B0A88233C
:1023800059F0D8015D968C915D9790E0039683702B
:1023900099275D968C930EC060E4C6010E947B0A6B
:1023A000882341F0F801258D30E02F5F3F4F2370E7
:1023B0003327258F60E8C6010E947B0A882359F0E5
:1023C000D8015E968C915E9790E003968370992772
:1023D0005E968C9321C060E1C6010E947B0A88232F
:1023E000D9F0F801868D90E0019683709927868F49
:1023F00013C0C380D480F601868183FF2DC0858100
:1024000083FD2AC025C00380F481E02D868182FFF0
:1024100003C0858182FF1CC0F801878D90A1A1A116
:10242000B2A18F3FFFEF9F07AF07BF0741F00196B3
:10243000A11DB11DF801878F90A3A1A3B2A3F7013D
:1024400080E0919198137FC08F5F8031D1F735C0C4
:10245000F801148E138EE0CF60E2C6010E947B0A61
:10246000882319F020E030E011C060E4C6010E942A
:102470007B0A882319F021E030E018C060E8C6012B
:102480000E947B0A882349F022E030E0D8015E9662
:102490004C915E975D966C910CC060E1C6010E9404
:1024A0007B0A882309F4B8CF23E030E0F801468D99
:1024B000658DC7010E94E30EAFCFD8015F96CD9026
:1024C000DD90ED90FC9092978091D0029091D10296
:1024D000A091D202B091D3020097A105B10571F08D
:1024E000C816D906EA06FB0648F0C092B602D0929A
:1024F000B702E092B802F092B90225C0C092D002B1
:10250000D092D102E092D202F092D302C982DA8252
:10251000EB82FC829E012F5F3F4F59010AE310E0DE
:10252000D5016D915D01C8016D830E94C51D6D814E
:10253000681719F0C8010E94CD1D0F5F1F4F0E33A1
:10254000110571F7D2CF0F900F900F900F900F9051
:10255000DF91CF911F910F91FF90EF90DF90CF907F
:10256000BF90AF900895CF93DF93EC010E94AF0B23
:102570008D859E850E9427118E898F5F8E8BDF91BE
:10258000CF910895CF93DF93EC010E94AF0B8E891A
:102590008F5F8E8B8D859E85DF91CF910C94271157
:1025A000FC018091C202811103C08FEF9FEF08955B
:1025B0009FB7F89482E08093E9002091F20030E028
:1025C0001216130614F421E030E02115310559F0FC
:1025D000289884E68093C1028091F10080838091E5
:1025E000F200882319F09FBFC90108958BE68093FC
:1025F000E800F9CF2FB7F89483E08093E900909139
:10260000E800892F807295FF04C09091F20080E469
:10261000891B2FBF08958091C80281110DC082E0EF
:102620008093C40284E08093C5021092C702109286
:10263000C60281E08093C80284EC92E00895CF93B3
:10264000DF931F92CDB7DEB76983DC01ED91FC917A
:102650000280F381E02D41E050E0BE016F5F7F4FCB
:1026600009950F90DF91CF91089583E08093E90061
:102670008091F200882319F08AE38093E80008959E
:102680000E94FA1290E00895CF93DF931F92CDB786
:10269000DEB7FC018485958597FD05C02FEF3FEFE0
:1026A000358724870BC0CE0101960E94D012019776
:1026B00019F4898190E002C08FEF9FEF0F90DF91B6
:1026C000CF9108950F931F93CF93DF931F92CDB7B0
:1026D000DEB78C01FC018485958597FF0EC0CE0185
:1026E00001960E94D012019719F4298130E002C0AE
:1026F0002FEF3FEFF80135872487F8018485958512
:102700000F90DF91CF911F910F910895FC01848567
:10271000958597FD0BC09FB7F89482E08093E90000
:102720008091F2009FBF90E0019608959FB7F894C2
:1027300082E08093E9008091F2009FBF90E00895CD
:102740008F929F92AF92BF92CF92DF92EF92FF92C1
:102750000F931F93CF93DF935C016B017A018091FC
:102760000D01882309F45BC08091C202882309F41B
:1027700056C08091C00280FF05C08091E000826059
:102780008093E000E70110E00AEF83E0882E9AE3EF
:10279000992E2097D9F10E94FA1281110AC0015096
:1027A00009F43DC061E070E080E090E00E940C0719
:1027B000F0CF282F30E0C217D3070CF48C2F4FB77F
:1027C000F8948092E9009091E80095FF1DC0282FB1
:1027D00030E0C21BD30BF601982F915020F081916D
:1027E0008093F100FACFC20ED31E112319F09092FC
:1027F000E80009C08091E80085FD06C09092E800DD
:1028000011E0209709F010E04FBFC3CF1111C3CFE3
:102810005D9884E68093C3021E141F0444F081E097
:1028200090E0F5019383828380E090E001C0C701CE
:10283000DF91CF911F910F91FF90EF90DF90CF909C
:10284000BF90AF909F908F900895DF92EF92FF928C
:102850000F931F93CF93DF93D82E8A017B01E40E51
:10286000F51EEB01CE15DF0571F0D7FE03C0FE01AA
:10287000849101C088810E94A41721968111F2CF12
:102880008FEF9FEF01C0C801DF91CF911F910F9192
:10289000FF90EF90DF9008950F931F93CF93DF93F6
:1028A0001F92CDB7DEB782E0898342E450E069E44D
:1028B0007BE080E80E9425140E940B13DC01129635
:1028C0000D911C9113970115110569F0D801ED9137
:1028D000FC910280F381E02DBE016F5F7F4FC80144
:1028E000099597FF07C089810F90DF91CF911F91C4
:1028F0000F910895F80100851185E5CFBF92CF9221
:10290000DF92EF92FF920F931F93CF93DF936C01AF
:10291000EB017A01B22E102F4034510528F4422FDA
:10292000B701CE010E946F17B701610F711D615091
:1029300071096034710520F44B2DCE010E946F1790
:1029400001E0212FA701BE01C6010E94A30ACB0D01
:10295000D11DBE0161507109212FA701C6010E943E
:10296000A30ADF91CF911F910F91FF90EF90DF901D
:10297000CF90BF9008958091FE038EBDEFEFF3E0FE
:1029800081910DB407FEFDCF8EBD87E0EE3FF807C5
:10299000B9F70DB407FEFDCF08951F920F920FB641
:1029A0000F9211248F939F938091E1009091E10009
:1029B000937F9093E10083FF0FC01092E90091E0B4
:1029C0009093EB001092EC0092E39093ED00109244
:1029D000C20298E09093F00082FF20C093E09093B1
:1029E000E9009091F200992319F09AE39093E8009E
:1029F0009091C302992339F09091C3029150909322
:102A0000C302992389F19091C102992339F09091E1
:102A1000C10291509093C102992341F184FF10C0EB
:102A20008091E2008E7E81608093E2008091E100DF
:102A30008F7E8093E1008091C0028E7E806111C004
:102A400080FF16C08091E2008E7E80618093E2005C
:102A50008091E1008E7E8093E1008091C0028E7EA5
:102A600081608093C00204C05D9ACDCF289AD6CFF2
:102A70009F918F910F900FBE0F901F9018951F92EE
:102A80000F920FB60F921124CF92DF92EF92FF9226
:102A90000F931F932F933F934F935F936F937F9366
:102AA0008F939F93AF93BF93EF93FF93CF93DF9356
:102AB000CDB7DEB76C97DEBFCDBF1092E900809135
:102AC000E80083FFEDC168E0CE0145960E94D21771
:102AD00082EF8093E8008D8987FF05C09091E80020
:102AE00090FFFCCF03C09EEF9093E800982F907664
:102AF00009F0C6C09E892F89188D91110CC08038AD
:102B000029F48091BF028093F10002C01092F1007D
:102B10001092F10048C1422F50E0512B913051F4F6
:102B2000811141C14130510509F03DC18091BF0281
:102B30008D7F0BC0933061F4811135C14130510557
:102B400009F031C18091BF0282608093BF022BC126
:102B5000953041F48091E80080FFFCCF20682093FD
:102B6000E30021C1963009F05FC0EB8CFC8C109221
:102B7000E9001092BD021092BC02123091F5109241
:102B8000BB021092BA020E944C1499E0BE016F5F22
:102B90007F4FDB01E92F1D92EA95E9F799831A83AC
:102BA00091E09E8390EA98879AEF99872091BC02E2
:102BB0003091BD02275F3F4F3C832B838D83109262
:102BC000E9001092BD021092BC02F092BB02E092AA
:102BD000BA0249E050E080E00E9425140E944C14A3
:102BE000E2C0F092BB02E092BA020E940B13DC0139
:102BF0001296ED90FC901397E114F10409F4C0C013
:102C0000D701ED91FC910480F581E02DBE016B5E52
:102C10007F4FC7010995009719F00CF0C4C0C7C0D9
:102C2000F701E084F184E8CF973009F4C0C0983010
:102C300021F481E08093F100B6C0993009F0B3C06F
:102C4000837009F0B4C0E1E2F1E081E021E036E315
:102C50009081992361F08093E9002093EB0091919A
:102C60009093EC003093ED008F5F873089F78EE70B
:102C70008093EA001092EA008F898093C20293C089
:102C80008B8D9C8D1092E9001092BD021092BC02B7
:102C90009093BB028093BA02898D811156C08E89B0
:102CA0009D89913A59F4813209F081C047E050E0A2
:102CB00066E071E080E00E94251475C0913209F051
:102CC00076C0833289F4888D90E0982F88272F89E9
:102CD000822BA0E0B0E08093020190930301A093C7
:102CE0000401B09305015FC0803269F48091E8006F
:102CF00082FFFCCF67E086E091E00E94D2178BEF65
:102D00008093E80006C0823209F04DC08F8980931D
:102D10000D018091BE02882319F0EEEFFAE002C0A7
:102D2000E0E0F8E08091060190910701A091080190
:102D3000B0910901803B9440A105B10509F07BC029
:102D400080910D0180FF93C076C00E940B13DC01BF
:102D500012960D911C9113970115110541F1D8019F
:102D6000ED91FC910190F081E02DBE016B5E7F4FF3
:102D7000C8010995811117C0F80100851185ECCFB4
:102D8000113009F44EC0133091F48F89882309F46F
:102D900045C0823081F440E860E18DEA9BE00E940A
:102DA0000D1B882321F08EEF8093E80079C081E22B
:102DB0008093EB0075C0813029F440E86BE081EA34
:102DC0009BE0EDCF833099F70E940B13DC01129644
:102DD000ED90FC9013978E010F5F1F4F6801E11477
:102DE000F10479F0D701ED91FC910680F781E02D97
:102DF000B801C7010995080F111DF701E084F1849E
:102E0000EECFD8011C92F60101900020E9F731972E
:102E1000BF016C197D0940E0C601C1CF6BE87BE0C2
:102E200002C06FE87BE06115710509F2FB01449176
:102E300050E080E840CF0FB6F894A89580916000EC
:102E4000886180936000109260000FBEA895EE3FED
:102E50002AE0F20739F08091FE0A9091FF0A9183EF
:102E60008083A1CF1092FF0A1092FE0A9CCFEE3F02
:102E70008AE0F80731F0808191819093FF0A809376
:102E8000FE0A87E797E7918380839BE088E10FB68E
:102E9000F894A895809360000FBE9093600083CF54
:102EA0006C960FB6F894DEBF0FBECDBFDF91CF9109
:102EB000FF91EF91BF91AF919F918F917F916F9112
:102EC0005F914F913F912F911F910F91FF90EF9044
:102ED000DF90CF900F900FBE0F901F9018959C0120
:102EE000240F311D1216130674F5803891055CF518
:102EF000FC0197FF02C0E0E0F0E02138310514F05A
:102F000020E830E02E1BAB014770552781E001C05F
:102F1000880F4A95EAF777FF02C0695F7F4F93E019
:102F2000759567959A95E1F77695762F662777954B
:102F30006795E60FF71FE250FC4F215020F090817B
:102F4000982B9193FACF08954091BC025091BD0205
:102F50002091BA023091BB0242175307B4F490910A
:102F6000E8009570E1F39091E80092FD19C080931C
:102F7000F1008091BC029091BD0201968F73992758
:102F8000892B19F48EEF8093E8008091BC02909118
:102F9000BD0201969093BD028093BC0281E008952A
:102FA00080E00895615030F02091F100FC01208311
:102FB0000196F8CF289884E68093C1020895CF93B4
:102FC000DF9300D000D0CDB7DEB7789484B58260AF
:102FD00084BD84B5816084BD85B5826085BD85B5BD
:102FE000816085BD80916E00816080936E0010923B
:102FF00081008091810082608093810080918100B6
:103000008160809381008091800081608093800046
:103010008091910082608093910080919100816005
:1030200080939100809190008160809390008091C6
:10303000C10084608093C1008091C1008260809350
:10304000C1008091C10081608093C1008091C30064
:1030500081608093C3008091C00082608093C00033
:103060008091C20081608093C20080917A00846068
:1030700080937A0080917A00826080937A008091B8
:103080007A00816080937A0080917A0080688093D2
:103090007A001092C2021092BF021092C002809178
:1030A000D70081608093D70080EA8093D80089B5EB
:1030B000806189BD89B5826089BD09B400FEFDCFFC
:1030C00061E070E080E090E00E940C078091D80001
:1030D0008F7C80618093D8008091E000807F809316
:1030E000E0008091E1008E7E8093E1008DE080938E
:1030F000E200559A209AEEEFFFE7859194918B3F7D
:103100009C4D19F481E08093BE0281EC80937C0099
:1031100085B1806F85B9249884B1866E84B95E9A32
:103120005F988AB1806D8AB9769A6E9881B3806F04
:1031300081BB899880B38D7080BB80E58CBD81E0B8
:103140008DBD85E090E00E94480A5F9A85E090E09E
:103150000E94480A5E985C980CEA10E0FDE0FF2EA1
:10316000F00EF80184910E94750A0F5F1F4FF01254
:10317000F8CF5C9A81E88093640081E080936500D9
:1031800000E014E080E00E94750A01501109D1F7B7
:103190000E944D0A87FF1FC05C9885EA0E94750A4D
:1031A0005C9A2E982F982D9880916400806280936D
:1031B00064000E946A0AFDCF2D980E944D0A84780F
:1031C000843871F00E944D0A8471843131F188ECA9
:1031D00090E00E94480A0E944D0A82FDEDCF3AC05D
:1031E0000E94460A88EC90E00E94480A2F9882E0EC
:1031F00090E00E94C51D8F3F29F06FEF82E090E0C4
:103200000E94CD1D84EF91E00E94480A2F9A0E94EF
:103210004D0A84788438D9F3D5CF0E94460A88ECC9
:1032200090E00E94480A2E9882E090E00E94C51D1E
:10323000882329F060E082E090E00E94CD1D84EFB9
:1032400091E00E94480A2E9A0E944D0A84718431AE
:10325000D9F3BDCF0E94460A82E090E00E94C51DCE
:10326000882331F03E9A3F9A81E08093B00204C0F7
:103270001092B0023E983F982E986EEEA62EBB2478
:10328000BA9479EB872E70E0972EEAEB6E2EE0E091
:103290007E2E0E944D0A86FF04C02E9A2F9A2D9AE8
:1032A0003EC0FCEFAF16FFEFBF0619F42E9A2F9821
:1032B00006C028E1A216B10411F42F9A2D9882E1DC
:1032C00098E00E94FD0AF4010491F301E4905AEFA2
:1032D000C52E20E030E04BEB50E0B50184E190E0FA
:1032E0000E941B080E94BB148BE190E00E94480AD8
:1032F000F0EFAF16FFEFBF0621F48AEF90E00E94D7
:10330000480A2FEFA21AB20A89E1A816B10409F0FF
:10331000C0CF8CEB92E00E94480A0E94460A82E3EA
:1033200090E00E94480A0E944D0A8111F8CF8091D6
:1033300064008E7F8093640080917A008064809323
:103340007A0080917A0086FDFCCF00917800109180
:1033500079000E94E70620E030E09801112700275D
:10336000600F711F821F931F611571058105910503
:1033700011F00E94BC1D8091640081608093640004
:1033800080E18093190819821A821B821C82DE0157
:1033900011967D010AE310E0C8010E94C51DF701E6
:1033A00081937F010F5F1F4F0E331105A9F78981AC
:1033B0009A81AB81BC818093D0029093D102A0937B
:1033C000D202B093D3028CE380935D0310925E032C
:1033D0008BE893E09093600380935F0311E0109378
:1033E0009A0380E1F82EF0929B0302E000938E0393
:1033F0001092900310928F0393E6A92E93E0B92EBA
:10340000B0929203A09291038AE793E090936B03AA
:1034100080936A0310928903F0928A0300937D03DC
:10342000B0927F03A0927E031093820381E393E026
:10343000909381038093800310937C038AE193E04F
:1034400090933B0380933A0381E393E00E94120F31
:1034500083E093E0909322038093210310931C0355
:1034600022EF32E030930B0320930A0310930503FD
:1034700010920103F09202030093F5029093F70279
:103480008093F6021093FA0285EE92E09093F9028F
:103490008093F8021093F40224ED32E03093ED02B1
:1034A0002093EC021093E70228E72093EA0210939E
:1034B000E302F092E4020093D7029093D902809342
:1034C000D802B092DB02A092DA021093D60200E09A
:1034D00010E0BB24B3942FB7F8948091AC02909184
:1034E000AD02A091AE02B091AF022FBF40911E0875
:1034F00050911F08609120087091210820912208A6
:10350000222341F020911A08821B809323081092F5
:10351000220872C084179507A607B70738F4481B1E
:10352000423008F469C00E946A0A66C0B09222085C
:1035300080931A0890931B08A0931C08B0931D0851
:1035400020911908820F911DA11DB11D80931E08A5
:1035500090931F08A0932008B0932108809115082C
:103560009091160801969093160880931508809103
:103570001708809318080E944D0A809317088091BD
:103580000001909101010097A9F1DC01ED91FC91FE
:103590000480F581E02D0995809100019091010151
:1035A000DC01ED91FC910280F381E02D0995809181
:1035B000000190910101DC01ED91FC910680F78101
:1035C000E02D09957C01892B89F080910001909173
:1035D0000101E816F90651F0D701ED91FC91008444
:1035E000F185E02DC701099581110DC0F09201010F
:1035F000E09200010E94BB140115110509F46BCF84
:103600000E94000068CFD701ED91FC910190F081FC
:10361000E02DC7010995EACF0895CF92DF92EF928E
:10362000FF920F931F93CF93DF931F92CDB7DEB717
:10363000182F062FE42E862F880F8E5F99830E9405
:10364000A41783E00E94A417F12EC12E9981D92ED0
:103650008C2D8F19801798F4F601E7FE02C0849133
:1036600001C080810E94A417182F80E00E94A41737
:103670008123FFEFCF1ADF0A8111EACF01C081E079
:103680000F90DF91CF911F910F91FF90EF90DF90FE
:10369000CF9008954F925F926F927F928F929F92F8
:1036A000AF92BF92CF92DF92EF92FF920F931F9350
:1036B000CF93DF93109227081092260888EE93E0AC
:1036C000A0E0B0E08093280890932908A0932A08EE
:1036D000B0932B088BE291E0909325088093240807
:1036E0008FEF9FEF909331088093300829E032E00C
:1036F000309313082093120810921708109218089C
:1037000020E12093190890931608809315081092D1
:103710001E0810921F081092200810922108109283
:10372000220810920108109200088DEF91E090930A
:10373000FF078093FE078EEF93E09093030880933A
:10374000020880E890E0909305088093040880E4E4
:1037500090E0909307088093060885E08093110815
:1037600081E08093100810920B0810920A081092C2
:103770000D0810920C08109209081092080881E0B8
:1037800090E090930F0880930E0882E198E0909368
:103790009D0380939C0380E090E0FC01E456FC4F85
:1037A000128213821482039680369105B1F7C0EA23
:1037B000D3E090E4C92ED12CE12CF12C24E0822E10
:1037C000912CA12CB12C32E0432E512C612C712C68
:1037D0000E94B71D8E010250110920E830E040E040
:1037E00050E00E94DB1DF80160830E94B71D0F5F4F
:1037F0001F4FA70196010E94DB1DF80160830E9404
:10380000B71DA50194010E94DB1DDC01CB010196CF
:10381000A11DB11D88830E94B71DA30192010E94C2
:10382000DB1D672B682B692B19F0888181958883B4
:103830002396F4E0C030DF0759F662E178E08BE8C8
:1038400093E00E94580C62E178E08AE793E00E94DE
:10385000580C1092650322E138E0309367032093FF
:1038600066031092680341E04093690310926B0372
:1038700010926A0310926C0310926D038BEE91E02C
:1038800090936403809363038EEF97E090936F03AC
:1038900080936E036CE973E070937103609370031F
:1038A000909373038093720355E05093740359E32C
:1038B00050937503EAE7F2E0F0937703E093760321
:1038C000409378031092790310925A03E9EDF1E0E6
:1038D000F0935903E093580330935C0320935B0308
:1038E00010925D0340935E031092600310925F0399
:1038F00010926103109262031092330343EA51E085
:1039000050933203409331033093350320933403B3
:103910009093370380933603709339036093380391
:1039200010923B0310923A03ECE3F3E0119283E030
:10393000EC34F807D9F7ECE3F3E080E081938F5F94
:103940008031E1F710924D0310924C0310924E0318
:1039500010924F0310925003109251031092520391
:10396000109253038091D0029091D102A091D20283
:10397000B091D3028093540390935503A0935603C0
:10398000B093570381E393E00E94120F10921C033F
:1039900082E1E82E88E0F82EF0921E03E0921D03EB
:1039A00010921F0311E01093200310922203109233
:1039B0002103109223031092240381E991E0909354
:1039C0001B0380931A03CEEFD7E0D0932603C09356
:1039D00025034CE953E05093280340932703D093E9
:1039E0002A03C093290335E030932B0329E3209366
:1039F0002C0383E992E090932E0380932D03109380
:103A00002F031092300310920503F0920703E09207
:103A10000603109208031093090310920B031092EF
:103A20000A0310920C0310920D036FE771E070937C
:103A3000040360930303D0930F03C0930E035093CA
:103A4000110340931003D0931303C09312033093D8
:103A50001403209315039093170380931603109378
:103A6000180310921903B70182EF92E00E94580CDC
:103A70001092E702F092E902E092E8021092EA0264
:103A80001093EB021092ED021092EC021092EE02F3
:103A90001092EF028DE691E09093E6028093E502AA
:103AA000D093F102C093F002B70184ED92E0DF9170
:103AB000CF911F910F91FF90EF90DF90CF90BF902B
:103AC000AF909F908F907F906F905F904F900C94ED
:103AD000580C8F929F92AF92BF92CF92DF92EF924B
:103AE000FF92CF93DF93EC01688179818A819B817A
:103AF000611571058105910521F464E279ED8BE58D
:103B000097E02DE133EF41E050E00E94DB1D4901D9
:103B10005A019B01AC01A7EAB1E40E94FA1D6B01B6
:103B20007C01ACEEB4EFA50194010E94081EDC01FB
:103B3000CB018C0D9D1DAE1DBF1DB7FF03C00197AE
:103B4000A109B04888839983AA83BB83BC01CD01B6
:103B50009F77DF91CF91FF90EF90DF90CF90BF9054
:103B6000AF909F908F9008950E94691D08958EE0F8
:103B700091E00E94691D089560930E0170930F01FA
:103B800080931001909311010895F999FECF92BD91
:103B900081BDF89A992780B50895262FF999FECF0F
:103BA0001FBA92BD81BD20BD0FB6F894FA9AF99A5A
:103BB0000FBE01960895052E97FB1EF400940E94F7
:103BC000F21D57FD07D00E940D1E07FC03D04EF4D6
:103BD0000C94F21D50954095309521953F4F4F4FD5
:103BE0005F4F089590958095709561957F4F8F4FA9
:103BF0009F4F08950E942F1EA59F900DB49F900D7A
:103C0000A49F800D911D11240895B7FF0C94FA1DF7
:103C10000E94FA1D821B930B0895A1E21A2EAA1B83
:103C2000BB1BFD010DC0AA1FBB1FEE1FFF1FA2176C
:103C3000B307E407F50720F0A21BB30BE40BF50B69
:103C4000661F771F881F991F1A9469F760957095F2
:103C5000809590959B01AC01BD01CF010895A29F75
:103C6000B001B39FC001A39F700D811D1124911D50
:103C7000B29F700D811D1124911D089597FB072E91
:103C800016F4009407D077FD09D00E94521E07FC5D
:103C900005D03EF4909581959F4F0895709561955C
:103CA0007F4F0895AA1BBB1B51E107C0AA1FBB1F72
:103CB000A617B70710F0A61BB70B881F991F5A95B8
:103CC000A9F780959095BC01CD010895EE0FFF1FD7
:103CD0000590F491E02D0994CF93DF938230910504
:103CE00010F482E090E0E0917608F091770820E00F
:103CF00030E0C0E0D0E0309711F1408151814817A9
:103D00005907C0F04817590761F4828193812097C1
:103D100019F09B838A832BC0909377088093760851
:103D200026C02115310519F04217530718F49A01DE
:103D3000BE01DF01EF010280F381E02DDCCF211510
:103D4000310509F1281B390B2430310590F4129606
:103D50008D919C9113976115710521F0FB0193835F
:103D6000828304C09093770880937608FD01329691
:103D700044C0FD01E20FF31F81939193225031095A
:103D80002D933C933AC02091740830917508232BF1
:103D900041F420911401309115013093750820935E
:103DA000740820911201309113012115310541F45D
:103DB0002DB73EB74091160150911701241B350BCA
:103DC000E0917408F0917508E217F307A0F42E1B38
:103DD0003F0B2817390778F0AC014E5F5F4F24176F
:103DE000350748F04E0F5F1F5093750840937408D5
:103DF0008193919302C0E0E0F0E0CF01DF91CF9199
:103E000008950F931F93CF93DF93009709F48CC00D
:103E1000FC01329713821282009176081091770884
:103E20000115110581F420813181820F931F2091AA
:103E30007408309175082817390779F5F0937508DB
:103E4000E093740871C0D80140E050E0AE17BF079E
:103E500050F412962D913C911397AD012115310527
:103E600009F1D901F3CF9D01DA0133832283608107
:103E70007181860F971F8217930769F4EC012881DF
:103E80003981260F371F2E5F3F4F318320838A8170
:103E90009B8193838283452B29F4F0937708E093E9
:103EA000760842C01396FC93EE931297ED01499168
:103EB00059919E01240F351FE217F30771F4808199
:103EC0009181840F951F029611969C938E93828107
:103ED000938113969C938E931297E0E0F0E0D801C3
:103EE00012968D919C911397009719F0F8018C010F
:103EF000F6CF8D919C9198012E5F3F4F820F931FBB
:103F000020917408309175082817390769F43097A3
:103F100029F4109277081092760802C01382128258
:103F20001093750800937408DF91CF911F910F9142
:103F3000089581E090E0F8940C949E1F15E0C0EE87
:103F4000D5E004C0FE010E94661E2196C13ED10745
:063F5000C9F7F894FFCF51
:103F56005803FFFFFFFF00E1000000000000010022
:103F66000000000078088000000003010301000043
:103F760000C18081000000000000001F13A0134054
:103F8600133513861344136213000000008B0B5C79
:103F96000B3A0B280B9D0B00000000D006D006D074
:103FA60006000000008B0B5C0B3A0B280B9D0B5791
:103FB6000CCC0B190B0E0BD20B000000000A0BAF3A
:103FC6000BAB0FBD069D0B1310A70F000000000AD8
:103FD6000BB3126210BD069D0BEE0FA50F0000007D
:103FE600000A0BC212E410BD069D0B1410A30F00AD
:103FF600000000120F7611150DA00B9D0BE20ED0DE
:104006000B00000000D006D006D006D0069D0B009F
:1040160000000000000000D006D006D006D006D072
:104026000600000000000000000A0BAF0BCF06BD23
:10403600069D0BEF0FA90F000000000A0B480C2E7F
:104046000CBD069D0BE10ECE0B00000000EE070B2B
:1040560006BA06B90600000000B8062D2D3A2D2D29
:104066000041004D4F564500420053484F570076D9
:10407600312E3100323031370054494D450042452A
:1040860053540053534E696B6F6C61657669636870
:10409600002F72696E675F70757A7A6C655F67610B
:1040A6006D6500424553542054494D452100594FF2
:1040B60055522054494D453A00434F4E47524154BC
:1040C600554C4154494F4E53210070757368206119
:1040D6006E7920627574746F6E20746F20737461CC
:1040E6007274007075736820616E792062757474DD
:0C40F6006F6E20746F20636F6E742E00DC
:00000001FF
