:100000000C94CC060C94F4060C94F4060C94F406B0
:100010000C94F4060C94F4060C94F4060C94F40678
:100020000C94F4060C94F4060C9465100C94A8112E
:100030000C94F4060C94F4060C94F4060C94F40658
:100040000C94F4060C94130B0C94F4060C94F40624
:100050000C94F4060C94F4060C94F4060C94260A02
:100060000C94F4060C94F4060C94F4060C94F40628
:100070000C94F4060C94F4060C94F4060C94F40618
:100080000C94B10B0C94F4060C94F4060C94F40646
:100090000C94F4060C94F4060C94F4060C94F406F8
:1000A0000C94F4060C94F4060C94F406E008E308AF
:1000B000D208D608DA08040904090409E708EB089D
:1000C000EF08F508F9080409FF087B09800985098C
:1000D0008F099909E309E309E309A309AD09B70900
:1000E000C109CE09E309D609000000002400270059
:1000F0002A002D003000D5F08D14A1C881CFD9F190
:10010000AF200014021302120215020702080204B3
:10011000010C0106010007070E1F3F7E3F1F0E0066
:10012000000000003E5B4F5B3E3E6B4F6B3E1C3E53
:100130007C3E1C183C7E3C181C577D571C1C5E7F67
:100140005E1C00183C1800FFE7C3E7FF00182418E6
:1001500000FFE7DBE7FF30483A060E26297929261B
:10016000407F050507407F05253F5A3CE73C5A7F05
:100170003E1C1C08081C1C3E7F14227F22145F5F5B
:10018000005F5F06097F017F006689956A60606095
:10019000606094A2FFA29408047E040810207E20D0
:1001A0001008082A1C08081C2A08081E1010101025
:1001B0000C1E0C1E0C30383E3830060E3E0E06006B
:1001C0000000000000005F00000007000700147F2F
:1001D000147F14242A7F2A12231308646236495696
:1001E00020500008070300001C2241000041221C8F
:1001F000002A1C7F1C2A08083E0808008070300076
:100200000808080808000060600020100804023E8A
:100210005149453E00427F400072494949462141CB
:10022000494D331814127F1027454545393C4A493A
:100230004931412111090736494949364649492979
:100240001E00001400000040340000000814224189
:100250001414141414004122140802015909063E12
:10026000415D594E7C1211127C7F494949363E410D
:100270004141227F4141413E7F494949417F09092E
:1002800009013E414151737F0808087F00417F41C9
:10029000002040413F017F081422417F4040404000
:1002A0007F021C027F7F0408107F3E4141413E7F58
:1002B000090909063E4151215E7F0919294626494F
:1002C00049493203017F01033F4040403F1F204026
:1002D000201F3F4038403F63140814630304780430
:1002E000036159494D43007F4141410204081020F8
:1002F000004141417F04020102044040404040006F
:100300000307080020545478407F28444438384478
:10031000444428384444287F385454541800087EF4
:10032000090218A4A49C787F0804047800447D4046
:10033000002040403D007F1028440000417F4000E5
:100340007C047804787C080404783844444438FCFD
:100350001824241818242418FC7C08040408485481
:1003600054542404043F44243C4040207C1C20403E
:10037000201C3C4030403C44281028444C90909035
:100380007C4464544C44000836410000007700006F
:10039000004136080002010204023C2623263C1ECE
:1003A000A1A161123A4040207A3854545559215540
:1003B0005579412154547841215554784020545561
:1003C00079400C1E527212395555555939545454AE
:1003D0005939555454580000457C410002457D422E
:1003E0000001457C40F0292429F0F0282528F07CE4
:1003F000545545002054547C547C0A097F493249A5
:100400004949323248484832324A4848303A4141F4
:10041000217A3A42402078009DA0A07D394444448E
:10042000393D4040403D3C24FF2424487E494366FA
:100430002B2FFC2F2BFF0929F620C0887E090320D3
:10044000545479410000447D413048484A32384094
:1004500040227A007A0A0A727D0D19317D262929F7
:100460002F28262929292630484D402038080808F9
:100470000808080808382F10C8ACBA2F102834FA1A
:1004800000007B000008142A142222142A14089564
:1004900000220095AA005500AAAA55AA55AA000054
:1004A00000FF00101010FF00141414FF001010FFC4
:1004B00000FF1010F010F0141414FC001414F700D6
:1004C000FF0000FF00FF1414F404FC141417101FA5
:1004D00010101F101F1414141F00101010F0000033
:1004E00000001F101010101F10101010F01000004E
:1004F00000FF101010101010101010FF100000005E
:10050000FF140000FF00FF00001F10170000FC0494
:10051000F414141710171414F404F40000FF00F777
:1005200014141414141414F700F7141414171410DA
:10053000101F101F141414F4141010F010F0000009
:100540001F101F0000001F14000000FC140000F02A
:1005500010F01010FF10FF141414FF141010101FCF
:1005600000000000F010FFFFFFFFFFF0F0F0F0F0E0
:10057000FFFFFF0000000000FFFF0F0F0F0F0F38FD
:10058000444438447C2A2A3E147E02020606027E37
:10059000027E0263554941633844443C04407E2056
:1005A0001E2006027E020299A5E7A5991C2A492A67
:1005B0001C4C7201724C304A4D4D303048784830F6
:1005C000BC625A463D3E494949007E0101017E2AEE
:1005D0002A2A2A2A44445F444440514A4440404421
:1005E0004A51400000FF0103E080FF000008086B53
:1005F0006B083612362436060F090F06000018184D
:100600000000001010003040FF0101001F01011E1A
:1006100000191D1712003C3C3C3C00000000000685
:10062000011501260137014A015D01720188019F10
:1006300001B801D201EE010B022A024B026E0293B5
:1006400002BA02E40210033F037003A403DC0317A1
:100650000455049704DD0427057505C80520067DAB
:1006600006E0064907B8072D08A9082D09B9094D64
:100670000AEA0A900B400CFA0CC00D910E6F0F5A4B
:100680001053115B1272139A14D41520178018F5A9
:1006900019801B231DDE1EB420A622B524E42634B7
:1006A00029A72B402E0031EA330037453ABC3D687C
:1006B000414C456B49C84D68524F57805C006210F1
:1006C000111213151617181A1C1D1F21232527296F
:1006D0002C2E3134373A3E4145494E52575C6268C0
:1006E0006E757B838B939CA5AFB9C4D0DCE9F70012
:1006F00000000200090F0000030401000C000000CC
:1007000000000000000000000000000000000408DD
:100710000201104080401020408040800802040107
:100720008040201002011080102040402000000076
:1007300000250028002B002E0031000404040404CE
:100740000304050202020204030202020206060674
:10075000060606040402020204040301000000E08D
:10076000F8FCFEFFFFFFFEFCF8E0000000C0E0F830
:10077000FCFDFFFFFFFFFFFFFFFDFCF8E0C00307EC
:100780000707030303030303030303070707031117
:1007900013000000E03874E2E1E1E1E27438E000C7
:1007A0000000C0E0F8F4DD76A6BEA6BEA676DDF4B5
:1007B000F8E0C00306060603020302020203020376
:1007C0000606060313120000000000E0DC828182AE
:1007D0008182DCE0000000000080C0C0C0DCE25983
:1007E0004D4C4A4C4D59E2DCC0C0C080070D0D0D88
:1007F00007040705050505050704070D0D0D071678
:100800001D0000806018E404028E919191918E0287
:1008100004E418608000000000031E91F8860100C7
:1008200033585833000186F8911E03000000788683
:100830008190FC630106FA4242FA060163FC908152
:100840008678000000181413121212121F04041FDD
:100850001212121213141800000000806018E40431
:10086000028E919191918E0204E4186080000060E4
:10087000900B1E91F88601305B98985B300186F8EA
:10088000911E0B9060000102B44C4443F12E2222D1
:1008900022222EF143444CB4020100000003040E56
:1008A0001E1E1C190E02020E191C1E1E0E04030031
:1008B000001820FCFEEE06070303030101010101FD
:1008C0000101010303030706EEFEFCFFFDDF007CD0
:1008D000FCFCF8E8C0E07070E0C0E8F8FCFC7C00CC
:1008E000DFFDFFFFDF7A0088F030211110080808D3
:1008F0000810112130F088007ADFFF0F1F3F3C798C
:100900007078F0E4F0E0E0E0E0F0E4F07870793C5A
:100910003F1F0F050A7F7F007F7F030300030380D3
:1009200040000000FFFFFFFFFFFFFFFFFFFFFFFF93
:10093000FFFFFFFFFF7F3F1F1F1F1F1F1F1F1F1FE7
:100940001F8F8F8F8F8F8F8F8F8F8F8F8F8F8F8E28
:100950008C8C8C8C8C8C848C8C8C8C8C8C8C8C8CDF
:100960008C8C8F8F8F8F8F8F8F8F8F87C7CE7800D4
:100970000000000000000000000000000000000077
:100980000000000000000000000000000000000067
:100990000000000000000000000000000000000057
:1009A000000030FCFF7FFFFFFFFFFFFFFFFFFFFFA7
:1009B000FFFFFFFFFFFCC0C0C0FE3F332373F9F908
:1009C000F919CDED6D2D2D2D2D2D2D3D3D3D3C2CC1
:1009D0002C6CECECCC0C0C0CEC6C2C2D2D3C2D2C44
:1009E0002D2D2D2DEDEFCF18F8FFF10000FE3E026A
:1009F0000080C06030181C0C0000808000008080E7
:100A00008080800080808080808000000000808066
:100A100080808080800080000000000000808000D6
:100A20000000000103060D7FFCFFFFFBFFFFF9FD47
:100A3000FFFDFFFDFFF9FF151F1F30E020307FFF96
:100A4000FFC09F78C0809E2F29391E0000808080C3
:100A5000C0F07F3F9FC0E0637F3066FF6D595E400E
:100A6000C0C040607DBFDFE03FFFFF0000FFEC063D
:100A700003071C3870E0C0808000FFFF1C070301E3
:100A800000C2E72331111010199BFFFC01C1E17175
:100A9000391D0E07037FFF81000000C0F0FFFF003B
:100AA000000000000000000079CF8F1F1F3F3F3F74
:100AB0003F3F7F7F3F3F3F00000000FF7800000185
:100AC0000303070706044D8D8D8D0D0D0D0D0504D7
:100AD0000606020301000808080C0683030303034B
:100AE0000303030303FF7F60301F050000010300C1
:100AF00000000000000000010301030300000000EB
:100B000000010103030202030301030303030202C2
:100B100002030303030241C3C3C3C3C1E07F3F0019
:100B2000000000808080C0C0C0C0C1E163E2E2E29A
:100B3000E6E6E6666666C686060E0F19303060E0A9
:100B4000C0C080808000000F1F3F3D3D7D7B7B7AD1
:100B50003A3A3E1E1E0E060202838181C0C04060EA
:100B60002030180C070300000000000000FE3E02C9
:100B70000080C06030181C0C000000008080808065
:100B8000808000000080800000808080808000F0F5
:100B9000F00000000000F87C0800000000000000E9
:100BA00000F7FB7B7F7FFFFDFFFEFEFE1F1F1F1F69
:100BB000FFFF00FCFCFCF8F3C73CF0F03C0E07051F
:100BC0000C38E103070F0F0F1F8FCEC6C6E67E66F7
:100BD000E6E6EEFAF2E3C343C1C1C1C0C0E0E0E023
:100BE000E0E0E0C0C08000000000000000FFEC0674
:100BF00003071C3870E0C08080C2E7233111101059
:100C0000199BFFFC00FFFF1C07030101030303FF07
:100C1000FF010101003E3F00000000000000000055
:100C2000001FFDF8F8F8F8C7C7C7C3C7FCFCFEFEF5
:100C3000FFFFE04FCFFFFF3FBFFEFF01000000407E
:100C4000602037FFF8FCFCFCFFFFFFFFEFFDFFF724
:100C5000FEFDFFFFFDFFFFC6C7C6E6E7EEFF777F9D
:100C60007A7F7F7B7F6F7FFCFCE0C0C0C081838088
:100C700080000000000000010301010303020203E1
:100C80000301030300030300000000000000000153
:100C90000302020300030300000000000000000044
:100CA000003B7F7FFFFFFDFFFFFFFFFEFEFEFEFF1D
:100CB000FFFFFFF007FFFFAD58FFFF9830206040B7
:100CC00040406061E7FEFF7E7F7F3F3737737F7D67
:100CD0007F6F6FEFFFFFDFFFFFFFFFFFFFFFFFFFF4
:100CE000FFFEFEFCFCF8F8F0E0E0C0810103030722
:100CF000070F1F1F3E7EFCFCFCF8F8F0E0E0C0C0D0
:100D0000C0C0C0C0C0C08080000000000000000063
:100D100000000000000000000000000000000000D3
:100D200000080B0002020201000904000001020297
:100D3000000005240010010524010101042402061D
:100D40000524060001070581031000400904010085
:100D5000020A0000000705020240000007058302A6
:100D60004000000403090412010002EF02014041A7
:100D700023368000010102030141726475696E6FC0
:100D8000204C4C430041726475696E6F204C656F56
:100D90006E6172646F005C1A11241FBECFEFDAE03F
:100DA000DEBFCDBF11E0A0E0B1E0E6EAFFE302C0A4
:100DB00005900D92AC35B107D9F727E0ACE5B1E06D
:100DC00001C01D92A032B207E1F716E0CCECD6E0EC
:100DD00004C02197FE010E94C11BCB3CD107C9F77B
:100DE0000E94D8130C94D11F0C940000CF92DF9274
:100DF000EF92FF920F931F93CF93DF936C017A01D1
:100E00008B01C0E0D0E0CE15DF0589F0D8016D91EF
:100E10008D01D601ED91FC910190F081E02DC6018C
:100E20000995892B11F47E0102C02196ECCFC701F0
:100E3000DF91CF911F910F91FF90EF90DF90CF90B6
:100E400008953FB7F8948091930190919401A091F7
:100E50009501B091960126B5A89B05C02F3F19F0CA
:100E60000196A11DB11D3FBFBA2FA92F982F88272A
:100E7000820F911DA11DB11DBC01CD0142E0660F85
:100E8000771F881F991F4A95D1F708952F923F9297
:100E90004F925F926F927F928F929F92AF92BF928A
:100EA000CF92DF92EF92FF920F931F93CF93DF9336
:100EB000CDB7DEB72A970FB6F894DEBF0FBECDBF11
:100EC0009E838D83202E312CCB01820D931D97FDA7
:100ED00031C1603871050CF02DC1CA018E0D911D14
:100EE00097FD28C1403451050CF024C1DA0157FFA9
:100EF00004C0AA27BB27A41BB50BA770BB27CA0138
:100F000057FD079613E0959587951A95E1F757FFDA
:100F100007C0019748E050E05A01AA1ABB0AD50160
:100F2000EE2DE695E695E695AE2EB12C4E2D47704A
:100F300019F00FEFA01AB00AAC015695542F4427B0
:100F400057954795460F571F8501080F191F1C839A
:100F50000B83412C512CF8E0EF2EF12C5701AA1AEB
:100F6000BB0ABA82A982AB80BC808A159B0509F4B2
:100F7000E1C08830910509F4DDC08F3F0FEF900785
:100F80000CF4CEC03A0110E8610E711C8A010C56B7
:100F90001F4FAD80BE80A00EB11EB886AF824B0140
:100FA00000E010E0021513050CF0BAC0E0E88E1660
:100FB000910409F4B5C097FCA8C08F3FFFEF9F07CD
:100FC00009F4B4C0F801E40DF51DEF80F884E618CB
:100FD000F708AA24A394E20FF31FCA1013C0E491E8
:100FE000E40EF51EF0E05F010A2E02C0AA0CBB1C45
:100FF0000A94E2F7BA86A986F701B080E985FA85F6
:10100000EB292BC0C11017C0E491E40EF51EF0E0EF
:101010000A2E02C0EE0FFF1F0A94E2F75F01A094B0
:10102000B094BA86A986F701A080B12CE985FA852B
:10103000AE22BF2213C0E491E40EF51EF0E05F0182
:101040000A2E02C0AA0CBB1C0A94E2F7BA86A98633
:10105000F701B080E985FA85EB255F01F701A082F1
:10106000109709F452C08730910509F44EC0F80179
:10107000E40DF51DAA24A394CA1011C0E20FF31FBA
:10108000E491EE2EF12C5701098002C0B594A7948B
:101090000A94E2F7EF81F885F080AF2835C0EF8041
:1010A000F884E618F708E20FF31FC11018C0E491A6
:1010B000E60CF71CAE2EB12C098002C0B594A794A3
:1010C0000A94E2F7F501E095F095FA87E987F701D0
:1010D000A080B12CE985FA85AE22BF2214C0E4912C
:1010E000E60CF71CAE2EB12CF501098002C0F59577
:1010F000E7950A94E2F7FA87E987F701B080E98576
:10110000FA85EB255F01F701A0820F5F1F4FEF818A
:10111000F8853196F887EF83FFEF8F1A9F0A42CF49
:101120000196420C531C40585F4F1DCF109709F099
:101130009ECFEBCF2A960FB6F894DEBF0FBECDBF81
:10114000DF91CF911F910F91FF90EF90DF90CF90A3
:10115000BF90AF909F908F907F906F905F904F90D7
:101160003F902F9008950E94F41C362F90E0FC01D0
:10117000E151F94F4491FC01E25FF84F2491FC01E9
:10118000E55CF84F8491882309F451C04423E1F1D0
:1011900050E0FA013197EF30F105B0F5EA5AFF4F10
:1011A0000C94C11B909180009F7707C090918000A4
:1011B0009F7D03C090918000977F9093800024C012
:1011C00094B59F7702C094B59F7D94BD1DC090914A
:1011D00090009F7707C0909190009F7D03C09091F1
:1011E0009000977F909390000FC09091C0009F77E0
:1011F00003C09091C0009F7D9093C00005C0909166
:10120000C200977F9093C200E82FF0E0EE0FFF1F1F
:10121000E35DF84FA591B4918FB7F894EC9131113B
:1012200003C020952E2301C02E2B2C938FBF089531
:10123000CF93DF9390E0FC01E25FF84F2491FC0133
:10124000E55CF84F8491882361F190E0880F991F45
:10125000FC01E851FF4FC591D491FC01E35DF84FCB
:10126000A591B491611109C09FB7F8948881209528
:1012700082238883EC912E230BC0623061F49FB7E8
:10128000F8943881822F809583238883EC912E2BCC
:101290002C939FBF06C08FB7F894E8812E2B28832C
:1012A0008FBFDF91CF9108951F93CF93DF93182FB6
:1012B000EB0161E00E941809209711F460E004C07E
:1012C000CF3FD10539F461E0812FDF91CF911F919C
:1012D0000C94B508E12FF0E0E151F94FE4914E2F65
:1012E00050E0FA013197EF30F10508F06CC0EB598E
:1012F000FF4F0C94C11B84B5806884BDC7BD68C016
:1013000084B5806284BDC8BD63C080918000806860
:1013100080938000D0938900C093880059C0809149
:101320008000806280938000D0938B00C0938A00FD
:101330004FC080918000886080938000D0938D00A2
:10134000C0938C0045C0809190008068809390008D
:10135000D0939900C09398003BC080919000806228
:1013600080939000D0939B00C0939A0031C08091ED
:101370009000886080939000D0939D00C0939C0063
:1013800027C08091C00080688093C0008091C00019
:101390008F7B8093C000C093CF001AC08091C000A3
:1013A00080628093C000C093D00012C08091C200C0
:1013B00088608093C2008091C2008B7F8093C200BE
:1013C000C093D20005C0C038D1050CF07CCF76CFD9
:1013D000DF91CF911F9108958F929F92AF92BF920C
:1013E000CF92DF92EF92FF926B017C010E94210766
:1013F0004B015C01C114D104E104F104F1F00E943D
:101400002107DC01CB0188199909AA09BB09883E8B
:101410009340A105B10570F321E0C21AD108E1089B
:10142000F10888EE880E83E0981EA11CB11CC1143F
:10143000D104E104F10419F7DDCFFF90EF90DF90C4
:10144000CF90BF90AF909F908F9008951F920F9272
:101450000FB60F9211242F933F938F939F93AF93C7
:10146000BF9380915D0190915E01A0915F01B09169
:1014700060013091920123E0230F2D3720F4019673
:10148000A11DB11D05C026E8230F0296A11DB11DA7
:101490002093920180935D0190935E01A0935F0180
:1014A000B09360018091930190919401A091950176
:1014B000B09196010196A11DB11D80939301909367
:1014C0009401A0939501B0939601BF91AF919F9124
:1014D0008F913F912F910F900FBE0F901F901895F5
:1014E0008FB12CB193B130E0209530952074332723
:1014F000A90123E0559547952A95E1F7292F30E07A
:10150000209530952071332735952795359527956A
:10151000242B8095807F822B0895FC0121912EBD84
:101520009C5F21910DB407FEFDCF2EBDE817F90792
:10153000C1F70DB407FEFDCF0895CF92DF92EF9271
:10154000FF920F931F93CF93E82FF0E0E65AF84FE6
:10155000C491E62FF0E0603330F4E154F94FE491A8
:101560000E2F10E006C0EE0FFF1FE154FA4F059159
:1015700014916801E12CF12C60E074E284EF90E0BA
:10158000A70196010E944A1BBA01A90141505109C5
:10159000610971094115510581E06807710580F005
:1015A00060E970ED83E090E0A70196010E944A1B7C
:1015B000BA01A901415051096109710983E001C0D3
:1015C00081E0C130C9F0C33031F590919100987F2E
:1015D000892B809391005093990040939800109329
:1015E00091010093900181E080938F0180917100BF
:1015F0008260809371000FC090918100987F892B49
:1016000080938100509389004093880080916F00FF
:10161000826080936F00CF911F910F91FF90EF90A8
:10162000DF90CF9008951F920F920FB60F92112462
:101630002F933F938F939F93AF93BF93EF93FF931A
:1016400080916501882309F44DC0809161019091DA
:101650006201A0916301B0916401892B8A2B8B2BCD
:1016600051F180919D01E0919E01F0919F01908147
:10167000892780838091610190916201A09163012B
:10168000B0916401181619061A061B06A4F580917C
:10169000610190916201A0916301B0916401019791
:1016A000A109B1098093610190936201A093630144
:1016B000B093640120C01092650180916F008D7F0E
:1016C00080936F0090919D01E0919E01F0919F01A8
:1016D0008081282F30E0892F90E08095909582239B
:1016E000932308C080919D01E0919E01F0919F019C
:1016F000908189278083FF91EF91BF91AF919F9156
:101700008F913F912F910F900FBE0F901F901895C2
:10171000E82FF0E0E65AF84FE491E13019F0E330B9
:1017200069F0089580916F008D7F80936F00909194
:101730009D01E0919E01F0919F0108C010928F01E0
:1017400090919A01E0919B01F0919C018081282F5A
:1017500030E0892F90E080959095822393238083B9
:1017600008951F920F920FB60F9211242F933F935B
:101770004F935F936F937F938F939F93AF93BF9399
:10178000EF93FF9380918F01882349F080919A0114
:10179000E0919B01F0919C01908189278083809149
:1017A0005C01882309F493C080918B0190918C0196
:1017B000A0918D01B0918E01892B8A2B8B2B09F47E
:1017C00086C080918B0190918C01A0918D01B09188
:1017D0008E010197A109B10980938B0190938C012F
:1017E000A0938D01B0938E01892B8A2B8B2B09F04E
:1017F0006EC0E0918901F0918A01BF016F5F7F4F58
:1018000070938A01609389014491942F907F842F73
:101810008F70903819F40E94880BEBCF903981F4C7
:101820003296F0938A01E0938901FB0164919091D3
:10183000A0018917F0F667FDDCCF0E949D0AD9CF81
:10184000903E29F410928A0110928901D2CF903FE4
:1018500019F410925C013BC097FDCBCF3296F09308
:101860008A01E0938901FB01249130E0342BA0919F
:101870009001B09191010E949E1B6C507E4F8F4F42
:101880009F4F28EE33E040E050E00E947C1B209305
:101890008B0130938C0140938D0150938E01809188
:1018A0008B0190918C01A0918D01B0918E01892BBB
:1018B0008A2B8B2B61F481E090E0A0E0B0E0809374
:1018C0008B0190938C01A0938D01B0938E01FF91B9
:1018D000EF91BF91AF919F918F917F916F915F91A8
:1018E0004F913F912F910F900FBE0F901F90189521
:1018F0006038710518F54034510500F5A42FA69500
:10190000A695A695B0E047705527B695BA2FAA2799
:10191000B795A7956A0F7B1FFC01E60FF71F81E0C3
:1019200090E001C0880F4A95EAF7222319F09489C4
:10193000892B03C0809594898923848B08952F92E5
:101940003F924F925F926F927F928F929F92AF924F
:10195000BF92CF92DF92EF92FF920F931F93CF939C
:10196000DF93CDB7DEB72A970FB6F894DEBF0FBE70
:10197000CDBF6A3091F4FC01E85EFB4F40813297A5
:101980002081318158E0459F200D311D1124318384
:101990002083329711821082C1C06D3009F4BEC01D
:1019A0009A878987885E9B4F9C838B83DC012C9070
:1019B000E985FA85EA5EFB4F60807180E985FA85EA
:1019C000EC5EFB4FFA83E983008111810038110539
:1019D000D4F0AB81BC812C91422F50E0E981FA8197
:1019E00080819181F6E02F9F800D911D1124A981A6
:1019F000BA818D939C93E985FA85E75EFB4F208140
:101A000021115EC08BC0B0E46B16710414F7C801DD
:101A1000E5E02E9E800D911D112418161906CCF6B6
:101A2000422C512CC301F8E02F9E800D911D1124F2
:101A30001816190674F655E0659F900111243F832E
:101A40002E83E12CF12C85E0E816F10441F0EE81C3
:101A5000FF81EE0DFF1DE15EFE4F349001C0312C81
:101A6000630138E0932D91709D834801882D801B80
:101A70008215B0F456018A2D8C19821568F42D81D7
:101A8000A501B40189859A8538870E94780CAFEF4B
:101A9000AA1ABA0A3885EFCFBFEF8B1A9B0AE6CF96
:101AA00036943150C40CD51C3111DCCFEFEFEE1A57
:101AB000FE0A040D151DF6E0EF16F10421F689CF9C
:101AC0006AEF64039001659F300D112420583F4F49
:101AD000281739071CF5A985BA85ED91FC91119756
:101AE0000190F081E02D6AE0CD012A960FB6F894BE
:101AF000DEBF0FBECDBFDF91CF911F910F91FF9041
:101B0000EF90DF90CF90BF90AF909F908F907F909D
:101B10006F905F904F903F902F9009942A960FB648
:101B2000F894DEBF0FBECDBFDF91CF911F910F9113
:101B3000FF90EF90DF90CF90BF90AF909F908F90ED
:101B40007F906F905F904F903F902F900895CF922D
:101B5000EF920F93CF93DF93FC01248D222309F49E
:101B600053C0EC016581768171A360A347815085E4
:101B700053A342A3228133812115310591F0CC2456
:101B8000C3948585813009F4C12C89A5481B51096E
:101B900088A5681B7109EE840F858EA19FA10E9404
:101BA00046070F85EE84402F50E08E2D8695869552
:101BB0008695282F30E06E2D677081E090E011F45B
:101BC00080E090E0820F931F489F9001499F300D65
:101BD000589F300D11244C81429FC001439F900DAE
:101BE000112428813981280F391F89A54F815885F3
:101BF000481B510988A56D817E81681B7109CD84C0
:101C00008EA19FA10E944607DF91CF910F91EF9087
:101C1000CF900895FC01228D85819681820F911DC0
:101C200096838583238D87819085820F911D908770
:101C30008783CF010C94A70DEF92FF920F931F9310
:101C4000CF93DF93DC01E90114961C92149781E095
:101C50001D968C931D9750961D921D921D921C925D
:101C6000539754961D921D921D921C9257975C9605
:101C70008C935C975D968C935D975E968C935E9744
:101C80005F961C925F9716965C934E9315971896E5
:101C90003C932E9317971A965C934E9319971C9624
:101CA0003C932E931B9797967C936E939697F8018F
:101CB00034911F963C931F97319684911E968C9376
:101CC0001E970E5F1F4F11961C930E93932F9695A0
:101CD00098969C939897982F969599969C939997F8
:101CE00091965C934E9390979396DC93CE939297B4
:101CF00094963C93949795968C9395971396FC9213
:101D0000EE921297DF91CF911F910F91FF90EF907C
:101D10000895FC0180919901811103C08FEF9FEF1D
:101D200008959FB7F89482E08093E9002091F20033
:101D300030E01216130614F421E030E021153105CD
:101D400059F0289884E6809398018091F10080836F
:101D50008091F200882319F09FBFC90108958BE696
:101D60008093E800F9CFCF93DF931F92CDB7DEB712
:101D70006983DC01ED91FC910280F381E02D41E06B
:101D800050E0BE016F5F7F4F09950F90DF91CF91BB
:101D9000089583E08093E9008091F200882319F090
:101DA0008AE38093E8000895CF93DF931F92CDB725
:101DB000DEB7FC018485958597FD05C02FEF3FEFC9
:101DC000358724870BC0CE0101960E94890E0197AA
:101DD00019F4898190E002C08FEF9FEF0F90DF919F
:101DE000CF9108950F931F93CF93DF931F92CDB799
:101DF000DEB78C01FC018485958597FF0EC0CE016E
:101E000001960E94890E019719F4298130E002C0E1
:101E10002FEF3FEFF80135872487F80184859585FA
:101E20000F90DF91CF911F910F910895FC01848550
:101E3000958597FD0BC09FB7F89482E08093E900E9
:101E40008091F2009FBF90E0019608959FB7F894AB
:101E500082E08093E9008091F2009FBF90E00895B6
:101E60007F928F929F92AF92BF92CF92DF92EF922A
:101E7000FF920F931F93CF93DF936C015B017A0165
:101E800080910E01882309F46BC080919901882309
:101E900009F466C08091970180FF05C08091E00041
:101EA00082608093E000E70110E00AEF83E0982E63
:101EB00090E4792E2AE3822E209709F448C08FB748
:101EC000F8949092E9009091E80095FF06C09091F7
:101ED000F200272D291B922F01C090E08FBF911196
:101EE0000AC0015009F43CC061E070E080E090E07D
:101EF0000E94EC09E1CF292F30E0C217D3070CF480
:101F00009C2F8FB7F8949092E9002091E80025FF6C
:101F10001CC0292F30E0C21BD30BF501915020F0DB
:101F200041914093F100FACFA20EB31E112319F094
:101F30008092E80009C09091E80095FD06C080926B
:101F4000E80011E0209709F010E08FBFB5CF111124
:101F5000B6CF5D9884E68093B7061E141F0444F044
:101F600081E090E0F6019383828380E090E001C0FD
:101F7000C701DF91CF911F910F91FF90EF90DF90FC
:101F8000CF90BF90AF909F908F907F900895CF9308
:101F9000DF939091A001923009F46EC0C82F292FD1
:101FA00030E0F901E65AF84FD491F901EC53F94FBA
:101FB00080839F5F9093A00161E00E941809D13057
:101FC00019F0D33039F158C010928000109281007E
:101FD0008091810088608093810080918100816080
:101FE000809381008C2F90E0FC01E55CF84FE49138
:101FF000F0E0EE0FFF1FE35DF84F25913491309331
:102000009F0120939E01FC01E25FF84F8491809331
:102010009D0132C010929000109291008091910029
:1020200088608093910080919100816080939100FD
:102030008C2F90E0FC01E55CF84FE491F0E0EE0FAE
:10204000FF1FE35DF84F2591349130939C0120935D
:102050009B01FC01E25FF84F849180939A0180918B
:10206000A001882321F06CE380E00E949D0A80E0BB
:10207000DF91CF910C94880BDF91CF910895009759
:1020800069F0FC0101900020E9F73197AF01481B8E
:10209000590BBC018DE992E00C94F60680E090E0CB
:1020A00008958091BC0681110DC082E08093B8062E
:1020B00084E08093B9061092BB061092BA0681E0C4
:1020C0008093BC0688EB96E008951F920F920FB69E
:1020D0000F9211248F939F938091E1009091E100E2
:1020E000937F9093E10083FF0FC01092E90091E08D
:1020F0009093EB001092EC0092E39093ED0010921D
:10210000990198E09093F00082FF20C093E09093B3
:10211000E9009091F200992319F09AE39093E80076
:102120009091B706992339F09091B706915090930A
:10213000B706992389F190919801992339F09091EC
:102140009801915090939801992341F184FF10C018
:102150008091E2008E7E81608093E2008091E100B8
:102160008F7E8093E100809197018E7E806111C007
:1021700080FF16C08091E2008E7E80618093E20035
:102180008091E1008E7E8093E100809197018E7EA8
:1021900081608093970104C05D9ACDCF289AD6CFF5
:1021A0009F918F910F900FBE0F901F9018954091A7
:1021B0001A0750911B0720911807309119074217F1
:1021C0005307B4F49091E8009570E1F39091E80022
:1021D00092FD19C08093F10080911A0790911B071E
:1021E00001968F739927892B19F48EEF8093E8005D
:1021F00080911A0790911B07019690931B0780937B
:102200001A0781E0089580E00895CF92DF92EF925F
:10221000FF920F931F93CF93DF931F92CDB7DEB73B
:10222000182F062FE42E862F880F8E5F99830E9429
:10223000D71083E00E94D710F12EC12E9981D92E9C
:102240008C2D8F19801798F4F601E7FE02C0849157
:1022500001C080810E94D710182F80E00E94D71003
:102260008123FFEFCF1ADF0A8111EACF01C081E09D
:102270000F90DF91CF911F910F91FF90EF90DF9022
:10228000CF900895DF92EF92FF920F931F93CF9319
:10229000DF93D82E8A017B01E40EF51EEB01CE15EB
:1022A000DF0571F0D7FE03C0FE01849101C0888173
:1022B0000E94D71021968111F2CF8FEF9FEF01C0BE
:1022C000C801DF91CF911F910F91FF90EF90DF90A8
:1022D0000895615030F02091F100FC0120830196B7
:1022E000F8CF289884E68093980108950F931F9360
:1022F000CF93DF931F92CDB7DEB782E0898342E4AC
:1023000050E061E27DE080E80E9442110E9451109D
:10231000DC0112960D911C9113970115110569F0BE
:10232000D801ED91FC910280F381E02DBE016F5F39
:102330007F4FC801099597FF07C089810F90DF91F2
:10234000CF911F910F910895F80100851185E5CF78
:102350001F920F920FB60F921124CF92DF92EF923D
:10236000FF920F931F932F933F934F935F936F931E
:102370007F938F939F93AF93BF93EF93FF93CF93ED
:10238000DF93CDB7DEB76C97DEBFCDBF1092E9000B
:102390008091E80083FFEDC168E0CE0145960E9480
:1023A000691182EF8093E8008D8987FF05C09091C5
:1023B000E80090FFFCCF03C09EEF9093E800982FB9
:1023C000907609F0C6C09E892F89188D91110CC096
:1023D000803829F4809117078093F10002C0109291
:1023E000F1001092F10048C1422F50E0512B913082
:1023F00051F4811141C14130510509F03DC1809135
:1024000017078D7F0BC0933061F4811135C14130C6
:10241000510509F031C18091170782608093170739
:102420002BC1953041F48091E80080FFFCCF2068FB
:102430002093E30021C1963009F05FC0EB8CFC8C47
:102440001092E90010921B0710921A07123091F5B2
:1024500010921907109218070E94761199E0BE0198
:102460006F5F7F4FDB01E92F1D92EA95E9F79983B2
:102470001A8391E09E8390EA98879AEF998720913A
:102480001A0730911B07275F3F4F3C832B838D83B7
:102490001092E90010921B0710921A07F092190788
:1024A000E092180749E050E080E00E9442110E944B
:1024B0007611E2C0F0921907E09218070E945110BD
:1024C000DC011296ED90FC901397E114F10409F4ED
:1024D000C0C0D701ED91FC910480F581E02DBE01D3
:1024E0006B5E7F4FC7010995009719F00CF0C4C0CF
:1024F000C7C0F701E084F184E8CF973009F4C0C089
:10250000983021F481E08093F100B6C0993009F051
:10251000B3C0837009F0B4C0E8E3F1E081E021E0EA
:1025200036E39081992361F08093E9002093EB00DA
:1025300091919093EC003093ED008F5F873089F795
:102540008EE78093EA001092EA008F8980939901C8
:1025500093C08B8D9C8D1092E90010921B071092F6
:102560001A079093190780931807898D811156C017
:102570008E899D89913A59F4813209F081C047E0F2
:1025800050E067E071E080E00E94421175C0913236
:1025900009F076C0833289F4888D90E0982F8827DF
:1025A0002F89822BA0E0B0E080931101909312015B
:1025B000A0931301B09314015FC0803269F480913D
:1025C000E80082FFFCCF67E087E091E00E9469119C
:1025D0008BEF8093E80006C0823209F04DC08F89EE
:1025E00080930E0180911607882319F0EEEFFAE030
:1025F00002C0E0E0F8E08091070190910801A0910D
:102600000901B0910A01803B9440A105B10509F090
:102610007BC080910E0180FF93C076C00E94511054
:10262000DC0112960D911C9113970115110541F1D2
:10263000D801ED91FC910190F081E02DBE016B5E1F
:102640007F4FC8010995811117C0F80100851185D8
:10265000ECCF113009F44EC0133091F48F898823E8
:1026600009F445C0823081F440E860E185E89DE0EE
:102670000E940511882321F08EEF8093E80079C035
:1026800081E28093EB0075C0813029F440E86BE073
:1026900089E79DE0EDCF833099F70E945110DC016E
:1026A0001296ED90FC9013978E010F5F1F4F6801FB
:1026B000E114F10479F0D701ED91FC910680F781E6
:1026C000E02DB801C7010995080F111DF701E0843D
:1026D000F184EECFD8011C92F60101900020E9F7B9
:1026E0003197BF016C197D0940E0C601C1CF63E697
:1026F0007DE002C067E67DE06115710509F2FB012E
:10270000449150E080E840CF0FB6F894A8958091AE
:102710006000886180936000109260000FBEA895F1
:10272000EE3F2AE0F20739F08091FE0A9091FF0A0D
:1027300091838083A1CF1092FF0A1092FE0A9CCF52
:10274000EE3F8AE0F80731F0808191819093FF0A93
:102750008093FE0A87E797E7918380839BE088E177
:102760000FB6F894A895809360000FBE9093600018
:1027700083CF6C960FB6F894DEBF0FBECDBFDF914E
:10278000CF91FF91EF91BF91AF919F918F917F91E9
:102790006F915F914F913F912F911F910F91FF90FA
:1027A000EF90DF90CF900F900FBE0F901F90189575
:1027B000789484B5826084BD84B5816084BD85B51C
:1027C000826085BD85B5816085BD80916E00816028
:1027D00080936E00109281008091810082608093CE
:1027E00081008091810081608093810080918000D0
:1027F000816080938000809191008260809391003D
:10280000809191008160809391008091900081601F
:10281000809390008091C10084608093C10080917A
:10282000C10082608093C1008091C100816080936B
:10283000C1008091C30081608093C3008091C0007B
:1028400082608093C0008091C20081608093C2004A
:1028500080917A00846080937A0080917A0082600F
:1028600080937A0080917A00816080937A008091D1
:102870007A00806880937A0010929901109217076D
:10288000109297018091D70081608093D70080EAF1
:102890008093D80089B5806189BD89B5826089BD82
:1028A00009B400FEFDCF61E070E080E090E00E949E
:1028B000EC098091D8008F7C80618093D800809152
:1028C000E000807F8093E0008091E1008E7E809325
:1028D000E1008DE08093E200559A209AEEEFFFE749
:1028E000859194918B3F9C4D19F481E0809316075C
:1028F000CFB7F89480916701811127C0ECE4F7E02D
:102900008491EFE1F7E09491E82FF0E0EE0FFF1FE4
:10291000E851FF4FA591B491EC91E92321F461E0D6
:1029200081E10E94B50861E081E10E9418098CB53F
:1029300080618CBD8CB580648CBD61E08FE00E94AD
:10294000180961E080E10E941809809167018F5F9A
:1029500080936701CFBFC3E0D1E0FE01849122964E
:1029600031966491882319F00E941809F6CF61E02E
:1029700086E00E94B50861E070E080E090E00E948F
:10298000EC0960E086E00E94B5086AE070E080E053
:1029900090E00E94EC0961E086E00E94B508E7E45F
:1029A000F7E0E491F0E0EE0FFF1FE35DF84F859153
:1029B000949190936D0180936C01EAE1F7E0E491CA
:1029C000E0936B01EFE3F7E0E491F0E0EE0FFF1F1F
:1029D000E35DF84F8591949190936A01809369012A
:1029E000E2E1F7E0E491E09368018CB58C7F8CBD67
:1029F0008DB581608DBDE0916C01F0916D0190818C
:102A000080916B01982B9083A0916901B0916A012C
:102A10002C9190916801909592239C939081809540
:102A200089238083E6EFF0E001E0E330F00749F02E
:102A300084918EBD00000DB407FEFDCF8EB531969A
:102A4000F3CFE0916901F0916A0190818091680172
:102A5000892B8083E0916C01F0916D0190818091D0
:102A60006B018095892380838091640081608093CD
:102A700064008091640082608093640080916400AF
:102A80008068809364008091640080648093640017
:102A9000809165008160809365000E94700A87FFC5
:102AA0001AC080E094E01EBC00000DB407FEFDCF0C
:102AB0002EB50197C1F760E070E08AE00E945409EA
:102AC00060E070E08BE00E94540960E070E089E013
:102AD0000E945409FFCF85E00E94C70F8DE00E943D
:102AE000C70F10925C0182E090E00E94421B882395
:102AF00069F080916400877F809364008091650015
:102B0000877F8093650081E0809366018CE38093EA
:102B1000A30280E18093A602D12C80910401D816F3
:102B200008F58AE290E00E94C71B5C01CD2DD0E041
:102B3000AE01495F5F4F63E0440F551F6A95E1F7AF
:102B4000E12CF12C06E111E023E030E06DE972E0C8
:102B50000E941C0ECC0FDD1FC259DE4FB982A88225
:102B6000D394DBCF2FE3C22ED12CE12CF12C3EE10C
:102B7000432E34E0532E612C712C94E7292E91E0E2
:102B8000392E2FB7F89480915D0190915E01A0914C
:102B90005F01B09160012FBF2091AF02222391F01D
:102BA0002091A702182F121B1093B0022091A402AB
:102BB0003091A5022F5F3F4F3093A5022093A402CE
:102BC0001092AF024091AB025091AC026091AD0205
:102BD0007091AE0284179507A607B7077CF4481BCF
:102BE000423008F47AC383B7817F83BF83B78160A3
:102BF00083BF889583B78E7F83BF6FC32091A60262
:102C0000AC01BD01420F511D611D711D4093AB020E
:102C10005093AC026093AD027093AE028093A70212
:102C20009093A802A093A902B093AA02C1E0C09316
:102C3000AF0280E021EB32E0B82FB111BFEFF90114
:102C40000024B193B193B193B1930394D1F78091E0
:102C50008801811137C083E792E00E94A70D80911F
:102C60000601882391F08CE190E09093B206809366
:102C7000B10686E390E09093B4068093B306C093C8
:102C8000B5068EE391E00E943F108091A4029091DE
:102C9000A5026EE170E00E94AD1B892B51F480917A
:102CA0000601882319F01092060103C081E0809389
:102CB00006010E94700A83FD18C30E94700A82FDFB
:102CC00014C307C30091840110918501E801609647
:102CD000A12CB12C21E0A501BE018DE992E00E945A
:102CE000780C3FEFA31AB30A80E4A816B10491F759
:102CF00058019EE0A90EB11C812C912C21E0A40169
:102D0000B5018DE992E00E94780CAFEF8A1A9A0A19
:102D1000B0E48B16910491F75801E0E7AE0EB11CB8
:102D2000812C912C21E0A401B5018DE992E00E9453
:102D3000780CFFEF8F1A9F0A20E48216910491F716
:102D400002591F4FA12CB12C21E0A501B8018DE93A
:102D500092E00E94780C3FEFA31AB30A80E4A81611
:102D6000B10491F7A0900201B0900301D7FF0EC00B
:102D7000C0E0D0E00BC0C817D9077CF421E0A50162
:102D8000BE018DE992E00E94780C2196C8010138BD
:102D900011058CF380E890E0EECF95E5A916B1041B
:102DA00034F08CEE9FEF909303018093020181E059
:102DB0008093B506809187018F93809186018F93D0
:102DC000ABE4B1E0BF93AF933F922F920E94F91C06
:102DD0001092B2061092B1061092B4061092B30689
:102DE00084E791E00E943F1008E710E01093B206DC
:102DF0000093B1061092B4061092B30680910101BF
:102E00001F928F93ABE4B1E0BF93AF933F922F92A9
:102E10000E94F91C84E791E00E943F100DB71EB795
:102E2000045F1F4F0FB6F8941EBF0FBE0DBFC0E06A
:102E300080910401C81760F4EC2FF0E0EE0FFF1F43
:102E4000E259FE4F808191810E94A70DCF5FF0CFA4
:102E50008FE192E00E940A0E8BEC91E00E94A70D98
:102E600085EF91E00E940A0E81EA91E00E940A0E2D
:102E7000C0918801C13009F08FC08AE390E090933F
:102E8000B2068093B10604E110E01093B4060093FB
:102E9000B306D2E0D093B506809105011F928F93BF
:102EA000ABE4B1E0BF93AF933F922F920E94F91C25
:102EB00084E791E00E943F1081EB92E00E948D0A2E
:102EC000C093650180918100887F8160809381003B
:102ED00088EA9FE190938900809388008BE391E0DA
:102EE000A0E0B0E08093610190936201A093630140
:102EF000B093640180916F00826080936F0068EEF0
:102F000073E080E090E00E94EC098091050181501F
:102F1000809305010F900F900F900F900F900F90DE
:102F20008111DBC181E390E09093B2068093B106FA
:102F30001093B4060093B306D093B5068EE491E0E7
:102F40000E943F1081EB92E00E948D0AC0936501C0
:102F500080918100887F81608093810084EB97E17C
:102F600090938900809388004092610150926201A1
:102F7000609263017092640180916F00826080931F
:102F80006F0068EE73E080E090E00E94EC09D0935F
:102F9000E601D0938801A1C1C33049F581EB92E0ED
:102FA0000E948D0A64EF71E080E090E00E94EC09DD
:102FB00088E090E09093B2068093B10682E190E0C1
:102FC0009093B4068093B30682E08093B50682E5C1
:102FD00091E00E943F1081EB92E00E948D0A68EB25
:102FE0007BE080E090E00E94EC09109288010E9452
:102FF000700A85FF08C08091A6019091A7018A31CF
:1030000091050CF0DCC10E94700A86FF08C0809117
:10301000A6019091A701873691050CF4E3C1209198
:10302000010130E08091020190910301820F931F12
:103030009093030180930201E0918401F091850156
:10304000CF0181589F4F9093FB018093FA018091AB
:10305000A4029091A50269E070E00E94AD1B892B4B
:1030600051F48091F901811104C081E08093F9014C
:1030700002C01092F9018091FC019091FD01820F34
:10308000931F8035910514F081EF9FEF9093FD0120
:103090008093FC01CF010497909325028093240232
:1030A0008091260290912702820F931F803591050F
:1030B00014F081EF9FEF9093270280932602809176
:1030C000D4019091D501E80FF91FF093D101E0935D
:1030D000D0018091E601281B31098091D2019091A5
:1030E000D301280F391F223E9FEF39072CF0309370
:1030F000D3012093D20106C082EE9FEF9093D301BB
:103100008093D2018091D2019091D3018C3FAFEF97
:103110009A0774F1109266028B3491054CF182EE9D
:103120009FEF9093D3018093D2010E94341B2CE433
:1031300030E040E050E00E944A1BDC01CB014A969F
:10314000A11DB11D9093D5018093D4010E94341B21
:1031500022E030E040E050E00E944A1BDC01CB015D
:103160000396A11DB11D8093E60181E08093660264
:1031700020918401309185018091D4019091D501F5
:10318000820F931F90934F0280934E0280916602AC
:103190008823C1F089E492E00E94A70D8091A402E7
:1031A0009091A50264E170E00E94AD1B892B51F45F
:1031B00080916502882319F01092650203C081E0B6
:1031C0008093650220910101211102C085E001C0B8
:1031D0008FE080930001809100016CE3869F602D59
:1031E000112470E08091A4029091A5020E94AD1B71
:1031F000892B29F4253018F42F5F20930101609169
:10320000C1017091C2018091C3019091C401A0914C
:10321000C6014091EB015091EC012091ED013091FC
:10322000EE01C091EF01B091F001E091C5018B0179
:103230000E0F111DF8014017510784F44C0F511D5A
:10324000641775075CF4AC014A0F511D241735074C
:103250002CF42B0F311D821793071CF120913F0294
:10326000309140024091410250914202C09143028C
:10327000B09144022E173F070CF0C7C02C0F311D30
:10328000621773070CF0C1C09C012A0F311D421751
:1032900053070CF0BAC04B0F511D841795070CF063
:1032A000B4C080910101882319F0815080930101FD
:1032B0008091C001882309F4CAC020910101809146
:1032C000860190918701820F911D909387018093D1
:1032D000860181EB92E00E948D0A80E090E0892BCC
:1032E00009F44FCC0E94000048CC81E08093880113
:1032F00023E02093050180E490E0909310018093F7
:103300000F011092870110928601209304012FEF84
:103310003FEF309303012093020110928501109238
:103320008401109201011092660222E330E0309392
:10333000A9012093A8019093A7018093A60180E39F
:1033400090E09093D3018093D20188E590E0909330
:10335000D5018093D4019093D1018093D0010E9434
:10336000341BA70196010E944A1BDC01CB01019688
:10337000A11DB11D9093FD018093FC010E94341B9F
:10338000A70196010E944A1BDC01CB010196A11DF9
:10339000B11D909327028093260280918401909121
:1033A00085019C0124503109309325022093240289
:1033B00081589F4F9093FB018093FA018ACF019728
:1033C0009093A7018093A60181EA91E00E940A0EE2
:1033D000809184019091850101969093850180935D
:1033E000840111CE01969093A7018093A60181EAF2
:1033F00091E00E940A0E80918401909185010197CD
:1034000090938501809384010ACE409115025091DA
:1034100016022091170230911802C0911902B09142
:103420001A024E175F070CF044C04C0F511D641771
:1034300075070CF03EC0AC014A0F511D241735072B
:10344000C4F52B0F311D821793079CF52ACF81E01D
:103450008093650180918100887F816080938100E5
:103460008FED9DE190938900809388008BE092E03E
:10347000A0E0B0E08093610190936201A0936301AA
:10348000B093640180916F00826080936F0080919F
:103490000401882319F081508093040181E0809316
:1034A000C00180910401811108CF83E080938801DD
:1034B00004CF1092C00101CFEF92FF920F931F93A0
:1034C000E6ECF6E01382128288EE93E0A0E0B0E032
:1034D00084839583A683B78383E291E0918380837D
:1034E0008FEF9FEF95878487EDE9F2E013821282D8
:1034F00083E391E0918380838CE3868380E18187FD
:103500001086178216861786108A118A128A1092E0
:10351000B2061092B1061092B4061092B30681E082
:103520008093B506E12CF12C0FE119E020E230E0A8
:1035300040E450E0BF0183E792E00E941C0E03E1EB
:1035400019E02FE030E040E250E06DE972E089E4FC
:1035500092E00E941C0E01EB18E020E030E04FEFFB
:103560005FEF6DE972E08FE192E00E941C0E0FEFB9
:1035700017E020E030E040E050E06DE972E085EFD8
:1035800091E00E941C0E04EC17E02FEF3FEF40E2A9
:1035900050E06DE972E08BEC91E00E941C0E4091CE
:1035A0000F01509110018CE5E82E87E0F82E0FE80E
:1035B00017E022E330E06DE972E081EA91E00E94D9
:1035C0001C0E1F910F91FF90EF9008958F929F9284
:1035D000AF92BF92CF92DF92EF92FF92CF93DF93A1
:1035E000EC01688179818A819B8161157105810572
:1035F000910521F464E279ED8BE597E02DE133EF5D
:1036000041E050E00E944A1B49015A019B01AC0174
:10361000A7EAB1E40E94691B6B017C01ACEEB4EF38
:10362000A50194010E94771BDC01CB018C0D9D1D2F
:10363000AE1DBF1DB7FF03C00197A109B048888325
:103640009983AA83BB83BC01CD019F77DF91CF9182
:10365000FF90EF90DF90CF90BF90AF909F908F90B2
:1036600008950E94E61A089585E191E00E94E61A05
:10367000089560931501709316018093170190933C
:1036800018010895F999FECF92BD81BDF89A992746
:1036900080B50895052E97FB1EF400940E94611BCF
:1036A00057FD07D00E947C1B07FC03D04EF40C94FE
:1036B000611B50954095309521953F4F4F4F5F4F7F
:1036C000089590958095709561957F4F8F4F9F4F8E
:1036D00008950E949E1BA59F900DB49F900DA49FDE
:1036E000800D911D11240895B7FF0C94691B0E9451
:1036F000691B821B930B0895A1E21A2EAA1BBB1B08
:10370000FD010DC0AA1FBB1FEE1FFF1FA217B307AD
:10371000E407F50720F0A21BB30BE40BF50B661FC3
:10372000771F881F991F1A9469F760957095809587
:1037300090959B01AC01BD01CF010895A29FB001FE
:10374000B39FC001A39F700D811D1124911DB29FD5
:10375000700D811D1124911D0895AA1BBB1B51E101
:1037600007C0AA1FBB1FA617B70710F0A61BB70BF1
:10377000881F991F5A95A9F780959095BC01CD0196
:103780000895EE0FFF1F0590F491E02D0994CF935B
:10379000DF938230910510F482E090E0E0911E0703
:1037A000F0911F0720E030E0C0E0D0E0309711F149
:1037B0004081518148175907C0F04817590761F4F3
:1037C00082819381209719F09B838A832BC09093E9
:1037D0001F0780931E0726C02115310519F04217D7
:1037E000530718F49A01BE01DF01EF010280F38153
:1037F000E02DDCCF2115310509F1281B390B2430D0
:10380000310590F412968D919C9113976115710575
:1038100021F0FB019383828304C090931F07809360
:103820001E07FD01329644C0FD01E20FF31F819394
:103830009193225031092D933C933AC020911C075B
:1038400030911D07232B41F420911B0130911C0165
:1038500030931D0720931C072091190130911A0104
:103860002115310541F42DB73EB740911D0150910E
:103870001E01241B350BE0911C07F0911D07E21778
:10388000F307A0F42E1B3F0B2817390778F0AC0183
:103890004E5F5F4F2417350748F04E0F5F1F509360
:1038A0001D0740931C078193919302C0E0E0F0E074
:1038B000CF01DF91CF9108950F931F93CF93DF93A3
:1038C000009709F48CC0FC01329713821282009198
:1038D0001E0710911F070115110581F42081318108
:1038E000820F931F20911C0730911D07281739075D
:1038F00079F5F0931D07E0931C0771C0D80140E0F3
:1039000050E0AE17BF0750F412962D913C911397DB
:10391000AD012115310509F1D901F3CF9D01DA017E
:103920003383228360817181860F971F82179307EB
:1039300069F4EC0128813981260F371F2E5F3F4F34
:10394000318320838A819B8193838283452B29F451
:10395000F0931F07E0931E0742C01396FC93EE936B
:103960001297ED01499159919E01240F351FE217DD
:10397000F30771F480819181840F951F029611964F
:103980009C938E938281938113969C938E9312972E
:10399000E0E0F0E0D80112968D919C91139700978A
:1039A00019F0F8018C01F6CF8D919C9198012E5F52
:1039B0003F4F820F931F20911C0730911D0728173E
:1039C000390769F4309729F410921F0710921E07E7
:1039D00002C01382128210931D0700931C07DF910F
:1039E000CF911F910F91089581E090E0F8940C948D
:1039F000D11FAEE0B0E0EFEFFCE10C94A81F0D8901
:103A00001E8986E08C831A8309838FEF9FE79E834C
:103A10008D83AE01475E5F4F6F89788DCE01019631
:103A20000E941C1D2F813885F801E20FF31F1082C0
:103A30002E96E4E00C94C41FACE0B0E0E2E2FDE1BD
:103A40000C949A1F7C016B018A01FC01178216827B
:103A5000838181FFBDC1CE0101964C01F7019381A5
:103A6000F60193FD859193FF81916F01882309F4FD
:103A7000ABC1853239F493FD859193FF81916F013C
:103A8000853229F4B70190E00E94041FE7CF512C42
:103A9000312C20E02032A0F48B3269F030F48032F7
:103AA00059F0833269F420612CC08D3239F08033B3
:103AB00039F4216026C02260246023C0286021C020
:103AC00027FD27C030ED380F3A3078F426FF06C0C6
:103AD000FAE05F9E300D1124532E13C08AE0389E09
:103AE000300D1124332E20620CC08E3221F426FDBD
:103AF0006BC1206406C08C3611F4206802C0883681
:103B000041F4F60193FD859193FF81916F0181113D
:103B1000C1CF982F9F7D9554933028F40C5F1F4F91
:103B2000FFE3F9830DC0833631F0833771F08335BD
:103B300009F05BC022C0F801808189830E5F1F4FAE
:103B400044244394512C540115C03801F2E06F0E07
:103B5000711CF801A080B18026FF03C0652D70E0C4
:103B600002C06FEF7FEFC5012C870E94F91E2C0168
:103B700083012C852F77222E17C03801F2E06F0EBB
:103B8000711CF801A080B18026FF03C0652D70E094
:103B900002C06FEF7FEFC5012C870E94EE1E2C0143
:103BA0002C852068222E830123FC1BC0832D90E0EE
:103BB00048165906B0F4B70180E290E00E94041F55
:103BC0003A94F4CFF50127FC859127FE81915F019E
:103BD000B70190E00E94041F31103A94F1E04F1AAF
:103BE00051084114510471F7E5C0843611F089364B
:103BF00039F5F80127FF07C06081718182819381C7
:103C00000C5F1F4F08C060817181072E000C880B6C
:103C1000990B0E5F1F4F2F76722E97FF09C090955C
:103C20008095709561957F4F8F4F9F4F2068722EC2
:103C30002AE030E0A4010E943C1FA82EA81844C02E
:103C4000853729F42F7EB22E2AE030E025C0F22FEE
:103C5000F97FBF2E8F36C1F018F4883579F0B4C0E3
:103C6000803719F0883721F0AFC02F2F2061B22E96
:103C7000B4FE0DC08B2D8460B82E09C024FF0AC08D
:103C80009F2F9660B92E06C028E030E005C020E1E5
:103C900030E002C020E132E0F801B7FE07C06081E9
:103CA0007181828193810C5F1F4F06C06081718199
:103CB00080E090E00E5F1F4FA4010E943C1FA82EE1
:103CC000A818FB2DFF777F2E76FE0BC0372D3E7F89
:103CD000A51450F474FE0AC072FC08C0372D3E7E55
:103CE00005C0BA2C372D03C0BA2C01C0B52C34FF47
:103CF0000DC0FE01EA0DF11D8081803311F4397E83
:103D000009C032FF06C0B394B39404C0832F8678F1
:103D100009F0B39433FD13C030FF06C05A2CB3141E
:103D200018F4530C5B18B32CB31468F4B70180E299
:103D300090E03C870E94041FB3943C85F5CFB314F8
:103D400010F43B1801C0312C34FF12C0B70180E3DE
:103D500090E03C870E94041F3C8532FF17C031FD74
:103D600003C088E790E002C088E590E0B7010CC08E
:103D7000832F867859F031FF02C08BE201C080E2C8
:103D800037FD8DE2B70190E00E94041FA51438F4BE
:103D9000B70180E390E00E94041F5A94F7CFAA94E1
:103DA000F401EA0DF11D8081B70190E00E94041F2B
:103DB000A110F5CF332009F451CEB70180E290E095
:103DC0000E94041F3A94F6CFF7018681978102C0C2
:103DD0008FEF9FEF2C96E2E10C94B61FFC0105904B
:103DE000615070400110D8F7809590958E0F9F1FFD
:103DF0000895FC016150704001900110D8F7809542
:103E000090958E0F9F1F08950F931F93CF93DF936D
:103E1000FB01238121FD03C08FEF9FEF28C022FF0C
:103E200016C046815781248135814217530744F4D7
:103E3000A081B1819D012F5F3F4F318320838C93FF
:103E4000268137812F5F3F4F3783268310C0EB01D8
:103E5000092F182F0084F185E02D0995892BE1F6B3
:103E60008E819F8101969F838E83812F902FDF917A
:103E7000CF911F910F910895FA01AA27283051F18F
:103E8000203181F1E8946F936E7F6E5F7F4F8F4F8B
:103E90009F4FAF4FB1E03ED0B4E03CD0670F781FEA
:103EA000891F9A1FA11D680F791F8A1F911DA11DCF
:103EB0006A0F711D811D911DA11D20D009F4689408
:103EC0003F912AE0269F11243019305D3193DEF6B0
:103ED000CF010895462F4770405D4193B3E00FD066
:103EE000C9F7F6CF462F4F70405D4A3318F0495D51
:103EF00031FD4052419302D0A9F7EACFB4E0A69534
:103F00009795879577956795BA95C9F70097610555
:103F1000710508959B01AC010A2E069457954795AB
:103F200037952795BA95C9F7620F731F841F951FA0
:103F3000A01D08952F923F924F925F926F927F92B1
:103F40008F929F92AF92BF92CF92DF92EF92FF92A9
:103F50000F931F93CF93DF93CDB7DEB7CA1BDB0B55
:103F60000FB6F894DEBF0FBECDBF09942A883988FA
:103F700048885F846E847D848C849B84AA84B98401
:103F8000C884DF80EE80FD800C811B81AA81B9810D
:103F9000CE0FD11D0FB6F894DEBF0FBECDBFED0121
:063FA0000895F894FFCF24
:103FA6000A01FFFF03030100E100000000000040DA
:103FB60000FFFFFFFF010000000000200780000057
:103FC600000000B30E300F160FD40EF20EC90E000D
:103FD6000000009F0CF60600C180810000005072B0
:103FE6006573732053746172742100257500474F01
:0C3FF600210047414D45204F5645520028
:00000001FF
